ARM GAS  C:\Users\Kenichi\AppData\Local\Temp\ccmL4w86.s 			page 1


   1              		.syntax unified
   2              		.cpu cortex-m3
   3              		.fpu softvfp
   4              		.eabi_attribute 20, 1
   5              		.eabi_attribute 21, 1
   6              		.eabi_attribute 23, 3
   7              		.eabi_attribute 24, 1
   8              		.eabi_attribute 25, 1
   9              		.eabi_attribute 26, 1
  10              		.eabi_attribute 30, 6
  11              		.eabi_attribute 34, 1
  12              		.eabi_attribute 18, 4
  13              		.thumb
  14              		.file	"cymetadata.c"
  15              		.text
  16              	.Ltext0:
  17              		.cfi_sections	.debug_frame
  18              		.global	cy_meta_configecc
  19              		.section	.cyconfigecc,"a",%progbits
  20              		.align	2
  21              		.type	cy_meta_configecc, %object
  22              		.size	cy_meta_configecc, 1548
  23              	cy_meta_configecc:
  24 0000 06       		.byte	6
  25 0001 52       		.byte	82
  26 0002 00       		.byte	0
  27 0003 40       		.byte	64
  28 0004 03       		.byte	3
  29 0005 64       		.byte	100
  30 0006 00       		.byte	0
  31 0007 40       		.byte	64
  32 0008 03       		.byte	3
  33 0009 65       		.byte	101
  34 000a 00       		.byte	0
  35 000b 40       		.byte	64
  36 000c 01       		.byte	1
  37 000d 01       		.byte	1
  38 000e 01       		.byte	1
  39 000f 40       		.byte	64
  40 0010 05       		.byte	5
  41 0011 05       		.byte	5
  42 0012 01       		.byte	1
  43 0013 40       		.byte	64
  44 0014 02       		.byte	2
  45 0015 07       		.byte	7
  46 0016 01       		.byte	1
  47 0017 40       		.byte	64
  48 0018 03       		.byte	3
  49 0019 09       		.byte	9
  50 001a 01       		.byte	1
  51 001b 40       		.byte	64
  52 001c 61       		.byte	97
  53 001d 0A       		.byte	10
  54 001e 01       		.byte	1
  55 001f 40       		.byte	64
  56 0020 34       		.byte	52
  57 0021 0B       		.byte	11
ARM GAS  C:\Users\Kenichi\AppData\Local\Temp\ccmL4w86.s 			page 2


  58 0022 01       		.byte	1
  59 0023 40       		.byte	64
  60 0024 0A       		.byte	10
  61 0025 0C       		.byte	12
  62 0026 01       		.byte	1
  63 0027 40       		.byte	64
  64 0028 3B       		.byte	59
  65 0029 0D       		.byte	13
  66 002a 01       		.byte	1
  67 002b 40       		.byte	64
  68 002c 2D       		.byte	45
  69 002d 0E       		.byte	14
  70 002e 01       		.byte	1
  71 002f 40       		.byte	64
  72 0030 1F       		.byte	31
  73 0031 0F       		.byte	15
  74 0032 01       		.byte	1
  75 0033 40       		.byte	64
  76 0034 32       		.byte	50
  77 0035 14       		.byte	20
  78 0036 01       		.byte	1
  79 0037 40       		.byte	64
  80 0038 15       		.byte	21
  81 0039 15       		.byte	21
  82 003a 01       		.byte	1
  83 003b 40       		.byte	64
  84 003c 3C       		.byte	60
  85 003d 16       		.byte	22
  86 003e 01       		.byte	1
  87 003f 40       		.byte	64
  88 0040 23       		.byte	35
  89 0041 17       		.byte	23
  90 0042 01       		.byte	1
  91 0043 40       		.byte	64
  92 0044 43       		.byte	67
  93 0045 18       		.byte	24
  94 0046 01       		.byte	1
  95 0047 40       		.byte	64
  96 0048 25       		.byte	37
  97 0049 19       		.byte	25
  98 004a 01       		.byte	1
  99 004b 40       		.byte	64
 100 004c 05       		.byte	5
 101 004d 40       		.byte	64
 102 004e 01       		.byte	1
 103 004f 40       		.byte	64
 104 0050 01       		.byte	1
 105 0051 41       		.byte	65
 106 0052 01       		.byte	1
 107 0053 40       		.byte	64
 108 0054 01       		.byte	1
 109 0055 42       		.byte	66
 110 0056 01       		.byte	1
 111 0057 40       		.byte	64
 112 0058 01       		.byte	1
 113 0059 43       		.byte	67
 114 005a 01       		.byte	1
ARM GAS  C:\Users\Kenichi\AppData\Local\Temp\ccmL4w86.s 			page 3


 115 005b 40       		.byte	64
 116 005c 02       		.byte	2
 117 005d 44       		.byte	68
 118 005e 01       		.byte	1
 119 005f 40       		.byte	64
 120 0060 08       		.byte	8
 121 0061 45       		.byte	69
 122 0062 01       		.byte	1
 123 0063 40       		.byte	64
 124 0064 02       		.byte	2
 125 0065 46       		.byte	70
 126 0066 01       		.byte	1
 127 0067 40       		.byte	64
 128 0068 05       		.byte	5
 129 0069 48       		.byte	72
 130 006a 01       		.byte	1
 131 006b 40       		.byte	64
 132 006c 0F       		.byte	15
 133 006d 49       		.byte	73
 134 006e 01       		.byte	1
 135 006f 40       		.byte	64
 136 0070 06       		.byte	6
 137 0071 50       		.byte	80
 138 0072 01       		.byte	1
 139 0073 40       		.byte	64
 140 0074 01       		.byte	1
 141 0075 51       		.byte	81
 142 0076 01       		.byte	1
 143 0077 40       		.byte	64
 144 0078 10       		.byte	16
 145 0079 02       		.byte	2
 146 007a 11       		.byte	17
 147 007b 42       		.byte	66
 148 007c 14       		.byte	20
 149 007d 80       		.byte	-128
 150 007e 1C       		.byte	28
 151 007f 3C       		.byte	60
 152 0080 60       		.byte	96
 153 0081 01       		.byte	1
 154 0082 64       		.byte	100
 155 0083 30       		.byte	48
 156 0084 8B       		.byte	-117
 157 0085 0F       		.byte	15
 158 0086 8D       		.byte	-115
 159 0087 72       		.byte	114
 160 0088 8E       		.byte	-114
 161 0089 38       		.byte	56
 162 008a 84       		.byte	-124
 163 008b 0D       		.byte	13
 164 008c 87       		.byte	-121
 165 008d 2D       		.byte	45
 166 008e 89       		.byte	-119
 167 008f 2D       		.byte	45
 168 0090 E2       		.byte	-30
 169 0091 04       		.byte	4
 170 0092 98       		.byte	-104
 171 0093 08       		.byte	8
ARM GAS  C:\Users\Kenichi\AppData\Local\Temp\ccmL4w86.s 			page 4


 172 0094 9D       		.byte	-99
 173 0095 40       		.byte	64
 174 0096 AC       		.byte	-84
 175 0097 08       		.byte	8
 176 0098 B1       		.byte	-79
 177 0099 40       		.byte	64
 178 009a EE       		.byte	-18
 179 009b 08       		.byte	8
 180 009c 98       		.byte	-104
 181 009d 08       		.byte	8
 182 009e 9D       		.byte	-99
 183 009f 40       		.byte	64
 184 00a0 A2       		.byte	-94
 185 00a1 10       		.byte	16
 186 00a2 AD       		.byte	-83
 187 00a3 10       		.byte	16
 188 00a4 AF       		.byte	-81
 189 00a5 01       		.byte	1
 190 00a6 02       		.byte	2
 191 00a7 05       		.byte	5
 192 00a8 05       		.byte	5
 193 00a9 10       		.byte	16
 194 00aa 0A       		.byte	10
 195 00ab 07       		.byte	7
 196 00ac 10       		.byte	16
 197 00ad 06       		.byte	6
 198 00ae 11       		.byte	17
 199 00af 11       		.byte	17
 200 00b0 13       		.byte	19
 201 00b1 04       		.byte	4
 202 00b2 18       		.byte	24
 203 00b3 02       		.byte	2
 204 00b4 1D       		.byte	29
 205 00b5 07       		.byte	7
 206 00b6 1F       		.byte	31
 207 00b7 08       		.byte	8
 208 00b8 21       		.byte	33
 209 00b9 07       		.byte	7
 210 00ba 22       		.byte	34
 211 00bb 03       		.byte	3
 212 00bc 23       		.byte	35
 213 00bd 18       		.byte	24
 214 00be 28       		.byte	40
 215 00bf 08       		.byte	8
 216 00c0 2B       		.byte	43
 217 00c1 1E       		.byte	30
 218 00c2 30       		.byte	48
 219 00c3 07       		.byte	7
 220 00c4 31       		.byte	49
 221 00c5 1C       		.byte	28
 222 00c6 33       		.byte	51
 223 00c7 03       		.byte	3
 224 00c8 34       		.byte	52
 225 00c9 08       		.byte	8
 226 00ca 39       		.byte	57
 227 00cb 08       		.byte	8
 228 00cc 3A       		.byte	58
ARM GAS  C:\Users\Kenichi\AppData\Local\Temp\ccmL4w86.s 			page 5


 229 00cd 02       		.byte	2
 230 00ce 3B       		.byte	59
 231 00cf 02       		.byte	2
 232 00d0 3F       		.byte	63
 233 00d1 04       		.byte	4
 234 00d2 40       		.byte	64
 235 00d3 03       		.byte	3
 236 00d4 45       		.byte	69
 237 00d5 05       		.byte	5
 238 00d6 47       		.byte	71
 239 00d7 01       		.byte	1
 240 00d8 48       		.byte	72
 241 00d9 11       		.byte	17
 242 00da 49       		.byte	73
 243 00db FF       		.byte	-1
 244 00dc 4A       		.byte	74
 245 00dd 07       		.byte	7
 246 00de 4B       		.byte	75
 247 00df FF       		.byte	-1
 248 00e0 4C       		.byte	76
 249 00e1 40       		.byte	64
 250 00e2 4D       		.byte	77
 251 00e3 20       		.byte	32
 252 00e4 4E       		.byte	78
 253 00e5 F0       		.byte	-16
 254 00e6 4F       		.byte	79
 255 00e7 05       		.byte	5
 256 00e8 50       		.byte	80
 257 00e9 08       		.byte	8
 258 00ea 58       		.byte	88
 259 00eb 04       		.byte	4
 260 00ec 59       		.byte	89
 261 00ed 04       		.byte	4
 262 00ee 5A       		.byte	90
 263 00ef 04       		.byte	4
 264 00f0 5C       		.byte	92
 265 00f1 11       		.byte	17
 266 00f2 5D       		.byte	93
 267 00f3 01       		.byte	1
 268 00f4 5F       		.byte	95
 269 00f5 01       		.byte	1
 270 00f6 60       		.byte	96
 271 00f7 40       		.byte	64
 272 00f8 61       		.byte	97
 273 00f9 A8       		.byte	-88
 274 00fa 62       		.byte	98
 275 00fb 40       		.byte	64
 276 00fc 63       		.byte	99
 277 00fd 20       		.byte	32
 278 00fe 80       		.byte	-128
 279 00ff 0C       		.byte	12
 280 0100 81       		.byte	-127
 281 0101 03       		.byte	3
 282 0102 82       		.byte	-126
 283 0103 11       		.byte	17
 284 0104 83       		.byte	-125
 285 0105 14       		.byte	20
ARM GAS  C:\Users\Kenichi\AppData\Local\Temp\ccmL4w86.s 			page 6


 286 0106 86       		.byte	-122
 287 0107 10       		.byte	16
 288 0108 88       		.byte	-120
 289 0109 09       		.byte	9
 290 010a 8A       		.byte	-118
 291 010b 10       		.byte	16
 292 010c 8C       		.byte	-116
 293 010d 10       		.byte	16
 294 010e 8E       		.byte	-114
 295 010f 0C       		.byte	12
 296 0110 91       		.byte	-111
 297 0111 13       		.byte	19
 298 0112 92       		.byte	-110
 299 0113 03       		.byte	3
 300 0114 93       		.byte	-109
 301 0115 04       		.byte	4
 302 0116 98       		.byte	-104
 303 0117 14       		.byte	20
 304 0118 9D       		.byte	-99
 305 0119 13       		.byte	19
 306 011a 9F       		.byte	-97
 307 011b 0C       		.byte	12
 308 011c A0       		.byte	-96
 309 011d 1C       		.byte	28
 310 011e A1       		.byte	-95
 311 011f 20       		.byte	32
 312 0120 A2       		.byte	-94
 313 0121 02       		.byte	2
 314 0122 A8       		.byte	-88
 315 0123 20       		.byte	32
 316 0124 AB       		.byte	-85
 317 0125 1E       		.byte	30
 318 0126 AD       		.byte	-83
 319 0127 09       		.byte	9
 320 0128 AF       		.byte	-81
 321 0129 10       		.byte	16
 322 012a B0       		.byte	-80
 323 012b 1F       		.byte	31
 324 012c B1       		.byte	-79
 325 012d 10       		.byte	16
 326 012e B3       		.byte	-77
 327 012f 20       		.byte	32
 328 0130 B4       		.byte	-76
 329 0131 20       		.byte	32
 330 0132 B7       		.byte	-73
 331 0133 0F       		.byte	15
 332 0134 B8       		.byte	-72
 333 0135 08       		.byte	8
 334 0136 BB       		.byte	-69
 335 0137 80       		.byte	-128
 336 0138 BE       		.byte	-66
 337 0139 10       		.byte	16
 338 013a BF       		.byte	-65
 339 013b 05       		.byte	5
 340 013c C0       		.byte	-64
 341 013d 52       		.byte	82
 342 013e C1       		.byte	-63
ARM GAS  C:\Users\Kenichi\AppData\Local\Temp\ccmL4w86.s 			page 7


 343 013f 04       		.byte	4
 344 0140 C5       		.byte	-59
 345 0141 EB       		.byte	-21
 346 0142 C7       		.byte	-57
 347 0143 C0       		.byte	-64
 348 0144 C8       		.byte	-56
 349 0145 23       		.byte	35
 350 0146 C9       		.byte	-55
 351 0147 FF       		.byte	-1
 352 0148 CA       		.byte	-54
 353 0149 FF       		.byte	-1
 354 014a CB       		.byte	-53
 355 014b FF       		.byte	-1
 356 014c CE       		.byte	-50
 357 014d F0       		.byte	-16
 358 014e CF       		.byte	-49
 359 014f 44       		.byte	68
 360 0150 D0       		.byte	-48
 361 0151 0C       		.byte	12
 362 0152 D4       		.byte	-44
 363 0153 01       		.byte	1
 364 0154 D8       		.byte	-40
 365 0155 04       		.byte	4
 366 0156 D9       		.byte	-39
 367 0157 04       		.byte	4
 368 0158 DA       		.byte	-38
 369 0159 04       		.byte	4
 370 015a DB       		.byte	-37
 371 015b 04       		.byte	4
 372 015c DC       		.byte	-36
 373 015d 11       		.byte	17
 374 015e DD       		.byte	-35
 375 015f 11       		.byte	17
 376 0160 DF       		.byte	-33
 377 0161 01       		.byte	1
 378 0162 E6       		.byte	-26
 379 0163 C0       		.byte	-64
 380 0164 EA       		.byte	-22
 381 0165 40       		.byte	64
 382 0166 EB       		.byte	-21
 383 0167 02       		.byte	2
 384 0168 01       		.byte	1
 385 0169 20       		.byte	32
 386 016a 02       		.byte	2
 387 016b 80       		.byte	-128
 388 016c 05       		.byte	5
 389 016d A5       		.byte	-91
 390 016e 09       		.byte	9
 391 016f 02       		.byte	2
 392 0170 0B       		.byte	11
 393 0171 04       		.byte	4
 394 0172 0E       		.byte	14
 395 0173 40       		.byte	64
 396 0174 0F       		.byte	15
 397 0175 08       		.byte	8
 398 0176 10       		.byte	16
 399 0177 40       		.byte	64
ARM GAS  C:\Users\Kenichi\AppData\Local\Temp\ccmL4w86.s 			page 8


 400 0178 12       		.byte	18
 401 0179 04       		.byte	4
 402 017a 15       		.byte	21
 403 017b 02       		.byte	2
 404 017c 16       		.byte	22
 405 017d 04       		.byte	4
 406 017e 19       		.byte	25
 407 017f 21       		.byte	33
 408 0180 1D       		.byte	29
 409 0181 20       		.byte	32
 410 0182 1E       		.byte	30
 411 0183 60       		.byte	96
 412 0184 21       		.byte	33
 413 0185 07       		.byte	7
 414 0186 24       		.byte	36
 415 0187 40       		.byte	64
 416 0188 26       		.byte	38
 417 0189 84       		.byte	-124
 418 018a 28       		.byte	40
 419 018b 40       		.byte	64
 420 018c 29       		.byte	41
 421 018d 21       		.byte	33
 422 018e 2D       		.byte	45
 423 018f 21       		.byte	33
 424 0190 2F       		.byte	47
 425 0191 02       		.byte	2
 426 0192 31       		.byte	49
 427 0193 02       		.byte	2
 428 0194 32       		.byte	50
 429 0195 80       		.byte	-128
 430 0196 33       		.byte	51
 431 0197 02       		.byte	2
 432 0198 35       		.byte	53
 433 0199 81       		.byte	-127
 434 019a 36       		.byte	54
 435 019b 80       		.byte	-128
 436 019c 3B       		.byte	59
 437 019d 04       		.byte	4
 438 019e 3F       		.byte	63
 439 019f 02       		.byte	2
 440 01a0 41       		.byte	65
 441 01a1 04       		.byte	4
 442 01a2 44       		.byte	68
 443 01a3 40       		.byte	64
 444 01a4 45       		.byte	69
 445 01a5 20       		.byte	32
 446 01a6 49       		.byte	73
 447 01a7 04       		.byte	4
 448 01a8 4B       		.byte	75
 449 01a9 04       		.byte	4
 450 01aa 4D       		.byte	77
 451 01ab 81       		.byte	-127
 452 01ac 4F       		.byte	79
 453 01ad 08       		.byte	8
 454 01ae 52       		.byte	82
 455 01af 04       		.byte	4
 456 01b0 57       		.byte	87
ARM GAS  C:\Users\Kenichi\AppData\Local\Temp\ccmL4w86.s 			page 9


 457 01b1 01       		.byte	1
 458 01b2 5C       		.byte	92
 459 01b3 40       		.byte	64
 460 01b4 5D       		.byte	93
 461 01b5 11       		.byte	17
 462 01b6 5E       		.byte	94
 463 01b7 08       		.byte	8
 464 01b8 96       		.byte	-106
 465 01b9 40       		.byte	64
 466 01ba AF       		.byte	-81
 467 01bb 04       		.byte	4
 468 01bc C0       		.byte	-64
 469 01bd FA       		.byte	-6
 470 01be C2       		.byte	-62
 471 01bf 5A       		.byte	90
 472 01c0 C4       		.byte	-60
 473 01c1 5A       		.byte	90
 474 01c2 CA       		.byte	-54
 475 01c3 B5       		.byte	-75
 476 01c4 CC       		.byte	-52
 477 01c5 99       		.byte	-103
 478 01c6 CE       		.byte	-50
 479 01c7 82       		.byte	-126
 480 01c8 D0       		.byte	-48
 481 01c9 A2       		.byte	-94
 482 01ca D2       		.byte	-46
 483 01cb 10       		.byte	16
 484 01cc D6       		.byte	-42
 485 01cd F0       		.byte	-16
 486 01ce E8       		.byte	-24
 487 01cf 80       		.byte	-128
 488 01d0 10       		.byte	16
 489 01d1 01       		.byte	1
 490 01d2 2D       		.byte	45
 491 01d3 01       		.byte	1
 492 01d4 31       		.byte	49
 493 01d5 01       		.byte	1
 494 01d6 32       		.byte	50
 495 01d7 01       		.byte	1
 496 01d8 38       		.byte	56
 497 01d9 02       		.byte	2
 498 01da 3E       		.byte	62
 499 01db 04       		.byte	4
 500 01dc 3F       		.byte	63
 501 01dd 01       		.byte	1
 502 01de 58       		.byte	88
 503 01df 04       		.byte	4
 504 01e0 59       		.byte	89
 505 01e1 04       		.byte	4
 506 01e2 5F       		.byte	95
 507 01e3 01       		.byte	1
 508 01e4 00       		.byte	0
 509 01e5 40       		.byte	64
 510 01e6 02       		.byte	2
 511 01e7 90       		.byte	-112
 512 01e8 03       		.byte	3
 513 01e9 08       		.byte	8
ARM GAS  C:\Users\Kenichi\AppData\Local\Temp\ccmL4w86.s 			page 10


 514 01ea 09       		.byte	9
 515 01eb 28       		.byte	40
 516 01ec 0E       		.byte	14
 517 01ed 80       		.byte	-128
 518 01ee 11       		.byte	17
 519 01ef 14       		.byte	20
 520 01f0 13       		.byte	19
 521 01f1 02       		.byte	2
 522 01f2 18       		.byte	24
 523 01f3 04       		.byte	4
 524 01f4 1A       		.byte	26
 525 01f5 80       		.byte	-128
 526 01f6 1B       		.byte	27
 527 01f7 0A       		.byte	10
 528 01f8 1E       		.byte	30
 529 01f9 80       		.byte	-128
 530 01fa 1F       		.byte	31
 531 01fb 04       		.byte	4
 532 01fc 20       		.byte	32
 533 01fd 41       		.byte	65
 534 01fe 21       		.byte	33
 535 01ff 20       		.byte	32
 536 0200 22       		.byte	34
 537 0201 04       		.byte	4
 538 0202 25       		.byte	37
 539 0203 01       		.byte	1
 540 0204 29       		.byte	41
 541 0205 94       		.byte	-108
 542 0206 2E       		.byte	46
 543 0207 40       		.byte	64
 544 0208 31       		.byte	49
 545 0209 68       		.byte	104
 546 020a 33       		.byte	51
 547 020b 02       		.byte	2
 548 020c 38       		.byte	56
 549 020d 58       		.byte	88
 550 020e 39       		.byte	57
 551 020f 22       		.byte	34
 552 0210 3A       		.byte	58
 553 0211 10       		.byte	16
 554 0212 40       		.byte	64
 555 0213 11       		.byte	17
 556 0214 41       		.byte	65
 557 0215 20       		.byte	32
 558 0216 43       		.byte	67
 559 0217 02       		.byte	2
 560 0218 4A       		.byte	74
 561 0219 80       		.byte	-128
 562 021a 4B       		.byte	75
 563 021b 40       		.byte	64
 564 021c 53       		.byte	83
 565 021d 80       		.byte	-128
 566 021e 5A       		.byte	90
 567 021f 08       		.byte	8
 568 0220 68       		.byte	104
 569 0221 14       		.byte	20
 570 0222 69       		.byte	105
ARM GAS  C:\Users\Kenichi\AppData\Local\Temp\ccmL4w86.s 			page 11


 571 0223 14       		.byte	20
 572 0224 6B       		.byte	107
 573 0225 02       		.byte	2
 574 0226 71       		.byte	113
 575 0227 54       		.byte	84
 576 0228 8D       		.byte	-115
 577 0229 01       		.byte	1
 578 022a 90       		.byte	-112
 579 022b 08       		.byte	8
 580 022c 91       		.byte	-111
 581 022d 22       		.byte	34
 582 022e 93       		.byte	-109
 583 022f 40       		.byte	64
 584 0230 94       		.byte	-108
 585 0231 44       		.byte	68
 586 0232 96       		.byte	-106
 587 0233 80       		.byte	-128
 588 0234 99       		.byte	-103
 589 0235 80       		.byte	-128
 590 0236 9D       		.byte	-99
 591 0237 54       		.byte	84
 592 0238 A1       		.byte	-95
 593 0239 08       		.byte	8
 594 023a A4       		.byte	-92
 595 023b 14       		.byte	20
 596 023c A5       		.byte	-91
 597 023d 20       		.byte	32
 598 023e A7       		.byte	-89
 599 023f 80       		.byte	-128
 600 0240 B1       		.byte	-79
 601 0241 01       		.byte	1
 602 0242 B3       		.byte	-77
 603 0243 10       		.byte	16
 604 0244 B4       		.byte	-76
 605 0245 04       		.byte	4
 606 0246 B5       		.byte	-75
 607 0247 01       		.byte	1
 608 0248 C0       		.byte	-64
 609 0249 0F       		.byte	15
 610 024a C2       		.byte	-62
 611 024b 16       		.byte	22
 612 024c C4       		.byte	-60
 613 024d 0E       		.byte	14
 614 024e CA       		.byte	-54
 615 024f 1E       		.byte	30
 616 0250 CC       		.byte	-52
 617 0251 0F       		.byte	15
 618 0252 CE       		.byte	-50
 619 0253 0F       		.byte	15
 620 0254 D0       		.byte	-48
 621 0255 0F       		.byte	15
 622 0256 D2       		.byte	-46
 623 0257 08       		.byte	8
 624 0258 D6       		.byte	-42
 625 0259 02       		.byte	2
 626 025a 01       		.byte	1
 627 025b 04       		.byte	4
ARM GAS  C:\Users\Kenichi\AppData\Local\Temp\ccmL4w86.s 			page 12


 628 025c 04       		.byte	4
 629 025d DC       		.byte	-36
 630 025e 05       		.byte	5
 631 025f 3C       		.byte	60
 632 0260 07       		.byte	7
 633 0261 02       		.byte	2
 634 0262 08       		.byte	8
 635 0263 DC       		.byte	-36
 636 0264 09       		.byte	9
 637 0265 3F       		.byte	63
 638 0266 0C       		.byte	12
 639 0267 07       		.byte	7
 640 0268 0D       		.byte	13
 641 0269 1C       		.byte	28
 642 026a 0E       		.byte	14
 643 026b 18       		.byte	24
 644 026c 0F       		.byte	15
 645 026d 21       		.byte	33
 646 026e 12       		.byte	18
 647 026f 03       		.byte	3
 648 0270 13       		.byte	19
 649 0271 40       		.byte	64
 650 0272 14       		.byte	20
 651 0273 49       		.byte	73
 652 0274 15       		.byte	21
 653 0275 18       		.byte	24
 654 0276 16       		.byte	22
 655 0277 A4       		.byte	-92
 656 0278 18       		.byte	24
 657 0279 03       		.byte	3
 658 027a 19       		.byte	25
 659 027b 27       		.byte	39
 660 027c 1B       		.byte	27
 661 027d 18       		.byte	24
 662 027e 1F       		.byte	31
 663 027f 23       		.byte	35
 664 0280 20       		.byte	32
 665 0281 92       		.byte	-110
 666 0282 22       		.byte	34
 667 0283 44       		.byte	68
 668 0284 23       		.byte	35
 669 0285 40       		.byte	64
 670 0286 24       		.byte	36
 671 0287 03       		.byte	3
 672 0288 27       		.byte	39
 673 0289 04       		.byte	4
 674 028a 29       		.byte	41
 675 028b 08       		.byte	8
 676 028c 2A       		.byte	42
 677 028d 03       		.byte	3
 678 028e 2D       		.byte	45
 679 028f 10       		.byte	16
 680 0290 2E       		.byte	46
 681 0291 03       		.byte	3
 682 0292 30       		.byte	48
 683 0293 03       		.byte	3
 684 0294 31       		.byte	49
ARM GAS  C:\Users\Kenichi\AppData\Local\Temp\ccmL4w86.s 			page 13


 685 0295 38       		.byte	56
 686 0296 32       		.byte	50
 687 0297 20       		.byte	32
 688 0298 33       		.byte	51
 689 0299 1F       		.byte	31
 690 029a 34       		.byte	52
 691 029b C0       		.byte	-64
 692 029c 36       		.byte	54
 693 029d 1C       		.byte	28
 694 029e 37       		.byte	55
 695 029f 40       		.byte	64
 696 02a0 3B       		.byte	59
 697 02a1 28       		.byte	40
 698 02a2 3F       		.byte	63
 699 02a3 40       		.byte	64
 700 02a4 54       		.byte	84
 701 02a5 18       		.byte	24
 702 02a6 56       		.byte	86
 703 02a7 04       		.byte	4
 704 02a8 58       		.byte	88
 705 02a9 04       		.byte	4
 706 02aa 59       		.byte	89
 707 02ab 04       		.byte	4
 708 02ac 5B       		.byte	91
 709 02ad 04       		.byte	4
 710 02ae 5C       		.byte	92
 711 02af 11       		.byte	17
 712 02b0 5D       		.byte	93
 713 02b1 10       		.byte	16
 714 02b2 5F       		.byte	95
 715 02b3 01       		.byte	1
 716 02b4 00       		.byte	0
 717 02b5 28       		.byte	40
 718 02b6 01       		.byte	1
 719 02b7 80       		.byte	-128
 720 02b8 09       		.byte	9
 721 02b9 20       		.byte	32
 722 02ba 0A       		.byte	10
 723 02bb 80       		.byte	-128
 724 02bc 0B       		.byte	11
 725 02bd 20       		.byte	32
 726 02be 11       		.byte	17
 727 02bf 42       		.byte	66
 728 02c0 12       		.byte	18
 729 02c1 28       		.byte	40
 730 02c2 18       		.byte	24
 731 02c3 08       		.byte	8
 732 02c4 19       		.byte	25
 733 02c5 89       		.byte	-119
 734 02c6 21       		.byte	33
 735 02c7 1C       		.byte	28
 736 02c8 22       		.byte	34
 737 02c9 A9       		.byte	-87
 738 02ca 23       		.byte	35
 739 02cb 40       		.byte	64
 740 02cc 29       		.byte	41
 741 02cd 58       		.byte	88
ARM GAS  C:\Users\Kenichi\AppData\Local\Temp\ccmL4w86.s 			page 14


 742 02ce 2B       		.byte	43
 743 02cf 80       		.byte	-128
 744 02d0 31       		.byte	49
 745 02d1 24       		.byte	36
 746 02d2 32       		.byte	50
 747 02d3 41       		.byte	65
 748 02d4 38       		.byte	56
 749 02d5 40       		.byte	64
 750 02d6 39       		.byte	57
 751 02d7 6A       		.byte	106
 752 02d8 59       		.byte	89
 753 02d9 01       		.byte	1
 754 02da 60       		.byte	96
 755 02db 04       		.byte	4
 756 02dc 62       		.byte	98
 757 02dd 80       		.byte	-128
 758 02de 63       		.byte	99
 759 02df 80       		.byte	-128
 760 02e0 83       		.byte	-125
 761 02e1 40       		.byte	64
 762 02e2 C0       		.byte	-64
 763 02e3 07       		.byte	7
 764 02e4 C2       		.byte	-62
 765 02e5 0E       		.byte	14
 766 02e6 C4       		.byte	-60
 767 02e7 0F       		.byte	15
 768 02e8 CA       		.byte	-54
 769 02e9 0F       		.byte	15
 770 02ea CC       		.byte	-52
 771 02eb 0F       		.byte	15
 772 02ec CE       		.byte	-50
 773 02ed 0F       		.byte	15
 774 02ee D6       		.byte	-42
 775 02ef 01       		.byte	1
 776 02f0 D8       		.byte	-40
 777 02f1 0D       		.byte	13
 778 02f2 22       		.byte	34
 779 02f3 01       		.byte	1
 780 02f4 2E       		.byte	46
 781 02f5 01       		.byte	1
 782 02f6 36       		.byte	54
 783 02f7 01       		.byte	1
 784 02f8 3E       		.byte	62
 785 02f9 40       		.byte	64
 786 02fa 40       		.byte	64
 787 02fb 54       		.byte	84
 788 02fc 49       		.byte	73
 789 02fd FF       		.byte	-1
 790 02fe 4A       		.byte	74
 791 02ff FF       		.byte	-1
 792 0300 4B       		.byte	75
 793 0301 FF       		.byte	-1
 794 0302 4F       		.byte	79
 795 0303 01       		.byte	1
 796 0304 50       		.byte	80
 797 0305 18       		.byte	24
 798 0306 52       		.byte	82
ARM GAS  C:\Users\Kenichi\AppData\Local\Temp\ccmL4w86.s 			page 15


 799 0307 80       		.byte	-128
 800 0308 54       		.byte	84
 801 0309 01       		.byte	1
 802 030a 58       		.byte	88
 803 030b 04       		.byte	4
 804 030c 5A       		.byte	90
 805 030d 04       		.byte	4
 806 030e 5B       		.byte	91
 807 030f 04       		.byte	4
 808 0310 5D       		.byte	93
 809 0311 11       		.byte	17
 810 0312 5F       		.byte	95
 811 0313 01       		.byte	1
 812 0314 60       		.byte	96
 813 0315 40       		.byte	64
 814 0316 62       		.byte	98
 815 0317 40       		.byte	64
 816 0318 64       		.byte	100
 817 0319 40       		.byte	64
 818 031a 65       		.byte	101
 819 031b 40       		.byte	64
 820 031c 66       		.byte	102
 821 031d 80       		.byte	-128
 822 031e 68       		.byte	104
 823 031f 80       		.byte	-128
 824 0320 6A       		.byte	106
 825 0321 80       		.byte	-128
 826 0322 6C       		.byte	108
 827 0323 80       		.byte	-128
 828 0324 6E       		.byte	110
 829 0325 80       		.byte	-128
 830 0326 C0       		.byte	-64
 831 0327 54       		.byte	84
 832 0328 C5       		.byte	-59
 833 0329 EC       		.byte	-20
 834 032a C6       		.byte	-58
 835 032b 02       		.byte	2
 836 032c C8       		.byte	-56
 837 032d 07       		.byte	7
 838 032e C9       		.byte	-55
 839 032f FF       		.byte	-1
 840 0330 CA       		.byte	-54
 841 0331 FF       		.byte	-1
 842 0332 CB       		.byte	-53
 843 0333 FF       		.byte	-1
 844 0334 CD       		.byte	-51
 845 0335 83       		.byte	-125
 846 0336 CE       		.byte	-50
 847 0337 03       		.byte	3
 848 0338 CF       		.byte	-49
 849 0339 01       		.byte	1
 850 033a D0       		.byte	-48
 851 033b 18       		.byte	24
 852 033c DA       		.byte	-38
 853 033d 04       		.byte	4
 854 033e DB       		.byte	-37
 855 033f 04       		.byte	4
ARM GAS  C:\Users\Kenichi\AppData\Local\Temp\ccmL4w86.s 			page 16


 856 0340 DD       		.byte	-35
 857 0341 01       		.byte	1
 858 0342 DF       		.byte	-33
 859 0343 01       		.byte	1
 860 0344 E0       		.byte	-32
 861 0345 40       		.byte	64
 862 0346 E2       		.byte	-30
 863 0347 40       		.byte	64
 864 0348 E4       		.byte	-28
 865 0349 40       		.byte	64
 866 034a E5       		.byte	-27
 867 034b 40       		.byte	64
 868 034c E6       		.byte	-26
 869 034d 80       		.byte	-128
 870 034e E8       		.byte	-24
 871 034f 80       		.byte	-128
 872 0350 EA       		.byte	-22
 873 0351 80       		.byte	-128
 874 0352 EC       		.byte	-20
 875 0353 80       		.byte	-128
 876 0354 EE       		.byte	-18
 877 0355 80       		.byte	-128
 878 0356 10       		.byte	16
 879 0357 82       		.byte	-126
 880 0358 19       		.byte	25
 881 0359 40       		.byte	64
 882 035a 42       		.byte	66
 883 035b 80       		.byte	-128
 884 035c 46       		.byte	70
 885 035d 80       		.byte	-128
 886 035e 48       		.byte	72
 887 035f 02       		.byte	2
 888 0360 4C       		.byte	76
 889 0361 02       		.byte	2
 890 0362 4D       		.byte	77
 891 0363 0A       		.byte	10
 892 0364 54       		.byte	84
 893 0365 80       		.byte	-128
 894 0366 56       		.byte	86
 895 0367 80       		.byte	-128
 896 0368 59       		.byte	89
 897 0369 4A       		.byte	74
 898 036a 5D       		.byte	93
 899 036b 24       		.byte	36
 900 036c 5E       		.byte	94
 901 036d 81       		.byte	-127
 902 036e 70       		.byte	112
 903 036f 02       		.byte	2
 904 0370 81       		.byte	-127
 905 0371 20       		.byte	32
 906 0372 86       		.byte	-122
 907 0373 41       		.byte	65
 908 0374 89       		.byte	-119
 909 0375 04       		.byte	4
 910 0376 C4       		.byte	-60
 911 0377 09       		.byte	9
 912 0378 D0       		.byte	-48
ARM GAS  C:\Users\Kenichi\AppData\Local\Temp\ccmL4w86.s 			page 17


 913 0379 81       		.byte	-127
 914 037a D2       		.byte	-46
 915 037b 18       		.byte	24
 916 037c D6       		.byte	-42
 917 037d FB       		.byte	-5
 918 037e E0       		.byte	-32
 919 037f 20       		.byte	32
 920 0380 40       		.byte	64
 921 0381 30       		.byte	48
 922 0382 41       		.byte	65
 923 0383 06       		.byte	6
 924 0384 49       		.byte	73
 925 0385 FF       		.byte	-1
 926 0386 4A       		.byte	74
 927 0387 FF       		.byte	-1
 928 0388 4B       		.byte	75
 929 0389 FF       		.byte	-1
 930 038a 4D       		.byte	77
 931 038b A0       		.byte	-96
 932 038c 4F       		.byte	79
 933 038d 04       		.byte	4
 934 038e 50       		.byte	80
 935 038f 18       		.byte	24
 936 0390 5A       		.byte	90
 937 0391 04       		.byte	4
 938 0392 5F       		.byte	95
 939 0393 01       		.byte	1
 940 0394 60       		.byte	96
 941 0395 40       		.byte	64
 942 0396 62       		.byte	98
 943 0397 C0       		.byte	-64
 944 0398 64       		.byte	100
 945 0399 40       		.byte	64
 946 039a 65       		.byte	101
 947 039b 40       		.byte	64
 948 039c 66       		.byte	102
 949 039d C0       		.byte	-64
 950 039e 68       		.byte	104
 951 039f C0       		.byte	-64
 952 03a0 6A       		.byte	106
 953 03a1 C0       		.byte	-64
 954 03a2 6C       		.byte	108
 955 03a3 C0       		.byte	-64
 956 03a4 6E       		.byte	110
 957 03a5 C0       		.byte	-64
 958 03a6 88       		.byte	-120
 959 03a7 02       		.byte	2
 960 03a8 92       		.byte	-110
 961 03a9 01       		.byte	1
 962 03aa 93       		.byte	-109
 963 03ab 02       		.byte	2
 964 03ac 9B       		.byte	-101
 965 03ad 01       		.byte	1
 966 03ae A1       		.byte	-95
 967 03af 01       		.byte	1
 968 03b0 A6       		.byte	-90
 969 03b1 05       		.byte	5
ARM GAS  C:\Users\Kenichi\AppData\Local\Temp\ccmL4w86.s 			page 18


 970 03b2 B0       		.byte	-80
 971 03b3 04       		.byte	4
 972 03b4 B1       		.byte	-79
 973 03b5 01       		.byte	1
 974 03b6 B2       		.byte	-78
 975 03b7 01       		.byte	1
 976 03b8 B5       		.byte	-75
 977 03b9 02       		.byte	2
 978 03ba B6       		.byte	-74
 979 03bb 02       		.byte	2
 980 03bc BE       		.byte	-66
 981 03bd 40       		.byte	64
 982 03be C0       		.byte	-64
 983 03bf 20       		.byte	32
 984 03c0 C1       		.byte	-63
 985 03c1 06       		.byte	6
 986 03c2 C5       		.byte	-59
 987 03c3 D1       		.byte	-47
 988 03c4 C7       		.byte	-57
 989 03c5 02       		.byte	2
 990 03c6 C8       		.byte	-56
 991 03c7 13       		.byte	19
 992 03c8 C9       		.byte	-55
 993 03c9 FF       		.byte	-1
 994 03ca CA       		.byte	-54
 995 03cb FF       		.byte	-1
 996 03cc CB       		.byte	-53
 997 03cd FF       		.byte	-1
 998 03ce CD       		.byte	-51
 999 03cf AF       		.byte	-81
 1000 03d0 CE       		.byte	-50
 1001 03d1 0F       		.byte	15
 1002 03d2 CF       		.byte	-49
 1003 03d3 04       		.byte	4
 1004 03d4 D0       		.byte	-48
 1005 03d5 18       		.byte	24
 1006 03d6 D2       		.byte	-46
 1007 03d7 80       		.byte	-128
 1008 03d8 D4       		.byte	-44
 1009 03d9 25       		.byte	37
 1010 03da D6       		.byte	-42
 1011 03db 04       		.byte	4
 1012 03dc D8       		.byte	-40
 1013 03dd 04       		.byte	4
 1014 03de D9       		.byte	-39
 1015 03df 04       		.byte	4
 1016 03e0 DA       		.byte	-38
 1017 03e1 04       		.byte	4
 1018 03e2 DB       		.byte	-37
 1019 03e3 04       		.byte	4
 1020 03e4 DF       		.byte	-33
 1021 03e5 01       		.byte	1
 1022 03e6 E0       		.byte	-32
 1023 03e7 40       		.byte	64
 1024 03e8 E2       		.byte	-30
 1025 03e9 C0       		.byte	-64
 1026 03ea E4       		.byte	-28
ARM GAS  C:\Users\Kenichi\AppData\Local\Temp\ccmL4w86.s 			page 19


 1027 03eb 40       		.byte	64
 1028 03ec E5       		.byte	-27
 1029 03ed 40       		.byte	64
 1030 03ee E6       		.byte	-26
 1031 03ef C0       		.byte	-64
 1032 03f0 E8       		.byte	-24
 1033 03f1 C0       		.byte	-64
 1034 03f2 EA       		.byte	-22
 1035 03f3 C0       		.byte	-64
 1036 03f4 EC       		.byte	-20
 1037 03f5 C0       		.byte	-64
 1038 03f6 EE       		.byte	-18
 1039 03f7 C0       		.byte	-64
 1040 03f8 00       		.byte	0
 1041 03f9 10       		.byte	16
 1042 03fa 09       		.byte	9
 1043 03fb 02       		.byte	2
 1044 03fc 10       		.byte	16
 1045 03fd 20       		.byte	32
 1046 03fe 18       		.byte	24
 1047 03ff 10       		.byte	16
 1048 0400 19       		.byte	25
 1049 0401 42       		.byte	66
 1050 0402 20       		.byte	32
 1051 0403 04       		.byte	4
 1052 0404 23       		.byte	35
 1053 0405 88       		.byte	-120
 1054 0406 29       		.byte	41
 1055 0407 02       		.byte	2
 1056 0408 30       		.byte	48
 1057 0409 20       		.byte	32
 1058 040a 31       		.byte	49
 1059 040b 02       		.byte	2
 1060 040c 40       		.byte	64
 1061 040d 04       		.byte	4
 1062 040e 47       		.byte	71
 1063 040f 08       		.byte	8
 1064 0410 48       		.byte	72
 1065 0411 20       		.byte	32
 1066 0412 49       		.byte	73
 1067 0413 01       		.byte	1
 1068 0414 4A       		.byte	74
 1069 0415 08       		.byte	8
 1070 0416 4E       		.byte	78
 1071 0417 0C       		.byte	12
 1072 0418 52       		.byte	82
 1073 0419 08       		.byte	8
 1074 041a 59       		.byte	89
 1075 041b 01       		.byte	1
 1076 041c 5A       		.byte	90
 1077 041d 08       		.byte	8
 1078 041e 5B       		.byte	91
 1079 041f 80       		.byte	-128
 1080 0420 60       		.byte	96
 1081 0421 48       		.byte	72
 1082 0422 71       		.byte	113
 1083 0423 02       		.byte	2
ARM GAS  C:\Users\Kenichi\AppData\Local\Temp\ccmL4w86.s 			page 20


 1084 0424 80       		.byte	-128
 1085 0425 40       		.byte	64
 1086 0426 98       		.byte	-104
 1087 0427 08       		.byte	8
 1088 0428 9D       		.byte	-99
 1089 0429 40       		.byte	64
 1090 042a C0       		.byte	-64
 1091 042b 02       		.byte	2
 1092 042c C2       		.byte	-62
 1093 042d 08       		.byte	8
 1094 042e C4       		.byte	-60
 1095 042f 04       		.byte	4
 1096 0430 CA       		.byte	-54
 1097 0431 01       		.byte	1
 1098 0432 CC       		.byte	-52
 1099 0433 05       		.byte	5
 1100 0434 D0       		.byte	-48
 1101 0435 44       		.byte	68
 1102 0436 D2       		.byte	-46
 1103 0437 24       		.byte	36
 1104 0438 D6       		.byte	-42
 1105 0439 0B       		.byte	11
 1106 043a D8       		.byte	-40
 1107 043b 05       		.byte	5
 1108 043c E2       		.byte	-30
 1109 043d 02       		.byte	2
 1110 043e 02       		.byte	2
 1111 043f 02       		.byte	2
 1112 0440 03       		.byte	3
 1113 0441 01       		.byte	1
 1114 0442 14       		.byte	20
 1115 0443 01       		.byte	1
 1116 0444 1A       		.byte	26
 1117 0445 02       		.byte	2
 1118 0446 30       		.byte	48
 1119 0447 02       		.byte	2
 1120 0448 31       		.byte	49
 1121 0449 01       		.byte	1
 1122 044a 32       		.byte	50
 1123 044b 01       		.byte	1
 1124 044c 3E       		.byte	62
 1125 044d 04       		.byte	4
 1126 044e 40       		.byte	64
 1127 044f 10       		.byte	16
 1128 0450 41       		.byte	65
 1129 0451 06       		.byte	6
 1130 0452 49       		.byte	73
 1131 0453 FF       		.byte	-1
 1132 0454 4A       		.byte	74
 1133 0455 FF       		.byte	-1
 1134 0456 4B       		.byte	75
 1135 0457 FF       		.byte	-1
 1136 0458 4D       		.byte	77
 1137 0459 A0       		.byte	-96
 1138 045a 4F       		.byte	79
 1139 045b 04       		.byte	4
 1140 045c 50       		.byte	80
ARM GAS  C:\Users\Kenichi\AppData\Local\Temp\ccmL4w86.s 			page 21


 1141 045d 18       		.byte	24
 1142 045e 52       		.byte	82
 1143 045f 80       		.byte	-128
 1144 0460 58       		.byte	88
 1145 0461 04       		.byte	4
 1146 0462 59       		.byte	89
 1147 0463 04       		.byte	4
 1148 0464 5A       		.byte	90
 1149 0465 04       		.byte	4
 1150 0466 5B       		.byte	91
 1151 0467 04       		.byte	4
 1152 0468 5C       		.byte	92
 1153 0469 11       		.byte	17
 1154 046a 5D       		.byte	93
 1155 046b 11       		.byte	17
 1156 046c 5F       		.byte	95
 1157 046d 01       		.byte	1
 1158 046e 60       		.byte	96
 1159 046f 40       		.byte	64
 1160 0470 62       		.byte	98
 1161 0471 C0       		.byte	-64
 1162 0472 64       		.byte	100
 1163 0473 40       		.byte	64
 1164 0474 65       		.byte	101
 1165 0475 40       		.byte	64
 1166 0476 66       		.byte	102
 1167 0477 C0       		.byte	-64
 1168 0478 68       		.byte	104
 1169 0479 C0       		.byte	-64
 1170 047a 6A       		.byte	106
 1171 047b C0       		.byte	-64
 1172 047c 6C       		.byte	108
 1173 047d C0       		.byte	-64
 1174 047e 6E       		.byte	110
 1175 047f C0       		.byte	-64
 1176 0480 94       		.byte	-108
 1177 0481 01       		.byte	1
 1178 0482 9B       		.byte	-101
 1179 0483 01       		.byte	1
 1180 0484 A6       		.byte	-90
 1181 0485 01       		.byte	1
 1182 0486 B3       		.byte	-77
 1183 0487 01       		.byte	1
 1184 0488 B6       		.byte	-74
 1185 0489 01       		.byte	1
 1186 048a C0       		.byte	-64
 1187 048b 10       		.byte	16
 1188 048c C1       		.byte	-63
 1189 048d 06       		.byte	6
 1190 048e C5       		.byte	-59
 1191 048f D1       		.byte	-47
 1192 0490 C7       		.byte	-57
 1193 0491 02       		.byte	2
 1194 0492 C8       		.byte	-56
 1195 0493 13       		.byte	19
 1196 0494 C9       		.byte	-55
 1197 0495 FF       		.byte	-1
ARM GAS  C:\Users\Kenichi\AppData\Local\Temp\ccmL4w86.s 			page 22


 1198 0496 CA       		.byte	-54
 1199 0497 FF       		.byte	-1
 1200 0498 CB       		.byte	-53
 1201 0499 FF       		.byte	-1
 1202 049a CD       		.byte	-51
 1203 049b AF       		.byte	-81
 1204 049c CE       		.byte	-50
 1205 049d 0F       		.byte	15
 1206 049e CF       		.byte	-49
 1207 049f 04       		.byte	4
 1208 04a0 D0       		.byte	-48
 1209 04a1 18       		.byte	24
 1210 04a2 D4       		.byte	-44
 1211 04a3 25       		.byte	37
 1212 04a4 D8       		.byte	-40
 1213 04a5 04       		.byte	4
 1214 04a6 D9       		.byte	-39
 1215 04a7 04       		.byte	4
 1216 04a8 DA       		.byte	-38
 1217 04a9 04       		.byte	4
 1218 04aa DB       		.byte	-37
 1219 04ab 04       		.byte	4
 1220 04ac DC       		.byte	-36
 1221 04ad 11       		.byte	17
 1222 04ae DD       		.byte	-35
 1223 04af 11       		.byte	17
 1224 04b0 DF       		.byte	-33
 1225 04b1 01       		.byte	1
 1226 04b2 E0       		.byte	-32
 1227 04b3 40       		.byte	64
 1228 04b4 E2       		.byte	-30
 1229 04b5 C0       		.byte	-64
 1230 04b6 E4       		.byte	-28
 1231 04b7 40       		.byte	64
 1232 04b8 E5       		.byte	-27
 1233 04b9 40       		.byte	64
 1234 04ba E6       		.byte	-26
 1235 04bb C0       		.byte	-64
 1236 04bc E8       		.byte	-24
 1237 04bd C0       		.byte	-64
 1238 04be EA       		.byte	-22
 1239 04bf C0       		.byte	-64
 1240 04c0 EC       		.byte	-20
 1241 04c1 C0       		.byte	-64
 1242 04c2 EE       		.byte	-18
 1243 04c3 C0       		.byte	-64
 1244 04c4 06       		.byte	6
 1245 04c5 40       		.byte	64
 1246 04c6 09       		.byte	9
 1247 04c7 08       		.byte	8
 1248 04c8 0C       		.byte	12
 1249 04c9 20       		.byte	32
 1250 04ca 0E       		.byte	14
 1251 04cb 20       		.byte	32
 1252 04cc 10       		.byte	16
 1253 04cd 20       		.byte	32
 1254 04ce 19       		.byte	25
ARM GAS  C:\Users\Kenichi\AppData\Local\Temp\ccmL4w86.s 			page 23


 1255 04cf 40       		.byte	64
 1256 04d0 1C       		.byte	28
 1257 04d1 80       		.byte	-128
 1258 04d2 1D       		.byte	29
 1259 04d3 04       		.byte	4
 1260 04d4 21       		.byte	33
 1261 04d5 08       		.byte	8
 1262 04d6 27       		.byte	39
 1263 04d7 40       		.byte	64
 1264 04d8 30       		.byte	48
 1265 04d9 20       		.byte	32
 1266 04da 34       		.byte	52
 1267 04db 08       		.byte	8
 1268 04dc 35       		.byte	53
 1269 04dd 04       		.byte	4
 1270 04de 3C       		.byte	60
 1271 04df 02       		.byte	2
 1272 04e0 43       		.byte	67
 1273 04e1 40       		.byte	64
 1274 04e2 47       		.byte	71
 1275 04e3 40       		.byte	64
 1276 04e4 48       		.byte	72
 1277 04e5 20       		.byte	32
 1278 04e6 49       		.byte	73
 1279 04e7 01       		.byte	1
 1280 04e8 4A       		.byte	74
 1281 04e9 08       		.byte	8
 1282 04ea 4E       		.byte	78
 1283 04eb 0C       		.byte	12
 1284 04ec 52       		.byte	82
 1285 04ed 08       		.byte	8
 1286 04ee 59       		.byte	89
 1287 04ef 41       		.byte	65
 1288 04f0 5A       		.byte	90
 1289 04f1 08       		.byte	8
 1290 04f2 60       		.byte	96
 1291 04f3 08       		.byte	8
 1292 04f4 74       		.byte	116
 1293 04f5 01       		.byte	1
 1294 04f6 76       		.byte	118
 1295 04f7 40       		.byte	64
 1296 04f8 84       		.byte	-124
 1297 04f9 40       		.byte	64
 1298 04fa A2       		.byte	-94
 1299 04fb 10       		.byte	16
 1300 04fc C0       		.byte	-64
 1301 04fd 10       		.byte	16
 1302 04fe C2       		.byte	-62
 1303 04ff 64       		.byte	100
 1304 0500 C4       		.byte	-60
 1305 0501 04       		.byte	4
 1306 0502 CC       		.byte	-52
 1307 0503 04       		.byte	4
 1308 0504 CE       		.byte	-50
 1309 0505 80       		.byte	-128
 1310 0506 D0       		.byte	-48
 1311 0507 18       		.byte	24
ARM GAS  C:\Users\Kenichi\AppData\Local\Temp\ccmL4w86.s 			page 24


 1312 0508 D2       		.byte	-46
 1313 0509 24       		.byte	36
 1314 050a D6       		.byte	-42
 1315 050b 0B       		.byte	11
 1316 050c D8       		.byte	-40
 1317 050d 04       		.byte	4
 1318 050e 33       		.byte	51
 1319 050f 80       		.byte	-128
 1320 0510 35       		.byte	53
 1321 0511 80       		.byte	-128
 1322 0512 81       		.byte	-127
 1323 0513 80       		.byte	-128
 1324 0514 CC       		.byte	-52
 1325 0515 30       		.byte	48
 1326 0516 E2       		.byte	-30
 1327 0517 20       		.byte	32
 1328 0518 A7       		.byte	-89
 1329 0519 80       		.byte	-128
 1330 051a A7       		.byte	-89
 1331 051b 80       		.byte	-128
 1332 051c A7       		.byte	-89
 1333 051d 80       		.byte	-128
 1334 051e 14       		.byte	20
 1335 051f 10       		.byte	16
 1336 0520 C4       		.byte	-60
 1337 0521 04       		.byte	4
 1338 0522 56       		.byte	86
 1339 0523 02       		.byte	2
 1340 0524 60       		.byte	96
 1341 0525 10       		.byte	16
 1342 0526 8C       		.byte	-116
 1343 0527 10       		.byte	16
 1344 0528 B0       		.byte	-80
 1345 0529 10       		.byte	16
 1346 052a D6       		.byte	-42
 1347 052b 04       		.byte	4
 1348 052c D8       		.byte	-40
 1349 052d 02       		.byte	2
 1350 052e E0       		.byte	-32
 1351 052f 08       		.byte	8
 1352 0530 EA       		.byte	-22
 1353 0531 04       		.byte	4
 1354 0532 B2       		.byte	-78
 1355 0533 02       		.byte	2
 1356 0534 E8       		.byte	-24
 1357 0535 01       		.byte	1
 1358 0536 83       		.byte	-125
 1359 0537 80       		.byte	-128
 1360 0538 84       		.byte	-124
 1361 0539 08       		.byte	8
 1362 053a A7       		.byte	-89
 1363 053b 80       		.byte	-128
 1364 053c E2       		.byte	-30
 1365 053d 40       		.byte	64
 1366 053e E6       		.byte	-26
 1367 053f 20       		.byte	32
 1368 0540 02       		.byte	2
ARM GAS  C:\Users\Kenichi\AppData\Local\Temp\ccmL4w86.s 			page 25


 1369 0541 08       		.byte	8
 1370 0542 05       		.byte	5
 1371 0543 20       		.byte	32
 1372 0544 08       		.byte	8
 1373 0545 02       		.byte	2
 1374 0546 0F       		.byte	15
 1375 0547 40       		.byte	64
 1376 0548 74       		.byte	116
 1377 0549 08       		.byte	8
 1378 054a 80       		.byte	-128
 1379 054b 02       		.byte	2
 1380 054c 86       		.byte	-122
 1381 054d 08       		.byte	8
 1382 054e 87       		.byte	-121
 1383 054f 40       		.byte	64
 1384 0550 89       		.byte	-119
 1385 0551 20       		.byte	32
 1386 0552 A0       		.byte	-96
 1387 0553 08       		.byte	8
 1388 0554 C0       		.byte	-64
 1389 0555 C0       		.byte	-64
 1390 0556 C2       		.byte	-62
 1391 0557 30       		.byte	48
 1392 0558 DE       		.byte	-34
 1393 0559 20       		.byte	32
 1394 055a E0       		.byte	-32
 1395 055b 10       		.byte	16
 1396 055c E4       		.byte	-28
 1397 055d C0       		.byte	-64
 1398 055e 00       		.byte	0
 1399 055f 03       		.byte	3
 1400 0560 0C       		.byte	12
 1401 0561 02       		.byte	2
 1402 0562 0E       		.byte	14
 1403 0563 03       		.byte	3
 1404 0564 10       		.byte	16
 1405 0565 03       		.byte	3
 1406 0566 1A       		.byte	26
 1407 0567 03       		.byte	3
 1408 0568 1C       		.byte	28
 1409 0569 02       		.byte	2
 1410 056a 00       		.byte	0
 1411 056b 0F       		.byte	15
 1412 056c 00       		.byte	0
 1413 056d 01       		.byte	1
 1414 056e 02       		.byte	2
 1415 056f 80       		.byte	-128
 1416 0570 04       		.byte	4
 1417 0571 02       		.byte	2
 1418 0572 00       		.byte	0
 1419 0573 80       		.byte	-128
 1420 0574 00       		.byte	0
 1421 0575 3F       		.byte	63
 1422 0576 02       		.byte	2
 1423 0577 00       		.byte	0
 1424 0578 00       		.byte	0
 1425 0579 1F       		.byte	31
ARM GAS  C:\Users\Kenichi\AppData\Local\Temp\ccmL4w86.s 			page 26


 1426 057a 04       		.byte	4
 1427 057b 20       		.byte	32
 1428 057c 00       		.byte	0
 1429 057d 00       		.byte	0
 1430 057e 00       		.byte	0
 1431 057f 23       		.byte	35
 1432 0580 00       		.byte	0
 1433 0581 1C       		.byte	28
 1434 0582 04       		.byte	4
 1435 0583 23       		.byte	35
 1436 0584 04       		.byte	4
 1437 0585 33       		.byte	51
 1438 0586 00       		.byte	0
 1439 0587 0C       		.byte	12
 1440 0588 00       		.byte	0
 1441 0589 08       		.byte	8
 1442 058a 00       		.byte	0
 1443 058b 00       		.byte	0
 1444 058c 01       		.byte	1
 1445 058d 00       		.byte	0
 1446 058e 00       		.byte	0
 1447 058f 00       		.byte	0
 1448 0590 01       		.byte	1
 1449 0591 0C       		.byte	12
 1450 0592 00       		.byte	0
 1451 0593 00       		.byte	0
 1452 0594 01       		.byte	1
 1453 0595 04       		.byte	4
 1454 0596 00       		.byte	0
 1455 0597 00       		.byte	0
 1456 0598 00       		.byte	0
 1457 0599 03       		.byte	3
 1458 059a 00       		.byte	0
 1459 059b 40       		.byte	64
 1460 059c 01       		.byte	1
 1461 059d 2C       		.byte	44
 1462 059e 04       		.byte	4
 1463 059f 10       		.byte	16
 1464 05a0 02       		.byte	2
 1465 05a1 0F       		.byte	15
 1466 05a2 00       		.byte	0
 1467 05a3 C0       		.byte	-64
 1468 05a4 08       		.byte	8
 1469 05a5 00       		.byte	0
 1470 05a6 00       		.byte	0
 1471 05a7 22       		.byte	34
 1472 05a8 00       		.byte	0
 1473 05a9 00       		.byte	0
 1474 05aa 10       		.byte	16
 1475 05ab 44       		.byte	68
 1476 05ac 24       		.byte	36
 1477 05ad 03       		.byte	3
 1478 05ae 05       		.byte	5
 1479 05af 00       		.byte	0
 1480 05b0 01       		.byte	1
 1481 05b1 E0       		.byte	-32
 1482 05b2 0C       		.byte	12
ARM GAS  C:\Users\Kenichi\AppData\Local\Temp\ccmL4w86.s 			page 27


 1483 05b3 00       		.byte	0
 1484 05b4 06       		.byte	6
 1485 05b5 FF       		.byte	-1
 1486 05b6 FF       		.byte	-1
 1487 05b7 FF       		.byte	-1
 1488 05b8 62       		.byte	98
 1489 05b9 A0       		.byte	-96
 1490 05ba F0       		.byte	-16
 1491 05bb 41       		.byte	65
 1492 05bc 0C       		.byte	12
 1493 05bd 00       		.byte	0
 1494 05be 00       		.byte	0
 1495 05bf 00       		.byte	0
 1496 05c0 00       		.byte	0
 1497 05c1 00       		.byte	0
 1498 05c2 02       		.byte	2
 1499 05c3 12       		.byte	18
 1500 05c4 04       		.byte	4
 1501 05c5 04       		.byte	4
 1502 05c6 04       		.byte	4
 1503 05c7 04       		.byte	4
 1504 05c8 11       		.byte	17
 1505 05c9 11       		.byte	17
 1506 05ca 00       		.byte	0
 1507 05cb 01       		.byte	1
 1508 05cc 00       		.byte	0
 1509 05cd 00       		.byte	0
 1510 05ce 00       		.byte	0
 1511 05cf 00       		.byte	0
 1512 05d0 00       		.byte	0
 1513 05d1 00       		.byte	0
 1514 05d2 40       		.byte	64
 1515 05d3 02       		.byte	2
 1516 05d4 00       		.byte	0
 1517 05d5 10       		.byte	16
 1518 05d6 30       		.byte	48
 1519 05d7 10       		.byte	16
 1520 05d8 00       		.byte	0
 1521 05d9 10       		.byte	16
 1522 05da 10       		.byte	16
 1523 05db 12       		.byte	18
 1524 05dc 00       		.byte	0
 1525 05dd 00       		.byte	0
 1526 05de 00       		.byte	0
 1527 05df 00       		.byte	0
 1528 05e0 00       		.byte	0
 1529 05e1 00       		.byte	0
 1530 05e2 00       		.byte	0
 1531 05e3 00       		.byte	0
 1532 05e4 00       		.byte	0
 1533 05e5 00       		.byte	0
 1534 05e6 00       		.byte	0
 1535 05e7 00       		.byte	0
 1536 05e8 00       		.byte	0
 1537 05e9 00       		.byte	0
 1538 05ea 00       		.byte	0
 1539 05eb 00       		.byte	0
ARM GAS  C:\Users\Kenichi\AppData\Local\Temp\ccmL4w86.s 			page 28


 1540 05ec 20       		.byte	32
 1541 05ed 11       		.byte	17
 1542 05ee 11       		.byte	17
 1543 05ef 00       		.byte	0
 1544 05f0 01       		.byte	1
 1545 05f1 00       		.byte	0
 1546 05f2 00       		.byte	0
 1547 05f3 00       		.byte	0
 1548 05f4 40       		.byte	64
 1549 05f5 00       		.byte	0
 1550 05f6 00       		.byte	0
 1551 05f7 C7       		.byte	-57
 1552 05f8 C7       		.byte	-57
 1553 05f9 00       		.byte	0
 1554 05fa 43       		.byte	67
 1555 05fb 00       		.byte	0
 1556 05fc 00       		.byte	0
 1557 05fd 00       		.byte	0
 1558 05fe 00       		.byte	0
 1559 05ff 00       		.byte	0
 1560 0600 3C       		.byte	60
 1561 0601 00       		.byte	0
 1562 0602 00       		.byte	0
 1563 0603 3C       		.byte	60
 1564 0604 00       		.byte	0
 1565 0605 00       		.byte	0
 1566 0606 00       		.byte	0
 1567 0607 00       		.byte	0
 1568 0608 00       		.byte	0
 1569 0609 00       		.byte	0
 1570 060a 00       		.byte	0
 1571 060b 00       		.byte	0
 1572              		.global	cy_meta_custnvl
 1573              		.section	.cycustnvl,"a",%progbits
 1574              		.align	2
 1575              		.type	cy_meta_custnvl, %object
 1576              		.size	cy_meta_custnvl, 4
 1577              	cy_meta_custnvl:
 1578 0000 00       		.byte	0
 1579 0001 00       		.byte	0
 1580 0002 40       		.byte	64
 1581 0003 07       		.byte	7
 1582              		.global	cy_meta_wonvl
 1583              		.section	.cywolatch,"a",%progbits
 1584              		.align	2
 1585              		.type	cy_meta_wonvl, %object
 1586              		.size	cy_meta_wonvl, 4
 1587              	cy_meta_wonvl:
 1588 0000 BC       		.byte	-68
 1589 0001 90       		.byte	-112
 1590 0002 AC       		.byte	-84
 1591 0003 AF       		.byte	-81
 1592              		.global	cy_meta_flashprotect
 1593              		.section	.cyflashprotect,"a",%progbits
 1594              		.align	2
 1595              		.type	cy_meta_flashprotect, %object
 1596              		.size	cy_meta_flashprotect, 256
ARM GAS  C:\Users\Kenichi\AppData\Local\Temp\ccmL4w86.s 			page 29


 1597              	cy_meta_flashprotect:
 1598 0000 00000000 		.space	256
 1598      00000000 
 1598      00000000 
 1598      00000000 
 1598      00000000 
 1599              		.global	cy_metadata
 1600              		.section	.cymeta,"a",%progbits
 1601              		.align	2
 1602              		.type	cy_metadata, %object
 1603              		.size	cy_metadata, 12
 1604              	cy_metadata:
 1605 0000 00       		.byte	0
 1606 0001 01       		.byte	1
 1607 0002 2E       		.byte	46
 1608 0003 11       		.byte	17
 1609 0004 E0       		.byte	-32
 1610 0005 69       		.byte	105
 1611 0006 00       		.byte	0
 1612 0007 01       		.byte	1
 1613 0008 00       		.byte	0
 1614 0009 00       		.byte	0
 1615 000a 00       		.byte	0
 1616 000b 00       		.byte	0
 1617              		.text
 1618              	.Letext0:
 1619              		.file 1 ".\\Generated_Source\\PSoC5\\cymetadata.c"
 1620              		.file 2 ".\\Generated_Source\\PSoC5\\cytypes.h"
