ARM GAS  C:\Users\Kenichi\AppData\Local\Temp\ccUe8n1e.s 			page 1


   1              		.syntax unified
   2              		.cpu cortex-m3
   3              		.fpu softvfp
   4              		.eabi_attribute 20, 1
   5              		.eabi_attribute 21, 1
   6              		.eabi_attribute 23, 3
   7              		.eabi_attribute 24, 1
   8              		.eabi_attribute 25, 1
   9              		.eabi_attribute 26, 1
  10              		.eabi_attribute 30, 6
  11              		.eabi_attribute 34, 1
  12              		.eabi_attribute 18, 4
  13              		.thumb
  14              		.file	"main.c"
  15              		.text
  16              	.Ltext0:
  17              		.cfi_sections	.debug_frame
  18              		.comm	return_val,1,1
  19              		.global	NEUTRAL_R
  20              		.data
  21              		.align	2
  22              		.type	NEUTRAL_R, %object
  23              		.size	NEUTRAL_R, 4
  24              	NEUTRAL_R:
  25 0000 DC050000 		.word	1500
  26              		.global	NEUTRAL_L
  27              		.align	2
  28              		.type	NEUTRAL_L, %object
  29              		.size	NEUTRAL_L, 4
  30              	NEUTRAL_L:
  31 0004 DC050000 		.word	1500
  32              		.global	DIAL
  33              		.align	2
  34              		.type	DIAL, %object
  35              		.size	DIAL, 4
  36              	DIAL:
  37 0008 64000000 		.word	100
  38              		.section	.text.main,"ax",%progbits
  39              		.align	2
  40              		.global	main
  41              		.thumb
  42              		.thumb_func
  43              		.type	main, %function
  44              	main:
  45              	.LFB56:
  46              		.file 1 ".\\main.c"
   1:.\main.c      **** /* ========================================
   2:.\main.c      ****  * servo check for aileron
   3:.\main.c      ****  * 
   4:.\main.c      ****  *　R.Hirota 2014/4/18
   5:.\main.c      ****  * 1...aileron right 2...aileron left
   6:.\main.c      ****  * ========================================
   7:.\main.c      **** */
   8:.\main.c      **** #include <project.h>
   9:.\main.c      **** 
  10:.\main.c      **** uint8 return_val;
  11:.\main.c      **** 
ARM GAS  C:\Users\Kenichi\AppData\Local\Temp\ccUe8n1e.s 			page 2


  12:.\main.c      **** int NEUTRAL_R = 1500; //2100
  13:.\main.c      ****     NEUTRAL_L = 1500; //950
  14:.\main.c      ****     DIAL = 100;
  15:.\main.c      **** 
  16:.\main.c      **** //#define	READ()		DE_Write(0)
  17:.\main.c      **** 
  18:.\main.c      **** //#define	RS485_PACKET_LENGTH	(6)
  19:.\main.c      **** 
  20:.\main.c      **** /*	struct {
  21:.\main.c      **** 		unsigned char bStatus;
  22:.\main.c      **** 		unsigned char bCheckSum;
  23:.\main.c      **** 		unsigned short wData[2];
  24:.\main.c      **** 	} _pak;
  25:.\main.c      **** 	unsigned char _byte[RS485_PACKET_LENGTH];
  26:.\main.c      **** } PACKET;
  27:.\main.c      **** 
  28:.\main.c      **** void rs485_Start(void);
  29:.\main.c      **** void rs485_isr(void);
  30:.\main.c      **** char rs485_CheckPacket(char, PACKET*);
  31:.\main.c      **** char CheckValid(PACKET *);
  32:.\main.c      **** void Servo_Start(void);
  33:.\main.c      **** void Terminal_Count_ISR(void);
  34:.\main.c      **** 
  35:.\main.c      **** #define	PACKET_ENDIANCHANGE(x)	{\
  36:.\main.c      **** 	char temp; \
  37:.\main.c      **** 	temp = x->_byte[2]; \
  38:.\main.c      **** 	x->_byte[2] = x->_byte[3]; \
  39:.\main.c      **** 	x->_byte[3] = temp; \
  40:.\main.c      **** 	temp = x->_byte[4]; \
  41:.\main.c      **** 	x->_byte[4] = x->_byte[5]; \
  42:.\main.c      **** 	x->_byte[5] = temp; \
  43:.\main.c      **** 	}
  44:.\main.c      **** 
  45:.\main.c      **** //Global variable here.
  46:.\main.c      **** 
  47:.\main.c      **** int aileron_buffer = 1500;
  48:.\main.c      **** PACKET pak;
  49:.\main.c      **** */
  50:.\main.c      **** 
  51:.\main.c      **** #define RIGHT
  52:.\main.c      **** //#define LEFT
  53:.\main.c      **** 
  54:.\main.c      **** void main()
  55:.\main.c      **** {
  47              		.loc 1 55 0
  48              		.cfi_startproc
  49              		@ args = 0, pretend = 0, frame = 0
  50              		@ frame_needed = 1, uses_anonymous_args = 0
  51 0000 80B5     		push	{r7, lr}
  52              	.LCFI0:
  53              		.cfi_def_cfa_offset 8
  54              		.cfi_offset 7, -8
  55              		.cfi_offset 14, -4
  56 0002 00AF     		add	r7, sp, #0
  57              	.LCFI1:
  58              		.cfi_def_cfa_register 7
  56:.\main.c      ****     PWM_1_Start();
ARM GAS  C:\Users\Kenichi\AppData\Local\Temp\ccUe8n1e.s 			page 3


  59              		.loc 1 56 0
  60 0004 FFF7FEFF 		bl	PWM_1_Start
  61 0008 00E0     		b	.L20
  62              	.L21:
  57:.\main.c      **** 
  58:.\main.c      ****     for(;;){
  59:.\main.c      ****         return_val = Status_Reg_1_Read();
  60:.\main.c      ****         return_val = ~return_val & 0x0f;
  61:.\main.c      ****         LED_3_Write(1);
  62:.\main.c      ****         
  63:.\main.c      ****         #ifdef LEFT 
  64:.\main.c      ****             switch(return_val){
  65:.\main.c      ****                 case 0x00:
  66:.\main.c      ****                     PWM_1_WriteCompare(NEUTRAL_L - DIAL*8);
  67:.\main.c      ****                     break;
  68:.\main.c      ****                 case 0x01:
  69:.\main.c      ****                     PWM_1_WriteCompare(NEUTRAL_L - DIAL*7);
  70:.\main.c      ****                     break;
  71:.\main.c      ****                 case 0x02:
  72:.\main.c      ****                     PWM_1_WriteCompare(NEUTRAL_L - DIAL*6);
  73:.\main.c      ****                     break;
  74:.\main.c      ****                 case 0x03:
  75:.\main.c      ****                     PWM_1_WriteCompare(NEUTRAL_L - DIAL*5);
  76:.\main.c      ****                     break;
  77:.\main.c      ****                 case 0x04:
  78:.\main.c      ****                     PWM_1_WriteCompare(NEUTRAL_L - DIAL*4);
  79:.\main.c      ****                     break;
  80:.\main.c      ****                 case 0x05:
  81:.\main.c      ****                     PWM_1_WriteCompare(NEUTRAL_L - DIAL*3);
  82:.\main.c      ****                     break;
  83:.\main.c      ****                 case 0x06:
  84:.\main.c      ****                     PWM_1_WriteCompare(NEUTRAL_L - DIAL*2);
  85:.\main.c      ****                     break;
  86:.\main.c      ****                 case 0x07:
  87:.\main.c      ****                     PWM_1_WriteCompare(NEUTRAL_L - DIAL);
  88:.\main.c      ****                     break;
  89:.\main.c      ****                 case 0x08:
  90:.\main.c      ****                     PWM_1_WriteCompare(NEUTRAL_L);
  91:.\main.c      ****                     break;
  92:.\main.c      ****                 case 0x09:
  93:.\main.c      ****                     PWM_1_WriteCompare(NEUTRAL_L + DIAL);
  94:.\main.c      ****                     break;
  95:.\main.c      ****                 case 0x0a:
  96:.\main.c      ****                     PWM_1_WriteCompare(NEUTRAL_L + DIAL*2);
  97:.\main.c      ****                     break;
  98:.\main.c      ****                 case 0x0b:
  99:.\main.c      ****                     PWM_1_WriteCompare(NEUTRAL_L + DIAL*3);
 100:.\main.c      ****                     break;
 101:.\main.c      ****                 case 0x0c:
 102:.\main.c      ****                     PWM_1_WriteCompare(NEUTRAL_L + DIAL*4);
 103:.\main.c      ****                     break;
 104:.\main.c      ****                 case 0x0d:
 105:.\main.c      ****                     PWM_1_WriteCompare(NEUTRAL_L + DIAL*5);
 106:.\main.c      ****                     break;
 107:.\main.c      ****                 case 0x0e:
 108:.\main.c      ****                     PWM_1_WriteCompare(NEUTRAL_L + DIAL*6);
 109:.\main.c      ****                     break;
ARM GAS  C:\Users\Kenichi\AppData\Local\Temp\ccUe8n1e.s 			page 4


 110:.\main.c      ****                 case 0x0f:
 111:.\main.c      ****                     PWM_1_WriteCompare(NEUTRAL_L + DIAL*7);
 112:.\main.c      ****                     break;
 113:.\main.c      ****         #endif
 114:.\main.c      ****         
 115:.\main.c      ****         #ifdef RIGHT 
 116:.\main.c      ****             switch(return_val){
 117:.\main.c      ****                 case 0x0f:
 118:.\main.c      ****                     PWM_1_WriteCompare(NEUTRAL_R + DIAL*7);
 119:.\main.c      ****                     break;
 120:.\main.c      ****                 case 0x0e:
 121:.\main.c      ****                     PWM_1_WriteCompare(NEUTRAL_R + DIAL*6);
 122:.\main.c      ****                     break;
 123:.\main.c      ****                 case 0x0d:
 124:.\main.c      ****                     PWM_1_WriteCompare(NEUTRAL_R + DIAL*5);
 125:.\main.c      ****                     break;
 126:.\main.c      ****                 case 0x0c:
 127:.\main.c      ****                     PWM_1_WriteCompare(NEUTRAL_R + DIAL*4);
 128:.\main.c      ****                     break;
 129:.\main.c      ****                 case 0x0b:
 130:.\main.c      ****                     PWM_1_WriteCompare(NEUTRAL_R + DIAL*3);
 131:.\main.c      ****                     break;
 132:.\main.c      ****                 case 0x0a:
 133:.\main.c      ****                     PWM_1_WriteCompare(NEUTRAL_R + DIAL*2);
 134:.\main.c      ****                     break;
 135:.\main.c      ****                 case 0x09:
 136:.\main.c      ****                     PWM_1_WriteCompare(NEUTRAL_R + DIAL);
 137:.\main.c      ****                     break;
 138:.\main.c      ****                 case 0x08:
 139:.\main.c      ****                     PWM_1_WriteCompare(NEUTRAL_R);
 140:.\main.c      ****                     break;
 141:.\main.c      ****                 case 0x07:
 142:.\main.c      ****                     PWM_1_WriteCompare(NEUTRAL_R - DIAL);
 143:.\main.c      ****                     break;
 144:.\main.c      ****                 case 0x06:
 145:.\main.c      ****                     PWM_1_WriteCompare(NEUTRAL_R - DIAL*2);
 146:.\main.c      ****                     break;
 147:.\main.c      ****                 case 0x05:
 148:.\main.c      ****                     PWM_1_WriteCompare(NEUTRAL_R - DIAL*3);
 149:.\main.c      ****                     break;
 150:.\main.c      ****                 case 0x04:
 151:.\main.c      ****                     PWM_1_WriteCompare(NEUTRAL_R - DIAL*4);
 152:.\main.c      ****                     break;
 153:.\main.c      ****                 case 0x03:
 154:.\main.c      ****                     PWM_1_WriteCompare(NEUTRAL_R - DIAL*5);
 155:.\main.c      ****                     break;
 156:.\main.c      ****                 case 0x02:
 157:.\main.c      ****                     PWM_1_WriteCompare(NEUTRAL_R - DIAL*6);
 158:.\main.c      ****                     break;
 159:.\main.c      ****                 case 0x01:
 160:.\main.c      ****                     PWM_1_WriteCompare(NEUTRAL_R - DIAL*7);
 161:.\main.c      ****                     break;
 162:.\main.c      ****                 case 0x00:
 163:.\main.c      ****                     PWM_1_WriteCompare(NEUTRAL_R - DIAL*8);
 164:.\main.c      ****                     break;
 165:.\main.c      ****             }
 166:.\main.c      ****             
ARM GAS  C:\Users\Kenichi\AppData\Local\Temp\ccUe8n1e.s 			page 5


 167:.\main.c      ****         #endif
 168:.\main.c      ****     }
  63              		.loc 1 168 0
  64 000a 00BF     		nop
  65              	.L20:
  59:.\main.c      ****         return_val = Status_Reg_1_Read();
  66              		.loc 1 59 0
  67 000c FFF7FEFF 		bl	Status_Reg_1_Read
  68 0010 0346     		mov	r3, r0
  69 0012 1A46     		mov	r2, r3
  70 0014 40F20003 		movw	r3, #:lower16:return_val
  71 0018 C0F20003 		movt	r3, #:upper16:return_val
  72 001c 1A70     		strb	r2, [r3, #0]
  60:.\main.c      ****         return_val = ~return_val & 0x0f;
  73              		.loc 1 60 0
  74 001e 40F20003 		movw	r3, #:lower16:return_val
  75 0022 C0F20003 		movt	r3, #:upper16:return_val
  76 0026 1B78     		ldrb	r3, [r3, #0]	@ zero_extendqisi2
  77 0028 6FEA0303 		mvn	r3, r3
  78 002c DBB2     		uxtb	r3, r3
  79 002e 03F00F03 		and	r3, r3, #15
  80 0032 DAB2     		uxtb	r2, r3
  81 0034 40F20003 		movw	r3, #:lower16:return_val
  82 0038 C0F20003 		movt	r3, #:upper16:return_val
  83 003c 1A70     		strb	r2, [r3, #0]
  61:.\main.c      ****         LED_3_Write(1);
  84              		.loc 1 61 0
  85 003e 4FF00100 		mov	r0, #1
  86 0042 FFF7FEFF 		bl	LED_3_Write
 116:.\main.c      ****             switch(return_val){
  87              		.loc 1 116 0
  88 0046 40F20003 		movw	r3, #:lower16:return_val
  89 004a C0F20003 		movt	r3, #:upper16:return_val
  90 004e 1B78     		ldrb	r3, [r3, #0]	@ zero_extendqisi2
  91 0050 0F2B     		cmp	r3, #15
  92 0052 DAD8     		bhi	.L21
  93 0054 01A2     		adr	r2, .L19
  94 0056 52F823F0 		ldr	pc, [r2, r3, lsl #2]
  95 005a 00BF     		.align	2
  96              	.L19:
  97 005c 2F030000 		.word	.L3+1
  98 0060 01030000 		.word	.L4+1
  99 0064 CF020000 		.word	.L5+1
 100 0068 9B020000 		.word	.L6+1
 101 006c 69020000 		.word	.L7+1
 102 0070 3B020000 		.word	.L8+1
 103 0074 09020000 		.word	.L9+1
 104 0078 E5010000 		.word	.L10+1
 105 007c D1010000 		.word	.L11+1
 106 0080 AD010000 		.word	.L12+1
 107 0084 83010000 		.word	.L13+1
 108 0088 55010000 		.word	.L14+1
 109 008c 2B010000 		.word	.L15+1
 110 0090 FD000000 		.word	.L16+1
 111 0094 CB000000 		.word	.L17+1
 112 0098 9D000000 		.word	.L18+1
 113              	.L18:
ARM GAS  C:\Users\Kenichi\AppData\Local\Temp\ccUe8n1e.s 			page 6


 118:.\main.c      ****                     PWM_1_WriteCompare(NEUTRAL_R + DIAL*7);
 114              		.loc 1 118 0
 115 009c 40F20003 		movw	r3, #:lower16:DIAL
 116 00a0 C0F20003 		movt	r3, #:upper16:DIAL
 117 00a4 1B68     		ldr	r3, [r3, #0]
 118 00a6 9BB2     		uxth	r3, r3
 119 00a8 1A46     		mov	r2, r3	@ movhi
 120 00aa 4FEAC202 		lsl	r2, r2, #3
 121 00ae D31A     		subs	r3, r2, r3
 122 00b0 9AB2     		uxth	r2, r3
 123 00b2 40F20003 		movw	r3, #:lower16:NEUTRAL_R
 124 00b6 C0F20003 		movt	r3, #:upper16:NEUTRAL_R
 125 00ba 1B68     		ldr	r3, [r3, #0]
 126 00bc 9BB2     		uxth	r3, r3
 127 00be D318     		adds	r3, r2, r3
 128 00c0 9BB2     		uxth	r3, r3
 129 00c2 1846     		mov	r0, r3
 130 00c4 FFF7FEFF 		bl	PWM_1_WriteCompare
 119:.\main.c      ****                     break;
 131              		.loc 1 119 0
 132 00c8 4AE1     		b	.L2
 133              	.L17:
 121:.\main.c      ****                     PWM_1_WriteCompare(NEUTRAL_R + DIAL*6);
 134              		.loc 1 121 0
 135 00ca 40F20003 		movw	r3, #:lower16:DIAL
 136 00ce C0F20003 		movt	r3, #:upper16:DIAL
 137 00d2 1B68     		ldr	r3, [r3, #0]
 138 00d4 9BB2     		uxth	r3, r3
 139 00d6 1A46     		mov	r2, r3	@ movhi
 140 00d8 4FEA4202 		lsl	r2, r2, #1
 141 00dc D318     		adds	r3, r2, r3
 142 00de 4FEA4303 		lsl	r3, r3, #1
 143 00e2 9AB2     		uxth	r2, r3
 144 00e4 40F20003 		movw	r3, #:lower16:NEUTRAL_R
 145 00e8 C0F20003 		movt	r3, #:upper16:NEUTRAL_R
 146 00ec 1B68     		ldr	r3, [r3, #0]
 147 00ee 9BB2     		uxth	r3, r3
 148 00f0 D318     		adds	r3, r2, r3
 149 00f2 9BB2     		uxth	r3, r3
 150 00f4 1846     		mov	r0, r3
 151 00f6 FFF7FEFF 		bl	PWM_1_WriteCompare
 122:.\main.c      ****                     break;
 152              		.loc 1 122 0
 153 00fa 31E1     		b	.L2
 154              	.L16:
 124:.\main.c      ****                     PWM_1_WriteCompare(NEUTRAL_R + DIAL*5);
 155              		.loc 1 124 0
 156 00fc 40F20003 		movw	r3, #:lower16:DIAL
 157 0100 C0F20003 		movt	r3, #:upper16:DIAL
 158 0104 1B68     		ldr	r3, [r3, #0]
 159 0106 9BB2     		uxth	r3, r3
 160 0108 1A46     		mov	r2, r3	@ movhi
 161 010a 4FEA8202 		lsl	r2, r2, #2
 162 010e D318     		adds	r3, r2, r3
 163 0110 9AB2     		uxth	r2, r3
 164 0112 40F20003 		movw	r3, #:lower16:NEUTRAL_R
 165 0116 C0F20003 		movt	r3, #:upper16:NEUTRAL_R
ARM GAS  C:\Users\Kenichi\AppData\Local\Temp\ccUe8n1e.s 			page 7


 166 011a 1B68     		ldr	r3, [r3, #0]
 167 011c 9BB2     		uxth	r3, r3
 168 011e D318     		adds	r3, r2, r3
 169 0120 9BB2     		uxth	r3, r3
 170 0122 1846     		mov	r0, r3
 171 0124 FFF7FEFF 		bl	PWM_1_WriteCompare
 125:.\main.c      ****                     break;
 172              		.loc 1 125 0
 173 0128 1AE1     		b	.L2
 174              	.L15:
 127:.\main.c      ****                     PWM_1_WriteCompare(NEUTRAL_R + DIAL*4);
 175              		.loc 1 127 0
 176 012a 40F20003 		movw	r3, #:lower16:DIAL
 177 012e C0F20003 		movt	r3, #:upper16:DIAL
 178 0132 1B68     		ldr	r3, [r3, #0]
 179 0134 9BB2     		uxth	r3, r3
 180 0136 4FEA8303 		lsl	r3, r3, #2
 181 013a 9AB2     		uxth	r2, r3
 182 013c 40F20003 		movw	r3, #:lower16:NEUTRAL_R
 183 0140 C0F20003 		movt	r3, #:upper16:NEUTRAL_R
 184 0144 1B68     		ldr	r3, [r3, #0]
 185 0146 9BB2     		uxth	r3, r3
 186 0148 D318     		adds	r3, r2, r3
 187 014a 9BB2     		uxth	r3, r3
 188 014c 1846     		mov	r0, r3
 189 014e FFF7FEFF 		bl	PWM_1_WriteCompare
 128:.\main.c      ****                     break;
 190              		.loc 1 128 0
 191 0152 05E1     		b	.L2
 192              	.L14:
 130:.\main.c      ****                     PWM_1_WriteCompare(NEUTRAL_R + DIAL*3);
 193              		.loc 1 130 0
 194 0154 40F20003 		movw	r3, #:lower16:DIAL
 195 0158 C0F20003 		movt	r3, #:upper16:DIAL
 196 015c 1B68     		ldr	r3, [r3, #0]
 197 015e 9BB2     		uxth	r3, r3
 198 0160 1A46     		mov	r2, r3	@ movhi
 199 0162 4FEA4202 		lsl	r2, r2, #1
 200 0166 D318     		adds	r3, r2, r3
 201 0168 9AB2     		uxth	r2, r3
 202 016a 40F20003 		movw	r3, #:lower16:NEUTRAL_R
 203 016e C0F20003 		movt	r3, #:upper16:NEUTRAL_R
 204 0172 1B68     		ldr	r3, [r3, #0]
 205 0174 9BB2     		uxth	r3, r3
 206 0176 D318     		adds	r3, r2, r3
 207 0178 9BB2     		uxth	r3, r3
 208 017a 1846     		mov	r0, r3
 209 017c FFF7FEFF 		bl	PWM_1_WriteCompare
 131:.\main.c      ****                     break;
 210              		.loc 1 131 0
 211 0180 EEE0     		b	.L2
 212              	.L13:
 133:.\main.c      ****                     PWM_1_WriteCompare(NEUTRAL_R + DIAL*2);
 213              		.loc 1 133 0
 214 0182 40F20003 		movw	r3, #:lower16:DIAL
 215 0186 C0F20003 		movt	r3, #:upper16:DIAL
 216 018a 1B68     		ldr	r3, [r3, #0]
ARM GAS  C:\Users\Kenichi\AppData\Local\Temp\ccUe8n1e.s 			page 8


 217 018c 9BB2     		uxth	r3, r3
 218 018e 4FEA4303 		lsl	r3, r3, #1
 219 0192 9AB2     		uxth	r2, r3
 220 0194 40F20003 		movw	r3, #:lower16:NEUTRAL_R
 221 0198 C0F20003 		movt	r3, #:upper16:NEUTRAL_R
 222 019c 1B68     		ldr	r3, [r3, #0]
 223 019e 9BB2     		uxth	r3, r3
 224 01a0 D318     		adds	r3, r2, r3
 225 01a2 9BB2     		uxth	r3, r3
 226 01a4 1846     		mov	r0, r3
 227 01a6 FFF7FEFF 		bl	PWM_1_WriteCompare
 134:.\main.c      ****                     break;
 228              		.loc 1 134 0
 229 01aa D9E0     		b	.L2
 230              	.L12:
 136:.\main.c      ****                     PWM_1_WriteCompare(NEUTRAL_R + DIAL);
 231              		.loc 1 136 0
 232 01ac 40F20003 		movw	r3, #:lower16:NEUTRAL_R
 233 01b0 C0F20003 		movt	r3, #:upper16:NEUTRAL_R
 234 01b4 1B68     		ldr	r3, [r3, #0]
 235 01b6 9AB2     		uxth	r2, r3
 236 01b8 40F20003 		movw	r3, #:lower16:DIAL
 237 01bc C0F20003 		movt	r3, #:upper16:DIAL
 238 01c0 1B68     		ldr	r3, [r3, #0]
 239 01c2 9BB2     		uxth	r3, r3
 240 01c4 D318     		adds	r3, r2, r3
 241 01c6 9BB2     		uxth	r3, r3
 242 01c8 1846     		mov	r0, r3
 243 01ca FFF7FEFF 		bl	PWM_1_WriteCompare
 137:.\main.c      ****                     break;
 244              		.loc 1 137 0
 245 01ce C7E0     		b	.L2
 246              	.L11:
 139:.\main.c      ****                     PWM_1_WriteCompare(NEUTRAL_R);
 247              		.loc 1 139 0
 248 01d0 40F20003 		movw	r3, #:lower16:NEUTRAL_R
 249 01d4 C0F20003 		movt	r3, #:upper16:NEUTRAL_R
 250 01d8 1B68     		ldr	r3, [r3, #0]
 251 01da 9BB2     		uxth	r3, r3
 252 01dc 1846     		mov	r0, r3
 253 01de FFF7FEFF 		bl	PWM_1_WriteCompare
 140:.\main.c      ****                     break;
 254              		.loc 1 140 0
 255 01e2 BDE0     		b	.L2
 256              	.L10:
 142:.\main.c      ****                     PWM_1_WriteCompare(NEUTRAL_R - DIAL);
 257              		.loc 1 142 0
 258 01e4 40F20003 		movw	r3, #:lower16:NEUTRAL_R
 259 01e8 C0F20003 		movt	r3, #:upper16:NEUTRAL_R
 260 01ec 1B68     		ldr	r3, [r3, #0]
 261 01ee 9AB2     		uxth	r2, r3
 262 01f0 40F20003 		movw	r3, #:lower16:DIAL
 263 01f4 C0F20003 		movt	r3, #:upper16:DIAL
 264 01f8 1B68     		ldr	r3, [r3, #0]
 265 01fa 9BB2     		uxth	r3, r3
 266 01fc D31A     		subs	r3, r2, r3
 267 01fe 9BB2     		uxth	r3, r3
ARM GAS  C:\Users\Kenichi\AppData\Local\Temp\ccUe8n1e.s 			page 9


 268 0200 1846     		mov	r0, r3
 269 0202 FFF7FEFF 		bl	PWM_1_WriteCompare
 143:.\main.c      ****                     break;
 270              		.loc 1 143 0
 271 0206 ABE0     		b	.L2
 272              	.L9:
 145:.\main.c      ****                     PWM_1_WriteCompare(NEUTRAL_R - DIAL*2);
 273              		.loc 1 145 0
 274 0208 40F20003 		movw	r3, #:lower16:DIAL
 275 020c C0F20003 		movt	r3, #:upper16:DIAL
 276 0210 1B68     		ldr	r3, [r3, #0]
 277 0212 9BB2     		uxth	r3, r3
 278 0214 1A46     		mov	r2, r3	@ movhi
 279 0216 4FEAC232 		lsl	r2, r2, #15
 280 021a D31A     		subs	r3, r2, r3
 281 021c 4FEA4303 		lsl	r3, r3, #1
 282 0220 9AB2     		uxth	r2, r3
 283 0222 40F20003 		movw	r3, #:lower16:NEUTRAL_R
 284 0226 C0F20003 		movt	r3, #:upper16:NEUTRAL_R
 285 022a 1B68     		ldr	r3, [r3, #0]
 286 022c 9BB2     		uxth	r3, r3
 287 022e D318     		adds	r3, r2, r3
 288 0230 9BB2     		uxth	r3, r3
 289 0232 1846     		mov	r0, r3
 290 0234 FFF7FEFF 		bl	PWM_1_WriteCompare
 146:.\main.c      ****                     break;
 291              		.loc 1 146 0
 292 0238 92E0     		b	.L2
 293              	.L8:
 148:.\main.c      ****                     PWM_1_WriteCompare(NEUTRAL_R - DIAL*3);
 294              		.loc 1 148 0
 295 023a 40F20003 		movw	r3, #:lower16:DIAL
 296 023e C0F20003 		movt	r3, #:upper16:DIAL
 297 0242 1B68     		ldr	r3, [r3, #0]
 298 0244 9BB2     		uxth	r3, r3
 299 0246 1A46     		mov	r2, r3	@ movhi
 300 0248 4FEA8303 		lsl	r3, r3, #2
 301 024c D31A     		subs	r3, r2, r3
 302 024e 9AB2     		uxth	r2, r3
 303 0250 40F20003 		movw	r3, #:lower16:NEUTRAL_R
 304 0254 C0F20003 		movt	r3, #:upper16:NEUTRAL_R
 305 0258 1B68     		ldr	r3, [r3, #0]
 306 025a 9BB2     		uxth	r3, r3
 307 025c D318     		adds	r3, r2, r3
 308 025e 9BB2     		uxth	r3, r3
 309 0260 1846     		mov	r0, r3
 310 0262 FFF7FEFF 		bl	PWM_1_WriteCompare
 149:.\main.c      ****                     break;
 311              		.loc 1 149 0
 312 0266 7BE0     		b	.L2
 313              	.L7:
 151:.\main.c      ****                     PWM_1_WriteCompare(NEUTRAL_R - DIAL*4);
 314              		.loc 1 151 0
 315 0268 40F20003 		movw	r3, #:lower16:DIAL
 316 026c C0F20003 		movt	r3, #:upper16:DIAL
 317 0270 1B68     		ldr	r3, [r3, #0]
 318 0272 9BB2     		uxth	r3, r3
ARM GAS  C:\Users\Kenichi\AppData\Local\Temp\ccUe8n1e.s 			page 10


 319 0274 1A46     		mov	r2, r3	@ movhi
 320 0276 4FEA8232 		lsl	r2, r2, #14
 321 027a D31A     		subs	r3, r2, r3
 322 027c 4FEA8303 		lsl	r3, r3, #2
 323 0280 9AB2     		uxth	r2, r3
 324 0282 40F20003 		movw	r3, #:lower16:NEUTRAL_R
 325 0286 C0F20003 		movt	r3, #:upper16:NEUTRAL_R
 326 028a 1B68     		ldr	r3, [r3, #0]
 327 028c 9BB2     		uxth	r3, r3
 328 028e D318     		adds	r3, r2, r3
 329 0290 9BB2     		uxth	r3, r3
 330 0292 1846     		mov	r0, r3
 331 0294 FFF7FEFF 		bl	PWM_1_WriteCompare
 152:.\main.c      ****                     break;
 332              		.loc 1 152 0
 333 0298 62E0     		b	.L2
 334              	.L6:
 154:.\main.c      ****                     PWM_1_WriteCompare(NEUTRAL_R - DIAL*5);
 335              		.loc 1 154 0
 336 029a 40F20003 		movw	r3, #:lower16:DIAL
 337 029e C0F20003 		movt	r3, #:upper16:DIAL
 338 02a2 1B68     		ldr	r3, [r3, #0]
 339 02a4 9BB2     		uxth	r3, r3
 340 02a6 1A46     		mov	r2, r3	@ movhi
 341 02a8 4FEA8232 		lsl	r2, r2, #14
 342 02ac D21A     		subs	r2, r2, r3
 343 02ae 4FEA8202 		lsl	r2, r2, #2
 344 02b2 D31A     		subs	r3, r2, r3
 345 02b4 9AB2     		uxth	r2, r3
 346 02b6 40F20003 		movw	r3, #:lower16:NEUTRAL_R
 347 02ba C0F20003 		movt	r3, #:upper16:NEUTRAL_R
 348 02be 1B68     		ldr	r3, [r3, #0]
 349 02c0 9BB2     		uxth	r3, r3
 350 02c2 D318     		adds	r3, r2, r3
 351 02c4 9BB2     		uxth	r3, r3
 352 02c6 1846     		mov	r0, r3
 353 02c8 FFF7FEFF 		bl	PWM_1_WriteCompare
 155:.\main.c      ****                     break;
 354              		.loc 1 155 0
 355 02cc 48E0     		b	.L2
 356              	.L5:
 157:.\main.c      ****                     PWM_1_WriteCompare(NEUTRAL_R - DIAL*6);
 357              		.loc 1 157 0
 358 02ce 40F20003 		movw	r3, #:lower16:DIAL
 359 02d2 C0F20003 		movt	r3, #:upper16:DIAL
 360 02d6 1B68     		ldr	r3, [r3, #0]
 361 02d8 9BB2     		uxth	r3, r3
 362 02da 1A46     		mov	r2, r3	@ movhi
 363 02dc 4FEA8303 		lsl	r3, r3, #2
 364 02e0 D31A     		subs	r3, r2, r3
 365 02e2 4FEA4303 		lsl	r3, r3, #1
 366 02e6 9AB2     		uxth	r2, r3
 367 02e8 40F20003 		movw	r3, #:lower16:NEUTRAL_R
 368 02ec C0F20003 		movt	r3, #:upper16:NEUTRAL_R
 369 02f0 1B68     		ldr	r3, [r3, #0]
 370 02f2 9BB2     		uxth	r3, r3
 371 02f4 D318     		adds	r3, r2, r3
ARM GAS  C:\Users\Kenichi\AppData\Local\Temp\ccUe8n1e.s 			page 11


 372 02f6 9BB2     		uxth	r3, r3
 373 02f8 1846     		mov	r0, r3
 374 02fa FFF7FEFF 		bl	PWM_1_WriteCompare
 158:.\main.c      ****                     break;
 375              		.loc 1 158 0
 376 02fe 2FE0     		b	.L2
 377              	.L4:
 160:.\main.c      ****                     PWM_1_WriteCompare(NEUTRAL_R - DIAL*7);
 378              		.loc 1 160 0
 379 0300 40F20003 		movw	r3, #:lower16:DIAL
 380 0304 C0F20003 		movt	r3, #:upper16:DIAL
 381 0308 1B68     		ldr	r3, [r3, #0]
 382 030a 9BB2     		uxth	r3, r3
 383 030c 1A46     		mov	r2, r3	@ movhi
 384 030e 4FEAC303 		lsl	r3, r3, #3
 385 0312 D31A     		subs	r3, r2, r3
 386 0314 9AB2     		uxth	r2, r3
 387 0316 40F20003 		movw	r3, #:lower16:NEUTRAL_R
 388 031a C0F20003 		movt	r3, #:upper16:NEUTRAL_R
 389 031e 1B68     		ldr	r3, [r3, #0]
 390 0320 9BB2     		uxth	r3, r3
 391 0322 D318     		adds	r3, r2, r3
 392 0324 9BB2     		uxth	r3, r3
 393 0326 1846     		mov	r0, r3
 394 0328 FFF7FEFF 		bl	PWM_1_WriteCompare
 161:.\main.c      ****                     break;
 395              		.loc 1 161 0
 396 032c 18E0     		b	.L2
 397              	.L3:
 163:.\main.c      ****                     PWM_1_WriteCompare(NEUTRAL_R - DIAL*8);
 398              		.loc 1 163 0
 399 032e 40F20003 		movw	r3, #:lower16:DIAL
 400 0332 C0F20003 		movt	r3, #:upper16:DIAL
 401 0336 1B68     		ldr	r3, [r3, #0]
 402 0338 9BB2     		uxth	r3, r3
 403 033a 1A46     		mov	r2, r3	@ movhi
 404 033c 4FEA4232 		lsl	r2, r2, #13
 405 0340 D31A     		subs	r3, r2, r3
 406 0342 4FEAC303 		lsl	r3, r3, #3
 407 0346 9AB2     		uxth	r2, r3
 408 0348 40F20003 		movw	r3, #:lower16:NEUTRAL_R
 409 034c C0F20003 		movt	r3, #:upper16:NEUTRAL_R
 410 0350 1B68     		ldr	r3, [r3, #0]
 411 0352 9BB2     		uxth	r3, r3
 412 0354 D318     		adds	r3, r2, r3
 413 0356 9BB2     		uxth	r3, r3
 414 0358 1846     		mov	r0, r3
 415 035a FFF7FEFF 		bl	PWM_1_WriteCompare
 164:.\main.c      ****                     break;
 416              		.loc 1 164 0
 417 035e 00BF     		nop
 418              	.L2:
 419              		.loc 1 168 0
 420 0360 53E6     		b	.L21
 421              		.cfi_endproc
 422              	.LFE56:
 423              		.size	main, .-main
ARM GAS  C:\Users\Kenichi\AppData\Local\Temp\ccUe8n1e.s 			page 12


 424 0362 00BF     		.text
 425              	.Letext0:
 426              		.file 2 "c:\\program files (x86)\\cypress\\psoc creator\\3.0\\psoc creator\\import\\gnu_cs\\arm\\4
 427              		.file 3 "./Generated_Source/PSoC5/cytypes.h"
 428              		.file 4 "./Generated_Source/PSoC5/core_cm3.h"
