:400000000080002011000000950100009501000080B500AF47F2BC63C4F2000344F2FA62C4F2000212681A6000F0B8F810B5054C237833B9044810B10448AFF300800121D6
:40004000217010BD1081FF1F00000000C009000008B5064B1BB106480649AFF300800648016811B1054A02B1904708BD00000000C00900001481FF1F0881FF1F00000000D7
:4000800080B582B000AF00F04FFB00E000BF00F053FC0346FB71FB796FEA0303DBB203F00F03FB71FB790F2BF0D801A252F823F0F1000000FB000000050100000F01000014
:4000C00019010000230100002D01000037010000410100004B010000550100005F01000069010000730100007D0100008701000040F2DC5000F0CEFB4AE040F2825000F0FF
:40010000C9FB45E04FF4A56000F0C4FB40E040F2CE4000F0BFFB3BE040F2744000F0BAFB36E040F21A4000F0B5FB31E04FF4707000F0B0FB2CE040F2663000F0ABFB27E0AD
:400140004FF4437000F0A6FB22E040F6520000F0A1FB1DE04FF4FF6000F09CFB18E040F29E7000F097FB13E040F2447000F092FB0EE040F2EA6000F08DFB09E04FF4D2606C
:4001800000F088FB04E040F2366000F083FB00BF7CE700BF80B400AFFEE700BF80B586B000AF40F20103C0F200037B6140F61823C0F200033B6140F20103C0F200037B61E0
:4001C00040F61823C0F200033B613BE03B691B68FB603B695B68BB603B699B683B604FF000037B600FE0FB681A68BB681A60BB6803F10403BB60FB6803F10403FB607B6879
:4002000003F104037B607A683B689A42EBD13B69DB683B604FF000037B600BE0BB684FF000021A60BB6803F10403BB607B6803F104037B607A683B689A42EFD13B6903F1B8
:4002400010033B617B69002B0CBF00230123DBB27A6902F1FF327A61002BB7D100F078FBFFF70EFFFEE700BF80B582B000AF4EF60C53CEF200034FF48062C0F2FA521A6069
:400280004EF61453CEF200034EF61452CEF20002126842F400721A604FF000037B6019E07B68032B07D840F20003C0F200037A6853F8223003E040F29513C0F2000348F2AD
:4002C0000002C1F6FF72796842F821307B6803F101037B607B682F2BE2D947F2BC63C4F200031B78DAB248F20413C1F6FF731A704EF60853CEF2000348F20002C1F6FF72C0
:400300001A6000F051F948F20013C1F6FF734FF000021A6007F10807BD4680BD80B582B000AF7860396078684FF000013A6800F03EFB07F10807BD4680BD00BF80B584B0B0
:4003400000AFF860B9607A60F868B9687A6800F025FB07F11007BD4680BD00BF80B483B000AF0346FB71FEE780B487B000AF786039604FF000033B614FF000037B612CE0BF
:400380007B694FEA83037A68D3181B68BB60BB68FB73BB6823F0FF03BB6017E03B694FEA43033A68D3181B781A46BB68D3183A694FEA420239688A1852781A703B6903F154
:4003C00001033B61FB7B03F1FF33FB73FB7B002BE4D17B6903F101037B617B69072BCFD907F11C07BD4680BC704700BF80B582B000AF4FF48143C4F200034FF017021A80EF
:4004000044F28203C4F200034FF018021A7044F28403C4F200034FF017021A8044F28603C4F200034FF018021A704FF48643C4F200034FF002021A704FF040234FF0080225
:400440001A704FF48443C4F200034FF003021A7044F2A163C4F200034FF48472C4F600121278D2B21A7044F22223C4F200034FF008021A8044F22023C4F2000341F25122E2
:400480001A804FF00003FB704FF019037B6019E0FB784FEA4303DAB244F22523C4F200031B78DBB203F00103DBB21343DBB203F00303FB704FF4F07000F02AFA7B6803F198
:4004C000FF337B607B68002B02D0FB78032BDFD17B68002B03D14FF00300FFF73FFF44F20403C4F200034FF480721A8044F20403C4F200034FF007021A7044F20603C4F2E4
:4005000000034FF000021A7044F20803C4F200034FF048021A7044F20403C4F200034FF000021A7044F20103C4F200034FF002021A7044F2A233C4F2000344F2A232C4F2DB
:4005400000021278D2B242F00302D2B21A7007F10807BD4680BD00BF80B483B000AF40F2CF13C4F600131B78FB7145F66E03C4F20003FA7902F00702D2B21A7045F66F039C
:40058000C4F20003FA794FEA1212D2B21A7045F67603C4F200034FF044021A7007F10C07BD4680BC704700BF80B582B000AF72B64FF00003FB7119E0FA7913464FEA430338
:4005C0009B184FEA430340F6C412C0F200029B183B603B681A683B689B889BB210461946FFF79CFEFB7903F10103FB71FB79072BE2D94FF090404FF02001C4F60001FFF7E5
:40060000B3FE45F20303C4F2010345F20302C4F201021278D2B242F00202D2B21A7045F21303C4F2010345F21302C4F201021278D2B242F00202D2B21A7044F2A033C4F2AE
:40064000000344F2A032C4F200021278D2B242F04002D2B21A7044F2C233C4F2000344F2C232C4F200021278D2B242F01002D2B21A7045F2C210C4F200004FF48671C4F64E
:4006800000014FF00802FFF759FE45F22210C4F200004FF48A71C4F600014FF00802FFF74DFE45F23010C4F200004FF48E71C4F600014FF00A02FFF741FE44F22233C4F216
:4006C000000344F22232C4F200021278D2B242F00802D2B21A704FF49043C4F200034FF001021A70FFF782FE4FF49043C4F200034FF081021A704FF00403C4F208034FF0EB
:4007000001021A70FFF728FF44F2B030C4F2000044F2A031C4F200014FF00E02FFF70EFE07F10807BD4680BD80B500AF48F22C13C1F6FF731B78002B08D100F00BF848F2A3
:400740002C13C1F6FF734FF001021A7000F060F880BD00BF80B582B000AF46F27453C4F200031B78DBB223F03F03FB7146F27453C4F20003FA7942F00902D2B21A7046F2A4
:400780009453C4F2000346F29452C4F200021278D2B242F00102D2B21A7046F29553C4F2000346F29552C4F200021278D2B242F00102D2B21A7044F6206000F03DF844F658
:4007C000206000F057F840F2DC5000F063F84FF0000000F06FF800F0A5F80346BB7146F29453C4F2000346F29452C4F200021278D2B242F01002D2B21A70BB79184600F069
:4008000095F800F029F807F10807BD4680BD00BF80B400AF46F27453C4F2000346F27452C4F200021278D2B262F07F02D2B21A70BD4680BC704700BF80B483B000AF0346C0
:40084000FB8046F60823C4F20003FA881A8007F10C07BD4680BC704780B500AF01E000F049F800F037F8034603F01003002BF6D180BD00BF80B483B000AF0346FB8046F658
:400880008823C4F20003FA881A8007F10C07BD4680BC704780B483B000AF0346FB8046F64823C4F20003FA881A8007F10C07BD4680BC704780B483B000AF0346FB7146F25D
:4008C0008453C4F20003FA791A7007F10C07BD4680BC704780B483B000AF46F26453C4F200031B78FB71FB79184607F10C07BD4680BC704780B400AF46F6A823C4F2000337
:400900001B889BB21846BD4680BC7047000000000230800800F0058000BF013800467FF4FCAF7047EFF3108072B6704780F31088704700BFAFF3008080B400AF46F265536A
:40094000C4F200031B78DBB21846BD4680BC704738B50E4D0E4B0024E81A8510AC4205D00B4951F8242090470134F7E700F042F80849094A541AA5100024AC4205D0054B38
:4009800053F8240080470134F7E738BD000A0000000A0000000A0000080A000010B50023934203D0CC5CC4540133F9E710BD82180346934202D003F8011BFAE770470000DF
:4009C00000000000005100402000405100403000F0510040100000000140001000140140000800400140000A004C01400002005001402000F8B500BFF8BC08BC9E467047BC
:400A00005100000069020000F8B500BFF8BC08BC9E4670472D000000280A00000881FF1F08000000200000000000000000000000000000000000000000000000000000004D
:400A40000000000000000000000000000000000000000000000000000000000000000000000000000000000000000000000000000000000000000000000000000000000076
:400A80000000000000000000000000000000000000000000000000000000000000000000000000000000000000000000000000000000000000000000000000000000000036
:400AC00000000000000000000000000000000000000000000000000000000000000000000000000000000000000000000000000000000000000000000000000000000000F6
:400B000000000000000000000000000000000000000000000000000000000000000000000000000000000000000000000000000000000000000000000000000000000000B5
:020000040003F7
:0200000480007A
:400000000252004001650040361401402215014006160140031701400F490140025001401C3C6001842D0808260E2E0330023204340136084060410449FF4AFF4BFF4DA038
:400040004F0450185280542558045A045B045F01604062C06440654066C068C06AC06CC06EC0C060C104C5D1C602C807C9FFCAFFCBFFCDAFCE0FCF04D018DA04DB04DF0106
:40008000E040E2C0E440E540E6C0E8C0EAC0ECC0EEC000101022181019501A801B104280468049104C204D024F20568059425A045C085D015E9060047002824086C488084F
:4000C00089018E109004C002C405D081D224D6FBD804E080E4908801B401B808BE10D804DF0100101814C0020020054009020F40774083408740881089408D02C0C0C23009
:40010000DE20E440E68010011A010000000101000100000000010100010000003C00003C00000000000000000000000000000000000000000000000000000000000000008D
:40014000000000000000000000000000000000000000000000000000000000000000000000000000000000000000000000000000000000000000000000000000000000007F
:40018000000000000000000000000000000000000000000000000000000000000000000000000000000000000000000000000000000000000000000000000000000000003F
:4001C00000000000000000000000000000000000000000000000000000000000000000000000000000000000000000000000000000000000000000000000000000000000FF
:4002000000000000000000000000000000000000000000000000000000000000000000000000000000000000000000000000000000000000000000000000000000000000BE
:0200000490006A
:0400000000004007B5
:0200000490105A
:04000000BC90ACAF55
:0200000490303A
:02000000A65AFE
:0200000490402A
:4000000000000000000000000000000000000000000000000000000000000000000000000000000000000000000000000000000000000000000000000000000000000000C0
:400040000000000000000000000000000000000000000000000000000000000000000000000000000000000000000000000000000000000000000000000000000000000080
:400080000000000000000000000000000000000000000000000000000000000000000000000000000000000000000000000000000000000000000000000000000000000040
:4000C0000000000000000000000000000000000000000000000000000000000000000000000000000000000000000000000000000000000000000000000000000000000000
:0200000490501A
:0C00000000012E11E06900012E1686C3DD
:00000001FF