Archive member included because of file (symbol)

.\CortexM3\ARM_GCC_473\Debug\servo_check.a(cyfitter_cfg.o)
                              .\CortexM3\ARM_GCC_473\Debug\Cm3Start.o (cyfitter_cfg)
.\CortexM3\ARM_GCC_473\Debug\servo_check.a(PWM_1.o)
                              .\CortexM3\ARM_GCC_473\Debug\main.o (PWM_1_Start)
.\CortexM3\ARM_GCC_473\Debug\servo_check.a(CyBootAsmGnu.o)
                              .\CortexM3\ARM_GCC_473\Debug\servo_check.a(cyfitter_cfg.o) (CyDelayCycles)
.\CortexM3\ARM_GCC_473\Debug\servo_check.a(CyLib.o)
                              .\CortexM3\ARM_GCC_473\Debug\Cm3Start.o (CyResetStatus)
.\CortexM3\ARM_GCC_473\Debug\servo_check.a(cyPm.o)
                              .\CortexM3\ARM_GCC_473\Debug\servo_check.a(CyLib.o) (CyPmReadStatus)
.\CortexM3\ARM_GCC_473\Debug\servo_check.a(Status_Reg_1.o)
                              .\CortexM3\ARM_GCC_473\Debug\main.o (Status_Reg_1_Read)
.\CortexM3\ARM_GCC_473\Debug\servo_check.a(CyFlash.o)
                              .\CortexM3\ARM_GCC_473\Debug\servo_check.a(cyPm.o) (CyFlash_SetWaitCycles)
.\CortexM3\ARM_GCC_473\Debug\servo_check.a(CySpc.o)
                              .\CortexM3\ARM_GCC_473\Debug\servo_check.a(CyFlash.o) (CySpcStart)
c:/program files/cypress/psoc creator/3.0/psoc creator/import/gnu_cs/arm/4.7.3/bin/../lib/gcc/arm-none-eabi/4.7.3/../../../../arm-none-eabi/lib/armv7-m\libc_s.a(lib_a-__atexit2.o)
                              c:/program files/cypress/psoc creator/3.0/psoc creator/import/gnu_cs/arm/4.7.3/bin/../lib/gcc/arm-none-eabi/4.7.3/../../../../arm-none-eabi/lib/armv7-m/crt0.o (__register_exitproc)
c:/program files/cypress/psoc creator/3.0/psoc creator/import/gnu_cs/arm/4.7.3/bin/../lib/gcc/arm-none-eabi/4.7.3/../../../../arm-none-eabi/lib/armv7-m\libc_s.a(lib_a-exit.o)
                              c:/program files/cypress/psoc creator/3.0/psoc creator/import/gnu_cs/arm/4.7.3/bin/../lib/gcc/arm-none-eabi/4.7.3/../../../../arm-none-eabi/lib/armv7-m/crt0.o (exit)
c:/program files/cypress/psoc creator/3.0/psoc creator/import/gnu_cs/arm/4.7.3/bin/../lib/gcc/arm-none-eabi/4.7.3/../../../../arm-none-eabi/lib/armv7-m\libc_s.a(lib_a-fini.o)
                              c:/program files/cypress/psoc creator/3.0/psoc creator/import/gnu_cs/arm/4.7.3/bin/../lib/gcc/arm-none-eabi/4.7.3/../../../../arm-none-eabi/lib/armv7-m/crt0.o (__libc_fini_array)
c:/program files/cypress/psoc creator/3.0/psoc creator/import/gnu_cs/arm/4.7.3/bin/../lib/gcc/arm-none-eabi/4.7.3/../../../../arm-none-eabi/lib/armv7-m\libc_s.a(lib_a-impure.o)
                              c:/program files/cypress/psoc creator/3.0/psoc creator/import/gnu_cs/arm/4.7.3/bin/../lib/gcc/arm-none-eabi/4.7.3/../../../../arm-none-eabi/lib/armv7-m\libc_s.a(lib_a-exit.o) (_global_impure_ptr)
c:/program files/cypress/psoc creator/3.0/psoc creator/import/gnu_cs/arm/4.7.3/bin/../lib/gcc/arm-none-eabi/4.7.3/../../../../arm-none-eabi/lib/armv7-m\libc_s.a(lib_a-init.o)
                              c:/program files/cypress/psoc creator/3.0/psoc creator/import/gnu_cs/arm/4.7.3/bin/../lib/gcc/arm-none-eabi/4.7.3/../../../../arm-none-eabi/lib/armv7-m/crt0.o (__libc_init_array)
c:/program files/cypress/psoc creator/3.0/psoc creator/import/gnu_cs/arm/4.7.3/bin/../lib/gcc/arm-none-eabi/4.7.3/../../../../arm-none-eabi/lib/armv7-m\libc_s.a(lib_a-memcpy.o)
                              .\CortexM3\ARM_GCC_473\Debug\servo_check.a(cyfitter_cfg.o) (memcpy)
c:/program files/cypress/psoc creator/3.0/psoc creator/import/gnu_cs/arm/4.7.3/bin/../lib/gcc/arm-none-eabi/4.7.3/../../../../arm-none-eabi/lib/armv7-m\libc_s.a(lib_a-memset.o)
                              c:/program files/cypress/psoc creator/3.0/psoc creator/import/gnu_cs/arm/4.7.3/bin/../lib/gcc/arm-none-eabi/4.7.3/../../../../arm-none-eabi/lib/armv7-m/crt0.o (memset)

Allocating common symbols
Common symbol       size              file

return_val          0x1               .\CortexM3\ARM_GCC_473\Debug\main.o
dieTemperature      0x2               .\CortexM3\ARM_GCC_473\Debug\servo_check.a(CyFlash.o)

Discarded input sections

 .text          0x00000000        0x0 c:/program files/cypress/psoc creator/3.0/psoc creator/import/gnu_cs/arm/4.7.3/bin/../lib/gcc/arm-none-eabi/4.7.3/armv7-m/crti.o
 .data          0x00000000        0x0 c:/program files/cypress/psoc creator/3.0/psoc creator/import/gnu_cs/arm/4.7.3/bin/../lib/gcc/arm-none-eabi/4.7.3/armv7-m/crti.o
 .bss           0x00000000        0x0 c:/program files/cypress/psoc creator/3.0/psoc creator/import/gnu_cs/arm/4.7.3/bin/../lib/gcc/arm-none-eabi/4.7.3/armv7-m/crti.o
 .data          0x00000000        0x4 c:/program files/cypress/psoc creator/3.0/psoc creator/import/gnu_cs/arm/4.7.3/bin/../lib/gcc/arm-none-eabi/4.7.3/armv7-m/crtbegin.o
 .text          0x00000000       0x70 c:/program files/cypress/psoc creator/3.0/psoc creator/import/gnu_cs/arm/4.7.3/bin/../lib/gcc/arm-none-eabi/4.7.3/../../../../arm-none-eabi/lib/armv7-m/crt0.o
 .data          0x00000000        0x0 c:/program files/cypress/psoc creator/3.0/psoc creator/import/gnu_cs/arm/4.7.3/bin/../lib/gcc/arm-none-eabi/4.7.3/../../../../arm-none-eabi/lib/armv7-m/crt0.o
 .bss           0x00000000        0x0 c:/program files/cypress/psoc creator/3.0/psoc creator/import/gnu_cs/arm/4.7.3/bin/../lib/gcc/arm-none-eabi/4.7.3/../../../../arm-none-eabi/lib/armv7-m/crt0.o
 .ARM.extab     0x00000000        0x0 c:/program files/cypress/psoc creator/3.0/psoc creator/import/gnu_cs/arm/4.7.3/bin/../lib/gcc/arm-none-eabi/4.7.3/../../../../arm-none-eabi/lib/armv7-m/crt0.o
 .ARM.exidx     0x00000000        0x8 c:/program files/cypress/psoc creator/3.0/psoc creator/import/gnu_cs/arm/4.7.3/bin/../lib/gcc/arm-none-eabi/4.7.3/../../../../arm-none-eabi/lib/armv7-m/crt0.o
 .text          0x00000000        0x0 .\CortexM3\ARM_GCC_473\Debug\main.o
 .bss           0x00000000        0x0 .\CortexM3\ARM_GCC_473\Debug\main.o
 .text          0x00000000        0x0 .\CortexM3\ARM_GCC_473\Debug\cymetadata.o
 .data          0x00000000        0x0 .\CortexM3\ARM_GCC_473\Debug\cymetadata.o
 .bss           0x00000000        0x0 .\CortexM3\ARM_GCC_473\Debug\cymetadata.o
 .text          0x00000000        0x0 .\CortexM3\ARM_GCC_473\Debug\Cm3Start.o
 .data          0x00000000        0x0 .\CortexM3\ARM_GCC_473\Debug\Cm3Start.o
 .bss           0x00000000        0x0 .\CortexM3\ARM_GCC_473\Debug\Cm3Start.o
 .text._exit    0x00000000       0x30 .\CortexM3\ARM_GCC_473\Debug\Cm3Start.o
Memory Configuration

Name             Origin             Length             Attributes
rom              0x00000000         0x00040000         xr
ram              0x1fff8000         0x00010000         xrw
*default*        0x00000000         0xffffffff

Linker script and memory map

LOAD c:/program files/cypress/psoc creator/3.0/psoc creator/import/gnu_cs/arm/4.7.3/bin/../lib/gcc/arm-none-eabi/4.7.3/armv7-m/crti.o
LOAD c:/program files/cypress/psoc creator/3.0/psoc creator/import/gnu_cs/arm/4.7.3/bin/../lib/gcc/arm-none-eabi/4.7.3/armv7-m/crtbegin.o
LOAD c:/program files/cypress/psoc creator/3.0/psoc creator/import/gnu_cs/arm/4.7.3/bin/../lib/gcc/arm-none-eabi/4.7.3/../../../../arm-none-eabi/lib/armv7-m/crt0.o
START GROUP
LOAD .\CortexM3\ARM_GCC_473\Debug\main.o
LOAD .\CortexM3\ARM_GCC_473\Debug\cymetadata.o
LOAD .\CortexM3\ARM_GCC_473\Debug\Cm3Start.o
LOAD .\CortexM3\ARM_GCC_473\Debug\servo_check.a
LOAD C:\Program Files\Cypress\PSoC Creator\3.0\PSoC Creator\psoc\content\cycomponentlibrary\CyComponentLibrary.cylib\CortexM3\ARM_GCC_473\Debug\CyComponentLibrary.a
END GROUP
START GROUP
LOAD c:/program files/cypress/psoc creator/3.0/psoc creator/import/gnu_cs/arm/4.7.3/bin/../lib/gcc/arm-none-eabi/4.7.3/armv7-m\libgcc.a
LOAD c:/program files/cypress/psoc creator/3.0/psoc creator/import/gnu_cs/arm/4.7.3/bin/../lib/gcc/arm-none-eabi/4.7.3/../../../../arm-none-eabi/lib/armv7-m\libc_s.a
END GROUP
LOAD c:/program files/cypress/psoc creator/3.0/psoc creator/import/gnu_cs/arm/4.7.3/bin/../lib/gcc/arm-none-eabi/4.7.3/armv7-m/crtend.o
LOAD c:/program files/cypress/psoc creator/3.0/psoc creator/import/gnu_cs/arm/4.7.3/bin/../lib/gcc/arm-none-eabi/4.7.3/armv7-m/crtn.o
START GROUP
LOAD c:/program files/cypress/psoc creator/3.0/psoc creator/import/gnu_cs/arm/4.7.3/bin/../lib/gcc/arm-none-eabi/4.7.3/armv7-m\libgcc.a
LOAD c:/program files/cypress/psoc creator/3.0/psoc creator/import/gnu_cs/arm/4.7.3/bin/../lib/gcc/arm-none-eabi/4.7.3/../../../../arm-none-eabi/lib/armv7-m\libc.a
LOAD c:/program files/cypress/psoc creator/3.0/psoc creator/import/gnu_cs/arm/4.7.3/bin/../lib/gcc/arm-none-eabi/4.7.3/../../../../arm-none-eabi/lib/armv7-m\libnosys.a
END GROUP
                0x00000000                CY_APPL_ORIGIN = 0x0
                0x00000100                CY_FLASH_ROW_SIZE = 0x100
                0x00000020                CY_ECC_ROW_SIZE = 0x20
                0x00000000                CY_EE_IN_BTLDR = 0x0
                0x00000000                CY_APPL_LOADABLE = 0x0
                0x00000800                CY_EE_SIZE = 0x800
                0x00000001                CY_APPL_NUM = 0x1
                0x00000001                CY_APPL_MAX = 0x1
                0x00000040                CY_METADATA_SIZE = 0x40
                0x1fff8138                PROVIDE (__cy_heap_start, _end)
                0x00000001                PROVIDE (__cy_region_num, ((__cy_regions_end - __cy_regions) / 0x10))
                0x20008000                PROVIDE (__cy_stack, (ORIGIN (ram) + 0x10000))
                0x20004000                PROVIDE (__cy_heap_end, (__cy_stack - 0x4000))

.cybootloader   0x00000000        0x0
 *(.cybootloader)
                0x00000000                appl1_start = CY_APPL_ORIGIN?CY_APPL_ORIGIN:ALIGN (CY_FLASH_ROW_SIZE)
                0x0001ff00                appl2_start = (appl1_start + ALIGN ((((0x40000 - appl1_start) - (0x2 * CY_FLASH_ROW_SIZE)) / 0x2), CY_FLASH_ROW_SIZE))
                0x00000000                appl_start = (CY_APPL_NUM == 0x1)?appl1_start:appl2_start
                0x00000000                ecc_offset = ((appl_start / CY_FLASH_ROW_SIZE) * CY_ECC_ROW_SIZE)
                0x00000000                ee_offset = (CY_APPL_LOADABLE && ! (CY_EE_IN_BTLDR))?((CY_EE_SIZE / CY_APPL_MAX) * (CY_APPL_NUM - 0x1)):0x0
                0x00000800                ee_size = (CY_APPL_LOADABLE && ! (CY_EE_IN_BTLDR))?(CY_EE_SIZE / CY_APPL_MAX):CY_EE_SIZE
                0x00000000                PROVIDE (CY_ECC_OFFSET, ecc_offset)

.text           0x00000000      0xc06
 CREATE_OBJECT_SYMBOLS
                0x00000000                PROVIDE (__cy_interrupt_vector, RomVectors)
 *(.romvectors)
 .romvectors    0x00000000       0x10 .\CortexM3\ARM_GCC_473\Debug\Cm3Start.o
                0x00000000                RomVectors
                0x00000001                ASSERT ((. != __cy_interrupt_vector), No interrupt vector)
                0x00000001                ASSERT (CY_APPL_ORIGIN?(SIZEOF (.cybootloader) <= CY_APPL_ORIGIN):0x1, Wrong image location)
                0x00000010                PROVIDE (__cy_reset, Reset)
 *(.text.Reset)
 .text.Reset    0x00000010       0x1c .\CortexM3\ARM_GCC_473\Debug\Cm3Start.o
                0x00000010                Reset
                0x00000001                ASSERT ((. != __cy_reset), No reset code)
 *(.dma_init)
                0x00000001                ASSERT ((((appl_start + .) <= 0x10000) || 0x1), DMA Init must be within the first 64k of flash)
 *(.text .text.* .gnu.linkonce.t.*)
 .text          0x0000002c       0x54 c:/program files/cypress/psoc creator/3.0/psoc creator/import/gnu_cs/arm/4.7.3/bin/../lib/gcc/arm-none-eabi/4.7.3/armv7-m/crtbegin.o
 .text.main     0x00000080      0x35c .\CortexM3\ARM_GCC_473\Debug\main.o
                0x00000080                main
 .text.IntDefaultHandler
                0x000003dc        0x8 .\CortexM3\ARM_GCC_473\Debug\Cm3Start.o
                0x000003dc                IntDefaultHandler
 .text.Start_c  0x000003e4       0xcc .\CortexM3\ARM_GCC_473\Debug\Cm3Start.o
                0x000003e4                Start_c
 .text.initialize_psoc
                0x000004b0       0xb4 .\CortexM3\ARM_GCC_473\Debug\Cm3Start.o
                0x000004b0                initialize_psoc
 .text.CYMEMZERO
                0x00000564       0x20 .\CortexM3\ARM_GCC_473\Debug\servo_check.a(cyfitter_cfg.o)
 .text.CYCONFIGCPY
                0x00000584       0x20 .\CortexM3\ARM_GCC_473\Debug\servo_check.a(cyfitter_cfg.o)
 .text.CyClockStartupError
                0x000005a4        0xc .\CortexM3\ARM_GCC_473\Debug\servo_check.a(cyfitter_cfg.o)
 .text.cfg_write_bytes32
                0x000005b0       0x84 .\CortexM3\ARM_GCC_473\Debug\servo_check.a(cyfitter_cfg.o)
 .text.ClockSetup
                0x00000634      0x16c .\CortexM3\ARM_GCC_473\Debug\servo_check.a(cyfitter_cfg.o)
 .text.AnalogSetDefault
                0x000007a0       0x50 .\CortexM3\ARM_GCC_473\Debug\servo_check.a(cyfitter_cfg.o)
 .text.cyfitter_cfg
                0x000007f0      0x180 .\CortexM3\ARM_GCC_473\Debug\servo_check.a(cyfitter_cfg.o)
                0x000007f0                cyfitter_cfg
 .text.PWM_1_Start
                0x00000970       0x2c .\CortexM3\ARM_GCC_473\Debug\servo_check.a(PWM_1.o)
                0x00000970                PWM_1_Start
 .text.PWM_1_Init
                0x0000099c       0xbc .\CortexM3\ARM_GCC_473\Debug\servo_check.a(PWM_1.o)
                0x0000099c                PWM_1_Init
 .text.PWM_1_Enable
                0x00000a58       0x28 .\CortexM3\ARM_GCC_473\Debug\servo_check.a(PWM_1.o)
                0x00000a58                PWM_1_Enable
 .text.PWM_1_WriteCounter
                0x00000a80       0x20 .\CortexM3\ARM_GCC_473\Debug\servo_check.a(PWM_1.o)
                0x00000a80                PWM_1_WriteCounter
 .text.PWM_1_ClearFIFO
                0x00000aa0       0x1c .\CortexM3\ARM_GCC_473\Debug\servo_check.a(PWM_1.o)
                0x00000aa0                PWM_1_ClearFIFO
 .text.PWM_1_WritePeriod
                0x00000abc       0x20 .\CortexM3\ARM_GCC_473\Debug\servo_check.a(PWM_1.o)
                0x00000abc                PWM_1_WritePeriod
 .text.PWM_1_WriteCompare
                0x00000adc       0x20 .\CortexM3\ARM_GCC_473\Debug\servo_check.a(PWM_1.o)
                0x00000adc                PWM_1_WriteCompare
 .text.PWM_1_SetInterruptMode
                0x00000afc       0x20 .\CortexM3\ARM_GCC_473\Debug\servo_check.a(PWM_1.o)
                0x00000afc                PWM_1_SetInterruptMode
 .text.PWM_1_ReadStatusRegister
                0x00000b1c       0x20 .\CortexM3\ARM_GCC_473\Debug\servo_check.a(PWM_1.o)
                0x00000b1c                PWM_1_ReadStatusRegister
 .text.PWM_1_ReadCapture
                0x00000b3c       0x18 .\CortexM3\ARM_GCC_473\Debug\servo_check.a(PWM_1.o)
                0x00000b3c                PWM_1_ReadCapture
 *fill*         0x00000b54        0x4 00
 .text          0x00000b58       0x28 .\CortexM3\ARM_GCC_473\Debug\servo_check.a(CyBootAsmGnu.o)
                0x00000b58                CyDelayCycles
                0x00000b6c                CyEnterCriticalSection
                0x00000b74                CyExitCriticalSection
 .text.Status_Reg_1_Read
                0x00000b80       0x18 .\CortexM3\ARM_GCC_473\Debug\servo_check.a(Status_Reg_1.o)
                0x00000b80                Status_Reg_1_Read
 .text.__libc_init_array
                0x00000b98       0x4c c:/program files/cypress/psoc creator/3.0/psoc creator/import/gnu_cs/arm/4.7.3/bin/../lib/gcc/arm-none-eabi/4.7.3/../../../../arm-none-eabi/lib/armv7-m\libc_s.a(lib_a-init.o)
                0x00000b98                __libc_init_array
 .text.memcpy   0x00000be4       0x12 c:/program files/cypress/psoc creator/3.0/psoc creator/import/gnu_cs/arm/4.7.3/bin/../lib/gcc/arm-none-eabi/4.7.3/../../../../arm-none-eabi/lib/armv7-m\libc_s.a(lib_a-memcpy.o)
                0x00000be4                memcpy
 .text.memset   0x00000bf6       0x10 c:/program files/cypress/psoc creator/3.0/psoc creator/import/gnu_cs/arm/4.7.3/bin/../lib/gcc/arm-none-eabi/4.7.3/../../../../arm-none-eabi/lib/armv7-m\libc_s.a(lib_a-memset.o)
                0x00000bf6                memset
 *(.plt)
 *(.gnu.warning)
 *(.glue_7t)
 .glue_7t       0x00000000        0x0 linker stubs
 *(.glue_7)
 .glue_7        0x00000000        0x0 linker stubs
 *(.vfp11_veneer)
 .vfp11_veneer  0x00000000        0x0 linker stubs
 *(.bootloader)
 *(.ARM.extab* .gnu.linkonce.armextab.*)
 *(.gcc_except_table)

.v4_bx          0x00000c08        0x0
 .v4_bx         0x00000000        0x0 linker stubs

.iplt           0x00000c08        0x0
 .iplt          0x00000000        0x0 c:/program files/cypress/psoc creator/3.0/psoc creator/import/gnu_cs/arm/4.7.3/bin/../lib/gcc/arm-none-eabi/4.7.3/armv7-m/crtbegin.o

.eh_frame_hdr
 *(.eh_frame_hdr)

.eh_frame       0x00000c08        0x4
 *(.eh_frame)
 .eh_frame      0x00000c08        0x0 c:/program files/cypress/psoc creator/3.0/psoc creator/import/gnu_cs/arm/4.7.3/bin/../lib/gcc/arm-none-eabi/4.7.3/armv7-m/crtbegin.o
 .eh_frame      0x00000c08        0x4 c:/program files/cypress/psoc creator/3.0/psoc creator/import/gnu_cs/arm/4.7.3/bin/../lib/gcc/arm-none-eabi/4.7.3/armv7-m/crtend.o
                0x00000c0c                PROVIDE (__exidx_start, .)

.ARM.exidx
 *(.ARM.exidx* .gnu.linkonce.armexidx.*)
                0x00000c0c                __exidx_end = .

.rodata         0x00000c0c       0x64
 *(.rodata .rodata.* .gnu.linkonce.r.*)
 .rodata        0x00000c0c       0x30 .\CortexM3\ARM_GCC_473\Debug\servo_check.a(cyfitter_cfg.o)
                0x00000c3c                . = ALIGN (0x4)
 *(.init)
 .init          0x00000c3c        0x4 c:/program files/cypress/psoc creator/3.0/psoc creator/import/gnu_cs/arm/4.7.3/bin/../lib/gcc/arm-none-eabi/4.7.3/armv7-m/crti.o
                0x00000c3c                _init
 .init          0x00000c40        0x8 c:/program files/cypress/psoc creator/3.0/psoc creator/import/gnu_cs/arm/4.7.3/bin/../lib/gcc/arm-none-eabi/4.7.3/armv7-m/crtn.o
                0x00000c48                . = ALIGN (0x4)
                0x00000c48                __preinit_array_start = .
 *(.preinit_array)
                0x00000c48                __preinit_array_end = .
                0x00000c48                . = ALIGN (0x4)
                0x00000c48                __init_array_start = .
 *(SORT(.init_array.*))
 *(.init_array)
 .init_array    0x00000c48        0x4 c:/program files/cypress/psoc creator/3.0/psoc creator/import/gnu_cs/arm/4.7.3/bin/../lib/gcc/arm-none-eabi/4.7.3/armv7-m/crtbegin.o
 .init_array    0x00000c4c        0x4 .\CortexM3\ARM_GCC_473\Debug\Cm3Start.o
                0x00000c50                __init_array_end = .
                0x00000c50                . = ALIGN (0x4)
 *(.fini)
 .fini          0x00000c50        0x4 c:/program files/cypress/psoc creator/3.0/psoc creator/import/gnu_cs/arm/4.7.3/bin/../lib/gcc/arm-none-eabi/4.7.3/armv7-m/crti.o
                0x00000c50                _fini
 .fini          0x00000c54        0x8 c:/program files/cypress/psoc creator/3.0/psoc creator/import/gnu_cs/arm/4.7.3/bin/../lib/gcc/arm-none-eabi/4.7.3/armv7-m/crtn.o
                0x00000c5c                . = ALIGN (0x4)
                0x00000c5c                __fini_array_start = .
 *(.fini_array)
 .fini_array    0x00000c5c        0x4 c:/program files/cypress/psoc creator/3.0/psoc creator/import/gnu_cs/arm/4.7.3/bin/../lib/gcc/arm-none-eabi/4.7.3/armv7-m/crtbegin.o
 *(SORT(.fini_array.*))
                0x00000c60                __fini_array_end = .
                0x00000c60                . = ALIGN (0x4)
 *crtbegin.o(.ctors)
 *(EXCLUDE_FILE(*crtend.o) .ctors)
 *(SORT(.ctors.*))
 *crtend.o(.ctors)
                0x00000c60                . = ALIGN (0x4)
 *crtbegin.o(.dtors)
 *(EXCLUDE_FILE(*crtend.o) .dtors)
 *(SORT(.dtors.*))
 *crtend.o(.dtors)
                0x00000c60                . = ALIGN (0x4)
                0x00000c60                __cy_regions = .
                0x00000c60        0x4 LONG 0xc70 __cy_region_init_ram
                0x00000c64        0x4 LONG 0x1fff8108 __cy_region_start_data
                0x00000c68        0x4 LONG 0x10 __cy_region_init_size_ram
                0x00000c6c        0x4 LONG 0x20 __cy_region_zero_size_ram
                0x00000c70                __cy_regions_end = .
                0x00000c70                . = ALIGN (0x8)
                0x00000c70                _etext = .

.ramvectors     0x1fff8000      0x100
                0x1fff8000                __cy_region_start_ram = .
 *(.ramvectors)
 .ramvectors    0x1fff8000      0x100 .\CortexM3\ARM_GCC_473\Debug\Cm3Start.o
                0x1fff8000                CyRamVectors

.noinit         0x1fff8100        0x5
 *(.noinit)
 .noinit        0x1fff8100        0x4 .\CortexM3\ARM_GCC_473\Debug\Cm3Start.o
 .noinit        0x1fff8104        0x1 .\CortexM3\ARM_GCC_473\Debug\servo_check.a(CyLib.o)
                0x1fff8104                CyResetStatus

.data           0x1fff8108       0x10 load address 0x00000c70
                0x1fff8108                __cy_region_start_data = .
 *(.jcr)
 .jcr           0x1fff8108        0x0 c:/program files/cypress/psoc creator/3.0/psoc creator/import/gnu_cs/arm/4.7.3/bin/../lib/gcc/arm-none-eabi/4.7.3/armv7-m/crtbegin.o
 .jcr           0x1fff8108        0x4 c:/program files/cypress/psoc creator/3.0/psoc creator/import/gnu_cs/arm/4.7.3/bin/../lib/gcc/arm-none-eabi/4.7.3/armv7-m/crtend.o
 *(.got.plt)
 *(.got)
 *(.shdata)
 *(.data .data.* .gnu.linkonce.d.*)
 .data          0x1fff810c        0xc .\CortexM3\ARM_GCC_473\Debug\main.o
                0x1fff810c                NEUTRAL_R
                0x1fff8110                NEUTRAL_L
                0x1fff8114                DIAL
                0x1fff8118                . = ALIGN (0x8)
 *(.ram)
                0x1fff8118                _edata = .

.igot.plt       0x1fff8118        0x0 load address 0x00000c80
 .igot.plt      0x00000000        0x0 c:/program files/cypress/psoc creator/3.0/psoc creator/import/gnu_cs/arm/4.7.3/bin/../lib/gcc/arm-none-eabi/4.7.3/armv7-m/crtbegin.o

.bss            0x1fff8118       0x20 load address 0x00000c80
                0x1fff8118                PROVIDE (__bss_start__, .)
 *(.shbss)
 *(.bss .bss.* .gnu.linkonce.b.*)
 .bss           0x1fff8118       0x1c c:/program files/cypress/psoc creator/3.0/psoc creator/import/gnu_cs/arm/4.7.3/bin/../lib/gcc/arm-none-eabi/4.7.3/armv7-m/crtbegin.o
 .bss           0x1fff8134        0x1 .\CortexM3\ARM_GCC_473\Debug\servo_check.a(PWM_1.o)
                0x1fff8134                PWM_1_initVar
 *(COMMON)
 COMMON         0x1fff8135        0x1 .\CortexM3\ARM_GCC_473\Debug\main.o
                0x1fff8135                return_val
                0x1fff8138                . = ALIGN (0x8)
 *fill*         0x1fff8136        0x2 00
 *(.ram.b)
                0x1fff8138                _end = .
                0x1fff8138                __end = .
                0x1fff8138                PROVIDE (end, .)
                0x1fff8138                PROVIDE (__bss_end__, .)
                0x00000c70                __cy_region_init_ram = LOADADDR (.data)
                0x00000010                __cy_region_init_size_ram = (_edata - ADDR (.data))
                0x00000020                __cy_region_zero_size_ram = (_end - _edata)

.heap           0x1fff8138     0x1000 load address 0x00000c80
                0x1fff8138                . = _end
                0x1fff9138                . = (. + 0x1000)
 *fill*         0x1fff8138     0x1000 00
                0x1fff9138                __cy_heap_limit = .

.stack          0x20004000     0x4000
                0x20004000                __cy_stack_limit = .
                0x20008000                . = (. + 0x4000)
 *fill*         0x20004000     0x4000 00
                0x00000001                ASSERT ((__cy_stack_limit >= __cy_heap_limit), region RAM overflowed with stack)

.cyloadermeta
 *(.cyloadermeta)

.cyloadablemeta
 *(.cyloadablemeta)

.cyconfigecc    0x80000000      0x150
 *(.cyconfigecc)
 .cyconfigecc   0x80000000      0x150 .\CortexM3\ARM_GCC_473\Debug\cymetadata.o
                0x80000000                cy_meta_configecc

.cycustnvl      0x90000000        0x4
 *(.cycustnvl)
 .cycustnvl     0x90000000        0x4 .\CortexM3\ARM_GCC_473\Debug\cymetadata.o
                0x90000000                cy_meta_custnvl

.cywolatch      0x90100000        0x4
 *(.cywolatch)
 .cywolatch     0x90100000        0x4 .\CortexM3\ARM_GCC_473\Debug\cymetadata.o
                0x90100000                cy_meta_wonvl

.cyeeprom       0x90200000        0x0
 *(.cyeeprom)
                0x00000001                ASSERT ((. <= ((0x90200000 + ee_offset) + ee_size)), .cyeeprom data will not fit in EEPROM)

.cyflashprotect
                0x90400000      0x100
 *(.cyflashprotect)
 .cyflashprotect
                0x90400000      0x100 .\CortexM3\ARM_GCC_473\Debug\cymetadata.o
                0x90400000                cy_meta_flashprotect

.cymeta         0x90500000        0xc
 *(.cymeta)
 .cymeta        0x90500000        0xc .\CortexM3\ARM_GCC_473\Debug\cymetadata.o
                0x90500000                cy_metadata

.rel.dyn        0x00000c80        0x0 load address 0x9050000c
 .rel.iplt      0x00000000        0x0 c:/program files/cypress/psoc creator/3.0/psoc creator/import/gnu_cs/arm/4.7.3/bin/../lib/gcc/arm-none-eabi/4.7.3/armv7-m/crtbegin.o

.stab
 *(.stab)

.stabstr
 *(.stabstr)

.debug
 *(.debug)

.line
 *(.line)

.debug_srcinfo
 *(.debug_srcinfo)

.debug_sfnames
 *(.debug_sfnames)

.debug_aranges  0x00000000      0x558
 *(.debug_aranges)
 .debug_aranges
                0x00000000       0x20 .\CortexM3\ARM_GCC_473\Debug\main.o
 .debug_aranges
                0x00000020       0x18 .\CortexM3\ARM_GCC_473\Debug\cymetadata.o
 .debug_aranges
                0x00000038       0x40 .\CortexM3\ARM_GCC_473\Debug\Cm3Start.o
 .debug_aranges
                0x00000078       0x60 .\CortexM3\ARM_GCC_473\Debug\servo_check.a(cyfitter_cfg.o)
 .debug_aranges
                0x000000d8       0x98 .\CortexM3\ARM_GCC_473\Debug\servo_check.a(PWM_1.o)
 .debug_aranges
                0x00000170       0x20 .\CortexM3\ARM_GCC_473\Debug\servo_check.a(CyBootAsmGnu.o)
 .debug_aranges
                0x00000190      0x218 .\CortexM3\ARM_GCC_473\Debug\servo_check.a(CyLib.o)
 .debug_aranges
                0x000003a8       0x90 .\CortexM3\ARM_GCC_473\Debug\servo_check.a(cyPm.o)
 .debug_aranges
                0x00000438       0x40 .\CortexM3\ARM_GCC_473\Debug\servo_check.a(Status_Reg_1.o)
 .debug_aranges
                0x00000478       0x78 .\CortexM3\ARM_GCC_473\Debug\servo_check.a(CyFlash.o)
 .debug_aranges
                0x000004f0       0x68 .\CortexM3\ARM_GCC_473\Debug\servo_check.a(CySpc.o)

.debug_pubnames
 *(.debug_pubnames)

.debug_info     0x00000000     0x27b8
 *(.debug_info .gnu.linkonce.wi.*)
 .debug_info    0x00000000      0x116 .\CortexM3\ARM_GCC_473\Debug\main.o
 .debug_info    0x00000116      0x13f .\CortexM3\ARM_GCC_473\Debug\cymetadata.o
 .debug_info    0x00000255      0x2ea .\CortexM3\ARM_GCC_473\Debug\Cm3Start.o
 .debug_info    0x0000053f      0x3c0 .\CortexM3\ARM_GCC_473\Debug\servo_check.a(cyfitter_cfg.o)
 .debug_info    0x000008ff      0x305 .\CortexM3\ARM_GCC_473\Debug\servo_check.a(PWM_1.o)
 .debug_info    0x00000c04       0x97 .\CortexM3\ARM_GCC_473\Debug\servo_check.a(CyBootAsmGnu.o)
 .debug_info    0x00000c9b      0xcd7 .\CortexM3\ARM_GCC_473\Debug\servo_check.a(CyLib.o)
 .debug_info    0x00001972      0x5c3 .\CortexM3\ARM_GCC_473\Debug\servo_check.a(cyPm.o)
 .debug_info    0x00001f35      0x156 .\CortexM3\ARM_GCC_473\Debug\servo_check.a(Status_Reg_1.o)
 .debug_info    0x0000208b      0x354 .\CortexM3\ARM_GCC_473\Debug\servo_check.a(CyFlash.o)
 .debug_info    0x000023df      0x3d9 .\CortexM3\ARM_GCC_473\Debug\servo_check.a(CySpc.o)

.debug_abbrev   0x00000000      0xc2c
 *(.debug_abbrev)
 .debug_abbrev  0x00000000       0x7a .\CortexM3\ARM_GCC_473\Debug\main.o
 .debug_abbrev  0x0000007a       0x66 .\CortexM3\ARM_GCC_473\Debug\cymetadata.o
 .debug_abbrev  0x000000e0      0x175 .\CortexM3\ARM_GCC_473\Debug\Cm3Start.o
 .debug_abbrev  0x00000255      0x19f .\CortexM3\ARM_GCC_473\Debug\servo_check.a(cyfitter_cfg.o)
 .debug_abbrev  0x000003f4      0x130 .\CortexM3\ARM_GCC_473\Debug\servo_check.a(PWM_1.o)
 .debug_abbrev  0x00000524       0x14 .\CortexM3\ARM_GCC_473\Debug\servo_check.a(CyBootAsmGnu.o)
 .debug_abbrev  0x00000538      0x207 .\CortexM3\ARM_GCC_473\Debug\servo_check.a(CyLib.o)
 .debug_abbrev  0x0000073f      0x170 .\CortexM3\ARM_GCC_473\Debug\servo_check.a(cyPm.o)
 .debug_abbrev  0x000008af       0xac .\CortexM3\ARM_GCC_473\Debug\servo_check.a(Status_Reg_1.o)
 .debug_abbrev  0x0000095b      0x172 .\CortexM3\ARM_GCC_473\Debug\servo_check.a(CyFlash.o)
 .debug_abbrev  0x00000acd      0x15f .\CortexM3\ARM_GCC_473\Debug\servo_check.a(CySpc.o)

.debug_line     0x00000000     0x15b2
 *(.debug_line)
 .debug_line    0x00000000      0x14b .\CortexM3\ARM_GCC_473\Debug\main.o
 .debug_line    0x0000014b       0x53 .\CortexM3\ARM_GCC_473\Debug\cymetadata.o
 .debug_line    0x0000019e      0x1aa .\CortexM3\ARM_GCC_473\Debug\Cm3Start.o
 .debug_line    0x00000348      0x1f1 .\CortexM3\ARM_GCC_473\Debug\servo_check.a(cyfitter_cfg.o)
 .debug_line    0x00000539      0x190 .\CortexM3\ARM_GCC_473\Debug\servo_check.a(PWM_1.o)
 .debug_line    0x000006c9       0x68 .\CortexM3\ARM_GCC_473\Debug\servo_check.a(CyBootAsmGnu.o)
 .debug_line    0x00000731      0x73b .\CortexM3\ARM_GCC_473\Debug\servo_check.a(CyLib.o)
 .debug_line    0x00000e6c      0x347 .\CortexM3\ARM_GCC_473\Debug\servo_check.a(cyPm.o)
 .debug_line    0x000011b3       0xb1 .\CortexM3\ARM_GCC_473\Debug\servo_check.a(Status_Reg_1.o)
 .debug_line    0x00001264      0x1a7 .\CortexM3\ARM_GCC_473\Debug\servo_check.a(CyFlash.o)
 .debug_line    0x0000140b      0x1a7 .\CortexM3\ARM_GCC_473\Debug\servo_check.a(CySpc.o)

.debug_frame    0x00000000     0x1154
 *(.debug_frame)
 .debug_frame   0x00000000       0x2c .\CortexM3\ARM_GCC_473\Debug\main.o
 .debug_frame   0x0000002c       0xa4 .\CortexM3\ARM_GCC_473\Debug\Cm3Start.o
 .debug_frame   0x000000d0      0x120 .\CortexM3\ARM_GCC_473\Debug\servo_check.a(cyfitter_cfg.o)
 .debug_frame   0x000001f0      0x1d4 .\CortexM3\ARM_GCC_473\Debug\servo_check.a(PWM_1.o)
 .debug_frame   0x000003c4      0x778 .\CortexM3\ARM_GCC_473\Debug\servo_check.a(CyLib.o)
 .debug_frame   0x00000b3c      0x1d0 .\CortexM3\ARM_GCC_473\Debug\servo_check.a(cyPm.o)
 .debug_frame   0x00000d0c       0xa4 .\CortexM3\ARM_GCC_473\Debug\servo_check.a(Status_Reg_1.o)
 .debug_frame   0x00000db0      0x178 .\CortexM3\ARM_GCC_473\Debug\servo_check.a(CyFlash.o)
 .debug_frame   0x00000f28      0x13c .\CortexM3\ARM_GCC_473\Debug\servo_check.a(CySpc.o)
 .debug_frame   0x00001064       0x28 c:/program files/cypress/psoc creator/3.0/psoc creator/import/gnu_cs/arm/4.7.3/bin/../lib/gcc/arm-none-eabi/4.7.3/../../../../arm-none-eabi/lib/armv7-m\libc_s.a(lib_a-__atexit2.o)
 .debug_frame   0x0000108c       0x28 c:/program files/cypress/psoc creator/3.0/psoc creator/import/gnu_cs/arm/4.7.3/bin/../lib/gcc/arm-none-eabi/4.7.3/../../../../arm-none-eabi/lib/armv7-m\libc_s.a(lib_a-exit.o)
 .debug_frame   0x000010b4       0x2c c:/program files/cypress/psoc creator/3.0/psoc creator/import/gnu_cs/arm/4.7.3/bin/../lib/gcc/arm-none-eabi/4.7.3/../../../../arm-none-eabi/lib/armv7-m\libc_s.a(lib_a-fini.o)
 .debug_frame   0x000010e0       0x2c c:/program files/cypress/psoc creator/3.0/psoc creator/import/gnu_cs/arm/4.7.3/bin/../lib/gcc/arm-none-eabi/4.7.3/../../../../arm-none-eabi/lib/armv7-m\libc_s.a(lib_a-init.o)
 .debug_frame   0x0000110c       0x28 c:/program files/cypress/psoc creator/3.0/psoc creator/import/gnu_cs/arm/4.7.3/bin/../lib/gcc/arm-none-eabi/4.7.3/../../../../arm-none-eabi/lib/armv7-m\libc_s.a(lib_a-memcpy.o)
 .debug_frame   0x00001134       0x20 c:/program files/cypress/psoc creator/3.0/psoc creator/import/gnu_cs/arm/4.7.3/bin/../lib/gcc/arm-none-eabi/4.7.3/../../../../arm-none-eabi/lib/armv7-m\libc_s.a(lib_a-memset.o)

.debug_str      0x00000000     0x1245
 *(.debug_str)
 .debug_str     0x00000000      0x143 .\CortexM3\ARM_GCC_473\Debug\main.o
                                0x17c (size before relaxing)
 .debug_str     0x00000143       0x77 .\CortexM3\ARM_GCC_473\Debug\cymetadata.o
                                0x1ac (size before relaxing)
 .debug_str     0x000001ba      0x119 .\CortexM3\ARM_GCC_473\Debug\Cm3Start.o
                                0x268 (size before relaxing)
 .debug_str     0x000002d3      0x15e .\CortexM3\ARM_GCC_473\Debug\servo_check.a(cyfitter_cfg.o)
                                0x2b9 (size before relaxing)
 .debug_str     0x00000431      0x1a0 .\CortexM3\ARM_GCC_473\Debug\servo_check.a(PWM_1.o)
                                0x2e7 (size before relaxing)
 .debug_str     0x000005d1      0x633 .\CortexM3\ARM_GCC_473\Debug\servo_check.a(CyLib.o)
                                0x7ce (size before relaxing)
 .debug_str     0x00000c04      0x371 .\CortexM3\ARM_GCC_473\Debug\servo_check.a(cyPm.o)
                                0x4dd (size before relaxing)
 .debug_str     0x00000f75       0xa2 .\CortexM3\ARM_GCC_473\Debug\servo_check.a(Status_Reg_1.o)
                                0x1f0 (size before relaxing)
 .debug_str     0x00001017      0x130 .\CortexM3\ARM_GCC_473\Debug\servo_check.a(CyFlash.o)
                                0x2a3 (size before relaxing)
 .debug_str     0x00001147       0xfe .\CortexM3\ARM_GCC_473\Debug\servo_check.a(CySpc.o)
                                0x27f (size before relaxing)

.debug_loc      0x00000000     0x1b94
 *(.debug_loc)
 .debug_loc     0x00000000       0x2c .\CortexM3\ARM_GCC_473\Debug\main.o
 .debug_loc     0x0000002c      0x100 .\CortexM3\ARM_GCC_473\Debug\Cm3Start.o
 .debug_loc     0x0000012c      0x1f8 .\CortexM3\ARM_GCC_473\Debug\servo_check.a(cyfitter_cfg.o)
 .debug_loc     0x00000324      0x320 .\CortexM3\ARM_GCC_473\Debug\servo_check.a(PWM_1.o)
 .debug_loc     0x00000644      0xce0 .\CortexM3\ARM_GCC_473\Debug\servo_check.a(CyLib.o)
 .debug_loc     0x00001324      0x2e8 .\CortexM3\ARM_GCC_473\Debug\servo_check.a(cyPm.o)
 .debug_loc     0x0000160c      0x100 .\CortexM3\ARM_GCC_473\Debug\servo_check.a(Status_Reg_1.o)
 .debug_loc     0x0000170c      0x258 .\CortexM3\ARM_GCC_473\Debug\servo_check.a(CyFlash.o)
 .debug_loc     0x00001964      0x230 .\CortexM3\ARM_GCC_473\Debug\servo_check.a(CySpc.o)

.debug_macinfo
 *(.debug_macinfo)

.debug_ranges   0x00000000      0x490
 *(.debug_ranges)
 .debug_ranges  0x00000000       0x10 .\CortexM3\ARM_GCC_473\Debug\main.o
 .debug_ranges  0x00000010       0x30 .\CortexM3\ARM_GCC_473\Debug\Cm3Start.o
 .debug_ranges  0x00000040       0x50 .\CortexM3\ARM_GCC_473\Debug\servo_check.a(cyfitter_cfg.o)
 .debug_ranges  0x00000090       0x88 .\CortexM3\ARM_GCC_473\Debug\servo_check.a(PWM_1.o)
 .debug_ranges  0x00000118      0x208 .\CortexM3\ARM_GCC_473\Debug\servo_check.a(CyLib.o)
 .debug_ranges  0x00000320       0x80 .\CortexM3\ARM_GCC_473\Debug\servo_check.a(cyPm.o)
 .debug_ranges  0x000003a0       0x30 .\CortexM3\ARM_GCC_473\Debug\servo_check.a(Status_Reg_1.o)
 .debug_ranges  0x000003d0       0x68 .\CortexM3\ARM_GCC_473\Debug\servo_check.a(CyFlash.o)
 .debug_ranges  0x00000438       0x58 .\CortexM3\ARM_GCC_473\Debug\servo_check.a(CySpc.o)

.comment        0x00000000       0x70
 .comment       0x00000000       0x70 .\CortexM3\ARM_GCC_473\Debug\main.o
                                 0x71 (size before relaxing)
 .comment       0x00000000       0x71 .\CortexM3\ARM_GCC_473\Debug\cymetadata.o
 .comment       0x00000000       0x71 .\CortexM3\ARM_GCC_473\Debug\Cm3Start.o
 .comment       0x00000000       0x71 .\CortexM3\ARM_GCC_473\Debug\servo_check.a(cyfitter_cfg.o)
 .comment       0x00000000       0x71 .\CortexM3\ARM_GCC_473\Debug\servo_check.a(PWM_1.o)
 .comment       0x00000000       0x71 .\CortexM3\ARM_GCC_473\Debug\servo_check.a(CyLib.o)
 .comment       0x00000000       0x71 .\CortexM3\ARM_GCC_473\Debug\servo_check.a(cyPm.o)
 .comment       0x00000000       0x71 .\CortexM3\ARM_GCC_473\Debug\servo_check.a(Status_Reg_1.o)
 .comment       0x00000000       0x71 .\CortexM3\ARM_GCC_473\Debug\servo_check.a(CyFlash.o)
 .comment       0x00000000       0x71 .\CortexM3\ARM_GCC_473\Debug\servo_check.a(CySpc.o)

.debug_weaknames
 *(.debug_weaknames)

.debug_funcnames
 *(.debug_funcnames)

.debug_typenames
 *(.debug_typenames)

.debug_varnames
 *(.debug_varnames)

.note.gnu.arm.ident
 *(.note.gnu.arm.ident)

.ARM.attributes
                0x00000000       0x29
 *(.ARM.attributes)
 .ARM.attributes
                0x00000000       0x1d c:/program files/cypress/psoc creator/3.0/psoc creator/import/gnu_cs/arm/4.7.3/bin/../lib/gcc/arm-none-eabi/4.7.3/armv7-m/crti.o
 .ARM.attributes
                0x0000001d       0x2d c:/program files/cypress/psoc creator/3.0/psoc creator/import/gnu_cs/arm/4.7.3/bin/../lib/gcc/arm-none-eabi/4.7.3/armv7-m/crtbegin.o
 .ARM.attributes
                0x0000004a       0x1b c:/program files/cypress/psoc creator/3.0/psoc creator/import/gnu_cs/arm/4.7.3/bin/../lib/gcc/arm-none-eabi/4.7.3/../../../../arm-none-eabi/lib/armv7-m/crt0.o
 .ARM.attributes
                0x00000065       0x33 .\CortexM3\ARM_GCC_473\Debug\main.o
 .ARM.attributes
                0x00000098       0x33 .\CortexM3\ARM_GCC_473\Debug\cymetadata.o
 .ARM.attributes
                0x000000cb       0x33 .\CortexM3\ARM_GCC_473\Debug\Cm3Start.o
 .ARM.attributes
                0x000000fe       0x33 .\CortexM3\ARM_GCC_473\Debug\servo_check.a(cyfitter_cfg.o)
 .ARM.attributes
                0x00000131       0x33 .\CortexM3\ARM_GCC_473\Debug\servo_check.a(PWM_1.o)
 .ARM.attributes
                0x00000164       0x21 .\CortexM3\ARM_GCC_473\Debug\servo_check.a(CyBootAsmGnu.o)
 .ARM.attributes
                0x00000185       0x33 .\CortexM3\ARM_GCC_473\Debug\servo_check.a(CyLib.o)
 .ARM.attributes
                0x000001b8       0x33 .\CortexM3\ARM_GCC_473\Debug\servo_check.a(cyPm.o)
 .ARM.attributes
                0x000001eb       0x33 .\CortexM3\ARM_GCC_473\Debug\servo_check.a(Status_Reg_1.o)
 .ARM.attributes
                0x0000021e       0x33 .\CortexM3\ARM_GCC_473\Debug\servo_check.a(CyFlash.o)
 .ARM.attributes
                0x00000251       0x33 .\CortexM3\ARM_GCC_473\Debug\servo_check.a(CySpc.o)
 .ARM.attributes
                0x00000284       0x2d c:/program files/cypress/psoc creator/3.0/psoc creator/import/gnu_cs/arm/4.7.3/bin/../lib/gcc/arm-none-eabi/4.7.3/../../../../arm-none-eabi/lib/armv7-m\libc_s.a(lib_a-__atexit2.o)
 .ARM.attributes
                0x000002b1       0x2d c:/program files/cypress/psoc creator/3.0/psoc creator/import/gnu_cs/arm/4.7.3/bin/../lib/gcc/arm-none-eabi/4.7.3/../../../../arm-none-eabi/lib/armv7-m\libc_s.a(lib_a-exit.o)
 .ARM.attributes
                0x000002de       0x2d c:/program files/cypress/psoc creator/3.0/psoc creator/import/gnu_cs/arm/4.7.3/bin/../lib/gcc/arm-none-eabi/4.7.3/../../../../arm-none-eabi/lib/armv7-m\libc_s.a(lib_a-fini.o)
 .ARM.attributes
                0x0000030b       0x2d c:/program files/cypress/psoc creator/3.0/psoc creator/import/gnu_cs/arm/4.7.3/bin/../lib/gcc/arm-none-eabi/4.7.3/../../../../arm-none-eabi/lib/armv7-m\libc_s.a(lib_a-impure.o)
 .ARM.attributes
                0x00000338       0x2d c:/program files/cypress/psoc creator/3.0/psoc creator/import/gnu_cs/arm/4.7.3/bin/../lib/gcc/arm-none-eabi/4.7.3/../../../../arm-none-eabi/lib/armv7-m\libc_s.a(lib_a-init.o)
 .ARM.attributes
                0x00000365       0x2d c:/program files/cypress/psoc creator/3.0/psoc creator/import/gnu_cs/arm/4.7.3/bin/../lib/gcc/arm-none-eabi/4.7.3/../../../../arm-none-eabi/lib/armv7-m\libc_s.a(lib_a-memcpy.o)
 .ARM.attributes
                0x00000392       0x2d c:/program files/cypress/psoc creator/3.0/psoc creator/import/gnu_cs/arm/4.7.3/bin/../lib/gcc/arm-none-eabi/4.7.3/../../../../arm-none-eabi/lib/armv7-m\libc_s.a(lib_a-memset.o)
 .ARM.attributes
                0x000003bf       0x2d c:/program files/cypress/psoc creator/3.0/psoc creator/import/gnu_cs/arm/4.7.3/bin/../lib/gcc/arm-none-eabi/4.7.3/armv7-m/crtend.o
 .ARM.attributes
                0x000003ec       0x1d c:/program files/cypress/psoc creator/3.0/psoc creator/import/gnu_cs/arm/4.7.3/bin/../lib/gcc/arm-none-eabi/4.7.3/armv7-m/crtn.o

/DISCARD/
 *(.note.GNU-stack)
OUTPUT(.\CortexM3\ARM_GCC_473\Debug\servo_check.elf elf32-littlearm)
