Archive member included because of file (symbol)

.\CortexM3\ARM_GCC_473\Debug\ail.a(cyfitter_cfg.o)
                              .\CortexM3\ARM_GCC_473\Debug\Cm3Start.o (cyfitter_cfg)
.\CortexM3\ARM_GCC_473\Debug\ail.a(CyBootAsmGnu.o)
                              .\CortexM3\ARM_GCC_473\Debug\ail.a(cyfitter_cfg.o) (CyDelayCycles)
.\CortexM3\ARM_GCC_473\Debug\ail.a(CyLib.o)
                              .\CortexM3\ARM_GCC_473\Debug\Cm3Start.o (CyResetStatus)
.\CortexM3\ARM_GCC_473\Debug\ail.a(cyPm.o)
                              .\CortexM3\ARM_GCC_473\Debug\ail.a(CyLib.o) (CyPmReadStatus)
.\CortexM3\ARM_GCC_473\Debug\ail.a(UART.o)
                              .\CortexM3\ARM_GCC_473\Debug\main.o (UART_Start)
.\CortexM3\ARM_GCC_473\Debug\ail.a(Timer.o)
                              .\CortexM3\ARM_GCC_473\Debug\main.o (Timer_WriteCounter)
.\CortexM3\ARM_GCC_473\Debug\ail.a(DE.o)
                              .\CortexM3\ARM_GCC_473\Debug\main.o (DE_Write)
.\CortexM3\ARM_GCC_473\Debug\ail.a(LED_1.o)
                              .\CortexM3\ARM_GCC_473\Debug\main.o (LED_1_Write)
.\CortexM3\ARM_GCC_473\Debug\ail.a(LED_2.o)
                              .\CortexM3\ARM_GCC_473\Debug\main.o (LED_2_Write)
.\CortexM3\ARM_GCC_473\Debug\ail.a(PWM_1.o)
                              .\CortexM3\ARM_GCC_473\Debug\main.o (PWM_1_Start)
.\CortexM3\ARM_GCC_473\Debug\ail.a(isr_tc.o)
                              .\CortexM3\ARM_GCC_473\Debug\main.o (isr_tc_StartEx)
.\CortexM3\ARM_GCC_473\Debug\ail.a(CyFlash.o)
                              .\CortexM3\ARM_GCC_473\Debug\ail.a(cyPm.o) (CyFlash_SetWaitCycles)
.\CortexM3\ARM_GCC_473\Debug\ail.a(CySpc.o)
                              .\CortexM3\ARM_GCC_473\Debug\ail.a(CyFlash.o) (CySpcStart)
c:/program files/cypress/psoc creator/3.0/psoc creator/import/gnu_cs/arm/4.7.3/bin/../lib/gcc/arm-none-eabi/4.7.3/armv7-m\libgcc.a(_arm_addsubsf3.o)
                              .\CortexM3\ARM_GCC_473\Debug\main.o (__aeabi_fsub)
c:/program files/cypress/psoc creator/3.0/psoc creator/import/gnu_cs/arm/4.7.3/bin/../lib/gcc/arm-none-eabi/4.7.3/armv7-m\libgcc.a(_arm_muldivsf3.o)
                              .\CortexM3\ARM_GCC_473\Debug\main.o (__aeabi_fmul)
c:/program files/cypress/psoc creator/3.0/psoc creator/import/gnu_cs/arm/4.7.3/bin/../lib/gcc/arm-none-eabi/4.7.3/armv7-m\libgcc.a(_arm_fixunssfsi.o)
                              .\CortexM3\ARM_GCC_473\Debug\main.o (__aeabi_f2uiz)
c:/program files/cypress/psoc creator/3.0/psoc creator/import/gnu_cs/arm/4.7.3/bin/../lib/gcc/arm-none-eabi/4.7.3/../../../../arm-none-eabi/lib/armv7-m\libc_s.a(lib_a-__atexit2.o)
                              c:/program files/cypress/psoc creator/3.0/psoc creator/import/gnu_cs/arm/4.7.3/bin/../lib/gcc/arm-none-eabi/4.7.3/../../../../arm-none-eabi/lib/armv7-m/crt0.o (__register_exitproc)
c:/program files/cypress/psoc creator/3.0/psoc creator/import/gnu_cs/arm/4.7.3/bin/../lib/gcc/arm-none-eabi/4.7.3/../../../../arm-none-eabi/lib/armv7-m\libc_s.a(lib_a-exit.o)
                              c:/program files/cypress/psoc creator/3.0/psoc creator/import/gnu_cs/arm/4.7.3/bin/../lib/gcc/arm-none-eabi/4.7.3/../../../../arm-none-eabi/lib/armv7-m/crt0.o (exit)
c:/program files/cypress/psoc creator/3.0/psoc creator/import/gnu_cs/arm/4.7.3/bin/../lib/gcc/arm-none-eabi/4.7.3/../../../../arm-none-eabi/lib/armv7-m\libc_s.a(lib_a-fini.o)
                              c:/program files/cypress/psoc creator/3.0/psoc creator/import/gnu_cs/arm/4.7.3/bin/../lib/gcc/arm-none-eabi/4.7.3/../../../../arm-none-eabi/lib/armv7-m/crt0.o (__libc_fini_array)
c:/program files/cypress/psoc creator/3.0/psoc creator/import/gnu_cs/arm/4.7.3/bin/../lib/gcc/arm-none-eabi/4.7.3/../../../../arm-none-eabi/lib/armv7-m\libc_s.a(lib_a-impure.o)
                              c:/program files/cypress/psoc creator/3.0/psoc creator/import/gnu_cs/arm/4.7.3/bin/../lib/gcc/arm-none-eabi/4.7.3/../../../../arm-none-eabi/lib/armv7-m\libc_s.a(lib_a-exit.o) (_global_impure_ptr)
c:/program files/cypress/psoc creator/3.0/psoc creator/import/gnu_cs/arm/4.7.3/bin/../lib/gcc/arm-none-eabi/4.7.3/../../../../arm-none-eabi/lib/armv7-m\libc_s.a(lib_a-init.o)
                              c:/program files/cypress/psoc creator/3.0/psoc creator/import/gnu_cs/arm/4.7.3/bin/../lib/gcc/arm-none-eabi/4.7.3/../../../../arm-none-eabi/lib/armv7-m/crt0.o (__libc_init_array)
c:/program files/cypress/psoc creator/3.0/psoc creator/import/gnu_cs/arm/4.7.3/bin/../lib/gcc/arm-none-eabi/4.7.3/../../../../arm-none-eabi/lib/armv7-m\libc_s.a(lib_a-memcpy.o)
                              .\CortexM3\ARM_GCC_473\Debug\ail.a(cyfitter_cfg.o) (memcpy)
c:/program files/cypress/psoc creator/3.0/psoc creator/import/gnu_cs/arm/4.7.3/bin/../lib/gcc/arm-none-eabi/4.7.3/../../../../arm-none-eabi/lib/armv7-m\libc_s.a(lib_a-memset.o)
                              c:/program files/cypress/psoc creator/3.0/psoc creator/import/gnu_cs/arm/4.7.3/bin/../lib/gcc/arm-none-eabi/4.7.3/../../../../arm-none-eabi/lib/armv7-m/crt0.o (memset)

Allocating common symbols
Common symbol       size              file

aileron_buffer      0x4               .\CortexM3\ARM_GCC_473\Debug\main.o
pak                 0x6               .\CortexM3\ARM_GCC_473\Debug\main.o
dieTemperature      0x2               .\CortexM3\ARM_GCC_473\Debug\ail.a(CyFlash.o)

Discarded input sections

 .text          0x00000000        0x0 c:/program files/cypress/psoc creator/3.0/psoc creator/import/gnu_cs/arm/4.7.3/bin/../lib/gcc/arm-none-eabi/4.7.3/armv7-m/crti.o
 .data          0x00000000        0x0 c:/program files/cypress/psoc creator/3.0/psoc creator/import/gnu_cs/arm/4.7.3/bin/../lib/gcc/arm-none-eabi/4.7.3/armv7-m/crti.o
 .bss           0x00000000        0x0 c:/program files/cypress/psoc creator/3.0/psoc creator/import/gnu_cs/arm/4.7.3/bin/../lib/gcc/arm-none-eabi/4.7.3/armv7-m/crti.o
 .data          0x00000000        0x4 c:/program files/cypress/psoc creator/3.0/psoc creator/import/gnu_cs/arm/4.7.3/bin/../lib/gcc/arm-none-eabi/4.7.3/armv7-m/crtbegin.o
 .text          0x00000000       0x70 c:/program files/cypress/psoc creator/3.0/psoc creator/import/gnu_cs/arm/4.7.3/bin/../lib/gcc/arm-none-eabi/4.7.3/../../../../arm-none-eabi/lib/armv7-m/crt0.o
 .data          0x00000000        0x0 c:/program files/cypress/psoc creator/3.0/psoc creator/import/gnu_cs/arm/4.7.3/bin/../lib/gcc/arm-none-eabi/4.7.3/../../../../arm-none-eabi/lib/armv7-m/crt0.o
 .bss           0x00000000        0x0 c:/program files/cypress/psoc creator/3.0/psoc creator/import/gnu_cs/arm/4.7.3/bin/../lib/gcc/arm-none-eabi/4.7.3/../../../../arm-none-eabi/lib/armv7-m/crt0.o
 .ARM.extab     0x00000000        0x0 c:/program files/cypress/psoc creator/3.0/psoc creator/import/gnu_cs/arm/4.7.3/bin/../lib/gcc/arm-none-eabi/4.7.3/../../../../arm-none-eabi/lib/armv7-m/crt0.o
 .ARM.exidx     0x00000000        0x8 c:/program files/cypress/psoc creator/3.0/psoc creator/import/gnu_cs/arm/4.7.3/bin/../lib/gcc/arm-none-eabi/4.7.3/../../../../arm-none-eabi/lib/armv7-m/crt0.o
 .text          0x00000000        0x0 .\CortexM3\ARM_GCC_473\Debug\main.o
 .text          0x00000000        0x0 .\CortexM3\ARM_GCC_473\Debug\cymetadata.o
 .data          0x00000000        0x0 .\CortexM3\ARM_GCC_473\Debug\cymetadata.o
 .bss           0x00000000        0x0 .\CortexM3\ARM_GCC_473\Debug\cymetadata.o
 .text          0x00000000        0x0 .\CortexM3\ARM_GCC_473\Debug\Cm3Start.o
 .data          0x00000000        0x0 .\CortexM3\ARM_GCC_473\Debug\Cm3Start.o
 .bss           0x00000000        0x0 .\CortexM3\ARM_GCC_473\Debug\Cm3Start.o
 .text._exit    0x00000000       0x30 .\CortexM3\ARM_GCC_473\Debug\Cm3Start.o
 .text          0x00000000        0x0 .\CortexM3\ARM_GCC_473\Debug\ail.a(cyfitter_cfg.o)
Memory Configuration

Name             Origin             Length             Attributes
rom              0x00000000         0x00040000         xr
ram              0x1fff8000         0x00010000         xrw
*default*        0x00000000         0xffffffff

Linker script and memory map

LOAD c:/program files/cypress/psoc creator/3.0/psoc creator/import/gnu_cs/arm/4.7.3/bin/../lib/gcc/arm-none-eabi/4.7.3/armv7-m/crti.o
LOAD c:/program files/cypress/psoc creator/3.0/psoc creator/import/gnu_cs/arm/4.7.3/bin/../lib/gcc/arm-none-eabi/4.7.3/armv7-m/crtbegin.o
LOAD c:/program files/cypress/psoc creator/3.0/psoc creator/import/gnu_cs/arm/4.7.3/bin/../lib/gcc/arm-none-eabi/4.7.3/../../../../arm-none-eabi/lib/armv7-m/crt0.o
START GROUP
LOAD .\CortexM3\ARM_GCC_473\Debug\main.o
LOAD .\CortexM3\ARM_GCC_473\Debug\cymetadata.o
LOAD .\CortexM3\ARM_GCC_473\Debug\Cm3Start.o
LOAD .\CortexM3\ARM_GCC_473\Debug\ail.a
LOAD C:\Program Files\Cypress\PSoC Creator\3.0\PSoC Creator\psoc\content\cycomponentlibrary\CyComponentLibrary.cylib\CortexM3\ARM_GCC_473\Debug\CyComponentLibrary.a
END GROUP
START GROUP
LOAD c:/program files/cypress/psoc creator/3.0/psoc creator/import/gnu_cs/arm/4.7.3/bin/../lib/gcc/arm-none-eabi/4.7.3/armv7-m\libgcc.a
LOAD c:/program files/cypress/psoc creator/3.0/psoc creator/import/gnu_cs/arm/4.7.3/bin/../lib/gcc/arm-none-eabi/4.7.3/../../../../arm-none-eabi/lib/armv7-m\libc_s.a
END GROUP
LOAD c:/program files/cypress/psoc creator/3.0/psoc creator/import/gnu_cs/arm/4.7.3/bin/../lib/gcc/arm-none-eabi/4.7.3/armv7-m/crtend.o
LOAD c:/program files/cypress/psoc creator/3.0/psoc creator/import/gnu_cs/arm/4.7.3/bin/../lib/gcc/arm-none-eabi/4.7.3/armv7-m/crtn.o
START GROUP
LOAD c:/program files/cypress/psoc creator/3.0/psoc creator/import/gnu_cs/arm/4.7.3/bin/../lib/gcc/arm-none-eabi/4.7.3/armv7-m\libgcc.a
LOAD c:/program files/cypress/psoc creator/3.0/psoc creator/import/gnu_cs/arm/4.7.3/bin/../lib/gcc/arm-none-eabi/4.7.3/../../../../arm-none-eabi/lib/armv7-m\libc.a
LOAD c:/program files/cypress/psoc creator/3.0/psoc creator/import/gnu_cs/arm/4.7.3/bin/../lib/gcc/arm-none-eabi/4.7.3/../../../../arm-none-eabi/lib/armv7-m\libnosys.a
END GROUP
                0x00000000                CY_APPL_ORIGIN = 0x0
                0x00000100                CY_FLASH_ROW_SIZE = 0x100
                0x00000020                CY_ECC_ROW_SIZE = 0x20
                0x00000000                CY_EE_IN_BTLDR = 0x0
                0x00000000                CY_APPL_LOADABLE = 0x0
                0x00000800                CY_EE_SIZE = 0x800
                0x00000001                CY_APPL_NUM = 0x1
                0x00000001                CY_APPL_MAX = 0x1
                0x00000040                CY_METADATA_SIZE = 0x40
                0x1fff8148                PROVIDE (__cy_heap_start, _end)
                0x00000001                PROVIDE (__cy_region_num, ((__cy_regions_end - __cy_regions) / 0x10))
                0x20008000                PROVIDE (__cy_stack, (ORIGIN (ram) + 0x10000))
                0x20004000                PROVIDE (__cy_heap_end, (__cy_stack - 0x4000))

.cybootloader   0x00000000        0x0
 *(.cybootloader)
                0x00000000                appl1_start = CY_APPL_ORIGIN?CY_APPL_ORIGIN:ALIGN (CY_FLASH_ROW_SIZE)
                0x0001ff00                appl2_start = (appl1_start + ALIGN ((((0x40000 - appl1_start) - (0x2 * CY_FLASH_ROW_SIZE)) / 0x2), CY_FLASH_ROW_SIZE))
                0x00000000                appl_start = (CY_APPL_NUM == 0x1)?appl1_start:appl2_start
                0x00000000                ecc_offset = ((appl_start / CY_FLASH_ROW_SIZE) * CY_ECC_ROW_SIZE)
                0x00000000                ee_offset = (CY_APPL_LOADABLE && ! (CY_EE_IN_BTLDR))?((CY_EE_SIZE / CY_APPL_MAX) * (CY_APPL_NUM - 0x1)):0x0
                0x00000800                ee_size = (CY_APPL_LOADABLE && ! (CY_EE_IN_BTLDR))?(CY_EE_SIZE / CY_APPL_MAX):CY_EE_SIZE
                0x00000000                PROVIDE (CY_ECC_OFFSET, ecc_offset)

.text           0x00000000     0x1642
 CREATE_OBJECT_SYMBOLS
                0x00000000                PROVIDE (__cy_interrupt_vector, RomVectors)
 *(.romvectors)
 .romvectors    0x00000000       0x10 .\CortexM3\ARM_GCC_473\Debug\Cm3Start.o
                0x00000000                RomVectors
                0x00000001                ASSERT ((. != __cy_interrupt_vector), No interrupt vector)
                0x00000001                ASSERT (CY_APPL_ORIGIN?(SIZEOF (.cybootloader) <= CY_APPL_ORIGIN):0x1, Wrong image location)
                0x00000010                PROVIDE (__cy_reset, Reset)
 *(.text.Reset)
 .text.Reset    0x00000010       0x1c .\CortexM3\ARM_GCC_473\Debug\Cm3Start.o
                0x00000010                Reset
                0x00000001                ASSERT ((. != __cy_reset), No reset code)
 *(.dma_init)
                0x00000001                ASSERT ((((appl_start + .) <= 0x10000) || 0x1), DMA Init must be within the first 64k of flash)
 *(.text .text.* .gnu.linkonce.t.*)
 .text          0x0000002c       0x54 c:/program files/cypress/psoc creator/3.0/psoc creator/import/gnu_cs/arm/4.7.3/bin/../lib/gcc/arm-none-eabi/4.7.3/armv7-m/crtbegin.o
 .text.main     0x00000080       0xb4 .\CortexM3\ARM_GCC_473\Debug\main.o
                0x00000080                main
 .text.Timer_Set
                0x00000134       0x1c .\CortexM3\ARM_GCC_473\Debug\main.o
                0x00000134                Timer_Set
 .text.Timer_Delayus
                0x00000150       0x2c .\CortexM3\ARM_GCC_473\Debug\main.o
                0x00000150                Timer_Delayus
 .text.rs485_Start
                0x0000017c       0x10 .\CortexM3\ARM_GCC_473\Debug\main.o
                0x0000017c                rs485_Start
 .text.rs485_CheckPacket
                0x0000018c      0x1b4 .\CortexM3\ARM_GCC_473\Debug\main.o
                0x0000018c                rs485_CheckPacket
 .text.CheckValid
                0x00000340       0x5c .\CortexM3\ARM_GCC_473\Debug\main.o
                0x00000340                CheckValid
 .text.Servo_Start
                0x0000039c       0x18 .\CortexM3\ARM_GCC_473\Debug\main.o
                0x0000039c                Servo_Start
 .text.FormatValueAil
                0x000003b4       0x54 .\CortexM3\ARM_GCC_473\Debug\main.o
                0x000003b4                FormatValueAil
 .text.Terminal_Count_ISR
                0x00000408       0x20 .\CortexM3\ARM_GCC_473\Debug\main.o
                0x00000408                Terminal_Count_ISR
 .text.IntDefaultHandler
                0x00000428        0x8 .\CortexM3\ARM_GCC_473\Debug\Cm3Start.o
                0x00000428                IntDefaultHandler
 .text.Start_c  0x00000430       0xcc .\CortexM3\ARM_GCC_473\Debug\Cm3Start.o
                0x00000430                Start_c
 .text.initialize_psoc
                0x000004fc       0xb4 .\CortexM3\ARM_GCC_473\Debug\Cm3Start.o
                0x000004fc                initialize_psoc
 .text.CYMEMZERO
                0x000005b0       0x20 .\CortexM3\ARM_GCC_473\Debug\ail.a(cyfitter_cfg.o)
 .text.CYCONFIGCPY
                0x000005d0       0x20 .\CortexM3\ARM_GCC_473\Debug\ail.a(cyfitter_cfg.o)
 .text.CyClockStartupError
                0x000005f0        0xc .\CortexM3\ARM_GCC_473\Debug\ail.a(cyfitter_cfg.o)
 .text.cfg_write_bytes32
                0x000005fc       0x84 .\CortexM3\ARM_GCC_473\Debug\ail.a(cyfitter_cfg.o)
 .text.ClockSetup
                0x00000680      0x188 .\CortexM3\ARM_GCC_473\Debug\ail.a(cyfitter_cfg.o)
 .text.AnalogSetDefault
                0x00000808       0x50 .\CortexM3\ARM_GCC_473\Debug\ail.a(cyfitter_cfg.o)
 .text.cyfitter_cfg
                0x00000858      0x180 .\CortexM3\ARM_GCC_473\Debug\ail.a(cyfitter_cfg.o)
                0x00000858                cyfitter_cfg
 .text          0x000009d8       0x28 .\CortexM3\ARM_GCC_473\Debug\ail.a(CyBootAsmGnu.o)
                0x000009d8                CyDelayCycles
                0x000009ec                CyEnterCriticalSection
                0x000009f4                CyExitCriticalSection
 .text.UART_Start
                0x00000a00       0x2c .\CortexM3\ARM_GCC_473\Debug\ail.a(UART.o)
                0x00000a00                UART_Start
 .text.UART_Init
                0x00000a2c       0x50 .\CortexM3\ARM_GCC_473\Debug\ail.a(UART.o)
                0x00000a2c                UART_Init
 .text.UART_Enable
                0x00000a7c       0x74 .\CortexM3\ARM_GCC_473\Debug\ail.a(UART.o)
                0x00000a7c                UART_Enable
 .text.UART_ReadRxData
                0x00000af0       0x20 .\CortexM3\ARM_GCC_473\Debug\ail.a(UART.o)
                0x00000af0                UART_ReadRxData
 .text.UART_ReadRxStatus
                0x00000b10       0x28 .\CortexM3\ARM_GCC_473\Debug\ail.a(UART.o)
                0x00000b10                UART_ReadRxStatus
 .text.UART_ClearRxBuffer
                0x00000b38       0x58 .\CortexM3\ARM_GCC_473\Debug\ail.a(UART.o)
                0x00000b38                UART_ClearRxBuffer
 .text.UART_ReadTxStatus
                0x00000b90       0x18 .\CortexM3\ARM_GCC_473\Debug\ail.a(UART.o)
                0x00000b90                UART_ReadTxStatus
 .text.UART_PutChar
                0x00000ba8       0x38 .\CortexM3\ARM_GCC_473\Debug\ail.a(UART.o)
                0x00000ba8                UART_PutChar
 .text.Timer_Init
                0x00000be0       0x58 .\CortexM3\ARM_GCC_473\Debug\ail.a(Timer.o)
                0x00000be0                Timer_Init
 .text.Timer_Enable
                0x00000c38       0x28 .\CortexM3\ARM_GCC_473\Debug\ail.a(Timer.o)
                0x00000c38                Timer_Enable
 .text.Timer_Start
                0x00000c60       0x2c .\CortexM3\ARM_GCC_473\Debug\ail.a(Timer.o)
                0x00000c60                Timer_Start
 .text.Timer_SetInterruptMode
                0x00000c8c       0x20 .\CortexM3\ARM_GCC_473\Debug\ail.a(Timer.o)
                0x00000c8c                Timer_SetInterruptMode
 .text.Timer_ReadStatusRegister
                0x00000cac       0x18 .\CortexM3\ARM_GCC_473\Debug\ail.a(Timer.o)
                0x00000cac                Timer_ReadStatusRegister
 .text.Timer_WritePeriod
                0x00000cc4       0x20 .\CortexM3\ARM_GCC_473\Debug\ail.a(Timer.o)
                0x00000cc4                Timer_WritePeriod
 .text.Timer_ReadCapture
                0x00000ce4       0x18 .\CortexM3\ARM_GCC_473\Debug\ail.a(Timer.o)
                0x00000ce4                Timer_ReadCapture
 .text.Timer_WriteCounter
                0x00000cfc       0x20 .\CortexM3\ARM_GCC_473\Debug\ail.a(Timer.o)
                0x00000cfc                Timer_WriteCounter
 .text.Timer_ReadCounter
                0x00000d1c       0x24 .\CortexM3\ARM_GCC_473\Debug\ail.a(Timer.o)
                0x00000d1c                Timer_ReadCounter
 .text.Timer_ClearFIFO
                0x00000d40       0x1c .\CortexM3\ARM_GCC_473\Debug\ail.a(Timer.o)
                0x00000d40                Timer_ClearFIFO
 .text.DE_Write
                0x00000d5c       0x40 .\CortexM3\ARM_GCC_473\Debug\ail.a(DE.o)
                0x00000d5c                DE_Write
 .text.LED_1_Write
                0x00000d9c       0x44 .\CortexM3\ARM_GCC_473\Debug\ail.a(LED_1.o)
                0x00000d9c                LED_1_Write
 .text.LED_2_Write
                0x00000de0       0x44 .\CortexM3\ARM_GCC_473\Debug\ail.a(LED_2.o)
                0x00000de0                LED_2_Write
 .text.PWM_1_Start
                0x00000e24       0x2c .\CortexM3\ARM_GCC_473\Debug\ail.a(PWM_1.o)
                0x00000e24                PWM_1_Start
 .text.PWM_1_Init
                0x00000e50       0xc4 .\CortexM3\ARM_GCC_473\Debug\ail.a(PWM_1.o)
                0x00000e50                PWM_1_Init
 .text.PWM_1_Enable
                0x00000f14       0x28 .\CortexM3\ARM_GCC_473\Debug\ail.a(PWM_1.o)
                0x00000f14                PWM_1_Enable
 .text.PWM_1_WriteCounter
                0x00000f3c       0x20 .\CortexM3\ARM_GCC_473\Debug\ail.a(PWM_1.o)
                0x00000f3c                PWM_1_WriteCounter
 .text.PWM_1_ClearFIFO
                0x00000f5c       0x1c .\CortexM3\ARM_GCC_473\Debug\ail.a(PWM_1.o)
                0x00000f5c                PWM_1_ClearFIFO
 .text.PWM_1_WritePeriod
                0x00000f78       0x20 .\CortexM3\ARM_GCC_473\Debug\ail.a(PWM_1.o)
                0x00000f78                PWM_1_WritePeriod
 .text.PWM_1_WriteCompare1
                0x00000f98       0x20 .\CortexM3\ARM_GCC_473\Debug\ail.a(PWM_1.o)
                0x00000f98                PWM_1_WriteCompare1
 .text.PWM_1_WriteCompare2
                0x00000fb8       0x20 .\CortexM3\ARM_GCC_473\Debug\ail.a(PWM_1.o)
                0x00000fb8                PWM_1_WriteCompare2
 .text.PWM_1_SetInterruptMode
                0x00000fd8       0x20 .\CortexM3\ARM_GCC_473\Debug\ail.a(PWM_1.o)
                0x00000fd8                PWM_1_SetInterruptMode
 .text.PWM_1_ReadStatusRegister
                0x00000ff8       0x20 .\CortexM3\ARM_GCC_473\Debug\ail.a(PWM_1.o)
                0x00000ff8                PWM_1_ReadStatusRegister
 .text.PWM_1_ReadCapture
                0x00001018       0x18 .\CortexM3\ARM_GCC_473\Debug\ail.a(PWM_1.o)
                0x00001018                PWM_1_ReadCapture
 .text.isr_tc_StartEx
                0x00001030       0x28 .\CortexM3\ARM_GCC_473\Debug\ail.a(isr_tc.o)
                0x00001030                isr_tc_StartEx
 .text.isr_tc_SetVector
                0x00001058       0x28 .\CortexM3\ARM_GCC_473\Debug\ail.a(isr_tc.o)
                0x00001058                isr_tc_SetVector
 .text.isr_tc_SetPriority
                0x00001080       0x28 .\CortexM3\ARM_GCC_473\Debug\ail.a(isr_tc.o)
                0x00001080                isr_tc_SetPriority
 .text.isr_tc_Enable
                0x000010a8       0x18 .\CortexM3\ARM_GCC_473\Debug\ail.a(isr_tc.o)
                0x000010a8                isr_tc_Enable
 .text.isr_tc_Disable
                0x000010c0       0x18 .\CortexM3\ARM_GCC_473\Debug\ail.a(isr_tc.o)
                0x000010c0                isr_tc_Disable
 .text          0x000010d8      0x21c c:/program files/cypress/psoc creator/3.0/psoc creator/import/gnu_cs/arm/4.7.3/bin/../lib/gcc/arm-none-eabi/4.7.3/armv7-m\libgcc.a(_arm_addsubsf3.o)
                0x000010d8                __aeabi_frsub
                0x000010e0                __subsf3
                0x000010e0                __aeabi_fsub
                0x000010e4                __aeabi_fadd
                0x000010e4                __addsf3
                0x00001244                __aeabi_ui2f
                0x00001244                __floatunsisf
                0x0000124c                __aeabi_i2f
                0x0000124c                __floatsisf
                0x00001268                __aeabi_ul2f
                0x00001268                __floatundisf
                0x00001278                __aeabi_l2f
                0x00001278                __floatdisf
 .text          0x000012f4      0x2a0 c:/program files/cypress/psoc creator/3.0/psoc creator/import/gnu_cs/arm/4.7.3/bin/../lib/gcc/arm-none-eabi/4.7.3/armv7-m\libgcc.a(_arm_muldivsf3.o)
                0x000012f4                __mulsf3
                0x000012f4                __aeabi_fmul
                0x0000145c                __aeabi_fdiv
                0x0000145c                __divsf3
 .text          0x00001594       0x40 c:/program files/cypress/psoc creator/3.0/psoc creator/import/gnu_cs/arm/4.7.3/bin/../lib/gcc/arm-none-eabi/4.7.3/armv7-m\libgcc.a(_arm_fixunssfsi.o)
                0x00001594                __fixunssfsi
                0x00001594                __aeabi_f2uiz
 .text.__libc_init_array
                0x000015d4       0x4c c:/program files/cypress/psoc creator/3.0/psoc creator/import/gnu_cs/arm/4.7.3/bin/../lib/gcc/arm-none-eabi/4.7.3/../../../../arm-none-eabi/lib/armv7-m\libc_s.a(lib_a-init.o)
                0x000015d4                __libc_init_array
 .text.memcpy   0x00001620       0x12 c:/program files/cypress/psoc creator/3.0/psoc creator/import/gnu_cs/arm/4.7.3/bin/../lib/gcc/arm-none-eabi/4.7.3/../../../../arm-none-eabi/lib/armv7-m\libc_s.a(lib_a-memcpy.o)
                0x00001620                memcpy
 .text.memset   0x00001632       0x10 c:/program files/cypress/psoc creator/3.0/psoc creator/import/gnu_cs/arm/4.7.3/bin/../lib/gcc/arm-none-eabi/4.7.3/../../../../arm-none-eabi/lib/armv7-m\libc_s.a(lib_a-memset.o)
                0x00001632                memset
 *(.plt)
 *(.gnu.warning)
 *(.glue_7t)
 .glue_7t       0x00000000        0x0 linker stubs
 *(.glue_7)
 .glue_7        0x00000000        0x0 linker stubs
 *(.vfp11_veneer)
 .vfp11_veneer  0x00000000        0x0 linker stubs
 *(.bootloader)
 *(.ARM.extab* .gnu.linkonce.armextab.*)
 *(.gcc_except_table)

.v4_bx          0x00001644        0x0
 .v4_bx         0x00000000        0x0 linker stubs

.iplt           0x00001644        0x0
 .iplt          0x00000000        0x0 c:/program files/cypress/psoc creator/3.0/psoc creator/import/gnu_cs/arm/4.7.3/bin/../lib/gcc/arm-none-eabi/4.7.3/armv7-m/crtbegin.o

.eh_frame_hdr
 *(.eh_frame_hdr)

.eh_frame       0x00001644        0x4
 *(.eh_frame)
 .eh_frame      0x00001644        0x0 c:/program files/cypress/psoc creator/3.0/psoc creator/import/gnu_cs/arm/4.7.3/bin/../lib/gcc/arm-none-eabi/4.7.3/armv7-m/crtbegin.o
 .eh_frame      0x00001644        0x4 c:/program files/cypress/psoc creator/3.0/psoc creator/import/gnu_cs/arm/4.7.3/bin/../lib/gcc/arm-none-eabi/4.7.3/armv7-m/crtend.o
                0x00001648                PROVIDE (__exidx_start, .)

.ARM.exidx
 *(.ARM.exidx* .gnu.linkonce.armexidx.*)
                0x00001648                __exidx_end = .

.rodata         0x00001648       0x68
 *(.rodata .rodata.* .gnu.linkonce.r.*)
 .rodata        0x00001648       0x30 .\CortexM3\ARM_GCC_473\Debug\ail.a(cyfitter_cfg.o)
                0x00001678                . = ALIGN (0x4)
 *(.init)
 .init          0x00001678        0x4 c:/program files/cypress/psoc creator/3.0/psoc creator/import/gnu_cs/arm/4.7.3/bin/../lib/gcc/arm-none-eabi/4.7.3/armv7-m/crti.o
                0x00001678                _init
 .init          0x0000167c        0x8 c:/program files/cypress/psoc creator/3.0/psoc creator/import/gnu_cs/arm/4.7.3/bin/../lib/gcc/arm-none-eabi/4.7.3/armv7-m/crtn.o
                0x00001684                . = ALIGN (0x4)
                0x00001684                __preinit_array_start = .
 *(.preinit_array)
                0x00001684                __preinit_array_end = .
                0x00001684                . = ALIGN (0x4)
                0x00001684                __init_array_start = .
 *(SORT(.init_array.*))
 *(.init_array)
 .init_array    0x00001684        0x4 c:/program files/cypress/psoc creator/3.0/psoc creator/import/gnu_cs/arm/4.7.3/bin/../lib/gcc/arm-none-eabi/4.7.3/armv7-m/crtbegin.o
 .init_array    0x00001688        0x4 .\CortexM3\ARM_GCC_473\Debug\Cm3Start.o
                0x0000168c                __init_array_end = .
                0x0000168c                . = ALIGN (0x4)
 *(.fini)
 .fini          0x0000168c        0x4 c:/program files/cypress/psoc creator/3.0/psoc creator/import/gnu_cs/arm/4.7.3/bin/../lib/gcc/arm-none-eabi/4.7.3/armv7-m/crti.o
                0x0000168c                _fini
 .fini          0x00001690        0x8 c:/program files/cypress/psoc creator/3.0/psoc creator/import/gnu_cs/arm/4.7.3/bin/../lib/gcc/arm-none-eabi/4.7.3/armv7-m/crtn.o
                0x00001698                . = ALIGN (0x4)
                0x00001698                __fini_array_start = .
 *(.fini_array)
 .fini_array    0x00001698        0x4 c:/program files/cypress/psoc creator/3.0/psoc creator/import/gnu_cs/arm/4.7.3/bin/../lib/gcc/arm-none-eabi/4.7.3/armv7-m/crtbegin.o
 *(SORT(.fini_array.*))
                0x0000169c                __fini_array_end = .
                0x0000169c                . = ALIGN (0x4)
 *crtbegin.o(.ctors)
 *(EXCLUDE_FILE(*crtend.o) .ctors)
 *(SORT(.ctors.*))
 *crtend.o(.ctors)
                0x0000169c                . = ALIGN (0x4)
 *crtbegin.o(.dtors)
 *(EXCLUDE_FILE(*crtend.o) .dtors)
 *(SORT(.dtors.*))
 *crtend.o(.dtors)
                0x0000169c                . = ALIGN (0x4)
                0x0000169c                __cy_regions = .
                0x0000169c        0x4 LONG 0x16b0 __cy_region_init_ram
                0x000016a0        0x4 LONG 0x1fff8108 __cy_region_start_data
                0x000016a4        0x4 LONG 0x10 __cy_region_init_size_ram
                0x000016a8        0x4 LONG 0x30 __cy_region_zero_size_ram
                0x000016ac                __cy_regions_end = .
                0x000016b0                . = ALIGN (0x8)
 *fill*         0x000016ac        0x4 00
                0x000016b0                _etext = .

.ramvectors     0x1fff8000      0x100
                0x1fff8000                __cy_region_start_ram = .
 *(.ramvectors)
 .ramvectors    0x1fff8000      0x100 .\CortexM3\ARM_GCC_473\Debug\Cm3Start.o
                0x1fff8000                CyRamVectors

.noinit         0x1fff8100        0x5
 *(.noinit)
 .noinit        0x1fff8100        0x4 .\CortexM3\ARM_GCC_473\Debug\Cm3Start.o
 .noinit        0x1fff8104        0x1 .\CortexM3\ARM_GCC_473\Debug\ail.a(CyLib.o)
                0x1fff8104                CyResetStatus

.data           0x1fff8108       0x10 load address 0x000016b0
                0x1fff8108                __cy_region_start_data = .
 *(.jcr)
 .jcr           0x1fff8108        0x0 c:/program files/cypress/psoc creator/3.0/psoc creator/import/gnu_cs/arm/4.7.3/bin/../lib/gcc/arm-none-eabi/4.7.3/armv7-m/crtbegin.o
 .jcr           0x1fff8108        0x4 c:/program files/cypress/psoc creator/3.0/psoc creator/import/gnu_cs/arm/4.7.3/bin/../lib/gcc/arm-none-eabi/4.7.3/armv7-m/crtend.o
 *(.got.plt)
 *(.got)
 *(.shdata)
 *(.data .data.* .gnu.linkonce.d.*)
 .data          0x1fff810c        0xc .\CortexM3\ARM_GCC_473\Debug\main.o
                0x1fff810c                NEUTRAL_R
                0x1fff8110                NEUTRAL_L
                0x1fff8114                MAX
                0x1fff8118                . = ALIGN (0x8)
 *(.ram)
                0x1fff8118                _edata = .

.igot.plt       0x1fff8118        0x0 load address 0x000016c0
 .igot.plt      0x00000000        0x0 c:/program files/cypress/psoc creator/3.0/psoc creator/import/gnu_cs/arm/4.7.3/bin/../lib/gcc/arm-none-eabi/4.7.3/armv7-m/crtbegin.o

.bss            0x1fff8118       0x30 load address 0x000016c0
                0x1fff8118                PROVIDE (__bss_start__, .)
 *(.shbss)
 *(.bss .bss.* .gnu.linkonce.b.*)
 .bss           0x1fff8118       0x1c c:/program files/cypress/psoc creator/3.0/psoc creator/import/gnu_cs/arm/4.7.3/bin/../lib/gcc/arm-none-eabi/4.7.3/armv7-m/crtbegin.o
 .bss           0x1fff8134        0x4 .\CortexM3\ARM_GCC_473\Debug\main.o
                0x1fff8134                raw
 .bss           0x1fff8138        0x2 .\CortexM3\ARM_GCC_473\Debug\ail.a(UART.o)
                0x1fff8138                UART_initVar
 .bss           0x1fff813a        0x1 .\CortexM3\ARM_GCC_473\Debug\ail.a(Timer.o)
                0x1fff813a                Timer_initVar
 .bss           0x1fff813b        0x1 .\CortexM3\ARM_GCC_473\Debug\ail.a(PWM_1.o)
                0x1fff813b                PWM_1_initVar
 *(COMMON)
 COMMON         0x1fff813c        0xa .\CortexM3\ARM_GCC_473\Debug\main.o
                0x1fff813c                aileron_buffer
                0x1fff8140                pak
                0x1fff8148                . = ALIGN (0x8)
 *fill*         0x1fff8146        0x2 00
 *(.ram.b)
                0x1fff8148                _end = .
                0x1fff8148                __end = .
                0x1fff8148                PROVIDE (end, .)
                0x1fff8148                PROVIDE (__bss_end__, .)
                0x000016b0                __cy_region_init_ram = LOADADDR (.data)
                0x00000010                __cy_region_init_size_ram = (_edata - ADDR (.data))
                0x00000030                __cy_region_zero_size_ram = (_end - _edata)

.heap           0x1fff8148     0x1000 load address 0x000016c0
                0x1fff8148                . = _end
                0x1fff9148                . = (. + 0x1000)
 *fill*         0x1fff8148     0x1000 00
                0x1fff9148                __cy_heap_limit = .

.stack          0x20004000     0x4000
                0x20004000                __cy_stack_limit = .
                0x20008000                . = (. + 0x4000)
 *fill*         0x20004000     0x4000 00
                0x00000001                ASSERT ((__cy_stack_limit >= __cy_heap_limit), region RAM overflowed with stack)

.cyloadermeta
 *(.cyloadermeta)

.cyloadablemeta
 *(.cyloadablemeta)

.cyconfigecc    0x80000000      0x620
 *(.cyconfigecc)
 .cyconfigecc   0x80000000      0x620 .\CortexM3\ARM_GCC_473\Debug\cymetadata.o
                0x80000000                cy_meta_configecc

.cycustnvl      0x90000000        0x4
 *(.cycustnvl)
 .cycustnvl     0x90000000        0x4 .\CortexM3\ARM_GCC_473\Debug\cymetadata.o
                0x90000000                cy_meta_custnvl

.cywolatch      0x90100000        0x4
 *(.cywolatch)
 .cywolatch     0x90100000        0x4 .\CortexM3\ARM_GCC_473\Debug\cymetadata.o
                0x90100000                cy_meta_wonvl

.cyeeprom       0x90200000        0x0
 *(.cyeeprom)
                0x00000001                ASSERT ((. <= ((0x90200000 + ee_offset) + ee_size)), .cyeeprom data will not fit in EEPROM)

.cyflashprotect
                0x90400000      0x100
 *(.cyflashprotect)
 .cyflashprotect
                0x90400000      0x100 .\CortexM3\ARM_GCC_473\Debug\cymetadata.o
                0x90400000                cy_meta_flashprotect

.cymeta         0x90500000        0xc
 *(.cymeta)
 .cymeta        0x90500000        0xc .\CortexM3\ARM_GCC_473\Debug\cymetadata.o
                0x90500000                cy_metadata

.rel.dyn        0x000016c0        0x0 load address 0x9050000c
 .rel.iplt      0x00000000        0x0 c:/program files/cypress/psoc creator/3.0/psoc creator/import/gnu_cs/arm/4.7.3/bin/../lib/gcc/arm-none-eabi/4.7.3/armv7-m/crtbegin.o

.stab
 *(.stab)

.stabstr
 *(.stabstr)

.debug
 *(.debug)

.line
 *(.line)

.debug_srcinfo
 *(.debug_srcinfo)

.debug_sfnames
 *(.debug_sfnames)

.debug_aranges  0x00000000      0x810
 *(.debug_aranges)
 .debug_aranges
                0x00000000       0x60 .\CortexM3\ARM_GCC_473\Debug\main.o
 .debug_aranges
                0x00000060       0x18 .\CortexM3\ARM_GCC_473\Debug\cymetadata.o
 .debug_aranges
                0x00000078       0x40 .\CortexM3\ARM_GCC_473\Debug\Cm3Start.o
 .debug_aranges
                0x000000b8       0x60 .\CortexM3\ARM_GCC_473\Debug\ail.a(cyfitter_cfg.o)
 .debug_aranges
                0x00000118       0x20 .\CortexM3\ARM_GCC_473\Debug\ail.a(CyBootAsmGnu.o)
 .debug_aranges
                0x00000138      0x218 .\CortexM3\ARM_GCC_473\Debug\ail.a(CyLib.o)
 .debug_aranges
                0x00000350       0x90 .\CortexM3\ARM_GCC_473\Debug\ail.a(cyPm.o)
 .debug_aranges
                0x000003e0       0xf0 .\CortexM3\ARM_GCC_473\Debug\ail.a(UART.o)
 .debug_aranges
                0x000004d0       0x90 .\CortexM3\ARM_GCC_473\Debug\ail.a(Timer.o)
 .debug_aranges
                0x00000560       0x38 .\CortexM3\ARM_GCC_473\Debug\ail.a(DE.o)
 .debug_aranges
                0x00000598       0x38 .\CortexM3\ARM_GCC_473\Debug\ail.a(LED_1.o)
 .debug_aranges
                0x000005d0       0x38 .\CortexM3\ARM_GCC_473\Debug\ail.a(LED_2.o)
 .debug_aranges
                0x00000608       0xa8 .\CortexM3\ARM_GCC_473\Debug\ail.a(PWM_1.o)
 .debug_aranges
                0x000006b0       0x80 .\CortexM3\ARM_GCC_473\Debug\ail.a(isr_tc.o)
 .debug_aranges
                0x00000730       0x78 .\CortexM3\ARM_GCC_473\Debug\ail.a(CyFlash.o)
 .debug_aranges
                0x000007a8       0x68 .\CortexM3\ARM_GCC_473\Debug\ail.a(CySpc.o)

.debug_pubnames
 *(.debug_pubnames)

.debug_info     0x00000000     0x36fc
 *(.debug_info .gnu.linkonce.wi.*)
 .debug_info    0x00000000      0x330 .\CortexM3\ARM_GCC_473\Debug\main.o
 .debug_info    0x00000330      0x141 .\CortexM3\ARM_GCC_473\Debug\cymetadata.o
 .debug_info    0x00000471      0x2ea .\CortexM3\ARM_GCC_473\Debug\Cm3Start.o
 .debug_info    0x0000075b      0x3c0 .\CortexM3\ARM_GCC_473\Debug\ail.a(cyfitter_cfg.o)
 .debug_info    0x00000b1b       0x90 .\CortexM3\ARM_GCC_473\Debug\ail.a(CyBootAsmGnu.o)
 .debug_info    0x00000bab      0xcd7 .\CortexM3\ARM_GCC_473\Debug\ail.a(CyLib.o)
 .debug_info    0x00001882      0x5c3 .\CortexM3\ARM_GCC_473\Debug\ail.a(cyPm.o)
 .debug_info    0x00001e45      0x58b .\CortexM3\ARM_GCC_473\Debug\ail.a(UART.o)
 .debug_info    0x000023d0      0x2a0 .\CortexM3\ARM_GCC_473\Debug\ail.a(Timer.o)
 .debug_info    0x00002670      0x134 .\CortexM3\ARM_GCC_473\Debug\ail.a(DE.o)
 .debug_info    0x000027a4      0x134 .\CortexM3\ARM_GCC_473\Debug\ail.a(LED_1.o)
 .debug_info    0x000028d8      0x134 .\CortexM3\ARM_GCC_473\Debug\ail.a(LED_2.o)
 .debug_info    0x00002a0c      0x34b .\CortexM3\ARM_GCC_473\Debug\ail.a(PWM_1.o)
 .debug_info    0x00002d57      0x278 .\CortexM3\ARM_GCC_473\Debug\ail.a(isr_tc.o)
 .debug_info    0x00002fcf      0x354 .\CortexM3\ARM_GCC_473\Debug\ail.a(CyFlash.o)
 .debug_info    0x00003323      0x3d9 .\CortexM3\ARM_GCC_473\Debug\ail.a(CySpc.o)

.debug_abbrev   0x00000000     0x1207
 *(.debug_abbrev)
 .debug_abbrev  0x00000000      0x18b .\CortexM3\ARM_GCC_473\Debug\main.o
 .debug_abbrev  0x0000018b       0x77 .\CortexM3\ARM_GCC_473\Debug\cymetadata.o
 .debug_abbrev  0x00000202      0x175 .\CortexM3\ARM_GCC_473\Debug\Cm3Start.o
 .debug_abbrev  0x00000377      0x19f .\CortexM3\ARM_GCC_473\Debug\ail.a(cyfitter_cfg.o)
 .debug_abbrev  0x00000516       0x14 .\CortexM3\ARM_GCC_473\Debug\ail.a(CyBootAsmGnu.o)
 .debug_abbrev  0x0000052a      0x207 .\CortexM3\ARM_GCC_473\Debug\ail.a(CyLib.o)
 .debug_abbrev  0x00000731      0x170 .\CortexM3\ARM_GCC_473\Debug\ail.a(cyPm.o)
 .debug_abbrev  0x000008a1      0x165 .\CortexM3\ARM_GCC_473\Debug\ail.a(UART.o)
 .debug_abbrev  0x00000a06      0x11d .\CortexM3\ARM_GCC_473\Debug\ail.a(Timer.o)
 .debug_abbrev  0x00000b23       0x92 .\CortexM3\ARM_GCC_473\Debug\ail.a(DE.o)
 .debug_abbrev  0x00000bb5       0x92 .\CortexM3\ARM_GCC_473\Debug\ail.a(LED_1.o)
 .debug_abbrev  0x00000c47       0x92 .\CortexM3\ARM_GCC_473\Debug\ail.a(LED_2.o)
 .debug_abbrev  0x00000cd9      0x130 .\CortexM3\ARM_GCC_473\Debug\ail.a(PWM_1.o)
 .debug_abbrev  0x00000e09      0x12d .\CortexM3\ARM_GCC_473\Debug\ail.a(isr_tc.o)
 .debug_abbrev  0x00000f36      0x172 .\CortexM3\ARM_GCC_473\Debug\ail.a(CyFlash.o)
 .debug_abbrev  0x000010a8      0x15f .\CortexM3\ARM_GCC_473\Debug\ail.a(CySpc.o)

.debug_line     0x00000000     0x1d6e
 *(.debug_line)
 .debug_line    0x00000000      0x230 .\CortexM3\ARM_GCC_473\Debug\main.o
 .debug_line    0x00000230       0x53 .\CortexM3\ARM_GCC_473\Debug\cymetadata.o
 .debug_line    0x00000283      0x1aa .\CortexM3\ARM_GCC_473\Debug\Cm3Start.o
 .debug_line    0x0000042d      0x1f3 .\CortexM3\ARM_GCC_473\Debug\ail.a(cyfitter_cfg.o)
 .debug_line    0x00000620       0x68 .\CortexM3\ARM_GCC_473\Debug\ail.a(CyBootAsmGnu.o)
 .debug_line    0x00000688      0x73b .\CortexM3\ARM_GCC_473\Debug\ail.a(CyLib.o)
 .debug_line    0x00000dc3      0x347 .\CortexM3\ARM_GCC_473\Debug\ail.a(cyPm.o)
 .debug_line    0x0000110a      0x2ef .\CortexM3\ARM_GCC_473\Debug\ail.a(UART.o)
 .debug_line    0x000013f9      0x174 .\CortexM3\ARM_GCC_473\Debug\ail.a(Timer.o)
 .debug_line    0x0000156d       0x93 .\CortexM3\ARM_GCC_473\Debug\ail.a(DE.o)
 .debug_line    0x00001600       0x96 .\CortexM3\ARM_GCC_473\Debug\ail.a(LED_1.o)
 .debug_line    0x00001696       0x96 .\CortexM3\ARM_GCC_473\Debug\ail.a(LED_2.o)
 .debug_line    0x0000172c      0x1b3 .\CortexM3\ARM_GCC_473\Debug\ail.a(PWM_1.o)
 .debug_line    0x000018df      0x141 .\CortexM3\ARM_GCC_473\Debug\ail.a(isr_tc.o)
 .debug_line    0x00001a20      0x1a7 .\CortexM3\ARM_GCC_473\Debug\ail.a(CyFlash.o)
 .debug_line    0x00001bc7      0x1a7 .\CortexM3\ARM_GCC_473\Debug\ail.a(CySpc.o)

.debug_frame    0x00000000     0x19c0
 *(.debug_frame)
 .debug_frame   0x00000000      0x124 .\CortexM3\ARM_GCC_473\Debug\main.o
 .debug_frame   0x00000124       0xa4 .\CortexM3\ARM_GCC_473\Debug\Cm3Start.o
 .debug_frame   0x000001c8      0x120 .\CortexM3\ARM_GCC_473\Debug\ail.a(cyfitter_cfg.o)
 .debug_frame   0x000002e8      0x778 .\CortexM3\ARM_GCC_473\Debug\ail.a(CyLib.o)
 .debug_frame   0x00000a60      0x1d0 .\CortexM3\ARM_GCC_473\Debug\ail.a(cyPm.o)
 .debug_frame   0x00000c30      0x328 .\CortexM3\ARM_GCC_473\Debug\ail.a(UART.o)
 .debug_frame   0x00000f58      0x1b8 .\CortexM3\ARM_GCC_473\Debug\ail.a(Timer.o)
 .debug_frame   0x00001110       0x80 .\CortexM3\ARM_GCC_473\Debug\ail.a(DE.o)
 .debug_frame   0x00001190       0x80 .\CortexM3\ARM_GCC_473\Debug\ail.a(LED_1.o)
 .debug_frame   0x00001210       0x80 .\CortexM3\ARM_GCC_473\Debug\ail.a(LED_2.o)
 .debug_frame   0x00001290      0x20c .\CortexM3\ARM_GCC_473\Debug\ail.a(PWM_1.o)
 .debug_frame   0x0000149c      0x180 .\CortexM3\ARM_GCC_473\Debug\ail.a(isr_tc.o)
 .debug_frame   0x0000161c      0x178 .\CortexM3\ARM_GCC_473\Debug\ail.a(CyFlash.o)
 .debug_frame   0x00001794      0x13c .\CortexM3\ARM_GCC_473\Debug\ail.a(CySpc.o)
 .debug_frame   0x000018d0       0x28 c:/program files/cypress/psoc creator/3.0/psoc creator/import/gnu_cs/arm/4.7.3/bin/../lib/gcc/arm-none-eabi/4.7.3/../../../../arm-none-eabi/lib/armv7-m\libc_s.a(lib_a-__atexit2.o)
 .debug_frame   0x000018f8       0x28 c:/program files/cypress/psoc creator/3.0/psoc creator/import/gnu_cs/arm/4.7.3/bin/../lib/gcc/arm-none-eabi/4.7.3/../../../../arm-none-eabi/lib/armv7-m\libc_s.a(lib_a-exit.o)
 .debug_frame   0x00001920       0x2c c:/program files/cypress/psoc creator/3.0/psoc creator/import/gnu_cs/arm/4.7.3/bin/../lib/gcc/arm-none-eabi/4.7.3/../../../../arm-none-eabi/lib/armv7-m\libc_s.a(lib_a-fini.o)
 .debug_frame   0x0000194c       0x2c c:/program files/cypress/psoc creator/3.0/psoc creator/import/gnu_cs/arm/4.7.3/bin/../lib/gcc/arm-none-eabi/4.7.3/../../../../arm-none-eabi/lib/armv7-m\libc_s.a(lib_a-init.o)
 .debug_frame   0x00001978       0x28 c:/program files/cypress/psoc creator/3.0/psoc creator/import/gnu_cs/arm/4.7.3/bin/../lib/gcc/arm-none-eabi/4.7.3/../../../../arm-none-eabi/lib/armv7-m\libc_s.a(lib_a-memcpy.o)
 .debug_frame   0x000019a0       0x20 c:/program files/cypress/psoc creator/3.0/psoc creator/import/gnu_cs/arm/4.7.3/bin/../lib/gcc/arm-none-eabi/4.7.3/../../../../arm-none-eabi/lib/armv7-m\libc_s.a(lib_a-memset.o)

.debug_str      0x00000000     0x183a
 *(.debug_str)
 .debug_str     0x00000000      0x1e2 .\CortexM3\ARM_GCC_473\Debug\main.o
                                0x228 (size before relaxing)
 .debug_str     0x000001e2       0x77 .\CortexM3\ARM_GCC_473\Debug\cymetadata.o
                                0x1a5 (size before relaxing)
 .debug_str     0x00000259      0x119 .\CortexM3\ARM_GCC_473\Debug\Cm3Start.o
                                0x261 (size before relaxing)
 .debug_str     0x00000372      0x15e .\CortexM3\ARM_GCC_473\Debug\ail.a(cyfitter_cfg.o)
                                0x2b2 (size before relaxing)
 .debug_str     0x000004d0      0x633 .\CortexM3\ARM_GCC_473\Debug\ail.a(CyLib.o)
                                0x7c7 (size before relaxing)
 .debug_str     0x00000b03      0x371 .\CortexM3\ARM_GCC_473\Debug\ail.a(cyPm.o)
                                0x4d6 (size before relaxing)
 .debug_str     0x00000e74      0x284 .\CortexM3\ARM_GCC_473\Debug\ail.a(UART.o)
                                0x3d2 (size before relaxing)
 .debug_str     0x000010f8      0x16e .\CortexM3\ARM_GCC_473\Debug\ail.a(Timer.o)
                                0x2bd (size before relaxing)
 .debug_str     0x00001266       0x59 .\CortexM3\ARM_GCC_473\Debug\ail.a(DE.o)
                                0x18e (size before relaxing)
 .debug_str     0x000012bf       0x5d .\CortexM3\ARM_GCC_473\Debug\ail.a(LED_1.o)
                                0x19d (size before relaxing)
 .debug_str     0x0000131c       0x5d .\CortexM3\ARM_GCC_473\Debug\ail.a(LED_2.o)
                                0x19d (size before relaxing)
 .debug_str     0x00001379      0x1a4 .\CortexM3\ARM_GCC_473\Debug\ail.a(PWM_1.o)
                                0x309 (size before relaxing)
 .debug_str     0x0000151d       0xf6 .\CortexM3\ARM_GCC_473\Debug\ail.a(isr_tc.o)
                                0x263 (size before relaxing)
 .debug_str     0x00001613      0x129 .\CortexM3\ARM_GCC_473\Debug\ail.a(CyFlash.o)
                                0x29c (size before relaxing)
 .debug_str     0x0000173c       0xfe .\CortexM3\ARM_GCC_473\Debug\ail.a(CySpc.o)
                                0x278 (size before relaxing)

.debug_loc      0x00000000     0x29e0
 *(.debug_loc)
 .debug_loc     0x00000000      0x1c8 .\CortexM3\ARM_GCC_473\Debug\main.o
 .debug_loc     0x000001c8      0x100 .\CortexM3\ARM_GCC_473\Debug\Cm3Start.o
 .debug_loc     0x000002c8      0x1f8 .\CortexM3\ARM_GCC_473\Debug\ail.a(cyfitter_cfg.o)
 .debug_loc     0x000004c0      0xce0 .\CortexM3\ARM_GCC_473\Debug\ail.a(CyLib.o)
 .debug_loc     0x000011a0      0x2e8 .\CortexM3\ARM_GCC_473\Debug\ail.a(cyPm.o)
 .debug_loc     0x00001488      0x5ac .\CortexM3\ARM_GCC_473\Debug\ail.a(UART.o)
 .debug_loc     0x00001a34      0x2d0 .\CortexM3\ARM_GCC_473\Debug\ail.a(Timer.o)
 .debug_loc     0x00001d04       0xc8 .\CortexM3\ARM_GCC_473\Debug\ail.a(DE.o)
 .debug_loc     0x00001dcc       0xc8 .\CortexM3\ARM_GCC_473\Debug\ail.a(LED_1.o)
 .debug_loc     0x00001e94       0xc8 .\CortexM3\ARM_GCC_473\Debug\ail.a(LED_2.o)
 .debug_loc     0x00001f5c      0x384 .\CortexM3\ARM_GCC_473\Debug\ail.a(PWM_1.o)
 .debug_loc     0x000022e0      0x278 .\CortexM3\ARM_GCC_473\Debug\ail.a(isr_tc.o)
 .debug_loc     0x00002558      0x258 .\CortexM3\ARM_GCC_473\Debug\ail.a(CyFlash.o)
 .debug_loc     0x000027b0      0x230 .\CortexM3\ARM_GCC_473\Debug\ail.a(CySpc.o)

.debug_macinfo
 *(.debug_macinfo)

.debug_ranges   0x00000000      0x6f8
 *(.debug_ranges)
 .debug_ranges  0x00000000       0x50 .\CortexM3\ARM_GCC_473\Debug\main.o
 .debug_ranges  0x00000050       0x30 .\CortexM3\ARM_GCC_473\Debug\Cm3Start.o
 .debug_ranges  0x00000080       0x50 .\CortexM3\ARM_GCC_473\Debug\ail.a(cyfitter_cfg.o)
 .debug_ranges  0x000000d0      0x208 .\CortexM3\ARM_GCC_473\Debug\ail.a(CyLib.o)
 .debug_ranges  0x000002d8       0x80 .\CortexM3\ARM_GCC_473\Debug\ail.a(cyPm.o)
 .debug_ranges  0x00000358       0xe0 .\CortexM3\ARM_GCC_473\Debug\ail.a(UART.o)
 .debug_ranges  0x00000438       0x80 .\CortexM3\ARM_GCC_473\Debug\ail.a(Timer.o)
 .debug_ranges  0x000004b8       0x28 .\CortexM3\ARM_GCC_473\Debug\ail.a(DE.o)
 .debug_ranges  0x000004e0       0x28 .\CortexM3\ARM_GCC_473\Debug\ail.a(LED_1.o)
 .debug_ranges  0x00000508       0x28 .\CortexM3\ARM_GCC_473\Debug\ail.a(LED_2.o)
 .debug_ranges  0x00000530       0x98 .\CortexM3\ARM_GCC_473\Debug\ail.a(PWM_1.o)
 .debug_ranges  0x000005c8       0x70 .\CortexM3\ARM_GCC_473\Debug\ail.a(isr_tc.o)
 .debug_ranges  0x00000638       0x68 .\CortexM3\ARM_GCC_473\Debug\ail.a(CyFlash.o)
 .debug_ranges  0x000006a0       0x58 .\CortexM3\ARM_GCC_473\Debug\ail.a(CySpc.o)

.comment        0x00000000       0x70
 .comment       0x00000000       0x70 .\CortexM3\ARM_GCC_473\Debug\main.o
                                 0x71 (size before relaxing)
 .comment       0x00000000       0x71 .\CortexM3\ARM_GCC_473\Debug\cymetadata.o
 .comment       0x00000000       0x71 .\CortexM3\ARM_GCC_473\Debug\Cm3Start.o
 .comment       0x00000000       0x71 .\CortexM3\ARM_GCC_473\Debug\ail.a(cyfitter_cfg.o)
 .comment       0x00000000       0x71 .\CortexM3\ARM_GCC_473\Debug\ail.a(CyLib.o)
 .comment       0x00000000       0x71 .\CortexM3\ARM_GCC_473\Debug\ail.a(cyPm.o)
 .comment       0x00000000       0x71 .\CortexM3\ARM_GCC_473\Debug\ail.a(UART.o)
 .comment       0x00000000       0x71 .\CortexM3\ARM_GCC_473\Debug\ail.a(Timer.o)
 .comment       0x00000000       0x71 .\CortexM3\ARM_GCC_473\Debug\ail.a(DE.o)
 .comment       0x00000000       0x71 .\CortexM3\ARM_GCC_473\Debug\ail.a(LED_1.o)
 .comment       0x00000000       0x71 .\CortexM3\ARM_GCC_473\Debug\ail.a(LED_2.o)
 .comment       0x00000000       0x71 .\CortexM3\ARM_GCC_473\Debug\ail.a(PWM_1.o)
 .comment       0x00000000       0x71 .\CortexM3\ARM_GCC_473\Debug\ail.a(isr_tc.o)
 .comment       0x00000000       0x71 .\CortexM3\ARM_GCC_473\Debug\ail.a(CyFlash.o)
 .comment       0x00000000       0x71 .\CortexM3\ARM_GCC_473\Debug\ail.a(CySpc.o)

.debug_weaknames
 *(.debug_weaknames)

.debug_funcnames
 *(.debug_funcnames)

.debug_typenames
 *(.debug_typenames)

.debug_varnames
 *(.debug_varnames)

.note.gnu.arm.ident
 *(.note.gnu.arm.ident)

.ARM.attributes
                0x00000000       0x29
 *(.ARM.attributes)
 .ARM.attributes
                0x00000000       0x1d c:/program files/cypress/psoc creator/3.0/psoc creator/import/gnu_cs/arm/4.7.3/bin/../lib/gcc/arm-none-eabi/4.7.3/armv7-m/crti.o
 .ARM.attributes
                0x0000001d       0x2d c:/program files/cypress/psoc creator/3.0/psoc creator/import/gnu_cs/arm/4.7.3/bin/../lib/gcc/arm-none-eabi/4.7.3/armv7-m/crtbegin.o
 .ARM.attributes
                0x0000004a       0x1b c:/program files/cypress/psoc creator/3.0/psoc creator/import/gnu_cs/arm/4.7.3/bin/../lib/gcc/arm-none-eabi/4.7.3/../../../../arm-none-eabi/lib/armv7-m/crt0.o
 .ARM.attributes
                0x00000065       0x33 .\CortexM3\ARM_GCC_473\Debug\main.o
 .ARM.attributes
                0x00000098       0x33 .\CortexM3\ARM_GCC_473\Debug\cymetadata.o
 .ARM.attributes
                0x000000cb       0x33 .\CortexM3\ARM_GCC_473\Debug\Cm3Start.o
 .ARM.attributes
                0x000000fe       0x33 .\CortexM3\ARM_GCC_473\Debug\ail.a(cyfitter_cfg.o)
 .ARM.attributes
                0x00000131       0x21 .\CortexM3\ARM_GCC_473\Debug\ail.a(CyBootAsmGnu.o)
 .ARM.attributes
                0x00000152       0x33 .\CortexM3\ARM_GCC_473\Debug\ail.a(CyLib.o)
 .ARM.attributes
                0x00000185       0x33 .\CortexM3\ARM_GCC_473\Debug\ail.a(cyPm.o)
 .ARM.attributes
                0x000001b8       0x33 .\CortexM3\ARM_GCC_473\Debug\ail.a(UART.o)
 .ARM.attributes
                0x000001eb       0x33 .\CortexM3\ARM_GCC_473\Debug\ail.a(Timer.o)
 .ARM.attributes
                0x0000021e       0x33 .\CortexM3\ARM_GCC_473\Debug\ail.a(DE.o)
 .ARM.attributes
                0x00000251       0x33 .\CortexM3\ARM_GCC_473\Debug\ail.a(LED_1.o)
 .ARM.attributes
                0x00000284       0x33 .\CortexM3\ARM_GCC_473\Debug\ail.a(LED_2.o)
 .ARM.attributes
                0x000002b7       0x33 .\CortexM3\ARM_GCC_473\Debug\ail.a(PWM_1.o)
 .ARM.attributes
                0x000002ea       0x33 .\CortexM3\ARM_GCC_473\Debug\ail.a(isr_tc.o)
 .ARM.attributes
                0x0000031d       0x33 .\CortexM3\ARM_GCC_473\Debug\ail.a(CyFlash.o)
 .ARM.attributes
                0x00000350       0x33 .\CortexM3\ARM_GCC_473\Debug\ail.a(CySpc.o)
 .ARM.attributes
                0x00000383       0x1d c:/program files/cypress/psoc creator/3.0/psoc creator/import/gnu_cs/arm/4.7.3/bin/../lib/gcc/arm-none-eabi/4.7.3/armv7-m\libgcc.a(_arm_addsubsf3.o)
 .ARM.attributes
                0x000003a0       0x1d c:/program files/cypress/psoc creator/3.0/psoc creator/import/gnu_cs/arm/4.7.3/bin/../lib/gcc/arm-none-eabi/4.7.3/armv7-m\libgcc.a(_arm_muldivsf3.o)
 .ARM.attributes
                0x000003bd       0x1d c:/program files/cypress/psoc creator/3.0/psoc creator/import/gnu_cs/arm/4.7.3/bin/../lib/gcc/arm-none-eabi/4.7.3/armv7-m\libgcc.a(_arm_fixunssfsi.o)
 .ARM.attributes
                0x000003da       0x2d c:/program files/cypress/psoc creator/3.0/psoc creator/import/gnu_cs/arm/4.7.3/bin/../lib/gcc/arm-none-eabi/4.7.3/../../../../arm-none-eabi/lib/armv7-m\libc_s.a(lib_a-__atexit2.o)
 .ARM.attributes
                0x00000407       0x2d c:/program files/cypress/psoc creator/3.0/psoc creator/import/gnu_cs/arm/4.7.3/bin/../lib/gcc/arm-none-eabi/4.7.3/../../../../arm-none-eabi/lib/armv7-m\libc_s.a(lib_a-exit.o)
 .ARM.attributes
                0x00000434       0x2d c:/program files/cypress/psoc creator/3.0/psoc creator/import/gnu_cs/arm/4.7.3/bin/../lib/gcc/arm-none-eabi/4.7.3/../../../../arm-none-eabi/lib/armv7-m\libc_s.a(lib_a-fini.o)
 .ARM.attributes
                0x00000461       0x2d c:/program files/cypress/psoc creator/3.0/psoc creator/import/gnu_cs/arm/4.7.3/bin/../lib/gcc/arm-none-eabi/4.7.3/../../../../arm-none-eabi/lib/armv7-m\libc_s.a(lib_a-impure.o)
 .ARM.attributes
                0x0000048e       0x2d c:/program files/cypress/psoc creator/3.0/psoc creator/import/gnu_cs/arm/4.7.3/bin/../lib/gcc/arm-none-eabi/4.7.3/../../../../arm-none-eabi/lib/armv7-m\libc_s.a(lib_a-init.o)
 .ARM.attributes
                0x000004bb       0x2d c:/program files/cypress/psoc creator/3.0/psoc creator/import/gnu_cs/arm/4.7.3/bin/../lib/gcc/arm-none-eabi/4.7.3/../../../../arm-none-eabi/lib/armv7-m\libc_s.a(lib_a-memcpy.o)
 .ARM.attributes
                0x000004e8       0x2d c:/program files/cypress/psoc creator/3.0/psoc creator/import/gnu_cs/arm/4.7.3/bin/../lib/gcc/arm-none-eabi/4.7.3/../../../../arm-none-eabi/lib/armv7-m\libc_s.a(lib_a-memset.o)
 .ARM.attributes
                0x00000515       0x2d c:/program files/cypress/psoc creator/3.0/psoc creator/import/gnu_cs/arm/4.7.3/bin/../lib/gcc/arm-none-eabi/4.7.3/armv7-m/crtend.o
 .ARM.attributes
                0x00000542       0x1d c:/program files/cypress/psoc creator/3.0/psoc creator/import/gnu_cs/arm/4.7.3/bin/../lib/gcc/arm-none-eabi/4.7.3/armv7-m/crtn.o

/DISCARD/
 *(.note.GNU-stack)
OUTPUT(.\CortexM3\ARM_GCC_473\Debug\ail.elf elf32-littlearm)
