Archive member included because of file (symbol)

.\CortexM3\ARM_GCC_473\Debug\ail14_0_Copy_01.a(cyfitter_cfg.o)
                              .\CortexM3\ARM_GCC_473\Debug\Cm3Start.o (cyfitter_cfg)
.\CortexM3\ARM_GCC_473\Debug\ail14_0_Copy_01.a(CyBootAsmGnu.o)
                              .\CortexM3\ARM_GCC_473\Debug\ail14_0_Copy_01.a(cyfitter_cfg.o) (CyDelayCycles)
.\CortexM3\ARM_GCC_473\Debug\ail14_0_Copy_01.a(CyLib.o)
                              .\CortexM3\ARM_GCC_473\Debug\Cm3Start.o (CyResetStatus)
.\CortexM3\ARM_GCC_473\Debug\ail14_0_Copy_01.a(cyPm.o)
                              .\CortexM3\ARM_GCC_473\Debug\ail14_0_Copy_01.a(CyLib.o) (CyPmReadStatus)
.\CortexM3\ARM_GCC_473\Debug\ail14_0_Copy_01.a(UART.o)
                              .\CortexM3\ARM_GCC_473\Debug\main.o (UART_Start)
.\CortexM3\ARM_GCC_473\Debug\ail14_0_Copy_01.a(Timer.o)
                              .\CortexM3\ARM_GCC_473\Debug\main.o (Timer_WriteCounter)
.\CortexM3\ARM_GCC_473\Debug\ail14_0_Copy_01.a(DE.o)
                              .\CortexM3\ARM_GCC_473\Debug\main.o (DE_Write)
.\CortexM3\ARM_GCC_473\Debug\ail14_0_Copy_01.a(LED_1.o)
                              .\CortexM3\ARM_GCC_473\Debug\main.o (LED_1_Write)
.\CortexM3\ARM_GCC_473\Debug\ail14_0_Copy_01.a(LED_2.o)
                              .\CortexM3\ARM_GCC_473\Debug\main.o (LED_2_Write)
.\CortexM3\ARM_GCC_473\Debug\ail14_0_Copy_01.a(PWM_1.o)
                              .\CortexM3\ARM_GCC_473\Debug\main.o (PWM_1_Start)
.\CortexM3\ARM_GCC_473\Debug\ail14_0_Copy_01.a(isr_tc.o)
                              .\CortexM3\ARM_GCC_473\Debug\main.o (isr_tc_StartEx)
.\CortexM3\ARM_GCC_473\Debug\ail14_0_Copy_01.a(CyFlash.o)
                              .\CortexM3\ARM_GCC_473\Debug\ail14_0_Copy_01.a(cyPm.o) (CyFlash_SetWaitCycles)
.\CortexM3\ARM_GCC_473\Debug\ail14_0_Copy_01.a(CySpc.o)
                              .\CortexM3\ARM_GCC_473\Debug\ail14_0_Copy_01.a(CyFlash.o) (CySpcStart)
c:/program files/cypress/psoc creator/3.0/psoc creator/import/gnu_cs/arm/4.7.3/bin/../lib/gcc/arm-none-eabi/4.7.3/../../../../arm-none-eabi/lib/armv7-m\libc_s.a(lib_a-__atexit2.o)
                              c:/program files/cypress/psoc creator/3.0/psoc creator/import/gnu_cs/arm/4.7.3/bin/../lib/gcc/arm-none-eabi/4.7.3/../../../../arm-none-eabi/lib/armv7-m/crt0.o (__register_exitproc)
c:/program files/cypress/psoc creator/3.0/psoc creator/import/gnu_cs/arm/4.7.3/bin/../lib/gcc/arm-none-eabi/4.7.3/../../../../arm-none-eabi/lib/armv7-m\libc_s.a(lib_a-exit.o)
                              c:/program files/cypress/psoc creator/3.0/psoc creator/import/gnu_cs/arm/4.7.3/bin/../lib/gcc/arm-none-eabi/4.7.3/../../../../arm-none-eabi/lib/armv7-m/crt0.o (exit)
c:/program files/cypress/psoc creator/3.0/psoc creator/import/gnu_cs/arm/4.7.3/bin/../lib/gcc/arm-none-eabi/4.7.3/../../../../arm-none-eabi/lib/armv7-m\libc_s.a(lib_a-fini.o)
                              c:/program files/cypress/psoc creator/3.0/psoc creator/import/gnu_cs/arm/4.7.3/bin/../lib/gcc/arm-none-eabi/4.7.3/../../../../arm-none-eabi/lib/armv7-m/crt0.o (__libc_fini_array)
c:/program files/cypress/psoc creator/3.0/psoc creator/import/gnu_cs/arm/4.7.3/bin/../lib/gcc/arm-none-eabi/4.7.3/../../../../arm-none-eabi/lib/armv7-m\libc_s.a(lib_a-impure.o)
                              c:/program files/cypress/psoc creator/3.0/psoc creator/import/gnu_cs/arm/4.7.3/bin/../lib/gcc/arm-none-eabi/4.7.3/../../../../arm-none-eabi/lib/armv7-m\libc_s.a(lib_a-exit.o) (_global_impure_ptr)
c:/program files/cypress/psoc creator/3.0/psoc creator/import/gnu_cs/arm/4.7.3/bin/../lib/gcc/arm-none-eabi/4.7.3/../../../../arm-none-eabi/lib/armv7-m\libc_s.a(lib_a-init.o)
                              c:/program files/cypress/psoc creator/3.0/psoc creator/import/gnu_cs/arm/4.7.3/bin/../lib/gcc/arm-none-eabi/4.7.3/../../../../arm-none-eabi/lib/armv7-m/crt0.o (__libc_init_array)
c:/program files/cypress/psoc creator/3.0/psoc creator/import/gnu_cs/arm/4.7.3/bin/../lib/gcc/arm-none-eabi/4.7.3/../../../../arm-none-eabi/lib/armv7-m\libc_s.a(lib_a-memcpy.o)
                              .\CortexM3\ARM_GCC_473\Debug\ail14_0_Copy_01.a(cyfitter_cfg.o) (memcpy)
c:/program files/cypress/psoc creator/3.0/psoc creator/import/gnu_cs/arm/4.7.3/bin/../lib/gcc/arm-none-eabi/4.7.3/../../../../arm-none-eabi/lib/armv7-m\libc_s.a(lib_a-memset.o)
                              c:/program files/cypress/psoc creator/3.0/psoc creator/import/gnu_cs/arm/4.7.3/bin/../lib/gcc/arm-none-eabi/4.7.3/../../../../arm-none-eabi/lib/armv7-m/crt0.o (memset)

Allocating common symbols
Common symbol       size              file

pak                 0x6               .\CortexM3\ARM_GCC_473\Debug\main.o
dieTemperature      0x2               .\CortexM3\ARM_GCC_473\Debug\ail14_0_Copy_01.a(CyFlash.o)

Discarded input sections

 .text          0x00000000        0x0 c:/program files/cypress/psoc creator/3.0/psoc creator/import/gnu_cs/arm/4.7.3/bin/../lib/gcc/arm-none-eabi/4.7.3/armv7-m/crti.o
 .data          0x00000000        0x0 c:/program files/cypress/psoc creator/3.0/psoc creator/import/gnu_cs/arm/4.7.3/bin/../lib/gcc/arm-none-eabi/4.7.3/armv7-m/crti.o
 .bss           0x00000000        0x0 c:/program files/cypress/psoc creator/3.0/psoc creator/import/gnu_cs/arm/4.7.3/bin/../lib/gcc/arm-none-eabi/4.7.3/armv7-m/crti.o
 .data          0x00000000        0x4 c:/program files/cypress/psoc creator/3.0/psoc creator/import/gnu_cs/arm/4.7.3/bin/../lib/gcc/arm-none-eabi/4.7.3/armv7-m/crtbegin.o
 .text          0x00000000       0x70 c:/program files/cypress/psoc creator/3.0/psoc creator/import/gnu_cs/arm/4.7.3/bin/../lib/gcc/arm-none-eabi/4.7.3/../../../../arm-none-eabi/lib/armv7-m/crt0.o
 .data          0x00000000        0x0 c:/program files/cypress/psoc creator/3.0/psoc creator/import/gnu_cs/arm/4.7.3/bin/../lib/gcc/arm-none-eabi/4.7.3/../../../../arm-none-eabi/lib/armv7-m/crt0.o
 .bss           0x00000000        0x0 c:/program files/cypress/psoc creator/3.0/psoc creator/import/gnu_cs/arm/4.7.3/bin/../lib/gcc/arm-none-eabi/4.7.3/../../../../arm-none-eabi/lib/armv7-m/crt0.o
 .ARM.extab     0x00000000        0x0 c:/program files/cypress/psoc creator/3.0/psoc creator/import/gnu_cs/arm/4.7.3/bin/../lib/gcc/arm-none-eabi/4.7.3/../../../../arm-none-eabi/lib/armv7-m/crt0.o
 .ARM.exidx     0x00000000        0x8 c:/program files/cypress/psoc creator/3.0/psoc creator/import/gnu_cs/arm/4.7.3/bin/../lib/gcc/arm-none-eabi/4.7.3/../../../../arm-none-eabi/lib/armv7-m/crt0.o
 .text          0x00000000        0x0 .\CortexM3\ARM_GCC_473\Debug\main.o
 .bss           0x00000000        0x0 .\CortexM3\ARM_GCC_473\Debug\main.o
 .text          0x00000000        0x0 .\CortexM3\ARM_GCC_473\Debug\cymetadata.o
 .data          0x00000000        0x0 .\CortexM3\ARM_GCC_473\Debug\cymetadata.o
 .bss           0x00000000        0x0 .\CortexM3\ARM_GCC_473\Debug\cymetadata.o
 .text          0x00000000        0x0 .\CortexM3\ARM_GCC_473\Debug\Cm3Start.o
 .data          0x00000000        0x0 .\CortexM3\ARM_GCC_473\Debug\Cm3Start.o
 .bss           0x00000000        0x0 .\CortexM3\ARM_GCC_473\Debug\Cm3Start.o
 .text._exit    0x00000000       0x30 .\CortexM3\ARM_GCC_473\Debug\Cm3Start.o
Memory Configuration

Name             Origin             Length             Attributes
rom              0x00000000         0x00040000         xr
ram              0x1fff8000         0x00010000         xrw
*default*        0x00000000         0xffffffff

Linker script and memory map

LOAD c:/program files/cypress/psoc creator/3.0/psoc creator/import/gnu_cs/arm/4.7.3/bin/../lib/gcc/arm-none-eabi/4.7.3/armv7-m/crti.o
LOAD c:/program files/cypress/psoc creator/3.0/psoc creator/import/gnu_cs/arm/4.7.3/bin/../lib/gcc/arm-none-eabi/4.7.3/armv7-m/crtbegin.o
LOAD c:/program files/cypress/psoc creator/3.0/psoc creator/import/gnu_cs/arm/4.7.3/bin/../lib/gcc/arm-none-eabi/4.7.3/../../../../arm-none-eabi/lib/armv7-m/crt0.o
START GROUP
LOAD .\CortexM3\ARM_GCC_473\Debug\main.o
LOAD .\CortexM3\ARM_GCC_473\Debug\cymetadata.o
LOAD .\CortexM3\ARM_GCC_473\Debug\Cm3Start.o
LOAD .\CortexM3\ARM_GCC_473\Debug\ail14_0_Copy_01.a
LOAD C:\Program Files\Cypress\PSoC Creator\3.0\PSoC Creator\psoc\content\cycomponentlibrary\CyComponentLibrary.cylib\CortexM3\ARM_GCC_473\Debug\CyComponentLibrary.a
END GROUP
START GROUP
LOAD c:/program files/cypress/psoc creator/3.0/psoc creator/import/gnu_cs/arm/4.7.3/bin/../lib/gcc/arm-none-eabi/4.7.3/armv7-m\libgcc.a
LOAD c:/program files/cypress/psoc creator/3.0/psoc creator/import/gnu_cs/arm/4.7.3/bin/../lib/gcc/arm-none-eabi/4.7.3/../../../../arm-none-eabi/lib/armv7-m\libc_s.a
END GROUP
LOAD c:/program files/cypress/psoc creator/3.0/psoc creator/import/gnu_cs/arm/4.7.3/bin/../lib/gcc/arm-none-eabi/4.7.3/armv7-m/crtend.o
LOAD c:/program files/cypress/psoc creator/3.0/psoc creator/import/gnu_cs/arm/4.7.3/bin/../lib/gcc/arm-none-eabi/4.7.3/armv7-m/crtn.o
START GROUP
LOAD c:/program files/cypress/psoc creator/3.0/psoc creator/import/gnu_cs/arm/4.7.3/bin/../lib/gcc/arm-none-eabi/4.7.3/armv7-m\libgcc.a
LOAD c:/program files/cypress/psoc creator/3.0/psoc creator/import/gnu_cs/arm/4.7.3/bin/../lib/gcc/arm-none-eabi/4.7.3/../../../../arm-none-eabi/lib/armv7-m\libc.a
LOAD c:/program files/cypress/psoc creator/3.0/psoc creator/import/gnu_cs/arm/4.7.3/bin/../lib/gcc/arm-none-eabi/4.7.3/../../../../arm-none-eabi/lib/armv7-m\libnosys.a
END GROUP
                0x00000000                CY_APPL_ORIGIN = 0x0
                0x00000100                CY_FLASH_ROW_SIZE = 0x100
                0x00000020                CY_ECC_ROW_SIZE = 0x20
                0x00000000                CY_EE_IN_BTLDR = 0x0
                0x00000000                CY_APPL_LOADABLE = 0x0
                0x00000800                CY_EE_SIZE = 0x800
                0x00000001                CY_APPL_NUM = 0x1
                0x00000001                CY_APPL_MAX = 0x1
                0x00000040                CY_METADATA_SIZE = 0x40
                0x1fff8138                PROVIDE (__cy_heap_start, _end)
                0x00000001                PROVIDE (__cy_region_num, ((__cy_regions_end - __cy_regions) / 0x10))
                0x20008000                PROVIDE (__cy_stack, (ORIGIN (ram) + 0x10000))
                0x20004000                PROVIDE (__cy_heap_end, (__cy_stack - 0x4000))

.cybootloader   0x00000000        0x0
 *(.cybootloader)
                0x00000000                appl1_start = CY_APPL_ORIGIN?CY_APPL_ORIGIN:ALIGN (CY_FLASH_ROW_SIZE)
                0x0001ff00                appl2_start = (appl1_start + ALIGN ((((0x40000 - appl1_start) - (0x2 * CY_FLASH_ROW_SIZE)) / 0x2), CY_FLASH_ROW_SIZE))
                0x00000000                appl_start = (CY_APPL_NUM == 0x1)?appl1_start:appl2_start
                0x00000000                ecc_offset = ((appl_start / CY_FLASH_ROW_SIZE) * CY_ECC_ROW_SIZE)
                0x00000000                ee_offset = (CY_APPL_LOADABLE && ! (CY_EE_IN_BTLDR))?((CY_EE_SIZE / CY_APPL_MAX) * (CY_APPL_NUM - 0x1)):0x0
                0x00000800                ee_size = (CY_APPL_LOADABLE && ! (CY_EE_IN_BTLDR))?(CY_EE_SIZE / CY_APPL_MAX):CY_EE_SIZE
                0x00000000                PROVIDE (CY_ECC_OFFSET, ecc_offset)

.text           0x00000000     0x110e
 CREATE_OBJECT_SYMBOLS
                0x00000000                PROVIDE (__cy_interrupt_vector, RomVectors)
 *(.romvectors)
 .romvectors    0x00000000       0x10 .\CortexM3\ARM_GCC_473\Debug\Cm3Start.o
                0x00000000                RomVectors
                0x00000001                ASSERT ((. != __cy_interrupt_vector), No interrupt vector)
                0x00000001                ASSERT (CY_APPL_ORIGIN?(SIZEOF (.cybootloader) <= CY_APPL_ORIGIN):0x1, Wrong image location)
                0x00000010                PROVIDE (__cy_reset, Reset)
 *(.text.Reset)
 .text.Reset    0x00000010       0x1c .\CortexM3\ARM_GCC_473\Debug\Cm3Start.o
                0x00000010                Reset
                0x00000001                ASSERT ((. != __cy_reset), No reset code)
 *(.dma_init)
                0x00000001                ASSERT ((((appl_start + .) <= 0x10000) || 0x1), DMA Init must be within the first 64k of flash)
 *(.text .text.* .gnu.linkonce.t.*)
 .text          0x0000002c       0x54 c:/program files/cypress/psoc creator/3.0/psoc creator/import/gnu_cs/arm/4.7.3/bin/../lib/gcc/arm-none-eabi/4.7.3/armv7-m/crtbegin.o
 .text.main     0x00000080       0x9c .\CortexM3\ARM_GCC_473\Debug\main.o
                0x00000080                main
 .text.Timer_Set
                0x0000011c       0x1c .\CortexM3\ARM_GCC_473\Debug\main.o
                0x0000011c                Timer_Set
 .text.Timer_Delayus
                0x00000138       0x2c .\CortexM3\ARM_GCC_473\Debug\main.o
                0x00000138                Timer_Delayus
 .text.rs485_Start
                0x00000164       0x10 .\CortexM3\ARM_GCC_473\Debug\main.o
                0x00000164                rs485_Start
 .text.rs485_CheckPacket
                0x00000174      0x1b4 .\CortexM3\ARM_GCC_473\Debug\main.o
                0x00000174                rs485_CheckPacket
 .text.CheckValid
                0x00000328       0x5c .\CortexM3\ARM_GCC_473\Debug\main.o
                0x00000328                CheckValid
 .text.Servo_Start
                0x00000384       0x28 .\CortexM3\ARM_GCC_473\Debug\main.o
                0x00000384                Servo_Start
 .text.Terminal_Count_ISR
                0x000003ac       0x20 .\CortexM3\ARM_GCC_473\Debug\main.o
                0x000003ac                Terminal_Count_ISR
 .text.IntDefaultHandler
                0x000003cc        0x8 .\CortexM3\ARM_GCC_473\Debug\Cm3Start.o
                0x000003cc                IntDefaultHandler
 .text.Start_c  0x000003d4       0xcc .\CortexM3\ARM_GCC_473\Debug\Cm3Start.o
                0x000003d4                Start_c
 .text.initialize_psoc
                0x000004a0       0xb4 .\CortexM3\ARM_GCC_473\Debug\Cm3Start.o
                0x000004a0                initialize_psoc
 .text.CYMEMZERO
                0x00000554       0x20 .\CortexM3\ARM_GCC_473\Debug\ail14_0_Copy_01.a(cyfitter_cfg.o)
 .text.CYCONFIGCPY
                0x00000574       0x20 .\CortexM3\ARM_GCC_473\Debug\ail14_0_Copy_01.a(cyfitter_cfg.o)
 .text.CyClockStartupError
                0x00000594        0xc .\CortexM3\ARM_GCC_473\Debug\ail14_0_Copy_01.a(cyfitter_cfg.o)
 .text.cfg_write_bytes32
                0x000005a0       0x84 .\CortexM3\ARM_GCC_473\Debug\ail14_0_Copy_01.a(cyfitter_cfg.o)
 .text.ClockSetup
                0x00000624      0x16c .\CortexM3\ARM_GCC_473\Debug\ail14_0_Copy_01.a(cyfitter_cfg.o)
 .text.AnalogSetDefault
                0x00000790       0x50 .\CortexM3\ARM_GCC_473\Debug\ail14_0_Copy_01.a(cyfitter_cfg.o)
 .text.cyfitter_cfg
                0x000007e0      0x1c0 .\CortexM3\ARM_GCC_473\Debug\ail14_0_Copy_01.a(cyfitter_cfg.o)
                0x000007e0                cyfitter_cfg
 .text          0x000009a0       0x28 .\CortexM3\ARM_GCC_473\Debug\ail14_0_Copy_01.a(CyBootAsmGnu.o)
                0x000009a0                CyDelayCycles
                0x000009b4                CyEnterCriticalSection
                0x000009bc                CyExitCriticalSection
 .text.UART_Start
                0x000009c8       0x2c .\CortexM3\ARM_GCC_473\Debug\ail14_0_Copy_01.a(UART.o)
                0x000009c8                UART_Start
 .text.UART_Init
                0x000009f4       0x50 .\CortexM3\ARM_GCC_473\Debug\ail14_0_Copy_01.a(UART.o)
                0x000009f4                UART_Init
 .text.UART_Enable
                0x00000a44       0x74 .\CortexM3\ARM_GCC_473\Debug\ail14_0_Copy_01.a(UART.o)
                0x00000a44                UART_Enable
 .text.UART_ReadRxData
                0x00000ab8       0x20 .\CortexM3\ARM_GCC_473\Debug\ail14_0_Copy_01.a(UART.o)
                0x00000ab8                UART_ReadRxData
 .text.UART_ReadRxStatus
                0x00000ad8       0x28 .\CortexM3\ARM_GCC_473\Debug\ail14_0_Copy_01.a(UART.o)
                0x00000ad8                UART_ReadRxStatus
 .text.UART_ClearRxBuffer
                0x00000b00       0x58 .\CortexM3\ARM_GCC_473\Debug\ail14_0_Copy_01.a(UART.o)
                0x00000b00                UART_ClearRxBuffer
 .text.UART_ReadTxStatus
                0x00000b58       0x18 .\CortexM3\ARM_GCC_473\Debug\ail14_0_Copy_01.a(UART.o)
                0x00000b58                UART_ReadTxStatus
 .text.UART_PutChar
                0x00000b70       0x38 .\CortexM3\ARM_GCC_473\Debug\ail14_0_Copy_01.a(UART.o)
                0x00000b70                UART_PutChar
 .text.Timer_Init
                0x00000ba8       0x58 .\CortexM3\ARM_GCC_473\Debug\ail14_0_Copy_01.a(Timer.o)
                0x00000ba8                Timer_Init
 .text.Timer_Enable
                0x00000c00       0x28 .\CortexM3\ARM_GCC_473\Debug\ail14_0_Copy_01.a(Timer.o)
                0x00000c00                Timer_Enable
 .text.Timer_Start
                0x00000c28       0x2c .\CortexM3\ARM_GCC_473\Debug\ail14_0_Copy_01.a(Timer.o)
                0x00000c28                Timer_Start
 .text.Timer_SetInterruptMode
                0x00000c54       0x20 .\CortexM3\ARM_GCC_473\Debug\ail14_0_Copy_01.a(Timer.o)
                0x00000c54                Timer_SetInterruptMode
 .text.Timer_ReadStatusRegister
                0x00000c74       0x18 .\CortexM3\ARM_GCC_473\Debug\ail14_0_Copy_01.a(Timer.o)
                0x00000c74                Timer_ReadStatusRegister
 .text.Timer_WritePeriod
                0x00000c8c       0x20 .\CortexM3\ARM_GCC_473\Debug\ail14_0_Copy_01.a(Timer.o)
                0x00000c8c                Timer_WritePeriod
 .text.Timer_ReadCapture
                0x00000cac       0x18 .\CortexM3\ARM_GCC_473\Debug\ail14_0_Copy_01.a(Timer.o)
                0x00000cac                Timer_ReadCapture
 .text.Timer_WriteCounter
                0x00000cc4       0x20 .\CortexM3\ARM_GCC_473\Debug\ail14_0_Copy_01.a(Timer.o)
                0x00000cc4                Timer_WriteCounter
 .text.Timer_ReadCounter
                0x00000ce4       0x24 .\CortexM3\ARM_GCC_473\Debug\ail14_0_Copy_01.a(Timer.o)
                0x00000ce4                Timer_ReadCounter
 .text.Timer_ClearFIFO
                0x00000d08       0x1c .\CortexM3\ARM_GCC_473\Debug\ail14_0_Copy_01.a(Timer.o)
                0x00000d08                Timer_ClearFIFO
 .text.DE_Write
                0x00000d24       0x40 .\CortexM3\ARM_GCC_473\Debug\ail14_0_Copy_01.a(DE.o)
                0x00000d24                DE_Write
 .text.LED_1_Write
                0x00000d64       0x44 .\CortexM3\ARM_GCC_473\Debug\ail14_0_Copy_01.a(LED_1.o)
                0x00000d64                LED_1_Write
 .text.LED_2_Write
                0x00000da8       0x44 .\CortexM3\ARM_GCC_473\Debug\ail14_0_Copy_01.a(LED_2.o)
                0x00000da8                LED_2_Write
 .text.PWM_1_Start
                0x00000dec       0x2c .\CortexM3\ARM_GCC_473\Debug\ail14_0_Copy_01.a(PWM_1.o)
                0x00000dec                PWM_1_Start
 .text.PWM_1_Init
                0x00000e18       0xc4 .\CortexM3\ARM_GCC_473\Debug\ail14_0_Copy_01.a(PWM_1.o)
                0x00000e18                PWM_1_Init
 .text.PWM_1_Enable
                0x00000edc       0x28 .\CortexM3\ARM_GCC_473\Debug\ail14_0_Copy_01.a(PWM_1.o)
                0x00000edc                PWM_1_Enable
 .text.PWM_1_WriteCounter
                0x00000f04       0x20 .\CortexM3\ARM_GCC_473\Debug\ail14_0_Copy_01.a(PWM_1.o)
                0x00000f04                PWM_1_WriteCounter
 .text.PWM_1_ClearFIFO
                0x00000f24       0x1c .\CortexM3\ARM_GCC_473\Debug\ail14_0_Copy_01.a(PWM_1.o)
                0x00000f24                PWM_1_ClearFIFO
 .text.PWM_1_WritePeriod
                0x00000f40       0x20 .\CortexM3\ARM_GCC_473\Debug\ail14_0_Copy_01.a(PWM_1.o)
                0x00000f40                PWM_1_WritePeriod
 .text.PWM_1_WriteCompare1
                0x00000f60       0x20 .\CortexM3\ARM_GCC_473\Debug\ail14_0_Copy_01.a(PWM_1.o)
                0x00000f60                PWM_1_WriteCompare1
 .text.PWM_1_WriteCompare2
                0x00000f80       0x20 .\CortexM3\ARM_GCC_473\Debug\ail14_0_Copy_01.a(PWM_1.o)
                0x00000f80                PWM_1_WriteCompare2
 .text.PWM_1_SetInterruptMode
                0x00000fa0       0x20 .\CortexM3\ARM_GCC_473\Debug\ail14_0_Copy_01.a(PWM_1.o)
                0x00000fa0                PWM_1_SetInterruptMode
 .text.PWM_1_ReadStatusRegister
                0x00000fc0       0x20 .\CortexM3\ARM_GCC_473\Debug\ail14_0_Copy_01.a(PWM_1.o)
                0x00000fc0                PWM_1_ReadStatusRegister
 .text.PWM_1_ReadCapture
                0x00000fe0       0x18 .\CortexM3\ARM_GCC_473\Debug\ail14_0_Copy_01.a(PWM_1.o)
                0x00000fe0                PWM_1_ReadCapture
 .text.isr_tc_StartEx
                0x00000ff8       0x28 .\CortexM3\ARM_GCC_473\Debug\ail14_0_Copy_01.a(isr_tc.o)
                0x00000ff8                isr_tc_StartEx
 .text.isr_tc_SetVector
                0x00001020       0x28 .\CortexM3\ARM_GCC_473\Debug\ail14_0_Copy_01.a(isr_tc.o)
                0x00001020                isr_tc_SetVector
 .text.isr_tc_SetPriority
                0x00001048       0x28 .\CortexM3\ARM_GCC_473\Debug\ail14_0_Copy_01.a(isr_tc.o)
                0x00001048                isr_tc_SetPriority
 .text.isr_tc_Enable
                0x00001070       0x18 .\CortexM3\ARM_GCC_473\Debug\ail14_0_Copy_01.a(isr_tc.o)
                0x00001070                isr_tc_Enable
 .text.isr_tc_Disable
                0x00001088       0x18 .\CortexM3\ARM_GCC_473\Debug\ail14_0_Copy_01.a(isr_tc.o)
                0x00001088                isr_tc_Disable
 .text.__libc_init_array
                0x000010a0       0x4c c:/program files/cypress/psoc creator/3.0/psoc creator/import/gnu_cs/arm/4.7.3/bin/../lib/gcc/arm-none-eabi/4.7.3/../../../../arm-none-eabi/lib/armv7-m\libc_s.a(lib_a-init.o)
                0x000010a0                __libc_init_array
 .text.memcpy   0x000010ec       0x12 c:/program files/cypress/psoc creator/3.0/psoc creator/import/gnu_cs/arm/4.7.3/bin/../lib/gcc/arm-none-eabi/4.7.3/../../../../arm-none-eabi/lib/armv7-m\libc_s.a(lib_a-memcpy.o)
                0x000010ec                memcpy
 .text.memset   0x000010fe       0x10 c:/program files/cypress/psoc creator/3.0/psoc creator/import/gnu_cs/arm/4.7.3/bin/../lib/gcc/arm-none-eabi/4.7.3/../../../../arm-none-eabi/lib/armv7-m\libc_s.a(lib_a-memset.o)
                0x000010fe                memset
 *(.plt)
 *(.gnu.warning)
 *(.glue_7t)
 .glue_7t       0x00000000        0x0 linker stubs
 *(.glue_7)
 .glue_7        0x00000000        0x0 linker stubs
 *(.vfp11_veneer)
 .vfp11_veneer  0x00000000        0x0 linker stubs
 *(.bootloader)
 *(.ARM.extab* .gnu.linkonce.armextab.*)
 *(.gcc_except_table)

.v4_bx          0x00001110        0x0
 .v4_bx         0x00000000        0x0 linker stubs

.iplt           0x00001110        0x0
 .iplt          0x00000000        0x0 c:/program files/cypress/psoc creator/3.0/psoc creator/import/gnu_cs/arm/4.7.3/bin/../lib/gcc/arm-none-eabi/4.7.3/armv7-m/crtbegin.o

.eh_frame_hdr
 *(.eh_frame_hdr)

.eh_frame       0x00001110        0x4
 *(.eh_frame)
 .eh_frame      0x00001110        0x0 c:/program files/cypress/psoc creator/3.0/psoc creator/import/gnu_cs/arm/4.7.3/bin/../lib/gcc/arm-none-eabi/4.7.3/armv7-m/crtbegin.o
 .eh_frame      0x00001110        0x4 c:/program files/cypress/psoc creator/3.0/psoc creator/import/gnu_cs/arm/4.7.3/bin/../lib/gcc/arm-none-eabi/4.7.3/armv7-m/crtend.o
                0x00001114                PROVIDE (__exidx_start, .)

.ARM.exidx
 *(.ARM.exidx* .gnu.linkonce.armexidx.*)
                0x00001114                __exidx_end = .

.rodata         0x00001114       0x7c
 *(.rodata .rodata.* .gnu.linkonce.r.*)
 .rodata        0x00001114       0x44 .\CortexM3\ARM_GCC_473\Debug\ail14_0_Copy_01.a(cyfitter_cfg.o)
                0x00001158                . = ALIGN (0x4)
 *(.init)
 .init          0x00001158        0x4 c:/program files/cypress/psoc creator/3.0/psoc creator/import/gnu_cs/arm/4.7.3/bin/../lib/gcc/arm-none-eabi/4.7.3/armv7-m/crti.o
                0x00001158                _init
 .init          0x0000115c        0x8 c:/program files/cypress/psoc creator/3.0/psoc creator/import/gnu_cs/arm/4.7.3/bin/../lib/gcc/arm-none-eabi/4.7.3/armv7-m/crtn.o
                0x00001164                . = ALIGN (0x4)
                0x00001164                __preinit_array_start = .
 *(.preinit_array)
                0x00001164                __preinit_array_end = .
                0x00001164                . = ALIGN (0x4)
                0x00001164                __init_array_start = .
 *(SORT(.init_array.*))
 *(.init_array)
 .init_array    0x00001164        0x4 c:/program files/cypress/psoc creator/3.0/psoc creator/import/gnu_cs/arm/4.7.3/bin/../lib/gcc/arm-none-eabi/4.7.3/armv7-m/crtbegin.o
 .init_array    0x00001168        0x4 .\CortexM3\ARM_GCC_473\Debug\Cm3Start.o
                0x0000116c                __init_array_end = .
                0x0000116c                . = ALIGN (0x4)
 *(.fini)
 .fini          0x0000116c        0x4 c:/program files/cypress/psoc creator/3.0/psoc creator/import/gnu_cs/arm/4.7.3/bin/../lib/gcc/arm-none-eabi/4.7.3/armv7-m/crti.o
                0x0000116c                _fini
 .fini          0x00001170        0x8 c:/program files/cypress/psoc creator/3.0/psoc creator/import/gnu_cs/arm/4.7.3/bin/../lib/gcc/arm-none-eabi/4.7.3/armv7-m/crtn.o
                0x00001178                . = ALIGN (0x4)
                0x00001178                __fini_array_start = .
 *(.fini_array)
 .fini_array    0x00001178        0x4 c:/program files/cypress/psoc creator/3.0/psoc creator/import/gnu_cs/arm/4.7.3/bin/../lib/gcc/arm-none-eabi/4.7.3/armv7-m/crtbegin.o
 *(SORT(.fini_array.*))
                0x0000117c                __fini_array_end = .
                0x0000117c                . = ALIGN (0x4)
 *crtbegin.o(.ctors)
 *(EXCLUDE_FILE(*crtend.o) .ctors)
 *(SORT(.ctors.*))
 *crtend.o(.ctors)
                0x0000117c                . = ALIGN (0x4)
 *crtbegin.o(.dtors)
 *(EXCLUDE_FILE(*crtend.o) .dtors)
 *(SORT(.dtors.*))
 *crtend.o(.dtors)
                0x0000117c                . = ALIGN (0x4)
                0x0000117c                __cy_regions = .
                0x0000117c        0x4 LONG 0x1190 __cy_region_init_ram
                0x00001180        0x4 LONG 0x1fff8108 __cy_region_start_data
                0x00001184        0x4 LONG 0x8 __cy_region_init_size_ram
                0x00001188        0x4 LONG 0x28 __cy_region_zero_size_ram
                0x0000118c                __cy_regions_end = .
                0x00001190                . = ALIGN (0x8)
 *fill*         0x0000118c        0x4 00
                0x00001190                _etext = .

.ramvectors     0x1fff8000      0x100
                0x1fff8000                __cy_region_start_ram = .
 *(.ramvectors)
 .ramvectors    0x1fff8000      0x100 .\CortexM3\ARM_GCC_473\Debug\Cm3Start.o
                0x1fff8000                CyRamVectors

.noinit         0x1fff8100        0x5
 *(.noinit)
 .noinit        0x1fff8100        0x4 .\CortexM3\ARM_GCC_473\Debug\Cm3Start.o
 .noinit        0x1fff8104        0x1 .\CortexM3\ARM_GCC_473\Debug\ail14_0_Copy_01.a(CyLib.o)
                0x1fff8104                CyResetStatus

.data           0x1fff8108        0x8 load address 0x00001190
                0x1fff8108                __cy_region_start_data = .
 *(.jcr)
 .jcr           0x1fff8108        0x0 c:/program files/cypress/psoc creator/3.0/psoc creator/import/gnu_cs/arm/4.7.3/bin/../lib/gcc/arm-none-eabi/4.7.3/armv7-m/crtbegin.o
 .jcr           0x1fff8108        0x4 c:/program files/cypress/psoc creator/3.0/psoc creator/import/gnu_cs/arm/4.7.3/bin/../lib/gcc/arm-none-eabi/4.7.3/armv7-m/crtend.o
 *(.got.plt)
 *(.got)
 *(.shdata)
 *(.data .data.* .gnu.linkonce.d.*)
 .data          0x1fff810c        0x4 .\CortexM3\ARM_GCC_473\Debug\main.o
                0x1fff810c                aileron_buffer
                0x1fff8110                . = ALIGN (0x8)
 *(.ram)
                0x1fff8110                _edata = .

.igot.plt       0x1fff8110        0x0 load address 0x00001198
 .igot.plt      0x00000000        0x0 c:/program files/cypress/psoc creator/3.0/psoc creator/import/gnu_cs/arm/4.7.3/bin/../lib/gcc/arm-none-eabi/4.7.3/armv7-m/crtbegin.o

.bss            0x1fff8110       0x28 load address 0x00001198
                0x1fff8110                PROVIDE (__bss_start__, .)
 *(.shbss)
 *(.bss .bss.* .gnu.linkonce.b.*)
 .bss           0x1fff8110       0x1c c:/program files/cypress/psoc creator/3.0/psoc creator/import/gnu_cs/arm/4.7.3/bin/../lib/gcc/arm-none-eabi/4.7.3/armv7-m/crtbegin.o
 .bss           0x1fff812c        0x2 .\CortexM3\ARM_GCC_473\Debug\ail14_0_Copy_01.a(UART.o)
                0x1fff812c                UART_initVar
 .bss           0x1fff812e        0x1 .\CortexM3\ARM_GCC_473\Debug\ail14_0_Copy_01.a(Timer.o)
                0x1fff812e                Timer_initVar
 .bss           0x1fff812f        0x1 .\CortexM3\ARM_GCC_473\Debug\ail14_0_Copy_01.a(PWM_1.o)
                0x1fff812f                PWM_1_initVar
 *(COMMON)
 COMMON         0x1fff8130        0x6 .\CortexM3\ARM_GCC_473\Debug\main.o
                0x1fff8130                pak
                0x1fff8138                . = ALIGN (0x8)
 *fill*         0x1fff8136        0x2 00
 *(.ram.b)
                0x1fff8138                _end = .
                0x1fff8138                __end = .
                0x1fff8138                PROVIDE (end, .)
                0x1fff8138                PROVIDE (__bss_end__, .)
                0x00001190                __cy_region_init_ram = LOADADDR (.data)
                0x00000008                __cy_region_init_size_ram = (_edata - ADDR (.data))
                0x00000028                __cy_region_zero_size_ram = (_end - _edata)

.heap           0x1fff8138     0x1000 load address 0x00001198
                0x1fff8138                . = _end
                0x1fff9138                . = (. + 0x1000)
 *fill*         0x1fff8138     0x1000 00
                0x1fff9138                __cy_heap_limit = .

.stack          0x20004000     0x4000
                0x20004000                __cy_stack_limit = .
                0x20008000                . = (. + 0x4000)
 *fill*         0x20004000     0x4000 00
                0x00000001                ASSERT ((__cy_stack_limit >= __cy_heap_limit), region RAM overflowed with stack)

.cyloadermeta
 *(.cyloadermeta)

.cyloadablemeta
 *(.cyloadablemeta)

.cyconfigecc    0x80000000      0x580
 *(.cyconfigecc)
 .cyconfigecc   0x80000000      0x580 .\CortexM3\ARM_GCC_473\Debug\cymetadata.o
                0x80000000                cy_meta_configecc

.cycustnvl      0x90000000        0x4
 *(.cycustnvl)
 .cycustnvl     0x90000000        0x4 .\CortexM3\ARM_GCC_473\Debug\cymetadata.o
                0x90000000                cy_meta_custnvl

.cywolatch      0x90100000        0x4
 *(.cywolatch)
 .cywolatch     0x90100000        0x4 .\CortexM3\ARM_GCC_473\Debug\cymetadata.o
                0x90100000                cy_meta_wonvl

.cyeeprom       0x90200000        0x0
 *(.cyeeprom)
                0x00000001                ASSERT ((. <= ((0x90200000 + ee_offset) + ee_size)), .cyeeprom data will not fit in EEPROM)

.cyflashprotect
                0x90400000      0x100
 *(.cyflashprotect)
 .cyflashprotect
                0x90400000      0x100 .\CortexM3\ARM_GCC_473\Debug\cymetadata.o
                0x90400000                cy_meta_flashprotect

.cymeta         0x90500000        0xc
 *(.cymeta)
 .cymeta        0x90500000        0xc .\CortexM3\ARM_GCC_473\Debug\cymetadata.o
                0x90500000                cy_metadata

.rel.dyn        0x00001198        0x0 load address 0x9050000c
 .rel.iplt      0x00000000        0x0 c:/program files/cypress/psoc creator/3.0/psoc creator/import/gnu_cs/arm/4.7.3/bin/../lib/gcc/arm-none-eabi/4.7.3/armv7-m/crtbegin.o

.stab
 *(.stab)

.stabstr
 *(.stabstr)

.debug
 *(.debug)

.line
 *(.line)

.debug_srcinfo
 *(.debug_srcinfo)

.debug_sfnames
 *(.debug_sfnames)

.debug_aranges  0x00000000      0x808
 *(.debug_aranges)
 .debug_aranges
                0x00000000       0x58 .\CortexM3\ARM_GCC_473\Debug\main.o
 .debug_aranges
                0x00000058       0x18 .\CortexM3\ARM_GCC_473\Debug\cymetadata.o
 .debug_aranges
                0x00000070       0x40 .\CortexM3\ARM_GCC_473\Debug\Cm3Start.o
 .debug_aranges
                0x000000b0       0x60 .\CortexM3\ARM_GCC_473\Debug\ail14_0_Copy_01.a(cyfitter_cfg.o)
 .debug_aranges
                0x00000110       0x20 .\CortexM3\ARM_GCC_473\Debug\ail14_0_Copy_01.a(CyBootAsmGnu.o)
 .debug_aranges
                0x00000130      0x218 .\CortexM3\ARM_GCC_473\Debug\ail14_0_Copy_01.a(CyLib.o)
 .debug_aranges
                0x00000348       0x90 .\CortexM3\ARM_GCC_473\Debug\ail14_0_Copy_01.a(cyPm.o)
 .debug_aranges
                0x000003d8       0xf0 .\CortexM3\ARM_GCC_473\Debug\ail14_0_Copy_01.a(UART.o)
 .debug_aranges
                0x000004c8       0x90 .\CortexM3\ARM_GCC_473\Debug\ail14_0_Copy_01.a(Timer.o)
 .debug_aranges
                0x00000558       0x38 .\CortexM3\ARM_GCC_473\Debug\ail14_0_Copy_01.a(DE.o)
 .debug_aranges
                0x00000590       0x38 .\CortexM3\ARM_GCC_473\Debug\ail14_0_Copy_01.a(LED_1.o)
 .debug_aranges
                0x000005c8       0x38 .\CortexM3\ARM_GCC_473\Debug\ail14_0_Copy_01.a(LED_2.o)
 .debug_aranges
                0x00000600       0xa8 .\CortexM3\ARM_GCC_473\Debug\ail14_0_Copy_01.a(PWM_1.o)
 .debug_aranges
                0x000006a8       0x80 .\CortexM3\ARM_GCC_473\Debug\ail14_0_Copy_01.a(isr_tc.o)
 .debug_aranges
                0x00000728       0x78 .\CortexM3\ARM_GCC_473\Debug\ail14_0_Copy_01.a(CyFlash.o)
 .debug_aranges
                0x000007a0       0x68 .\CortexM3\ARM_GCC_473\Debug\ail14_0_Copy_01.a(CySpc.o)

.debug_pubnames
 *(.debug_pubnames)

.debug_info     0x00000000     0x3760
 *(.debug_info .gnu.linkonce.wi.*)
 .debug_info    0x00000000      0x2cc .\CortexM3\ARM_GCC_473\Debug\main.o
 .debug_info    0x000002cc      0x140 .\CortexM3\ARM_GCC_473\Debug\cymetadata.o
 .debug_info    0x0000040c      0x2ea .\CortexM3\ARM_GCC_473\Debug\Cm3Start.o
 .debug_info    0x000006f6      0x47e .\CortexM3\ARM_GCC_473\Debug\ail14_0_Copy_01.a(cyfitter_cfg.o)
 .debug_info    0x00000b74       0x9b .\CortexM3\ARM_GCC_473\Debug\ail14_0_Copy_01.a(CyBootAsmGnu.o)
 .debug_info    0x00000c0f      0xcd7 .\CortexM3\ARM_GCC_473\Debug\ail14_0_Copy_01.a(CyLib.o)
 .debug_info    0x000018e6      0x5c3 .\CortexM3\ARM_GCC_473\Debug\ail14_0_Copy_01.a(cyPm.o)
 .debug_info    0x00001ea9      0x58b .\CortexM3\ARM_GCC_473\Debug\ail14_0_Copy_01.a(UART.o)
 .debug_info    0x00002434      0x2a0 .\CortexM3\ARM_GCC_473\Debug\ail14_0_Copy_01.a(Timer.o)
 .debug_info    0x000026d4      0x134 .\CortexM3\ARM_GCC_473\Debug\ail14_0_Copy_01.a(DE.o)
 .debug_info    0x00002808      0x134 .\CortexM3\ARM_GCC_473\Debug\ail14_0_Copy_01.a(LED_1.o)
 .debug_info    0x0000293c      0x134 .\CortexM3\ARM_GCC_473\Debug\ail14_0_Copy_01.a(LED_2.o)
 .debug_info    0x00002a70      0x34b .\CortexM3\ARM_GCC_473\Debug\ail14_0_Copy_01.a(PWM_1.o)
 .debug_info    0x00002dbb      0x278 .\CortexM3\ARM_GCC_473\Debug\ail14_0_Copy_01.a(isr_tc.o)
 .debug_info    0x00003033      0x354 .\CortexM3\ARM_GCC_473\Debug\ail14_0_Copy_01.a(CyFlash.o)
 .debug_info    0x00003387      0x3d9 .\CortexM3\ARM_GCC_473\Debug\ail14_0_Copy_01.a(CySpc.o)

.debug_abbrev   0x00000000     0x1223
 *(.debug_abbrev)
 .debug_abbrev  0x00000000      0x18d .\CortexM3\ARM_GCC_473\Debug\main.o
 .debug_abbrev  0x0000018d       0x77 .\CortexM3\ARM_GCC_473\Debug\cymetadata.o
 .debug_abbrev  0x00000204      0x175 .\CortexM3\ARM_GCC_473\Debug\Cm3Start.o
 .debug_abbrev  0x00000379      0x1b9 .\CortexM3\ARM_GCC_473\Debug\ail14_0_Copy_01.a(cyfitter_cfg.o)
 .debug_abbrev  0x00000532       0x14 .\CortexM3\ARM_GCC_473\Debug\ail14_0_Copy_01.a(CyBootAsmGnu.o)
 .debug_abbrev  0x00000546      0x207 .\CortexM3\ARM_GCC_473\Debug\ail14_0_Copy_01.a(CyLib.o)
 .debug_abbrev  0x0000074d      0x170 .\CortexM3\ARM_GCC_473\Debug\ail14_0_Copy_01.a(cyPm.o)
 .debug_abbrev  0x000008bd      0x165 .\CortexM3\ARM_GCC_473\Debug\ail14_0_Copy_01.a(UART.o)
 .debug_abbrev  0x00000a22      0x11d .\CortexM3\ARM_GCC_473\Debug\ail14_0_Copy_01.a(Timer.o)
 .debug_abbrev  0x00000b3f       0x92 .\CortexM3\ARM_GCC_473\Debug\ail14_0_Copy_01.a(DE.o)
 .debug_abbrev  0x00000bd1       0x92 .\CortexM3\ARM_GCC_473\Debug\ail14_0_Copy_01.a(LED_1.o)
 .debug_abbrev  0x00000c63       0x92 .\CortexM3\ARM_GCC_473\Debug\ail14_0_Copy_01.a(LED_2.o)
 .debug_abbrev  0x00000cf5      0x130 .\CortexM3\ARM_GCC_473\Debug\ail14_0_Copy_01.a(PWM_1.o)
 .debug_abbrev  0x00000e25      0x12d .\CortexM3\ARM_GCC_473\Debug\ail14_0_Copy_01.a(isr_tc.o)
 .debug_abbrev  0x00000f52      0x172 .\CortexM3\ARM_GCC_473\Debug\ail14_0_Copy_01.a(CyFlash.o)
 .debug_abbrev  0x000010c4      0x15f .\CortexM3\ARM_GCC_473\Debug\ail14_0_Copy_01.a(CySpc.o)

.debug_line     0x00000000     0x1d8b
 *(.debug_line)
 .debug_line    0x00000000      0x226 .\CortexM3\ARM_GCC_473\Debug\main.o
 .debug_line    0x00000226       0x53 .\CortexM3\ARM_GCC_473\Debug\cymetadata.o
 .debug_line    0x00000279      0x1aa .\CortexM3\ARM_GCC_473\Debug\Cm3Start.o
 .debug_line    0x00000423      0x21a .\CortexM3\ARM_GCC_473\Debug\ail14_0_Copy_01.a(cyfitter_cfg.o)
 .debug_line    0x0000063d       0x68 .\CortexM3\ARM_GCC_473\Debug\ail14_0_Copy_01.a(CyBootAsmGnu.o)
 .debug_line    0x000006a5      0x73b .\CortexM3\ARM_GCC_473\Debug\ail14_0_Copy_01.a(CyLib.o)
 .debug_line    0x00000de0      0x347 .\CortexM3\ARM_GCC_473\Debug\ail14_0_Copy_01.a(cyPm.o)
 .debug_line    0x00001127      0x2ef .\CortexM3\ARM_GCC_473\Debug\ail14_0_Copy_01.a(UART.o)
 .debug_line    0x00001416      0x174 .\CortexM3\ARM_GCC_473\Debug\ail14_0_Copy_01.a(Timer.o)
 .debug_line    0x0000158a       0x93 .\CortexM3\ARM_GCC_473\Debug\ail14_0_Copy_01.a(DE.o)
 .debug_line    0x0000161d       0x96 .\CortexM3\ARM_GCC_473\Debug\ail14_0_Copy_01.a(LED_1.o)
 .debug_line    0x000016b3       0x96 .\CortexM3\ARM_GCC_473\Debug\ail14_0_Copy_01.a(LED_2.o)
 .debug_line    0x00001749      0x1b3 .\CortexM3\ARM_GCC_473\Debug\ail14_0_Copy_01.a(PWM_1.o)
 .debug_line    0x000018fc      0x141 .\CortexM3\ARM_GCC_473\Debug\ail14_0_Copy_01.a(isr_tc.o)
 .debug_line    0x00001a3d      0x1a7 .\CortexM3\ARM_GCC_473\Debug\ail14_0_Copy_01.a(CyFlash.o)
 .debug_line    0x00001be4      0x1a7 .\CortexM3\ARM_GCC_473\Debug\ail14_0_Copy_01.a(CySpc.o)

.debug_frame    0x00000000     0x19a0
 *(.debug_frame)
 .debug_frame   0x00000000      0x104 .\CortexM3\ARM_GCC_473\Debug\main.o
 .debug_frame   0x00000104       0xa4 .\CortexM3\ARM_GCC_473\Debug\Cm3Start.o
 .debug_frame   0x000001a8      0x120 .\CortexM3\ARM_GCC_473\Debug\ail14_0_Copy_01.a(cyfitter_cfg.o)
 .debug_frame   0x000002c8      0x778 .\CortexM3\ARM_GCC_473\Debug\ail14_0_Copy_01.a(CyLib.o)
 .debug_frame   0x00000a40      0x1d0 .\CortexM3\ARM_GCC_473\Debug\ail14_0_Copy_01.a(cyPm.o)
 .debug_frame   0x00000c10      0x328 .\CortexM3\ARM_GCC_473\Debug\ail14_0_Copy_01.a(UART.o)
 .debug_frame   0x00000f38      0x1b8 .\CortexM3\ARM_GCC_473\Debug\ail14_0_Copy_01.a(Timer.o)
 .debug_frame   0x000010f0       0x80 .\CortexM3\ARM_GCC_473\Debug\ail14_0_Copy_01.a(DE.o)
 .debug_frame   0x00001170       0x80 .\CortexM3\ARM_GCC_473\Debug\ail14_0_Copy_01.a(LED_1.o)
 .debug_frame   0x000011f0       0x80 .\CortexM3\ARM_GCC_473\Debug\ail14_0_Copy_01.a(LED_2.o)
 .debug_frame   0x00001270      0x20c .\CortexM3\ARM_GCC_473\Debug\ail14_0_Copy_01.a(PWM_1.o)
 .debug_frame   0x0000147c      0x180 .\CortexM3\ARM_GCC_473\Debug\ail14_0_Copy_01.a(isr_tc.o)
 .debug_frame   0x000015fc      0x178 .\CortexM3\ARM_GCC_473\Debug\ail14_0_Copy_01.a(CyFlash.o)
 .debug_frame   0x00001774      0x13c .\CortexM3\ARM_GCC_473\Debug\ail14_0_Copy_01.a(CySpc.o)
 .debug_frame   0x000018b0       0x28 c:/program files/cypress/psoc creator/3.0/psoc creator/import/gnu_cs/arm/4.7.3/bin/../lib/gcc/arm-none-eabi/4.7.3/../../../../arm-none-eabi/lib/armv7-m\libc_s.a(lib_a-__atexit2.o)
 .debug_frame   0x000018d8       0x28 c:/program files/cypress/psoc creator/3.0/psoc creator/import/gnu_cs/arm/4.7.3/bin/../lib/gcc/arm-none-eabi/4.7.3/../../../../arm-none-eabi/lib/armv7-m\libc_s.a(lib_a-exit.o)
 .debug_frame   0x00001900       0x2c c:/program files/cypress/psoc creator/3.0/psoc creator/import/gnu_cs/arm/4.7.3/bin/../lib/gcc/arm-none-eabi/4.7.3/../../../../arm-none-eabi/lib/armv7-m\libc_s.a(lib_a-fini.o)
 .debug_frame   0x0000192c       0x2c c:/program files/cypress/psoc creator/3.0/psoc creator/import/gnu_cs/arm/4.7.3/bin/../lib/gcc/arm-none-eabi/4.7.3/../../../../arm-none-eabi/lib/armv7-m\libc_s.a(lib_a-init.o)
 .debug_frame   0x00001958       0x28 c:/program files/cypress/psoc creator/3.0/psoc creator/import/gnu_cs/arm/4.7.3/bin/../lib/gcc/arm-none-eabi/4.7.3/../../../../arm-none-eabi/lib/armv7-m\libc_s.a(lib_a-memcpy.o)
 .debug_frame   0x00001980       0x20 c:/program files/cypress/psoc creator/3.0/psoc creator/import/gnu_cs/arm/4.7.3/bin/../lib/gcc/arm-none-eabi/4.7.3/../../../../arm-none-eabi/lib/armv7-m\libc_s.a(lib_a-memset.o)

.debug_str      0x00000000     0x1857
 *(.debug_str)
 .debug_str     0x00000000      0x1ca .\CortexM3\ARM_GCC_473\Debug\main.o
                                0x210 (size before relaxing)
 .debug_str     0x000001ca       0x77 .\CortexM3\ARM_GCC_473\Debug\cymetadata.o
                                0x1b0 (size before relaxing)
 .debug_str     0x00000241      0x119 .\CortexM3\ARM_GCC_473\Debug\Cm3Start.o
                                0x26c (size before relaxing)
 .debug_str     0x0000035a      0x193 .\CortexM3\ARM_GCC_473\Debug\ail14_0_Copy_01.a(cyfitter_cfg.o)
                                0x2f2 (size before relaxing)
 .debug_str     0x000004ed      0x633 .\CortexM3\ARM_GCC_473\Debug\ail14_0_Copy_01.a(CyLib.o)
                                0x7d2 (size before relaxing)
 .debug_str     0x00000b20      0x371 .\CortexM3\ARM_GCC_473\Debug\ail14_0_Copy_01.a(cyPm.o)
                                0x4e1 (size before relaxing)
 .debug_str     0x00000e91      0x284 .\CortexM3\ARM_GCC_473\Debug\ail14_0_Copy_01.a(UART.o)
                                0x3dd (size before relaxing)
 .debug_str     0x00001115      0x16e .\CortexM3\ARM_GCC_473\Debug\ail14_0_Copy_01.a(Timer.o)
                                0x2c8 (size before relaxing)
 .debug_str     0x00001283       0x59 .\CortexM3\ARM_GCC_473\Debug\ail14_0_Copy_01.a(DE.o)
                                0x199 (size before relaxing)
 .debug_str     0x000012dc       0x5d .\CortexM3\ARM_GCC_473\Debug\ail14_0_Copy_01.a(LED_1.o)
                                0x1a8 (size before relaxing)
 .debug_str     0x00001339       0x5d .\CortexM3\ARM_GCC_473\Debug\ail14_0_Copy_01.a(LED_2.o)
                                0x1a8 (size before relaxing)
 .debug_str     0x00001396      0x1a4 .\CortexM3\ARM_GCC_473\Debug\ail14_0_Copy_01.a(PWM_1.o)
                                0x314 (size before relaxing)
 .debug_str     0x0000153a       0xf6 .\CortexM3\ARM_GCC_473\Debug\ail14_0_Copy_01.a(isr_tc.o)
                                0x26e (size before relaxing)
 .debug_str     0x00001630      0x129 .\CortexM3\ARM_GCC_473\Debug\ail14_0_Copy_01.a(CyFlash.o)
                                0x2a7 (size before relaxing)
 .debug_str     0x00001759       0xfe .\CortexM3\ARM_GCC_473\Debug\ail14_0_Copy_01.a(CySpc.o)
                                0x283 (size before relaxing)

.debug_loc      0x00000000     0x29b4
 *(.debug_loc)
 .debug_loc     0x00000000      0x19c .\CortexM3\ARM_GCC_473\Debug\main.o
 .debug_loc     0x0000019c      0x100 .\CortexM3\ARM_GCC_473\Debug\Cm3Start.o
 .debug_loc     0x0000029c      0x1f8 .\CortexM3\ARM_GCC_473\Debug\ail14_0_Copy_01.a(cyfitter_cfg.o)
 .debug_loc     0x00000494      0xce0 .\CortexM3\ARM_GCC_473\Debug\ail14_0_Copy_01.a(CyLib.o)
 .debug_loc     0x00001174      0x2e8 .\CortexM3\ARM_GCC_473\Debug\ail14_0_Copy_01.a(cyPm.o)
 .debug_loc     0x0000145c      0x5ac .\CortexM3\ARM_GCC_473\Debug\ail14_0_Copy_01.a(UART.o)
 .debug_loc     0x00001a08      0x2d0 .\CortexM3\ARM_GCC_473\Debug\ail14_0_Copy_01.a(Timer.o)
 .debug_loc     0x00001cd8       0xc8 .\CortexM3\ARM_GCC_473\Debug\ail14_0_Copy_01.a(DE.o)
 .debug_loc     0x00001da0       0xc8 .\CortexM3\ARM_GCC_473\Debug\ail14_0_Copy_01.a(LED_1.o)
 .debug_loc     0x00001e68       0xc8 .\CortexM3\ARM_GCC_473\Debug\ail14_0_Copy_01.a(LED_2.o)
 .debug_loc     0x00001f30      0x384 .\CortexM3\ARM_GCC_473\Debug\ail14_0_Copy_01.a(PWM_1.o)
 .debug_loc     0x000022b4      0x278 .\CortexM3\ARM_GCC_473\Debug\ail14_0_Copy_01.a(isr_tc.o)
 .debug_loc     0x0000252c      0x258 .\CortexM3\ARM_GCC_473\Debug\ail14_0_Copy_01.a(CyFlash.o)
 .debug_loc     0x00002784      0x230 .\CortexM3\ARM_GCC_473\Debug\ail14_0_Copy_01.a(CySpc.o)

.debug_macinfo
 *(.debug_macinfo)

.debug_ranges   0x00000000      0x6f0
 *(.debug_ranges)
 .debug_ranges  0x00000000       0x48 .\CortexM3\ARM_GCC_473\Debug\main.o
 .debug_ranges  0x00000048       0x30 .\CortexM3\ARM_GCC_473\Debug\Cm3Start.o
 .debug_ranges  0x00000078       0x50 .\CortexM3\ARM_GCC_473\Debug\ail14_0_Copy_01.a(cyfitter_cfg.o)
 .debug_ranges  0x000000c8      0x208 .\CortexM3\ARM_GCC_473\Debug\ail14_0_Copy_01.a(CyLib.o)
 .debug_ranges  0x000002d0       0x80 .\CortexM3\ARM_GCC_473\Debug\ail14_0_Copy_01.a(cyPm.o)
 .debug_ranges  0x00000350       0xe0 .\CortexM3\ARM_GCC_473\Debug\ail14_0_Copy_01.a(UART.o)
 .debug_ranges  0x00000430       0x80 .\CortexM3\ARM_GCC_473\Debug\ail14_0_Copy_01.a(Timer.o)
 .debug_ranges  0x000004b0       0x28 .\CortexM3\ARM_GCC_473\Debug\ail14_0_Copy_01.a(DE.o)
 .debug_ranges  0x000004d8       0x28 .\CortexM3\ARM_GCC_473\Debug\ail14_0_Copy_01.a(LED_1.o)
 .debug_ranges  0x00000500       0x28 .\CortexM3\ARM_GCC_473\Debug\ail14_0_Copy_01.a(LED_2.o)
 .debug_ranges  0x00000528       0x98 .\CortexM3\ARM_GCC_473\Debug\ail14_0_Copy_01.a(PWM_1.o)
 .debug_ranges  0x000005c0       0x70 .\CortexM3\ARM_GCC_473\Debug\ail14_0_Copy_01.a(isr_tc.o)
 .debug_ranges  0x00000630       0x68 .\CortexM3\ARM_GCC_473\Debug\ail14_0_Copy_01.a(CyFlash.o)
 .debug_ranges  0x00000698       0x58 .\CortexM3\ARM_GCC_473\Debug\ail14_0_Copy_01.a(CySpc.o)

.comment        0x00000000       0x70
 .comment       0x00000000       0x70 .\CortexM3\ARM_GCC_473\Debug\main.o
                                 0x71 (size before relaxing)
 .comment       0x00000000       0x71 .\CortexM3\ARM_GCC_473\Debug\cymetadata.o
 .comment       0x00000000       0x71 .\CortexM3\ARM_GCC_473\Debug\Cm3Start.o
 .comment       0x00000000       0x71 .\CortexM3\ARM_GCC_473\Debug\ail14_0_Copy_01.a(cyfitter_cfg.o)
 .comment       0x00000000       0x71 .\CortexM3\ARM_GCC_473\Debug\ail14_0_Copy_01.a(CyLib.o)
 .comment       0x00000000       0x71 .\CortexM3\ARM_GCC_473\Debug\ail14_0_Copy_01.a(cyPm.o)
 .comment       0x00000000       0x71 .\CortexM3\ARM_GCC_473\Debug\ail14_0_Copy_01.a(UART.o)
 .comment       0x00000000       0x71 .\CortexM3\ARM_GCC_473\Debug\ail14_0_Copy_01.a(Timer.o)
 .comment       0x00000000       0x71 .\CortexM3\ARM_GCC_473\Debug\ail14_0_Copy_01.a(DE.o)
 .comment       0x00000000       0x71 .\CortexM3\ARM_GCC_473\Debug\ail14_0_Copy_01.a(LED_1.o)
 .comment       0x00000000       0x71 .\CortexM3\ARM_GCC_473\Debug\ail14_0_Copy_01.a(LED_2.o)
 .comment       0x00000000       0x71 .\CortexM3\ARM_GCC_473\Debug\ail14_0_Copy_01.a(PWM_1.o)
 .comment       0x00000000       0x71 .\CortexM3\ARM_GCC_473\Debug\ail14_0_Copy_01.a(isr_tc.o)
 .comment       0x00000000       0x71 .\CortexM3\ARM_GCC_473\Debug\ail14_0_Copy_01.a(CyFlash.o)
 .comment       0x00000000       0x71 .\CortexM3\ARM_GCC_473\Debug\ail14_0_Copy_01.a(CySpc.o)

.debug_weaknames
 *(.debug_weaknames)

.debug_funcnames
 *(.debug_funcnames)

.debug_typenames
 *(.debug_typenames)

.debug_varnames
 *(.debug_varnames)

.note.gnu.arm.ident
 *(.note.gnu.arm.ident)

.ARM.attributes
                0x00000000       0x29
 *(.ARM.attributes)
 .ARM.attributes
                0x00000000       0x1d c:/program files/cypress/psoc creator/3.0/psoc creator/import/gnu_cs/arm/4.7.3/bin/../lib/gcc/arm-none-eabi/4.7.3/armv7-m/crti.o
 .ARM.attributes
                0x0000001d       0x2d c:/program files/cypress/psoc creator/3.0/psoc creator/import/gnu_cs/arm/4.7.3/bin/../lib/gcc/arm-none-eabi/4.7.3/armv7-m/crtbegin.o
 .ARM.attributes
                0x0000004a       0x1b c:/program files/cypress/psoc creator/3.0/psoc creator/import/gnu_cs/arm/4.7.3/bin/../lib/gcc/arm-none-eabi/4.7.3/../../../../arm-none-eabi/lib/armv7-m/crt0.o
 .ARM.attributes
                0x00000065       0x33 .\CortexM3\ARM_GCC_473\Debug\main.o
 .ARM.attributes
                0x00000098       0x33 .\CortexM3\ARM_GCC_473\Debug\cymetadata.o
 .ARM.attributes
                0x000000cb       0x33 .\CortexM3\ARM_GCC_473\Debug\Cm3Start.o
 .ARM.attributes
                0x000000fe       0x33 .\CortexM3\ARM_GCC_473\Debug\ail14_0_Copy_01.a(cyfitter_cfg.o)
 .ARM.attributes
                0x00000131       0x21 .\CortexM3\ARM_GCC_473\Debug\ail14_0_Copy_01.a(CyBootAsmGnu.o)
 .ARM.attributes
                0x00000152       0x33 .\CortexM3\ARM_GCC_473\Debug\ail14_0_Copy_01.a(CyLib.o)
 .ARM.attributes
                0x00000185       0x33 .\CortexM3\ARM_GCC_473\Debug\ail14_0_Copy_01.a(cyPm.o)
 .ARM.attributes
                0x000001b8       0x33 .\CortexM3\ARM_GCC_473\Debug\ail14_0_Copy_01.a(UART.o)
 .ARM.attributes
                0x000001eb       0x33 .\CortexM3\ARM_GCC_473\Debug\ail14_0_Copy_01.a(Timer.o)
 .ARM.attributes
                0x0000021e       0x33 .\CortexM3\ARM_GCC_473\Debug\ail14_0_Copy_01.a(DE.o)
 .ARM.attributes
                0x00000251       0x33 .\CortexM3\ARM_GCC_473\Debug\ail14_0_Copy_01.a(LED_1.o)
 .ARM.attributes
                0x00000284       0x33 .\CortexM3\ARM_GCC_473\Debug\ail14_0_Copy_01.a(LED_2.o)
 .ARM.attributes
                0x000002b7       0x33 .\CortexM3\ARM_GCC_473\Debug\ail14_0_Copy_01.a(PWM_1.o)
 .ARM.attributes
                0x000002ea       0x33 .\CortexM3\ARM_GCC_473\Debug\ail14_0_Copy_01.a(isr_tc.o)
 .ARM.attributes
                0x0000031d       0x33 .\CortexM3\ARM_GCC_473\Debug\ail14_0_Copy_01.a(CyFlash.o)
 .ARM.attributes
                0x00000350       0x33 .\CortexM3\ARM_GCC_473\Debug\ail14_0_Copy_01.a(CySpc.o)
 .ARM.attributes
                0x00000383       0x2d c:/program files/cypress/psoc creator/3.0/psoc creator/import/gnu_cs/arm/4.7.3/bin/../lib/gcc/arm-none-eabi/4.7.3/../../../../arm-none-eabi/lib/armv7-m\libc_s.a(lib_a-__atexit2.o)
 .ARM.attributes
                0x000003b0       0x2d c:/program files/cypress/psoc creator/3.0/psoc creator/import/gnu_cs/arm/4.7.3/bin/../lib/gcc/arm-none-eabi/4.7.3/../../../../arm-none-eabi/lib/armv7-m\libc_s.a(lib_a-exit.o)
 .ARM.attributes
                0x000003dd       0x2d c:/program files/cypress/psoc creator/3.0/psoc creator/import/gnu_cs/arm/4.7.3/bin/../lib/gcc/arm-none-eabi/4.7.3/../../../../arm-none-eabi/lib/armv7-m\libc_s.a(lib_a-fini.o)
 .ARM.attributes
                0x0000040a       0x2d c:/program files/cypress/psoc creator/3.0/psoc creator/import/gnu_cs/arm/4.7.3/bin/../lib/gcc/arm-none-eabi/4.7.3/../../../../arm-none-eabi/lib/armv7-m\libc_s.a(lib_a-impure.o)
 .ARM.attributes
                0x00000437       0x2d c:/program files/cypress/psoc creator/3.0/psoc creator/import/gnu_cs/arm/4.7.3/bin/../lib/gcc/arm-none-eabi/4.7.3/../../../../arm-none-eabi/lib/armv7-m\libc_s.a(lib_a-init.o)
 .ARM.attributes
                0x00000464       0x2d c:/program files/cypress/psoc creator/3.0/psoc creator/import/gnu_cs/arm/4.7.3/bin/../lib/gcc/arm-none-eabi/4.7.3/../../../../arm-none-eabi/lib/armv7-m\libc_s.a(lib_a-memcpy.o)
 .ARM.attributes
                0x00000491       0x2d c:/program files/cypress/psoc creator/3.0/psoc creator/import/gnu_cs/arm/4.7.3/bin/../lib/gcc/arm-none-eabi/4.7.3/../../../../arm-none-eabi/lib/armv7-m\libc_s.a(lib_a-memset.o)
 .ARM.attributes
                0x000004be       0x2d c:/program files/cypress/psoc creator/3.0/psoc creator/import/gnu_cs/arm/4.7.3/bin/../lib/gcc/arm-none-eabi/4.7.3/armv7-m/crtend.o
 .ARM.attributes
                0x000004eb       0x1d c:/program files/cypress/psoc creator/3.0/psoc creator/import/gnu_cs/arm/4.7.3/bin/../lib/gcc/arm-none-eabi/4.7.3/armv7-m/crtn.o

/DISCARD/
 *(.note.GNU-stack)
OUTPUT(.\CortexM3\ARM_GCC_473\Debug\ail14_0_Copy_01.elf elf32-littlearm)
