ARM GAS  C:\Users\Kenichi\AppData\Local\Temp\ccCec8FA.s 			page 1


   1              		.syntax unified
   2              		.cpu cortex-m3
   3              		.fpu softvfp
   4              		.eabi_attribute 20, 1
   5              		.eabi_attribute 21, 1
   6              		.eabi_attribute 23, 3
   7              		.eabi_attribute 24, 1
   8              		.eabi_attribute 25, 1
   9              		.eabi_attribute 26, 1
  10              		.eabi_attribute 30, 6
  11              		.eabi_attribute 34, 1
  12              		.eabi_attribute 18, 4
  13              		.thumb
  14              		.file	"main.c"
  15              		.text
  16              	.Ltext0:
  17              		.cfi_sections	.debug_frame
  18              		.comm	aileron_buffer,4,4
  19              		.comm	pak,6,4
  20              		.section	.text.main,"ax",%progbits
  21              		.align	2
  22              		.global	main
  23              		.thumb
  24              		.thumb_func
  25              		.type	main, %function
  26              	main:
  27              	.LFB56:
  28              		.file 1 ".\\main.c"
   1:.\main.c      **** /* ========================================
   2:.\main.c      ****  * aileron14 version 1.0 2014/4/19
   3:.\main.c      ****  * 1...right 2...left
   4:.\main.c      ****  *
   5:.\main.c      ****  * 元ファイルです
   6:.\main.c      ****  * ========================================
   7:.\main.c      **** */
   8:.\main.c      **** #include <project.h>
   9:.\main.c      **** 
  10:.\main.c      **** #define WRITE()		DE_Write(1)
  11:.\main.c      **** #define	READ()		DE_Write(0)
  12:.\main.c      **** 
  13:.\main.c      **** #define	RS485_PACKET_LENGTH	(6)
  14:.\main.c      **** 
  15:.\main.c      **** typedef union _tagRS485_PACKET {
  16:.\main.c      **** 	struct {
  17:.\main.c      **** 		unsigned char bStatus;
  18:.\main.c      **** 		unsigned char bCheckSum;
  19:.\main.c      **** 		unsigned short wData[2];
  20:.\main.c      **** 	} _pak;
  21:.\main.c      **** 	unsigned char _byte[RS485_PACKET_LENGTH];
  22:.\main.c      **** } PACKET;
  23:.\main.c      **** 
  24:.\main.c      **** void rs485_Start(void);
  25:.\main.c      **** void rs485_isr(void);
  26:.\main.c      **** char rs485_CheckPacket(char, PACKET*);
  27:.\main.c      **** char CheckValid(PACKET *);
  28:.\main.c      **** void Servo_Start(void);
  29:.\main.c      **** void Terminal_Count_ISR(void);
ARM GAS  C:\Users\Kenichi\AppData\Local\Temp\ccCec8FA.s 			page 2


  30:.\main.c      **** unsigned int FormatValueAil(float);
  31:.\main.c      **** 
  32:.\main.c      **** #define	PACKET_ENDIANCHANGE(x)	{\
  33:.\main.c      **** 	char temp; \
  34:.\main.c      **** 	temp = x->_byte[2]; \
  35:.\main.c      **** 	x->_byte[2] = x->_byte[3]; \
  36:.\main.c      **** 	x->_byte[3] = temp; \
  37:.\main.c      **** 	temp = x->_byte[4]; \
  38:.\main.c      **** 	x->_byte[4] = x->_byte[5]; \
  39:.\main.c      **** 	x->_byte[5] = temp; \
  40:.\main.c      **** 	}
  41:.\main.c      **** 
  42:.\main.c      **** //Global variable here.
  43:.\main.c      **** 
  44:.\main.c      **** unsigned int aileron_buffer;
  45:.\main.c      **** PACKET pak;
  46:.\main.c      **** 
  47:.\main.c      **** void main(){ 
  29              		.loc 1 47 0
  30              		.cfi_startproc
  31              		@ args = 0, pretend = 0, frame = 0
  32              		@ frame_needed = 1, uses_anonymous_args = 0
  33 0000 80B5     		push	{r7, lr}
  34              	.LCFI0:
  35              		.cfi_def_cfa_offset 8
  36              		.cfi_offset 7, -8
  37              		.cfi_offset 14, -4
  38 0002 00AF     		add	r7, sp, #0
  39              	.LCFI1:
  40              		.cfi_def_cfa_register 7
  48:.\main.c      ****     
  49:.\main.c      ****     rs485_Start();   
  41              		.loc 1 49 0
  42 0004 FFF7FEFF 		bl	rs485_Start
  50:.\main.c      ****     Servo_Start();
  43              		.loc 1 50 0
  44 0008 FFF7FEFF 		bl	Servo_Start
  51:.\main.c      ****     CyGlobalIntEnable;  // Uncomment this line to enable global interrupts. 
  45              		.loc 1 51 0
  46              	@ 51 ".\main.c" 1
  47 000c 62B6     		CPSIE   i
  48              	@ 0 "" 2
  49              		.thumb
  50              	.L5:
  52:.\main.c      **** 	while(1) {
  53:.\main.c      **** 		if(rs485_CheckPacket(0x3c, &pak)==0) {
  51              		.loc 1 53 0
  52 000e 4FF03C00 		mov	r0, #60
  53 0012 40F20001 		movw	r1, #:lower16:pak
  54 0016 C0F20001 		movt	r1, #:upper16:pak
  55 001a FFF7FEFF 		bl	rs485_CheckPacket
  56 001e 0346     		mov	r3, r0
  57 0020 002B     		cmp	r3, #0
  58 0022 2DD1     		bne	.L2
  54:.\main.c      ****             LED_2_Write(1);
  59              		.loc 1 54 0
  60 0024 4FF00100 		mov	r0, #1
ARM GAS  C:\Users\Kenichi\AppData\Local\Temp\ccCec8FA.s 			page 3


  61 0028 FFF7FEFF 		bl	LED_2_Write
  55:.\main.c      ****             LED_1_Write(0);
  62              		.loc 1 55 0
  63 002c 4FF00000 		mov	r0, #0
  64 0030 FFF7FEFF 		bl	LED_1_Write
  56:.\main.c      ****             if(CheckValid(&pak)==1) {
  65              		.loc 1 56 0
  66 0034 40F20000 		movw	r0, #:lower16:pak
  67 0038 C0F20000 		movt	r0, #:upper16:pak
  68 003c FFF7FEFF 		bl	CheckValid
  69 0040 0346     		mov	r3, r0
  70 0042 012B     		cmp	r3, #1
  71 0044 13D1     		bne	.L3
  57:.\main.c      ****                 aileron_buffer = pak._pak.wData[0];
  72              		.loc 1 57 0
  73 0046 40F20003 		movw	r3, #:lower16:pak
  74 004a C0F20003 		movt	r3, #:upper16:pak
  75 004e 5B88     		ldrh	r3, [r3, #2]
  76 0050 1A46     		mov	r2, r3
  77 0052 40F20003 		movw	r3, #:lower16:aileron_buffer
  78 0056 C0F20003 		movt	r3, #:upper16:aileron_buffer
  79 005a 1A60     		str	r2, [r3, #0]
  58:.\main.c      ****                 LED_2_Write(0);
  80              		.loc 1 58 0
  81 005c 4FF00000 		mov	r0, #0
  82 0060 FFF7FEFF 		bl	LED_2_Write
  59:.\main.c      ****                 LED_1_Write(0);
  83              		.loc 1 59 0
  84 0064 4FF00000 		mov	r0, #0
  85 0068 FFF7FEFF 		bl	LED_1_Write
  60:.\main.c      ****             } else {
  61:.\main.c      ****                 LED_2_Write(1);
  62:.\main.c      ****                 LED_1_Write(1);
  63:.\main.c      ****             }
  64:.\main.c      ****         } else {
  65:.\main.c      ****             LED_2_Write(1);
  66:.\main.c      ****             LED_1_Write(1);
  67:.\main.c      ****         } 
  68:.\main.c      **** 	}
  86              		.loc 1 68 0
  87 006c CFE7     		b	.L5
  88              	.L3:
  61:.\main.c      ****                 LED_2_Write(1);
  89              		.loc 1 61 0
  90 006e 4FF00100 		mov	r0, #1
  91 0072 FFF7FEFF 		bl	LED_2_Write
  62:.\main.c      ****                 LED_1_Write(1);
  92              		.loc 1 62 0
  93 0076 4FF00100 		mov	r0, #1
  94 007a FFF7FEFF 		bl	LED_1_Write
  95              		.loc 1 68 0
  96 007e C6E7     		b	.L5
  97              	.L2:
  65:.\main.c      ****             LED_2_Write(1);
  98              		.loc 1 65 0
  99 0080 4FF00100 		mov	r0, #1
 100 0084 FFF7FEFF 		bl	LED_2_Write
ARM GAS  C:\Users\Kenichi\AppData\Local\Temp\ccCec8FA.s 			page 4


  66:.\main.c      ****             LED_1_Write(1);
 101              		.loc 1 66 0
 102 0088 4FF00100 		mov	r0, #1
 103 008c FFF7FEFF 		bl	LED_1_Write
 104              		.loc 1 68 0
 105 0090 BDE7     		b	.L5
 106              		.cfi_endproc
 107              	.LFE56:
 108              		.size	main, .-main
 109 0092 00BF     		.section	.text.Timer_Set,"ax",%progbits
 110              		.align	2
 111              		.global	Timer_Set
 112              		.thumb
 113              		.thumb_func
 114              		.type	Timer_Set, %function
 115              	Timer_Set:
 116              	.LFB57:
  69:.\main.c      ****     return;
  70:.\main.c      **** }
  71:.\main.c      **** 
  72:.\main.c      **** void Timer_Set(unsigned int ms){
 117              		.loc 1 72 0
 118              		.cfi_startproc
 119              		@ args = 0, pretend = 0, frame = 8
 120              		@ frame_needed = 1, uses_anonymous_args = 0
 121 0000 80B5     		push	{r7, lr}
 122              	.LCFI2:
 123              		.cfi_def_cfa_offset 8
 124              		.cfi_offset 7, -8
 125              		.cfi_offset 14, -4
 126 0002 82B0     		sub	sp, sp, #8
 127              	.LCFI3:
 128              		.cfi_def_cfa_offset 16
 129 0004 00AF     		add	r7, sp, #0
 130              	.LCFI4:
 131              		.cfi_def_cfa_register 7
 132 0006 7860     		str	r0, [r7, #4]
  73:.\main.c      **** 	Timer_WriteCounter(ms);
 133              		.loc 1 73 0
 134 0008 7B68     		ldr	r3, [r7, #4]
 135 000a 9BB2     		uxth	r3, r3
 136 000c 1846     		mov	r0, r3
 137 000e FFF7FEFF 		bl	Timer_WriteCounter
  74:.\main.c      **** 	return;
 138              		.loc 1 74 0
 139 0012 00BF     		nop
  75:.\main.c      **** }
 140              		.loc 1 75 0
 141 0014 07F10807 		add	r7, r7, #8
 142 0018 BD46     		mov	sp, r7
 143 001a 80BD     		pop	{r7, pc}
 144              		.cfi_endproc
 145              	.LFE57:
 146              		.size	Timer_Set, .-Timer_Set
 147              		.section	.text.Timer_Delayus,"ax",%progbits
 148              		.align	2
 149              		.global	Timer_Delayus
ARM GAS  C:\Users\Kenichi\AppData\Local\Temp\ccCec8FA.s 			page 5


 150              		.thumb
 151              		.thumb_func
 152              		.type	Timer_Delayus, %function
 153              	Timer_Delayus:
 154              	.LFB58:
  76:.\main.c      **** 
  77:.\main.c      **** void Timer_Delayus(unsigned int us){
 155              		.loc 1 77 0
 156              		.cfi_startproc
 157              		@ args = 0, pretend = 0, frame = 8
 158              		@ frame_needed = 1, uses_anonymous_args = 0
 159 0000 80B5     		push	{r7, lr}
 160              	.LCFI5:
 161              		.cfi_def_cfa_offset 8
 162              		.cfi_offset 7, -8
 163              		.cfi_offset 14, -4
 164 0002 82B0     		sub	sp, sp, #8
 165              	.LCFI6:
 166              		.cfi_def_cfa_offset 16
 167 0004 00AF     		add	r7, sp, #0
 168              	.LCFI7:
 169              		.cfi_def_cfa_register 7
 170 0006 7860     		str	r0, [r7, #4]
  78:.\main.c      **** 	Timer_Set(us + 50);
 171              		.loc 1 78 0
 172 0008 7B68     		ldr	r3, [r7, #4]
 173 000a 03F13203 		add	r3, r3, #50
 174 000e 1846     		mov	r0, r3
 175 0010 FFF7FEFF 		bl	Timer_Set
  79:.\main.c      **** 	while(Timer_ReadCounter() > 50) {}
 176              		.loc 1 79 0
 177 0014 00BF     		nop
 178              	.L9:
 179              		.loc 1 79 0 is_stmt 0 discriminator 1
 180 0016 FFF7FEFF 		bl	Timer_ReadCounter
 181 001a 0346     		mov	r3, r0
 182 001c 322B     		cmp	r3, #50
 183 001e FAD8     		bhi	.L9
  80:.\main.c      **** 	return;
 184              		.loc 1 80 0 is_stmt 1
 185 0020 00BF     		nop
  81:.\main.c      **** }
 186              		.loc 1 81 0
 187 0022 07F10807 		add	r7, r7, #8
 188 0026 BD46     		mov	sp, r7
 189 0028 80BD     		pop	{r7, pc}
 190              		.cfi_endproc
 191              	.LFE58:
 192              		.size	Timer_Delayus, .-Timer_Delayus
 193 002a 00BF     		.section	.text.rs485_Start,"ax",%progbits
 194              		.align	2
 195              		.global	rs485_Start
 196              		.thumb
 197              		.thumb_func
 198              		.type	rs485_Start, %function
 199              	rs485_Start:
 200              	.LFB59:
ARM GAS  C:\Users\Kenichi\AppData\Local\Temp\ccCec8FA.s 			page 6


  82:.\main.c      **** 
  83:.\main.c      **** void rs485_Start(void){
 201              		.loc 1 83 0
 202              		.cfi_startproc
 203              		@ args = 0, pretend = 0, frame = 0
 204              		@ frame_needed = 1, uses_anonymous_args = 0
 205 0000 80B5     		push	{r7, lr}
 206              	.LCFI8:
 207              		.cfi_def_cfa_offset 8
 208              		.cfi_offset 7, -8
 209              		.cfi_offset 14, -4
 210 0002 00AF     		add	r7, sp, #0
 211              	.LCFI9:
 212              		.cfi_def_cfa_register 7
  84:.\main.c      **** 	UART_Start();
 213              		.loc 1 84 0
 214 0004 FFF7FEFF 		bl	UART_Start
  85:.\main.c      **** 	Timer_Start();
 215              		.loc 1 85 0
 216 0008 FFF7FEFF 		bl	Timer_Start
  86:.\main.c      **** 	return;
 217              		.loc 1 86 0
 218 000c 00BF     		nop
  87:.\main.c      **** }
 219              		.loc 1 87 0
 220 000e 80BD     		pop	{r7, pc}
 221              		.cfi_endproc
 222              	.LFE59:
 223              		.size	rs485_Start, .-rs485_Start
 224              		.section	.text.rs485_CheckPacket,"ax",%progbits
 225              		.align	2
 226              		.global	rs485_CheckPacket
 227              		.thumb
 228              		.thumb_func
 229              		.type	rs485_CheckPacket, %function
 230              	rs485_CheckPacket:
 231              	.LFB60:
  88:.\main.c      **** 
  89:.\main.c      **** /*
  90:.\main.c      ****  * rs485_CheckPacket
  91:.\main.c      ****  * 複数アドレス対応版 ビット3-6が一致で応答
  92:.\main.c      ****  * addr : device address (7bit unsigned)
  93:.\main.c      ****  * pak : pointer to PACKET structure
  94:.\main.c      ****  */
  95:.\main.c      **** char rs485_CheckPacket(
  96:.\main.c      **** 	char addr,
  97:.\main.c      **** 	PACKET *pak)
  98:.\main.c      **** {
 232              		.loc 1 98 0
 233              		.cfi_startproc
 234              		@ args = 0, pretend = 0, frame = 16
 235              		@ frame_needed = 1, uses_anonymous_args = 0
 236 0000 90B5     		push	{r4, r7, lr}
 237              	.LCFI10:
 238              		.cfi_def_cfa_offset 12
 239              		.cfi_offset 4, -12
 240              		.cfi_offset 7, -8
ARM GAS  C:\Users\Kenichi\AppData\Local\Temp\ccCec8FA.s 			page 7


 241              		.cfi_offset 14, -4
 242 0002 85B0     		sub	sp, sp, #20
 243              	.LCFI11:
 244              		.cfi_def_cfa_offset 32
 245 0004 00AF     		add	r7, sp, #0
 246              	.LCFI12:
 247              		.cfi_def_cfa_register 7
 248 0006 0346     		mov	r3, r0
 249 0008 3960     		str	r1, [r7, #0]
 250 000a FB71     		strb	r3, [r7, #7]
  99:.\main.c      **** 	char rcv;
 100:.\main.c      **** 	unsigned char i;
 101:.\main.c      **** 	
 102:.\main.c      **** 	if((UART_ReadRxStatus() & UART_RX_STS_FIFO_NOTEMPTY) == 0)
 251              		.loc 1 102 0
 252 000c FFF7FEFF 		bl	UART_ReadRxStatus
 253 0010 0346     		mov	r3, r0
 254 0012 03F02003 		and	r3, r3, #32
 255 0016 002B     		cmp	r3, #0
 256 0018 0AD1     		bne	.L14
 103:.\main.c      **** 	{
 104:.\main.c      ****         LED_1_Write(1);
 257              		.loc 1 104 0
 258 001a 4FF00100 		mov	r0, #1
 259 001e FFF7FEFF 		bl	LED_1_Write
 105:.\main.c      **** 		READ();
 260              		.loc 1 105 0
 261 0022 4FF00000 		mov	r0, #0
 262 0026 FFF7FEFF 		bl	DE_Write
 106:.\main.c      **** 		return 1;
 263              		.loc 1 106 0
 264 002a 4FF00103 		mov	r3, #1
 265 002e BCE0     		b	.L15
 266              	.L14:
 107:.\main.c      **** 	}
 108:.\main.c      **** 	LED_1_Write(1);
 267              		.loc 1 108 0
 268 0030 4FF00100 		mov	r0, #1
 269 0034 FFF7FEFF 		bl	LED_1_Write
 109:.\main.c      **** 	rcv = UART_ReadRxData();
 270              		.loc 1 109 0
 271 0038 FFF7FEFF 		bl	UART_ReadRxData
 272 003c 0346     		mov	r3, r0
 273 003e BB73     		strb	r3, [r7, #14]
 110:.\main.c      **** 	UART_ClearRxBuffer();
 274              		.loc 1 110 0
 275 0040 FFF7FEFF 		bl	UART_ClearRxBuffer
 111:.\main.c      **** 	if(addr != (rcv & 0x7f)){
 276              		.loc 1 111 0
 277 0044 FA79     		ldrb	r2, [r7, #7]	@ zero_extendqisi2
 278 0046 BB7B     		ldrb	r3, [r7, #14]	@ zero_extendqisi2
 279 0048 03F07F03 		and	r3, r3, #127
 280 004c 9A42     		cmp	r2, r3
 281 004e 22D0     		beq	.L16
 112:.\main.c      **** 		Timer_Set(200);
 282              		.loc 1 112 0
 283 0050 4FF0C800 		mov	r0, #200
ARM GAS  C:\Users\Kenichi\AppData\Local\Temp\ccCec8FA.s 			page 8


 284 0054 FFF7FEFF 		bl	Timer_Set
 113:.\main.c      **** 		READ();
 285              		.loc 1 113 0
 286 0058 4FF00000 		mov	r0, #0
 287 005c FFF7FEFF 		bl	DE_Write
 114:.\main.c      **** 		while(Timer_ReadCounter() > 49){
 288              		.loc 1 114 0
 289 0060 0FE0     		b	.L17
 290              	.L18:
 115:.\main.c      **** 			if((UART_ReadRxStatus() & UART_RX_STS_FIFO_NOTEMPTY) != 0){
 291              		.loc 1 115 0
 292 0062 FFF7FEFF 		bl	UART_ReadRxStatus
 293 0066 0346     		mov	r3, r0
 294 0068 03F02003 		and	r3, r3, #32
 295 006c 002B     		cmp	r3, #0
 296 006e 08D0     		beq	.L17
 116:.\main.c      **** 				Timer_Delayus(900);
 297              		.loc 1 116 0
 298 0070 4FF46170 		mov	r0, #900
 299 0074 FFF7FEFF 		bl	Timer_Delayus
 117:.\main.c      **** 				UART_ClearRxBuffer();
 300              		.loc 1 117 0
 301 0078 FFF7FEFF 		bl	UART_ClearRxBuffer
 118:.\main.c      **** 				return 1;
 302              		.loc 1 118 0
 303 007c 4FF00103 		mov	r3, #1
 304 0080 93E0     		b	.L15
 305              	.L17:
 114:.\main.c      **** 		while(Timer_ReadCounter() > 49){
 306              		.loc 1 114 0 discriminator 1
 307 0082 FFF7FEFF 		bl	Timer_ReadCounter
 308 0086 0346     		mov	r3, r0
 309 0088 312B     		cmp	r3, #49
 310 008a EAD8     		bhi	.L18
 119:.\main.c      **** 			}
 120:.\main.c      **** 		}
 121:.\main.c      **** 		UART_ClearRxBuffer();
 311              		.loc 1 121 0
 312 008c FFF7FEFF 		bl	UART_ClearRxBuffer
 122:.\main.c      **** 		return 1;
 313              		.loc 1 122 0
 314 0090 4FF00103 		mov	r3, #1
 315 0094 89E0     		b	.L15
 316              	.L16:
 123:.\main.c      **** 	}
 124:.\main.c      **** 	
 125:.\main.c      ****     LED_1_Write(0);
 317              		.loc 1 125 0
 318 0096 4FF00000 		mov	r0, #0
 319 009a FFF7FEFF 		bl	LED_1_Write
 126:.\main.c      **** 	WRITE();
 320              		.loc 1 126 0
 321 009e 4FF00100 		mov	r0, #1
 322 00a2 FFF7FEFF 		bl	DE_Write
 127:.\main.c      **** 	UART_PutChar(addr);
 323              		.loc 1 127 0
 324 00a6 FB79     		ldrb	r3, [r7, #7]	@ zero_extendqisi2
ARM GAS  C:\Users\Kenichi\AppData\Local\Temp\ccCec8FA.s 			page 9


 325 00a8 1846     		mov	r0, r3
 326 00aa FFF7FEFF 		bl	UART_PutChar
 128:.\main.c      **** 	while(!(UART_ReadTxStatus() & UART_TX_STS_COMPLETE)) {}
 327              		.loc 1 128 0
 328 00ae 00BF     		nop
 329              	.L19:
 330              		.loc 1 128 0 is_stmt 0 discriminator 1
 331 00b0 FFF7FEFF 		bl	UART_ReadTxStatus
 332 00b4 0346     		mov	r3, r0
 333 00b6 03F00103 		and	r3, r3, #1
 334 00ba 002B     		cmp	r3, #0
 335 00bc F8D0     		beq	.L19
 129:.\main.c      **** 	UART_ClearRxBuffer();
 336              		.loc 1 129 0 is_stmt 1
 337 00be FFF7FEFF 		bl	UART_ClearRxBuffer
 130:.\main.c      **** 	
 131:.\main.c      **** 	if(rcv & 0x80){
 338              		.loc 1 131 0
 339 00c2 BB7B     		ldrb	r3, [r7, #14]	@ zero_extendqisi2
 340 00c4 5BB2     		sxtb	r3, r3
 341 00c6 002B     		cmp	r3, #0
 342 00c8 2FDA     		bge	.L20
 343              	.LBB2:
 132:.\main.c      **** 		// send data to master
 133:.\main.c      **** 		PACKET_ENDIANCHANGE(pak);
 344              		.loc 1 133 0
 345 00ca 3B68     		ldr	r3, [r7, #0]
 346 00cc 9B78     		ldrb	r3, [r3, #2]
 347 00ce 7B73     		strb	r3, [r7, #13]
 348 00d0 3B68     		ldr	r3, [r7, #0]
 349 00d2 DA78     		ldrb	r2, [r3, #3]	@ zero_extendqisi2
 350 00d4 3B68     		ldr	r3, [r7, #0]
 351 00d6 9A70     		strb	r2, [r3, #2]
 352 00d8 3B68     		ldr	r3, [r7, #0]
 353 00da 7A7B     		ldrb	r2, [r7, #13]
 354 00dc DA70     		strb	r2, [r3, #3]
 355 00de 3B68     		ldr	r3, [r7, #0]
 356 00e0 1B79     		ldrb	r3, [r3, #4]
 357 00e2 7B73     		strb	r3, [r7, #13]
 358 00e4 3B68     		ldr	r3, [r7, #0]
 359 00e6 5A79     		ldrb	r2, [r3, #5]	@ zero_extendqisi2
 360 00e8 3B68     		ldr	r3, [r7, #0]
 361 00ea 1A71     		strb	r2, [r3, #4]
 362 00ec 3B68     		ldr	r3, [r7, #0]
 363 00ee 7A7B     		ldrb	r2, [r7, #13]
 364 00f0 5A71     		strb	r2, [r3, #5]
 365              	.LBE2:
 134:.\main.c      **** 		for(i = 0; i < 6; i++){
 366              		.loc 1 134 0
 367 00f2 4FF00003 		mov	r3, #0
 368 00f6 FB73     		strb	r3, [r7, #15]
 369 00f8 13E0     		b	.L21
 370              	.L23:
 135:.\main.c      **** 			UART_PutChar(pak->_byte[i]);
 371              		.loc 1 135 0
 372 00fa FB7B     		ldrb	r3, [r7, #15]	@ zero_extendqisi2
 373 00fc 3A68     		ldr	r2, [r7, #0]
ARM GAS  C:\Users\Kenichi\AppData\Local\Temp\ccCec8FA.s 			page 10


 374 00fe D35C     		ldrb	r3, [r2, r3]	@ zero_extendqisi2
 375 0100 1846     		mov	r0, r3
 376 0102 FFF7FEFF 		bl	UART_PutChar
 136:.\main.c      **** 			while(!(UART_ReadTxStatus() & UART_TX_STS_COMPLETE)) {}
 377              		.loc 1 136 0
 378 0106 00BF     		nop
 379              	.L22:
 380              		.loc 1 136 0 is_stmt 0 discriminator 1
 381 0108 FFF7FEFF 		bl	UART_ReadTxStatus
 382 010c 0346     		mov	r3, r0
 383 010e 03F00103 		and	r3, r3, #1
 384 0112 002B     		cmp	r3, #0
 385 0114 F8D0     		beq	.L22
 137:.\main.c      **** 			UART_ClearRxBuffer();
 386              		.loc 1 137 0 is_stmt 1
 387 0116 FFF7FEFF 		bl	UART_ClearRxBuffer
 134:.\main.c      **** 		for(i = 0; i < 6; i++){
 388              		.loc 1 134 0
 389 011a FB7B     		ldrb	r3, [r7, #15]
 390 011c 03F10103 		add	r3, r3, #1
 391 0120 FB73     		strb	r3, [r7, #15]
 392              	.L21:
 134:.\main.c      **** 		for(i = 0; i < 6; i++){
 393              		.loc 1 134 0 is_stmt 0 discriminator 1
 394 0122 FB7B     		ldrb	r3, [r7, #15]	@ zero_extendqisi2
 395 0124 052B     		cmp	r3, #5
 396 0126 E8D9     		bls	.L23
 134:.\main.c      **** 		for(i = 0; i < 6; i++){
 397              		.loc 1 134 0
 398 0128 27E0     		b	.L24
 399              	.L20:
 138:.\main.c      **** 		}
 139:.\main.c      **** 	}
 140:.\main.c      **** 	else{
 141:.\main.c      **** 		// receive data from master
 142:.\main.c      **** 		READ();
 400              		.loc 1 142 0 is_stmt 1
 401 012a 4FF00000 		mov	r0, #0
 402 012e FFF7FEFF 		bl	DE_Write
 143:.\main.c      **** 		Timer_Set(1010);
 403              		.loc 1 143 0
 404 0132 40F2F230 		movw	r0, #1010
 405 0136 FFF7FEFF 		bl	Timer_Set
 144:.\main.c      **** 		i = 0;
 406              		.loc 1 144 0
 407 013a 4FF00003 		mov	r3, #0
 408 013e FB73     		strb	r3, [r7, #15]
 145:.\main.c      **** 		while((i < 6) && (Timer_ReadCounter() > 10)){
 409              		.loc 1 145 0
 410 0140 13E0     		b	.L25
 411              	.L26:
 146:.\main.c      **** 			if(UART_ReadRxStatus() & UART_RX_STS_FIFO_NOTEMPTY){
 412              		.loc 1 146 0
 413 0142 FFF7FEFF 		bl	UART_ReadRxStatus
 414 0146 0346     		mov	r3, r0
 415 0148 03F02003 		and	r3, r3, #32
 416 014c 002B     		cmp	r3, #0
ARM GAS  C:\Users\Kenichi\AppData\Local\Temp\ccCec8FA.s 			page 11


 417 014e 0CD0     		beq	.L25
 147:.\main.c      **** 				pak->_byte[i++] = UART_ReadRxData();
 418              		.loc 1 147 0
 419 0150 FC7B     		ldrb	r4, [r7, #15]	@ zero_extendqisi2
 420 0152 FFF7FEFF 		bl	UART_ReadRxData
 421 0156 0346     		mov	r3, r0
 422 0158 1A46     		mov	r2, r3
 423 015a 3B68     		ldr	r3, [r7, #0]
 424 015c 1A55     		strb	r2, [r3, r4]
 425 015e FB7B     		ldrb	r3, [r7, #15]
 426 0160 03F10103 		add	r3, r3, #1
 427 0164 FB73     		strb	r3, [r7, #15]
 148:.\main.c      **** 				UART_ClearRxBuffer();
 428              		.loc 1 148 0
 429 0166 FFF7FEFF 		bl	UART_ClearRxBuffer
 430              	.L25:
 145:.\main.c      **** 		while((i < 6) && (Timer_ReadCounter() > 10)){
 431              		.loc 1 145 0 discriminator 1
 432 016a FB7B     		ldrb	r3, [r7, #15]	@ zero_extendqisi2
 433 016c 052B     		cmp	r3, #5
 434 016e 04D8     		bhi	.L24
 145:.\main.c      **** 		while((i < 6) && (Timer_ReadCounter() > 10)){
 435              		.loc 1 145 0 is_stmt 0 discriminator 2
 436 0170 FFF7FEFF 		bl	Timer_ReadCounter
 437 0174 0346     		mov	r3, r0
 438 0176 0A2B     		cmp	r3, #10
 439 0178 E3D8     		bhi	.L26
 440              	.L24:
 149:.\main.c      **** 			}
 150:.\main.c      **** 		}
 151:.\main.c      **** 		//PACKET_ENDIANCHANGE(pak);
 152:.\main.c      **** 	}
 153:.\main.c      **** 	WRITE();
 441              		.loc 1 153 0 is_stmt 1
 442 017a 4FF00100 		mov	r0, #1
 443 017e FFF7FEFF 		bl	DE_Write
 154:.\main.c      **** 	UART_PutChar(addr);
 444              		.loc 1 154 0
 445 0182 FB79     		ldrb	r3, [r7, #7]	@ zero_extendqisi2
 446 0184 1846     		mov	r0, r3
 447 0186 FFF7FEFF 		bl	UART_PutChar
 155:.\main.c      **** 	while(!(UART_ReadTxStatus() & UART_TX_STS_COMPLETE)) {}
 448              		.loc 1 155 0
 449 018a 00BF     		nop
 450              	.L27:
 451              		.loc 1 155 0 is_stmt 0 discriminator 1
 452 018c FFF7FEFF 		bl	UART_ReadTxStatus
 453 0190 0346     		mov	r3, r0
 454 0192 03F00103 		and	r3, r3, #1
 455 0196 002B     		cmp	r3, #0
 456 0198 F8D0     		beq	.L27
 156:.\main.c      **** 	UART_ClearRxBuffer();
 457              		.loc 1 156 0 is_stmt 1
 458 019a FFF7FEFF 		bl	UART_ClearRxBuffer
 157:.\main.c      **** 	READ();
 459              		.loc 1 157 0
 460 019e 4FF00000 		mov	r0, #0
ARM GAS  C:\Users\Kenichi\AppData\Local\Temp\ccCec8FA.s 			page 12


 461 01a2 FFF7FEFF 		bl	DE_Write
 158:.\main.c      **** 	return 0;
 462              		.loc 1 158 0
 463 01a6 4FF00003 		mov	r3, #0
 464              	.L15:
 159:.\main.c      **** }
 465              		.loc 1 159 0
 466 01aa 1846     		mov	r0, r3
 467 01ac 07F11407 		add	r7, r7, #20
 468 01b0 BD46     		mov	sp, r7
 469 01b2 90BD     		pop	{r4, r7, pc}
 470              		.cfi_endproc
 471              	.LFE60:
 472              		.size	rs485_CheckPacket, .-rs485_CheckPacket
 473              		.section	.text.CheckValid,"ax",%progbits
 474              		.align	2
 475              		.global	CheckValid
 476              		.thumb
 477              		.thumb_func
 478              		.type	CheckValid, %function
 479              	CheckValid:
 480              	.LFB61:
 160:.\main.c      **** 
 161:.\main.c      **** char CheckValid(PACKET *pak){
 481              		.loc 1 161 0
 482              		.cfi_startproc
 483              		@ args = 0, pretend = 0, frame = 16
 484              		@ frame_needed = 1, uses_anonymous_args = 0
 485              		@ link register save eliminated.
 486 0000 80B4     		push	{r7}
 487              	.LCFI13:
 488              		.cfi_def_cfa_offset 4
 489              		.cfi_offset 7, -4
 490 0002 85B0     		sub	sp, sp, #20
 491              	.LCFI14:
 492              		.cfi_def_cfa_offset 24
 493 0004 00AF     		add	r7, sp, #0
 494              	.LCFI15:
 495              		.cfi_def_cfa_register 7
 496 0006 7860     		str	r0, [r7, #4]
 162:.\main.c      ****     unsigned char sum = 0;
 497              		.loc 1 162 0
 498 0008 4FF00003 		mov	r3, #0
 499 000c FB73     		strb	r3, [r7, #15]
 163:.\main.c      ****     int i;
 164:.\main.c      ****     
 165:.\main.c      ****     for(i = 0; i < 4; i++){
 500              		.loc 1 165 0
 501 000e 4FF00003 		mov	r3, #0
 502 0012 BB60     		str	r3, [r7, #8]
 503 0014 0BE0     		b	.L29
 504              	.L30:
 166:.\main.c      ****         sum += pak->_byte[i+2];    
 505              		.loc 1 166 0 discriminator 2
 506 0016 BB68     		ldr	r3, [r7, #8]
 507 0018 03F10203 		add	r3, r3, #2
 508 001c 7A68     		ldr	r2, [r7, #4]
ARM GAS  C:\Users\Kenichi\AppData\Local\Temp\ccCec8FA.s 			page 13


 509 001e D25C     		ldrb	r2, [r2, r3]	@ zero_extendqisi2
 510 0020 FB7B     		ldrb	r3, [r7, #15]
 511 0022 D318     		adds	r3, r2, r3
 512 0024 FB73     		strb	r3, [r7, #15]
 165:.\main.c      ****     for(i = 0; i < 4; i++){
 513              		.loc 1 165 0 discriminator 2
 514 0026 BB68     		ldr	r3, [r7, #8]
 515 0028 03F10103 		add	r3, r3, #1
 516 002c BB60     		str	r3, [r7, #8]
 517              	.L29:
 165:.\main.c      ****     for(i = 0; i < 4; i++){
 518              		.loc 1 165 0 is_stmt 0 discriminator 1
 519 002e BB68     		ldr	r3, [r7, #8]
 520 0030 032B     		cmp	r3, #3
 521 0032 F0DD     		ble	.L30
 167:.\main.c      ****     }
 168:.\main.c      ****     if((~sum & 0xff) == pak->_pak.bCheckSum) {
 522              		.loc 1 168 0 is_stmt 1
 523 0034 FB7B     		ldrb	r3, [r7, #15]	@ zero_extendqisi2
 524 0036 6FEA0303 		mvn	r3, r3
 525 003a DAB2     		uxtb	r2, r3
 526 003c 7B68     		ldr	r3, [r7, #4]
 527 003e 5B78     		ldrb	r3, [r3, #1]	@ zero_extendqisi2
 528 0040 9A42     		cmp	r2, r3
 529 0042 02D1     		bne	.L31
 169:.\main.c      ****         return 1;
 530              		.loc 1 169 0
 531 0044 4FF00103 		mov	r3, #1
 532 0048 01E0     		b	.L32
 533              	.L31:
 170:.\main.c      ****     } else {
 171:.\main.c      ****         return 0;
 534              		.loc 1 171 0
 535 004a 4FF00003 		mov	r3, #0
 536              	.L32:
 172:.\main.c      ****     }
 173:.\main.c      **** }
 537              		.loc 1 173 0
 538 004e 1846     		mov	r0, r3
 539 0050 07F11407 		add	r7, r7, #20
 540 0054 BD46     		mov	sp, r7
 541 0056 80BC     		pop	{r7}
 542 0058 7047     		bx	lr
 543              		.cfi_endproc
 544              	.LFE61:
 545              		.size	CheckValid, .-CheckValid
 546 005a 00BF     		.section	.text.Servo_Start,"ax",%progbits
 547              		.align	2
 548              		.global	Servo_Start
 549              		.thumb
 550              		.thumb_func
 551              		.type	Servo_Start, %function
 552              	Servo_Start:
 553              	.LFB62:
 174:.\main.c      **** 
 175:.\main.c      **** void Servo_Start(void){
 554              		.loc 1 175 0
ARM GAS  C:\Users\Kenichi\AppData\Local\Temp\ccCec8FA.s 			page 14


 555              		.cfi_startproc
 556              		@ args = 0, pretend = 0, frame = 0
 557              		@ frame_needed = 1, uses_anonymous_args = 0
 558 0000 80B5     		push	{r7, lr}
 559              	.LCFI16:
 560              		.cfi_def_cfa_offset 8
 561              		.cfi_offset 7, -8
 562              		.cfi_offset 14, -4
 563 0002 00AF     		add	r7, sp, #0
 564              	.LCFI17:
 565              		.cfi_def_cfa_register 7
 176:.\main.c      ****     PWM_1_Start();
 566              		.loc 1 176 0
 567 0004 FFF7FEFF 		bl	PWM_1_Start
 177:.\main.c      ****     isr_tc_StartEx(Terminal_Count_ISR);
 568              		.loc 1 177 0
 569 0008 40F20000 		movw	r0, #:lower16:Terminal_Count_ISR
 570 000c C0F20000 		movt	r0, #:upper16:Terminal_Count_ISR
 571 0010 FFF7FEFF 		bl	isr_tc_StartEx
 178:.\main.c      ****     return;
 572              		.loc 1 178 0
 573 0014 00BF     		nop
 179:.\main.c      **** }
 574              		.loc 1 179 0
 575 0016 80BD     		pop	{r7, pc}
 576              		.cfi_endproc
 577              	.LFE62:
 578              		.size	Servo_Start, .-Servo_Start
 579              		.section	.text.Terminal_Count_ISR,"ax",%progbits
 580              		.align	2
 581              		.global	Terminal_Count_ISR
 582              		.thumb
 583              		.thumb_func
 584              		.type	Terminal_Count_ISR, %function
 585              	Terminal_Count_ISR:
 586              	.LFB63:
 180:.\main.c      **** 
 181:.\main.c      **** CY_ISR(Terminal_Count_ISR) {
 587              		.loc 1 181 0
 588              		.cfi_startproc
 589              		@ args = 0, pretend = 0, frame = 0
 590              		@ frame_needed = 1, uses_anonymous_args = 0
 591 0000 80B5     		push	{r7, lr}
 592              	.LCFI18:
 593              		.cfi_def_cfa_offset 8
 594              		.cfi_offset 7, -8
 595              		.cfi_offset 14, -4
 596 0002 00AF     		add	r7, sp, #0
 597              	.LCFI19:
 598              		.cfi_def_cfa_register 7
 182:.\main.c      ****     PWM_1_WriteCompare1(aileron_buffer);
 599              		.loc 1 182 0
 600 0004 40F20003 		movw	r3, #:lower16:aileron_buffer
 601 0008 C0F20003 		movt	r3, #:upper16:aileron_buffer
 602 000c 1B68     		ldr	r3, [r3, #0]
 603 000e 9BB2     		uxth	r3, r3
 604 0010 1846     		mov	r0, r3
ARM GAS  C:\Users\Kenichi\AppData\Local\Temp\ccCec8FA.s 			page 15


 605 0012 FFF7FEFF 		bl	PWM_1_WriteCompare1
 183:.\main.c      ****     PWM_1_ReadStatusRegister();
 606              		.loc 1 183 0
 607 0016 FFF7FEFF 		bl	PWM_1_ReadStatusRegister
 184:.\main.c      ****     return;
 608              		.loc 1 184 0
 609 001a 00BF     		nop
 185:.\main.c      **** }
 610              		.loc 1 185 0
 611 001c 80BD     		pop	{r7, pc}
 612              		.cfi_endproc
 613              	.LFE63:
 614              		.size	Terminal_Count_ISR, .-Terminal_Count_ISR
 615 001e 00BF     		.text
 616              	.Letext0:
 617              		.file 2 "c:\\program files (x86)\\cypress\\psoc creator\\3.0\\psoc creator\\import\\gnu_cs\\arm\\4
 618              		.file 3 "./Generated_Source/PSoC5/cytypes.h"
 619              		.file 4 "./Generated_Source/PSoC5/core_cm3.h"
