ARM GAS  C:\Users\RIEKOH~1\AppData\Local\Temp\cc2ZE75w.s 			page 1


   1              		.syntax unified
   2              		.cpu cortex-m3
   3              		.fpu softvfp
   4              		.eabi_attribute 20, 1
   5              		.eabi_attribute 21, 1
   6              		.eabi_attribute 23, 3
   7              		.eabi_attribute 24, 1
   8              		.eabi_attribute 25, 1
   9              		.eabi_attribute 26, 1
  10              		.eabi_attribute 30, 6
  11              		.eabi_attribute 34, 1
  12              		.eabi_attribute 18, 4
  13              		.thumb
  14              		.file	"Status_Reg_1.c"
  15              		.text
  16              	.Ltext0:
  17              		.cfi_sections	.debug_frame
  18              		.section	.text.Status_Reg_1_Read,"ax",%progbits
  19              		.align	2
  20              		.global	Status_Reg_1_Read
  21              		.thumb
  22              		.thumb_func
  23              		.type	Status_Reg_1_Read, %function
  24              	Status_Reg_1_Read:
  25              	.LFB0:
  26              		.file 1 ".\\Generated_Source\\PSoC5\\Status_Reg_1.c"
   1:.\Generated_Source\PSoC5/Status_Reg_1.c **** /*******************************************************************************
   2:.\Generated_Source\PSoC5/Status_Reg_1.c **** * File Name: Status_Reg_1.c  
   3:.\Generated_Source\PSoC5/Status_Reg_1.c **** * Version 1.80
   4:.\Generated_Source\PSoC5/Status_Reg_1.c **** *
   5:.\Generated_Source\PSoC5/Status_Reg_1.c **** * Description:
   6:.\Generated_Source\PSoC5/Status_Reg_1.c **** *  This file contains API to enable firmware to read the value of a Status 
   7:.\Generated_Source\PSoC5/Status_Reg_1.c **** *  Register.
   8:.\Generated_Source\PSoC5/Status_Reg_1.c **** *
   9:.\Generated_Source\PSoC5/Status_Reg_1.c **** * Note:
  10:.\Generated_Source\PSoC5/Status_Reg_1.c **** *
  11:.\Generated_Source\PSoC5/Status_Reg_1.c **** ********************************************************************************
  12:.\Generated_Source\PSoC5/Status_Reg_1.c **** * Copyright 2008-2012, Cypress Semiconductor Corporation.  All rights reserved.
  13:.\Generated_Source\PSoC5/Status_Reg_1.c **** * You may use this file only in accordance with the license, terms, conditions, 
  14:.\Generated_Source\PSoC5/Status_Reg_1.c **** * disclaimers, and limitations in the end user license agreement accompanying 
  15:.\Generated_Source\PSoC5/Status_Reg_1.c **** * the software package with which this file was provided.
  16:.\Generated_Source\PSoC5/Status_Reg_1.c **** *******************************************************************************/
  17:.\Generated_Source\PSoC5/Status_Reg_1.c **** 
  18:.\Generated_Source\PSoC5/Status_Reg_1.c **** #include "Status_Reg_1.h"
  19:.\Generated_Source\PSoC5/Status_Reg_1.c **** 
  20:.\Generated_Source\PSoC5/Status_Reg_1.c **** #if !defined(Status_Reg_1_sts_sts_reg__REMOVED) /* Check for removal by optimization */
  21:.\Generated_Source\PSoC5/Status_Reg_1.c **** 
  22:.\Generated_Source\PSoC5/Status_Reg_1.c **** 
  23:.\Generated_Source\PSoC5/Status_Reg_1.c **** /*******************************************************************************
  24:.\Generated_Source\PSoC5/Status_Reg_1.c **** * Function Name: Status_Reg_1_Read
  25:.\Generated_Source\PSoC5/Status_Reg_1.c **** ********************************************************************************
  26:.\Generated_Source\PSoC5/Status_Reg_1.c **** *
  27:.\Generated_Source\PSoC5/Status_Reg_1.c **** * Summary:
  28:.\Generated_Source\PSoC5/Status_Reg_1.c **** *  Reads the current value assigned to the Status Register.
  29:.\Generated_Source\PSoC5/Status_Reg_1.c **** *
  30:.\Generated_Source\PSoC5/Status_Reg_1.c **** * Parameters:
  31:.\Generated_Source\PSoC5/Status_Reg_1.c **** *  None.
ARM GAS  C:\Users\RIEKOH~1\AppData\Local\Temp\cc2ZE75w.s 			page 2


  32:.\Generated_Source\PSoC5/Status_Reg_1.c **** *
  33:.\Generated_Source\PSoC5/Status_Reg_1.c **** * Return:
  34:.\Generated_Source\PSoC5/Status_Reg_1.c **** *  The current value in the Status Register.
  35:.\Generated_Source\PSoC5/Status_Reg_1.c **** *
  36:.\Generated_Source\PSoC5/Status_Reg_1.c **** *******************************************************************************/
  37:.\Generated_Source\PSoC5/Status_Reg_1.c **** uint8 Status_Reg_1_Read(void) 
  38:.\Generated_Source\PSoC5/Status_Reg_1.c **** { 
  27              		.loc 1 38 0
  28              		.cfi_startproc
  29              		@ args = 0, pretend = 0, frame = 0
  30              		@ frame_needed = 1, uses_anonymous_args = 0
  31              		@ link register save eliminated.
  32 0000 80B4     		push	{r7}
  33              	.LCFI0:
  34              		.cfi_def_cfa_offset 4
  35              		.cfi_offset 7, -4
  36 0002 00AF     		add	r7, sp, #0
  37              	.LCFI1:
  38              		.cfi_def_cfa_register 7
  39:.\Generated_Source\PSoC5/Status_Reg_1.c ****     return Status_Reg_1_Status;
  39              		.loc 1 39 0
  40 0004 46F26553 		movw	r3, #25957
  41 0008 C4F20003 		movt	r3, 16384
  42 000c 1B78     		ldrb	r3, [r3, #0]
  43 000e DBB2     		uxtb	r3, r3
  40:.\Generated_Source\PSoC5/Status_Reg_1.c **** }
  44              		.loc 1 40 0
  45 0010 1846     		mov	r0, r3
  46 0012 BD46     		mov	sp, r7
  47 0014 80BC     		pop	{r7}
  48 0016 7047     		bx	lr
  49              		.cfi_endproc
  50              	.LFE0:
  51              		.size	Status_Reg_1_Read, .-Status_Reg_1_Read
  52              		.section	.text.Status_Reg_1_InterruptEnable,"ax",%progbits
  53              		.align	2
  54              		.global	Status_Reg_1_InterruptEnable
  55              		.thumb
  56              		.thumb_func
  57              		.type	Status_Reg_1_InterruptEnable, %function
  58              	Status_Reg_1_InterruptEnable:
  59              	.LFB1:
  41:.\Generated_Source\PSoC5/Status_Reg_1.c **** 
  42:.\Generated_Source\PSoC5/Status_Reg_1.c **** 
  43:.\Generated_Source\PSoC5/Status_Reg_1.c **** /*******************************************************************************
  44:.\Generated_Source\PSoC5/Status_Reg_1.c **** * Function Name: Status_Reg_1_InterruptEnable
  45:.\Generated_Source\PSoC5/Status_Reg_1.c **** ********************************************************************************
  46:.\Generated_Source\PSoC5/Status_Reg_1.c **** *
  47:.\Generated_Source\PSoC5/Status_Reg_1.c **** * Summary:
  48:.\Generated_Source\PSoC5/Status_Reg_1.c **** *  Enables the Status Register interrupt.
  49:.\Generated_Source\PSoC5/Status_Reg_1.c **** *
  50:.\Generated_Source\PSoC5/Status_Reg_1.c **** * Parameters:
  51:.\Generated_Source\PSoC5/Status_Reg_1.c **** *  None.
  52:.\Generated_Source\PSoC5/Status_Reg_1.c **** *
  53:.\Generated_Source\PSoC5/Status_Reg_1.c **** * Return:
  54:.\Generated_Source\PSoC5/Status_Reg_1.c **** *  None.
  55:.\Generated_Source\PSoC5/Status_Reg_1.c **** *
ARM GAS  C:\Users\RIEKOH~1\AppData\Local\Temp\cc2ZE75w.s 			page 3


  56:.\Generated_Source\PSoC5/Status_Reg_1.c **** *******************************************************************************/
  57:.\Generated_Source\PSoC5/Status_Reg_1.c **** void Status_Reg_1_InterruptEnable(void) 
  58:.\Generated_Source\PSoC5/Status_Reg_1.c **** {
  60              		.loc 1 58 0
  61              		.cfi_startproc
  62              		@ args = 0, pretend = 0, frame = 8
  63              		@ frame_needed = 1, uses_anonymous_args = 0
  64 0000 80B5     		push	{r7, lr}
  65              	.LCFI2:
  66              		.cfi_def_cfa_offset 8
  67              		.cfi_offset 7, -8
  68              		.cfi_offset 14, -4
  69 0002 82B0     		sub	sp, sp, #8
  70              	.LCFI3:
  71              		.cfi_def_cfa_offset 16
  72 0004 00AF     		add	r7, sp, #0
  73              	.LCFI4:
  74              		.cfi_def_cfa_register 7
  59:.\Generated_Source\PSoC5/Status_Reg_1.c ****     uint8 interruptState;
  60:.\Generated_Source\PSoC5/Status_Reg_1.c ****     interruptState = CyEnterCriticalSection();
  75              		.loc 1 60 0
  76 0006 FFF7FEFF 		bl	CyEnterCriticalSection
  77 000a 0346     		mov	r3, r0
  78 000c FB71     		strb	r3, [r7, #7]
  61:.\Generated_Source\PSoC5/Status_Reg_1.c ****     Status_Reg_1_Status_Aux_Ctrl |= Status_Reg_1_STATUS_INTR_ENBL;
  79              		.loc 1 61 0
  80 000e 46F29553 		movw	r3, #26005
  81 0012 C4F20003 		movt	r3, 16384
  82 0016 46F29552 		movw	r2, #26005
  83 001a C4F20002 		movt	r2, 16384
  84 001e 1278     		ldrb	r2, [r2, #0]
  85 0020 D2B2     		uxtb	r2, r2
  86 0022 42F01002 		orr	r2, r2, #16
  87 0026 D2B2     		uxtb	r2, r2
  88 0028 1A70     		strb	r2, [r3, #0]
  62:.\Generated_Source\PSoC5/Status_Reg_1.c ****     CyExitCriticalSection(interruptState);
  89              		.loc 1 62 0
  90 002a FB79     		ldrb	r3, [r7, #7]	@ zero_extendqisi2
  91 002c 1846     		mov	r0, r3
  92 002e FFF7FEFF 		bl	CyExitCriticalSection
  63:.\Generated_Source\PSoC5/Status_Reg_1.c **** }
  93              		.loc 1 63 0
  94 0032 07F10807 		add	r7, r7, #8
  95 0036 BD46     		mov	sp, r7
  96 0038 80BD     		pop	{r7, pc}
  97              		.cfi_endproc
  98              	.LFE1:
  99              		.size	Status_Reg_1_InterruptEnable, .-Status_Reg_1_InterruptEnable
 100 003a 00BF     		.section	.text.Status_Reg_1_InterruptDisable,"ax",%progbits
 101              		.align	2
 102              		.global	Status_Reg_1_InterruptDisable
 103              		.thumb
 104              		.thumb_func
 105              		.type	Status_Reg_1_InterruptDisable, %function
 106              	Status_Reg_1_InterruptDisable:
 107              	.LFB2:
  64:.\Generated_Source\PSoC5/Status_Reg_1.c **** 
ARM GAS  C:\Users\RIEKOH~1\AppData\Local\Temp\cc2ZE75w.s 			page 4


  65:.\Generated_Source\PSoC5/Status_Reg_1.c **** 
  66:.\Generated_Source\PSoC5/Status_Reg_1.c **** /*******************************************************************************
  67:.\Generated_Source\PSoC5/Status_Reg_1.c **** * Function Name: Status_Reg_1_InterruptDisable
  68:.\Generated_Source\PSoC5/Status_Reg_1.c **** ********************************************************************************
  69:.\Generated_Source\PSoC5/Status_Reg_1.c **** *
  70:.\Generated_Source\PSoC5/Status_Reg_1.c **** * Summary:
  71:.\Generated_Source\PSoC5/Status_Reg_1.c **** *  Disables the Status Register interrupt.
  72:.\Generated_Source\PSoC5/Status_Reg_1.c **** *
  73:.\Generated_Source\PSoC5/Status_Reg_1.c **** * Parameters:
  74:.\Generated_Source\PSoC5/Status_Reg_1.c **** *  None.
  75:.\Generated_Source\PSoC5/Status_Reg_1.c **** *
  76:.\Generated_Source\PSoC5/Status_Reg_1.c **** * Return:
  77:.\Generated_Source\PSoC5/Status_Reg_1.c **** *  None.
  78:.\Generated_Source\PSoC5/Status_Reg_1.c **** *
  79:.\Generated_Source\PSoC5/Status_Reg_1.c **** *******************************************************************************/
  80:.\Generated_Source\PSoC5/Status_Reg_1.c **** void Status_Reg_1_InterruptDisable(void) 
  81:.\Generated_Source\PSoC5/Status_Reg_1.c **** {
 108              		.loc 1 81 0
 109              		.cfi_startproc
 110              		@ args = 0, pretend = 0, frame = 8
 111              		@ frame_needed = 1, uses_anonymous_args = 0
 112 0000 80B5     		push	{r7, lr}
 113              	.LCFI5:
 114              		.cfi_def_cfa_offset 8
 115              		.cfi_offset 7, -8
 116              		.cfi_offset 14, -4
 117 0002 82B0     		sub	sp, sp, #8
 118              	.LCFI6:
 119              		.cfi_def_cfa_offset 16
 120 0004 00AF     		add	r7, sp, #0
 121              	.LCFI7:
 122              		.cfi_def_cfa_register 7
  82:.\Generated_Source\PSoC5/Status_Reg_1.c ****     uint8 interruptState;
  83:.\Generated_Source\PSoC5/Status_Reg_1.c ****     interruptState = CyEnterCriticalSection();
 123              		.loc 1 83 0
 124 0006 FFF7FEFF 		bl	CyEnterCriticalSection
 125 000a 0346     		mov	r3, r0
 126 000c FB71     		strb	r3, [r7, #7]
  84:.\Generated_Source\PSoC5/Status_Reg_1.c ****     Status_Reg_1_Status_Aux_Ctrl &= (uint8)(~Status_Reg_1_STATUS_INTR_ENBL);
 127              		.loc 1 84 0
 128 000e 46F29553 		movw	r3, #26005
 129 0012 C4F20003 		movt	r3, 16384
 130 0016 46F29552 		movw	r2, #26005
 131 001a C4F20002 		movt	r2, 16384
 132 001e 1278     		ldrb	r2, [r2, #0]
 133 0020 D2B2     		uxtb	r2, r2
 134 0022 22F01002 		bic	r2, r2, #16
 135 0026 D2B2     		uxtb	r2, r2
 136 0028 1A70     		strb	r2, [r3, #0]
  85:.\Generated_Source\PSoC5/Status_Reg_1.c ****     CyExitCriticalSection(interruptState);
 137              		.loc 1 85 0
 138 002a FB79     		ldrb	r3, [r7, #7]	@ zero_extendqisi2
 139 002c 1846     		mov	r0, r3
 140 002e FFF7FEFF 		bl	CyExitCriticalSection
  86:.\Generated_Source\PSoC5/Status_Reg_1.c **** }
 141              		.loc 1 86 0
 142 0032 07F10807 		add	r7, r7, #8
ARM GAS  C:\Users\RIEKOH~1\AppData\Local\Temp\cc2ZE75w.s 			page 5


 143 0036 BD46     		mov	sp, r7
 144 0038 80BD     		pop	{r7, pc}
 145              		.cfi_endproc
 146              	.LFE2:
 147              		.size	Status_Reg_1_InterruptDisable, .-Status_Reg_1_InterruptDisable
 148 003a 00BF     		.section	.text.Status_Reg_1_WriteMask,"ax",%progbits
 149              		.align	2
 150              		.global	Status_Reg_1_WriteMask
 151              		.thumb
 152              		.thumb_func
 153              		.type	Status_Reg_1_WriteMask, %function
 154              	Status_Reg_1_WriteMask:
 155              	.LFB3:
  87:.\Generated_Source\PSoC5/Status_Reg_1.c **** 
  88:.\Generated_Source\PSoC5/Status_Reg_1.c **** 
  89:.\Generated_Source\PSoC5/Status_Reg_1.c **** /*******************************************************************************
  90:.\Generated_Source\PSoC5/Status_Reg_1.c **** * Function Name: Status_Reg_1_WriteMask
  91:.\Generated_Source\PSoC5/Status_Reg_1.c **** ********************************************************************************
  92:.\Generated_Source\PSoC5/Status_Reg_1.c **** *
  93:.\Generated_Source\PSoC5/Status_Reg_1.c **** * Summary:
  94:.\Generated_Source\PSoC5/Status_Reg_1.c **** *  Writes the current mask value assigned to the Status Register.
  95:.\Generated_Source\PSoC5/Status_Reg_1.c **** *
  96:.\Generated_Source\PSoC5/Status_Reg_1.c **** * Parameters:
  97:.\Generated_Source\PSoC5/Status_Reg_1.c **** *  mask:  Value to write into the mask register.
  98:.\Generated_Source\PSoC5/Status_Reg_1.c **** *
  99:.\Generated_Source\PSoC5/Status_Reg_1.c **** * Return:
 100:.\Generated_Source\PSoC5/Status_Reg_1.c **** *  None.
 101:.\Generated_Source\PSoC5/Status_Reg_1.c **** *
 102:.\Generated_Source\PSoC5/Status_Reg_1.c **** *******************************************************************************/
 103:.\Generated_Source\PSoC5/Status_Reg_1.c **** void Status_Reg_1_WriteMask(uint8 mask) 
 104:.\Generated_Source\PSoC5/Status_Reg_1.c **** {
 156              		.loc 1 104 0
 157              		.cfi_startproc
 158              		@ args = 0, pretend = 0, frame = 8
 159              		@ frame_needed = 1, uses_anonymous_args = 0
 160              		@ link register save eliminated.
 161 0000 80B4     		push	{r7}
 162              	.LCFI8:
 163              		.cfi_def_cfa_offset 4
 164              		.cfi_offset 7, -4
 165 0002 83B0     		sub	sp, sp, #12
 166              	.LCFI9:
 167              		.cfi_def_cfa_offset 16
 168 0004 00AF     		add	r7, sp, #0
 169              	.LCFI10:
 170              		.cfi_def_cfa_register 7
 171 0006 0346     		mov	r3, r0
 172 0008 FB71     		strb	r3, [r7, #7]
 105:.\Generated_Source\PSoC5/Status_Reg_1.c ****     #if(Status_Reg_1_INPUTS < 8u)
 106:.\Generated_Source\PSoC5/Status_Reg_1.c ****     	mask &= (uint8)((((uint8)1u) << Status_Reg_1_INPUTS) - 1u);
 107:.\Generated_Source\PSoC5/Status_Reg_1.c **** 	#endif /* End Status_Reg_1_INPUTS < 8u */
 108:.\Generated_Source\PSoC5/Status_Reg_1.c ****     Status_Reg_1_Status_Mask = mask;
 173              		.loc 1 108 0
 174 000a 46F28553 		movw	r3, #25989
 175 000e C4F20003 		movt	r3, 16384
 176 0012 FA79     		ldrb	r2, [r7, #7]
 177 0014 1A70     		strb	r2, [r3, #0]
ARM GAS  C:\Users\RIEKOH~1\AppData\Local\Temp\cc2ZE75w.s 			page 6


 109:.\Generated_Source\PSoC5/Status_Reg_1.c **** }
 178              		.loc 1 109 0
 179 0016 07F10C07 		add	r7, r7, #12
 180 001a BD46     		mov	sp, r7
 181 001c 80BC     		pop	{r7}
 182 001e 7047     		bx	lr
 183              		.cfi_endproc
 184              	.LFE3:
 185              		.size	Status_Reg_1_WriteMask, .-Status_Reg_1_WriteMask
 186              		.section	.text.Status_Reg_1_ReadMask,"ax",%progbits
 187              		.align	2
 188              		.global	Status_Reg_1_ReadMask
 189              		.thumb
 190              		.thumb_func
 191              		.type	Status_Reg_1_ReadMask, %function
 192              	Status_Reg_1_ReadMask:
 193              	.LFB4:
 110:.\Generated_Source\PSoC5/Status_Reg_1.c **** 
 111:.\Generated_Source\PSoC5/Status_Reg_1.c **** 
 112:.\Generated_Source\PSoC5/Status_Reg_1.c **** /*******************************************************************************
 113:.\Generated_Source\PSoC5/Status_Reg_1.c **** * Function Name: Status_Reg_1_ReadMask
 114:.\Generated_Source\PSoC5/Status_Reg_1.c **** ********************************************************************************
 115:.\Generated_Source\PSoC5/Status_Reg_1.c **** *
 116:.\Generated_Source\PSoC5/Status_Reg_1.c **** * Summary:
 117:.\Generated_Source\PSoC5/Status_Reg_1.c **** *  Reads the current interrupt mask assigned to the Status Register.
 118:.\Generated_Source\PSoC5/Status_Reg_1.c **** *
 119:.\Generated_Source\PSoC5/Status_Reg_1.c **** * Parameters:
 120:.\Generated_Source\PSoC5/Status_Reg_1.c **** *  None.
 121:.\Generated_Source\PSoC5/Status_Reg_1.c **** *
 122:.\Generated_Source\PSoC5/Status_Reg_1.c **** * Return:
 123:.\Generated_Source\PSoC5/Status_Reg_1.c **** *  The value of the interrupt mask of the Status Register.
 124:.\Generated_Source\PSoC5/Status_Reg_1.c **** *
 125:.\Generated_Source\PSoC5/Status_Reg_1.c **** *******************************************************************************/
 126:.\Generated_Source\PSoC5/Status_Reg_1.c **** uint8 Status_Reg_1_ReadMask(void) 
 127:.\Generated_Source\PSoC5/Status_Reg_1.c **** {
 194              		.loc 1 127 0
 195              		.cfi_startproc
 196              		@ args = 0, pretend = 0, frame = 0
 197              		@ frame_needed = 1, uses_anonymous_args = 0
 198              		@ link register save eliminated.
 199 0000 80B4     		push	{r7}
 200              	.LCFI11:
 201              		.cfi_def_cfa_offset 4
 202              		.cfi_offset 7, -4
 203 0002 00AF     		add	r7, sp, #0
 204              	.LCFI12:
 205              		.cfi_def_cfa_register 7
 128:.\Generated_Source\PSoC5/Status_Reg_1.c ****     return Status_Reg_1_Status_Mask;
 206              		.loc 1 128 0
 207 0004 46F28553 		movw	r3, #25989
 208 0008 C4F20003 		movt	r3, 16384
 209 000c 1B78     		ldrb	r3, [r3, #0]
 210 000e DBB2     		uxtb	r3, r3
 129:.\Generated_Source\PSoC5/Status_Reg_1.c **** }
 211              		.loc 1 129 0
 212 0010 1846     		mov	r0, r3
 213 0012 BD46     		mov	sp, r7
ARM GAS  C:\Users\RIEKOH~1\AppData\Local\Temp\cc2ZE75w.s 			page 7


 214 0014 80BC     		pop	{r7}
 215 0016 7047     		bx	lr
 216              		.cfi_endproc
 217              	.LFE4:
 218              		.size	Status_Reg_1_ReadMask, .-Status_Reg_1_ReadMask
 219              		.text
 220              	.Letext0:
 221              		.file 2 ".\\Generated_Source\\PSoC5\\cytypes.h"
