ARM GAS  C:\Users\RIEKOH~1\AppData\Local\Temp\cc0wEKzV.s 			page 1


   1              		.syntax unified
   2              		.cpu cortex-m3
   3              		.fpu softvfp
   4              		.eabi_attribute 20, 1
   5              		.eabi_attribute 21, 1
   6              		.eabi_attribute 23, 3
   7              		.eabi_attribute 24, 1
   8              		.eabi_attribute 25, 1
   9              		.eabi_attribute 26, 1
  10              		.eabi_attribute 30, 6
  11              		.eabi_attribute 34, 1
  12              		.eabi_attribute 18, 4
  13              		.thumb
  14              		.file	"CyLib.c"
  15              		.text
  16              	.Ltext0:
  17              		.cfi_sections	.debug_frame
  18              		.global	CyResetStatus
  19              		.section	.noinit,"aw",%progbits
  20              		.type	CyResetStatus, %object
  21              		.size	CyResetStatus, 1
  22              	CyResetStatus:
  23 0000 00       		.space	1
  24              		.global	cydelay_freq_hz
  25              		.data
  26              		.align	2
  27              		.type	cydelay_freq_hz, %object
  28              		.size	cydelay_freq_hz, 4
  29              	cydelay_freq_hz:
  30 0000 00366E01 		.word	24000000
  31              		.global	cydelay_freq_khz
  32              		.align	2
  33              		.type	cydelay_freq_khz, %object
  34              		.size	cydelay_freq_khz, 4
  35              	cydelay_freq_khz:
  36 0004 C05D0000 		.word	24000
  37              		.global	cydelay_freq_mhz
  38              		.type	cydelay_freq_mhz, %object
  39              		.size	cydelay_freq_mhz, 1
  40              	cydelay_freq_mhz:
  41 0008 18       		.byte	24
  42              		.global	cydelay_32k_ms
  43 0009 000000   		.align	2
  44              		.type	cydelay_32k_ms, %object
  45              		.size	cydelay_32k_ms, 4
  46              	cydelay_32k_ms:
  47 000c 0000E02E 		.word	786432000
  48              		.section	.text.CyPLL_OUT_Start,"ax",%progbits
  49              		.align	2
  50              		.global	CyPLL_OUT_Start
  51              		.thumb
  52              		.thumb_func
  53              		.type	CyPLL_OUT_Start, %function
  54              	CyPLL_OUT_Start:
  55              	.LFB0:
  56              		.file 1 ".\\Generated_Source\\PSoC5\\CyLib.c"
   1:.\Generated_Source\PSoC5/CyLib.c **** /*******************************************************************************
ARM GAS  C:\Users\RIEKOH~1\AppData\Local\Temp\cc0wEKzV.s 			page 2


   2:.\Generated_Source\PSoC5/CyLib.c **** * File Name: CyLib.c
   3:.\Generated_Source\PSoC5/CyLib.c **** * Version 4.0
   4:.\Generated_Source\PSoC5/CyLib.c **** *
   5:.\Generated_Source\PSoC5/CyLib.c **** *  Description:
   6:.\Generated_Source\PSoC5/CyLib.c **** *   Provides system API for the clocking, interrupts and watchdog timer.
   7:.\Generated_Source\PSoC5/CyLib.c **** *
   8:.\Generated_Source\PSoC5/CyLib.c **** *  Note:
   9:.\Generated_Source\PSoC5/CyLib.c **** *   Documentation of the API's in this file is located in the
  10:.\Generated_Source\PSoC5/CyLib.c **** *   System Reference Guide provided with PSoC Creator.
  11:.\Generated_Source\PSoC5/CyLib.c **** *
  12:.\Generated_Source\PSoC5/CyLib.c **** ********************************************************************************
  13:.\Generated_Source\PSoC5/CyLib.c **** * Copyright 2008-2013, Cypress Semiconductor Corporation.  All rights reserved.
  14:.\Generated_Source\PSoC5/CyLib.c **** * You may use this file only in accordance with the license, terms, conditions,
  15:.\Generated_Source\PSoC5/CyLib.c **** * disclaimers, and limitations in the end user license agreement accompanying
  16:.\Generated_Source\PSoC5/CyLib.c **** * the software package with which this file was provided.
  17:.\Generated_Source\PSoC5/CyLib.c **** *******************************************************************************/
  18:.\Generated_Source\PSoC5/CyLib.c **** 
  19:.\Generated_Source\PSoC5/CyLib.c **** #include "CyLib.h"
  20:.\Generated_Source\PSoC5/CyLib.c **** 
  21:.\Generated_Source\PSoC5/CyLib.c **** 
  22:.\Generated_Source\PSoC5/CyLib.c **** /*******************************************************************************
  23:.\Generated_Source\PSoC5/CyLib.c **** * The CyResetStatus variable is used to obtain value of RESET_SR0 register after
  24:.\Generated_Source\PSoC5/CyLib.c **** * a device reset. It is set from initialize_psoc() at the early initialization
  25:.\Generated_Source\PSoC5/CyLib.c **** * stage. In case of IAR EW IDE, initialize_psoc() is executed before the data
  26:.\Generated_Source\PSoC5/CyLib.c **** * sections are initialized. To avoid zeroing, CyResetStatus should be placed
  27:.\Generated_Source\PSoC5/CyLib.c **** * to the .noinit section.
  28:.\Generated_Source\PSoC5/CyLib.c **** *******************************************************************************/
  29:.\Generated_Source\PSoC5/CyLib.c **** CY_NOINIT uint8 CYXDATA CyResetStatus;
  30:.\Generated_Source\PSoC5/CyLib.c **** 
  31:.\Generated_Source\PSoC5/CyLib.c **** 
  32:.\Generated_Source\PSoC5/CyLib.c **** /* Variable Vdda */
  33:.\Generated_Source\PSoC5/CyLib.c **** #if(CYDEV_VARIABLE_VDDA == 1)
  34:.\Generated_Source\PSoC5/CyLib.c **** 
  35:.\Generated_Source\PSoC5/CyLib.c ****     uint8 CyScPumpEnabled = (uint8)(CYDEV_VDDA_MV < 2700);
  36:.\Generated_Source\PSoC5/CyLib.c **** 
  37:.\Generated_Source\PSoC5/CyLib.c **** #endif  /* (CYDEV_VARIABLE_VDDA == 1) */
  38:.\Generated_Source\PSoC5/CyLib.c **** 
  39:.\Generated_Source\PSoC5/CyLib.c **** 
  40:.\Generated_Source\PSoC5/CyLib.c **** /* Do not use these definitions directly in your application */
  41:.\Generated_Source\PSoC5/CyLib.c **** uint32 cydelay_freq_hz  = BCLK__BUS_CLK__HZ;
  42:.\Generated_Source\PSoC5/CyLib.c **** uint32 cydelay_freq_khz = (BCLK__BUS_CLK__HZ + 999u) / 1000u;
  43:.\Generated_Source\PSoC5/CyLib.c **** uint8  cydelay_freq_mhz = (uint8)((BCLK__BUS_CLK__HZ + 999999u) / 1000000u);
  44:.\Generated_Source\PSoC5/CyLib.c **** uint32 cydelay_32k_ms   = 32768u * ((BCLK__BUS_CLK__HZ + 999u) / 1000u);
  45:.\Generated_Source\PSoC5/CyLib.c **** 
  46:.\Generated_Source\PSoC5/CyLib.c **** 
  47:.\Generated_Source\PSoC5/CyLib.c **** /* Function Prototypes */
  48:.\Generated_Source\PSoC5/CyLib.c **** static uint8 CyUSB_PowerOnCheck(void)  ;
  49:.\Generated_Source\PSoC5/CyLib.c **** static void CyIMO_SetTrimValue(uint8 freq) ;
  50:.\Generated_Source\PSoC5/CyLib.c **** static void CyBusClk_Internal_SetDivider(uint16 divider);
  51:.\Generated_Source\PSoC5/CyLib.c **** 
  52:.\Generated_Source\PSoC5/CyLib.c **** 
  53:.\Generated_Source\PSoC5/CyLib.c **** /*******************************************************************************
  54:.\Generated_Source\PSoC5/CyLib.c **** * Function Name: CyPLL_OUT_Start
  55:.\Generated_Source\PSoC5/CyLib.c **** ********************************************************************************
  56:.\Generated_Source\PSoC5/CyLib.c **** *
  57:.\Generated_Source\PSoC5/CyLib.c **** * Summary:
  58:.\Generated_Source\PSoC5/CyLib.c **** *   Enables the PLL.  Optionally waits for it to become stable.
ARM GAS  C:\Users\RIEKOH~1\AppData\Local\Temp\cc0wEKzV.s 			page 3


  59:.\Generated_Source\PSoC5/CyLib.c **** *   Waits at least 250 us or until it is detected that the PLL is stable.
  60:.\Generated_Source\PSoC5/CyLib.c **** *
  61:.\Generated_Source\PSoC5/CyLib.c **** * Parameters:
  62:.\Generated_Source\PSoC5/CyLib.c **** *   wait:
  63:.\Generated_Source\PSoC5/CyLib.c **** *    0: Return immediately after configuration
  64:.\Generated_Source\PSoC5/CyLib.c **** *    1: Wait for PLL lock or timeout.
  65:.\Generated_Source\PSoC5/CyLib.c **** *
  66:.\Generated_Source\PSoC5/CyLib.c **** * Return:
  67:.\Generated_Source\PSoC5/CyLib.c **** *   Status
  68:.\Generated_Source\PSoC5/CyLib.c **** *    CYRET_SUCCESS - Completed successfully
  69:.\Generated_Source\PSoC5/CyLib.c **** *    CYRET_TIMEOUT - Timeout occurred without detecting a stable clock.
  70:.\Generated_Source\PSoC5/CyLib.c **** *     If the input source of the clock is jittery, then the lock indication
  71:.\Generated_Source\PSoC5/CyLib.c **** *     may not occur.  However, after the timeout has expired the generated PLL
  72:.\Generated_Source\PSoC5/CyLib.c **** *     clock can still be used.
  73:.\Generated_Source\PSoC5/CyLib.c **** *
  74:.\Generated_Source\PSoC5/CyLib.c **** * Side Effects:
  75:.\Generated_Source\PSoC5/CyLib.c **** *  If wait is enabled: This function wses the Fast Time Wheel to time the wait.
  76:.\Generated_Source\PSoC5/CyLib.c **** *  Any other use of the Fast Time Wheel will be stopped during the period of
  77:.\Generated_Source\PSoC5/CyLib.c **** *  this function and then restored. This function also uses the 100 KHz ILO.
  78:.\Generated_Source\PSoC5/CyLib.c **** *  If not enabled, this function will enable the 100 KHz ILO for the period of
  79:.\Generated_Source\PSoC5/CyLib.c **** *  this function.
  80:.\Generated_Source\PSoC5/CyLib.c **** *
  81:.\Generated_Source\PSoC5/CyLib.c **** *  No changes to the setup of the ILO, Fast Time Wheel, Central Time Wheel or
  82:.\Generated_Source\PSoC5/CyLib.c **** *  Once Per Second interrupt may be made by interrupt routines during the period
  83:.\Generated_Source\PSoC5/CyLib.c **** *  of this function execution. The current operation of the ILO, Central Time
  84:.\Generated_Source\PSoC5/CyLib.c **** *  Wheel and Once Per Second interrupt are maintained during the operation of
  85:.\Generated_Source\PSoC5/CyLib.c **** *  this function provided the reading of the Power Manager Interrupt Status
  86:.\Generated_Source\PSoC5/CyLib.c **** *  Register is only done using the CyPmReadStatus() function.
  87:.\Generated_Source\PSoC5/CyLib.c **** *
  88:.\Generated_Source\PSoC5/CyLib.c **** *******************************************************************************/
  89:.\Generated_Source\PSoC5/CyLib.c **** cystatus CyPLL_OUT_Start(uint8 wait) 
  90:.\Generated_Source\PSoC5/CyLib.c **** {
  57              		.loc 1 90 0
  58              		.cfi_startproc
  59              		@ args = 0, pretend = 0, frame = 16
  60              		@ frame_needed = 1, uses_anonymous_args = 0
  61 0000 80B5     		push	{r7, lr}
  62              	.LCFI0:
  63              		.cfi_def_cfa_offset 8
  64              		.cfi_offset 7, -8
  65              		.cfi_offset 14, -4
  66 0002 84B0     		sub	sp, sp, #16
  67              	.LCFI1:
  68              		.cfi_def_cfa_offset 24
  69 0004 00AF     		add	r7, sp, #0
  70              	.LCFI2:
  71              		.cfi_def_cfa_register 7
  72 0006 0346     		mov	r3, r0
  73 0008 FB71     		strb	r3, [r7, #7]
  91:.\Generated_Source\PSoC5/CyLib.c ****     cystatus status = CYRET_SUCCESS;
  74              		.loc 1 91 0
  75 000a 4FF00003 		mov	r3, #0
  76 000e FB60     		str	r3, [r7, #12]
  92:.\Generated_Source\PSoC5/CyLib.c **** 
  93:.\Generated_Source\PSoC5/CyLib.c ****     uint8 iloEnableState;
  94:.\Generated_Source\PSoC5/CyLib.c ****     uint8 pmTwCfg0State;
  95:.\Generated_Source\PSoC5/CyLib.c ****     uint8 pmTwCfg2State;
ARM GAS  C:\Users\RIEKOH~1\AppData\Local\Temp\cc0wEKzV.s 			page 4


  96:.\Generated_Source\PSoC5/CyLib.c **** 
  97:.\Generated_Source\PSoC5/CyLib.c **** 
  98:.\Generated_Source\PSoC5/CyLib.c ****     /* Enables the PLL circuit  */
  99:.\Generated_Source\PSoC5/CyLib.c ****     CY_CLK_PLL_CFG0_REG |= CY_CLK_PLL_ENABLE;
  77              		.loc 1 99 0
  78 0010 44F22023 		movw	r3, #16928
  79 0014 C4F20003 		movt	r3, 16384
  80 0018 44F22022 		movw	r2, #16928
  81 001c C4F20002 		movt	r2, 16384
  82 0020 1278     		ldrb	r2, [r2, #0]
  83 0022 D2B2     		uxtb	r2, r2
  84 0024 42F00102 		orr	r2, r2, #1
  85 0028 D2B2     		uxtb	r2, r2
  86 002a 1A70     		strb	r2, [r3, #0]
 100:.\Generated_Source\PSoC5/CyLib.c **** 
 101:.\Generated_Source\PSoC5/CyLib.c ****     if(wait != 0u)
  87              		.loc 1 101 0
  88 002c FB79     		ldrb	r3, [r7, #7]	@ zero_extendqisi2
  89 002e 002B     		cmp	r3, #0
  90 0030 4FD0     		beq	.L2
 102:.\Generated_Source\PSoC5/CyLib.c ****     {
 103:.\Generated_Source\PSoC5/CyLib.c ****         /* Save 100 KHz ILO, FTW interval, enable and interrupt enable */
 104:.\Generated_Source\PSoC5/CyLib.c ****         iloEnableState = CY_LIB_SLOWCLK_ILO_CR0_REG & CY_LIB_SLOWCLK_ILO_CR0_EN_100KHZ;
  91              		.loc 1 104 0
  92 0032 4FF48643 		mov	r3, #17152
  93 0036 C4F20003 		movt	r3, 16384
  94 003a 1B78     		ldrb	r3, [r3, #0]
  95 003c DBB2     		uxtb	r3, r3
  96 003e 03F00403 		and	r3, r3, #4
  97 0042 FB72     		strb	r3, [r7, #11]
 105:.\Generated_Source\PSoC5/CyLib.c ****         pmTwCfg0State = CY_LIB_PM_TW_CFG0_REG;
  98              		.loc 1 105 0
  99 0044 4FF48743 		mov	r3, #17280
 100 0048 C4F20003 		movt	r3, 16384
 101 004c 1B78     		ldrb	r3, [r3, #0]
 102 004e BB72     		strb	r3, [r7, #10]
 106:.\Generated_Source\PSoC5/CyLib.c ****         pmTwCfg2State = CY_LIB_PM_TW_CFG2_REG;
 103              		.loc 1 106 0
 104 0050 44F28233 		movw	r3, #17282
 105 0054 C4F20003 		movt	r3, 16384
 106 0058 1B78     		ldrb	r3, [r3, #0]
 107 005a 7B72     		strb	r3, [r7, #9]
 107:.\Generated_Source\PSoC5/CyLib.c **** 
 108:.\Generated_Source\PSoC5/CyLib.c ****         CyPmFtwSetInterval(CY_CLK_PLL_FTW_INTERVAL);
 108              		.loc 1 108 0
 109 005c 4FF01800 		mov	r0, #24
 110 0060 FFF7FEFF 		bl	CyPmFtwSetInterval
 109:.\Generated_Source\PSoC5/CyLib.c **** 
 110:.\Generated_Source\PSoC5/CyLib.c ****         status = CYRET_TIMEOUT;
 111              		.loc 1 110 0
 112 0064 4FF01003 		mov	r3, #16
 113 0068 FB60     		str	r3, [r7, #12]
 111:.\Generated_Source\PSoC5/CyLib.c **** 
 112:.\Generated_Source\PSoC5/CyLib.c ****         while(0u == (CY_PM_FTW_INT & CyPmReadStatus(CY_PM_FTW_INT)))
 114              		.loc 1 112 0
 115 006a 17E0     		b	.L3
 116              	.L5:
ARM GAS  C:\Users\RIEKOH~1\AppData\Local\Temp\cc0wEKzV.s 			page 5


 113:.\Generated_Source\PSoC5/CyLib.c ****         {
 114:.\Generated_Source\PSoC5/CyLib.c ****             /* Wait for the interrupt status */
 115:.\Generated_Source\PSoC5/CyLib.c ****             if(0u != (CY_CLK_PLL_SR_REG & CY_CLK_PLL_LOCK_STATUS))
 117              		.loc 1 115 0
 118 006c 44F22523 		movw	r3, #16933
 119 0070 C4F20003 		movt	r3, 16384
 120 0074 1B78     		ldrb	r3, [r3, #0]
 121 0076 DBB2     		uxtb	r3, r3
 122 0078 03F00103 		and	r3, r3, #1
 123 007c 002B     		cmp	r3, #0
 124 007e 0DD0     		beq	.L3
 116:.\Generated_Source\PSoC5/CyLib.c ****             {
 117:.\Generated_Source\PSoC5/CyLib.c ****                 if(0u != (CY_CLK_PLL_SR_REG & CY_CLK_PLL_LOCK_STATUS))
 125              		.loc 1 117 0
 126 0080 44F22523 		movw	r3, #16933
 127 0084 C4F20003 		movt	r3, 16384
 128 0088 1B78     		ldrb	r3, [r3, #0]
 129 008a DBB2     		uxtb	r3, r3
 130 008c 03F00103 		and	r3, r3, #1
 131 0090 002B     		cmp	r3, #0
 132 0092 03D0     		beq	.L3
 118:.\Generated_Source\PSoC5/CyLib.c ****                 {
 119:.\Generated_Source\PSoC5/CyLib.c ****                     status = CYRET_SUCCESS;
 133              		.loc 1 119 0
 134 0094 4FF00003 		mov	r3, #0
 135 0098 FB60     		str	r3, [r7, #12]
 120:.\Generated_Source\PSoC5/CyLib.c ****                     break;
 136              		.loc 1 120 0
 137 009a 09E0     		b	.L4
 138              	.L3:
 112:.\Generated_Source\PSoC5/CyLib.c ****         while(0u == (CY_PM_FTW_INT & CyPmReadStatus(CY_PM_FTW_INT)))
 139              		.loc 1 112 0 discriminator 1
 140 009c 4FF00100 		mov	r0, #1
 141 00a0 FFF7FEFF 		bl	CyPmReadStatus
 142 00a4 0346     		mov	r3, r0
 143 00a6 03F00103 		and	r3, r3, #1
 144 00aa DBB2     		uxtb	r3, r3
 145 00ac 002B     		cmp	r3, #0
 146 00ae DDD0     		beq	.L5
 147              	.L4:
 121:.\Generated_Source\PSoC5/CyLib.c ****                 }
 122:.\Generated_Source\PSoC5/CyLib.c ****             }
 123:.\Generated_Source\PSoC5/CyLib.c ****         }
 124:.\Generated_Source\PSoC5/CyLib.c **** 
 125:.\Generated_Source\PSoC5/CyLib.c ****         /* Restore 100 KHz ILO, FTW interval, enable and interrupt enable */
 126:.\Generated_Source\PSoC5/CyLib.c ****         if(0u == iloEnableState)
 148              		.loc 1 126 0
 149 00b0 FB7A     		ldrb	r3, [r7, #11]	@ zero_extendqisi2
 150 00b2 002B     		cmp	r3, #0
 151 00b4 01D1     		bne	.L6
 127:.\Generated_Source\PSoC5/CyLib.c ****         {
 128:.\Generated_Source\PSoC5/CyLib.c ****             CyILO_Stop100K();
 152              		.loc 1 128 0
 153 00b6 FFF7FEFF 		bl	CyILO_Stop100K
 154              	.L6:
 129:.\Generated_Source\PSoC5/CyLib.c ****         }
 130:.\Generated_Source\PSoC5/CyLib.c **** 
ARM GAS  C:\Users\RIEKOH~1\AppData\Local\Temp\cc0wEKzV.s 			page 6


 131:.\Generated_Source\PSoC5/CyLib.c ****         CY_LIB_PM_TW_CFG0_REG = pmTwCfg0State;
 155              		.loc 1 131 0
 156 00ba 4FF48743 		mov	r3, #17280
 157 00be C4F20003 		movt	r3, 16384
 158 00c2 BA7A     		ldrb	r2, [r7, #10]
 159 00c4 1A70     		strb	r2, [r3, #0]
 132:.\Generated_Source\PSoC5/CyLib.c ****         CY_LIB_PM_TW_CFG2_REG = pmTwCfg2State;
 160              		.loc 1 132 0
 161 00c6 44F28233 		movw	r3, #17282
 162 00ca C4F20003 		movt	r3, 16384
 163 00ce 7A7A     		ldrb	r2, [r7, #9]
 164 00d0 1A70     		strb	r2, [r3, #0]
 165              	.L2:
 133:.\Generated_Source\PSoC5/CyLib.c ****     }
 134:.\Generated_Source\PSoC5/CyLib.c **** 
 135:.\Generated_Source\PSoC5/CyLib.c ****     return(status);
 166              		.loc 1 135 0
 167 00d2 FB68     		ldr	r3, [r7, #12]
 136:.\Generated_Source\PSoC5/CyLib.c **** }
 168              		.loc 1 136 0
 169 00d4 1846     		mov	r0, r3
 170 00d6 07F11007 		add	r7, r7, #16
 171 00da BD46     		mov	sp, r7
 172 00dc 80BD     		pop	{r7, pc}
 173              		.cfi_endproc
 174              	.LFE0:
 175              		.size	CyPLL_OUT_Start, .-CyPLL_OUT_Start
 176 00de 00BF     		.section	.text.CyPLL_OUT_Stop,"ax",%progbits
 177              		.align	2
 178              		.global	CyPLL_OUT_Stop
 179              		.thumb
 180              		.thumb_func
 181              		.type	CyPLL_OUT_Stop, %function
 182              	CyPLL_OUT_Stop:
 183              	.LFB1:
 137:.\Generated_Source\PSoC5/CyLib.c **** 
 138:.\Generated_Source\PSoC5/CyLib.c **** 
 139:.\Generated_Source\PSoC5/CyLib.c **** /*******************************************************************************
 140:.\Generated_Source\PSoC5/CyLib.c **** * Function Name: CyPLL_OUT_Stop
 141:.\Generated_Source\PSoC5/CyLib.c **** ********************************************************************************
 142:.\Generated_Source\PSoC5/CyLib.c **** *
 143:.\Generated_Source\PSoC5/CyLib.c **** * Summary:
 144:.\Generated_Source\PSoC5/CyLib.c **** *  Disables the PLL.
 145:.\Generated_Source\PSoC5/CyLib.c **** *
 146:.\Generated_Source\PSoC5/CyLib.c **** * Parameters:
 147:.\Generated_Source\PSoC5/CyLib.c **** *  None
 148:.\Generated_Source\PSoC5/CyLib.c **** *
 149:.\Generated_Source\PSoC5/CyLib.c **** * Return:
 150:.\Generated_Source\PSoC5/CyLib.c **** *  None
 151:.\Generated_Source\PSoC5/CyLib.c **** *
 152:.\Generated_Source\PSoC5/CyLib.c **** *******************************************************************************/
 153:.\Generated_Source\PSoC5/CyLib.c **** void CyPLL_OUT_Stop(void) 
 154:.\Generated_Source\PSoC5/CyLib.c **** {
 184              		.loc 1 154 0
 185              		.cfi_startproc
 186              		@ args = 0, pretend = 0, frame = 0
 187              		@ frame_needed = 1, uses_anonymous_args = 0
ARM GAS  C:\Users\RIEKOH~1\AppData\Local\Temp\cc0wEKzV.s 			page 7


 188              		@ link register save eliminated.
 189 0000 80B4     		push	{r7}
 190              	.LCFI3:
 191              		.cfi_def_cfa_offset 4
 192              		.cfi_offset 7, -4
 193 0002 00AF     		add	r7, sp, #0
 194              	.LCFI4:
 195              		.cfi_def_cfa_register 7
 155:.\Generated_Source\PSoC5/CyLib.c ****     CY_CLK_PLL_CFG0_REG &= ((uint8)(~CY_CLK_PLL_ENABLE));
 196              		.loc 1 155 0
 197 0004 44F22023 		movw	r3, #16928
 198 0008 C4F20003 		movt	r3, 16384
 199 000c 44F22022 		movw	r2, #16928
 200 0010 C4F20002 		movt	r2, 16384
 201 0014 1278     		ldrb	r2, [r2, #0]
 202 0016 D2B2     		uxtb	r2, r2
 203 0018 22F00102 		bic	r2, r2, #1
 204 001c D2B2     		uxtb	r2, r2
 205 001e 1A70     		strb	r2, [r3, #0]
 156:.\Generated_Source\PSoC5/CyLib.c **** }
 206              		.loc 1 156 0
 207 0020 BD46     		mov	sp, r7
 208 0022 80BC     		pop	{r7}
 209 0024 7047     		bx	lr
 210              		.cfi_endproc
 211              	.LFE1:
 212              		.size	CyPLL_OUT_Stop, .-CyPLL_OUT_Stop
 213 0026 00BF     		.section	.text.CyPLL_OUT_SetPQ,"ax",%progbits
 214              		.align	2
 215              		.global	CyPLL_OUT_SetPQ
 216              		.thumb
 217              		.thumb_func
 218              		.type	CyPLL_OUT_SetPQ, %function
 219              	CyPLL_OUT_SetPQ:
 220              	.LFB2:
 157:.\Generated_Source\PSoC5/CyLib.c **** 
 158:.\Generated_Source\PSoC5/CyLib.c **** 
 159:.\Generated_Source\PSoC5/CyLib.c **** /*******************************************************************************
 160:.\Generated_Source\PSoC5/CyLib.c **** * Function Name: CyPLL_OUT_SetPQ
 161:.\Generated_Source\PSoC5/CyLib.c **** ********************************************************************************
 162:.\Generated_Source\PSoC5/CyLib.c **** *
 163:.\Generated_Source\PSoC5/CyLib.c **** * Summary:
 164:.\Generated_Source\PSoC5/CyLib.c **** *  Sets the P and Q dividers and the charge pump current.
 165:.\Generated_Source\PSoC5/CyLib.c **** *  The Frequency Out will be P/Q * Frequency In.
 166:.\Generated_Source\PSoC5/CyLib.c **** *  The PLL must be disabled before calling this function.
 167:.\Generated_Source\PSoC5/CyLib.c **** *
 168:.\Generated_Source\PSoC5/CyLib.c **** * Parameters:
 169:.\Generated_Source\PSoC5/CyLib.c **** *  uint8 pDiv:
 170:.\Generated_Source\PSoC5/CyLib.c **** *   Valid range [8 - 255].
 171:.\Generated_Source\PSoC5/CyLib.c **** *
 172:.\Generated_Source\PSoC5/CyLib.c **** *  uint8 qDiv:
 173:.\Generated_Source\PSoC5/CyLib.c **** *   Valid range [1 - 16]. Input Frequency / Q must be in range of 1 to 3 MHz.
 174:.\Generated_Source\PSoC5/CyLib.c **** 
 175:.\Generated_Source\PSoC5/CyLib.c **** *  uint8 current:
 176:.\Generated_Source\PSoC5/CyLib.c **** *   Valid range [1 - 7]. Charge pump current in uA. Refer to the device TRM and
 177:.\Generated_Source\PSoC5/CyLib.c **** *   datasheet for more information.
 178:.\Generated_Source\PSoC5/CyLib.c **** *
ARM GAS  C:\Users\RIEKOH~1\AppData\Local\Temp\cc0wEKzV.s 			page 8


 179:.\Generated_Source\PSoC5/CyLib.c **** * Return:
 180:.\Generated_Source\PSoC5/CyLib.c **** *  None
 181:.\Generated_Source\PSoC5/CyLib.c **** *
 182:.\Generated_Source\PSoC5/CyLib.c **** * Side Effects:
 183:.\Generated_Source\PSoC5/CyLib.c **** *  If as result of this function execution the CPU clock frequency is increased
 184:.\Generated_Source\PSoC5/CyLib.c **** *  then the number of clock cycles the cache will wait before it samples data
 185:.\Generated_Source\PSoC5/CyLib.c **** *  coming back from Flash must be adjusted by calling CyFlash_SetWaitCycles()
 186:.\Generated_Source\PSoC5/CyLib.c **** *  with appropriate parameter. It can be optionally called if CPU clock
 187:.\Generated_Source\PSoC5/CyLib.c **** *  frequency is lowered in order to improve CPU performance.
 188:.\Generated_Source\PSoC5/CyLib.c **** *  See CyFlash_SetWaitCycles() description for more information.
 189:.\Generated_Source\PSoC5/CyLib.c **** *
 190:.\Generated_Source\PSoC5/CyLib.c **** *******************************************************************************/
 191:.\Generated_Source\PSoC5/CyLib.c **** void CyPLL_OUT_SetPQ(uint8 pDiv, uint8 qDiv, uint8 current) 
 192:.\Generated_Source\PSoC5/CyLib.c **** {
 221              		.loc 1 192 0
 222              		.cfi_startproc
 223              		@ args = 0, pretend = 0, frame = 8
 224              		@ frame_needed = 1, uses_anonymous_args = 0
 225 0000 80B5     		push	{r7, lr}
 226              	.LCFI5:
 227              		.cfi_def_cfa_offset 8
 228              		.cfi_offset 7, -8
 229              		.cfi_offset 14, -4
 230 0002 82B0     		sub	sp, sp, #8
 231              	.LCFI6:
 232              		.cfi_def_cfa_offset 16
 233 0004 00AF     		add	r7, sp, #0
 234              	.LCFI7:
 235              		.cfi_def_cfa_register 7
 236 0006 1346     		mov	r3, r2
 237 0008 0246     		mov	r2, r0
 238 000a FA71     		strb	r2, [r7, #7]
 239 000c 0A46     		mov	r2, r1
 240 000e BA71     		strb	r2, [r7, #6]
 241 0010 7B71     		strb	r3, [r7, #5]
 193:.\Generated_Source\PSoC5/CyLib.c ****     /* Halt CPU in debug mode if PLL is enabled */
 194:.\Generated_Source\PSoC5/CyLib.c ****     CYASSERT(0u == (CY_CLK_PLL_CFG0_REG & CY_CLK_PLL_ENABLE));
 242              		.loc 1 194 0
 243 0012 44F22023 		movw	r3, #16928
 244 0016 C4F20003 		movt	r3, 16384
 245 001a 1B78     		ldrb	r3, [r3, #0]
 246 001c DBB2     		uxtb	r3, r3
 247 001e 03F00103 		and	r3, r3, #1
 248 0022 002B     		cmp	r3, #0
 249 0024 03D0     		beq	.L10
 250              		.loc 1 194 0 is_stmt 0 discriminator 1
 251 0026 4FF00000 		mov	r0, #0
 252 002a FFF7FEFF 		bl	CyHalt
 253              	.L10:
 195:.\Generated_Source\PSoC5/CyLib.c **** 
 196:.\Generated_Source\PSoC5/CyLib.c ****     if((pDiv    >= CY_CLK_PLL_MIN_P_VALUE  ) &&
 254              		.loc 1 196 0 is_stmt 1
 255 002e FB79     		ldrb	r3, [r7, #7]	@ zero_extendqisi2
 256 0030 072B     		cmp	r3, #7
 257 0032 32D9     		bls	.L11
 258              		.loc 1 196 0 is_stmt 0 discriminator 1
 259 0034 BB79     		ldrb	r3, [r7, #6]	@ zero_extendqisi2
ARM GAS  C:\Users\RIEKOH~1\AppData\Local\Temp\cc0wEKzV.s 			page 9


 260 0036 102B     		cmp	r3, #16
 261 0038 2FD8     		bhi	.L11
 197:.\Generated_Source\PSoC5/CyLib.c ****        (qDiv    <= CY_CLK_PLL_MAX_Q_VALUE  ) && (qDiv    >= CY_CLK_PLL_MIN_Q_VALUE  ) &&
 262              		.loc 1 197 0 is_stmt 1
 263 003a BB79     		ldrb	r3, [r7, #6]	@ zero_extendqisi2
 264 003c 002B     		cmp	r3, #0
 265 003e 2CD0     		beq	.L11
 266              		.loc 1 197 0 is_stmt 0 discriminator 1
 267 0040 7B79     		ldrb	r3, [r7, #5]	@ zero_extendqisi2
 268 0042 002B     		cmp	r3, #0
 269 0044 29D0     		beq	.L11
 198:.\Generated_Source\PSoC5/CyLib.c ****        (current >= CY_CLK_PLL_MIN_CUR_VALUE) && (current <= CY_CLK_PLL_MAX_CUR_VALUE))
 270              		.loc 1 198 0 is_stmt 1
 271 0046 7B79     		ldrb	r3, [r7, #5]	@ zero_extendqisi2
 272 0048 072B     		cmp	r3, #7
 273 004a 26D8     		bhi	.L11
 199:.\Generated_Source\PSoC5/CyLib.c ****     {
 200:.\Generated_Source\PSoC5/CyLib.c ****         /* Set new values */
 201:.\Generated_Source\PSoC5/CyLib.c ****         CY_CLK_PLL_P_REG = pDiv;
 274              		.loc 1 201 0
 275 004c 44F22223 		movw	r3, #16930
 276 0050 C4F20003 		movt	r3, 16384
 277 0054 FA79     		ldrb	r2, [r7, #7]
 278 0056 1A70     		strb	r2, [r3, #0]
 202:.\Generated_Source\PSoC5/CyLib.c ****         CY_CLK_PLL_Q_REG = ((uint8)(qDiv - 1u));
 279              		.loc 1 202 0
 280 0058 44F22323 		movw	r3, #16931
 281 005c C4F20003 		movt	r3, 16384
 282 0060 BA79     		ldrb	r2, [r7, #6]
 283 0062 02F1FF32 		add	r2, r2, #-1
 284 0066 D2B2     		uxtb	r2, r2
 285 0068 1A70     		strb	r2, [r3, #0]
 203:.\Generated_Source\PSoC5/CyLib.c ****         CY_CLK_PLL_CFG1_REG = (CY_CLK_PLL_CFG1_REG & CY_CLK_PLL_CURRENT_MASK) |
 286              		.loc 1 203 0
 287 006a 44F22123 		movw	r3, #16929
 288 006e C4F20003 		movt	r3, 16384
 289 0072 44F22122 		movw	r2, #16929
 290 0076 C4F20002 		movt	r2, 16384
 291 007a 1278     		ldrb	r2, [r2, #0]
 292 007c D2B2     		uxtb	r2, r2
 293 007e 22F07002 		bic	r2, r2, #112
 294 0082 D1B2     		uxtb	r1, r2
 204:.\Generated_Source\PSoC5/CyLib.c ****                                 ((uint8)(((uint8)(current - 1u)) << CY_CLK_PLL_CURRENT_POSITION));
 295              		.loc 1 204 0
 296 0084 7A79     		ldrb	r2, [r7, #5]
 297 0086 02F1FF32 		add	r2, r2, #-1
 298 008a D2B2     		uxtb	r2, r2
 299 008c 4FEA0212 		lsl	r2, r2, #4
 300 0090 D2B2     		uxtb	r2, r2
 203:.\Generated_Source\PSoC5/CyLib.c ****         CY_CLK_PLL_CFG1_REG = (CY_CLK_PLL_CFG1_REG & CY_CLK_PLL_CURRENT_MASK) |
 301              		.loc 1 203 0
 302 0092 0A43     		orrs	r2, r2, r1
 303 0094 D2B2     		uxtb	r2, r2
 304 0096 1A70     		strb	r2, [r3, #0]
 305 0098 03E0     		b	.L9
 306              	.L11:
 205:.\Generated_Source\PSoC5/CyLib.c ****     }
ARM GAS  C:\Users\RIEKOH~1\AppData\Local\Temp\cc0wEKzV.s 			page 10


 206:.\Generated_Source\PSoC5/CyLib.c ****     else
 207:.\Generated_Source\PSoC5/CyLib.c ****     {
 208:.\Generated_Source\PSoC5/CyLib.c ****         /***********************************************************************
 209:.\Generated_Source\PSoC5/CyLib.c ****         * Halt CPU in debug mode if:
 210:.\Generated_Source\PSoC5/CyLib.c ****         * - P divider is less than required
 211:.\Generated_Source\PSoC5/CyLib.c ****         * - Q divider is out of range
 212:.\Generated_Source\PSoC5/CyLib.c ****         * - pump current is out of range
 213:.\Generated_Source\PSoC5/CyLib.c ****         ***********************************************************************/
 214:.\Generated_Source\PSoC5/CyLib.c ****         CYASSERT(0u != 0u);
 307              		.loc 1 214 0 discriminator 1
 308 009a 4FF00000 		mov	r0, #0
 309 009e FFF7FEFF 		bl	CyHalt
 310              	.L9:
 215:.\Generated_Source\PSoC5/CyLib.c ****     }
 216:.\Generated_Source\PSoC5/CyLib.c **** 
 217:.\Generated_Source\PSoC5/CyLib.c **** }
 311              		.loc 1 217 0
 312 00a2 07F10807 		add	r7, r7, #8
 313 00a6 BD46     		mov	sp, r7
 314 00a8 80BD     		pop	{r7, pc}
 315              		.cfi_endproc
 316              	.LFE2:
 317              		.size	CyPLL_OUT_SetPQ, .-CyPLL_OUT_SetPQ
 318 00aa 00BF     		.section	.text.CyPLL_OUT_SetSource,"ax",%progbits
 319              		.align	2
 320              		.global	CyPLL_OUT_SetSource
 321              		.thumb
 322              		.thumb_func
 323              		.type	CyPLL_OUT_SetSource, %function
 324              	CyPLL_OUT_SetSource:
 325              	.LFB3:
 218:.\Generated_Source\PSoC5/CyLib.c **** 
 219:.\Generated_Source\PSoC5/CyLib.c **** 
 220:.\Generated_Source\PSoC5/CyLib.c **** /*******************************************************************************
 221:.\Generated_Source\PSoC5/CyLib.c **** * Function Name: CyPLL_OUT_SetSource
 222:.\Generated_Source\PSoC5/CyLib.c **** ********************************************************************************
 223:.\Generated_Source\PSoC5/CyLib.c **** *
 224:.\Generated_Source\PSoC5/CyLib.c **** * Summary:
 225:.\Generated_Source\PSoC5/CyLib.c **** *  Sets the input clock source to the PLL. The PLL must be disabled before
 226:.\Generated_Source\PSoC5/CyLib.c **** *  calling this function.
 227:.\Generated_Source\PSoC5/CyLib.c **** *
 228:.\Generated_Source\PSoC5/CyLib.c **** * Parameters:
 229:.\Generated_Source\PSoC5/CyLib.c **** *   source: One of the three available PLL clock sources
 230:.\Generated_Source\PSoC5/CyLib.c **** *    CY_PLL_SOURCE_IMO  :   IMO
 231:.\Generated_Source\PSoC5/CyLib.c **** *    CY_PLL_SOURCE_XTAL :   MHz Crystal
 232:.\Generated_Source\PSoC5/CyLib.c **** *    CY_PLL_SOURCE_DSI  :   DSI
 233:.\Generated_Source\PSoC5/CyLib.c **** *
 234:.\Generated_Source\PSoC5/CyLib.c **** * Return:
 235:.\Generated_Source\PSoC5/CyLib.c **** *  None
 236:.\Generated_Source\PSoC5/CyLib.c **** *
 237:.\Generated_Source\PSoC5/CyLib.c **** * Side Effects:
 238:.\Generated_Source\PSoC5/CyLib.c **** *  If as result of this function execution the CPU clock frequency is increased
 239:.\Generated_Source\PSoC5/CyLib.c **** *  then the number of clock cycles the cache will wait before it samples data
 240:.\Generated_Source\PSoC5/CyLib.c **** *  coming back from Flash must be adjusted by calling CyFlash_SetWaitCycles()
 241:.\Generated_Source\PSoC5/CyLib.c **** *  with appropriate parameter. It can be optionally called if CPU clock
 242:.\Generated_Source\PSoC5/CyLib.c **** *  frequency is lowered in order to improve CPU performance.
 243:.\Generated_Source\PSoC5/CyLib.c **** *  See CyFlash_SetWaitCycles() description for more information.
ARM GAS  C:\Users\RIEKOH~1\AppData\Local\Temp\cc0wEKzV.s 			page 11


 244:.\Generated_Source\PSoC5/CyLib.c **** *
 245:.\Generated_Source\PSoC5/CyLib.c **** *******************************************************************************/
 246:.\Generated_Source\PSoC5/CyLib.c **** void CyPLL_OUT_SetSource(uint8 source) 
 247:.\Generated_Source\PSoC5/CyLib.c **** {
 326              		.loc 1 247 0
 327              		.cfi_startproc
 328              		@ args = 0, pretend = 0, frame = 8
 329              		@ frame_needed = 1, uses_anonymous_args = 0
 330 0000 80B5     		push	{r7, lr}
 331              	.LCFI8:
 332              		.cfi_def_cfa_offset 8
 333              		.cfi_offset 7, -8
 334              		.cfi_offset 14, -4
 335 0002 82B0     		sub	sp, sp, #8
 336              	.LCFI9:
 337              		.cfi_def_cfa_offset 16
 338 0004 00AF     		add	r7, sp, #0
 339              	.LCFI10:
 340              		.cfi_def_cfa_register 7
 341 0006 0346     		mov	r3, r0
 342 0008 FB71     		strb	r3, [r7, #7]
 248:.\Generated_Source\PSoC5/CyLib.c ****     /* Halt CPU in debug mode if PLL is enabled */
 249:.\Generated_Source\PSoC5/CyLib.c ****     CYASSERT(0u == (CY_CLK_PLL_CFG0_REG & CY_CLK_PLL_ENABLE));
 343              		.loc 1 249 0
 344 000a 44F22023 		movw	r3, #16928
 345 000e C4F20003 		movt	r3, 16384
 346 0012 1B78     		ldrb	r3, [r3, #0]
 347 0014 DBB2     		uxtb	r3, r3
 348 0016 03F00103 		and	r3, r3, #1
 349 001a 002B     		cmp	r3, #0
 350 001c 03D0     		beq	.L14
 351              		.loc 1 249 0 is_stmt 0 discriminator 1
 352 001e 4FF00000 		mov	r0, #0
 353 0022 FFF7FEFF 		bl	CyHalt
 354              	.L14:
 250:.\Generated_Source\PSoC5/CyLib.c **** 
 251:.\Generated_Source\PSoC5/CyLib.c ****     switch(source)
 355              		.loc 1 251 0 is_stmt 1
 356 0026 FB79     		ldrb	r3, [r7, #7]	@ zero_extendqisi2
 357 0028 03F10003 		add	r3, r3, #0
 358 002c 022B     		cmp	r3, #2
 359 002e 0DD8     		bhi	.L15
 252:.\Generated_Source\PSoC5/CyLib.c ****     {
 253:.\Generated_Source\PSoC5/CyLib.c ****         case CY_PLL_SOURCE_IMO:
 254:.\Generated_Source\PSoC5/CyLib.c ****         case CY_PLL_SOURCE_XTAL:
 255:.\Generated_Source\PSoC5/CyLib.c ****         case CY_PLL_SOURCE_DSI:
 256:.\Generated_Source\PSoC5/CyLib.c ****             CY_LIB_CLKDIST_CR_REG = ((CY_LIB_CLKDIST_CR_REG & CY_LIB_CLKDIST_CR_PLL_SCR_MASK) | sou
 360              		.loc 1 256 0
 361 0030 4FF04023 		mov	r3, #1073758208
 362 0034 4FF04022 		mov	r2, #1073758208
 363 0038 1278     		ldrb	r2, [r2, #0]
 364 003a D2B2     		uxtb	r2, r2
 365 003c 22F00302 		bic	r2, r2, #3
 366 0040 D1B2     		uxtb	r1, r2
 367 0042 FA79     		ldrb	r2, [r7, #7]
 368 0044 0A43     		orrs	r2, r2, r1
 369 0046 D2B2     		uxtb	r2, r2
ARM GAS  C:\Users\RIEKOH~1\AppData\Local\Temp\cc0wEKzV.s 			page 12


 370 0048 1A70     		strb	r2, [r3, #0]
 257:.\Generated_Source\PSoC5/CyLib.c ****         break;
 371              		.loc 1 257 0
 372 004a 04E0     		b	.L13
 373              	.L15:
 258:.\Generated_Source\PSoC5/CyLib.c **** 
 259:.\Generated_Source\PSoC5/CyLib.c ****         default:
 260:.\Generated_Source\PSoC5/CyLib.c ****             CYASSERT(0u != 0u);
 374              		.loc 1 260 0 discriminator 1
 375 004c 4FF00000 		mov	r0, #0
 376 0050 FFF7FEFF 		bl	CyHalt
 261:.\Generated_Source\PSoC5/CyLib.c ****         break;
 377              		.loc 1 261 0 discriminator 1
 378 0054 00BF     		nop
 379              	.L13:
 262:.\Generated_Source\PSoC5/CyLib.c ****     }
 263:.\Generated_Source\PSoC5/CyLib.c **** }
 380              		.loc 1 263 0
 381 0056 07F10807 		add	r7, r7, #8
 382 005a BD46     		mov	sp, r7
 383 005c 80BD     		pop	{r7, pc}
 384              		.cfi_endproc
 385              	.LFE3:
 386              		.size	CyPLL_OUT_SetSource, .-CyPLL_OUT_SetSource
 387 005e 00BF     		.section	.text.CyIMO_Start,"ax",%progbits
 388              		.align	2
 389              		.global	CyIMO_Start
 390              		.thumb
 391              		.thumb_func
 392              		.type	CyIMO_Start, %function
 393              	CyIMO_Start:
 394              	.LFB4:
 264:.\Generated_Source\PSoC5/CyLib.c **** 
 265:.\Generated_Source\PSoC5/CyLib.c **** 
 266:.\Generated_Source\PSoC5/CyLib.c **** /*******************************************************************************
 267:.\Generated_Source\PSoC5/CyLib.c **** * Function Name: CyIMO_Start
 268:.\Generated_Source\PSoC5/CyLib.c **** ********************************************************************************
 269:.\Generated_Source\PSoC5/CyLib.c **** *
 270:.\Generated_Source\PSoC5/CyLib.c **** * Summary:
 271:.\Generated_Source\PSoC5/CyLib.c **** *  Enables the IMO. Optionally waits at least 6 us for it to settle.
 272:.\Generated_Source\PSoC5/CyLib.c **** *
 273:.\Generated_Source\PSoC5/CyLib.c **** * Parameters:
 274:.\Generated_Source\PSoC5/CyLib.c **** *  uint8 wait:
 275:.\Generated_Source\PSoC5/CyLib.c **** *   0: Return immediately after configuration
 276:.\Generated_Source\PSoC5/CyLib.c **** *   1: Wait for at least 6 us for the IMO to settle.
 277:.\Generated_Source\PSoC5/CyLib.c **** *
 278:.\Generated_Source\PSoC5/CyLib.c **** * Return:
 279:.\Generated_Source\PSoC5/CyLib.c **** *  None
 280:.\Generated_Source\PSoC5/CyLib.c **** *
 281:.\Generated_Source\PSoC5/CyLib.c **** * Side Effects:
 282:.\Generated_Source\PSoC5/CyLib.c **** *  If wait is enabled: This function wses the Fast Time Wheel to time the wait.
 283:.\Generated_Source\PSoC5/CyLib.c **** *  Any other use of the Fast Time Wheel will be stopped during the period of
 284:.\Generated_Source\PSoC5/CyLib.c **** *  this function and then restored. This function also uses the 100 KHz ILO.
 285:.\Generated_Source\PSoC5/CyLib.c **** *  If not enabled, this function will enable the 100 KHz ILO for the period of
 286:.\Generated_Source\PSoC5/CyLib.c **** *  this function.
 287:.\Generated_Source\PSoC5/CyLib.c **** *
 288:.\Generated_Source\PSoC5/CyLib.c **** *  No changes to the setup of the ILO, Fast Time Wheel, Central Time Wheel or
ARM GAS  C:\Users\RIEKOH~1\AppData\Local\Temp\cc0wEKzV.s 			page 13


 289:.\Generated_Source\PSoC5/CyLib.c **** *  Once Per Second interrupt may be made by interrupt routines during the period
 290:.\Generated_Source\PSoC5/CyLib.c **** *  of this function execution. The current operation of the ILO, Central Time
 291:.\Generated_Source\PSoC5/CyLib.c **** *  Wheel and Once Per Second interrupt are maintained during the operation of
 292:.\Generated_Source\PSoC5/CyLib.c **** *  this function provided the reading of the Power Manager Interrupt Status
 293:.\Generated_Source\PSoC5/CyLib.c **** *  Register is only done using the CyPmReadStatus() function.
 294:.\Generated_Source\PSoC5/CyLib.c **** *
 295:.\Generated_Source\PSoC5/CyLib.c **** *******************************************************************************/
 296:.\Generated_Source\PSoC5/CyLib.c **** void CyIMO_Start(uint8 wait) 
 297:.\Generated_Source\PSoC5/CyLib.c **** {
 395              		.loc 1 297 0
 396              		.cfi_startproc
 397              		@ args = 0, pretend = 0, frame = 16
 398              		@ frame_needed = 1, uses_anonymous_args = 0
 399 0000 80B5     		push	{r7, lr}
 400              	.LCFI11:
 401              		.cfi_def_cfa_offset 8
 402              		.cfi_offset 7, -8
 403              		.cfi_offset 14, -4
 404 0002 84B0     		sub	sp, sp, #16
 405              	.LCFI12:
 406              		.cfi_def_cfa_offset 24
 407 0004 00AF     		add	r7, sp, #0
 408              	.LCFI13:
 409              		.cfi_def_cfa_register 7
 410 0006 0346     		mov	r3, r0
 411 0008 FB71     		strb	r3, [r7, #7]
 298:.\Generated_Source\PSoC5/CyLib.c ****     uint8 pmFtwCfg2Reg;
 299:.\Generated_Source\PSoC5/CyLib.c ****     uint8 pmFtwCfg0Reg;
 300:.\Generated_Source\PSoC5/CyLib.c ****     uint8 ilo100KhzEnable;
 301:.\Generated_Source\PSoC5/CyLib.c **** 
 302:.\Generated_Source\PSoC5/CyLib.c **** 
 303:.\Generated_Source\PSoC5/CyLib.c ****     CY_LIB_PM_ACT_CFG0_REG  |= CY_LIB_PM_ACT_CFG0_IMO_EN;
 412              		.loc 1 303 0
 413 000a 44F2A033 		movw	r3, #17312
 414 000e C4F20003 		movt	r3, 16384
 415 0012 44F2A032 		movw	r2, #17312
 416 0016 C4F20002 		movt	r2, 16384
 417 001a 1278     		ldrb	r2, [r2, #0]
 418 001c D2B2     		uxtb	r2, r2
 419 001e 42F01002 		orr	r2, r2, #16
 420 0022 D2B2     		uxtb	r2, r2
 421 0024 1A70     		strb	r2, [r3, #0]
 304:.\Generated_Source\PSoC5/CyLib.c ****     CY_LIB_PM_STBY_CFG0_REG |= CY_LIB_PM_STBY_CFG0_IMO_EN;
 422              		.loc 1 304 0
 423 0026 44F2B033 		movw	r3, #17328
 424 002a C4F20003 		movt	r3, 16384
 425 002e 44F2B032 		movw	r2, #17328
 426 0032 C4F20002 		movt	r2, 16384
 427 0036 1278     		ldrb	r2, [r2, #0]
 428 0038 D2B2     		uxtb	r2, r2
 429 003a 42F01002 		orr	r2, r2, #16
 430 003e D2B2     		uxtb	r2, r2
 431 0040 1A70     		strb	r2, [r3, #0]
 305:.\Generated_Source\PSoC5/CyLib.c **** 
 306:.\Generated_Source\PSoC5/CyLib.c ****     if(0u != wait)
 432              		.loc 1 306 0
 433 0042 FB79     		ldrb	r3, [r7, #7]	@ zero_extendqisi2
ARM GAS  C:\Users\RIEKOH~1\AppData\Local\Temp\cc0wEKzV.s 			page 14


 434 0044 002B     		cmp	r3, #0
 435 0046 34D0     		beq	.L18
 307:.\Generated_Source\PSoC5/CyLib.c ****     {
 308:.\Generated_Source\PSoC5/CyLib.c ****         /* Need to turn on the 100KHz ILO if it happens to not already be running.*/
 309:.\Generated_Source\PSoC5/CyLib.c ****         ilo100KhzEnable = CY_LIB_SLOWCLK_ILO_CR0_REG & CY_LIB_SLOWCLK_ILO_CR0_EN_100KHZ;
 436              		.loc 1 309 0
 437 0048 4FF48643 		mov	r3, #17152
 438 004c C4F20003 		movt	r3, 16384
 439 0050 1B78     		ldrb	r3, [r3, #0]
 440 0052 DBB2     		uxtb	r3, r3
 441 0054 03F00403 		and	r3, r3, #4
 442 0058 FB73     		strb	r3, [r7, #15]
 310:.\Generated_Source\PSoC5/CyLib.c ****         pmFtwCfg0Reg = CY_LIB_PM_TW_CFG0_REG;
 443              		.loc 1 310 0
 444 005a 4FF48743 		mov	r3, #17280
 445 005e C4F20003 		movt	r3, 16384
 446 0062 1B78     		ldrb	r3, [r3, #0]
 447 0064 BB73     		strb	r3, [r7, #14]
 311:.\Generated_Source\PSoC5/CyLib.c ****         pmFtwCfg2Reg = CY_LIB_PM_TW_CFG2_REG;
 448              		.loc 1 311 0
 449 0066 44F28233 		movw	r3, #17282
 450 006a C4F20003 		movt	r3, 16384
 451 006e 1B78     		ldrb	r3, [r3, #0]
 452 0070 7B73     		strb	r3, [r7, #13]
 312:.\Generated_Source\PSoC5/CyLib.c **** 
 313:.\Generated_Source\PSoC5/CyLib.c ****         CyPmFtwSetInterval(CY_LIB_CLK_IMO_FTW_TIMEOUT);
 453              		.loc 1 313 0
 454 0072 4FF00000 		mov	r0, #0
 455 0076 FFF7FEFF 		bl	CyPmFtwSetInterval
 314:.\Generated_Source\PSoC5/CyLib.c **** 
 315:.\Generated_Source\PSoC5/CyLib.c ****         while (0u == (CY_PM_FTW_INT & CyPmReadStatus(CY_PM_FTW_INT)))
 456              		.loc 1 315 0
 457 007a 00BF     		nop
 458              	.L20:
 459              		.loc 1 315 0 is_stmt 0 discriminator 1
 460 007c 4FF00100 		mov	r0, #1
 461 0080 FFF7FEFF 		bl	CyPmReadStatus
 462 0084 0346     		mov	r3, r0
 463 0086 03F00103 		and	r3, r3, #1
 464 008a DBB2     		uxtb	r3, r3
 465 008c 002B     		cmp	r3, #0
 466 008e F5D0     		beq	.L20
 316:.\Generated_Source\PSoC5/CyLib.c ****         {
 317:.\Generated_Source\PSoC5/CyLib.c ****             /* Wait for the interrupt status */
 318:.\Generated_Source\PSoC5/CyLib.c ****         }
 319:.\Generated_Source\PSoC5/CyLib.c **** 
 320:.\Generated_Source\PSoC5/CyLib.c ****         if(0u == ilo100KhzEnable)
 467              		.loc 1 320 0 is_stmt 1
 468 0090 FB7B     		ldrb	r3, [r7, #15]	@ zero_extendqisi2
 469 0092 002B     		cmp	r3, #0
 470 0094 01D1     		bne	.L21
 321:.\Generated_Source\PSoC5/CyLib.c ****         {
 322:.\Generated_Source\PSoC5/CyLib.c ****             CyILO_Stop100K();
 471              		.loc 1 322 0
 472 0096 FFF7FEFF 		bl	CyILO_Stop100K
 473              	.L21:
 323:.\Generated_Source\PSoC5/CyLib.c ****         }
ARM GAS  C:\Users\RIEKOH~1\AppData\Local\Temp\cc0wEKzV.s 			page 15


 324:.\Generated_Source\PSoC5/CyLib.c **** 
 325:.\Generated_Source\PSoC5/CyLib.c ****         CY_LIB_PM_TW_CFG0_REG = pmFtwCfg0Reg;
 474              		.loc 1 325 0
 475 009a 4FF48743 		mov	r3, #17280
 476 009e C4F20003 		movt	r3, 16384
 477 00a2 BA7B     		ldrb	r2, [r7, #14]
 478 00a4 1A70     		strb	r2, [r3, #0]
 326:.\Generated_Source\PSoC5/CyLib.c ****         CY_LIB_PM_TW_CFG2_REG = pmFtwCfg2Reg;
 479              		.loc 1 326 0
 480 00a6 44F28233 		movw	r3, #17282
 481 00aa C4F20003 		movt	r3, 16384
 482 00ae 7A7B     		ldrb	r2, [r7, #13]
 483 00b0 1A70     		strb	r2, [r3, #0]
 484              	.L18:
 327:.\Generated_Source\PSoC5/CyLib.c ****     }
 328:.\Generated_Source\PSoC5/CyLib.c **** }
 485              		.loc 1 328 0
 486 00b2 07F11007 		add	r7, r7, #16
 487 00b6 BD46     		mov	sp, r7
 488 00b8 80BD     		pop	{r7, pc}
 489              		.cfi_endproc
 490              	.LFE4:
 491              		.size	CyIMO_Start, .-CyIMO_Start
 492 00ba 00BF     		.section	.text.CyIMO_Stop,"ax",%progbits
 493              		.align	2
 494              		.global	CyIMO_Stop
 495              		.thumb
 496              		.thumb_func
 497              		.type	CyIMO_Stop, %function
 498              	CyIMO_Stop:
 499              	.LFB5:
 329:.\Generated_Source\PSoC5/CyLib.c **** 
 330:.\Generated_Source\PSoC5/CyLib.c **** 
 331:.\Generated_Source\PSoC5/CyLib.c **** /*******************************************************************************
 332:.\Generated_Source\PSoC5/CyLib.c **** * Function Name: CyIMO_Stop
 333:.\Generated_Source\PSoC5/CyLib.c **** ********************************************************************************
 334:.\Generated_Source\PSoC5/CyLib.c **** *
 335:.\Generated_Source\PSoC5/CyLib.c **** * Summary:
 336:.\Generated_Source\PSoC5/CyLib.c **** *   Disables the IMO.
 337:.\Generated_Source\PSoC5/CyLib.c **** *
 338:.\Generated_Source\PSoC5/CyLib.c **** * Parameters:
 339:.\Generated_Source\PSoC5/CyLib.c **** *  None
 340:.\Generated_Source\PSoC5/CyLib.c **** *
 341:.\Generated_Source\PSoC5/CyLib.c **** * Return:
 342:.\Generated_Source\PSoC5/CyLib.c **** *  None
 343:.\Generated_Source\PSoC5/CyLib.c **** *
 344:.\Generated_Source\PSoC5/CyLib.c **** *******************************************************************************/
 345:.\Generated_Source\PSoC5/CyLib.c **** void CyIMO_Stop(void) 
 346:.\Generated_Source\PSoC5/CyLib.c **** {
 500              		.loc 1 346 0
 501              		.cfi_startproc
 502              		@ args = 0, pretend = 0, frame = 0
 503              		@ frame_needed = 1, uses_anonymous_args = 0
 504              		@ link register save eliminated.
 505 0000 80B4     		push	{r7}
 506              	.LCFI14:
 507              		.cfi_def_cfa_offset 4
ARM GAS  C:\Users\RIEKOH~1\AppData\Local\Temp\cc0wEKzV.s 			page 16


 508              		.cfi_offset 7, -4
 509 0002 00AF     		add	r7, sp, #0
 510              	.LCFI15:
 511              		.cfi_def_cfa_register 7
 347:.\Generated_Source\PSoC5/CyLib.c ****     CY_LIB_PM_ACT_CFG0_REG  &= ((uint8) (~CY_LIB_PM_ACT_CFG0_IMO_EN));
 512              		.loc 1 347 0
 513 0004 44F2A033 		movw	r3, #17312
 514 0008 C4F20003 		movt	r3, 16384
 515 000c 44F2A032 		movw	r2, #17312
 516 0010 C4F20002 		movt	r2, 16384
 517 0014 1278     		ldrb	r2, [r2, #0]
 518 0016 D2B2     		uxtb	r2, r2
 519 0018 22F01002 		bic	r2, r2, #16
 520 001c D2B2     		uxtb	r2, r2
 521 001e 1A70     		strb	r2, [r3, #0]
 348:.\Generated_Source\PSoC5/CyLib.c ****     CY_LIB_PM_STBY_CFG0_REG &= ((uint8) (~CY_LIB_PM_STBY_CFG0_IMO_EN));
 522              		.loc 1 348 0
 523 0020 44F2B033 		movw	r3, #17328
 524 0024 C4F20003 		movt	r3, 16384
 525 0028 44F2B032 		movw	r2, #17328
 526 002c C4F20002 		movt	r2, 16384
 527 0030 1278     		ldrb	r2, [r2, #0]
 528 0032 D2B2     		uxtb	r2, r2
 529 0034 22F01002 		bic	r2, r2, #16
 530 0038 D2B2     		uxtb	r2, r2
 531 003a 1A70     		strb	r2, [r3, #0]
 349:.\Generated_Source\PSoC5/CyLib.c **** }
 532              		.loc 1 349 0
 533 003c BD46     		mov	sp, r7
 534 003e 80BC     		pop	{r7}
 535 0040 7047     		bx	lr
 536              		.cfi_endproc
 537              	.LFE5:
 538              		.size	CyIMO_Stop, .-CyIMO_Stop
 539 0042 00BF     		.section	.text.CyUSB_PowerOnCheck,"ax",%progbits
 540              		.align	2
 541              		.thumb
 542              		.thumb_func
 543              		.type	CyUSB_PowerOnCheck, %function
 544              	CyUSB_PowerOnCheck:
 545              	.LFB6:
 350:.\Generated_Source\PSoC5/CyLib.c **** 
 351:.\Generated_Source\PSoC5/CyLib.c **** 
 352:.\Generated_Source\PSoC5/CyLib.c **** /*******************************************************************************
 353:.\Generated_Source\PSoC5/CyLib.c **** * Function Name: CyUSB_PowerOnCheck
 354:.\Generated_Source\PSoC5/CyLib.c **** ********************************************************************************
 355:.\Generated_Source\PSoC5/CyLib.c **** *
 356:.\Generated_Source\PSoC5/CyLib.c **** * Summary:
 357:.\Generated_Source\PSoC5/CyLib.c **** *  Returns the USB power status value. A private function to cy_boot.
 358:.\Generated_Source\PSoC5/CyLib.c **** *
 359:.\Generated_Source\PSoC5/CyLib.c **** * Parameters:
 360:.\Generated_Source\PSoC5/CyLib.c **** *   None
 361:.\Generated_Source\PSoC5/CyLib.c **** *
 362:.\Generated_Source\PSoC5/CyLib.c **** * Return:
 363:.\Generated_Source\PSoC5/CyLib.c **** *   uint8: one if the USB is enabled, 0 if not enabled.
 364:.\Generated_Source\PSoC5/CyLib.c **** *
 365:.\Generated_Source\PSoC5/CyLib.c **** *******************************************************************************/
ARM GAS  C:\Users\RIEKOH~1\AppData\Local\Temp\cc0wEKzV.s 			page 17


 366:.\Generated_Source\PSoC5/CyLib.c **** static uint8 CyUSB_PowerOnCheck(void)  
 367:.\Generated_Source\PSoC5/CyLib.c **** {
 546              		.loc 1 367 0
 547              		.cfi_startproc
 548              		@ args = 0, pretend = 0, frame = 8
 549              		@ frame_needed = 1, uses_anonymous_args = 0
 550              		@ link register save eliminated.
 551 0000 80B4     		push	{r7}
 552              	.LCFI16:
 553              		.cfi_def_cfa_offset 4
 554              		.cfi_offset 7, -4
 555 0002 83B0     		sub	sp, sp, #12
 556              	.LCFI17:
 557              		.cfi_def_cfa_offset 16
 558 0004 00AF     		add	r7, sp, #0
 559              	.LCFI18:
 560              		.cfi_def_cfa_register 7
 368:.\Generated_Source\PSoC5/CyLib.c ****     uint8 poweredOn = 0u;
 561              		.loc 1 368 0
 562 0006 4FF00003 		mov	r3, #0
 563 000a FB71     		strb	r3, [r7, #7]
 369:.\Generated_Source\PSoC5/CyLib.c **** 
 370:.\Generated_Source\PSoC5/CyLib.c ****     /* Check whether device is in Active or AltActiv and if USB is powered on */
 371:.\Generated_Source\PSoC5/CyLib.c ****     if((((CY_PM_MODE_CSR_REG & CY_PM_MODE_CSR_MASK) == CY_PM_MODE_CSR_ACTIVE ) &&
 564              		.loc 1 371 0
 565 000c 44F29333 		movw	r3, #17299
 566 0010 C4F20003 		movt	r3, 16384
 567 0014 1B78     		ldrb	r3, [r3, #0]
 568 0016 DBB2     		uxtb	r3, r3
 569 0018 03F00703 		and	r3, r3, #7
 570 001c 002B     		cmp	r3, #0
 571 001e 09D1     		bne	.L24
 372:.\Generated_Source\PSoC5/CyLib.c ****        (0u != (CY_LIB_PM_ACT_CFG5_REG & CY_ACT_USB_ENABLED     )))  ||
 572              		.loc 1 372 0 discriminator 1
 573 0020 44F2A533 		movw	r3, #17317
 574 0024 C4F20003 		movt	r3, 16384
 575 0028 1B78     		ldrb	r3, [r3, #0]
 576 002a DBB2     		uxtb	r3, r3
 577 002c 03F00103 		and	r3, r3, #1
 371:.\Generated_Source\PSoC5/CyLib.c ****     if((((CY_PM_MODE_CSR_REG & CY_PM_MODE_CSR_MASK) == CY_PM_MODE_CSR_ACTIVE ) &&
 578              		.loc 1 371 0 discriminator 1
 579 0030 002B     		cmp	r3, #0
 580 0032 13D1     		bne	.L25
 581              	.L24:
 373:.\Generated_Source\PSoC5/CyLib.c ****        (((CY_PM_MODE_CSR_REG & CY_PM_MODE_CSR_MASK) == CY_PM_MODE_CSR_ALT_ACT) &&
 582              		.loc 1 373 0
 583 0034 44F29333 		movw	r3, #17299
 584 0038 C4F20003 		movt	r3, 16384
 585 003c 1B78     		ldrb	r3, [r3, #0]
 586 003e DBB2     		uxtb	r3, r3
 587 0040 03F00703 		and	r3, r3, #7
 372:.\Generated_Source\PSoC5/CyLib.c ****        (0u != (CY_LIB_PM_ACT_CFG5_REG & CY_ACT_USB_ENABLED     )))  ||
 588              		.loc 1 372 0
 589 0044 012B     		cmp	r3, #1
 590 0046 0CD1     		bne	.L26
 374:.\Generated_Source\PSoC5/CyLib.c ****        (0u != (CY_LIB_PM_STBY_CFG5_REG & CY_ALT_ACT_USB_ENABLED))))
 591              		.loc 1 374 0
ARM GAS  C:\Users\RIEKOH~1\AppData\Local\Temp\cc0wEKzV.s 			page 18


 592 0048 44F2B533 		movw	r3, #17333
 593 004c C4F20003 		movt	r3, 16384
 594 0050 1B78     		ldrb	r3, [r3, #0]
 595 0052 DBB2     		uxtb	r3, r3
 596 0054 03F00103 		and	r3, r3, #1
 373:.\Generated_Source\PSoC5/CyLib.c ****        (((CY_PM_MODE_CSR_REG & CY_PM_MODE_CSR_MASK) == CY_PM_MODE_CSR_ALT_ACT) &&
 597              		.loc 1 373 0
 598 0058 002B     		cmp	r3, #0
 599 005a 02D0     		beq	.L26
 600              	.L25:
 375:.\Generated_Source\PSoC5/CyLib.c ****     {
 376:.\Generated_Source\PSoC5/CyLib.c ****         poweredOn = 1u;
 601              		.loc 1 376 0
 602 005c 4FF00103 		mov	r3, #1
 603 0060 FB71     		strb	r3, [r7, #7]
 604              	.L26:
 377:.\Generated_Source\PSoC5/CyLib.c ****     }
 378:.\Generated_Source\PSoC5/CyLib.c **** 
 379:.\Generated_Source\PSoC5/CyLib.c ****     return (poweredOn);
 605              		.loc 1 379 0
 606 0062 FB79     		ldrb	r3, [r7, #7]	@ zero_extendqisi2
 380:.\Generated_Source\PSoC5/CyLib.c **** }
 607              		.loc 1 380 0
 608 0064 1846     		mov	r0, r3
 609 0066 07F10C07 		add	r7, r7, #12
 610 006a BD46     		mov	sp, r7
 611 006c 80BC     		pop	{r7}
 612 006e 7047     		bx	lr
 613              		.cfi_endproc
 614              	.LFE6:
 615              		.size	CyUSB_PowerOnCheck, .-CyUSB_PowerOnCheck
 616              		.section	.text.CyIMO_SetTrimValue,"ax",%progbits
 617              		.align	2
 618              		.thumb
 619              		.thumb_func
 620              		.type	CyIMO_SetTrimValue, %function
 621              	CyIMO_SetTrimValue:
 622              	.LFB7:
 381:.\Generated_Source\PSoC5/CyLib.c **** 
 382:.\Generated_Source\PSoC5/CyLib.c **** 
 383:.\Generated_Source\PSoC5/CyLib.c **** /*******************************************************************************
 384:.\Generated_Source\PSoC5/CyLib.c **** * Function Name: CyIMO_SetTrimValue
 385:.\Generated_Source\PSoC5/CyLib.c **** ********************************************************************************
 386:.\Generated_Source\PSoC5/CyLib.c **** *
 387:.\Generated_Source\PSoC5/CyLib.c **** * Summary:
 388:.\Generated_Source\PSoC5/CyLib.c **** *  Sets the IMO factory trim values.
 389:.\Generated_Source\PSoC5/CyLib.c **** *
 390:.\Generated_Source\PSoC5/CyLib.c **** * Parameters:
 391:.\Generated_Source\PSoC5/CyLib.c **** *  uint8 freq - frequency for which trims must be set
 392:.\Generated_Source\PSoC5/CyLib.c **** *
 393:.\Generated_Source\PSoC5/CyLib.c **** * Return:
 394:.\Generated_Source\PSoC5/CyLib.c **** *  None
 395:.\Generated_Source\PSoC5/CyLib.c **** *
 396:.\Generated_Source\PSoC5/CyLib.c **** *******************************************************************************/
 397:.\Generated_Source\PSoC5/CyLib.c **** static void CyIMO_SetTrimValue(uint8 freq) 
 398:.\Generated_Source\PSoC5/CyLib.c **** {
 623              		.loc 1 398 0
ARM GAS  C:\Users\RIEKOH~1\AppData\Local\Temp\cc0wEKzV.s 			page 19


 624              		.cfi_startproc
 625              		@ args = 0, pretend = 0, frame = 16
 626              		@ frame_needed = 1, uses_anonymous_args = 0
 627 0000 80B5     		push	{r7, lr}
 628              	.LCFI19:
 629              		.cfi_def_cfa_offset 8
 630              		.cfi_offset 7, -8
 631              		.cfi_offset 14, -4
 632 0002 84B0     		sub	sp, sp, #16
 633              	.LCFI20:
 634              		.cfi_def_cfa_offset 24
 635 0004 00AF     		add	r7, sp, #0
 636              	.LCFI21:
 637              		.cfi_def_cfa_register 7
 638 0006 0346     		mov	r3, r0
 639 0008 FB71     		strb	r3, [r7, #7]
 399:.\Generated_Source\PSoC5/CyLib.c ****     uint8 usbPowerOn = CyUSB_PowerOnCheck();
 640              		.loc 1 399 0
 641 000a FFF7FEFF 		bl	CyUSB_PowerOnCheck
 642 000e 0346     		mov	r3, r0
 643 0010 FB73     		strb	r3, [r7, #15]
 400:.\Generated_Source\PSoC5/CyLib.c **** 
 401:.\Generated_Source\PSoC5/CyLib.c ****     /* If USB is powered */
 402:.\Generated_Source\PSoC5/CyLib.c ****     if(usbPowerOn == 1u)
 644              		.loc 1 402 0
 645 0012 FB7B     		ldrb	r3, [r7, #15]	@ zero_extendqisi2
 646 0014 012B     		cmp	r3, #1
 647 0016 0DD1     		bne	.L29
 403:.\Generated_Source\PSoC5/CyLib.c ****     {
 404:.\Generated_Source\PSoC5/CyLib.c ****         /* Unlock USB write */
 405:.\Generated_Source\PSoC5/CyLib.c ****         CY_LIB_USB_CR1_REG &= ((uint8)(~CY_LIB_USB_CLK_EN));
 648              		.loc 1 405 0
 649 0018 46F20903 		movw	r3, #24585
 650 001c C4F20003 		movt	r3, 16384
 651 0020 46F20902 		movw	r2, #24585
 652 0024 C4F20002 		movt	r2, 16384
 653 0028 1278     		ldrb	r2, [r2, #0]
 654 002a D2B2     		uxtb	r2, r2
 655 002c 22F00202 		bic	r2, r2, #2
 656 0030 D2B2     		uxtb	r2, r2
 657 0032 1A70     		strb	r2, [r3, #0]
 658              	.L29:
 406:.\Generated_Source\PSoC5/CyLib.c ****     }
 407:.\Generated_Source\PSoC5/CyLib.c ****     switch(freq)
 659              		.loc 1 407 0
 660 0034 FB79     		ldrb	r3, [r7, #7]	@ zero_extendqisi2
 661 0036 082B     		cmp	r3, #8
 662 0038 00F28780 		bhi	.L30
 663 003c 01A2     		adr	r2, .L39
 664 003e 52F823F0 		ldr	pc, [r2, r3, lsl #2]
 665 0042 00BF     		.align	2
 666              	.L39:
 667 0044 69000000 		.word	.L31+1
 668 0048 81000000 		.word	.L32+1
 669 004c 99000000 		.word	.L33+1
 670 0050 B1000000 		.word	.L34+1
 671 0054 C9000000 		.word	.L35+1
ARM GAS  C:\Users\RIEKOH~1\AppData\Local\Temp\cc0wEKzV.s 			page 20


 672 0058 E1000000 		.word	.L36+1
 673 005c F9000000 		.word	.L37+1
 674 0060 4B010000 		.word	.L30+1
 675 0064 11010000 		.word	.L38+1
 676              	.L31:
 408:.\Generated_Source\PSoC5/CyLib.c ****     {
 409:.\Generated_Source\PSoC5/CyLib.c ****     case CY_IMO_FREQ_3MHZ:
 410:.\Generated_Source\PSoC5/CyLib.c ****         CY_LIB_IMO_TR1_REG = CY_GET_XTND_REG8(CY_LIB_TRIM_IMO_3MHZ_PTR);
 677              		.loc 1 410 0
 678 0068 44F2A163 		movw	r3, #18081
 679 006c C4F20003 		movt	r3, 16384
 680 0070 4FF48472 		mov	r2, #264
 681 0074 C4F60012 		movt	r2, 18688
 682 0078 1278     		ldrb	r2, [r2, #0]
 683 007a D2B2     		uxtb	r2, r2
 684 007c 1A70     		strb	r2, [r3, #0]
 411:.\Generated_Source\PSoC5/CyLib.c ****         break;
 685              		.loc 1 411 0
 686 007e 6BE0     		b	.L28
 687              	.L32:
 412:.\Generated_Source\PSoC5/CyLib.c **** 
 413:.\Generated_Source\PSoC5/CyLib.c ****     case CY_IMO_FREQ_6MHZ:
 414:.\Generated_Source\PSoC5/CyLib.c ****         CY_LIB_IMO_TR1_REG = CY_GET_XTND_REG8(CY_LIB_TRIM_IMO_6MHZ_PTR);
 688              		.loc 1 414 0
 689 0080 44F2A163 		movw	r3, #18081
 690 0084 C4F20003 		movt	r3, 16384
 691 0088 40F20912 		movw	r2, #265
 692 008c C4F60012 		movt	r2, 18688
 693 0090 1278     		ldrb	r2, [r2, #0]
 694 0092 D2B2     		uxtb	r2, r2
 695 0094 1A70     		strb	r2, [r3, #0]
 415:.\Generated_Source\PSoC5/CyLib.c ****         break;
 696              		.loc 1 415 0
 697 0096 5FE0     		b	.L28
 698              	.L33:
 416:.\Generated_Source\PSoC5/CyLib.c **** 
 417:.\Generated_Source\PSoC5/CyLib.c ****     case CY_IMO_FREQ_12MHZ:
 418:.\Generated_Source\PSoC5/CyLib.c ****         CY_LIB_IMO_TR1_REG = CY_GET_XTND_REG8(CY_LIB_TRIM_IMO_12MHZ_PTR);
 699              		.loc 1 418 0
 700 0098 44F2A163 		movw	r3, #18081
 701 009c C4F20003 		movt	r3, 16384
 702 00a0 4FF48572 		mov	r2, #266
 703 00a4 C4F60012 		movt	r2, 18688
 704 00a8 1278     		ldrb	r2, [r2, #0]
 705 00aa D2B2     		uxtb	r2, r2
 706 00ac 1A70     		strb	r2, [r3, #0]
 419:.\Generated_Source\PSoC5/CyLib.c ****         break;
 707              		.loc 1 419 0
 708 00ae 53E0     		b	.L28
 709              	.L34:
 420:.\Generated_Source\PSoC5/CyLib.c **** 
 421:.\Generated_Source\PSoC5/CyLib.c ****     case CY_IMO_FREQ_24MHZ:
 422:.\Generated_Source\PSoC5/CyLib.c ****         CY_LIB_IMO_TR1_REG = CY_GET_XTND_REG8(CY_LIB_TRIM_IMO_24MHZ_PTR);
 710              		.loc 1 422 0
 711 00b0 44F2A163 		movw	r3, #18081
 712 00b4 C4F20003 		movt	r3, 16384
 713 00b8 40F20B12 		movw	r2, #267
ARM GAS  C:\Users\RIEKOH~1\AppData\Local\Temp\cc0wEKzV.s 			page 21


 714 00bc C4F60012 		movt	r2, 18688
 715 00c0 1278     		ldrb	r2, [r2, #0]
 716 00c2 D2B2     		uxtb	r2, r2
 717 00c4 1A70     		strb	r2, [r3, #0]
 423:.\Generated_Source\PSoC5/CyLib.c ****         break;
 718              		.loc 1 423 0
 719 00c6 47E0     		b	.L28
 720              	.L35:
 424:.\Generated_Source\PSoC5/CyLib.c **** 
 425:.\Generated_Source\PSoC5/CyLib.c ****     case CY_IMO_FREQ_48MHZ:
 426:.\Generated_Source\PSoC5/CyLib.c ****         CY_LIB_IMO_TR1_REG = CY_GET_XTND_REG8(CY_LIB_TRIM_IMO_TR1_PTR);
 721              		.loc 1 426 0
 722 00c8 44F2A163 		movw	r3, #18081
 723 00cc C4F20003 		movt	r3, 16384
 724 00d0 40F28912 		movw	r2, #393
 725 00d4 C4F60012 		movt	r2, 18688
 726 00d8 1278     		ldrb	r2, [r2, #0]
 727 00da D2B2     		uxtb	r2, r2
 728 00dc 1A70     		strb	r2, [r3, #0]
 427:.\Generated_Source\PSoC5/CyLib.c ****         break;
 729              		.loc 1 427 0
 730 00de 3BE0     		b	.L28
 731              	.L36:
 428:.\Generated_Source\PSoC5/CyLib.c **** 
 429:.\Generated_Source\PSoC5/CyLib.c ****     case CY_IMO_FREQ_62MHZ:
 430:.\Generated_Source\PSoC5/CyLib.c ****         CY_LIB_IMO_TR1_REG = CY_GET_XTND_REG8(CY_LIB_TRIM_IMO_67MHZ_PTR);
 732              		.loc 1 430 0
 733 00e0 44F2A163 		movw	r3, #18081
 734 00e4 C4F20003 		movt	r3, 16384
 735 00e8 4FF48672 		mov	r2, #268
 736 00ec C4F60012 		movt	r2, 18688
 737 00f0 1278     		ldrb	r2, [r2, #0]
 738 00f2 D2B2     		uxtb	r2, r2
 739 00f4 1A70     		strb	r2, [r3, #0]
 431:.\Generated_Source\PSoC5/CyLib.c ****         break;
 740              		.loc 1 431 0
 741 00f6 2FE0     		b	.L28
 742              	.L37:
 432:.\Generated_Source\PSoC5/CyLib.c **** 
 433:.\Generated_Source\PSoC5/CyLib.c **** #if(CY_PSOC5)
 434:.\Generated_Source\PSoC5/CyLib.c ****     case CY_IMO_FREQ_74MHZ:
 435:.\Generated_Source\PSoC5/CyLib.c ****         CY_LIB_IMO_TR1_REG = CY_GET_XTND_REG8(CY_LIB_TRIM_IMO_80MHZ_PTR);
 743              		.loc 1 435 0
 744 00f8 44F2A163 		movw	r3, #18081
 745 00fc C4F20003 		movt	r3, 16384
 746 0100 40F20D12 		movw	r2, #269
 747 0104 C4F60012 		movt	r2, 18688
 748 0108 1278     		ldrb	r2, [r2, #0]
 749 010a D2B2     		uxtb	r2, r2
 750 010c 1A70     		strb	r2, [r3, #0]
 436:.\Generated_Source\PSoC5/CyLib.c ****         break;
 751              		.loc 1 436 0
 752 010e 23E0     		b	.L28
 753              	.L38:
 437:.\Generated_Source\PSoC5/CyLib.c **** #endif  /* (CY_PSOC5) */
 438:.\Generated_Source\PSoC5/CyLib.c **** 
 439:.\Generated_Source\PSoC5/CyLib.c ****     case CY_IMO_FREQ_USB:
ARM GAS  C:\Users\RIEKOH~1\AppData\Local\Temp\cc0wEKzV.s 			page 22


 440:.\Generated_Source\PSoC5/CyLib.c ****         CY_LIB_IMO_TR1_REG = CY_GET_XTND_REG8(CY_LIB_TRIM_IMO_USB_PTR);
 754              		.loc 1 440 0
 755 0110 44F2A163 		movw	r3, #18081
 756 0114 C4F20003 		movt	r3, 16384
 757 0118 40F20F12 		movw	r2, #271
 758 011c C4F60012 		movt	r2, 18688
 759 0120 1278     		ldrb	r2, [r2, #0]
 760 0122 D2B2     		uxtb	r2, r2
 761 0124 1A70     		strb	r2, [r3, #0]
 441:.\Generated_Source\PSoC5/CyLib.c **** 
 442:.\Generated_Source\PSoC5/CyLib.c ****         /* If USB is powered */
 443:.\Generated_Source\PSoC5/CyLib.c ****         if(usbPowerOn == 1u)
 762              		.loc 1 443 0
 763 0126 FB7B     		ldrb	r3, [r7, #15]	@ zero_extendqisi2
 764 0128 012B     		cmp	r3, #1
 765 012a 14D1     		bne	.L42
 444:.\Generated_Source\PSoC5/CyLib.c ****         {
 445:.\Generated_Source\PSoC5/CyLib.c ****             /* Lock the USB Oscillator */
 446:.\Generated_Source\PSoC5/CyLib.c ****             CY_LIB_USB_CR1_REG |= CY_LIB_USB_CLK_EN;
 766              		.loc 1 446 0
 767 012c 46F20903 		movw	r3, #24585
 768 0130 C4F20003 		movt	r3, 16384
 769 0134 46F20902 		movw	r2, #24585
 770 0138 C4F20002 		movt	r2, 16384
 771 013c 1278     		ldrb	r2, [r2, #0]
 772 013e D2B2     		uxtb	r2, r2
 773 0140 42F00202 		orr	r2, r2, #2
 774 0144 D2B2     		uxtb	r2, r2
 775 0146 1A70     		strb	r2, [r3, #0]
 447:.\Generated_Source\PSoC5/CyLib.c ****         }
 448:.\Generated_Source\PSoC5/CyLib.c ****         break;
 776              		.loc 1 448 0
 777 0148 05E0     		b	.L42
 778              	.L30:
 449:.\Generated_Source\PSoC5/CyLib.c **** 
 450:.\Generated_Source\PSoC5/CyLib.c ****     default:
 451:.\Generated_Source\PSoC5/CyLib.c ****             CYASSERT(0u != 0u);
 779              		.loc 1 451 0 discriminator 1
 780 014a 4FF00000 		mov	r0, #0
 781 014e FFF7FEFF 		bl	CyHalt
 452:.\Generated_Source\PSoC5/CyLib.c ****         break;
 782              		.loc 1 452 0 discriminator 1
 783 0152 00BF     		nop
 784 0154 00E0     		b	.L28
 785              	.L42:
 448:.\Generated_Source\PSoC5/CyLib.c ****         break;
 786              		.loc 1 448 0
 787 0156 00BF     		nop
 788              	.L28:
 453:.\Generated_Source\PSoC5/CyLib.c ****     }
 454:.\Generated_Source\PSoC5/CyLib.c **** 
 455:.\Generated_Source\PSoC5/CyLib.c **** }
 789              		.loc 1 455 0
 790 0158 07F11007 		add	r7, r7, #16
 791 015c BD46     		mov	sp, r7
 792 015e 80BD     		pop	{r7, pc}
 793              		.cfi_endproc
ARM GAS  C:\Users\RIEKOH~1\AppData\Local\Temp\cc0wEKzV.s 			page 23


 794              	.LFE7:
 795              		.size	CyIMO_SetTrimValue, .-CyIMO_SetTrimValue
 796              		.section	.text.CyIMO_SetFreq,"ax",%progbits
 797              		.align	2
 798              		.global	CyIMO_SetFreq
 799              		.thumb
 800              		.thumb_func
 801              		.type	CyIMO_SetFreq, %function
 802              	CyIMO_SetFreq:
 803              	.LFB8:
 456:.\Generated_Source\PSoC5/CyLib.c **** 
 457:.\Generated_Source\PSoC5/CyLib.c **** 
 458:.\Generated_Source\PSoC5/CyLib.c **** /*******************************************************************************
 459:.\Generated_Source\PSoC5/CyLib.c **** * Function Name: CyIMO_SetFreq
 460:.\Generated_Source\PSoC5/CyLib.c **** ********************************************************************************
 461:.\Generated_Source\PSoC5/CyLib.c **** *
 462:.\Generated_Source\PSoC5/CyLib.c **** * Summary:
 463:.\Generated_Source\PSoC5/CyLib.c **** *  Sets the frequency of the IMO. Changes may be made while the IMO is running.
 464:.\Generated_Source\PSoC5/CyLib.c **** *
 465:.\Generated_Source\PSoC5/CyLib.c **** * Parameters:
 466:.\Generated_Source\PSoC5/CyLib.c **** *  freq: Frequency of IMO operation
 467:.\Generated_Source\PSoC5/CyLib.c **** *       CY_IMO_FREQ_3MHZ  to set  3   MHz
 468:.\Generated_Source\PSoC5/CyLib.c **** *       CY_IMO_FREQ_6MHZ  to set  6   MHz
 469:.\Generated_Source\PSoC5/CyLib.c **** *       CY_IMO_FREQ_12MHZ to set 12   MHz
 470:.\Generated_Source\PSoC5/CyLib.c **** *       CY_IMO_FREQ_24MHZ to set 24   MHz
 471:.\Generated_Source\PSoC5/CyLib.c **** *       CY_IMO_FREQ_48MHZ to set 48   MHz
 472:.\Generated_Source\PSoC5/CyLib.c **** *       CY_IMO_FREQ_62MHZ to set 62.6 MHz
 473:.\Generated_Source\PSoC5/CyLib.c **** *       CY_IMO_FREQ_74MHZ to set 74.7 MHz (not applicable for PSoC 3)
 474:.\Generated_Source\PSoC5/CyLib.c **** *       CY_IMO_FREQ_USB   to set 24   MHz (Trimmed for USB operation)
 475:.\Generated_Source\PSoC5/CyLib.c **** *
 476:.\Generated_Source\PSoC5/CyLib.c **** * Return:
 477:.\Generated_Source\PSoC5/CyLib.c **** *  None
 478:.\Generated_Source\PSoC5/CyLib.c **** *
 479:.\Generated_Source\PSoC5/CyLib.c **** * Side Effects:
 480:.\Generated_Source\PSoC5/CyLib.c **** *  If as result of this function execution the CPU clock frequency is increased
 481:.\Generated_Source\PSoC5/CyLib.c **** *  then the number of clock cycles the cache will wait before it samples data
 482:.\Generated_Source\PSoC5/CyLib.c **** *  coming back from Flash must be adjusted by calling CyFlash_SetWaitCycles()
 483:.\Generated_Source\PSoC5/CyLib.c **** *  with appropriate parameter. It can be optionally called if CPU clock
 484:.\Generated_Source\PSoC5/CyLib.c **** *  frequency is lowered in order to improve CPU performance.
 485:.\Generated_Source\PSoC5/CyLib.c **** *  See CyFlash_SetWaitCycles() description for more information.
 486:.\Generated_Source\PSoC5/CyLib.c **** *
 487:.\Generated_Source\PSoC5/CyLib.c **** *  When the USB setting is chosen, the USB clock locking circuit is enabled.
 488:.\Generated_Source\PSoC5/CyLib.c **** *  Otherwise this circuit is disabled. The USB block must be powered before
 489:.\Generated_Source\PSoC5/CyLib.c **** *  selecting the USB setting.
 490:.\Generated_Source\PSoC5/CyLib.c **** *
 491:.\Generated_Source\PSoC5/CyLib.c **** *******************************************************************************/
 492:.\Generated_Source\PSoC5/CyLib.c **** void CyIMO_SetFreq(uint8 freq) 
 493:.\Generated_Source\PSoC5/CyLib.c **** {
 804              		.loc 1 493 0
 805              		.cfi_startproc
 806              		@ args = 0, pretend = 0, frame = 16
 807              		@ frame_needed = 1, uses_anonymous_args = 0
 808 0000 80B5     		push	{r7, lr}
 809              	.LCFI22:
 810              		.cfi_def_cfa_offset 8
 811              		.cfi_offset 7, -8
 812              		.cfi_offset 14, -4
ARM GAS  C:\Users\RIEKOH~1\AppData\Local\Temp\cc0wEKzV.s 			page 24


 813 0002 84B0     		sub	sp, sp, #16
 814              	.LCFI23:
 815              		.cfi_def_cfa_offset 24
 816 0004 00AF     		add	r7, sp, #0
 817              	.LCFI24:
 818              		.cfi_def_cfa_register 7
 819 0006 0346     		mov	r3, r0
 820 0008 FB71     		strb	r3, [r7, #7]
 494:.\Generated_Source\PSoC5/CyLib.c ****     uint8 currentFreq;
 495:.\Generated_Source\PSoC5/CyLib.c ****     uint8 nextFreq;
 496:.\Generated_Source\PSoC5/CyLib.c **** 
 497:.\Generated_Source\PSoC5/CyLib.c ****     /***************************************************************************
 498:.\Generated_Source\PSoC5/CyLib.c ****     * When changing the IMO frequency the Trim values must also be set
 499:.\Generated_Source\PSoC5/CyLib.c ****     * accordingly.This requires reading the current frequency. If the new
 500:.\Generated_Source\PSoC5/CyLib.c ****     * frequency is faster, then set the new trim and then change the frequency,
 501:.\Generated_Source\PSoC5/CyLib.c ****     * otherwise change the frequency and then set the new trim values.
 502:.\Generated_Source\PSoC5/CyLib.c ****     ***************************************************************************/
 503:.\Generated_Source\PSoC5/CyLib.c **** 
 504:.\Generated_Source\PSoC5/CyLib.c ****     currentFreq = CY_LIB_FASTCLK_IMO_CR_REG & ((uint8)(~CY_LIB_FASTCLK_IMO_CR_RANGE_MASK));
 821              		.loc 1 504 0
 822 000a 4FF48443 		mov	r3, #16896
 823 000e C4F20003 		movt	r3, 16384
 824 0012 1B78     		ldrb	r3, [r3, #0]
 825 0014 DBB2     		uxtb	r3, r3
 826 0016 03F00703 		and	r3, r3, #7
 827 001a FB73     		strb	r3, [r7, #15]
 505:.\Generated_Source\PSoC5/CyLib.c **** 
 506:.\Generated_Source\PSoC5/CyLib.c ****     /* Check if the requested frequency is USB. */
 507:.\Generated_Source\PSoC5/CyLib.c ****     nextFreq = (freq == CY_IMO_FREQ_USB) ? CY_IMO_FREQ_24MHZ : freq;
 828              		.loc 1 507 0
 829 001c FB79     		ldrb	r3, [r7, #7]	@ zero_extendqisi2
 830 001e 082B     		cmp	r3, #8
 831 0020 01D0     		beq	.L44
 832              		.loc 1 507 0 is_stmt 0 discriminator 1
 833 0022 FB79     		ldrb	r3, [r7, #7]	@ zero_extendqisi2
 834 0024 01E0     		b	.L45
 835              	.L44:
 836              		.loc 1 507 0 discriminator 2
 837 0026 4FF00303 		mov	r3, #3
 838              	.L45:
 839              		.loc 1 507 0 discriminator 3
 840 002a BB73     		strb	r3, [r7, #14]
 508:.\Generated_Source\PSoC5/CyLib.c **** 
 509:.\Generated_Source\PSoC5/CyLib.c ****     switch (currentFreq)
 841              		.loc 1 509 0 is_stmt 1 discriminator 3
 842 002c FB7B     		ldrb	r3, [r7, #15]	@ zero_extendqisi2
 843 002e 062B     		cmp	r3, #6
 844 0030 2CD8     		bhi	.L46
 845 0032 01A2     		adr	r2, .L54
 846 0034 52F823F0 		ldr	pc, [r2, r3, lsl #2]
 847              		.align	2
 848              	.L54:
 849 0038 55000000 		.word	.L47+1
 850 003c 5D000000 		.word	.L48+1
 851 0040 65000000 		.word	.L49+1
 852 0044 6D000000 		.word	.L50+1
 853 0048 75000000 		.word	.L51+1
ARM GAS  C:\Users\RIEKOH~1\AppData\Local\Temp\cc0wEKzV.s 			page 25


 854 004c 7D000000 		.word	.L52+1
 855 0050 85000000 		.word	.L53+1
 856              	.L47:
 510:.\Generated_Source\PSoC5/CyLib.c ****     {
 511:.\Generated_Source\PSoC5/CyLib.c ****     case 0u:
 512:.\Generated_Source\PSoC5/CyLib.c ****         currentFreq = CY_IMO_FREQ_12MHZ;
 857              		.loc 1 512 0
 858 0054 4FF00203 		mov	r3, #2
 859 0058 FB73     		strb	r3, [r7, #15]
 513:.\Generated_Source\PSoC5/CyLib.c ****         break;
 860              		.loc 1 513 0
 861 005a 1CE0     		b	.L55
 862              	.L48:
 514:.\Generated_Source\PSoC5/CyLib.c **** 
 515:.\Generated_Source\PSoC5/CyLib.c ****     case 1u:
 516:.\Generated_Source\PSoC5/CyLib.c ****         currentFreq = CY_IMO_FREQ_6MHZ;
 863              		.loc 1 516 0
 864 005c 4FF00103 		mov	r3, #1
 865 0060 FB73     		strb	r3, [r7, #15]
 517:.\Generated_Source\PSoC5/CyLib.c ****         break;
 866              		.loc 1 517 0
 867 0062 18E0     		b	.L55
 868              	.L49:
 518:.\Generated_Source\PSoC5/CyLib.c **** 
 519:.\Generated_Source\PSoC5/CyLib.c ****     case 2u:
 520:.\Generated_Source\PSoC5/CyLib.c ****         currentFreq = CY_IMO_FREQ_24MHZ;
 869              		.loc 1 520 0
 870 0064 4FF00303 		mov	r3, #3
 871 0068 FB73     		strb	r3, [r7, #15]
 521:.\Generated_Source\PSoC5/CyLib.c ****         break;
 872              		.loc 1 521 0
 873 006a 14E0     		b	.L55
 874              	.L50:
 522:.\Generated_Source\PSoC5/CyLib.c **** 
 523:.\Generated_Source\PSoC5/CyLib.c ****     case 3u:
 524:.\Generated_Source\PSoC5/CyLib.c ****         currentFreq = CY_IMO_FREQ_3MHZ;
 875              		.loc 1 524 0
 876 006c 4FF00003 		mov	r3, #0
 877 0070 FB73     		strb	r3, [r7, #15]
 525:.\Generated_Source\PSoC5/CyLib.c ****         break;
 878              		.loc 1 525 0
 879 0072 10E0     		b	.L55
 880              	.L51:
 526:.\Generated_Source\PSoC5/CyLib.c **** 
 527:.\Generated_Source\PSoC5/CyLib.c ****     case 4u:
 528:.\Generated_Source\PSoC5/CyLib.c ****         currentFreq = CY_IMO_FREQ_48MHZ;
 881              		.loc 1 528 0
 882 0074 4FF00403 		mov	r3, #4
 883 0078 FB73     		strb	r3, [r7, #15]
 529:.\Generated_Source\PSoC5/CyLib.c ****         break;
 884              		.loc 1 529 0
 885 007a 0CE0     		b	.L55
 886              	.L52:
 530:.\Generated_Source\PSoC5/CyLib.c **** 
 531:.\Generated_Source\PSoC5/CyLib.c ****     case 5u:
 532:.\Generated_Source\PSoC5/CyLib.c ****         currentFreq = CY_IMO_FREQ_62MHZ;
 887              		.loc 1 532 0
ARM GAS  C:\Users\RIEKOH~1\AppData\Local\Temp\cc0wEKzV.s 			page 26


 888 007c 4FF00503 		mov	r3, #5
 889 0080 FB73     		strb	r3, [r7, #15]
 533:.\Generated_Source\PSoC5/CyLib.c ****         break;
 890              		.loc 1 533 0
 891 0082 08E0     		b	.L55
 892              	.L53:
 534:.\Generated_Source\PSoC5/CyLib.c **** 
 535:.\Generated_Source\PSoC5/CyLib.c **** #if(CY_PSOC5)
 536:.\Generated_Source\PSoC5/CyLib.c ****     case 6u:
 537:.\Generated_Source\PSoC5/CyLib.c ****         currentFreq = CY_IMO_FREQ_74MHZ;
 893              		.loc 1 537 0
 894 0084 4FF00603 		mov	r3, #6
 895 0088 FB73     		strb	r3, [r7, #15]
 538:.\Generated_Source\PSoC5/CyLib.c ****         break;
 896              		.loc 1 538 0
 897 008a 04E0     		b	.L55
 898              	.L46:
 539:.\Generated_Source\PSoC5/CyLib.c **** #endif  /* (CY_PSOC5) */
 540:.\Generated_Source\PSoC5/CyLib.c **** 
 541:.\Generated_Source\PSoC5/CyLib.c ****     default:
 542:.\Generated_Source\PSoC5/CyLib.c ****         CYASSERT(0u != 0u);
 899              		.loc 1 542 0 discriminator 1
 900 008c 4FF00000 		mov	r0, #0
 901 0090 FFF7FEFF 		bl	CyHalt
 543:.\Generated_Source\PSoC5/CyLib.c ****         break;
 902              		.loc 1 543 0
 903 0094 00BF     		nop
 904              	.L55:
 544:.\Generated_Source\PSoC5/CyLib.c ****     }
 545:.\Generated_Source\PSoC5/CyLib.c **** 
 546:.\Generated_Source\PSoC5/CyLib.c ****     if (nextFreq >= currentFreq)
 905              		.loc 1 546 0
 906 0096 BA7B     		ldrb	r2, [r7, #14]	@ zero_extendqisi2
 907 0098 FB7B     		ldrb	r3, [r7, #15]	@ zero_extendqisi2
 908 009a 9A42     		cmp	r2, r3
 909 009c 03D3     		bcc	.L56
 547:.\Generated_Source\PSoC5/CyLib.c ****     {
 548:.\Generated_Source\PSoC5/CyLib.c ****         /* Set the new trim first */
 549:.\Generated_Source\PSoC5/CyLib.c ****         CyIMO_SetTrimValue(freq);
 910              		.loc 1 549 0
 911 009e FB79     		ldrb	r3, [r7, #7]	@ zero_extendqisi2
 912 00a0 1846     		mov	r0, r3
 913 00a2 FFF7FEFF 		bl	CyIMO_SetTrimValue
 914              	.L56:
 550:.\Generated_Source\PSoC5/CyLib.c ****     }
 551:.\Generated_Source\PSoC5/CyLib.c **** 
 552:.\Generated_Source\PSoC5/CyLib.c ****     /* Set the usbclk_on bit when using CY_IMO_FREQ_USB, if not clear it */
 553:.\Generated_Source\PSoC5/CyLib.c ****     switch(freq)
 915              		.loc 1 553 0
 916 00a6 FB79     		ldrb	r3, [r7, #7]	@ zero_extendqisi2
 917 00a8 082B     		cmp	r3, #8
 918 00aa 00F2A280 		bhi	.L57
 919 00ae 01A2     		adr	r2, .L66
 920 00b0 52F823F0 		ldr	pc, [r2, r3, lsl #2]
 921              		.align	2
 922              	.L66:
 923 00b4 D9000000 		.word	.L58+1
ARM GAS  C:\Users\RIEKOH~1\AppData\Local\Temp\cc0wEKzV.s 			page 27


 924 00b8 FD000000 		.word	.L59+1
 925 00bc 21010000 		.word	.L60+1
 926 00c0 3F010000 		.word	.L61+1
 927 00c4 63010000 		.word	.L62+1
 928 00c8 87010000 		.word	.L63+1
 929 00cc AB010000 		.word	.L64+1
 930 00d0 F3010000 		.word	.L57+1
 931 00d4 CF010000 		.word	.L65+1
 932              	.L58:
 554:.\Generated_Source\PSoC5/CyLib.c ****     {
 555:.\Generated_Source\PSoC5/CyLib.c ****     case CY_IMO_FREQ_3MHZ:
 556:.\Generated_Source\PSoC5/CyLib.c ****         CY_LIB_FASTCLK_IMO_CR_REG = ((CY_LIB_FASTCLK_IMO_CR_REG & CY_LIB_FASTCLK_IMO_CR_RANGE_MASK)
 933              		.loc 1 556 0
 934 00d8 4FF48443 		mov	r3, #16896
 935 00dc C4F20003 		movt	r3, 16384
 936 00e0 4FF48442 		mov	r2, #16896
 937 00e4 C4F20002 		movt	r2, 16384
 938 00e8 1278     		ldrb	r2, [r2, #0]
 939 00ea D2B2     		uxtb	r2, r2
 940 00ec 22F04702 		bic	r2, r2, #71
 941 00f0 D2B2     		uxtb	r2, r2
 942 00f2 42F00302 		orr	r2, r2, #3
 943 00f6 D2B2     		uxtb	r2, r2
 944 00f8 1A70     		strb	r2, [r3, #0]
 557:.\Generated_Source\PSoC5/CyLib.c ****             CY_LIB_IMO_3MHZ_VALUE) & ((uint8)(~CY_LIB_IMO_USBCLK_ON_SET));
 558:.\Generated_Source\PSoC5/CyLib.c ****         break;
 945              		.loc 1 558 0
 946 00fa 7FE0     		b	.L67
 947              	.L59:
 559:.\Generated_Source\PSoC5/CyLib.c **** 
 560:.\Generated_Source\PSoC5/CyLib.c ****     case CY_IMO_FREQ_6MHZ:
 561:.\Generated_Source\PSoC5/CyLib.c ****         CY_LIB_FASTCLK_IMO_CR_REG = ((CY_LIB_FASTCLK_IMO_CR_REG & CY_LIB_FASTCLK_IMO_CR_RANGE_MASK)
 948              		.loc 1 561 0
 949 00fc 4FF48443 		mov	r3, #16896
 950 0100 C4F20003 		movt	r3, 16384
 951 0104 4FF48442 		mov	r2, #16896
 952 0108 C4F20002 		movt	r2, 16384
 953 010c 1278     		ldrb	r2, [r2, #0]
 954 010e D2B2     		uxtb	r2, r2
 955 0110 22F04702 		bic	r2, r2, #71
 956 0114 D2B2     		uxtb	r2, r2
 957 0116 42F00102 		orr	r2, r2, #1
 958 011a D2B2     		uxtb	r2, r2
 959 011c 1A70     		strb	r2, [r3, #0]
 562:.\Generated_Source\PSoC5/CyLib.c ****             CY_LIB_IMO_6MHZ_VALUE) & ((uint8)(~CY_LIB_IMO_USBCLK_ON_SET));
 563:.\Generated_Source\PSoC5/CyLib.c ****         break;
 960              		.loc 1 563 0
 961 011e 6DE0     		b	.L67
 962              	.L60:
 564:.\Generated_Source\PSoC5/CyLib.c **** 
 565:.\Generated_Source\PSoC5/CyLib.c ****     case CY_IMO_FREQ_12MHZ:
 566:.\Generated_Source\PSoC5/CyLib.c ****         CY_LIB_FASTCLK_IMO_CR_REG = ((CY_LIB_FASTCLK_IMO_CR_REG & CY_LIB_FASTCLK_IMO_CR_RANGE_MASK)
 963              		.loc 1 566 0
 964 0120 4FF48443 		mov	r3, #16896
 965 0124 C4F20003 		movt	r3, 16384
 966 0128 4FF48442 		mov	r2, #16896
 967 012c C4F20002 		movt	r2, 16384
ARM GAS  C:\Users\RIEKOH~1\AppData\Local\Temp\cc0wEKzV.s 			page 28


 968 0130 1278     		ldrb	r2, [r2, #0]
 969 0132 D2B2     		uxtb	r2, r2
 970 0134 22F04702 		bic	r2, r2, #71
 971 0138 D2B2     		uxtb	r2, r2
 972 013a 1A70     		strb	r2, [r3, #0]
 567:.\Generated_Source\PSoC5/CyLib.c ****             CY_LIB_IMO_12MHZ_VALUE) & ((uint8)(~CY_LIB_IMO_USBCLK_ON_SET));
 568:.\Generated_Source\PSoC5/CyLib.c ****         break;
 973              		.loc 1 568 0
 974 013c 5EE0     		b	.L67
 975              	.L61:
 569:.\Generated_Source\PSoC5/CyLib.c **** 
 570:.\Generated_Source\PSoC5/CyLib.c ****     case CY_IMO_FREQ_24MHZ:
 571:.\Generated_Source\PSoC5/CyLib.c ****         CY_LIB_FASTCLK_IMO_CR_REG = ((CY_LIB_FASTCLK_IMO_CR_REG & CY_LIB_FASTCLK_IMO_CR_RANGE_MASK)
 976              		.loc 1 571 0
 977 013e 4FF48443 		mov	r3, #16896
 978 0142 C4F20003 		movt	r3, 16384
 979 0146 4FF48442 		mov	r2, #16896
 980 014a C4F20002 		movt	r2, 16384
 981 014e 1278     		ldrb	r2, [r2, #0]
 982 0150 D2B2     		uxtb	r2, r2
 983 0152 22F04702 		bic	r2, r2, #71
 984 0156 D2B2     		uxtb	r2, r2
 985 0158 42F00202 		orr	r2, r2, #2
 986 015c D2B2     		uxtb	r2, r2
 987 015e 1A70     		strb	r2, [r3, #0]
 572:.\Generated_Source\PSoC5/CyLib.c ****             CY_LIB_IMO_24MHZ_VALUE) & ((uint8)(~CY_LIB_IMO_USBCLK_ON_SET));
 573:.\Generated_Source\PSoC5/CyLib.c ****         break;
 988              		.loc 1 573 0
 989 0160 4CE0     		b	.L67
 990              	.L62:
 574:.\Generated_Source\PSoC5/CyLib.c **** 
 575:.\Generated_Source\PSoC5/CyLib.c ****     case CY_IMO_FREQ_48MHZ:
 576:.\Generated_Source\PSoC5/CyLib.c ****         CY_LIB_FASTCLK_IMO_CR_REG = ((CY_LIB_FASTCLK_IMO_CR_REG & CY_LIB_FASTCLK_IMO_CR_RANGE_MASK)
 991              		.loc 1 576 0
 992 0162 4FF48443 		mov	r3, #16896
 993 0166 C4F20003 		movt	r3, 16384
 994 016a 4FF48442 		mov	r2, #16896
 995 016e C4F20002 		movt	r2, 16384
 996 0172 1278     		ldrb	r2, [r2, #0]
 997 0174 D2B2     		uxtb	r2, r2
 998 0176 22F04702 		bic	r2, r2, #71
 999 017a D2B2     		uxtb	r2, r2
 1000 017c 42F00402 		orr	r2, r2, #4
 1001 0180 D2B2     		uxtb	r2, r2
 1002 0182 1A70     		strb	r2, [r3, #0]
 577:.\Generated_Source\PSoC5/CyLib.c ****             CY_LIB_IMO_48MHZ_VALUE) & ((uint8)(~CY_LIB_IMO_USBCLK_ON_SET));
 578:.\Generated_Source\PSoC5/CyLib.c ****         break;
 1003              		.loc 1 578 0
 1004 0184 3AE0     		b	.L67
 1005              	.L63:
 579:.\Generated_Source\PSoC5/CyLib.c **** 
 580:.\Generated_Source\PSoC5/CyLib.c ****     case CY_IMO_FREQ_62MHZ:
 581:.\Generated_Source\PSoC5/CyLib.c ****         CY_LIB_FASTCLK_IMO_CR_REG = ((CY_LIB_FASTCLK_IMO_CR_REG & CY_LIB_FASTCLK_IMO_CR_RANGE_MASK)
 1006              		.loc 1 581 0
 1007 0186 4FF48443 		mov	r3, #16896
 1008 018a C4F20003 		movt	r3, 16384
 1009 018e 4FF48442 		mov	r2, #16896
ARM GAS  C:\Users\RIEKOH~1\AppData\Local\Temp\cc0wEKzV.s 			page 29


 1010 0192 C4F20002 		movt	r2, 16384
 1011 0196 1278     		ldrb	r2, [r2, #0]
 1012 0198 D2B2     		uxtb	r2, r2
 1013 019a 22F04702 		bic	r2, r2, #71
 1014 019e D2B2     		uxtb	r2, r2
 1015 01a0 42F00502 		orr	r2, r2, #5
 1016 01a4 D2B2     		uxtb	r2, r2
 1017 01a6 1A70     		strb	r2, [r3, #0]
 582:.\Generated_Source\PSoC5/CyLib.c ****             CY_LIB_IMO_62MHZ_VALUE) & ((uint8)(~CY_LIB_IMO_USBCLK_ON_SET));
 583:.\Generated_Source\PSoC5/CyLib.c ****         break;
 1018              		.loc 1 583 0
 1019 01a8 28E0     		b	.L67
 1020              	.L64:
 584:.\Generated_Source\PSoC5/CyLib.c **** 
 585:.\Generated_Source\PSoC5/CyLib.c **** #if(CY_PSOC5)
 586:.\Generated_Source\PSoC5/CyLib.c ****     case CY_IMO_FREQ_74MHZ:
 587:.\Generated_Source\PSoC5/CyLib.c ****         CY_LIB_FASTCLK_IMO_CR_REG = ((CY_LIB_FASTCLK_IMO_CR_REG & CY_LIB_FASTCLK_IMO_CR_RANGE_MASK)
 1021              		.loc 1 587 0
 1022 01aa 4FF48443 		mov	r3, #16896
 1023 01ae C4F20003 		movt	r3, 16384
 1024 01b2 4FF48442 		mov	r2, #16896
 1025 01b6 C4F20002 		movt	r2, 16384
 1026 01ba 1278     		ldrb	r2, [r2, #0]
 1027 01bc D2B2     		uxtb	r2, r2
 1028 01be 22F04702 		bic	r2, r2, #71
 1029 01c2 D2B2     		uxtb	r2, r2
 1030 01c4 42F00602 		orr	r2, r2, #6
 1031 01c8 D2B2     		uxtb	r2, r2
 1032 01ca 1A70     		strb	r2, [r3, #0]
 588:.\Generated_Source\PSoC5/CyLib.c ****             CY_LIB_IMO_74MHZ_VALUE) & ((uint8)(~CY_LIB_IMO_USBCLK_ON_SET));
 589:.\Generated_Source\PSoC5/CyLib.c ****         break;
 1033              		.loc 1 589 0
 1034 01cc 16E0     		b	.L67
 1035              	.L65:
 590:.\Generated_Source\PSoC5/CyLib.c **** #endif  /* (CY_PSOC5) */
 591:.\Generated_Source\PSoC5/CyLib.c **** 
 592:.\Generated_Source\PSoC5/CyLib.c ****     case CY_IMO_FREQ_USB:
 593:.\Generated_Source\PSoC5/CyLib.c ****         CY_LIB_FASTCLK_IMO_CR_REG = ((CY_LIB_FASTCLK_IMO_CR_REG & CY_LIB_FASTCLK_IMO_CR_RANGE_MASK)
 1036              		.loc 1 593 0
 1037 01ce 4FF48443 		mov	r3, #16896
 1038 01d2 C4F20003 		movt	r3, 16384
 1039 01d6 4FF48442 		mov	r2, #16896
 1040 01da C4F20002 		movt	r2, 16384
 1041 01de 1278     		ldrb	r2, [r2, #0]
 1042 01e0 D2B2     		uxtb	r2, r2
 1043 01e2 22F04702 		bic	r2, r2, #71
 1044 01e6 D2B2     		uxtb	r2, r2
 1045 01e8 42F04202 		orr	r2, r2, #66
 1046 01ec D2B2     		uxtb	r2, r2
 1047 01ee 1A70     		strb	r2, [r3, #0]
 594:.\Generated_Source\PSoC5/CyLib.c ****             CY_LIB_IMO_24MHZ_VALUE) | CY_LIB_IMO_USBCLK_ON_SET;
 595:.\Generated_Source\PSoC5/CyLib.c ****         break;
 1048              		.loc 1 595 0
 1049 01f0 04E0     		b	.L67
 1050              	.L57:
 596:.\Generated_Source\PSoC5/CyLib.c **** 
 597:.\Generated_Source\PSoC5/CyLib.c ****     default:
ARM GAS  C:\Users\RIEKOH~1\AppData\Local\Temp\cc0wEKzV.s 			page 30


 598:.\Generated_Source\PSoC5/CyLib.c ****         CYASSERT(0u != 0u);
 1051              		.loc 1 598 0 discriminator 1
 1052 01f2 4FF00000 		mov	r0, #0
 1053 01f6 FFF7FEFF 		bl	CyHalt
 599:.\Generated_Source\PSoC5/CyLib.c ****         break;
 1054              		.loc 1 599 0
 1055 01fa 00BF     		nop
 1056              	.L67:
 600:.\Generated_Source\PSoC5/CyLib.c ****     }
 601:.\Generated_Source\PSoC5/CyLib.c **** 
 602:.\Generated_Source\PSoC5/CyLib.c ****     /* Turn on the IMO Doubler, if switching to CY_IMO_FREQ_USB */
 603:.\Generated_Source\PSoC5/CyLib.c ****     if (freq == CY_IMO_FREQ_USB)
 1057              		.loc 1 603 0
 1058 01fc FB79     		ldrb	r3, [r7, #7]	@ zero_extendqisi2
 1059 01fe 082B     		cmp	r3, #8
 1060 0200 02D1     		bne	.L68
 604:.\Generated_Source\PSoC5/CyLib.c ****     {
 605:.\Generated_Source\PSoC5/CyLib.c ****         CyIMO_EnableDoubler();
 1061              		.loc 1 605 0
 1062 0202 FFF7FEFF 		bl	CyIMO_EnableDoubler
 1063 0206 01E0     		b	.L69
 1064              	.L68:
 606:.\Generated_Source\PSoC5/CyLib.c ****     }
 607:.\Generated_Source\PSoC5/CyLib.c ****     else
 608:.\Generated_Source\PSoC5/CyLib.c ****     {
 609:.\Generated_Source\PSoC5/CyLib.c ****         CyIMO_DisableDoubler();
 1065              		.loc 1 609 0
 1066 0208 FFF7FEFF 		bl	CyIMO_DisableDoubler
 1067              	.L69:
 610:.\Generated_Source\PSoC5/CyLib.c ****     }
 611:.\Generated_Source\PSoC5/CyLib.c **** 
 612:.\Generated_Source\PSoC5/CyLib.c ****     if (nextFreq < currentFreq)
 1068              		.loc 1 612 0
 1069 020c BA7B     		ldrb	r2, [r7, #14]	@ zero_extendqisi2
 1070 020e FB7B     		ldrb	r3, [r7, #15]	@ zero_extendqisi2
 1071 0210 9A42     		cmp	r2, r3
 1072 0212 03D2     		bcs	.L43
 613:.\Generated_Source\PSoC5/CyLib.c ****     {
 614:.\Generated_Source\PSoC5/CyLib.c ****         /* Set the new trim after setting the frequency */
 615:.\Generated_Source\PSoC5/CyLib.c ****         CyIMO_SetTrimValue(freq);
 1073              		.loc 1 615 0
 1074 0214 FB79     		ldrb	r3, [r7, #7]	@ zero_extendqisi2
 1075 0216 1846     		mov	r0, r3
 1076 0218 FFF7FEFF 		bl	CyIMO_SetTrimValue
 1077              	.L43:
 616:.\Generated_Source\PSoC5/CyLib.c ****     }
 617:.\Generated_Source\PSoC5/CyLib.c **** }
 1078              		.loc 1 617 0
 1079 021c 07F11007 		add	r7, r7, #16
 1080 0220 BD46     		mov	sp, r7
 1081 0222 80BD     		pop	{r7, pc}
 1082              		.cfi_endproc
 1083              	.LFE8:
 1084              		.size	CyIMO_SetFreq, .-CyIMO_SetFreq
 1085              		.section	.text.CyIMO_SetSource,"ax",%progbits
 1086              		.align	2
 1087              		.global	CyIMO_SetSource
ARM GAS  C:\Users\RIEKOH~1\AppData\Local\Temp\cc0wEKzV.s 			page 31


 1088              		.thumb
 1089              		.thumb_func
 1090              		.type	CyIMO_SetSource, %function
 1091              	CyIMO_SetSource:
 1092              	.LFB9:
 618:.\Generated_Source\PSoC5/CyLib.c **** 
 619:.\Generated_Source\PSoC5/CyLib.c **** 
 620:.\Generated_Source\PSoC5/CyLib.c **** /*******************************************************************************
 621:.\Generated_Source\PSoC5/CyLib.c **** * Function Name: CyIMO_SetSource
 622:.\Generated_Source\PSoC5/CyLib.c **** ********************************************************************************
 623:.\Generated_Source\PSoC5/CyLib.c **** *
 624:.\Generated_Source\PSoC5/CyLib.c **** * Summary:
 625:.\Generated_Source\PSoC5/CyLib.c **** *  Sets the source of the clock output from the IMO block.
 626:.\Generated_Source\PSoC5/CyLib.c **** *
 627:.\Generated_Source\PSoC5/CyLib.c **** *  The output from the IMO is by default the IMO itself. Optionally the MHz
 628:.\Generated_Source\PSoC5/CyLib.c **** *  Crystal or a DSI input can be the source of the IMO output instead.
 629:.\Generated_Source\PSoC5/CyLib.c **** *
 630:.\Generated_Source\PSoC5/CyLib.c **** * Parameters:
 631:.\Generated_Source\PSoC5/CyLib.c **** *   source: CY_IMO_SOURCE_DSI to set the DSI as source.
 632:.\Generated_Source\PSoC5/CyLib.c **** *           CY_IMO_SOURCE_XTAL to set the MHz as source.
 633:.\Generated_Source\PSoC5/CyLib.c **** *           CY_IMO_SOURCE_IMO to set the IMO itself.
 634:.\Generated_Source\PSoC5/CyLib.c **** *
 635:.\Generated_Source\PSoC5/CyLib.c **** * Return:
 636:.\Generated_Source\PSoC5/CyLib.c **** *  None
 637:.\Generated_Source\PSoC5/CyLib.c **** *
 638:.\Generated_Source\PSoC5/CyLib.c **** * Side Effects:
 639:.\Generated_Source\PSoC5/CyLib.c **** *  If as result of this function execution the CPU clock frequency is increased
 640:.\Generated_Source\PSoC5/CyLib.c **** *  then the number of clock cycles the cache will wait before it samples data
 641:.\Generated_Source\PSoC5/CyLib.c **** *  coming back from Flash must be adjusted by calling CyFlash_SetWaitCycles()
 642:.\Generated_Source\PSoC5/CyLib.c **** *  with appropriate parameter. It can be optionally called if CPU clock
 643:.\Generated_Source\PSoC5/CyLib.c **** *  frequency is lowered in order to improve CPU performance.
 644:.\Generated_Source\PSoC5/CyLib.c **** *  See CyFlash_SetWaitCycles() description for more information.
 645:.\Generated_Source\PSoC5/CyLib.c **** *
 646:.\Generated_Source\PSoC5/CyLib.c **** *******************************************************************************/
 647:.\Generated_Source\PSoC5/CyLib.c **** void CyIMO_SetSource(uint8 source) 
 648:.\Generated_Source\PSoC5/CyLib.c **** {
 1093              		.loc 1 648 0
 1094              		.cfi_startproc
 1095              		@ args = 0, pretend = 0, frame = 8
 1096              		@ frame_needed = 1, uses_anonymous_args = 0
 1097 0000 80B5     		push	{r7, lr}
 1098              	.LCFI25:
 1099              		.cfi_def_cfa_offset 8
 1100              		.cfi_offset 7, -8
 1101              		.cfi_offset 14, -4
 1102 0002 82B0     		sub	sp, sp, #8
 1103              	.LCFI26:
 1104              		.cfi_def_cfa_offset 16
 1105 0004 00AF     		add	r7, sp, #0
 1106              	.LCFI27:
 1107              		.cfi_def_cfa_register 7
 1108 0006 0346     		mov	r3, r0
 1109 0008 FB71     		strb	r3, [r7, #7]
 649:.\Generated_Source\PSoC5/CyLib.c ****     switch(source)
 1110              		.loc 1 649 0
 1111 000a FB79     		ldrb	r3, [r7, #7]	@ zero_extendqisi2
 1112 000c 012B     		cmp	r3, #1
ARM GAS  C:\Users\RIEKOH~1\AppData\Local\Temp\cc0wEKzV.s 			page 32


 1113 000e 1DD0     		beq	.L74
 1114 0010 022B     		cmp	r3, #2
 1115 0012 02D0     		beq	.L75
 1116 0014 002B     		cmp	r3, #0
 1117 0016 32D0     		beq	.L73
 1118 0018 40E0     		b	.L77
 1119              	.L75:
 650:.\Generated_Source\PSoC5/CyLib.c ****     {
 651:.\Generated_Source\PSoC5/CyLib.c ****     case CY_IMO_SOURCE_DSI:
 652:.\Generated_Source\PSoC5/CyLib.c ****         CY_LIB_CLKDIST_CR_REG     &= ((uint8)(~CY_LIB_CLKDIST_CR_IMO2X));
 1120              		.loc 1 652 0
 1121 001a 4FF04023 		mov	r3, #1073758208
 1122 001e 4FF04022 		mov	r2, #1073758208
 1123 0022 1278     		ldrb	r2, [r2, #0]
 1124 0024 D2B2     		uxtb	r2, r2
 1125 0026 22F04002 		bic	r2, r2, #64
 1126 002a D2B2     		uxtb	r2, r2
 1127 002c 1A70     		strb	r2, [r3, #0]
 653:.\Generated_Source\PSoC5/CyLib.c ****         CY_LIB_FASTCLK_IMO_CR_REG |= CY_LIB_FASTCLK_IMO_IMO;
 1128              		.loc 1 653 0
 1129 002e 4FF48443 		mov	r3, #16896
 1130 0032 C4F20003 		movt	r3, 16384
 1131 0036 4FF48442 		mov	r2, #16896
 1132 003a C4F20002 		movt	r2, 16384
 1133 003e 1278     		ldrb	r2, [r2, #0]
 1134 0040 D2B2     		uxtb	r2, r2
 1135 0042 42F02002 		orr	r2, r2, #32
 1136 0046 D2B2     		uxtb	r2, r2
 1137 0048 1A70     		strb	r2, [r3, #0]
 654:.\Generated_Source\PSoC5/CyLib.c ****         break;
 1138              		.loc 1 654 0
 1139 004a 2CE0     		b	.L71
 1140              	.L74:
 655:.\Generated_Source\PSoC5/CyLib.c **** 
 656:.\Generated_Source\PSoC5/CyLib.c ****     case CY_IMO_SOURCE_XTAL:
 657:.\Generated_Source\PSoC5/CyLib.c ****         CY_LIB_CLKDIST_CR_REG     |= CY_LIB_CLKDIST_CR_IMO2X;
 1141              		.loc 1 657 0
 1142 004c 4FF04023 		mov	r3, #1073758208
 1143 0050 4FF04022 		mov	r2, #1073758208
 1144 0054 1278     		ldrb	r2, [r2, #0]
 1145 0056 D2B2     		uxtb	r2, r2
 1146 0058 42F04002 		orr	r2, r2, #64
 1147 005c D2B2     		uxtb	r2, r2
 1148 005e 1A70     		strb	r2, [r3, #0]
 658:.\Generated_Source\PSoC5/CyLib.c ****         CY_LIB_FASTCLK_IMO_CR_REG |= CY_LIB_FASTCLK_IMO_IMO;
 1149              		.loc 1 658 0
 1150 0060 4FF48443 		mov	r3, #16896
 1151 0064 C4F20003 		movt	r3, 16384
 1152 0068 4FF48442 		mov	r2, #16896
 1153 006c C4F20002 		movt	r2, 16384
 1154 0070 1278     		ldrb	r2, [r2, #0]
 1155 0072 D2B2     		uxtb	r2, r2
 1156 0074 42F02002 		orr	r2, r2, #32
 1157 0078 D2B2     		uxtb	r2, r2
 1158 007a 1A70     		strb	r2, [r3, #0]
 659:.\Generated_Source\PSoC5/CyLib.c ****         break;
 1159              		.loc 1 659 0
ARM GAS  C:\Users\RIEKOH~1\AppData\Local\Temp\cc0wEKzV.s 			page 33


 1160 007c 13E0     		b	.L71
 1161              	.L73:
 660:.\Generated_Source\PSoC5/CyLib.c **** 
 661:.\Generated_Source\PSoC5/CyLib.c ****     case CY_IMO_SOURCE_IMO:
 662:.\Generated_Source\PSoC5/CyLib.c ****         CY_LIB_FASTCLK_IMO_CR_REG &= ((uint8)(~CY_LIB_FASTCLK_IMO_IMO));
 1162              		.loc 1 662 0
 1163 007e 4FF48443 		mov	r3, #16896
 1164 0082 C4F20003 		movt	r3, 16384
 1165 0086 4FF48442 		mov	r2, #16896
 1166 008a C4F20002 		movt	r2, 16384
 1167 008e 1278     		ldrb	r2, [r2, #0]
 1168 0090 D2B2     		uxtb	r2, r2
 1169 0092 22F02002 		bic	r2, r2, #32
 1170 0096 D2B2     		uxtb	r2, r2
 1171 0098 1A70     		strb	r2, [r3, #0]
 663:.\Generated_Source\PSoC5/CyLib.c ****         break;
 1172              		.loc 1 663 0
 1173 009a 04E0     		b	.L71
 1174              	.L77:
 664:.\Generated_Source\PSoC5/CyLib.c **** 
 665:.\Generated_Source\PSoC5/CyLib.c ****     default:
 666:.\Generated_Source\PSoC5/CyLib.c ****         /* Incorrect source value */
 667:.\Generated_Source\PSoC5/CyLib.c ****         CYASSERT(0u != 0u);
 1175              		.loc 1 667 0 discriminator 1
 1176 009c 4FF00000 		mov	r0, #0
 1177 00a0 FFF7FEFF 		bl	CyHalt
 668:.\Generated_Source\PSoC5/CyLib.c ****         break;
 1178              		.loc 1 668 0 discriminator 1
 1179 00a4 00BF     		nop
 1180              	.L71:
 669:.\Generated_Source\PSoC5/CyLib.c ****     }
 670:.\Generated_Source\PSoC5/CyLib.c **** }
 1181              		.loc 1 670 0
 1182 00a6 07F10807 		add	r7, r7, #8
 1183 00aa BD46     		mov	sp, r7
 1184 00ac 80BD     		pop	{r7, pc}
 1185              		.cfi_endproc
 1186              	.LFE9:
 1187              		.size	CyIMO_SetSource, .-CyIMO_SetSource
 1188 00ae 00BF     		.section	.text.CyIMO_EnableDoubler,"ax",%progbits
 1189              		.align	2
 1190              		.global	CyIMO_EnableDoubler
 1191              		.thumb
 1192              		.thumb_func
 1193              		.type	CyIMO_EnableDoubler, %function
 1194              	CyIMO_EnableDoubler:
 1195              	.LFB10:
 671:.\Generated_Source\PSoC5/CyLib.c **** 
 672:.\Generated_Source\PSoC5/CyLib.c **** 
 673:.\Generated_Source\PSoC5/CyLib.c **** /*******************************************************************************
 674:.\Generated_Source\PSoC5/CyLib.c **** * Function Name: CyIMO_EnableDoubler
 675:.\Generated_Source\PSoC5/CyLib.c **** ********************************************************************************
 676:.\Generated_Source\PSoC5/CyLib.c **** *
 677:.\Generated_Source\PSoC5/CyLib.c **** * Summary:
 678:.\Generated_Source\PSoC5/CyLib.c **** *  Enables the IMO doubler.  The 2x frequency clock is used to convert a 24 MHz
 679:.\Generated_Source\PSoC5/CyLib.c **** *  input to a 48 MHz output for use by the USB block.
 680:.\Generated_Source\PSoC5/CyLib.c **** *
ARM GAS  C:\Users\RIEKOH~1\AppData\Local\Temp\cc0wEKzV.s 			page 34


 681:.\Generated_Source\PSoC5/CyLib.c **** * Parameters:
 682:.\Generated_Source\PSoC5/CyLib.c **** *  None
 683:.\Generated_Source\PSoC5/CyLib.c **** *
 684:.\Generated_Source\PSoC5/CyLib.c **** * Return:
 685:.\Generated_Source\PSoC5/CyLib.c **** *  None
 686:.\Generated_Source\PSoC5/CyLib.c **** *
 687:.\Generated_Source\PSoC5/CyLib.c **** *******************************************************************************/
 688:.\Generated_Source\PSoC5/CyLib.c **** void CyIMO_EnableDoubler(void) 
 689:.\Generated_Source\PSoC5/CyLib.c **** {
 1196              		.loc 1 689 0
 1197              		.cfi_startproc
 1198              		@ args = 0, pretend = 0, frame = 0
 1199              		@ frame_needed = 1, uses_anonymous_args = 0
 1200              		@ link register save eliminated.
 1201 0000 80B4     		push	{r7}
 1202              	.LCFI28:
 1203              		.cfi_def_cfa_offset 4
 1204              		.cfi_offset 7, -4
 1205 0002 00AF     		add	r7, sp, #0
 1206              	.LCFI29:
 1207              		.cfi_def_cfa_register 7
 690:.\Generated_Source\PSoC5/CyLib.c ****     /* Set the FASTCLK_IMO_CR_PTR regigster's 4th bit */
 691:.\Generated_Source\PSoC5/CyLib.c ****     CY_LIB_FASTCLK_IMO_CR_REG |= CY_LIB_FASTCLK_IMO_DOUBLER;
 1208              		.loc 1 691 0
 1209 0004 4FF48443 		mov	r3, #16896
 1210 0008 C4F20003 		movt	r3, 16384
 1211 000c 4FF48442 		mov	r2, #16896
 1212 0010 C4F20002 		movt	r2, 16384
 1213 0014 1278     		ldrb	r2, [r2, #0]
 1214 0016 D2B2     		uxtb	r2, r2
 1215 0018 42F01002 		orr	r2, r2, #16
 1216 001c D2B2     		uxtb	r2, r2
 1217 001e 1A70     		strb	r2, [r3, #0]
 692:.\Generated_Source\PSoC5/CyLib.c **** }
 1218              		.loc 1 692 0
 1219 0020 BD46     		mov	sp, r7
 1220 0022 80BC     		pop	{r7}
 1221 0024 7047     		bx	lr
 1222              		.cfi_endproc
 1223              	.LFE10:
 1224              		.size	CyIMO_EnableDoubler, .-CyIMO_EnableDoubler
 1225 0026 00BF     		.section	.text.CyIMO_DisableDoubler,"ax",%progbits
 1226              		.align	2
 1227              		.global	CyIMO_DisableDoubler
 1228              		.thumb
 1229              		.thumb_func
 1230              		.type	CyIMO_DisableDoubler, %function
 1231              	CyIMO_DisableDoubler:
 1232              	.LFB11:
 693:.\Generated_Source\PSoC5/CyLib.c **** 
 694:.\Generated_Source\PSoC5/CyLib.c **** 
 695:.\Generated_Source\PSoC5/CyLib.c **** /*******************************************************************************
 696:.\Generated_Source\PSoC5/CyLib.c **** * Function Name: CyIMO_DisableDoubler
 697:.\Generated_Source\PSoC5/CyLib.c **** ********************************************************************************
 698:.\Generated_Source\PSoC5/CyLib.c **** *
 699:.\Generated_Source\PSoC5/CyLib.c **** * Summary:
 700:.\Generated_Source\PSoC5/CyLib.c **** *   Disables the IMO doubler.
ARM GAS  C:\Users\RIEKOH~1\AppData\Local\Temp\cc0wEKzV.s 			page 35


 701:.\Generated_Source\PSoC5/CyLib.c **** *
 702:.\Generated_Source\PSoC5/CyLib.c **** * Parameters:
 703:.\Generated_Source\PSoC5/CyLib.c **** *  None
 704:.\Generated_Source\PSoC5/CyLib.c **** *
 705:.\Generated_Source\PSoC5/CyLib.c **** * Return:
 706:.\Generated_Source\PSoC5/CyLib.c **** *  None
 707:.\Generated_Source\PSoC5/CyLib.c **** *
 708:.\Generated_Source\PSoC5/CyLib.c **** *******************************************************************************/
 709:.\Generated_Source\PSoC5/CyLib.c **** void CyIMO_DisableDoubler(void) 
 710:.\Generated_Source\PSoC5/CyLib.c **** {
 1233              		.loc 1 710 0
 1234              		.cfi_startproc
 1235              		@ args = 0, pretend = 0, frame = 0
 1236              		@ frame_needed = 1, uses_anonymous_args = 0
 1237              		@ link register save eliminated.
 1238 0000 80B4     		push	{r7}
 1239              	.LCFI30:
 1240              		.cfi_def_cfa_offset 4
 1241              		.cfi_offset 7, -4
 1242 0002 00AF     		add	r7, sp, #0
 1243              	.LCFI31:
 1244              		.cfi_def_cfa_register 7
 711:.\Generated_Source\PSoC5/CyLib.c ****     CY_LIB_FASTCLK_IMO_CR_REG &= ((uint8)(~CY_LIB_FASTCLK_IMO_DOUBLER));
 1245              		.loc 1 711 0
 1246 0004 4FF48443 		mov	r3, #16896
 1247 0008 C4F20003 		movt	r3, 16384
 1248 000c 4FF48442 		mov	r2, #16896
 1249 0010 C4F20002 		movt	r2, 16384
 1250 0014 1278     		ldrb	r2, [r2, #0]
 1251 0016 D2B2     		uxtb	r2, r2
 1252 0018 22F01002 		bic	r2, r2, #16
 1253 001c D2B2     		uxtb	r2, r2
 1254 001e 1A70     		strb	r2, [r3, #0]
 712:.\Generated_Source\PSoC5/CyLib.c **** }
 1255              		.loc 1 712 0
 1256 0020 BD46     		mov	sp, r7
 1257 0022 80BC     		pop	{r7}
 1258 0024 7047     		bx	lr
 1259              		.cfi_endproc
 1260              	.LFE11:
 1261              		.size	CyIMO_DisableDoubler, .-CyIMO_DisableDoubler
 1262 0026 00BF     		.section	.text.CyMasterClk_SetSource,"ax",%progbits
 1263              		.align	2
 1264              		.global	CyMasterClk_SetSource
 1265              		.thumb
 1266              		.thumb_func
 1267              		.type	CyMasterClk_SetSource, %function
 1268              	CyMasterClk_SetSource:
 1269              	.LFB12:
 713:.\Generated_Source\PSoC5/CyLib.c **** 
 714:.\Generated_Source\PSoC5/CyLib.c **** 
 715:.\Generated_Source\PSoC5/CyLib.c **** /*******************************************************************************
 716:.\Generated_Source\PSoC5/CyLib.c **** * Function Name: CyMasterClk_SetSource
 717:.\Generated_Source\PSoC5/CyLib.c **** ********************************************************************************
 718:.\Generated_Source\PSoC5/CyLib.c **** *
 719:.\Generated_Source\PSoC5/CyLib.c **** * Summary:
 720:.\Generated_Source\PSoC5/CyLib.c **** *  Sets the source of the master clock.
ARM GAS  C:\Users\RIEKOH~1\AppData\Local\Temp\cc0wEKzV.s 			page 36


 721:.\Generated_Source\PSoC5/CyLib.c **** *
 722:.\Generated_Source\PSoC5/CyLib.c **** * Parameters:
 723:.\Generated_Source\PSoC5/CyLib.c **** *   source: One of the four available Master clock sources.
 724:.\Generated_Source\PSoC5/CyLib.c **** *     CY_MASTER_SOURCE_IMO
 725:.\Generated_Source\PSoC5/CyLib.c **** *     CY_MASTER_SOURCE_PLL
 726:.\Generated_Source\PSoC5/CyLib.c **** *     CY_MASTER_SOURCE_XTAL
 727:.\Generated_Source\PSoC5/CyLib.c **** *     CY_MASTER_SOURCE_DSI
 728:.\Generated_Source\PSoC5/CyLib.c **** *
 729:.\Generated_Source\PSoC5/CyLib.c **** * Return:
 730:.\Generated_Source\PSoC5/CyLib.c **** *  None
 731:.\Generated_Source\PSoC5/CyLib.c **** *
 732:.\Generated_Source\PSoC5/CyLib.c **** * Side Effects:
 733:.\Generated_Source\PSoC5/CyLib.c **** *  The current source and the new source must both be running and stable before
 734:.\Generated_Source\PSoC5/CyLib.c **** *  calling this function.
 735:.\Generated_Source\PSoC5/CyLib.c **** *
 736:.\Generated_Source\PSoC5/CyLib.c **** *  If as result of this function execution the CPU clock frequency is increased
 737:.\Generated_Source\PSoC5/CyLib.c **** *  then the number of clock cycles the cache will wait before it samples data
 738:.\Generated_Source\PSoC5/CyLib.c **** *  coming back from Flash must be adjusted by calling CyFlash_SetWaitCycles()
 739:.\Generated_Source\PSoC5/CyLib.c **** *  with appropriate parameter. It can be optionally called if CPU clock
 740:.\Generated_Source\PSoC5/CyLib.c **** *  frequency is lowered in order to improve CPU performance.
 741:.\Generated_Source\PSoC5/CyLib.c **** *  See CyFlash_SetWaitCycles() description for more information.
 742:.\Generated_Source\PSoC5/CyLib.c **** *
 743:.\Generated_Source\PSoC5/CyLib.c **** *******************************************************************************/
 744:.\Generated_Source\PSoC5/CyLib.c **** void CyMasterClk_SetSource(uint8 source) 
 745:.\Generated_Source\PSoC5/CyLib.c **** {
 1270              		.loc 1 745 0
 1271              		.cfi_startproc
 1272              		@ args = 0, pretend = 0, frame = 8
 1273              		@ frame_needed = 1, uses_anonymous_args = 0
 1274              		@ link register save eliminated.
 1275 0000 80B4     		push	{r7}
 1276              	.LCFI32:
 1277              		.cfi_def_cfa_offset 4
 1278              		.cfi_offset 7, -4
 1279 0002 83B0     		sub	sp, sp, #12
 1280              	.LCFI33:
 1281              		.cfi_def_cfa_offset 16
 1282 0004 00AF     		add	r7, sp, #0
 1283              	.LCFI34:
 1284              		.cfi_def_cfa_register 7
 1285 0006 0346     		mov	r3, r0
 1286 0008 FB71     		strb	r3, [r7, #7]
 746:.\Generated_Source\PSoC5/CyLib.c ****     CY_LIB_CLKDIST_MSTR1_REG = (CY_LIB_CLKDIST_MSTR1_REG & MASTER_CLK_SRC_CLEAR) |
 1287              		.loc 1 746 0
 1288 000a 44F20503 		movw	r3, #16389
 1289 000e C4F20003 		movt	r3, 16384
 1290 0012 44F20502 		movw	r2, #16389
 1291 0016 C4F20002 		movt	r2, 16384
 1292 001a 1278     		ldrb	r2, [r2, #0]
 1293 001c D2B2     		uxtb	r2, r2
 1294 001e 22F00302 		bic	r2, r2, #3
 1295 0022 D1B2     		uxtb	r1, r2
 1296 0024 FA79     		ldrb	r2, [r7, #7]
 1297 0026 02F00302 		and	r2, r2, #3
 1298 002a D2B2     		uxtb	r2, r2
 1299 002c 0A43     		orrs	r2, r2, r1
 1300 002e D2B2     		uxtb	r2, r2
ARM GAS  C:\Users\RIEKOH~1\AppData\Local\Temp\cc0wEKzV.s 			page 37


 1301 0030 1A70     		strb	r2, [r3, #0]
 747:.\Generated_Source\PSoC5/CyLib.c ****                                 (source & ((uint8)(~MASTER_CLK_SRC_CLEAR)));
 748:.\Generated_Source\PSoC5/CyLib.c **** }
 1302              		.loc 1 748 0
 1303 0032 07F10C07 		add	r7, r7, #12
 1304 0036 BD46     		mov	sp, r7
 1305 0038 80BC     		pop	{r7}
 1306 003a 7047     		bx	lr
 1307              		.cfi_endproc
 1308              	.LFE12:
 1309              		.size	CyMasterClk_SetSource, .-CyMasterClk_SetSource
 1310              		.section	.text.CyMasterClk_SetDivider,"ax",%progbits
 1311              		.align	2
 1312              		.global	CyMasterClk_SetDivider
 1313              		.thumb
 1314              		.thumb_func
 1315              		.type	CyMasterClk_SetDivider, %function
 1316              	CyMasterClk_SetDivider:
 1317              	.LFB13:
 749:.\Generated_Source\PSoC5/CyLib.c **** 
 750:.\Generated_Source\PSoC5/CyLib.c **** 
 751:.\Generated_Source\PSoC5/CyLib.c **** /*******************************************************************************
 752:.\Generated_Source\PSoC5/CyLib.c **** * Function Name: CyMasterClk_SetDivider
 753:.\Generated_Source\PSoC5/CyLib.c **** ********************************************************************************
 754:.\Generated_Source\PSoC5/CyLib.c **** *
 755:.\Generated_Source\PSoC5/CyLib.c **** * Summary:
 756:.\Generated_Source\PSoC5/CyLib.c **** *  Sets the divider value used to generate Master Clock.
 757:.\Generated_Source\PSoC5/CyLib.c **** *
 758:.\Generated_Source\PSoC5/CyLib.c **** * Parameters:
 759:.\Generated_Source\PSoC5/CyLib.c **** *  uint8 divider:
 760:.\Generated_Source\PSoC5/CyLib.c **** *   Valid range [0-255]. The clock will be divided by this value + 1.
 761:.\Generated_Source\PSoC5/CyLib.c **** *   For example to divide by 2 this parameter should be set to 1.
 762:.\Generated_Source\PSoC5/CyLib.c **** *
 763:.\Generated_Source\PSoC5/CyLib.c **** * Return:
 764:.\Generated_Source\PSoC5/CyLib.c **** *  None
 765:.\Generated_Source\PSoC5/CyLib.c **** *
 766:.\Generated_Source\PSoC5/CyLib.c **** * Side Effects:
 767:.\Generated_Source\PSoC5/CyLib.c **** *  If as result of this function execution the CPU clock frequency is increased
 768:.\Generated_Source\PSoC5/CyLib.c **** *  then the number of clock cycles the cache will wait before it samples data
 769:.\Generated_Source\PSoC5/CyLib.c **** *  coming back from Flash must be adjusted by calling CyFlash_SetWaitCycles()
 770:.\Generated_Source\PSoC5/CyLib.c **** *  with appropriate parameter. It can be optionally called if CPU clock
 771:.\Generated_Source\PSoC5/CyLib.c **** *  frequency is lowered in order to improve CPU performance.
 772:.\Generated_Source\PSoC5/CyLib.c **** *  See CyFlash_SetWaitCycles() description for more information.
 773:.\Generated_Source\PSoC5/CyLib.c **** *
 774:.\Generated_Source\PSoC5/CyLib.c **** *  When changing the Master or Bus clock divider value from div-by-n to div-by-1
 775:.\Generated_Source\PSoC5/CyLib.c **** *  the first clock cycle output after the div-by-1 can be up to 4 ns shorter
 776:.\Generated_Source\PSoC5/CyLib.c **** *  than the final/expected div-by-1 period.
 777:.\Generated_Source\PSoC5/CyLib.c **** *
 778:.\Generated_Source\PSoC5/CyLib.c **** *******************************************************************************/
 779:.\Generated_Source\PSoC5/CyLib.c **** void CyMasterClk_SetDivider(uint8 divider) 
 780:.\Generated_Source\PSoC5/CyLib.c **** {
 1318              		.loc 1 780 0
 1319              		.cfi_startproc
 1320              		@ args = 0, pretend = 0, frame = 8
 1321              		@ frame_needed = 1, uses_anonymous_args = 0
 1322              		@ link register save eliminated.
 1323 0000 80B4     		push	{r7}
ARM GAS  C:\Users\RIEKOH~1\AppData\Local\Temp\cc0wEKzV.s 			page 38


 1324              	.LCFI35:
 1325              		.cfi_def_cfa_offset 4
 1326              		.cfi_offset 7, -4
 1327 0002 83B0     		sub	sp, sp, #12
 1328              	.LCFI36:
 1329              		.cfi_def_cfa_offset 16
 1330 0004 00AF     		add	r7, sp, #0
 1331              	.LCFI37:
 1332              		.cfi_def_cfa_register 7
 1333 0006 0346     		mov	r3, r0
 1334 0008 FB71     		strb	r3, [r7, #7]
 781:.\Generated_Source\PSoC5/CyLib.c ****     CY_LIB_CLKDIST_MSTR0_REG = divider;
 1335              		.loc 1 781 0
 1336 000a 44F20403 		movw	r3, #16388
 1337 000e C4F20003 		movt	r3, 16384
 1338 0012 FA79     		ldrb	r2, [r7, #7]
 1339 0014 1A70     		strb	r2, [r3, #0]
 782:.\Generated_Source\PSoC5/CyLib.c **** }
 1340              		.loc 1 782 0
 1341 0016 07F10C07 		add	r7, r7, #12
 1342 001a BD46     		mov	sp, r7
 1343 001c 80BC     		pop	{r7}
 1344 001e 7047     		bx	lr
 1345              		.cfi_endproc
 1346              	.LFE13:
 1347              		.size	CyMasterClk_SetDivider, .-CyMasterClk_SetDivider
 1348              		.section	.text.CyBusClk_Internal_SetDivider,"ax",%progbits
 1349              		.align	2
 1350              		.thumb
 1351              		.thumb_func
 1352              		.type	CyBusClk_Internal_SetDivider, %function
 1353              	CyBusClk_Internal_SetDivider:
 1354              	.LFB14:
 783:.\Generated_Source\PSoC5/CyLib.c **** 
 784:.\Generated_Source\PSoC5/CyLib.c **** 
 785:.\Generated_Source\PSoC5/CyLib.c **** /*******************************************************************************
 786:.\Generated_Source\PSoC5/CyLib.c **** * Function Name: CyBusClk_Internal_SetDivider
 787:.\Generated_Source\PSoC5/CyLib.c **** ********************************************************************************
 788:.\Generated_Source\PSoC5/CyLib.c **** *
 789:.\Generated_Source\PSoC5/CyLib.c **** * Summary:
 790:.\Generated_Source\PSoC5/CyLib.c **** *  Function used by CyBusClk_SetDivider(). For internal use only.
 791:.\Generated_Source\PSoC5/CyLib.c **** *
 792:.\Generated_Source\PSoC5/CyLib.c **** * Parameters:
 793:.\Generated_Source\PSoC5/CyLib.c **** *   divider: Valid range [0-65535].
 794:.\Generated_Source\PSoC5/CyLib.c **** *   The clock will be divided by this value + 1.
 795:.\Generated_Source\PSoC5/CyLib.c **** *   For example to divide by 2 this parameter should be set to 1.
 796:.\Generated_Source\PSoC5/CyLib.c **** *
 797:.\Generated_Source\PSoC5/CyLib.c **** * Return:
 798:.\Generated_Source\PSoC5/CyLib.c **** *  None
 799:.\Generated_Source\PSoC5/CyLib.c **** *
 800:.\Generated_Source\PSoC5/CyLib.c **** *******************************************************************************/
 801:.\Generated_Source\PSoC5/CyLib.c **** static void CyBusClk_Internal_SetDivider(uint16 divider)
 802:.\Generated_Source\PSoC5/CyLib.c **** {
 1355              		.loc 1 802 0
 1356              		.cfi_startproc
 1357              		@ args = 0, pretend = 0, frame = 8
 1358              		@ frame_needed = 1, uses_anonymous_args = 0
ARM GAS  C:\Users\RIEKOH~1\AppData\Local\Temp\cc0wEKzV.s 			page 39


 1359              		@ link register save eliminated.
 1360 0000 80B4     		push	{r7}
 1361              	.LCFI38:
 1362              		.cfi_def_cfa_offset 4
 1363              		.cfi_offset 7, -4
 1364 0002 83B0     		sub	sp, sp, #12
 1365              	.LCFI39:
 1366              		.cfi_def_cfa_offset 16
 1367 0004 00AF     		add	r7, sp, #0
 1368              	.LCFI40:
 1369              		.cfi_def_cfa_register 7
 1370 0006 0346     		mov	r3, r0
 1371 0008 FB80     		strh	r3, [r7, #6]	@ movhi
 803:.\Generated_Source\PSoC5/CyLib.c ****     /* Mask bits to enable shadow loads  */
 804:.\Generated_Source\PSoC5/CyLib.c ****     CY_LIB_CLKDIST_AMASK_REG &= CY_LIB_CLKDIST_AMASK_MASK;
 1372              		.loc 1 804 0
 1373 000a 44F21403 		movw	r3, #16404
 1374 000e C4F20003 		movt	r3, 16384
 1375 0012 44F21402 		movw	r2, #16404
 1376 0016 C4F20002 		movt	r2, 16384
 1377 001a 1278     		ldrb	r2, [r2, #0]
 1378 001c D2B2     		uxtb	r2, r2
 1379 001e 22F00F02 		bic	r2, r2, #15
 1380 0022 D2B2     		uxtb	r2, r2
 1381 0024 1A70     		strb	r2, [r3, #0]
 805:.\Generated_Source\PSoC5/CyLib.c ****     CY_LIB_CLKDIST_DMASK_REG  = CY_LIB_CLKDIST_DMASK_MASK;
 1382              		.loc 1 805 0
 1383 0026 44F21003 		movw	r3, #16400
 1384 002a C4F20003 		movt	r3, 16384
 1385 002e 4FF00002 		mov	r2, #0
 1386 0032 1A70     		strb	r2, [r3, #0]
 806:.\Generated_Source\PSoC5/CyLib.c **** 
 807:.\Generated_Source\PSoC5/CyLib.c ****     /* Enable mask bits to enable shadow loads */
 808:.\Generated_Source\PSoC5/CyLib.c ****     CY_LIB_CLKDIST_BCFG2_REG |= CY_LIB_CLKDIST_BCFG2_MASK;
 1387              		.loc 1 808 0
 1388 0034 44F20803 		movw	r3, #16392
 1389 0038 C4F20003 		movt	r3, 16384
 1390 003c 44F20802 		movw	r2, #16392
 1391 0040 C4F20002 		movt	r2, 16384
 1392 0044 1278     		ldrb	r2, [r2, #0]
 1393 0046 D2B2     		uxtb	r2, r2
 1394 0048 62F07F02 		orn	r2, r2, #127
 1395 004c D2B2     		uxtb	r2, r2
 1396 004e 1A70     		strb	r2, [r3, #0]
 809:.\Generated_Source\PSoC5/CyLib.c **** 
 810:.\Generated_Source\PSoC5/CyLib.c ****     /* Update Shadow Divider Value Register with the new divider */
 811:.\Generated_Source\PSoC5/CyLib.c ****     CY_LIB_CLKDIST_WRK_LSB_REG = LO8(divider);
 1397              		.loc 1 811 0
 1398 0050 44F20203 		movw	r3, #16386
 1399 0054 C4F20003 		movt	r3, 16384
 1400 0058 FA88     		ldrh	r2, [r7, #6]	@ movhi
 1401 005a D2B2     		uxtb	r2, r2
 1402 005c 1A70     		strb	r2, [r3, #0]
 812:.\Generated_Source\PSoC5/CyLib.c ****     CY_LIB_CLKDIST_WRK_MSB_REG = HI8(divider);
 1403              		.loc 1 812 0
 1404 005e 44F20303 		movw	r3, #16387
 1405 0062 C4F20003 		movt	r3, 16384
ARM GAS  C:\Users\RIEKOH~1\AppData\Local\Temp\cc0wEKzV.s 			page 40


 1406 0066 FA88     		ldrh	r2, [r7, #6]
 1407 0068 4FEA1222 		lsr	r2, r2, #8
 1408 006c 92B2     		uxth	r2, r2
 1409 006e D2B2     		uxtb	r2, r2
 1410 0070 1A70     		strb	r2, [r3, #0]
 813:.\Generated_Source\PSoC5/CyLib.c **** 
 814:.\Generated_Source\PSoC5/CyLib.c **** 
 815:.\Generated_Source\PSoC5/CyLib.c ****     /***************************************************************************
 816:.\Generated_Source\PSoC5/CyLib.c ****     * Copy shadow value defined in Shadow Divider Value Register
 817:.\Generated_Source\PSoC5/CyLib.c ****     * (CY_LIB_CLKDIST_WRK_LSB_REG and CY_LIB_CLKDIST_WRK_MSB_REG) to all
 818:.\Generated_Source\PSoC5/CyLib.c ****     * dividers selected in Analog and Digital Clock Mask Registers
 819:.\Generated_Source\PSoC5/CyLib.c ****     * (CY_LIB_CLKDIST_AMASK_REG and CY_LIB_CLKDIST_DMASK_REG).
 820:.\Generated_Source\PSoC5/CyLib.c ****     ***************************************************************************/
 821:.\Generated_Source\PSoC5/CyLib.c ****     CY_LIB_CLKDIST_LD_REG |= CY_LIB_CLKDIST_LD_LOAD;
 1411              		.loc 1 821 0
 1412 0072 44F20103 		movw	r3, #16385
 1413 0076 C4F20003 		movt	r3, 16384
 1414 007a 44F20102 		movw	r2, #16385
 1415 007e C4F20002 		movt	r2, 16384
 1416 0082 1278     		ldrb	r2, [r2, #0]
 1417 0084 D2B2     		uxtb	r2, r2
 1418 0086 42F00102 		orr	r2, r2, #1
 1419 008a D2B2     		uxtb	r2, r2
 1420 008c 1A70     		strb	r2, [r3, #0]
 822:.\Generated_Source\PSoC5/CyLib.c **** }
 1421              		.loc 1 822 0
 1422 008e 07F10C07 		add	r7, r7, #12
 1423 0092 BD46     		mov	sp, r7
 1424 0094 80BC     		pop	{r7}
 1425 0096 7047     		bx	lr
 1426              		.cfi_endproc
 1427              	.LFE14:
 1428              		.size	CyBusClk_Internal_SetDivider, .-CyBusClk_Internal_SetDivider
 1429              		.section	.text.CyBusClk_SetDivider,"ax",%progbits
 1430              		.align	2
 1431              		.global	CyBusClk_SetDivider
 1432              		.thumb
 1433              		.thumb_func
 1434              		.type	CyBusClk_SetDivider, %function
 1435              	CyBusClk_SetDivider:
 1436              	.LFB15:
 823:.\Generated_Source\PSoC5/CyLib.c **** 
 824:.\Generated_Source\PSoC5/CyLib.c **** 
 825:.\Generated_Source\PSoC5/CyLib.c **** /*******************************************************************************
 826:.\Generated_Source\PSoC5/CyLib.c **** * Function Name: CyBusClk_SetDivider
 827:.\Generated_Source\PSoC5/CyLib.c **** ********************************************************************************
 828:.\Generated_Source\PSoC5/CyLib.c **** *
 829:.\Generated_Source\PSoC5/CyLib.c **** * Summary:
 830:.\Generated_Source\PSoC5/CyLib.c **** *  Sets the divider value used to generate Bus Clock.
 831:.\Generated_Source\PSoC5/CyLib.c **** *
 832:.\Generated_Source\PSoC5/CyLib.c **** * Parameters:
 833:.\Generated_Source\PSoC5/CyLib.c **** *  divider: Valid range [0-65535]. The clock will be divided by this value + 1.
 834:.\Generated_Source\PSoC5/CyLib.c **** *  For example to divide by 2 this parameter should be set to 1.
 835:.\Generated_Source\PSoC5/CyLib.c **** *
 836:.\Generated_Source\PSoC5/CyLib.c **** * Return:
 837:.\Generated_Source\PSoC5/CyLib.c **** *  None
 838:.\Generated_Source\PSoC5/CyLib.c **** *
ARM GAS  C:\Users\RIEKOH~1\AppData\Local\Temp\cc0wEKzV.s 			page 41


 839:.\Generated_Source\PSoC5/CyLib.c **** * Side Effects:
 840:.\Generated_Source\PSoC5/CyLib.c **** *  If as result of this function execution the CPU clock frequency is increased
 841:.\Generated_Source\PSoC5/CyLib.c **** *  then the number of clock cycles the cache will wait before it samples data
 842:.\Generated_Source\PSoC5/CyLib.c **** *  coming back from Flash must be adjusted by calling CyFlash_SetWaitCycles()
 843:.\Generated_Source\PSoC5/CyLib.c **** *  with appropriate parameter. It can be optionally called if CPU clock
 844:.\Generated_Source\PSoC5/CyLib.c **** *  frequency is lowered in order to improve CPU performance.
 845:.\Generated_Source\PSoC5/CyLib.c **** *  See CyFlash_SetWaitCycles() description for more information.
 846:.\Generated_Source\PSoC5/CyLib.c **** *
 847:.\Generated_Source\PSoC5/CyLib.c **** *******************************************************************************/
 848:.\Generated_Source\PSoC5/CyLib.c **** void CyBusClk_SetDivider(uint16 divider) 
 849:.\Generated_Source\PSoC5/CyLib.c **** {
 1437              		.loc 1 849 0
 1438              		.cfi_startproc
 1439              		@ args = 0, pretend = 0, frame = 16
 1440              		@ frame_needed = 1, uses_anonymous_args = 0
 1441 0000 80B5     		push	{r7, lr}
 1442              	.LCFI41:
 1443              		.cfi_def_cfa_offset 8
 1444              		.cfi_offset 7, -8
 1445              		.cfi_offset 14, -4
 1446 0002 84B0     		sub	sp, sp, #16
 1447              	.LCFI42:
 1448              		.cfi_def_cfa_offset 24
 1449 0004 00AF     		add	r7, sp, #0
 1450              	.LCFI43:
 1451              		.cfi_def_cfa_register 7
 1452 0006 0346     		mov	r3, r0
 1453 0008 FB80     		strh	r3, [r7, #6]	@ movhi
 850:.\Generated_Source\PSoC5/CyLib.c ****     uint8  masterClkDiv;
 851:.\Generated_Source\PSoC5/CyLib.c ****     uint16 busClkDiv;
 852:.\Generated_Source\PSoC5/CyLib.c ****     uint8 interruptState;
 853:.\Generated_Source\PSoC5/CyLib.c **** 
 854:.\Generated_Source\PSoC5/CyLib.c ****     interruptState = CyEnterCriticalSection();
 1454              		.loc 1 854 0
 1455 000a FFF7FEFF 		bl	CyEnterCriticalSection
 1456 000e 0346     		mov	r3, r0
 1457 0010 FB73     		strb	r3, [r7, #15]
 855:.\Generated_Source\PSoC5/CyLib.c **** 
 856:.\Generated_Source\PSoC5/CyLib.c ****     /* Work around to set the bus clock divider value */
 857:.\Generated_Source\PSoC5/CyLib.c ****     busClkDiv = (uint16)((uint16)CY_LIB_CLKDIST_BCFG_MSB_REG << 8u);
 1458              		.loc 1 857 0
 1459 0012 44F20703 		movw	r3, #16391
 1460 0016 C4F20003 		movt	r3, 16384
 1461 001a 1B78     		ldrb	r3, [r3, #0]
 1462 001c DBB2     		uxtb	r3, r3
 1463 001e 4FEA0323 		lsl	r3, r3, #8
 1464 0022 BB81     		strh	r3, [r7, #12]	@ movhi
 858:.\Generated_Source\PSoC5/CyLib.c ****     busClkDiv |= CY_LIB_CLKDIST_BCFG_LSB_REG;
 1465              		.loc 1 858 0
 1466 0024 44F20603 		movw	r3, #16390
 1467 0028 C4F20003 		movt	r3, 16384
 1468 002c 1B78     		ldrb	r3, [r3, #0]
 1469 002e DBB2     		uxtb	r3, r3
 1470 0030 1A46     		mov	r2, r3
 1471 0032 BB89     		ldrh	r3, [r7, #12]	@ movhi
 1472 0034 1343     		orrs	r3, r3, r2
 1473 0036 BB81     		strh	r3, [r7, #12]	@ movhi
ARM GAS  C:\Users\RIEKOH~1\AppData\Local\Temp\cc0wEKzV.s 			page 42


 859:.\Generated_Source\PSoC5/CyLib.c **** 
 860:.\Generated_Source\PSoC5/CyLib.c ****     if ((divider == 0u) || (busClkDiv == 0u))
 1474              		.loc 1 860 0
 1475 0038 FB88     		ldrh	r3, [r7, #6]
 1476 003a 002B     		cmp	r3, #0
 1477 003c 02D0     		beq	.L84
 1478              		.loc 1 860 0 is_stmt 0 discriminator 1
 1479 003e BB89     		ldrh	r3, [r7, #12]
 1480 0040 002B     		cmp	r3, #0
 1481 0042 39D1     		bne	.L85
 1482              	.L84:
 861:.\Generated_Source\PSoC5/CyLib.c ****     {
 862:.\Generated_Source\PSoC5/CyLib.c ****         /* Save away the master clock divider value */
 863:.\Generated_Source\PSoC5/CyLib.c ****         masterClkDiv = CY_LIB_CLKDIST_MSTR0_REG;
 1483              		.loc 1 863 0 is_stmt 1
 1484 0044 44F20403 		movw	r3, #16388
 1485 0048 C4F20003 		movt	r3, 16384
 1486 004c 1B78     		ldrb	r3, [r3, #0]
 1487 004e FB72     		strb	r3, [r7, #11]
 864:.\Generated_Source\PSoC5/CyLib.c **** 
 865:.\Generated_Source\PSoC5/CyLib.c ****         if (masterClkDiv < CY_LIB_CLKDIST_MASTERCLK_DIV)
 1488              		.loc 1 865 0
 1489 0050 FB7A     		ldrb	r3, [r7, #11]	@ zero_extendqisi2
 1490 0052 062B     		cmp	r3, #6
 1491 0054 03D8     		bhi	.L86
 866:.\Generated_Source\PSoC5/CyLib.c ****         {
 867:.\Generated_Source\PSoC5/CyLib.c ****             /* Set master clock divider to 7 */
 868:.\Generated_Source\PSoC5/CyLib.c ****             CyMasterClk_SetDivider(CY_LIB_CLKDIST_MASTERCLK_DIV);
 1492              		.loc 1 868 0
 1493 0056 4FF00700 		mov	r0, #7
 1494 005a FFF7FEFF 		bl	CyMasterClk_SetDivider
 1495              	.L86:
 869:.\Generated_Source\PSoC5/CyLib.c ****         }
 870:.\Generated_Source\PSoC5/CyLib.c **** 
 871:.\Generated_Source\PSoC5/CyLib.c ****         if (divider == 0u)
 1496              		.loc 1 871 0
 1497 005e FB88     		ldrh	r3, [r7, #6]
 1498 0060 002B     		cmp	r3, #0
 1499 0062 12D1     		bne	.L87
 872:.\Generated_Source\PSoC5/CyLib.c ****         {
 873:.\Generated_Source\PSoC5/CyLib.c ****             /* Set the SSS bit and the divider register desired value */
 874:.\Generated_Source\PSoC5/CyLib.c ****             CY_LIB_CLKDIST_BCFG2_REG |= CY_LIB_CLKDIST_BCFG2_SSS;
 1500              		.loc 1 874 0
 1501 0064 44F20803 		movw	r3, #16392
 1502 0068 C4F20003 		movt	r3, 16384
 1503 006c 44F20802 		movw	r2, #16392
 1504 0070 C4F20002 		movt	r2, 16384
 1505 0074 1278     		ldrb	r2, [r2, #0]
 1506 0076 D2B2     		uxtb	r2, r2
 1507 0078 42F04002 		orr	r2, r2, #64
 1508 007c D2B2     		uxtb	r2, r2
 1509 007e 1A70     		strb	r2, [r3, #0]
 875:.\Generated_Source\PSoC5/CyLib.c ****             CyBusClk_Internal_SetDivider(divider);
 1510              		.loc 1 875 0
 1511 0080 FB88     		ldrh	r3, [r7, #6]
 1512 0082 1846     		mov	r0, r3
 1513 0084 FFF7FEFF 		bl	CyBusClk_Internal_SetDivider
ARM GAS  C:\Users\RIEKOH~1\AppData\Local\Temp\cc0wEKzV.s 			page 43


 1514 0088 11E0     		b	.L88
 1515              	.L87:
 876:.\Generated_Source\PSoC5/CyLib.c ****         }
 877:.\Generated_Source\PSoC5/CyLib.c ****         else
 878:.\Generated_Source\PSoC5/CyLib.c ****         {
 879:.\Generated_Source\PSoC5/CyLib.c ****             CyBusClk_Internal_SetDivider(divider);
 1516              		.loc 1 879 0
 1517 008a FB88     		ldrh	r3, [r7, #6]
 1518 008c 1846     		mov	r0, r3
 1519 008e FFF7FEFF 		bl	CyBusClk_Internal_SetDivider
 880:.\Generated_Source\PSoC5/CyLib.c ****             CY_LIB_CLKDIST_BCFG2_REG &= ((uint8)(~CY_LIB_CLKDIST_BCFG2_SSS));
 1520              		.loc 1 880 0
 1521 0092 44F20803 		movw	r3, #16392
 1522 0096 C4F20003 		movt	r3, 16384
 1523 009a 44F20802 		movw	r2, #16392
 1524 009e C4F20002 		movt	r2, 16384
 1525 00a2 1278     		ldrb	r2, [r2, #0]
 1526 00a4 D2B2     		uxtb	r2, r2
 1527 00a6 22F04002 		bic	r2, r2, #64
 1528 00aa D2B2     		uxtb	r2, r2
 1529 00ac 1A70     		strb	r2, [r3, #0]
 1530              	.L88:
 881:.\Generated_Source\PSoC5/CyLib.c ****         }
 882:.\Generated_Source\PSoC5/CyLib.c **** 
 883:.\Generated_Source\PSoC5/CyLib.c ****         /* Restore the master clock */
 884:.\Generated_Source\PSoC5/CyLib.c ****         CyMasterClk_SetDivider(masterClkDiv);
 1531              		.loc 1 884 0
 1532 00ae FB7A     		ldrb	r3, [r7, #11]	@ zero_extendqisi2
 1533 00b0 1846     		mov	r0, r3
 1534 00b2 FFF7FEFF 		bl	CyMasterClk_SetDivider
 1535 00b6 03E0     		b	.L89
 1536              	.L85:
 885:.\Generated_Source\PSoC5/CyLib.c ****     }
 886:.\Generated_Source\PSoC5/CyLib.c ****     else
 887:.\Generated_Source\PSoC5/CyLib.c ****     {
 888:.\Generated_Source\PSoC5/CyLib.c ****         CyBusClk_Internal_SetDivider(divider);
 1537              		.loc 1 888 0
 1538 00b8 FB88     		ldrh	r3, [r7, #6]
 1539 00ba 1846     		mov	r0, r3
 1540 00bc FFF7FEFF 		bl	CyBusClk_Internal_SetDivider
 1541              	.L89:
 889:.\Generated_Source\PSoC5/CyLib.c ****     }
 890:.\Generated_Source\PSoC5/CyLib.c **** 
 891:.\Generated_Source\PSoC5/CyLib.c ****     CyExitCriticalSection(interruptState);
 1542              		.loc 1 891 0
 1543 00c0 FB7B     		ldrb	r3, [r7, #15]	@ zero_extendqisi2
 1544 00c2 1846     		mov	r0, r3
 1545 00c4 FFF7FEFF 		bl	CyExitCriticalSection
 892:.\Generated_Source\PSoC5/CyLib.c **** }
 1546              		.loc 1 892 0
 1547 00c8 07F11007 		add	r7, r7, #16
 1548 00cc BD46     		mov	sp, r7
 1549 00ce 80BD     		pop	{r7, pc}
 1550              		.cfi_endproc
 1551              	.LFE15:
 1552              		.size	CyBusClk_SetDivider, .-CyBusClk_SetDivider
 1553              		.section	.text.CyUsbClk_SetSource,"ax",%progbits
ARM GAS  C:\Users\RIEKOH~1\AppData\Local\Temp\cc0wEKzV.s 			page 44


 1554              		.align	2
 1555              		.global	CyUsbClk_SetSource
 1556              		.thumb
 1557              		.thumb_func
 1558              		.type	CyUsbClk_SetSource, %function
 1559              	CyUsbClk_SetSource:
 1560              	.LFB16:
 893:.\Generated_Source\PSoC5/CyLib.c **** 
 894:.\Generated_Source\PSoC5/CyLib.c **** 
 895:.\Generated_Source\PSoC5/CyLib.c **** #if(CY_PSOC3)
 896:.\Generated_Source\PSoC5/CyLib.c **** 
 897:.\Generated_Source\PSoC5/CyLib.c ****     /*******************************************************************************
 898:.\Generated_Source\PSoC5/CyLib.c ****     * Function Name: CyCpuClk_SetDivider
 899:.\Generated_Source\PSoC5/CyLib.c ****     ********************************************************************************
 900:.\Generated_Source\PSoC5/CyLib.c ****     *
 901:.\Generated_Source\PSoC5/CyLib.c ****     * Summary:
 902:.\Generated_Source\PSoC5/CyLib.c ****     *  Sets the divider value used to generate the CPU Clock. Only applicable for
 903:.\Generated_Source\PSoC5/CyLib.c ****     *  PSoC 3 parts.
 904:.\Generated_Source\PSoC5/CyLib.c ****     *
 905:.\Generated_Source\PSoC5/CyLib.c ****     * Parameters:
 906:.\Generated_Source\PSoC5/CyLib.c ****     *  divider: Valid range [0-15]. The clock will be divided by this value + 1.
 907:.\Generated_Source\PSoC5/CyLib.c ****     *  For example to divide by 2 this parameter should be set to 1.
 908:.\Generated_Source\PSoC5/CyLib.c ****     *
 909:.\Generated_Source\PSoC5/CyLib.c ****     * Return:
 910:.\Generated_Source\PSoC5/CyLib.c ****     *  None
 911:.\Generated_Source\PSoC5/CyLib.c ****     *
 912:.\Generated_Source\PSoC5/CyLib.c ****     * Side Effects:
 913:.\Generated_Source\PSoC5/CyLib.c ****     *  If as result of this function execution the CPU clock frequency is increased
 914:.\Generated_Source\PSoC5/CyLib.c ****     *  then the number of clock cycles the cache will wait before it samples data
 915:.\Generated_Source\PSoC5/CyLib.c ****     *  coming back from Flash must be adjusted by calling CyFlash_SetWaitCycles()
 916:.\Generated_Source\PSoC5/CyLib.c ****     *  with appropriate parameter. It can be optionally called if CPU clock
 917:.\Generated_Source\PSoC5/CyLib.c ****     *  frequency is lowered in order to improve CPU performance.
 918:.\Generated_Source\PSoC5/CyLib.c ****     *  See CyFlash_SetWaitCycles() description for more information.
 919:.\Generated_Source\PSoC5/CyLib.c ****     *
 920:.\Generated_Source\PSoC5/CyLib.c ****     *******************************************************************************/
 921:.\Generated_Source\PSoC5/CyLib.c ****     void CyCpuClk_SetDivider(uint8 divider) 
 922:.\Generated_Source\PSoC5/CyLib.c ****     {
 923:.\Generated_Source\PSoC5/CyLib.c ****             CY_LIB_CLKDIST_MSTR1_REG = (CY_LIB_CLKDIST_MSTR1_REG & CY_LIB_CLKDIST_MSTR1_DIV_MASK) |
 924:.\Generated_Source\PSoC5/CyLib.c ****                                 ((uint8)(divider << CY_LIB_CLKDIST_DIV_POSITION));
 925:.\Generated_Source\PSoC5/CyLib.c ****     }
 926:.\Generated_Source\PSoC5/CyLib.c **** 
 927:.\Generated_Source\PSoC5/CyLib.c **** #endif /* (CY_PSOC3) */
 928:.\Generated_Source\PSoC5/CyLib.c **** 
 929:.\Generated_Source\PSoC5/CyLib.c **** 
 930:.\Generated_Source\PSoC5/CyLib.c **** /*******************************************************************************
 931:.\Generated_Source\PSoC5/CyLib.c **** * Function Name: CyUsbClk_SetSource
 932:.\Generated_Source\PSoC5/CyLib.c **** ********************************************************************************
 933:.\Generated_Source\PSoC5/CyLib.c **** *
 934:.\Generated_Source\PSoC5/CyLib.c **** * Summary:
 935:.\Generated_Source\PSoC5/CyLib.c **** *  Sets the source of the USB clock.
 936:.\Generated_Source\PSoC5/CyLib.c **** *
 937:.\Generated_Source\PSoC5/CyLib.c **** * Parameters:
 938:.\Generated_Source\PSoC5/CyLib.c **** *  source: One of the four available USB clock sources
 939:.\Generated_Source\PSoC5/CyLib.c **** *    CY_LIB_USB_CLK_IMO2X     - IMO 2x
 940:.\Generated_Source\PSoC5/CyLib.c **** *    CY_LIB_USB_CLK_IMO       - IMO
 941:.\Generated_Source\PSoC5/CyLib.c **** *    CY_LIB_USB_CLK_PLL       - PLL
 942:.\Generated_Source\PSoC5/CyLib.c **** *    CY_LIB_USB_CLK_DSI       - DSI
ARM GAS  C:\Users\RIEKOH~1\AppData\Local\Temp\cc0wEKzV.s 			page 45


 943:.\Generated_Source\PSoC5/CyLib.c **** *
 944:.\Generated_Source\PSoC5/CyLib.c **** * Return:
 945:.\Generated_Source\PSoC5/CyLib.c **** *  None
 946:.\Generated_Source\PSoC5/CyLib.c **** *
 947:.\Generated_Source\PSoC5/CyLib.c **** *******************************************************************************/
 948:.\Generated_Source\PSoC5/CyLib.c **** void CyUsbClk_SetSource(uint8 source) 
 949:.\Generated_Source\PSoC5/CyLib.c **** {
 1561              		.loc 1 949 0
 1562              		.cfi_startproc
 1563              		@ args = 0, pretend = 0, frame = 8
 1564              		@ frame_needed = 1, uses_anonymous_args = 0
 1565              		@ link register save eliminated.
 1566 0000 80B4     		push	{r7}
 1567              	.LCFI44:
 1568              		.cfi_def_cfa_offset 4
 1569              		.cfi_offset 7, -4
 1570 0002 83B0     		sub	sp, sp, #12
 1571              	.LCFI45:
 1572              		.cfi_def_cfa_offset 16
 1573 0004 00AF     		add	r7, sp, #0
 1574              	.LCFI46:
 1575              		.cfi_def_cfa_register 7
 1576 0006 0346     		mov	r3, r0
 1577 0008 FB71     		strb	r3, [r7, #7]
 950:.\Generated_Source\PSoC5/CyLib.c ****     CY_LIB_CLKDIST_UCFG_REG = (CY_LIB_CLKDIST_UCFG_REG & ((uint8)(~CY_LIB_CLKDIST_UCFG_SRC_SEL_MASK
 1578              		.loc 1 950 0
 1579 000a 44F20903 		movw	r3, #16393
 1580 000e C4F20003 		movt	r3, 16384
 1581 0012 44F20902 		movw	r2, #16393
 1582 0016 C4F20002 		movt	r2, 16384
 1583 001a 1278     		ldrb	r2, [r2, #0]
 1584 001c D2B2     		uxtb	r2, r2
 1585 001e 22F00302 		bic	r2, r2, #3
 1586 0022 D1B2     		uxtb	r1, r2
 1587 0024 FA79     		ldrb	r2, [r7, #7]
 1588 0026 02F00302 		and	r2, r2, #3
 1589 002a D2B2     		uxtb	r2, r2
 1590 002c 0A43     		orrs	r2, r2, r1
 1591 002e D2B2     		uxtb	r2, r2
 1592 0030 1A70     		strb	r2, [r3, #0]
 951:.\Generated_Source\PSoC5/CyLib.c ****                         (CY_LIB_CLKDIST_UCFG_SRC_SEL_MASK & source);
 952:.\Generated_Source\PSoC5/CyLib.c **** }
 1593              		.loc 1 952 0
 1594 0032 07F10C07 		add	r7, r7, #12
 1595 0036 BD46     		mov	sp, r7
 1596 0038 80BC     		pop	{r7}
 1597 003a 7047     		bx	lr
 1598              		.cfi_endproc
 1599              	.LFE16:
 1600              		.size	CyUsbClk_SetSource, .-CyUsbClk_SetSource
 1601              		.section	.text.CyILO_Start1K,"ax",%progbits
 1602              		.align	2
 1603              		.global	CyILO_Start1K
 1604              		.thumb
 1605              		.thumb_func
 1606              		.type	CyILO_Start1K, %function
 1607              	CyILO_Start1K:
ARM GAS  C:\Users\RIEKOH~1\AppData\Local\Temp\cc0wEKzV.s 			page 46


 1608              	.LFB17:
 953:.\Generated_Source\PSoC5/CyLib.c **** 
 954:.\Generated_Source\PSoC5/CyLib.c **** 
 955:.\Generated_Source\PSoC5/CyLib.c **** /*******************************************************************************
 956:.\Generated_Source\PSoC5/CyLib.c **** * Function Name: CyILO_Start1K
 957:.\Generated_Source\PSoC5/CyLib.c **** ********************************************************************************
 958:.\Generated_Source\PSoC5/CyLib.c **** *
 959:.\Generated_Source\PSoC5/CyLib.c **** * Summary:
 960:.\Generated_Source\PSoC5/CyLib.c **** *  Enables the ILO 1 KHz oscillator.
 961:.\Generated_Source\PSoC5/CyLib.c **** *
 962:.\Generated_Source\PSoC5/CyLib.c **** *  Note The ILO 1 KHz oscillator is always enabled by default, regardless of the
 963:.\Generated_Source\PSoC5/CyLib.c **** *  selection in the Clock Editor. Therefore, this API is only needed if the
 964:.\Generated_Source\PSoC5/CyLib.c **** *  oscillator was turned off manually.
 965:.\Generated_Source\PSoC5/CyLib.c **** *
 966:.\Generated_Source\PSoC5/CyLib.c **** * Parameters:
 967:.\Generated_Source\PSoC5/CyLib.c **** *  None
 968:.\Generated_Source\PSoC5/CyLib.c **** *
 969:.\Generated_Source\PSoC5/CyLib.c **** * Return:
 970:.\Generated_Source\PSoC5/CyLib.c **** *  None
 971:.\Generated_Source\PSoC5/CyLib.c **** *
 972:.\Generated_Source\PSoC5/CyLib.c **** *******************************************************************************/
 973:.\Generated_Source\PSoC5/CyLib.c **** void CyILO_Start1K(void) 
 974:.\Generated_Source\PSoC5/CyLib.c **** {
 1609              		.loc 1 974 0
 1610              		.cfi_startproc
 1611              		@ args = 0, pretend = 0, frame = 0
 1612              		@ frame_needed = 1, uses_anonymous_args = 0
 1613              		@ link register save eliminated.
 1614 0000 80B4     		push	{r7}
 1615              	.LCFI47:
 1616              		.cfi_def_cfa_offset 4
 1617              		.cfi_offset 7, -4
 1618 0002 00AF     		add	r7, sp, #0
 1619              	.LCFI48:
 1620              		.cfi_def_cfa_register 7
 975:.\Generated_Source\PSoC5/CyLib.c ****     /* Set the bit 1 of ILO RS */
 976:.\Generated_Source\PSoC5/CyLib.c ****     CY_LIB_SLOWCLK_ILO_CR0_REG |= CY_LIB_SLOWCLK_ILO_CR0_EN_1KHZ;
 1621              		.loc 1 976 0
 1622 0004 4FF48643 		mov	r3, #17152
 1623 0008 C4F20003 		movt	r3, 16384
 1624 000c 4FF48642 		mov	r2, #17152
 1625 0010 C4F20002 		movt	r2, 16384
 1626 0014 1278     		ldrb	r2, [r2, #0]
 1627 0016 D2B2     		uxtb	r2, r2
 1628 0018 42F00202 		orr	r2, r2, #2
 1629 001c D2B2     		uxtb	r2, r2
 1630 001e 1A70     		strb	r2, [r3, #0]
 977:.\Generated_Source\PSoC5/CyLib.c **** }
 1631              		.loc 1 977 0
 1632 0020 BD46     		mov	sp, r7
 1633 0022 80BC     		pop	{r7}
 1634 0024 7047     		bx	lr
 1635              		.cfi_endproc
 1636              	.LFE17:
 1637              		.size	CyILO_Start1K, .-CyILO_Start1K
 1638 0026 00BF     		.section	.text.CyILO_Stop1K,"ax",%progbits
 1639              		.align	2
ARM GAS  C:\Users\RIEKOH~1\AppData\Local\Temp\cc0wEKzV.s 			page 47


 1640              		.global	CyILO_Stop1K
 1641              		.thumb
 1642              		.thumb_func
 1643              		.type	CyILO_Stop1K, %function
 1644              	CyILO_Stop1K:
 1645              	.LFB18:
 978:.\Generated_Source\PSoC5/CyLib.c **** 
 979:.\Generated_Source\PSoC5/CyLib.c **** 
 980:.\Generated_Source\PSoC5/CyLib.c **** /*******************************************************************************
 981:.\Generated_Source\PSoC5/CyLib.c **** * Function Name: CyILO_Stop1K
 982:.\Generated_Source\PSoC5/CyLib.c **** ********************************************************************************
 983:.\Generated_Source\PSoC5/CyLib.c **** *
 984:.\Generated_Source\PSoC5/CyLib.c **** * Summary:
 985:.\Generated_Source\PSoC5/CyLib.c **** *  Disables the ILO 1 KHz oscillator.
 986:.\Generated_Source\PSoC5/CyLib.c **** *
 987:.\Generated_Source\PSoC5/CyLib.c **** *  Note The ILO 1 KHz oscillator must be enabled if Sleep or Hibernate low power
 988:.\Generated_Source\PSoC5/CyLib.c **** *  mode APIs are expected to be used. For more information, refer to the Power
 989:.\Generated_Source\PSoC5/CyLib.c **** *  Management section of this document.
 990:.\Generated_Source\PSoC5/CyLib.c **** *
 991:.\Generated_Source\PSoC5/CyLib.c **** * Parameters:
 992:.\Generated_Source\PSoC5/CyLib.c **** *  None
 993:.\Generated_Source\PSoC5/CyLib.c **** *
 994:.\Generated_Source\PSoC5/CyLib.c **** * Return:
 995:.\Generated_Source\PSoC5/CyLib.c **** *  None
 996:.\Generated_Source\PSoC5/CyLib.c **** *
 997:.\Generated_Source\PSoC5/CyLib.c **** * Side Effects:
 998:.\Generated_Source\PSoC5/CyLib.c **** *  PSoC5: Stopping the ILO 1 kHz could break the active WDT functionality.
 999:.\Generated_Source\PSoC5/CyLib.c **** *
1000:.\Generated_Source\PSoC5/CyLib.c **** *******************************************************************************/
1001:.\Generated_Source\PSoC5/CyLib.c **** void CyILO_Stop1K(void) 
1002:.\Generated_Source\PSoC5/CyLib.c **** {
 1646              		.loc 1 1002 0
 1647              		.cfi_startproc
 1648              		@ args = 0, pretend = 0, frame = 0
 1649              		@ frame_needed = 1, uses_anonymous_args = 0
 1650              		@ link register save eliminated.
 1651 0000 80B4     		push	{r7}
 1652              	.LCFI49:
 1653              		.cfi_def_cfa_offset 4
 1654              		.cfi_offset 7, -4
 1655 0002 00AF     		add	r7, sp, #0
 1656              	.LCFI50:
 1657              		.cfi_def_cfa_register 7
1003:.\Generated_Source\PSoC5/CyLib.c ****     /* Clear the bit 1 of ILO RS */
1004:.\Generated_Source\PSoC5/CyLib.c ****     CY_LIB_SLOWCLK_ILO_CR0_REG &= ((uint8)(~CY_LIB_SLOWCLK_ILO_CR0_EN_1KHZ));
 1658              		.loc 1 1004 0
 1659 0004 4FF48643 		mov	r3, #17152
 1660 0008 C4F20003 		movt	r3, 16384
 1661 000c 4FF48642 		mov	r2, #17152
 1662 0010 C4F20002 		movt	r2, 16384
 1663 0014 1278     		ldrb	r2, [r2, #0]
 1664 0016 D2B2     		uxtb	r2, r2
 1665 0018 22F00202 		bic	r2, r2, #2
 1666 001c D2B2     		uxtb	r2, r2
 1667 001e 1A70     		strb	r2, [r3, #0]
1005:.\Generated_Source\PSoC5/CyLib.c **** }
 1668              		.loc 1 1005 0
ARM GAS  C:\Users\RIEKOH~1\AppData\Local\Temp\cc0wEKzV.s 			page 48


 1669 0020 BD46     		mov	sp, r7
 1670 0022 80BC     		pop	{r7}
 1671 0024 7047     		bx	lr
 1672              		.cfi_endproc
 1673              	.LFE18:
 1674              		.size	CyILO_Stop1K, .-CyILO_Stop1K
 1675 0026 00BF     		.section	.text.CyILO_Start100K,"ax",%progbits
 1676              		.align	2
 1677              		.global	CyILO_Start100K
 1678              		.thumb
 1679              		.thumb_func
 1680              		.type	CyILO_Start100K, %function
 1681              	CyILO_Start100K:
 1682              	.LFB19:
1006:.\Generated_Source\PSoC5/CyLib.c **** 
1007:.\Generated_Source\PSoC5/CyLib.c **** 
1008:.\Generated_Source\PSoC5/CyLib.c **** /*******************************************************************************
1009:.\Generated_Source\PSoC5/CyLib.c **** * Function Name: CyILO_Start100K
1010:.\Generated_Source\PSoC5/CyLib.c **** ********************************************************************************
1011:.\Generated_Source\PSoC5/CyLib.c **** *
1012:.\Generated_Source\PSoC5/CyLib.c **** * Summary:
1013:.\Generated_Source\PSoC5/CyLib.c **** *  Enables the ILO 100 KHz oscillator.
1014:.\Generated_Source\PSoC5/CyLib.c **** *
1015:.\Generated_Source\PSoC5/CyLib.c **** * Parameters:
1016:.\Generated_Source\PSoC5/CyLib.c **** *  None
1017:.\Generated_Source\PSoC5/CyLib.c **** *
1018:.\Generated_Source\PSoC5/CyLib.c **** * Return:
1019:.\Generated_Source\PSoC5/CyLib.c **** *  None
1020:.\Generated_Source\PSoC5/CyLib.c **** *
1021:.\Generated_Source\PSoC5/CyLib.c **** *******************************************************************************/
1022:.\Generated_Source\PSoC5/CyLib.c **** void CyILO_Start100K(void) 
1023:.\Generated_Source\PSoC5/CyLib.c **** {
 1683              		.loc 1 1023 0
 1684              		.cfi_startproc
 1685              		@ args = 0, pretend = 0, frame = 0
 1686              		@ frame_needed = 1, uses_anonymous_args = 0
 1687              		@ link register save eliminated.
 1688 0000 80B4     		push	{r7}
 1689              	.LCFI51:
 1690              		.cfi_def_cfa_offset 4
 1691              		.cfi_offset 7, -4
 1692 0002 00AF     		add	r7, sp, #0
 1693              	.LCFI52:
 1694              		.cfi_def_cfa_register 7
1024:.\Generated_Source\PSoC5/CyLib.c ****     CY_LIB_SLOWCLK_ILO_CR0_REG |= CY_LIB_SLOWCLK_ILO_CR0_EN_100KHZ;
 1695              		.loc 1 1024 0
 1696 0004 4FF48643 		mov	r3, #17152
 1697 0008 C4F20003 		movt	r3, 16384
 1698 000c 4FF48642 		mov	r2, #17152
 1699 0010 C4F20002 		movt	r2, 16384
 1700 0014 1278     		ldrb	r2, [r2, #0]
 1701 0016 D2B2     		uxtb	r2, r2
 1702 0018 42F00402 		orr	r2, r2, #4
 1703 001c D2B2     		uxtb	r2, r2
 1704 001e 1A70     		strb	r2, [r3, #0]
1025:.\Generated_Source\PSoC5/CyLib.c **** }
 1705              		.loc 1 1025 0
ARM GAS  C:\Users\RIEKOH~1\AppData\Local\Temp\cc0wEKzV.s 			page 49


 1706 0020 BD46     		mov	sp, r7
 1707 0022 80BC     		pop	{r7}
 1708 0024 7047     		bx	lr
 1709              		.cfi_endproc
 1710              	.LFE19:
 1711              		.size	CyILO_Start100K, .-CyILO_Start100K
 1712 0026 00BF     		.section	.text.CyILO_Stop100K,"ax",%progbits
 1713              		.align	2
 1714              		.global	CyILO_Stop100K
 1715              		.thumb
 1716              		.thumb_func
 1717              		.type	CyILO_Stop100K, %function
 1718              	CyILO_Stop100K:
 1719              	.LFB20:
1026:.\Generated_Source\PSoC5/CyLib.c **** 
1027:.\Generated_Source\PSoC5/CyLib.c **** 
1028:.\Generated_Source\PSoC5/CyLib.c **** /*******************************************************************************
1029:.\Generated_Source\PSoC5/CyLib.c **** * Function Name: CyILO_Stop100K
1030:.\Generated_Source\PSoC5/CyLib.c **** ********************************************************************************
1031:.\Generated_Source\PSoC5/CyLib.c **** *
1032:.\Generated_Source\PSoC5/CyLib.c **** * Summary:
1033:.\Generated_Source\PSoC5/CyLib.c **** *  Disables the ILO 100 KHz oscillator.
1034:.\Generated_Source\PSoC5/CyLib.c **** *
1035:.\Generated_Source\PSoC5/CyLib.c **** * Parameters:
1036:.\Generated_Source\PSoC5/CyLib.c **** *  None
1037:.\Generated_Source\PSoC5/CyLib.c **** *
1038:.\Generated_Source\PSoC5/CyLib.c **** * Return:
1039:.\Generated_Source\PSoC5/CyLib.c **** *  None
1040:.\Generated_Source\PSoC5/CyLib.c **** *
1041:.\Generated_Source\PSoC5/CyLib.c **** *******************************************************************************/
1042:.\Generated_Source\PSoC5/CyLib.c **** void CyILO_Stop100K(void) 
1043:.\Generated_Source\PSoC5/CyLib.c **** {
 1720              		.loc 1 1043 0
 1721              		.cfi_startproc
 1722              		@ args = 0, pretend = 0, frame = 0
 1723              		@ frame_needed = 1, uses_anonymous_args = 0
 1724              		@ link register save eliminated.
 1725 0000 80B4     		push	{r7}
 1726              	.LCFI53:
 1727              		.cfi_def_cfa_offset 4
 1728              		.cfi_offset 7, -4
 1729 0002 00AF     		add	r7, sp, #0
 1730              	.LCFI54:
 1731              		.cfi_def_cfa_register 7
1044:.\Generated_Source\PSoC5/CyLib.c ****     CY_LIB_SLOWCLK_ILO_CR0_REG &= ((uint8)(~CY_LIB_SLOWCLK_ILO_CR0_EN_100KHZ));
 1732              		.loc 1 1044 0
 1733 0004 4FF48643 		mov	r3, #17152
 1734 0008 C4F20003 		movt	r3, 16384
 1735 000c 4FF48642 		mov	r2, #17152
 1736 0010 C4F20002 		movt	r2, 16384
 1737 0014 1278     		ldrb	r2, [r2, #0]
 1738 0016 D2B2     		uxtb	r2, r2
 1739 0018 22F00402 		bic	r2, r2, #4
 1740 001c D2B2     		uxtb	r2, r2
 1741 001e 1A70     		strb	r2, [r3, #0]
1045:.\Generated_Source\PSoC5/CyLib.c **** }
 1742              		.loc 1 1045 0
ARM GAS  C:\Users\RIEKOH~1\AppData\Local\Temp\cc0wEKzV.s 			page 50


 1743 0020 BD46     		mov	sp, r7
 1744 0022 80BC     		pop	{r7}
 1745 0024 7047     		bx	lr
 1746              		.cfi_endproc
 1747              	.LFE20:
 1748              		.size	CyILO_Stop100K, .-CyILO_Stop100K
 1749 0026 00BF     		.section	.text.CyILO_Enable33K,"ax",%progbits
 1750              		.align	2
 1751              		.global	CyILO_Enable33K
 1752              		.thumb
 1753              		.thumb_func
 1754              		.type	CyILO_Enable33K, %function
 1755              	CyILO_Enable33K:
 1756              	.LFB21:
1046:.\Generated_Source\PSoC5/CyLib.c **** 
1047:.\Generated_Source\PSoC5/CyLib.c **** 
1048:.\Generated_Source\PSoC5/CyLib.c **** /*******************************************************************************
1049:.\Generated_Source\PSoC5/CyLib.c **** * Function Name: CyILO_Enable33K
1050:.\Generated_Source\PSoC5/CyLib.c **** ********************************************************************************
1051:.\Generated_Source\PSoC5/CyLib.c **** *
1052:.\Generated_Source\PSoC5/CyLib.c **** * Summary:
1053:.\Generated_Source\PSoC5/CyLib.c **** *  Enables the ILO 33 KHz divider.
1054:.\Generated_Source\PSoC5/CyLib.c **** *
1055:.\Generated_Source\PSoC5/CyLib.c **** *  Note that the 33 KHz clock is generated from the 100 KHz oscillator,
1056:.\Generated_Source\PSoC5/CyLib.c **** *  so it must also be running in order to generate the 33 KHz output.
1057:.\Generated_Source\PSoC5/CyLib.c **** *
1058:.\Generated_Source\PSoC5/CyLib.c **** * Parameters:
1059:.\Generated_Source\PSoC5/CyLib.c **** *  None
1060:.\Generated_Source\PSoC5/CyLib.c **** *
1061:.\Generated_Source\PSoC5/CyLib.c **** * Return:
1062:.\Generated_Source\PSoC5/CyLib.c **** *  None
1063:.\Generated_Source\PSoC5/CyLib.c **** *
1064:.\Generated_Source\PSoC5/CyLib.c **** *******************************************************************************/
1065:.\Generated_Source\PSoC5/CyLib.c **** void CyILO_Enable33K(void) 
1066:.\Generated_Source\PSoC5/CyLib.c **** {
 1757              		.loc 1 1066 0
 1758              		.cfi_startproc
 1759              		@ args = 0, pretend = 0, frame = 0
 1760              		@ frame_needed = 1, uses_anonymous_args = 0
 1761              		@ link register save eliminated.
 1762 0000 80B4     		push	{r7}
 1763              	.LCFI55:
 1764              		.cfi_def_cfa_offset 4
 1765              		.cfi_offset 7, -4
 1766 0002 00AF     		add	r7, sp, #0
 1767              	.LCFI56:
 1768              		.cfi_def_cfa_register 7
1067:.\Generated_Source\PSoC5/CyLib.c ****     /* Set the bit 5 of ILO RS */
1068:.\Generated_Source\PSoC5/CyLib.c ****     CY_LIB_SLOWCLK_ILO_CR0_REG |= CY_LIB_SLOWCLK_ILO_CR0_EN_33KHZ;
 1769              		.loc 1 1068 0
 1770 0004 4FF48643 		mov	r3, #17152
 1771 0008 C4F20003 		movt	r3, 16384
 1772 000c 4FF48642 		mov	r2, #17152
 1773 0010 C4F20002 		movt	r2, 16384
 1774 0014 1278     		ldrb	r2, [r2, #0]
 1775 0016 D2B2     		uxtb	r2, r2
 1776 0018 42F02002 		orr	r2, r2, #32
ARM GAS  C:\Users\RIEKOH~1\AppData\Local\Temp\cc0wEKzV.s 			page 51


 1777 001c D2B2     		uxtb	r2, r2
 1778 001e 1A70     		strb	r2, [r3, #0]
1069:.\Generated_Source\PSoC5/CyLib.c **** }
 1779              		.loc 1 1069 0
 1780 0020 BD46     		mov	sp, r7
 1781 0022 80BC     		pop	{r7}
 1782 0024 7047     		bx	lr
 1783              		.cfi_endproc
 1784              	.LFE21:
 1785              		.size	CyILO_Enable33K, .-CyILO_Enable33K
 1786 0026 00BF     		.section	.text.CyILO_Disable33K,"ax",%progbits
 1787              		.align	2
 1788              		.global	CyILO_Disable33K
 1789              		.thumb
 1790              		.thumb_func
 1791              		.type	CyILO_Disable33K, %function
 1792              	CyILO_Disable33K:
 1793              	.LFB22:
1070:.\Generated_Source\PSoC5/CyLib.c **** 
1071:.\Generated_Source\PSoC5/CyLib.c **** 
1072:.\Generated_Source\PSoC5/CyLib.c **** /*******************************************************************************
1073:.\Generated_Source\PSoC5/CyLib.c **** * Function Name: CyILO_Disable33K
1074:.\Generated_Source\PSoC5/CyLib.c **** ********************************************************************************
1075:.\Generated_Source\PSoC5/CyLib.c **** *
1076:.\Generated_Source\PSoC5/CyLib.c **** * Summary:
1077:.\Generated_Source\PSoC5/CyLib.c **** *  Disables the ILO 33 KHz divider.
1078:.\Generated_Source\PSoC5/CyLib.c **** *
1079:.\Generated_Source\PSoC5/CyLib.c **** *  Note that the 33 KHz clock is generated from the 100 KHz oscillator, but this
1080:.\Generated_Source\PSoC5/CyLib.c **** *  API does not disable the 100 KHz clock.
1081:.\Generated_Source\PSoC5/CyLib.c **** *
1082:.\Generated_Source\PSoC5/CyLib.c **** * Parameters:
1083:.\Generated_Source\PSoC5/CyLib.c **** *  None
1084:.\Generated_Source\PSoC5/CyLib.c **** *
1085:.\Generated_Source\PSoC5/CyLib.c **** * Return:
1086:.\Generated_Source\PSoC5/CyLib.c **** *  None
1087:.\Generated_Source\PSoC5/CyLib.c **** *
1088:.\Generated_Source\PSoC5/CyLib.c **** *******************************************************************************/
1089:.\Generated_Source\PSoC5/CyLib.c **** void CyILO_Disable33K(void) 
1090:.\Generated_Source\PSoC5/CyLib.c **** {
 1794              		.loc 1 1090 0
 1795              		.cfi_startproc
 1796              		@ args = 0, pretend = 0, frame = 0
 1797              		@ frame_needed = 1, uses_anonymous_args = 0
 1798              		@ link register save eliminated.
 1799 0000 80B4     		push	{r7}
 1800              	.LCFI57:
 1801              		.cfi_def_cfa_offset 4
 1802              		.cfi_offset 7, -4
 1803 0002 00AF     		add	r7, sp, #0
 1804              	.LCFI58:
 1805              		.cfi_def_cfa_register 7
1091:.\Generated_Source\PSoC5/CyLib.c ****     CY_LIB_SLOWCLK_ILO_CR0_REG &= ((uint8)(~CY_LIB_SLOWCLK_ILO_CR0_EN_33KHZ));
 1806              		.loc 1 1091 0
 1807 0004 4FF48643 		mov	r3, #17152
 1808 0008 C4F20003 		movt	r3, 16384
 1809 000c 4FF48642 		mov	r2, #17152
 1810 0010 C4F20002 		movt	r2, 16384
ARM GAS  C:\Users\RIEKOH~1\AppData\Local\Temp\cc0wEKzV.s 			page 52


 1811 0014 1278     		ldrb	r2, [r2, #0]
 1812 0016 D2B2     		uxtb	r2, r2
 1813 0018 22F02002 		bic	r2, r2, #32
 1814 001c D2B2     		uxtb	r2, r2
 1815 001e 1A70     		strb	r2, [r3, #0]
1092:.\Generated_Source\PSoC5/CyLib.c **** }
 1816              		.loc 1 1092 0
 1817 0020 BD46     		mov	sp, r7
 1818 0022 80BC     		pop	{r7}
 1819 0024 7047     		bx	lr
 1820              		.cfi_endproc
 1821              	.LFE22:
 1822              		.size	CyILO_Disable33K, .-CyILO_Disable33K
 1823 0026 00BF     		.section	.text.CyILO_SetSource,"ax",%progbits
 1824              		.align	2
 1825              		.global	CyILO_SetSource
 1826              		.thumb
 1827              		.thumb_func
 1828              		.type	CyILO_SetSource, %function
 1829              	CyILO_SetSource:
 1830              	.LFB23:
1093:.\Generated_Source\PSoC5/CyLib.c **** 
1094:.\Generated_Source\PSoC5/CyLib.c **** 
1095:.\Generated_Source\PSoC5/CyLib.c **** /*******************************************************************************
1096:.\Generated_Source\PSoC5/CyLib.c **** * Function Name: CyILO_SetSource
1097:.\Generated_Source\PSoC5/CyLib.c **** ********************************************************************************
1098:.\Generated_Source\PSoC5/CyLib.c **** *
1099:.\Generated_Source\PSoC5/CyLib.c **** * Summary:
1100:.\Generated_Source\PSoC5/CyLib.c **** *  Sets the source of the clock output from the ILO block.
1101:.\Generated_Source\PSoC5/CyLib.c **** *
1102:.\Generated_Source\PSoC5/CyLib.c **** * Parameters:
1103:.\Generated_Source\PSoC5/CyLib.c **** *  source: One of the three available ILO output sources
1104:.\Generated_Source\PSoC5/CyLib.c **** *       Value        Define                Source
1105:.\Generated_Source\PSoC5/CyLib.c **** *       0            CY_ILO_SOURCE_100K    ILO 100 KHz
1106:.\Generated_Source\PSoC5/CyLib.c **** *       1            CY_ILO_SOURCE_33K     ILO 33 KHz
1107:.\Generated_Source\PSoC5/CyLib.c **** *       2            CY_ILO_SOURCE_1K      ILO 1 KHz
1108:.\Generated_Source\PSoC5/CyLib.c **** *
1109:.\Generated_Source\PSoC5/CyLib.c **** * Return:
1110:.\Generated_Source\PSoC5/CyLib.c **** *  None
1111:.\Generated_Source\PSoC5/CyLib.c **** *
1112:.\Generated_Source\PSoC5/CyLib.c **** *******************************************************************************/
1113:.\Generated_Source\PSoC5/CyLib.c **** void CyILO_SetSource(uint8 source) 
1114:.\Generated_Source\PSoC5/CyLib.c **** {
 1831              		.loc 1 1114 0
 1832              		.cfi_startproc
 1833              		@ args = 0, pretend = 0, frame = 8
 1834              		@ frame_needed = 1, uses_anonymous_args = 0
 1835              		@ link register save eliminated.
 1836 0000 80B4     		push	{r7}
 1837              	.LCFI59:
 1838              		.cfi_def_cfa_offset 4
 1839              		.cfi_offset 7, -4
 1840 0002 83B0     		sub	sp, sp, #12
 1841              	.LCFI60:
 1842              		.cfi_def_cfa_offset 16
 1843 0004 00AF     		add	r7, sp, #0
 1844              	.LCFI61:
ARM GAS  C:\Users\RIEKOH~1\AppData\Local\Temp\cc0wEKzV.s 			page 53


 1845              		.cfi_def_cfa_register 7
 1846 0006 0346     		mov	r3, r0
 1847 0008 FB71     		strb	r3, [r7, #7]
1115:.\Generated_Source\PSoC5/CyLib.c ****     CY_LIB_CLKDIST_CR_REG = (CY_LIB_CLKDIST_CR_REG & CY_ILO_SOURCE_BITS_CLEAR) |
 1848              		.loc 1 1115 0
 1849 000a 4FF04023 		mov	r3, #1073758208
 1850 000e 4FF04022 		mov	r2, #1073758208
 1851 0012 1278     		ldrb	r2, [r2, #0]
 1852 0014 D2B2     		uxtb	r2, r2
 1853 0016 22F00C02 		bic	r2, r2, #12
 1854 001a D1B2     		uxtb	r1, r2
1116:.\Generated_Source\PSoC5/CyLib.c ****                     (((uint8) (source << 2u)) & ((uint8)(~CY_ILO_SOURCE_BITS_CLEAR)));
 1855              		.loc 1 1116 0
 1856 001c FA79     		ldrb	r2, [r7, #7]
 1857 001e 4FEA8202 		lsl	r2, r2, #2
 1858 0022 D2B2     		uxtb	r2, r2
1115:.\Generated_Source\PSoC5/CyLib.c ****     CY_LIB_CLKDIST_CR_REG = (CY_LIB_CLKDIST_CR_REG & CY_ILO_SOURCE_BITS_CLEAR) |
 1859              		.loc 1 1115 0
 1860 0024 02F00C02 		and	r2, r2, #12
 1861 0028 D2B2     		uxtb	r2, r2
 1862 002a 0A43     		orrs	r2, r2, r1
 1863 002c D2B2     		uxtb	r2, r2
 1864 002e 1A70     		strb	r2, [r3, #0]
1117:.\Generated_Source\PSoC5/CyLib.c **** }
 1865              		.loc 1 1117 0
 1866 0030 07F10C07 		add	r7, r7, #12
 1867 0034 BD46     		mov	sp, r7
 1868 0036 80BC     		pop	{r7}
 1869 0038 7047     		bx	lr
 1870              		.cfi_endproc
 1871              	.LFE23:
 1872              		.size	CyILO_SetSource, .-CyILO_SetSource
 1873 003a 00BF     		.section	.text.CyILO_SetPowerMode,"ax",%progbits
 1874              		.align	2
 1875              		.global	CyILO_SetPowerMode
 1876              		.thumb
 1877              		.thumb_func
 1878              		.type	CyILO_SetPowerMode, %function
 1879              	CyILO_SetPowerMode:
 1880              	.LFB24:
1118:.\Generated_Source\PSoC5/CyLib.c **** 
1119:.\Generated_Source\PSoC5/CyLib.c **** 
1120:.\Generated_Source\PSoC5/CyLib.c **** /*******************************************************************************
1121:.\Generated_Source\PSoC5/CyLib.c **** * Function Name: CyILO_SetPowerMode
1122:.\Generated_Source\PSoC5/CyLib.c **** ********************************************************************************
1123:.\Generated_Source\PSoC5/CyLib.c **** *
1124:.\Generated_Source\PSoC5/CyLib.c **** * Summary:
1125:.\Generated_Source\PSoC5/CyLib.c **** *  Sets the power mode used by the ILO during power down. Allows for lower power
1126:.\Generated_Source\PSoC5/CyLib.c **** *  down power usage resulting in a slower startup time.
1127:.\Generated_Source\PSoC5/CyLib.c **** *
1128:.\Generated_Source\PSoC5/CyLib.c **** * Parameters:
1129:.\Generated_Source\PSoC5/CyLib.c **** *  uint8 mode
1130:.\Generated_Source\PSoC5/CyLib.c **** *   CY_ILO_FAST_START - Faster start-up, internal bias left on when powered down
1131:.\Generated_Source\PSoC5/CyLib.c **** *   CY_ILO_SLOW_START - Slower start-up, internal bias off when powered down
1132:.\Generated_Source\PSoC5/CyLib.c **** *
1133:.\Generated_Source\PSoC5/CyLib.c **** * Return:
1134:.\Generated_Source\PSoC5/CyLib.c **** *   Prevous power mode state.
ARM GAS  C:\Users\RIEKOH~1\AppData\Local\Temp\cc0wEKzV.s 			page 54


1135:.\Generated_Source\PSoC5/CyLib.c **** *
1136:.\Generated_Source\PSoC5/CyLib.c **** *******************************************************************************/
1137:.\Generated_Source\PSoC5/CyLib.c **** uint8 CyILO_SetPowerMode(uint8 mode) 
1138:.\Generated_Source\PSoC5/CyLib.c **** {
 1881              		.loc 1 1138 0
 1882              		.cfi_startproc
 1883              		@ args = 0, pretend = 0, frame = 16
 1884              		@ frame_needed = 1, uses_anonymous_args = 0
 1885              		@ link register save eliminated.
 1886 0000 80B4     		push	{r7}
 1887              	.LCFI62:
 1888              		.cfi_def_cfa_offset 4
 1889              		.cfi_offset 7, -4
 1890 0002 85B0     		sub	sp, sp, #20
 1891              	.LCFI63:
 1892              		.cfi_def_cfa_offset 24
 1893 0004 00AF     		add	r7, sp, #0
 1894              	.LCFI64:
 1895              		.cfi_def_cfa_register 7
 1896 0006 0346     		mov	r3, r0
 1897 0008 FB71     		strb	r3, [r7, #7]
1139:.\Generated_Source\PSoC5/CyLib.c ****     uint8 state;
1140:.\Generated_Source\PSoC5/CyLib.c **** 
1141:.\Generated_Source\PSoC5/CyLib.c ****     /* Get current state. */
1142:.\Generated_Source\PSoC5/CyLib.c ****     state = CY_LIB_SLOWCLK_ILO_CR0_REG;
 1898              		.loc 1 1142 0
 1899 000a 4FF48643 		mov	r3, #17152
 1900 000e C4F20003 		movt	r3, 16384
 1901 0012 1B78     		ldrb	r3, [r3, #0]
 1902 0014 FB73     		strb	r3, [r7, #15]
1143:.\Generated_Source\PSoC5/CyLib.c **** 
1144:.\Generated_Source\PSoC5/CyLib.c ****     /* Set the the oscillator power mode. */
1145:.\Generated_Source\PSoC5/CyLib.c ****     if(mode != CY_ILO_FAST_START)
 1903              		.loc 1 1145 0
 1904 0016 FB79     		ldrb	r3, [r7, #7]	@ zero_extendqisi2
 1905 0018 002B     		cmp	r3, #0
 1906 001a 09D0     		beq	.L99
1146:.\Generated_Source\PSoC5/CyLib.c ****     {
1147:.\Generated_Source\PSoC5/CyLib.c ****         CY_LIB_SLOWCLK_ILO_CR0_REG = (state | CY_ILO_CONTROL_PD_MODE);
 1907              		.loc 1 1147 0
 1908 001c 4FF48643 		mov	r3, #17152
 1909 0020 C4F20003 		movt	r3, 16384
 1910 0024 FA7B     		ldrb	r2, [r7, #15]
 1911 0026 42F01002 		orr	r2, r2, #16
 1912 002a D2B2     		uxtb	r2, r2
 1913 002c 1A70     		strb	r2, [r3, #0]
 1914 002e 08E0     		b	.L100
 1915              	.L99:
1148:.\Generated_Source\PSoC5/CyLib.c ****     }
1149:.\Generated_Source\PSoC5/CyLib.c ****     else
1150:.\Generated_Source\PSoC5/CyLib.c ****     {
1151:.\Generated_Source\PSoC5/CyLib.c ****         CY_LIB_SLOWCLK_ILO_CR0_REG = (state & ((uint8)(~CY_ILO_CONTROL_PD_MODE)));
 1916              		.loc 1 1151 0
 1917 0030 4FF48643 		mov	r3, #17152
 1918 0034 C4F20003 		movt	r3, 16384
 1919 0038 FA7B     		ldrb	r2, [r7, #15]
 1920 003a 22F01002 		bic	r2, r2, #16
ARM GAS  C:\Users\RIEKOH~1\AppData\Local\Temp\cc0wEKzV.s 			page 55


 1921 003e D2B2     		uxtb	r2, r2
 1922 0040 1A70     		strb	r2, [r3, #0]
 1923              	.L100:
1152:.\Generated_Source\PSoC5/CyLib.c ****     }
1153:.\Generated_Source\PSoC5/CyLib.c **** 
1154:.\Generated_Source\PSoC5/CyLib.c ****     /* Return the old mode. */
1155:.\Generated_Source\PSoC5/CyLib.c ****     return ((state & CY_ILO_CONTROL_PD_MODE) >> CY_ILO_CONTROL_PD_POSITION);
 1924              		.loc 1 1155 0
 1925 0042 FB7B     		ldrb	r3, [r7, #15]	@ zero_extendqisi2
 1926 0044 03F01003 		and	r3, r3, #16
 1927 0048 4FEA1313 		lsr	r3, r3, #4
 1928 004c DBB2     		uxtb	r3, r3
1156:.\Generated_Source\PSoC5/CyLib.c **** }
 1929              		.loc 1 1156 0
 1930 004e 1846     		mov	r0, r3
 1931 0050 07F11407 		add	r7, r7, #20
 1932 0054 BD46     		mov	sp, r7
 1933 0056 80BC     		pop	{r7}
 1934 0058 7047     		bx	lr
 1935              		.cfi_endproc
 1936              	.LFE24:
 1937              		.size	CyILO_SetPowerMode, .-CyILO_SetPowerMode
 1938 005a 00BF     		.section	.text.CyXTAL_32KHZ_Start,"ax",%progbits
 1939              		.align	2
 1940              		.global	CyXTAL_32KHZ_Start
 1941              		.thumb
 1942              		.thumb_func
 1943              		.type	CyXTAL_32KHZ_Start, %function
 1944              	CyXTAL_32KHZ_Start:
 1945              	.LFB25:
1157:.\Generated_Source\PSoC5/CyLib.c **** 
1158:.\Generated_Source\PSoC5/CyLib.c **** 
1159:.\Generated_Source\PSoC5/CyLib.c **** /*******************************************************************************
1160:.\Generated_Source\PSoC5/CyLib.c **** * Function Name: CyXTAL_32KHZ_Start
1161:.\Generated_Source\PSoC5/CyLib.c **** ********************************************************************************
1162:.\Generated_Source\PSoC5/CyLib.c **** *
1163:.\Generated_Source\PSoC5/CyLib.c **** * Summary:
1164:.\Generated_Source\PSoC5/CyLib.c **** *  Enables the 32 KHz Crystal Oscillator.
1165:.\Generated_Source\PSoC5/CyLib.c **** *
1166:.\Generated_Source\PSoC5/CyLib.c **** * Parameters:
1167:.\Generated_Source\PSoC5/CyLib.c **** *  None
1168:.\Generated_Source\PSoC5/CyLib.c **** *
1169:.\Generated_Source\PSoC5/CyLib.c **** * Return:
1170:.\Generated_Source\PSoC5/CyLib.c **** *  None
1171:.\Generated_Source\PSoC5/CyLib.c **** *
1172:.\Generated_Source\PSoC5/CyLib.c **** *******************************************************************************/
1173:.\Generated_Source\PSoC5/CyLib.c **** void CyXTAL_32KHZ_Start(void) 
1174:.\Generated_Source\PSoC5/CyLib.c **** {
 1946              		.loc 1 1174 0
 1947              		.cfi_startproc
 1948              		@ args = 0, pretend = 0, frame = 8
 1949              		@ frame_needed = 1, uses_anonymous_args = 0
 1950 0000 80B5     		push	{r7, lr}
 1951              	.LCFI65:
 1952              		.cfi_def_cfa_offset 8
 1953              		.cfi_offset 7, -8
 1954              		.cfi_offset 14, -4
ARM GAS  C:\Users\RIEKOH~1\AppData\Local\Temp\cc0wEKzV.s 			page 56


 1955 0002 82B0     		sub	sp, sp, #8
 1956              	.LCFI66:
 1957              		.cfi_def_cfa_offset 16
 1958 0004 00AF     		add	r7, sp, #0
 1959              	.LCFI67:
 1960              		.cfi_def_cfa_register 7
1175:.\Generated_Source\PSoC5/CyLib.c ****     volatile uint16 i;
1176:.\Generated_Source\PSoC5/CyLib.c **** 
1177:.\Generated_Source\PSoC5/CyLib.c ****     CY_CLK_XTAL32_TST_REG = CY_CLK_XTAL32_TST_DEFAULT;
 1961              		.loc 1 1177 0
 1962 0006 44F20A33 		movw	r3, #17162
 1963 000a C4F20003 		movt	r3, 16384
 1964 000e 4FF0F302 		mov	r2, #243
 1965 0012 1A70     		strb	r2, [r3, #0]
1178:.\Generated_Source\PSoC5/CyLib.c ****     CY_CLK_XTAL32_TR_REG  = CY_CLK_XTAL32_TR_STARTUP;
 1966              		.loc 1 1178 0
 1967 0014 44F29863 		movw	r3, #18072
 1968 0018 C4F20003 		movt	r3, 16384
 1969 001c 4FF00302 		mov	r2, #3
 1970 0020 1A70     		strb	r2, [r3, #0]
1179:.\Generated_Source\PSoC5/CyLib.c ****     CY_CLK_XTAL32_CFG_REG = (CY_CLK_XTAL32_CFG_REG & ((uint8)(~CY_CLK_XTAL32_CFG_LP_MASK))) |
 1971              		.loc 1 1179 0
 1972 0022 44F20933 		movw	r3, #17161
 1973 0026 C4F20003 		movt	r3, 16384
 1974 002a 44F20932 		movw	r2, #17161
 1975 002e C4F20002 		movt	r2, 16384
 1976 0032 1278     		ldrb	r2, [r2, #0]
 1977 0034 D2B2     		uxtb	r2, r2
 1978 0036 22F00C02 		bic	r2, r2, #12
 1979 003a D2B2     		uxtb	r2, r2
 1980 003c 42F00402 		orr	r2, r2, #4
 1981 0040 D2B2     		uxtb	r2, r2
 1982 0042 1A70     		strb	r2, [r3, #0]
1180:.\Generated_Source\PSoC5/CyLib.c ****                                 CY_CLK_XTAL32_CFG_LP_DEFAULT;
1181:.\Generated_Source\PSoC5/CyLib.c **** 
1182:.\Generated_Source\PSoC5/CyLib.c ****     #if(CY_PSOC3)
1183:.\Generated_Source\PSoC5/CyLib.c ****         CY_CLK_XTAL32_CR_REG |= CY_CLK_XTAL32_CR_PDBEN;
1184:.\Generated_Source\PSoC5/CyLib.c ****     #endif  /* (CY_PSOC3) */
1185:.\Generated_Source\PSoC5/CyLib.c **** 
1186:.\Generated_Source\PSoC5/CyLib.c ****     /* Enable operation of the 32K Crystal Oscillator */
1187:.\Generated_Source\PSoC5/CyLib.c ****     CY_CLK_XTAL32_CR_REG |= CY_CLK_XTAL32_CR_EN;
 1983              		.loc 1 1187 0
 1984 0044 44F20833 		movw	r3, #17160
 1985 0048 C4F20003 		movt	r3, 16384
 1986 004c 44F20832 		movw	r2, #17160
 1987 0050 C4F20002 		movt	r2, 16384
 1988 0054 1278     		ldrb	r2, [r2, #0]
 1989 0056 D2B2     		uxtb	r2, r2
 1990 0058 42F00102 		orr	r2, r2, #1
 1991 005c D2B2     		uxtb	r2, r2
 1992 005e 1A70     		strb	r2, [r3, #0]
1188:.\Generated_Source\PSoC5/CyLib.c **** 
1189:.\Generated_Source\PSoC5/CyLib.c ****     for (i = 1000u; i > 0u; i--)
 1993              		.loc 1 1189 0
 1994 0060 4FF47A73 		mov	r3, #1000
 1995 0064 FB80     		strh	r3, [r7, #6]	@ movhi
 1996 0066 15E0     		b	.L103
ARM GAS  C:\Users\RIEKOH~1\AppData\Local\Temp\cc0wEKzV.s 			page 57


 1997              	.L106:
1190:.\Generated_Source\PSoC5/CyLib.c ****     {
1191:.\Generated_Source\PSoC5/CyLib.c ****         if(0u != (CyXTAL_32KHZ_ReadStatus() & CY_XTAL32K_ANA_STAT))
 1998              		.loc 1 1191 0
 1999 0068 FFF7FEFF 		bl	CyXTAL_32KHZ_ReadStatus
 2000 006c 0346     		mov	r3, r0
 2001 006e 03F02003 		and	r3, r3, #32
 2002 0072 002B     		cmp	r3, #0
 2003 0074 04D0     		beq	.L104
1192:.\Generated_Source\PSoC5/CyLib.c ****         {
1193:.\Generated_Source\PSoC5/CyLib.c ****             /* Ready - switch to the hign power mode */
1194:.\Generated_Source\PSoC5/CyLib.c ****             (void) CyXTAL_32KHZ_SetPowerMode(0u);
 2004              		.loc 1 1194 0
 2005 0076 4FF00000 		mov	r0, #0
 2006 007a FFF7FEFF 		bl	CyXTAL_32KHZ_SetPowerMode
1195:.\Generated_Source\PSoC5/CyLib.c **** 
1196:.\Generated_Source\PSoC5/CyLib.c ****             break;
 2007              		.loc 1 1196 0
 2008 007e 0DE0     		b	.L102
 2009              	.L104:
1197:.\Generated_Source\PSoC5/CyLib.c ****         }
1198:.\Generated_Source\PSoC5/CyLib.c ****         CyDelayUs(1u);
 2010              		.loc 1 1198 0
 2011 0080 4FF00100 		mov	r0, #1
 2012 0084 FFF7FEFF 		bl	CyDelayUs
1189:.\Generated_Source\PSoC5/CyLib.c ****     for (i = 1000u; i > 0u; i--)
 2013              		.loc 1 1189 0
 2014 0088 FB88     		ldrh	r3, [r7, #6]	@ movhi
 2015 008a 9BB2     		uxth	r3, r3
 2016 008c 03F1FF33 		add	r3, r3, #-1
 2017 0090 9BB2     		uxth	r3, r3
 2018 0092 FB80     		strh	r3, [r7, #6]	@ movhi
 2019              	.L103:
1189:.\Generated_Source\PSoC5/CyLib.c ****     for (i = 1000u; i > 0u; i--)
 2020              		.loc 1 1189 0 is_stmt 0 discriminator 1
 2021 0094 FB88     		ldrh	r3, [r7, #6]	@ movhi
 2022 0096 9BB2     		uxth	r3, r3
 2023 0098 002B     		cmp	r3, #0
 2024 009a E5D1     		bne	.L106
 2025              	.L102:
1199:.\Generated_Source\PSoC5/CyLib.c ****     }
1200:.\Generated_Source\PSoC5/CyLib.c **** }
 2026              		.loc 1 1200 0 is_stmt 1
 2027 009c 07F10807 		add	r7, r7, #8
 2028 00a0 BD46     		mov	sp, r7
 2029 00a2 80BD     		pop	{r7, pc}
 2030              		.cfi_endproc
 2031              	.LFE25:
 2032              		.size	CyXTAL_32KHZ_Start, .-CyXTAL_32KHZ_Start
 2033              		.section	.text.CyXTAL_32KHZ_Stop,"ax",%progbits
 2034              		.align	2
 2035              		.global	CyXTAL_32KHZ_Stop
 2036              		.thumb
 2037              		.thumb_func
 2038              		.type	CyXTAL_32KHZ_Stop, %function
 2039              	CyXTAL_32KHZ_Stop:
 2040              	.LFB26:
ARM GAS  C:\Users\RIEKOH~1\AppData\Local\Temp\cc0wEKzV.s 			page 58


1201:.\Generated_Source\PSoC5/CyLib.c **** 
1202:.\Generated_Source\PSoC5/CyLib.c **** 
1203:.\Generated_Source\PSoC5/CyLib.c **** /*******************************************************************************
1204:.\Generated_Source\PSoC5/CyLib.c **** * Function Name: CyXTAL_32KHZ_Stop
1205:.\Generated_Source\PSoC5/CyLib.c **** ********************************************************************************
1206:.\Generated_Source\PSoC5/CyLib.c **** *
1207:.\Generated_Source\PSoC5/CyLib.c **** * Summary:
1208:.\Generated_Source\PSoC5/CyLib.c **** *  Disables the 32KHz Crystal Oscillator.
1209:.\Generated_Source\PSoC5/CyLib.c **** *
1210:.\Generated_Source\PSoC5/CyLib.c **** * Parameters:
1211:.\Generated_Source\PSoC5/CyLib.c **** *  None
1212:.\Generated_Source\PSoC5/CyLib.c **** *
1213:.\Generated_Source\PSoC5/CyLib.c **** * Return:
1214:.\Generated_Source\PSoC5/CyLib.c **** *  None
1215:.\Generated_Source\PSoC5/CyLib.c **** *
1216:.\Generated_Source\PSoC5/CyLib.c **** *******************************************************************************/
1217:.\Generated_Source\PSoC5/CyLib.c **** void CyXTAL_32KHZ_Stop(void) 
1218:.\Generated_Source\PSoC5/CyLib.c **** {
 2041              		.loc 1 1218 0
 2042              		.cfi_startproc
 2043              		@ args = 0, pretend = 0, frame = 0
 2044              		@ frame_needed = 1, uses_anonymous_args = 0
 2045              		@ link register save eliminated.
 2046 0000 80B4     		push	{r7}
 2047              	.LCFI68:
 2048              		.cfi_def_cfa_offset 4
 2049              		.cfi_offset 7, -4
 2050 0002 00AF     		add	r7, sp, #0
 2051              	.LCFI69:
 2052              		.cfi_def_cfa_register 7
1219:.\Generated_Source\PSoC5/CyLib.c ****     CY_CLK_XTAL32_TST_REG  = CY_CLK_XTAL32_TST_DEFAULT;
 2053              		.loc 1 1219 0
 2054 0004 44F20A33 		movw	r3, #17162
 2055 0008 C4F20003 		movt	r3, 16384
 2056 000c 4FF0F302 		mov	r2, #243
 2057 0010 1A70     		strb	r2, [r3, #0]
1220:.\Generated_Source\PSoC5/CyLib.c ****     CY_CLK_XTAL32_TR_REG   = CY_CLK_XTAL32_TR_POWERDOWN;
 2058              		.loc 1 1220 0
 2059 0012 44F29863 		movw	r3, #18072
 2060 0016 C4F20003 		movt	r3, 16384
 2061 001a 4FF00002 		mov	r2, #0
 2062 001e 1A70     		strb	r2, [r3, #0]
1221:.\Generated_Source\PSoC5/CyLib.c ****     CY_CLK_XTAL32_CFG_REG = (CY_CLK_XTAL32_CFG_REG & ((uint8)(~CY_CLK_XTAL32_CFG_LP_MASK))) |
 2063              		.loc 1 1221 0
 2064 0020 44F20933 		movw	r3, #17161
 2065 0024 C4F20003 		movt	r3, 16384
 2066 0028 44F20932 		movw	r2, #17161
 2067 002c C4F20002 		movt	r2, 16384
 2068 0030 1278     		ldrb	r2, [r2, #0]
 2069 0032 D2B2     		uxtb	r2, r2
 2070 0034 22F00C02 		bic	r2, r2, #12
 2071 0038 D2B2     		uxtb	r2, r2
 2072 003a 42F00402 		orr	r2, r2, #4
 2073 003e D2B2     		uxtb	r2, r2
 2074 0040 1A70     		strb	r2, [r3, #0]
1222:.\Generated_Source\PSoC5/CyLib.c ****                              CY_CLK_XTAL32_CFG_LP_DEFAULT;
1223:.\Generated_Source\PSoC5/CyLib.c ****     CY_CLK_XTAL32_CR_REG &= ((uint8)(~(CY_CLK_XTAL32_CR_EN | CY_CLK_XTAL32_CR_LPM)));
ARM GAS  C:\Users\RIEKOH~1\AppData\Local\Temp\cc0wEKzV.s 			page 59


 2075              		.loc 1 1223 0
 2076 0042 44F20833 		movw	r3, #17160
 2077 0046 C4F20003 		movt	r3, 16384
 2078 004a 44F20832 		movw	r2, #17160
 2079 004e C4F20002 		movt	r2, 16384
 2080 0052 1278     		ldrb	r2, [r2, #0]
 2081 0054 D2B2     		uxtb	r2, r2
 2082 0056 22F00302 		bic	r2, r2, #3
 2083 005a D2B2     		uxtb	r2, r2
 2084 005c 1A70     		strb	r2, [r3, #0]
1224:.\Generated_Source\PSoC5/CyLib.c **** 
1225:.\Generated_Source\PSoC5/CyLib.c ****     #if(CY_PSOC3)
1226:.\Generated_Source\PSoC5/CyLib.c ****         CY_CLK_XTAL32_CR_REG &= ((uint8)(~CY_CLK_XTAL32_CR_PDBEN));
1227:.\Generated_Source\PSoC5/CyLib.c ****     #endif  /* (CY_PSOC3) */
1228:.\Generated_Source\PSoC5/CyLib.c **** }
 2085              		.loc 1 1228 0
 2086 005e BD46     		mov	sp, r7
 2087 0060 80BC     		pop	{r7}
 2088 0062 7047     		bx	lr
 2089              		.cfi_endproc
 2090              	.LFE26:
 2091              		.size	CyXTAL_32KHZ_Stop, .-CyXTAL_32KHZ_Stop
 2092              		.section	.text.CyXTAL_32KHZ_ReadStatus,"ax",%progbits
 2093              		.align	2
 2094              		.global	CyXTAL_32KHZ_ReadStatus
 2095              		.thumb
 2096              		.thumb_func
 2097              		.type	CyXTAL_32KHZ_ReadStatus, %function
 2098              	CyXTAL_32KHZ_ReadStatus:
 2099              	.LFB27:
1229:.\Generated_Source\PSoC5/CyLib.c **** 
1230:.\Generated_Source\PSoC5/CyLib.c **** 
1231:.\Generated_Source\PSoC5/CyLib.c **** /*******************************************************************************
1232:.\Generated_Source\PSoC5/CyLib.c **** * Function Name: CyXTAL_32KHZ_ReadStatus
1233:.\Generated_Source\PSoC5/CyLib.c **** ********************************************************************************
1234:.\Generated_Source\PSoC5/CyLib.c **** *
1235:.\Generated_Source\PSoC5/CyLib.c **** * Summary:
1236:.\Generated_Source\PSoC5/CyLib.c **** *  Returns status of the 32 KHz oscillator.
1237:.\Generated_Source\PSoC5/CyLib.c **** *
1238:.\Generated_Source\PSoC5/CyLib.c **** * Parameters:
1239:.\Generated_Source\PSoC5/CyLib.c **** *  None
1240:.\Generated_Source\PSoC5/CyLib.c **** *
1241:.\Generated_Source\PSoC5/CyLib.c **** * Return:
1242:.\Generated_Source\PSoC5/CyLib.c **** *  Value     Define                    Source
1243:.\Generated_Source\PSoC5/CyLib.c **** *  20        CY_XTAL32K_ANA_STAT       Analog measurement
1244:.\Generated_Source\PSoC5/CyLib.c **** *                                       1: Stable
1245:.\Generated_Source\PSoC5/CyLib.c **** *                                       0: Not stable
1246:.\Generated_Source\PSoC5/CyLib.c **** *
1247:.\Generated_Source\PSoC5/CyLib.c **** *******************************************************************************/
1248:.\Generated_Source\PSoC5/CyLib.c **** uint8 CyXTAL_32KHZ_ReadStatus(void) 
1249:.\Generated_Source\PSoC5/CyLib.c **** {
 2100              		.loc 1 1249 0
 2101              		.cfi_startproc
 2102              		@ args = 0, pretend = 0, frame = 0
 2103              		@ frame_needed = 1, uses_anonymous_args = 0
 2104              		@ link register save eliminated.
 2105 0000 80B4     		push	{r7}
ARM GAS  C:\Users\RIEKOH~1\AppData\Local\Temp\cc0wEKzV.s 			page 60


 2106              	.LCFI70:
 2107              		.cfi_def_cfa_offset 4
 2108              		.cfi_offset 7, -4
 2109 0002 00AF     		add	r7, sp, #0
 2110              	.LCFI71:
 2111              		.cfi_def_cfa_register 7
1250:.\Generated_Source\PSoC5/CyLib.c ****     return(CY_CLK_XTAL32_CR_REG & CY_XTAL32K_ANA_STAT);
 2112              		.loc 1 1250 0
 2113 0004 44F20833 		movw	r3, #17160
 2114 0008 C4F20003 		movt	r3, 16384
 2115 000c 1B78     		ldrb	r3, [r3, #0]
 2116 000e DBB2     		uxtb	r3, r3
 2117 0010 03F02003 		and	r3, r3, #32
 2118 0014 DBB2     		uxtb	r3, r3
1251:.\Generated_Source\PSoC5/CyLib.c **** }
 2119              		.loc 1 1251 0
 2120 0016 1846     		mov	r0, r3
 2121 0018 BD46     		mov	sp, r7
 2122 001a 80BC     		pop	{r7}
 2123 001c 7047     		bx	lr
 2124              		.cfi_endproc
 2125              	.LFE27:
 2126              		.size	CyXTAL_32KHZ_ReadStatus, .-CyXTAL_32KHZ_ReadStatus
 2127 001e 00BF     		.section	.text.CyXTAL_32KHZ_SetPowerMode,"ax",%progbits
 2128              		.align	2
 2129              		.global	CyXTAL_32KHZ_SetPowerMode
 2130              		.thumb
 2131              		.thumb_func
 2132              		.type	CyXTAL_32KHZ_SetPowerMode, %function
 2133              	CyXTAL_32KHZ_SetPowerMode:
 2134              	.LFB28:
1252:.\Generated_Source\PSoC5/CyLib.c **** 
1253:.\Generated_Source\PSoC5/CyLib.c **** 
1254:.\Generated_Source\PSoC5/CyLib.c **** /*******************************************************************************
1255:.\Generated_Source\PSoC5/CyLib.c **** * Function Name: CyXTAL_32KHZ_SetPowerMode
1256:.\Generated_Source\PSoC5/CyLib.c **** ********************************************************************************
1257:.\Generated_Source\PSoC5/CyLib.c **** *
1258:.\Generated_Source\PSoC5/CyLib.c **** * Summary:
1259:.\Generated_Source\PSoC5/CyLib.c **** *  Sets the power mode for the 32 KHz oscillator used during sleep mode.
1260:.\Generated_Source\PSoC5/CyLib.c **** *  Allows for lower power during sleep when there are fewer sources of noise.
1261:.\Generated_Source\PSoC5/CyLib.c **** *  During active mode the oscillator is always run in high power mode.
1262:.\Generated_Source\PSoC5/CyLib.c **** *
1263:.\Generated_Source\PSoC5/CyLib.c **** * Parameters:
1264:.\Generated_Source\PSoC5/CyLib.c **** *  uint8 mode
1265:.\Generated_Source\PSoC5/CyLib.c **** *       0: High power mode
1266:.\Generated_Source\PSoC5/CyLib.c **** *       1: Low power mode during sleep
1267:.\Generated_Source\PSoC5/CyLib.c **** *
1268:.\Generated_Source\PSoC5/CyLib.c **** * Return:
1269:.\Generated_Source\PSoC5/CyLib.c **** *  Previous power mode.
1270:.\Generated_Source\PSoC5/CyLib.c **** *
1271:.\Generated_Source\PSoC5/CyLib.c **** *******************************************************************************/
1272:.\Generated_Source\PSoC5/CyLib.c **** uint8 CyXTAL_32KHZ_SetPowerMode(uint8 mode) 
1273:.\Generated_Source\PSoC5/CyLib.c **** {
 2135              		.loc 1 1273 0
 2136              		.cfi_startproc
 2137              		@ args = 0, pretend = 0, frame = 16
 2138              		@ frame_needed = 1, uses_anonymous_args = 0
ARM GAS  C:\Users\RIEKOH~1\AppData\Local\Temp\cc0wEKzV.s 			page 61


 2139 0000 80B5     		push	{r7, lr}
 2140              	.LCFI72:
 2141              		.cfi_def_cfa_offset 8
 2142              		.cfi_offset 7, -8
 2143              		.cfi_offset 14, -4
 2144 0002 84B0     		sub	sp, sp, #16
 2145              	.LCFI73:
 2146              		.cfi_def_cfa_offset 24
 2147 0004 00AF     		add	r7, sp, #0
 2148              	.LCFI74:
 2149              		.cfi_def_cfa_register 7
 2150 0006 0346     		mov	r3, r0
 2151 0008 FB71     		strb	r3, [r7, #7]
1274:.\Generated_Source\PSoC5/CyLib.c ****     uint8 state = (0u != (CY_CLK_XTAL32_CR_REG & CY_CLK_XTAL32_CR_LPM)) ? 1u : 0u;
 2152              		.loc 1 1274 0
 2153 000a 44F20833 		movw	r3, #17160
 2154 000e C4F20003 		movt	r3, 16384
 2155 0012 1B78     		ldrb	r3, [r3, #0]
 2156 0014 DBB2     		uxtb	r3, r3
 2157 0016 03F00203 		and	r3, r3, #2
 2158 001a 002B     		cmp	r3, #0
 2159 001c 02D0     		beq	.L111
 2160              		.loc 1 1274 0 is_stmt 0 discriminator 1
 2161 001e 4FF00103 		mov	r3, #1
 2162 0022 01E0     		b	.L112
 2163              	.L111:
 2164              		.loc 1 1274 0 discriminator 2
 2165 0024 4FF00003 		mov	r3, #0
 2166              	.L112:
 2167              		.loc 1 1274 0 discriminator 3
 2168 0028 FB73     		strb	r3, [r7, #15]
1275:.\Generated_Source\PSoC5/CyLib.c **** 
1276:.\Generated_Source\PSoC5/CyLib.c ****     CY_CLK_XTAL32_TST_REG = CY_CLK_XTAL32_TST_DEFAULT;
 2169              		.loc 1 1276 0 is_stmt 1 discriminator 3
 2170 002a 44F20A33 		movw	r3, #17162
 2171 002e C4F20003 		movt	r3, 16384
 2172 0032 4FF0F302 		mov	r2, #243
 2173 0036 1A70     		strb	r2, [r3, #0]
1277:.\Generated_Source\PSoC5/CyLib.c **** 
1278:.\Generated_Source\PSoC5/CyLib.c ****     if(1u == mode)
 2174              		.loc 1 1278 0 discriminator 3
 2175 0038 FB79     		ldrb	r3, [r7, #7]	@ zero_extendqisi2
 2176 003a 012B     		cmp	r3, #1
 2177 003c 2ED1     		bne	.L113
1279:.\Generated_Source\PSoC5/CyLib.c ****     {
1280:.\Generated_Source\PSoC5/CyLib.c ****         /* Low power mode during Sleep */
1281:.\Generated_Source\PSoC5/CyLib.c ****         CY_CLK_XTAL32_TR_REG  = CY_CLK_XTAL32_TR_LOW_POWER;
 2178              		.loc 1 1281 0
 2179 003e 44F29863 		movw	r3, #18072
 2180 0042 C4F20003 		movt	r3, 16384
 2181 0046 4FF00102 		mov	r2, #1
 2182 004a 1A70     		strb	r2, [r3, #0]
1282:.\Generated_Source\PSoC5/CyLib.c ****         CyDelayUs(10u);
 2183              		.loc 1 1282 0
 2184 004c 4FF00A00 		mov	r0, #10
 2185 0050 FFF7FEFF 		bl	CyDelayUs
1283:.\Generated_Source\PSoC5/CyLib.c ****         CY_CLK_XTAL32_CFG_REG = (CY_CLK_XTAL32_CFG_REG & ((uint8)(~CY_CLK_XTAL32_CFG_LP_MASK))) |
ARM GAS  C:\Users\RIEKOH~1\AppData\Local\Temp\cc0wEKzV.s 			page 62


 2186              		.loc 1 1283 0
 2187 0054 44F20933 		movw	r3, #17161
 2188 0058 C4F20003 		movt	r3, 16384
 2189 005c 44F20932 		movw	r2, #17161
 2190 0060 C4F20002 		movt	r2, 16384
 2191 0064 1278     		ldrb	r2, [r2, #0]
 2192 0066 D2B2     		uxtb	r2, r2
 2193 0068 22F00C02 		bic	r2, r2, #12
 2194 006c D2B2     		uxtb	r2, r2
 2195 006e 42F00802 		orr	r2, r2, #8
 2196 0072 D2B2     		uxtb	r2, r2
 2197 0074 1A70     		strb	r2, [r3, #0]
1284:.\Generated_Source\PSoC5/CyLib.c ****                                 CY_CLK_XTAL32_CFG_LP_LOWPOWER;
1285:.\Generated_Source\PSoC5/CyLib.c ****         CyDelayUs(20u);
 2198              		.loc 1 1285 0
 2199 0076 4FF01400 		mov	r0, #20
 2200 007a FFF7FEFF 		bl	CyDelayUs
1286:.\Generated_Source\PSoC5/CyLib.c ****         CY_CLK_XTAL32_CR_REG |= CY_CLK_XTAL32_CR_LPM;
 2201              		.loc 1 1286 0
 2202 007e 44F20833 		movw	r3, #17160
 2203 0082 C4F20003 		movt	r3, 16384
 2204 0086 44F20832 		movw	r2, #17160
 2205 008a C4F20002 		movt	r2, 16384
 2206 008e 1278     		ldrb	r2, [r2, #0]
 2207 0090 D2B2     		uxtb	r2, r2
 2208 0092 42F00202 		orr	r2, r2, #2
 2209 0096 D2B2     		uxtb	r2, r2
 2210 0098 1A70     		strb	r2, [r3, #0]
 2211 009a 29E0     		b	.L114
 2212              	.L113:
1287:.\Generated_Source\PSoC5/CyLib.c ****     }
1288:.\Generated_Source\PSoC5/CyLib.c ****     else
1289:.\Generated_Source\PSoC5/CyLib.c ****     {
1290:.\Generated_Source\PSoC5/CyLib.c ****         /* High power mode */
1291:.\Generated_Source\PSoC5/CyLib.c ****         CY_CLK_XTAL32_TR_REG  = CY_CLK_XTAL32_TR_HIGH_POWER;
 2213              		.loc 1 1291 0
 2214 009c 44F29863 		movw	r3, #18072
 2215 00a0 C4F20003 		movt	r3, 16384
 2216 00a4 4FF00602 		mov	r2, #6
 2217 00a8 1A70     		strb	r2, [r3, #0]
1292:.\Generated_Source\PSoC5/CyLib.c ****         CyDelayUs(10u);
 2218              		.loc 1 1292 0
 2219 00aa 4FF00A00 		mov	r0, #10
 2220 00ae FFF7FEFF 		bl	CyDelayUs
1293:.\Generated_Source\PSoC5/CyLib.c ****         CY_CLK_XTAL32_CFG_REG = (CY_CLK_XTAL32_CFG_REG & ((uint8)(~CY_CLK_XTAL32_CFG_LP_MASK))) |
 2221              		.loc 1 1293 0
 2222 00b2 44F20933 		movw	r3, #17161
 2223 00b6 C4F20003 		movt	r3, 16384
 2224 00ba 44F20932 		movw	r2, #17161
 2225 00be C4F20002 		movt	r2, 16384
 2226 00c2 1278     		ldrb	r2, [r2, #0]
 2227 00c4 D2B2     		uxtb	r2, r2
 2228 00c6 22F00C02 		bic	r2, r2, #12
 2229 00ca D2B2     		uxtb	r2, r2
 2230 00cc 42F00402 		orr	r2, r2, #4
 2231 00d0 D2B2     		uxtb	r2, r2
 2232 00d2 1A70     		strb	r2, [r3, #0]
ARM GAS  C:\Users\RIEKOH~1\AppData\Local\Temp\cc0wEKzV.s 			page 63


1294:.\Generated_Source\PSoC5/CyLib.c ****                                 CY_CLK_XTAL32_CFG_LP_DEFAULT;
1295:.\Generated_Source\PSoC5/CyLib.c ****         CY_CLK_XTAL32_CR_REG &= ((uint8)(~CY_CLK_XTAL32_CR_LPM));
 2233              		.loc 1 1295 0
 2234 00d4 44F20833 		movw	r3, #17160
 2235 00d8 C4F20003 		movt	r3, 16384
 2236 00dc 44F20832 		movw	r2, #17160
 2237 00e0 C4F20002 		movt	r2, 16384
 2238 00e4 1278     		ldrb	r2, [r2, #0]
 2239 00e6 D2B2     		uxtb	r2, r2
 2240 00e8 22F00202 		bic	r2, r2, #2
 2241 00ec D2B2     		uxtb	r2, r2
 2242 00ee 1A70     		strb	r2, [r3, #0]
 2243              	.L114:
1296:.\Generated_Source\PSoC5/CyLib.c ****     }
1297:.\Generated_Source\PSoC5/CyLib.c **** 
1298:.\Generated_Source\PSoC5/CyLib.c ****     return(state);
 2244              		.loc 1 1298 0
 2245 00f0 FB7B     		ldrb	r3, [r7, #15]	@ zero_extendqisi2
1299:.\Generated_Source\PSoC5/CyLib.c **** }
 2246              		.loc 1 1299 0
 2247 00f2 1846     		mov	r0, r3
 2248 00f4 07F11007 		add	r7, r7, #16
 2249 00f8 BD46     		mov	sp, r7
 2250 00fa 80BD     		pop	{r7, pc}
 2251              		.cfi_endproc
 2252              	.LFE28:
 2253              		.size	CyXTAL_32KHZ_SetPowerMode, .-CyXTAL_32KHZ_SetPowerMode
 2254              		.section	.text.CyXTAL_Start,"ax",%progbits
 2255              		.align	2
 2256              		.global	CyXTAL_Start
 2257              		.thumb
 2258              		.thumb_func
 2259              		.type	CyXTAL_Start, %function
 2260              	CyXTAL_Start:
 2261              	.LFB29:
1300:.\Generated_Source\PSoC5/CyLib.c **** 
1301:.\Generated_Source\PSoC5/CyLib.c **** 
1302:.\Generated_Source\PSoC5/CyLib.c **** /*******************************************************************************
1303:.\Generated_Source\PSoC5/CyLib.c **** * Function Name: CyXTAL_Start
1304:.\Generated_Source\PSoC5/CyLib.c **** ********************************************************************************
1305:.\Generated_Source\PSoC5/CyLib.c **** *
1306:.\Generated_Source\PSoC5/CyLib.c **** * Summary:
1307:.\Generated_Source\PSoC5/CyLib.c **** *  Enables the megahertz crystal.
1308:.\Generated_Source\PSoC5/CyLib.c **** *
1309:.\Generated_Source\PSoC5/CyLib.c **** *  PSoC 3:
1310:.\Generated_Source\PSoC5/CyLib.c **** *  Waits until the XERR bit is low (no error) for a millisecond or until the
1311:.\Generated_Source\PSoC5/CyLib.c **** *  number of milliseconds specified by the wait parameter has expired.
1312:.\Generated_Source\PSoC5/CyLib.c **** *
1313:.\Generated_Source\PSoC5/CyLib.c **** * Parameters:
1314:.\Generated_Source\PSoC5/CyLib.c **** *   wait: Valid range [0-255].
1315:.\Generated_Source\PSoC5/CyLib.c **** *   This is the timeout value in milliseconds.
1316:.\Generated_Source\PSoC5/CyLib.c **** *   The appropriate value is crystal specific.
1317:.\Generated_Source\PSoC5/CyLib.c **** *
1318:.\Generated_Source\PSoC5/CyLib.c **** * Return:
1319:.\Generated_Source\PSoC5/CyLib.c **** *   CYRET_SUCCESS - Completed successfully
1320:.\Generated_Source\PSoC5/CyLib.c **** *   CYRET_TIMEOUT - Timeout occurred without detecting a low value on XERR.
1321:.\Generated_Source\PSoC5/CyLib.c **** *
ARM GAS  C:\Users\RIEKOH~1\AppData\Local\Temp\cc0wEKzV.s 			page 64


1322:.\Generated_Source\PSoC5/CyLib.c **** * Side Effects and Restrictions:
1323:.\Generated_Source\PSoC5/CyLib.c **** *  If wait is enabled (non-zero wait). Uses the Fast Timewheel to time the wait.
1324:.\Generated_Source\PSoC5/CyLib.c **** *  Any other use of the Fast Timewheel (FTW) will be stopped during the period
1325:.\Generated_Source\PSoC5/CyLib.c **** *  of this function and then restored.
1326:.\Generated_Source\PSoC5/CyLib.c **** *
1327:.\Generated_Source\PSoC5/CyLib.c **** *  Uses the 100KHz ILO.  If not enabled, this function will enable the 100KHz
1328:.\Generated_Source\PSoC5/CyLib.c **** *  ILO for the period of this function. No changes to the setup of the ILO,
1329:.\Generated_Source\PSoC5/CyLib.c **** *  Fast Timewheel, Central Timewheel or Once Per Second interrupt may be made
1330:.\Generated_Source\PSoC5/CyLib.c **** *  by interrupt routines during the period of this function.
1331:.\Generated_Source\PSoC5/CyLib.c **** *
1332:.\Generated_Source\PSoC5/CyLib.c **** *  The current operation of the ILO, Central Timewheel and Once Per Second
1333:.\Generated_Source\PSoC5/CyLib.c **** *  interrupt are maintained during the operation of this function provided the
1334:.\Generated_Source\PSoC5/CyLib.c **** *  reading of the Power Manager Interrupt Status Register is only done using the
1335:.\Generated_Source\PSoC5/CyLib.c **** *  CyPmReadStatus() function.
1336:.\Generated_Source\PSoC5/CyLib.c **** *
1337:.\Generated_Source\PSoC5/CyLib.c **** *******************************************************************************/
1338:.\Generated_Source\PSoC5/CyLib.c **** cystatus CyXTAL_Start(uint8 wait) 
1339:.\Generated_Source\PSoC5/CyLib.c **** {
 2262              		.loc 1 1339 0
 2263              		.cfi_startproc
 2264              		@ args = 0, pretend = 0, frame = 24
 2265              		@ frame_needed = 1, uses_anonymous_args = 0
 2266 0000 80B5     		push	{r7, lr}
 2267              	.LCFI75:
 2268              		.cfi_def_cfa_offset 8
 2269              		.cfi_offset 7, -8
 2270              		.cfi_offset 14, -4
 2271 0002 86B0     		sub	sp, sp, #24
 2272              	.LCFI76:
 2273              		.cfi_def_cfa_offset 32
 2274 0004 00AF     		add	r7, sp, #0
 2275              	.LCFI77:
 2276              		.cfi_def_cfa_register 7
 2277 0006 0346     		mov	r3, r0
 2278 0008 FB71     		strb	r3, [r7, #7]
1340:.\Generated_Source\PSoC5/CyLib.c ****     cystatus status = CYRET_SUCCESS;
 2279              		.loc 1 1340 0
 2280 000a 4FF00003 		mov	r3, #0
 2281 000e 7B61     		str	r3, [r7, #20]
1341:.\Generated_Source\PSoC5/CyLib.c ****     volatile uint8  timeout = wait;
 2282              		.loc 1 1341 0
 2283 0010 FB79     		ldrb	r3, [r7, #7]
 2284 0012 3B74     		strb	r3, [r7, #16]
1342:.\Generated_Source\PSoC5/CyLib.c ****     volatile uint8 count;
1343:.\Generated_Source\PSoC5/CyLib.c ****     uint8 iloEnableState;
1344:.\Generated_Source\PSoC5/CyLib.c ****     uint8 pmTwCfg0Tmp;
1345:.\Generated_Source\PSoC5/CyLib.c ****     uint8 pmTwCfg2Tmp;
1346:.\Generated_Source\PSoC5/CyLib.c **** 
1347:.\Generated_Source\PSoC5/CyLib.c **** 
1348:.\Generated_Source\PSoC5/CyLib.c ****     /* Enables the MHz crystal oscillator circuit  */
1349:.\Generated_Source\PSoC5/CyLib.c ****     CY_CLK_XMHZ_CSR_REG |= CY_CLK_XMHZ_CSR_ENABLE;
 2285              		.loc 1 1349 0
 2286 0014 44F21023 		movw	r3, #16912
 2287 0018 C4F20003 		movt	r3, 16384
 2288 001c 44F21022 		movw	r2, #16912
 2289 0020 C4F20002 		movt	r2, 16384
 2290 0024 1278     		ldrb	r2, [r2, #0]
ARM GAS  C:\Users\RIEKOH~1\AppData\Local\Temp\cc0wEKzV.s 			page 65


 2291 0026 D2B2     		uxtb	r2, r2
 2292 0028 42F00102 		orr	r2, r2, #1
 2293 002c D2B2     		uxtb	r2, r2
 2294 002e 1A70     		strb	r2, [r3, #0]
1350:.\Generated_Source\PSoC5/CyLib.c **** 
1351:.\Generated_Source\PSoC5/CyLib.c **** 
1352:.\Generated_Source\PSoC5/CyLib.c ****     if(wait > 0u)
 2295              		.loc 1 1352 0
 2296 0030 FB79     		ldrb	r3, [r7, #7]	@ zero_extendqisi2
 2297 0032 002B     		cmp	r3, #0
 2298 0034 62D0     		beq	.L117
1353:.\Generated_Source\PSoC5/CyLib.c ****     {
1354:.\Generated_Source\PSoC5/CyLib.c ****         /* Save 100 KHz ILO, FTW interval, enable and interrupt enable */
1355:.\Generated_Source\PSoC5/CyLib.c ****         iloEnableState = CY_LIB_SLOWCLK_ILO_CR0_REG;
 2299              		.loc 1 1355 0
 2300 0036 4FF48643 		mov	r3, #17152
 2301 003a C4F20003 		movt	r3, 16384
 2302 003e 1B78     		ldrb	r3, [r3, #0]
 2303 0040 FB74     		strb	r3, [r7, #19]
1356:.\Generated_Source\PSoC5/CyLib.c ****         pmTwCfg0Tmp = CY_LIB_PM_TW_CFG0_REG;
 2304              		.loc 1 1356 0
 2305 0042 4FF48743 		mov	r3, #17280
 2306 0046 C4F20003 		movt	r3, 16384
 2307 004a 1B78     		ldrb	r3, [r3, #0]
 2308 004c BB74     		strb	r3, [r7, #18]
1357:.\Generated_Source\PSoC5/CyLib.c ****         pmTwCfg2Tmp = CY_LIB_PM_TW_CFG2_REG;
 2309              		.loc 1 1357 0
 2310 004e 44F28233 		movw	r3, #17282
 2311 0052 C4F20003 		movt	r3, 16384
 2312 0056 1B78     		ldrb	r3, [r3, #0]
 2313 0058 7B74     		strb	r3, [r7, #17]
1358:.\Generated_Source\PSoC5/CyLib.c **** 
1359:.\Generated_Source\PSoC5/CyLib.c ****         /* Set 250 us interval */
1360:.\Generated_Source\PSoC5/CyLib.c ****         CyPmFtwSetInterval(CY_CLK_XMHZ_FTW_INTERVAL);
 2314              		.loc 1 1360 0
 2315 005a 4FF01800 		mov	r0, #24
 2316 005e FFF7FEFF 		bl	CyPmFtwSetInterval
1361:.\Generated_Source\PSoC5/CyLib.c ****         status = CYRET_TIMEOUT;
 2317              		.loc 1 1361 0
 2318 0062 4FF01003 		mov	r3, #16
 2319 0066 7B61     		str	r3, [r7, #20]
1362:.\Generated_Source\PSoC5/CyLib.c **** 
1363:.\Generated_Source\PSoC5/CyLib.c **** 
1364:.\Generated_Source\PSoC5/CyLib.c ****         for( ; timeout > 0u; timeout--)
 2320              		.loc 1 1364 0
 2321 0068 31E0     		b	.L118
 2322              	.L124:
1365:.\Generated_Source\PSoC5/CyLib.c ****         {
1366:.\Generated_Source\PSoC5/CyLib.c ****             /* Read XERR bit to clear it */
1367:.\Generated_Source\PSoC5/CyLib.c ****             (void) CY_CLK_XMHZ_CSR_REG;
 2323              		.loc 1 1367 0
 2324 006a 44F21023 		movw	r3, #16912
 2325 006e C4F20003 		movt	r3, 16384
 2326 0072 1B78     		ldrb	r3, [r3, #0]
1368:.\Generated_Source\PSoC5/CyLib.c **** 
1369:.\Generated_Source\PSoC5/CyLib.c ****             /* Wait for a millisecond - 4 x 250 us */
1370:.\Generated_Source\PSoC5/CyLib.c ****             for(count = 4u; count > 0u; count--)
ARM GAS  C:\Users\RIEKOH~1\AppData\Local\Temp\cc0wEKzV.s 			page 66


 2327              		.loc 1 1370 0
 2328 0074 4FF00403 		mov	r3, #4
 2329 0078 FB73     		strb	r3, [r7, #15]
 2330 007a 10E0     		b	.L119
 2331              	.L127:
