ARM GAS  C:\Users\RIEKOH~1\AppData\Local\Temp\ccPvP9Wz.s 			page 1


   1              		.syntax unified
   2              		.cpu cortex-m3
   3              		.fpu softvfp
   4              		.eabi_attribute 20, 1
   5              		.eabi_attribute 21, 1
   6              		.eabi_attribute 23, 3
   7              		.eabi_attribute 24, 1
   8              		.eabi_attribute 25, 1
   9              		.eabi_attribute 26, 1
  10              		.eabi_attribute 30, 6
  11              		.eabi_attribute 34, 1
  12              		.eabi_attribute 18, 4
  13              		.thumb
  14              		.file	"PWM_2.c"
  15              		.text
  16              	.Ltext0:
  17              		.cfi_sections	.debug_frame
  18              		.global	PWM_2_initVar
  19              		.bss
  20              		.type	PWM_2_initVar, %object
  21              		.size	PWM_2_initVar, 1
  22              	PWM_2_initVar:
  23 0000 00       		.space	1
  24              		.section	.text.PWM_2_Start,"ax",%progbits
  25              		.align	2
  26              		.global	PWM_2_Start
  27              		.thumb
  28              		.thumb_func
  29              		.type	PWM_2_Start, %function
  30              	PWM_2_Start:
  31              	.LFB0:
  32              		.file 1 ".\\Generated_Source\\PSoC5\\PWM_2.c"
   1:.\Generated_Source\PSoC5/PWM_2.c **** /*******************************************************************************
   2:.\Generated_Source\PSoC5/PWM_2.c **** * File Name: PWM_2.c  
   3:.\Generated_Source\PSoC5/PWM_2.c **** * Version 3.0
   4:.\Generated_Source\PSoC5/PWM_2.c **** *
   5:.\Generated_Source\PSoC5/PWM_2.c **** * Description:
   6:.\Generated_Source\PSoC5/PWM_2.c **** *  The PWM User Module consist of an 8 or 16-bit counter with two 8 or 16-bit
   7:.\Generated_Source\PSoC5/PWM_2.c **** *  comparitors. Each instance of this user module is capable of generating
   8:.\Generated_Source\PSoC5/PWM_2.c **** *  two PWM outputs with the same period. The pulse width is selectable between
   9:.\Generated_Source\PSoC5/PWM_2.c **** *  1 and 255/65535. The period is selectable between 2 and 255/65536 clocks. 
  10:.\Generated_Source\PSoC5/PWM_2.c **** *  The compare value output may be configured to be active when the present 
  11:.\Generated_Source\PSoC5/PWM_2.c **** *  counter is less than or less than/equal to the compare value.
  12:.\Generated_Source\PSoC5/PWM_2.c **** *  A terminal count output is also provided. It generates a pulse one clock
  13:.\Generated_Source\PSoC5/PWM_2.c **** *  width wide when the counter is equal to zero.
  14:.\Generated_Source\PSoC5/PWM_2.c **** *
  15:.\Generated_Source\PSoC5/PWM_2.c **** * Note:
  16:.\Generated_Source\PSoC5/PWM_2.c **** *
  17:.\Generated_Source\PSoC5/PWM_2.c **** *******************************************************************************
  18:.\Generated_Source\PSoC5/PWM_2.c **** * Copyright 2008-2012, Cypress Semiconductor Corporation.  All rights reserved.
  19:.\Generated_Source\PSoC5/PWM_2.c **** * You may use this file only in accordance with the license, terms, conditions, 
  20:.\Generated_Source\PSoC5/PWM_2.c **** * disclaimers, and limitations in the end user license agreement accompanying 
  21:.\Generated_Source\PSoC5/PWM_2.c **** * the software package with which this file was provided.
  22:.\Generated_Source\PSoC5/PWM_2.c **** ********************************************************************************/
  23:.\Generated_Source\PSoC5/PWM_2.c **** 
  24:.\Generated_Source\PSoC5/PWM_2.c **** #include "cytypes.h"
  25:.\Generated_Source\PSoC5/PWM_2.c **** #include "PWM_2.h"
ARM GAS  C:\Users\RIEKOH~1\AppData\Local\Temp\ccPvP9Wz.s 			page 2


  26:.\Generated_Source\PSoC5/PWM_2.c **** 
  27:.\Generated_Source\PSoC5/PWM_2.c **** uint8 PWM_2_initVar = 0u;
  28:.\Generated_Source\PSoC5/PWM_2.c **** 
  29:.\Generated_Source\PSoC5/PWM_2.c **** 
  30:.\Generated_Source\PSoC5/PWM_2.c **** /*******************************************************************************
  31:.\Generated_Source\PSoC5/PWM_2.c **** * Function Name: PWM_2_Start
  32:.\Generated_Source\PSoC5/PWM_2.c **** ********************************************************************************
  33:.\Generated_Source\PSoC5/PWM_2.c **** *
  34:.\Generated_Source\PSoC5/PWM_2.c **** * Summary:
  35:.\Generated_Source\PSoC5/PWM_2.c **** *  The start function initializes the pwm with the default values, the 
  36:.\Generated_Source\PSoC5/PWM_2.c **** *  enables the counter to begin counting.  It does not enable interrupts,
  37:.\Generated_Source\PSoC5/PWM_2.c **** *  the EnableInt command should be called if interrupt generation is required.
  38:.\Generated_Source\PSoC5/PWM_2.c **** *
  39:.\Generated_Source\PSoC5/PWM_2.c **** * Parameters:  
  40:.\Generated_Source\PSoC5/PWM_2.c **** *  None  
  41:.\Generated_Source\PSoC5/PWM_2.c **** *
  42:.\Generated_Source\PSoC5/PWM_2.c **** * Return: 
  43:.\Generated_Source\PSoC5/PWM_2.c **** *  None
  44:.\Generated_Source\PSoC5/PWM_2.c **** *
  45:.\Generated_Source\PSoC5/PWM_2.c **** * Global variables:
  46:.\Generated_Source\PSoC5/PWM_2.c **** *  PWM_2_initVar: Is modified when this function is called for the 
  47:.\Generated_Source\PSoC5/PWM_2.c **** *   first time. Is used to ensure that initialization happens only once.
  48:.\Generated_Source\PSoC5/PWM_2.c **** *
  49:.\Generated_Source\PSoC5/PWM_2.c **** *******************************************************************************/
  50:.\Generated_Source\PSoC5/PWM_2.c **** void PWM_2_Start(void) 
  51:.\Generated_Source\PSoC5/PWM_2.c **** {
  33              		.loc 1 51 0
  34              		.cfi_startproc
  35              		@ args = 0, pretend = 0, frame = 0
  36              		@ frame_needed = 1, uses_anonymous_args = 0
  37 0000 80B5     		push	{r7, lr}
  38              	.LCFI0:
  39              		.cfi_def_cfa_offset 8
  40              		.cfi_offset 7, -8
  41              		.cfi_offset 14, -4
  42 0002 00AF     		add	r7, sp, #0
  43              	.LCFI1:
  44              		.cfi_def_cfa_register 7
  52:.\Generated_Source\PSoC5/PWM_2.c ****     /* If not Initialized then initialize all required hardware and software */
  53:.\Generated_Source\PSoC5/PWM_2.c ****     if(PWM_2_initVar == 0u)
  45              		.loc 1 53 0
  46 0004 40F20003 		movw	r3, #:lower16:PWM_2_initVar
  47 0008 C0F20003 		movt	r3, #:upper16:PWM_2_initVar
  48 000c 1B78     		ldrb	r3, [r3, #0]	@ zero_extendqisi2
  49 000e 002B     		cmp	r3, #0
  50 0010 08D1     		bne	.L2
  54:.\Generated_Source\PSoC5/PWM_2.c ****     {
  55:.\Generated_Source\PSoC5/PWM_2.c ****         PWM_2_Init();
  51              		.loc 1 55 0
  52 0012 FFF7FEFF 		bl	PWM_2_Init
  56:.\Generated_Source\PSoC5/PWM_2.c ****         PWM_2_initVar = 1u;
  53              		.loc 1 56 0
  54 0016 40F20003 		movw	r3, #:lower16:PWM_2_initVar
  55 001a C0F20003 		movt	r3, #:upper16:PWM_2_initVar
  56 001e 4FF00102 		mov	r2, #1
  57 0022 1A70     		strb	r2, [r3, #0]
  58              	.L2:
ARM GAS  C:\Users\RIEKOH~1\AppData\Local\Temp\ccPvP9Wz.s 			page 3


  57:.\Generated_Source\PSoC5/PWM_2.c ****     }
  58:.\Generated_Source\PSoC5/PWM_2.c ****     PWM_2_Enable();
  59              		.loc 1 58 0
  60 0024 FFF7FEFF 		bl	PWM_2_Enable
  59:.\Generated_Source\PSoC5/PWM_2.c **** 
  60:.\Generated_Source\PSoC5/PWM_2.c **** }
  61              		.loc 1 60 0
  62 0028 80BD     		pop	{r7, pc}
  63              		.cfi_endproc
  64              	.LFE0:
  65              		.size	PWM_2_Start, .-PWM_2_Start
  66 002a 00BF     		.section	.text.PWM_2_Init,"ax",%progbits
  67              		.align	2
  68              		.global	PWM_2_Init
  69              		.thumb
  70              		.thumb_func
  71              		.type	PWM_2_Init, %function
  72              	PWM_2_Init:
  73              	.LFB1:
  61:.\Generated_Source\PSoC5/PWM_2.c **** 
  62:.\Generated_Source\PSoC5/PWM_2.c **** 
  63:.\Generated_Source\PSoC5/PWM_2.c **** /*******************************************************************************
  64:.\Generated_Source\PSoC5/PWM_2.c **** * Function Name: PWM_2_Init
  65:.\Generated_Source\PSoC5/PWM_2.c **** ********************************************************************************
  66:.\Generated_Source\PSoC5/PWM_2.c **** *
  67:.\Generated_Source\PSoC5/PWM_2.c **** * Summary:
  68:.\Generated_Source\PSoC5/PWM_2.c **** *  Initialize component's parameters to the parameters set by user in the 
  69:.\Generated_Source\PSoC5/PWM_2.c **** *  customizer of the component placed onto schematic. Usually called in 
  70:.\Generated_Source\PSoC5/PWM_2.c **** *  PWM_2_Start().
  71:.\Generated_Source\PSoC5/PWM_2.c **** *
  72:.\Generated_Source\PSoC5/PWM_2.c **** * Parameters:  
  73:.\Generated_Source\PSoC5/PWM_2.c **** *  None
  74:.\Generated_Source\PSoC5/PWM_2.c **** *
  75:.\Generated_Source\PSoC5/PWM_2.c **** * Return: 
  76:.\Generated_Source\PSoC5/PWM_2.c **** *  None
  77:.\Generated_Source\PSoC5/PWM_2.c **** *
  78:.\Generated_Source\PSoC5/PWM_2.c **** *******************************************************************************/
  79:.\Generated_Source\PSoC5/PWM_2.c **** void PWM_2_Init(void) 
  80:.\Generated_Source\PSoC5/PWM_2.c **** {
  74              		.loc 1 80 0
  75              		.cfi_startproc
  76              		@ args = 0, pretend = 0, frame = 8
  77              		@ frame_needed = 1, uses_anonymous_args = 0
  78 0000 80B5     		push	{r7, lr}
  79              	.LCFI2:
  80              		.cfi_def_cfa_offset 8
  81              		.cfi_offset 7, -8
  82              		.cfi_offset 14, -4
  83 0002 82B0     		sub	sp, sp, #8
  84              	.LCFI3:
  85              		.cfi_def_cfa_offset 16
  86 0004 00AF     		add	r7, sp, #0
  87              	.LCFI4:
  88              		.cfi_def_cfa_register 7
  81:.\Generated_Source\PSoC5/PWM_2.c ****     #if (PWM_2_UsingFixedFunction || PWM_2_UseControl)
  82:.\Generated_Source\PSoC5/PWM_2.c ****         uint8 ctrl;
  83:.\Generated_Source\PSoC5/PWM_2.c ****     #endif /* (PWM_2_UsingFixedFunction || PWM_2_UseControl) */
ARM GAS  C:\Users\RIEKOH~1\AppData\Local\Temp\ccPvP9Wz.s 			page 4


  84:.\Generated_Source\PSoC5/PWM_2.c ****     
  85:.\Generated_Source\PSoC5/PWM_2.c ****     #if(!PWM_2_UsingFixedFunction) 
  86:.\Generated_Source\PSoC5/PWM_2.c ****         #if(PWM_2_UseStatus)
  87:.\Generated_Source\PSoC5/PWM_2.c ****             /* Interrupt State Backup for Critical Region*/
  88:.\Generated_Source\PSoC5/PWM_2.c ****             uint8 PWM_2_interruptState;
  89:.\Generated_Source\PSoC5/PWM_2.c ****         #endif /* (PWM_2_UseStatus) */
  90:.\Generated_Source\PSoC5/PWM_2.c ****     #endif /* (!PWM_2_UsingFixedFunction) */
  91:.\Generated_Source\PSoC5/PWM_2.c ****     
  92:.\Generated_Source\PSoC5/PWM_2.c ****     #if (PWM_2_UsingFixedFunction)
  93:.\Generated_Source\PSoC5/PWM_2.c ****         /* You are allowed to write the compare value (FF only) */
  94:.\Generated_Source\PSoC5/PWM_2.c ****         PWM_2_CONTROL |= PWM_2_CFG0_MODE;
  95:.\Generated_Source\PSoC5/PWM_2.c ****         #if (PWM_2_DeadBand2_4)
  96:.\Generated_Source\PSoC5/PWM_2.c ****             PWM_2_CONTROL |= PWM_2_CFG0_DB;
  97:.\Generated_Source\PSoC5/PWM_2.c ****         #endif /* (PWM_2_DeadBand2_4) */
  98:.\Generated_Source\PSoC5/PWM_2.c ****                 
  99:.\Generated_Source\PSoC5/PWM_2.c ****         ctrl = PWM_2_CONTROL3 & ((uint8 )(~PWM_2_CTRL_CMPMODE1_MASK));
 100:.\Generated_Source\PSoC5/PWM_2.c ****         PWM_2_CONTROL3 = ctrl | PWM_2_DEFAULT_COMPARE1_MODE;
 101:.\Generated_Source\PSoC5/PWM_2.c ****         
 102:.\Generated_Source\PSoC5/PWM_2.c ****          /* Clear and Set SYNCTC and SYNCCMP bits of RT1 register */
 103:.\Generated_Source\PSoC5/PWM_2.c ****         PWM_2_RT1 &= ((uint8)(~PWM_2_RT1_MASK));
 104:.\Generated_Source\PSoC5/PWM_2.c ****         PWM_2_RT1 |= PWM_2_SYNC;     
 105:.\Generated_Source\PSoC5/PWM_2.c ****                 
 106:.\Generated_Source\PSoC5/PWM_2.c ****         /*Enable DSI Sync all all inputs of the PWM*/
 107:.\Generated_Source\PSoC5/PWM_2.c ****         PWM_2_RT1 &= ((uint8)(~PWM_2_SYNCDSI_MASK));
 108:.\Generated_Source\PSoC5/PWM_2.c ****         PWM_2_RT1 |= PWM_2_SYNCDSI_EN;
 109:.\Generated_Source\PSoC5/PWM_2.c ****        
 110:.\Generated_Source\PSoC5/PWM_2.c ****     #elif (PWM_2_UseControl)
 111:.\Generated_Source\PSoC5/PWM_2.c ****         /* Set the default compare mode defined in the parameter */
 112:.\Generated_Source\PSoC5/PWM_2.c ****         ctrl = PWM_2_CONTROL & ((uint8)(~PWM_2_CTRL_CMPMODE2_MASK)) & ((uint8)(~PWM_2_CTRL_CMPMODE1
  89              		.loc 1 112 0
  90 0006 46F27243 		movw	r3, #25714
  91 000a C4F20003 		movt	r3, 16384
  92 000e 1B78     		ldrb	r3, [r3, #0]
  93 0010 DBB2     		uxtb	r3, r3
  94 0012 23F03F03 		bic	r3, r3, #63
  95 0016 FB71     		strb	r3, [r7, #7]
 113:.\Generated_Source\PSoC5/PWM_2.c ****         PWM_2_CONTROL = ctrl | PWM_2_DEFAULT_COMPARE2_MODE | 
  96              		.loc 1 113 0
  97 0018 46F27243 		movw	r3, #25714
  98 001c C4F20003 		movt	r3, 16384
  99 0020 FA79     		ldrb	r2, [r7, #7]
 100 0022 42F00902 		orr	r2, r2, #9
 101 0026 D2B2     		uxtb	r2, r2
 102 0028 1A70     		strb	r2, [r3, #0]
 114:.\Generated_Source\PSoC5/PWM_2.c ****                                    PWM_2_DEFAULT_COMPARE1_MODE;
 115:.\Generated_Source\PSoC5/PWM_2.c ****     #endif /* (PWM_2_UsingFixedFunction) */
 116:.\Generated_Source\PSoC5/PWM_2.c ****         
 117:.\Generated_Source\PSoC5/PWM_2.c ****     #if (!PWM_2_UsingFixedFunction)
 118:.\Generated_Source\PSoC5/PWM_2.c ****         #if (PWM_2_Resolution == 8)
 119:.\Generated_Source\PSoC5/PWM_2.c ****             /* Set FIFO 0 to 1 byte register for period*/
 120:.\Generated_Source\PSoC5/PWM_2.c ****             PWM_2_AUX_CONTROLDP0 |= (PWM_2_AUX_CTRL_FIFO0_CLR);
 121:.\Generated_Source\PSoC5/PWM_2.c ****         #else /* (PWM_2_Resolution == 16)*/
 122:.\Generated_Source\PSoC5/PWM_2.c ****             /* Set FIFO 0 to 1 byte register for period */
 123:.\Generated_Source\PSoC5/PWM_2.c ****             PWM_2_AUX_CONTROLDP0 |= (PWM_2_AUX_CTRL_FIFO0_CLR);
 103              		.loc 1 123 0
 104 002a 46F29243 		movw	r3, #25746
 105 002e C4F20003 		movt	r3, 16384
ARM GAS  C:\Users\RIEKOH~1\AppData\Local\Temp\ccPvP9Wz.s 			page 5


 106 0032 46F29242 		movw	r2, #25746
 107 0036 C4F20002 		movt	r2, 16384
 108 003a 1278     		ldrb	r2, [r2, #0]
 109 003c D2B2     		uxtb	r2, r2
 110 003e 42F00102 		orr	r2, r2, #1
 111 0042 D2B2     		uxtb	r2, r2
 112 0044 1A70     		strb	r2, [r3, #0]
 124:.\Generated_Source\PSoC5/PWM_2.c ****             PWM_2_AUX_CONTROLDP1 |= (PWM_2_AUX_CTRL_FIFO0_CLR);
 113              		.loc 1 124 0
 114 0046 46F29343 		movw	r3, #25747
 115 004a C4F20003 		movt	r3, 16384
 116 004e 46F29342 		movw	r2, #25747
 117 0052 C4F20002 		movt	r2, 16384
 118 0056 1278     		ldrb	r2, [r2, #0]
 119 0058 D2B2     		uxtb	r2, r2
 120 005a 42F00102 		orr	r2, r2, #1
 121 005e D2B2     		uxtb	r2, r2
 122 0060 1A70     		strb	r2, [r3, #0]
 125:.\Generated_Source\PSoC5/PWM_2.c ****         #endif /* (PWM_2_Resolution == 8) */
 126:.\Generated_Source\PSoC5/PWM_2.c **** 
 127:.\Generated_Source\PSoC5/PWM_2.c ****         PWM_2_WriteCounter(PWM_2_INIT_PERIOD_VALUE);
 123              		.loc 1 127 0
 124 0062 4FF0FF00 		mov	r0, #255
 125 0066 FFF7FEFF 		bl	PWM_2_WriteCounter
 128:.\Generated_Source\PSoC5/PWM_2.c ****     #endif /* (!PWM_2_UsingFixedFunction) */
 129:.\Generated_Source\PSoC5/PWM_2.c ****         
 130:.\Generated_Source\PSoC5/PWM_2.c ****     PWM_2_WritePeriod(PWM_2_INIT_PERIOD_VALUE);
 126              		.loc 1 130 0
 127 006a 4FF0FF00 		mov	r0, #255
 128 006e FFF7FEFF 		bl	PWM_2_WritePeriod
 131:.\Generated_Source\PSoC5/PWM_2.c **** 
 132:.\Generated_Source\PSoC5/PWM_2.c ****         #if (PWM_2_UseOneCompareMode)
 133:.\Generated_Source\PSoC5/PWM_2.c ****             PWM_2_WriteCompare(PWM_2_INIT_COMPARE_VALUE1);
 134:.\Generated_Source\PSoC5/PWM_2.c ****         #else
 135:.\Generated_Source\PSoC5/PWM_2.c ****             PWM_2_WriteCompare1(PWM_2_INIT_COMPARE_VALUE1);
 129              		.loc 1 135 0
 130 0072 4FF07F00 		mov	r0, #127
 131 0076 FFF7FEFF 		bl	PWM_2_WriteCompare1
 136:.\Generated_Source\PSoC5/PWM_2.c ****             PWM_2_WriteCompare2(PWM_2_INIT_COMPARE_VALUE2);
 132              		.loc 1 136 0
 133 007a 4FF07F00 		mov	r0, #127
 134 007e FFF7FEFF 		bl	PWM_2_WriteCompare2
 137:.\Generated_Source\PSoC5/PWM_2.c ****         #endif /* (PWM_2_UseOneCompareMode) */
 138:.\Generated_Source\PSoC5/PWM_2.c ****         
 139:.\Generated_Source\PSoC5/PWM_2.c ****         #if (PWM_2_KillModeMinTime)
 140:.\Generated_Source\PSoC5/PWM_2.c ****             PWM_2_WriteKillTime(PWM_2_MinimumKillTime);
 141:.\Generated_Source\PSoC5/PWM_2.c ****         #endif /* (PWM_2_KillModeMinTime) */
 142:.\Generated_Source\PSoC5/PWM_2.c ****         
 143:.\Generated_Source\PSoC5/PWM_2.c ****         #if (PWM_2_DeadBandUsed)
 144:.\Generated_Source\PSoC5/PWM_2.c ****             PWM_2_WriteDeadTime(PWM_2_INIT_DEAD_TIME);
 145:.\Generated_Source\PSoC5/PWM_2.c ****         #endif /* (PWM_2_DeadBandUsed) */
 146:.\Generated_Source\PSoC5/PWM_2.c **** 
 147:.\Generated_Source\PSoC5/PWM_2.c ****     #if (PWM_2_UseStatus || PWM_2_UsingFixedFunction)
 148:.\Generated_Source\PSoC5/PWM_2.c ****         PWM_2_SetInterruptMode(PWM_2_INIT_INTERRUPTS_MODE);
 135              		.loc 1 148 0
 136 0082 4FF00000 		mov	r0, #0
 137 0086 FFF7FEFF 		bl	PWM_2_SetInterruptMode
ARM GAS  C:\Users\RIEKOH~1\AppData\Local\Temp\ccPvP9Wz.s 			page 6


 149:.\Generated_Source\PSoC5/PWM_2.c ****     #endif /* (PWM_2_UseStatus || PWM_2_UsingFixedFunction) */
 150:.\Generated_Source\PSoC5/PWM_2.c ****         
 151:.\Generated_Source\PSoC5/PWM_2.c ****     #if (PWM_2_UsingFixedFunction)
 152:.\Generated_Source\PSoC5/PWM_2.c ****         /* Globally Enable the Fixed Function Block chosen */
 153:.\Generated_Source\PSoC5/PWM_2.c ****         PWM_2_GLOBAL_ENABLE |= PWM_2_BLOCK_EN_MASK;
 154:.\Generated_Source\PSoC5/PWM_2.c ****         /* Set the Interrupt source to come from the status register */
 155:.\Generated_Source\PSoC5/PWM_2.c ****         PWM_2_CONTROL2 |= PWM_2_CTRL2_IRQ_SEL;
 156:.\Generated_Source\PSoC5/PWM_2.c ****     #else
 157:.\Generated_Source\PSoC5/PWM_2.c ****         #if(PWM_2_UseStatus)
 158:.\Generated_Source\PSoC5/PWM_2.c ****             
 159:.\Generated_Source\PSoC5/PWM_2.c ****             /* CyEnterCriticalRegion and CyExitCriticalRegion are used to mark following region cri
 160:.\Generated_Source\PSoC5/PWM_2.c ****             /* Enter Critical Region*/
 161:.\Generated_Source\PSoC5/PWM_2.c ****             PWM_2_interruptState = CyEnterCriticalSection();
 138              		.loc 1 161 0
 139 008a FFF7FEFF 		bl	CyEnterCriticalSection
 140 008e 0346     		mov	r3, r0
 141 0090 BB71     		strb	r3, [r7, #6]
 162:.\Generated_Source\PSoC5/PWM_2.c ****             /* Use the interrupt output of the status register for IRQ output */
 163:.\Generated_Source\PSoC5/PWM_2.c ****             PWM_2_STATUS_AUX_CTRL |= PWM_2_STATUS_ACTL_INT_EN_MASK;
 142              		.loc 1 163 0
 143 0092 46F29343 		movw	r3, #25747
 144 0096 C4F20003 		movt	r3, 16384
 145 009a 46F29342 		movw	r2, #25747
 146 009e C4F20002 		movt	r2, 16384
 147 00a2 1278     		ldrb	r2, [r2, #0]
 148 00a4 D2B2     		uxtb	r2, r2
 149 00a6 42F01002 		orr	r2, r2, #16
 150 00aa D2B2     		uxtb	r2, r2
 151 00ac 1A70     		strb	r2, [r3, #0]
 164:.\Generated_Source\PSoC5/PWM_2.c ****             
 165:.\Generated_Source\PSoC5/PWM_2.c ****              /* Exit Critical Region*/
 166:.\Generated_Source\PSoC5/PWM_2.c ****             CyExitCriticalSection(PWM_2_interruptState);
 152              		.loc 1 166 0
 153 00ae BB79     		ldrb	r3, [r7, #6]	@ zero_extendqisi2
 154 00b0 1846     		mov	r0, r3
 155 00b2 FFF7FEFF 		bl	CyExitCriticalSection
 167:.\Generated_Source\PSoC5/PWM_2.c ****             
 168:.\Generated_Source\PSoC5/PWM_2.c ****             /* Clear the FIFO to enable the PWM_2_STATUS_FIFOFULL
 169:.\Generated_Source\PSoC5/PWM_2.c ****                    bit to be set on FIFO full. */
 170:.\Generated_Source\PSoC5/PWM_2.c ****             PWM_2_ClearFIFO();
 156              		.loc 1 170 0
 157 00b6 FFF7FEFF 		bl	PWM_2_ClearFIFO
 171:.\Generated_Source\PSoC5/PWM_2.c ****         #endif /* (PWM_2_UseStatus) */
 172:.\Generated_Source\PSoC5/PWM_2.c ****     #endif /* (PWM_2_UsingFixedFunction) */
 173:.\Generated_Source\PSoC5/PWM_2.c **** }
 158              		.loc 1 173 0
 159 00ba 07F10807 		add	r7, r7, #8
 160 00be BD46     		mov	sp, r7
 161 00c0 80BD     		pop	{r7, pc}
 162              		.cfi_endproc
 163              	.LFE1:
 164              		.size	PWM_2_Init, .-PWM_2_Init
 165 00c2 00BF     		.section	.text.PWM_2_Enable,"ax",%progbits
 166              		.align	2
 167              		.global	PWM_2_Enable
 168              		.thumb
 169              		.thumb_func
ARM GAS  C:\Users\RIEKOH~1\AppData\Local\Temp\ccPvP9Wz.s 			page 7


 170              		.type	PWM_2_Enable, %function
 171              	PWM_2_Enable:
 172              	.LFB2:
 174:.\Generated_Source\PSoC5/PWM_2.c **** 
 175:.\Generated_Source\PSoC5/PWM_2.c **** 
 176:.\Generated_Source\PSoC5/PWM_2.c **** /*******************************************************************************
 177:.\Generated_Source\PSoC5/PWM_2.c **** * Function Name: PWM_2_Enable
 178:.\Generated_Source\PSoC5/PWM_2.c **** ********************************************************************************
 179:.\Generated_Source\PSoC5/PWM_2.c **** *
 180:.\Generated_Source\PSoC5/PWM_2.c **** * Summary: 
 181:.\Generated_Source\PSoC5/PWM_2.c **** *  Enables the PWM block operation
 182:.\Generated_Source\PSoC5/PWM_2.c **** *
 183:.\Generated_Source\PSoC5/PWM_2.c **** * Parameters:  
 184:.\Generated_Source\PSoC5/PWM_2.c **** *  None
 185:.\Generated_Source\PSoC5/PWM_2.c **** *
 186:.\Generated_Source\PSoC5/PWM_2.c **** * Return: 
 187:.\Generated_Source\PSoC5/PWM_2.c **** *  None
 188:.\Generated_Source\PSoC5/PWM_2.c **** *
 189:.\Generated_Source\PSoC5/PWM_2.c **** * Side Effects: 
 190:.\Generated_Source\PSoC5/PWM_2.c **** *  This works only if software enable mode is chosen
 191:.\Generated_Source\PSoC5/PWM_2.c **** *
 192:.\Generated_Source\PSoC5/PWM_2.c **** *******************************************************************************/
 193:.\Generated_Source\PSoC5/PWM_2.c **** void PWM_2_Enable(void) 
 194:.\Generated_Source\PSoC5/PWM_2.c **** {
 173              		.loc 1 194 0
 174              		.cfi_startproc
 175              		@ args = 0, pretend = 0, frame = 0
 176              		@ frame_needed = 1, uses_anonymous_args = 0
 177              		@ link register save eliminated.
 178 0000 80B4     		push	{r7}
 179              	.LCFI5:
 180              		.cfi_def_cfa_offset 4
 181              		.cfi_offset 7, -4
 182 0002 00AF     		add	r7, sp, #0
 183              	.LCFI6:
 184              		.cfi_def_cfa_register 7
 195:.\Generated_Source\PSoC5/PWM_2.c ****     /* Globally Enable the Fixed Function Block chosen */
 196:.\Generated_Source\PSoC5/PWM_2.c ****     #if (PWM_2_UsingFixedFunction)
 197:.\Generated_Source\PSoC5/PWM_2.c ****         PWM_2_GLOBAL_ENABLE |= PWM_2_BLOCK_EN_MASK;
 198:.\Generated_Source\PSoC5/PWM_2.c ****         PWM_2_GLOBAL_STBY_ENABLE |= PWM_2_BLOCK_STBY_EN_MASK;
 199:.\Generated_Source\PSoC5/PWM_2.c ****     #endif /* (PWM_2_UsingFixedFunction) */
 200:.\Generated_Source\PSoC5/PWM_2.c ****     
 201:.\Generated_Source\PSoC5/PWM_2.c ****     /* Enable the PWM from the control register  */
 202:.\Generated_Source\PSoC5/PWM_2.c ****     #if (PWM_2_UseControl || PWM_2_UsingFixedFunction)
 203:.\Generated_Source\PSoC5/PWM_2.c ****         PWM_2_CONTROL |= PWM_2_CTRL_ENABLE;
 185              		.loc 1 203 0
 186 0004 46F27243 		movw	r3, #25714
 187 0008 C4F20003 		movt	r3, 16384
 188 000c 46F27242 		movw	r2, #25714
 189 0010 C4F20002 		movt	r2, 16384
 190 0014 1278     		ldrb	r2, [r2, #0]
 191 0016 D2B2     		uxtb	r2, r2
 192 0018 62F07F02 		orn	r2, r2, #127
 193 001c D2B2     		uxtb	r2, r2
 194 001e 1A70     		strb	r2, [r3, #0]
 204:.\Generated_Source\PSoC5/PWM_2.c ****     #endif /* (PWM_2_UseControl || PWM_2_UsingFixedFunction) */
 205:.\Generated_Source\PSoC5/PWM_2.c **** }
ARM GAS  C:\Users\RIEKOH~1\AppData\Local\Temp\ccPvP9Wz.s 			page 8


 195              		.loc 1 205 0
 196 0020 BD46     		mov	sp, r7
 197 0022 80BC     		pop	{r7}
 198 0024 7047     		bx	lr
 199              		.cfi_endproc
 200              	.LFE2:
 201              		.size	PWM_2_Enable, .-PWM_2_Enable
 202 0026 00BF     		.section	.text.PWM_2_Stop,"ax",%progbits
 203              		.align	2
 204              		.global	PWM_2_Stop
 205              		.thumb
 206              		.thumb_func
 207              		.type	PWM_2_Stop, %function
 208              	PWM_2_Stop:
 209              	.LFB3:
 206:.\Generated_Source\PSoC5/PWM_2.c **** 
 207:.\Generated_Source\PSoC5/PWM_2.c **** 
 208:.\Generated_Source\PSoC5/PWM_2.c **** /*******************************************************************************
 209:.\Generated_Source\PSoC5/PWM_2.c **** * Function Name: PWM_2_Stop
 210:.\Generated_Source\PSoC5/PWM_2.c **** ********************************************************************************
 211:.\Generated_Source\PSoC5/PWM_2.c **** *
 212:.\Generated_Source\PSoC5/PWM_2.c **** * Summary:
 213:.\Generated_Source\PSoC5/PWM_2.c **** *  The stop function halts the PWM, but does not change any modes or disable
 214:.\Generated_Source\PSoC5/PWM_2.c **** *  interrupts.
 215:.\Generated_Source\PSoC5/PWM_2.c **** *
 216:.\Generated_Source\PSoC5/PWM_2.c **** * Parameters:  
 217:.\Generated_Source\PSoC5/PWM_2.c **** *  None  
 218:.\Generated_Source\PSoC5/PWM_2.c **** *
 219:.\Generated_Source\PSoC5/PWM_2.c **** * Return: 
 220:.\Generated_Source\PSoC5/PWM_2.c **** *  None
 221:.\Generated_Source\PSoC5/PWM_2.c **** *
 222:.\Generated_Source\PSoC5/PWM_2.c **** * Side Effects:
 223:.\Generated_Source\PSoC5/PWM_2.c **** *  If the Enable mode is set to Hardware only then this function
 224:.\Generated_Source\PSoC5/PWM_2.c **** *  has no effect on the operation of the PWM
 225:.\Generated_Source\PSoC5/PWM_2.c **** *
 226:.\Generated_Source\PSoC5/PWM_2.c **** *******************************************************************************/
 227:.\Generated_Source\PSoC5/PWM_2.c **** void PWM_2_Stop(void) 
 228:.\Generated_Source\PSoC5/PWM_2.c **** {
 210              		.loc 1 228 0
 211              		.cfi_startproc
 212              		@ args = 0, pretend = 0, frame = 0
 213              		@ frame_needed = 1, uses_anonymous_args = 0
 214              		@ link register save eliminated.
 215 0000 80B4     		push	{r7}
 216              	.LCFI7:
 217              		.cfi_def_cfa_offset 4
 218              		.cfi_offset 7, -4
 219 0002 00AF     		add	r7, sp, #0
 220              	.LCFI8:
 221              		.cfi_def_cfa_register 7
 229:.\Generated_Source\PSoC5/PWM_2.c ****     #if (PWM_2_UseControl || PWM_2_UsingFixedFunction)
 230:.\Generated_Source\PSoC5/PWM_2.c ****         PWM_2_CONTROL &= ((uint8)(~PWM_2_CTRL_ENABLE));
 222              		.loc 1 230 0
 223 0004 46F27243 		movw	r3, #25714
 224 0008 C4F20003 		movt	r3, 16384
 225 000c 46F27242 		movw	r2, #25714
 226 0010 C4F20002 		movt	r2, 16384
ARM GAS  C:\Users\RIEKOH~1\AppData\Local\Temp\ccPvP9Wz.s 			page 9


 227 0014 1278     		ldrb	r2, [r2, #0]
 228 0016 D2B2     		uxtb	r2, r2
 229 0018 02F07F02 		and	r2, r2, #127
 230 001c D2B2     		uxtb	r2, r2
 231 001e 1A70     		strb	r2, [r3, #0]
 231:.\Generated_Source\PSoC5/PWM_2.c ****     #endif /* (PWM_2_UseControl || PWM_2_UsingFixedFunction) */
 232:.\Generated_Source\PSoC5/PWM_2.c ****     
 233:.\Generated_Source\PSoC5/PWM_2.c ****     /* Globally disable the Fixed Function Block chosen */
 234:.\Generated_Source\PSoC5/PWM_2.c ****     #if (PWM_2_UsingFixedFunction)
 235:.\Generated_Source\PSoC5/PWM_2.c ****         PWM_2_GLOBAL_ENABLE &= ((uint8)(~PWM_2_BLOCK_EN_MASK));
 236:.\Generated_Source\PSoC5/PWM_2.c ****         PWM_2_GLOBAL_STBY_ENABLE &= ((uint8)(~PWM_2_BLOCK_STBY_EN_MASK));
 237:.\Generated_Source\PSoC5/PWM_2.c ****     #endif /* (PWM_2_UsingFixedFunction) */
 238:.\Generated_Source\PSoC5/PWM_2.c **** }
 232              		.loc 1 238 0
 233 0020 BD46     		mov	sp, r7
 234 0022 80BC     		pop	{r7}
 235 0024 7047     		bx	lr
 236              		.cfi_endproc
 237              	.LFE3:
 238              		.size	PWM_2_Stop, .-PWM_2_Stop
 239 0026 00BF     		.section	.text.PWM_2_WriteCounter,"ax",%progbits
 240              		.align	2
 241              		.global	PWM_2_WriteCounter
 242              		.thumb
 243              		.thumb_func
 244              		.type	PWM_2_WriteCounter, %function
 245              	PWM_2_WriteCounter:
 246              	.LFB4:
 239:.\Generated_Source\PSoC5/PWM_2.c **** 
 240:.\Generated_Source\PSoC5/PWM_2.c **** 
 241:.\Generated_Source\PSoC5/PWM_2.c **** #if (PWM_2_UseOneCompareMode)
 242:.\Generated_Source\PSoC5/PWM_2.c **** 	#if (PWM_2_CompareMode1SW)
 243:.\Generated_Source\PSoC5/PWM_2.c **** 
 244:.\Generated_Source\PSoC5/PWM_2.c **** 
 245:.\Generated_Source\PSoC5/PWM_2.c **** 		/*******************************************************************************
 246:.\Generated_Source\PSoC5/PWM_2.c **** 		* Function Name: PWM_2_SetCompareMode
 247:.\Generated_Source\PSoC5/PWM_2.c **** 		********************************************************************************
 248:.\Generated_Source\PSoC5/PWM_2.c **** 		* 
 249:.\Generated_Source\PSoC5/PWM_2.c **** 		* Summary:
 250:.\Generated_Source\PSoC5/PWM_2.c **** 		*  This function writes the Compare Mode for the pwm output when in Dither mode,
 251:.\Generated_Source\PSoC5/PWM_2.c **** 		*  Center Align Mode or One Output Mode.
 252:.\Generated_Source\PSoC5/PWM_2.c **** 		*
 253:.\Generated_Source\PSoC5/PWM_2.c **** 		* Parameters:
 254:.\Generated_Source\PSoC5/PWM_2.c **** 		*  comparemode:  The new compare mode for the PWM output. Use the compare types
 255:.\Generated_Source\PSoC5/PWM_2.c **** 		*                defined in the H file as input arguments.
 256:.\Generated_Source\PSoC5/PWM_2.c **** 		*
 257:.\Generated_Source\PSoC5/PWM_2.c **** 		* Return:
 258:.\Generated_Source\PSoC5/PWM_2.c **** 		*  None
 259:.\Generated_Source\PSoC5/PWM_2.c **** 		*
 260:.\Generated_Source\PSoC5/PWM_2.c **** 		*******************************************************************************/
 261:.\Generated_Source\PSoC5/PWM_2.c **** 		void PWM_2_SetCompareMode(uint8 comparemode) 
 262:.\Generated_Source\PSoC5/PWM_2.c **** 		{
 263:.\Generated_Source\PSoC5/PWM_2.c **** 		    #if(PWM_2_UsingFixedFunction)
 264:.\Generated_Source\PSoC5/PWM_2.c ****             
 265:.\Generated_Source\PSoC5/PWM_2.c ****                 #if(0 != PWM_2_CTRL_CMPMODE1_SHIFT)
 266:.\Generated_Source\PSoC5/PWM_2.c ****                     uint8 comparemodemasked = ((uint8)((uint8)comparemode << PWM_2_CTRL_CMPMODE1_SH
 267:.\Generated_Source\PSoC5/PWM_2.c ****                 #else
ARM GAS  C:\Users\RIEKOH~1\AppData\Local\Temp\ccPvP9Wz.s 			page 10


 268:.\Generated_Source\PSoC5/PWM_2.c ****                     uint8 comparemodemasked = comparemode;
 269:.\Generated_Source\PSoC5/PWM_2.c ****                 #endif /* (0 != PWM_2_CTRL_CMPMODE1_SHIFT) */
 270:.\Generated_Source\PSoC5/PWM_2.c ****             
 271:.\Generated_Source\PSoC5/PWM_2.c **** 	            PWM_2_CONTROL3 &= ((uint8)(~PWM_2_CTRL_CMPMODE1_MASK)); /*Clear Existing Data */
 272:.\Generated_Source\PSoC5/PWM_2.c **** 	            PWM_2_CONTROL3 |= comparemodemasked;     
 273:.\Generated_Source\PSoC5/PWM_2.c **** 		                
 274:.\Generated_Source\PSoC5/PWM_2.c **** 		    #elif (PWM_2_UseControl)
 275:.\Generated_Source\PSoC5/PWM_2.c **** 		        
 276:.\Generated_Source\PSoC5/PWM_2.c ****                 #if(0 != PWM_2_CTRL_CMPMODE1_SHIFT)
 277:.\Generated_Source\PSoC5/PWM_2.c ****                     uint8 comparemode1masked = ((uint8)((uint8)comparemode << PWM_2_CTRL_CMPMODE1_S
 278:.\Generated_Source\PSoC5/PWM_2.c ****     		                                    PWM_2_CTRL_CMPMODE1_MASK;
 279:.\Generated_Source\PSoC5/PWM_2.c ****                 #else
 280:.\Generated_Source\PSoC5/PWM_2.c ****                     uint8 comparemode1masked = comparemode & PWM_2_CTRL_CMPMODE1_MASK;             
 281:.\Generated_Source\PSoC5/PWM_2.c ****                 #endif /* (0 != PWM_2_CTRL_CMPMODE1_SHIFT) */
 282:.\Generated_Source\PSoC5/PWM_2.c ****                 
 283:.\Generated_Source\PSoC5/PWM_2.c ****                 #if(0 != PWM_2_CTRL_CMPMODE2_SHIFT)                            
 284:.\Generated_Source\PSoC5/PWM_2.c ****     		        uint8 comparemode2masked = ((uint8)((uint8)comparemode << PWM_2_CTRL_CMPMODE2_SHIFT))
 285:.\Generated_Source\PSoC5/PWM_2.c ****     		                                   PWM_2_CTRL_CMPMODE2_MASK;
 286:.\Generated_Source\PSoC5/PWM_2.c ****                 #else
 287:.\Generated_Source\PSoC5/PWM_2.c ****     		        uint8 comparemode2masked = comparemode & PWM_2_CTRL_CMPMODE2_MASK;                
 288:.\Generated_Source\PSoC5/PWM_2.c ****                 #endif /* (0 != PWM_2_CTRL_CMPMODE2_SHIFT) */
 289:.\Generated_Source\PSoC5/PWM_2.c ****                 
 290:.\Generated_Source\PSoC5/PWM_2.c **** 		        /*Clear existing mode */
 291:.\Generated_Source\PSoC5/PWM_2.c **** 		        PWM_2_CONTROL &= ((uint8)(~(PWM_2_CTRL_CMPMODE1_MASK | PWM_2_CTRL_CMPMODE2_MASK))); 
 292:.\Generated_Source\PSoC5/PWM_2.c **** 		        PWM_2_CONTROL |= (comparemode1masked | comparemode2masked);
 293:.\Generated_Source\PSoC5/PWM_2.c **** 		        
 294:.\Generated_Source\PSoC5/PWM_2.c **** 		    #else
 295:.\Generated_Source\PSoC5/PWM_2.c **** 		        uint8 temp = comparemode;
 296:.\Generated_Source\PSoC5/PWM_2.c **** 		    #endif /* (PWM_2_UsingFixedFunction) */
 297:.\Generated_Source\PSoC5/PWM_2.c **** 		}
 298:.\Generated_Source\PSoC5/PWM_2.c **** 	#endif /* PWM_2_CompareMode1SW */
 299:.\Generated_Source\PSoC5/PWM_2.c **** 
 300:.\Generated_Source\PSoC5/PWM_2.c **** #else /* UseOneCompareMode */
 301:.\Generated_Source\PSoC5/PWM_2.c **** 
 302:.\Generated_Source\PSoC5/PWM_2.c **** 	#if (PWM_2_CompareMode1SW)
 303:.\Generated_Source\PSoC5/PWM_2.c **** 
 304:.\Generated_Source\PSoC5/PWM_2.c **** 
 305:.\Generated_Source\PSoC5/PWM_2.c **** 		/*******************************************************************************
 306:.\Generated_Source\PSoC5/PWM_2.c **** 		* Function Name: PWM_2_SetCompareMode1
 307:.\Generated_Source\PSoC5/PWM_2.c **** 		********************************************************************************
 308:.\Generated_Source\PSoC5/PWM_2.c **** 		* 
 309:.\Generated_Source\PSoC5/PWM_2.c **** 		* Summary:
 310:.\Generated_Source\PSoC5/PWM_2.c **** 		*  This function writes the Compare Mode for the pwm or pwm1 output
 311:.\Generated_Source\PSoC5/PWM_2.c **** 		*
 312:.\Generated_Source\PSoC5/PWM_2.c **** 		* Parameters:  
 313:.\Generated_Source\PSoC5/PWM_2.c **** 		*  comparemode:  The new compare mode for the PWM output. Use the compare types
 314:.\Generated_Source\PSoC5/PWM_2.c **** 		*                defined in the H file as input arguments.
 315:.\Generated_Source\PSoC5/PWM_2.c **** 		*
 316:.\Generated_Source\PSoC5/PWM_2.c **** 		* Return: 
 317:.\Generated_Source\PSoC5/PWM_2.c **** 		*  None
 318:.\Generated_Source\PSoC5/PWM_2.c **** 		*
 319:.\Generated_Source\PSoC5/PWM_2.c **** 		*******************************************************************************/
 320:.\Generated_Source\PSoC5/PWM_2.c **** 		void PWM_2_SetCompareMode1(uint8 comparemode) 
 321:.\Generated_Source\PSoC5/PWM_2.c **** 		{
 322:.\Generated_Source\PSoC5/PWM_2.c **** 		    #if(0 != PWM_2_CTRL_CMPMODE1_SHIFT)
 323:.\Generated_Source\PSoC5/PWM_2.c ****                 uint8 comparemodemasked = ((uint8)((uint8)comparemode << PWM_2_CTRL_CMPMODE1_SHIFT)
 324:.\Generated_Source\PSoC5/PWM_2.c ****     		                               PWM_2_CTRL_CMPMODE1_MASK;
ARM GAS  C:\Users\RIEKOH~1\AppData\Local\Temp\ccPvP9Wz.s 			page 11


 325:.\Generated_Source\PSoC5/PWM_2.c **** 		    #else
 326:.\Generated_Source\PSoC5/PWM_2.c ****                 uint8 comparemodemasked = comparemode & PWM_2_CTRL_CMPMODE1_MASK;                
 327:.\Generated_Source\PSoC5/PWM_2.c ****             #endif /* (0 != PWM_2_CTRL_CMPMODE1_SHIFT) */
 328:.\Generated_Source\PSoC5/PWM_2.c ****                    
 329:.\Generated_Source\PSoC5/PWM_2.c **** 		    #if (PWM_2_UseControl)
 330:.\Generated_Source\PSoC5/PWM_2.c **** 		        PWM_2_CONTROL &= ((uint8)(~PWM_2_CTRL_CMPMODE1_MASK)); /*Clear existing mode */
 331:.\Generated_Source\PSoC5/PWM_2.c **** 		        PWM_2_CONTROL |= comparemodemasked;
 332:.\Generated_Source\PSoC5/PWM_2.c **** 		    #endif /* (PWM_2_UseControl) */
 333:.\Generated_Source\PSoC5/PWM_2.c **** 		}
 334:.\Generated_Source\PSoC5/PWM_2.c **** 	#endif /* PWM_2_CompareMode1SW */
 335:.\Generated_Source\PSoC5/PWM_2.c **** 
 336:.\Generated_Source\PSoC5/PWM_2.c **** #if (PWM_2_CompareMode2SW)
 337:.\Generated_Source\PSoC5/PWM_2.c **** 
 338:.\Generated_Source\PSoC5/PWM_2.c **** 
 339:.\Generated_Source\PSoC5/PWM_2.c ****     /*******************************************************************************
 340:.\Generated_Source\PSoC5/PWM_2.c ****     * Function Name: PWM_2_SetCompareMode2
 341:.\Generated_Source\PSoC5/PWM_2.c ****     ********************************************************************************
 342:.\Generated_Source\PSoC5/PWM_2.c ****     * 
 343:.\Generated_Source\PSoC5/PWM_2.c ****     * Summary:
 344:.\Generated_Source\PSoC5/PWM_2.c ****     *  This function writes the Compare Mode for the pwm or pwm2 output
 345:.\Generated_Source\PSoC5/PWM_2.c ****     *
 346:.\Generated_Source\PSoC5/PWM_2.c ****     * Parameters:  
 347:.\Generated_Source\PSoC5/PWM_2.c ****     *  comparemode:  The new compare mode for the PWM output. Use the compare types
 348:.\Generated_Source\PSoC5/PWM_2.c ****     *                defined in the H file as input arguments.
 349:.\Generated_Source\PSoC5/PWM_2.c ****     *
 350:.\Generated_Source\PSoC5/PWM_2.c ****     * Return: 
 351:.\Generated_Source\PSoC5/PWM_2.c ****     *  None
 352:.\Generated_Source\PSoC5/PWM_2.c ****     *
 353:.\Generated_Source\PSoC5/PWM_2.c ****     *******************************************************************************/
 354:.\Generated_Source\PSoC5/PWM_2.c ****     void PWM_2_SetCompareMode2(uint8 comparemode) 
 355:.\Generated_Source\PSoC5/PWM_2.c ****     {
 356:.\Generated_Source\PSoC5/PWM_2.c **** 
 357:.\Generated_Source\PSoC5/PWM_2.c ****         #if(0 != PWM_2_CTRL_CMPMODE2_SHIFT)
 358:.\Generated_Source\PSoC5/PWM_2.c ****             uint8 comparemodemasked = ((uint8)((uint8)comparemode << PWM_2_CTRL_CMPMODE2_SHIFT)) & 
 359:.\Generated_Source\PSoC5/PWM_2.c ****                                                  PWM_2_CTRL_CMPMODE2_MASK;
 360:.\Generated_Source\PSoC5/PWM_2.c ****         #else
 361:.\Generated_Source\PSoC5/PWM_2.c ****             uint8 comparemodemasked = comparemode & PWM_2_CTRL_CMPMODE2_MASK;            
 362:.\Generated_Source\PSoC5/PWM_2.c ****         #endif /* (0 != PWM_2_CTRL_CMPMODE2_SHIFT) */
 363:.\Generated_Source\PSoC5/PWM_2.c ****         
 364:.\Generated_Source\PSoC5/PWM_2.c ****         #if (PWM_2_UseControl)
 365:.\Generated_Source\PSoC5/PWM_2.c ****             PWM_2_CONTROL &= ((uint8)(~PWM_2_CTRL_CMPMODE2_MASK)); /*Clear existing mode */
 366:.\Generated_Source\PSoC5/PWM_2.c ****             PWM_2_CONTROL |= comparemodemasked;
 367:.\Generated_Source\PSoC5/PWM_2.c ****         #endif /* (PWM_2_UseControl) */
 368:.\Generated_Source\PSoC5/PWM_2.c ****     }
 369:.\Generated_Source\PSoC5/PWM_2.c ****     #endif /*PWM_2_CompareMode2SW */
 370:.\Generated_Source\PSoC5/PWM_2.c **** 
 371:.\Generated_Source\PSoC5/PWM_2.c **** #endif /* UseOneCompareMode */
 372:.\Generated_Source\PSoC5/PWM_2.c **** 
 373:.\Generated_Source\PSoC5/PWM_2.c **** 
 374:.\Generated_Source\PSoC5/PWM_2.c **** #if (!PWM_2_UsingFixedFunction)
 375:.\Generated_Source\PSoC5/PWM_2.c **** 
 376:.\Generated_Source\PSoC5/PWM_2.c **** 
 377:.\Generated_Source\PSoC5/PWM_2.c ****     /*******************************************************************************
 378:.\Generated_Source\PSoC5/PWM_2.c ****     * Function Name: PWM_2_WriteCounter
 379:.\Generated_Source\PSoC5/PWM_2.c ****     ********************************************************************************
 380:.\Generated_Source\PSoC5/PWM_2.c ****     * 
 381:.\Generated_Source\PSoC5/PWM_2.c ****     * Summary:
ARM GAS  C:\Users\RIEKOH~1\AppData\Local\Temp\ccPvP9Wz.s 			page 12


 382:.\Generated_Source\PSoC5/PWM_2.c ****     *  Writes a new counter value directly to the counter register. This will be 
 383:.\Generated_Source\PSoC5/PWM_2.c ****     *  implemented for that currently running period and only that period. This API 
 384:.\Generated_Source\PSoC5/PWM_2.c ****     *  is valid only for UDB implementation and not available for fixed function 
 385:.\Generated_Source\PSoC5/PWM_2.c ****     *  PWM implementation.    
 386:.\Generated_Source\PSoC5/PWM_2.c ****     *
 387:.\Generated_Source\PSoC5/PWM_2.c ****     * Parameters:  
 388:.\Generated_Source\PSoC5/PWM_2.c ****     *  counter:  The period new period counter value.
 389:.\Generated_Source\PSoC5/PWM_2.c ****     *
 390:.\Generated_Source\PSoC5/PWM_2.c ****     * Return: 
 391:.\Generated_Source\PSoC5/PWM_2.c ****     *  None
 392:.\Generated_Source\PSoC5/PWM_2.c ****     *
 393:.\Generated_Source\PSoC5/PWM_2.c ****     * Side Effects: 
 394:.\Generated_Source\PSoC5/PWM_2.c ****     *  The PWM Period will be reloaded when a counter value will be a zero
 395:.\Generated_Source\PSoC5/PWM_2.c ****     *
 396:.\Generated_Source\PSoC5/PWM_2.c ****     *******************************************************************************/
 397:.\Generated_Source\PSoC5/PWM_2.c ****     void PWM_2_WriteCounter(uint16 counter) \
 398:.\Generated_Source\PSoC5/PWM_2.c ****                                        
 399:.\Generated_Source\PSoC5/PWM_2.c ****     {
 247              		.loc 1 399 0
 248              		.cfi_startproc
 249              		@ args = 0, pretend = 0, frame = 8
 250              		@ frame_needed = 1, uses_anonymous_args = 0
 251              		@ link register save eliminated.
 252 0000 80B4     		push	{r7}
 253              	.LCFI9:
 254              		.cfi_def_cfa_offset 4
 255              		.cfi_offset 7, -4
 256 0002 83B0     		sub	sp, sp, #12
 257              	.LCFI10:
 258              		.cfi_def_cfa_offset 16
 259 0004 00AF     		add	r7, sp, #0
 260              	.LCFI11:
 261              		.cfi_def_cfa_register 7
 262 0006 0346     		mov	r3, r0
 263 0008 FB80     		strh	r3, [r7, #6]	@ movhi
 400:.\Generated_Source\PSoC5/PWM_2.c ****         CY_SET_REG16(PWM_2_COUNTER_LSB_PTR, counter);
 264              		.loc 1 400 0
 265 000a 46F60403 		movw	r3, #26628
 266 000e C4F20003 		movt	r3, 16384
 267 0012 FA88     		ldrh	r2, [r7, #6]	@ movhi
 268 0014 1A80     		strh	r2, [r3, #0]	@ movhi
 401:.\Generated_Source\PSoC5/PWM_2.c ****     }
 269              		.loc 1 401 0
 270 0016 07F10C07 		add	r7, r7, #12
 271 001a BD46     		mov	sp, r7
 272 001c 80BC     		pop	{r7}
 273 001e 7047     		bx	lr
 274              		.cfi_endproc
 275              	.LFE4:
 276              		.size	PWM_2_WriteCounter, .-PWM_2_WriteCounter
 277              		.section	.text.PWM_2_ReadCounter,"ax",%progbits
 278              		.align	2
 279              		.global	PWM_2_ReadCounter
 280              		.thumb
 281              		.thumb_func
 282              		.type	PWM_2_ReadCounter, %function
 283              	PWM_2_ReadCounter:
ARM GAS  C:\Users\RIEKOH~1\AppData\Local\Temp\ccPvP9Wz.s 			page 13


 284              	.LFB5:
 402:.\Generated_Source\PSoC5/PWM_2.c **** 
 403:.\Generated_Source\PSoC5/PWM_2.c **** 
 404:.\Generated_Source\PSoC5/PWM_2.c ****     /*******************************************************************************
 405:.\Generated_Source\PSoC5/PWM_2.c ****     * Function Name: PWM_2_ReadCounter
 406:.\Generated_Source\PSoC5/PWM_2.c ****     ********************************************************************************
 407:.\Generated_Source\PSoC5/PWM_2.c ****     * 
 408:.\Generated_Source\PSoC5/PWM_2.c ****     * Summary:
 409:.\Generated_Source\PSoC5/PWM_2.c ****     *  This function returns the current value of the counter.  It doesn't matter
 410:.\Generated_Source\PSoC5/PWM_2.c ****     *  if the counter is enabled or running.
 411:.\Generated_Source\PSoC5/PWM_2.c ****     *
 412:.\Generated_Source\PSoC5/PWM_2.c ****     * Parameters:  
 413:.\Generated_Source\PSoC5/PWM_2.c ****     *  None  
 414:.\Generated_Source\PSoC5/PWM_2.c ****     *
 415:.\Generated_Source\PSoC5/PWM_2.c ****     * Return: 
 416:.\Generated_Source\PSoC5/PWM_2.c ****     *  The current value of the counter.
 417:.\Generated_Source\PSoC5/PWM_2.c ****     *
 418:.\Generated_Source\PSoC5/PWM_2.c ****     *******************************************************************************/
 419:.\Generated_Source\PSoC5/PWM_2.c ****     uint16 PWM_2_ReadCounter(void) 
 420:.\Generated_Source\PSoC5/PWM_2.c ****     {
 285              		.loc 1 420 0
 286              		.cfi_startproc
 287              		@ args = 0, pretend = 0, frame = 0
 288              		@ frame_needed = 1, uses_anonymous_args = 0
 289              		@ link register save eliminated.
 290 0000 80B4     		push	{r7}
 291              	.LCFI12:
 292              		.cfi_def_cfa_offset 4
 293              		.cfi_offset 7, -4
 294 0002 00AF     		add	r7, sp, #0
 295              	.LCFI13:
 296              		.cfi_def_cfa_register 7
 421:.\Generated_Source\PSoC5/PWM_2.c ****         /* Force capture by reading Accumulator */
 422:.\Generated_Source\PSoC5/PWM_2.c ****         /* Must first do a software capture to be able to read the counter */
 423:.\Generated_Source\PSoC5/PWM_2.c ****         /* It is up to the user code to make sure there isn't already captured data in the FIFO */
 424:.\Generated_Source\PSoC5/PWM_2.c ****         (void)PWM_2_COUNTERCAP_LSB;
 297              		.loc 1 424 0
 298 0004 46F62403 		movw	r3, #26660
 299 0008 C4F20003 		movt	r3, 16384
 300 000c 1B88     		ldrh	r3, [r3, #0]	@ movhi
 425:.\Generated_Source\PSoC5/PWM_2.c ****         
 426:.\Generated_Source\PSoC5/PWM_2.c ****         /* Read the data from the FIFO (or capture register for Fixed Function)*/
 427:.\Generated_Source\PSoC5/PWM_2.c ****         return (CY_GET_REG16(PWM_2_CAPTURE_LSB_PTR));
 301              		.loc 1 427 0
 302 000e 46F6A403 		movw	r3, #26788
 303 0012 C4F20003 		movt	r3, 16384
 304 0016 1B88     		ldrh	r3, [r3, #0]	@ movhi
 305 0018 9BB2     		uxth	r3, r3
 428:.\Generated_Source\PSoC5/PWM_2.c ****     }
 306              		.loc 1 428 0
 307 001a 1846     		mov	r0, r3
 308 001c BD46     		mov	sp, r7
 309 001e 80BC     		pop	{r7}
 310 0020 7047     		bx	lr
 311              		.cfi_endproc
 312              	.LFE5:
 313              		.size	PWM_2_ReadCounter, .-PWM_2_ReadCounter
ARM GAS  C:\Users\RIEKOH~1\AppData\Local\Temp\ccPvP9Wz.s 			page 14


 314 0022 00BF     		.section	.text.PWM_2_ClearFIFO,"ax",%progbits
 315              		.align	2
 316              		.global	PWM_2_ClearFIFO
 317              		.thumb
 318              		.thumb_func
 319              		.type	PWM_2_ClearFIFO, %function
 320              	PWM_2_ClearFIFO:
 321              	.LFB6:
 429:.\Generated_Source\PSoC5/PWM_2.c **** 
 430:.\Generated_Source\PSoC5/PWM_2.c ****         #if (PWM_2_UseStatus)
 431:.\Generated_Source\PSoC5/PWM_2.c **** 
 432:.\Generated_Source\PSoC5/PWM_2.c **** 
 433:.\Generated_Source\PSoC5/PWM_2.c ****             /*******************************************************************************
 434:.\Generated_Source\PSoC5/PWM_2.c ****             * Function Name: PWM_2_ClearFIFO
 435:.\Generated_Source\PSoC5/PWM_2.c ****             ********************************************************************************
 436:.\Generated_Source\PSoC5/PWM_2.c ****             * 
 437:.\Generated_Source\PSoC5/PWM_2.c ****             * Summary:
 438:.\Generated_Source\PSoC5/PWM_2.c ****             *  This function clears all capture data from the capture FIFO
 439:.\Generated_Source\PSoC5/PWM_2.c ****             *
 440:.\Generated_Source\PSoC5/PWM_2.c ****             * Parameters:  
 441:.\Generated_Source\PSoC5/PWM_2.c ****             *  None
 442:.\Generated_Source\PSoC5/PWM_2.c ****             *
 443:.\Generated_Source\PSoC5/PWM_2.c ****             * Return: 
 444:.\Generated_Source\PSoC5/PWM_2.c ****             *  None
 445:.\Generated_Source\PSoC5/PWM_2.c ****             *
 446:.\Generated_Source\PSoC5/PWM_2.c ****             *******************************************************************************/
 447:.\Generated_Source\PSoC5/PWM_2.c ****             void PWM_2_ClearFIFO(void) 
 448:.\Generated_Source\PSoC5/PWM_2.c ****             {
 322              		.loc 1 448 0
 323              		.cfi_startproc
 324              		@ args = 0, pretend = 0, frame = 0
 325              		@ frame_needed = 1, uses_anonymous_args = 0
 326 0000 80B5     		push	{r7, lr}
 327              	.LCFI14:
 328              		.cfi_def_cfa_offset 8
 329              		.cfi_offset 7, -8
 330              		.cfi_offset 14, -4
 331 0002 00AF     		add	r7, sp, #0
 332              	.LCFI15:
 333              		.cfi_def_cfa_register 7
 449:.\Generated_Source\PSoC5/PWM_2.c ****                 while(0u != (PWM_2_ReadStatusRegister() & PWM_2_STATUS_FIFONEMPTY))
 334              		.loc 1 449 0
 335 0004 01E0     		b	.L10
 336              	.L11:
 450:.\Generated_Source\PSoC5/PWM_2.c ****                 {
 451:.\Generated_Source\PSoC5/PWM_2.c ****                     (void)PWM_2_ReadCapture();
 337              		.loc 1 451 0
 338 0006 FFF7FEFF 		bl	PWM_2_ReadCapture
 339              	.L10:
 449:.\Generated_Source\PSoC5/PWM_2.c ****                 while(0u != (PWM_2_ReadStatusRegister() & PWM_2_STATUS_FIFONEMPTY))
 340              		.loc 1 449 0 discriminator 1
 341 000a FFF7FEFF 		bl	PWM_2_ReadStatusRegister
 342 000e 0346     		mov	r3, r0
 343 0010 03F01003 		and	r3, r3, #16
 344 0014 002B     		cmp	r3, #0
 345 0016 F6D1     		bne	.L11
 452:.\Generated_Source\PSoC5/PWM_2.c ****                 }
ARM GAS  C:\Users\RIEKOH~1\AppData\Local\Temp\ccPvP9Wz.s 			page 15


 453:.\Generated_Source\PSoC5/PWM_2.c ****             }
 346              		.loc 1 453 0
 347 0018 80BD     		pop	{r7, pc}
 348              		.cfi_endproc
 349              	.LFE6:
 350              		.size	PWM_2_ClearFIFO, .-PWM_2_ClearFIFO
 351 001a 00BF     		.section	.text.PWM_2_WritePeriod,"ax",%progbits
 352              		.align	2
 353              		.global	PWM_2_WritePeriod
 354              		.thumb
 355              		.thumb_func
 356              		.type	PWM_2_WritePeriod, %function
 357              	PWM_2_WritePeriod:
 358              	.LFB7:
 454:.\Generated_Source\PSoC5/PWM_2.c **** 
 455:.\Generated_Source\PSoC5/PWM_2.c ****         #endif /* PWM_2_UseStatus */
 456:.\Generated_Source\PSoC5/PWM_2.c **** 
 457:.\Generated_Source\PSoC5/PWM_2.c **** #endif /* !PWM_2_UsingFixedFunction */
 458:.\Generated_Source\PSoC5/PWM_2.c **** 
 459:.\Generated_Source\PSoC5/PWM_2.c **** 
 460:.\Generated_Source\PSoC5/PWM_2.c **** /*******************************************************************************
 461:.\Generated_Source\PSoC5/PWM_2.c **** * Function Name: PWM_2_WritePeriod
 462:.\Generated_Source\PSoC5/PWM_2.c **** ********************************************************************************
 463:.\Generated_Source\PSoC5/PWM_2.c **** * 
 464:.\Generated_Source\PSoC5/PWM_2.c **** * Summary:
 465:.\Generated_Source\PSoC5/PWM_2.c **** *  This function is used to change the period of the counter.  The new period 
 466:.\Generated_Source\PSoC5/PWM_2.c **** *  will be loaded the next time terminal count is detected.
 467:.\Generated_Source\PSoC5/PWM_2.c **** *
 468:.\Generated_Source\PSoC5/PWM_2.c **** * Parameters:  
 469:.\Generated_Source\PSoC5/PWM_2.c **** *  period:  Period value. May be between 1 and (2^Resolution)-1.  A value of 0 
 470:.\Generated_Source\PSoC5/PWM_2.c **** *           will result in the counter remaining at zero.
 471:.\Generated_Source\PSoC5/PWM_2.c **** *
 472:.\Generated_Source\PSoC5/PWM_2.c **** * Return: 
 473:.\Generated_Source\PSoC5/PWM_2.c **** *  None
 474:.\Generated_Source\PSoC5/PWM_2.c **** *
 475:.\Generated_Source\PSoC5/PWM_2.c **** *******************************************************************************/
 476:.\Generated_Source\PSoC5/PWM_2.c **** void PWM_2_WritePeriod(uint16 period) 
 477:.\Generated_Source\PSoC5/PWM_2.c **** {
 359              		.loc 1 477 0
 360              		.cfi_startproc
 361              		@ args = 0, pretend = 0, frame = 8
 362              		@ frame_needed = 1, uses_anonymous_args = 0
 363              		@ link register save eliminated.
 364 0000 80B4     		push	{r7}
 365              	.LCFI16:
 366              		.cfi_def_cfa_offset 4
 367              		.cfi_offset 7, -4
 368 0002 83B0     		sub	sp, sp, #12
 369              	.LCFI17:
 370              		.cfi_def_cfa_offset 16
 371 0004 00AF     		add	r7, sp, #0
 372              	.LCFI18:
 373              		.cfi_def_cfa_register 7
 374 0006 0346     		mov	r3, r0
 375 0008 FB80     		strh	r3, [r7, #6]	@ movhi
 478:.\Generated_Source\PSoC5/PWM_2.c ****     #if(PWM_2_UsingFixedFunction)
 479:.\Generated_Source\PSoC5/PWM_2.c ****         CY_SET_REG16(PWM_2_PERIOD_LSB_PTR, (uint16)period);
ARM GAS  C:\Users\RIEKOH~1\AppData\Local\Temp\ccPvP9Wz.s 			page 16


 480:.\Generated_Source\PSoC5/PWM_2.c ****     #else
 481:.\Generated_Source\PSoC5/PWM_2.c ****         CY_SET_REG16(PWM_2_PERIOD_LSB_PTR, period);
 376              		.loc 1 481 0
 377 000a 46F68403 		movw	r3, #26756
 378 000e C4F20003 		movt	r3, 16384
 379 0012 FA88     		ldrh	r2, [r7, #6]	@ movhi
 380 0014 1A80     		strh	r2, [r3, #0]	@ movhi
 482:.\Generated_Source\PSoC5/PWM_2.c ****     #endif /* (PWM_2_UsingFixedFunction) */
 483:.\Generated_Source\PSoC5/PWM_2.c **** }
 381              		.loc 1 483 0
 382 0016 07F10C07 		add	r7, r7, #12
 383 001a BD46     		mov	sp, r7
 384 001c 80BC     		pop	{r7}
 385 001e 7047     		bx	lr
 386              		.cfi_endproc
 387              	.LFE7:
 388              		.size	PWM_2_WritePeriod, .-PWM_2_WritePeriod
 389              		.section	.text.PWM_2_WriteCompare1,"ax",%progbits
 390              		.align	2
 391              		.global	PWM_2_WriteCompare1
 392              		.thumb
 393              		.thumb_func
 394              		.type	PWM_2_WriteCompare1, %function
 395              	PWM_2_WriteCompare1:
 396              	.LFB8:
 484:.\Generated_Source\PSoC5/PWM_2.c **** 
 485:.\Generated_Source\PSoC5/PWM_2.c **** #if (PWM_2_UseOneCompareMode)
 486:.\Generated_Source\PSoC5/PWM_2.c **** 
 487:.\Generated_Source\PSoC5/PWM_2.c **** 
 488:.\Generated_Source\PSoC5/PWM_2.c ****     /*******************************************************************************
 489:.\Generated_Source\PSoC5/PWM_2.c ****     * Function Name: PWM_2_WriteCompare
 490:.\Generated_Source\PSoC5/PWM_2.c ****     ********************************************************************************
 491:.\Generated_Source\PSoC5/PWM_2.c ****     * 
 492:.\Generated_Source\PSoC5/PWM_2.c ****     * Summary:
 493:.\Generated_Source\PSoC5/PWM_2.c ****     *  This funtion is used to change the compare1 value when the PWM is in Dither
 494:.\Generated_Source\PSoC5/PWM_2.c ****     *  mode. The compare output will reflect the new value on the next UDB clock. 
 495:.\Generated_Source\PSoC5/PWM_2.c ****     *  The compare output will be driven high when the present counter value is 
 496:.\Generated_Source\PSoC5/PWM_2.c ****     *  compared to the compare value based on the compare mode defined in 
 497:.\Generated_Source\PSoC5/PWM_2.c ****     *  Dither Mode.
 498:.\Generated_Source\PSoC5/PWM_2.c ****     *
 499:.\Generated_Source\PSoC5/PWM_2.c ****     * Parameters:  
 500:.\Generated_Source\PSoC5/PWM_2.c ****     *  compare:  New compare value.  
 501:.\Generated_Source\PSoC5/PWM_2.c ****     *
 502:.\Generated_Source\PSoC5/PWM_2.c ****     * Return: 
 503:.\Generated_Source\PSoC5/PWM_2.c ****     *  None
 504:.\Generated_Source\PSoC5/PWM_2.c ****     *
 505:.\Generated_Source\PSoC5/PWM_2.c ****     * Side Effects:
 506:.\Generated_Source\PSoC5/PWM_2.c ****     *  This function is only available if the PWM mode parameter is set to
 507:.\Generated_Source\PSoC5/PWM_2.c ****     *  Dither Mode, Center Aligned Mode or One Output Mode
 508:.\Generated_Source\PSoC5/PWM_2.c ****     *
 509:.\Generated_Source\PSoC5/PWM_2.c ****     *******************************************************************************/
 510:.\Generated_Source\PSoC5/PWM_2.c ****     void PWM_2_WriteCompare(uint16 compare) \
 511:.\Generated_Source\PSoC5/PWM_2.c ****                                        
 512:.\Generated_Source\PSoC5/PWM_2.c ****     {	
 513:.\Generated_Source\PSoC5/PWM_2.c **** 		#if(PWM_2_UsingFixedFunction)
 514:.\Generated_Source\PSoC5/PWM_2.c **** 			CY_SET_REG16(PWM_2_COMPARE1_LSB_PTR, (uint16)compare);
 515:.\Generated_Source\PSoC5/PWM_2.c **** 		#else
ARM GAS  C:\Users\RIEKOH~1\AppData\Local\Temp\ccPvP9Wz.s 			page 17


 516:.\Generated_Source\PSoC5/PWM_2.c **** 	        CY_SET_REG16(PWM_2_COMPARE1_LSB_PTR, compare);	
 517:.\Generated_Source\PSoC5/PWM_2.c **** 		#endif /* (PWM_2_UsingFixedFunction) */
 518:.\Generated_Source\PSoC5/PWM_2.c ****         
 519:.\Generated_Source\PSoC5/PWM_2.c ****         #if (PWM_2_PWMMode == PWM_2__B_PWM__DITHER)
 520:.\Generated_Source\PSoC5/PWM_2.c ****             #if(PWM_2_UsingFixedFunction)
 521:.\Generated_Source\PSoC5/PWM_2.c ****     			CY_SET_REG16(PWM_2_COMPARE2_LSB_PTR, (uint16)(compare + 1u));
 522:.\Generated_Source\PSoC5/PWM_2.c ****     		#else
 523:.\Generated_Source\PSoC5/PWM_2.c ****     	        CY_SET_REG16(PWM_2_COMPARE2_LSB_PTR, (compare + 1u));	
 524:.\Generated_Source\PSoC5/PWM_2.c ****     		#endif /* (PWM_2_UsingFixedFunction) */
 525:.\Generated_Source\PSoC5/PWM_2.c ****         #endif /* (PWM_2_PWMMode == PWM_2__B_PWM__DITHER) */
 526:.\Generated_Source\PSoC5/PWM_2.c ****     }
 527:.\Generated_Source\PSoC5/PWM_2.c **** 
 528:.\Generated_Source\PSoC5/PWM_2.c **** 
 529:.\Generated_Source\PSoC5/PWM_2.c **** #else
 530:.\Generated_Source\PSoC5/PWM_2.c **** 
 531:.\Generated_Source\PSoC5/PWM_2.c **** 
 532:.\Generated_Source\PSoC5/PWM_2.c ****     /*******************************************************************************
 533:.\Generated_Source\PSoC5/PWM_2.c ****     * Function Name: PWM_2_WriteCompare1
 534:.\Generated_Source\PSoC5/PWM_2.c ****     ********************************************************************************
 535:.\Generated_Source\PSoC5/PWM_2.c ****     * 
 536:.\Generated_Source\PSoC5/PWM_2.c ****     * Summary:
 537:.\Generated_Source\PSoC5/PWM_2.c ****     *  This funtion is used to change the compare1 value.  The compare output will 
 538:.\Generated_Source\PSoC5/PWM_2.c ****     *  reflect the new value on the next UDB clock.  The compare output will be 
 539:.\Generated_Source\PSoC5/PWM_2.c ****     *  driven high when the present counter value is less than or less than or 
 540:.\Generated_Source\PSoC5/PWM_2.c ****     *  equal to the compare register, depending on the mode.
 541:.\Generated_Source\PSoC5/PWM_2.c ****     *
 542:.\Generated_Source\PSoC5/PWM_2.c ****     * Parameters:  
 543:.\Generated_Source\PSoC5/PWM_2.c ****     *  compare:  New compare value.  
 544:.\Generated_Source\PSoC5/PWM_2.c ****     *
 545:.\Generated_Source\PSoC5/PWM_2.c ****     * Return: 
 546:.\Generated_Source\PSoC5/PWM_2.c ****     *  None
 547:.\Generated_Source\PSoC5/PWM_2.c ****     *
 548:.\Generated_Source\PSoC5/PWM_2.c ****     *******************************************************************************/
 549:.\Generated_Source\PSoC5/PWM_2.c ****     void PWM_2_WriteCompare1(uint16 compare) \
 550:.\Generated_Source\PSoC5/PWM_2.c ****                                         
 551:.\Generated_Source\PSoC5/PWM_2.c ****     {
 397              		.loc 1 551 0
 398              		.cfi_startproc
 399              		@ args = 0, pretend = 0, frame = 8
 400              		@ frame_needed = 1, uses_anonymous_args = 0
 401              		@ link register save eliminated.
 402 0000 80B4     		push	{r7}
 403              	.LCFI19:
 404              		.cfi_def_cfa_offset 4
 405              		.cfi_offset 7, -4
 406 0002 83B0     		sub	sp, sp, #12
 407              	.LCFI20:
 408              		.cfi_def_cfa_offset 16
 409 0004 00AF     		add	r7, sp, #0
 410              	.LCFI21:
 411              		.cfi_def_cfa_register 7
 412 0006 0346     		mov	r3, r0
 413 0008 FB80     		strh	r3, [r7, #6]	@ movhi
 552:.\Generated_Source\PSoC5/PWM_2.c ****         #if(PWM_2_UsingFixedFunction)
 553:.\Generated_Source\PSoC5/PWM_2.c ****             CY_SET_REG16(PWM_2_COMPARE1_LSB_PTR, (uint16)compare);
 554:.\Generated_Source\PSoC5/PWM_2.c ****         #else
 555:.\Generated_Source\PSoC5/PWM_2.c ****             CY_SET_REG16(PWM_2_COMPARE1_LSB_PTR, compare);
ARM GAS  C:\Users\RIEKOH~1\AppData\Local\Temp\ccPvP9Wz.s 			page 18


 414              		.loc 1 555 0
 415 000a 46F64403 		movw	r3, #26692
 416 000e C4F20003 		movt	r3, 16384
 417 0012 FA88     		ldrh	r2, [r7, #6]	@ movhi
 418 0014 1A80     		strh	r2, [r3, #0]	@ movhi
 556:.\Generated_Source\PSoC5/PWM_2.c ****         #endif /* (PWM_2_UsingFixedFunction) */
 557:.\Generated_Source\PSoC5/PWM_2.c ****     }
 419              		.loc 1 557 0
 420 0016 07F10C07 		add	r7, r7, #12
 421 001a BD46     		mov	sp, r7
 422 001c 80BC     		pop	{r7}
 423 001e 7047     		bx	lr
 424              		.cfi_endproc
 425              	.LFE8:
 426              		.size	PWM_2_WriteCompare1, .-PWM_2_WriteCompare1
 427              		.section	.text.PWM_2_WriteCompare2,"ax",%progbits
 428              		.align	2
 429              		.global	PWM_2_WriteCompare2
 430              		.thumb
 431              		.thumb_func
 432              		.type	PWM_2_WriteCompare2, %function
 433              	PWM_2_WriteCompare2:
 434              	.LFB9:
 558:.\Generated_Source\PSoC5/PWM_2.c **** 
 559:.\Generated_Source\PSoC5/PWM_2.c **** 
 560:.\Generated_Source\PSoC5/PWM_2.c ****     /*******************************************************************************
 561:.\Generated_Source\PSoC5/PWM_2.c ****     * Function Name: PWM_2_WriteCompare2
 562:.\Generated_Source\PSoC5/PWM_2.c ****     ********************************************************************************
 563:.\Generated_Source\PSoC5/PWM_2.c ****     * 
 564:.\Generated_Source\PSoC5/PWM_2.c ****     * Summary:
 565:.\Generated_Source\PSoC5/PWM_2.c ****     *  This funtion is used to change the compare value, for compare1 output.  
 566:.\Generated_Source\PSoC5/PWM_2.c ****     *  The compare output will reflect the new value on the next UDB clock.  
 567:.\Generated_Source\PSoC5/PWM_2.c ****     *  The compare output will be driven high when the present counter value is 
 568:.\Generated_Source\PSoC5/PWM_2.c ****     *  less than or less than or equal to the compare register, depending on the 
 569:.\Generated_Source\PSoC5/PWM_2.c ****     *  mode.
 570:.\Generated_Source\PSoC5/PWM_2.c ****     *
 571:.\Generated_Source\PSoC5/PWM_2.c ****     * Parameters:  
 572:.\Generated_Source\PSoC5/PWM_2.c ****     *  compare:  New compare value.  
 573:.\Generated_Source\PSoC5/PWM_2.c ****     *
 574:.\Generated_Source\PSoC5/PWM_2.c ****     * Return: 
 575:.\Generated_Source\PSoC5/PWM_2.c ****     *  None
 576:.\Generated_Source\PSoC5/PWM_2.c ****     *
 577:.\Generated_Source\PSoC5/PWM_2.c ****     *******************************************************************************/
 578:.\Generated_Source\PSoC5/PWM_2.c ****     void PWM_2_WriteCompare2(uint16 compare) \
 579:.\Generated_Source\PSoC5/PWM_2.c ****                                         
 580:.\Generated_Source\PSoC5/PWM_2.c ****     {
 435              		.loc 1 580 0
 436              		.cfi_startproc
 437              		@ args = 0, pretend = 0, frame = 8
 438              		@ frame_needed = 1, uses_anonymous_args = 0
 439              		@ link register save eliminated.
 440 0000 80B4     		push	{r7}
 441              	.LCFI22:
 442              		.cfi_def_cfa_offset 4
 443              		.cfi_offset 7, -4
 444 0002 83B0     		sub	sp, sp, #12
 445              	.LCFI23:
ARM GAS  C:\Users\RIEKOH~1\AppData\Local\Temp\ccPvP9Wz.s 			page 19


 446              		.cfi_def_cfa_offset 16
 447 0004 00AF     		add	r7, sp, #0
 448              	.LCFI24:
 449              		.cfi_def_cfa_register 7
 450 0006 0346     		mov	r3, r0
 451 0008 FB80     		strh	r3, [r7, #6]	@ movhi
 581:.\Generated_Source\PSoC5/PWM_2.c ****         #if(PWM_2_UsingFixedFunction)
 582:.\Generated_Source\PSoC5/PWM_2.c ****             CY_SET_REG16(PWM_2_COMPARE2_LSB_PTR, compare);
 583:.\Generated_Source\PSoC5/PWM_2.c ****         #else
 584:.\Generated_Source\PSoC5/PWM_2.c ****             CY_SET_REG16(PWM_2_COMPARE2_LSB_PTR, compare);
 452              		.loc 1 584 0
 453 000a 46F66403 		movw	r3, #26724
 454 000e C4F20003 		movt	r3, 16384
 455 0012 FA88     		ldrh	r2, [r7, #6]	@ movhi
 456 0014 1A80     		strh	r2, [r3, #0]	@ movhi
 585:.\Generated_Source\PSoC5/PWM_2.c ****         #endif /* (PWM_2_UsingFixedFunction) */
 586:.\Generated_Source\PSoC5/PWM_2.c ****     }
 457              		.loc 1 586 0
 458 0016 07F10C07 		add	r7, r7, #12
 459 001a BD46     		mov	sp, r7
 460 001c 80BC     		pop	{r7}
 461 001e 7047     		bx	lr
 462              		.cfi_endproc
 463              	.LFE9:
 464              		.size	PWM_2_WriteCompare2, .-PWM_2_WriteCompare2
 465              		.section	.text.PWM_2_SetInterruptMode,"ax",%progbits
 466              		.align	2
 467              		.global	PWM_2_SetInterruptMode
 468              		.thumb
 469              		.thumb_func
 470              		.type	PWM_2_SetInterruptMode, %function
 471              	PWM_2_SetInterruptMode:
 472              	.LFB10:
 587:.\Generated_Source\PSoC5/PWM_2.c **** #endif /* UseOneCompareMode */
 588:.\Generated_Source\PSoC5/PWM_2.c **** 
 589:.\Generated_Source\PSoC5/PWM_2.c **** #if (PWM_2_DeadBandUsed)
 590:.\Generated_Source\PSoC5/PWM_2.c **** 
 591:.\Generated_Source\PSoC5/PWM_2.c **** 
 592:.\Generated_Source\PSoC5/PWM_2.c ****     /*******************************************************************************
 593:.\Generated_Source\PSoC5/PWM_2.c ****     * Function Name: PWM_2_WriteDeadTime
 594:.\Generated_Source\PSoC5/PWM_2.c ****     ********************************************************************************
 595:.\Generated_Source\PSoC5/PWM_2.c ****     * 
 596:.\Generated_Source\PSoC5/PWM_2.c ****     * Summary:
 597:.\Generated_Source\PSoC5/PWM_2.c ****     *  This function writes the dead-band counts to the corresponding register
 598:.\Generated_Source\PSoC5/PWM_2.c ****     *
 599:.\Generated_Source\PSoC5/PWM_2.c ****     * Parameters:  
 600:.\Generated_Source\PSoC5/PWM_2.c ****     *  deadtime:  Number of counts for dead time 
 601:.\Generated_Source\PSoC5/PWM_2.c ****     *
 602:.\Generated_Source\PSoC5/PWM_2.c ****     * Return: 
 603:.\Generated_Source\PSoC5/PWM_2.c ****     *  None
 604:.\Generated_Source\PSoC5/PWM_2.c ****     *
 605:.\Generated_Source\PSoC5/PWM_2.c ****     *******************************************************************************/
 606:.\Generated_Source\PSoC5/PWM_2.c ****     void PWM_2_WriteDeadTime(uint8 deadtime) 
 607:.\Generated_Source\PSoC5/PWM_2.c ****     {
 608:.\Generated_Source\PSoC5/PWM_2.c ****         /* If using the Dead Band 1-255 mode then just write the register */
 609:.\Generated_Source\PSoC5/PWM_2.c ****         #if(!PWM_2_DeadBand2_4)
 610:.\Generated_Source\PSoC5/PWM_2.c ****             CY_SET_REG8(PWM_2_DEADBAND_COUNT_PTR, deadtime);
ARM GAS  C:\Users\RIEKOH~1\AppData\Local\Temp\ccPvP9Wz.s 			page 20


 611:.\Generated_Source\PSoC5/PWM_2.c ****         #else
 612:.\Generated_Source\PSoC5/PWM_2.c ****             /* Otherwise the data has to be masked and offset */        
 613:.\Generated_Source\PSoC5/PWM_2.c ****             /* Clear existing data */
 614:.\Generated_Source\PSoC5/PWM_2.c ****             PWM_2_DEADBAND_COUNT &= ((uint8)(~PWM_2_DEADBAND_COUNT_MASK));
 615:.\Generated_Source\PSoC5/PWM_2.c ****             
 616:.\Generated_Source\PSoC5/PWM_2.c ****             /* Set new dead time */
 617:.\Generated_Source\PSoC5/PWM_2.c ****             #if(PWM_2_DEADBAND_COUNT_SHIFT)        
 618:.\Generated_Source\PSoC5/PWM_2.c ****                 PWM_2_DEADBAND_COUNT |= ((uint8)((uint8)deadtime << PWM_2_DEADBAND_COUNT_SHIFT)) & 
 619:.\Generated_Source\PSoC5/PWM_2.c ****                                                     PWM_2_DEADBAND_COUNT_MASK;
 620:.\Generated_Source\PSoC5/PWM_2.c ****             #else
 621:.\Generated_Source\PSoC5/PWM_2.c ****                 PWM_2_DEADBAND_COUNT |= deadtime & PWM_2_DEADBAND_COUNT_MASK;        
 622:.\Generated_Source\PSoC5/PWM_2.c ****             #endif /* (PWM_2_DEADBAND_COUNT_SHIFT) */
 623:.\Generated_Source\PSoC5/PWM_2.c ****         
 624:.\Generated_Source\PSoC5/PWM_2.c ****         #endif /* (!PWM_2_DeadBand2_4) */
 625:.\Generated_Source\PSoC5/PWM_2.c ****     }
 626:.\Generated_Source\PSoC5/PWM_2.c **** 
 627:.\Generated_Source\PSoC5/PWM_2.c **** 
 628:.\Generated_Source\PSoC5/PWM_2.c ****     /*******************************************************************************
 629:.\Generated_Source\PSoC5/PWM_2.c ****     * Function Name: PWM_2_ReadDeadTime
 630:.\Generated_Source\PSoC5/PWM_2.c ****     ********************************************************************************
 631:.\Generated_Source\PSoC5/PWM_2.c ****     * 
 632:.\Generated_Source\PSoC5/PWM_2.c ****     * Summary:
 633:.\Generated_Source\PSoC5/PWM_2.c ****     *  This function reads the dead-band counts from the corresponding register
 634:.\Generated_Source\PSoC5/PWM_2.c ****     *
 635:.\Generated_Source\PSoC5/PWM_2.c ****     * Parameters:  
 636:.\Generated_Source\PSoC5/PWM_2.c ****     *  None
 637:.\Generated_Source\PSoC5/PWM_2.c ****     *
 638:.\Generated_Source\PSoC5/PWM_2.c ****     * Return: 
 639:.\Generated_Source\PSoC5/PWM_2.c ****     *  Dead Band Counts
 640:.\Generated_Source\PSoC5/PWM_2.c ****     *
 641:.\Generated_Source\PSoC5/PWM_2.c ****     *******************************************************************************/
 642:.\Generated_Source\PSoC5/PWM_2.c ****     uint8 PWM_2_ReadDeadTime(void) 
 643:.\Generated_Source\PSoC5/PWM_2.c ****     {
 644:.\Generated_Source\PSoC5/PWM_2.c ****         /* If using the Dead Band 1-255 mode then just read the register */
 645:.\Generated_Source\PSoC5/PWM_2.c ****         #if(!PWM_2_DeadBand2_4)
 646:.\Generated_Source\PSoC5/PWM_2.c ****             return (CY_GET_REG8(PWM_2_DEADBAND_COUNT_PTR));
 647:.\Generated_Source\PSoC5/PWM_2.c ****         #else
 648:.\Generated_Source\PSoC5/PWM_2.c ****         
 649:.\Generated_Source\PSoC5/PWM_2.c ****             /* Otherwise the data has to be masked and offset */
 650:.\Generated_Source\PSoC5/PWM_2.c ****             #if(PWM_2_DEADBAND_COUNT_SHIFT)      
 651:.\Generated_Source\PSoC5/PWM_2.c ****                 return ((uint8)(((uint8)(PWM_2_DEADBAND_COUNT & PWM_2_DEADBAND_COUNT_MASK)) >> 
 652:.\Generated_Source\PSoC5/PWM_2.c ****                                                                            PWM_2_DEADBAND_COUNT_SHI
 653:.\Generated_Source\PSoC5/PWM_2.c ****             #else
 654:.\Generated_Source\PSoC5/PWM_2.c ****                 return (PWM_2_DEADBAND_COUNT & PWM_2_DEADBAND_COUNT_MASK);
 655:.\Generated_Source\PSoC5/PWM_2.c ****             #endif /* (PWM_2_DEADBAND_COUNT_SHIFT) */
 656:.\Generated_Source\PSoC5/PWM_2.c ****         #endif /* (!PWM_2_DeadBand2_4) */
 657:.\Generated_Source\PSoC5/PWM_2.c ****     }
 658:.\Generated_Source\PSoC5/PWM_2.c **** #endif /* DeadBandUsed */
 659:.\Generated_Source\PSoC5/PWM_2.c **** 
 660:.\Generated_Source\PSoC5/PWM_2.c **** #if (PWM_2_UseStatus || PWM_2_UsingFixedFunction)
 661:.\Generated_Source\PSoC5/PWM_2.c **** 
 662:.\Generated_Source\PSoC5/PWM_2.c **** 
 663:.\Generated_Source\PSoC5/PWM_2.c ****     /*******************************************************************************
 664:.\Generated_Source\PSoC5/PWM_2.c ****     * Function Name: PWM_2_SetInterruptMode
 665:.\Generated_Source\PSoC5/PWM_2.c ****     ********************************************************************************
 666:.\Generated_Source\PSoC5/PWM_2.c ****     * 
 667:.\Generated_Source\PSoC5/PWM_2.c ****     * Summary:
ARM GAS  C:\Users\RIEKOH~1\AppData\Local\Temp\ccPvP9Wz.s 			page 21


 668:.\Generated_Source\PSoC5/PWM_2.c ****     *  This function configures the interrupts mask control of theinterrupt 
 669:.\Generated_Source\PSoC5/PWM_2.c ****     *  source status register.
 670:.\Generated_Source\PSoC5/PWM_2.c ****     *
 671:.\Generated_Source\PSoC5/PWM_2.c ****     * Parameters:  
 672:.\Generated_Source\PSoC5/PWM_2.c ****     *  uint8 interruptMode: Bit field containing the interrupt sources enabled 
 673:.\Generated_Source\PSoC5/PWM_2.c ****     *
 674:.\Generated_Source\PSoC5/PWM_2.c ****     * Return: 
 675:.\Generated_Source\PSoC5/PWM_2.c ****     *  None
 676:.\Generated_Source\PSoC5/PWM_2.c ****     *
 677:.\Generated_Source\PSoC5/PWM_2.c ****     *******************************************************************************/
 678:.\Generated_Source\PSoC5/PWM_2.c ****     void PWM_2_SetInterruptMode(uint8 interruptMode)  
 679:.\Generated_Source\PSoC5/PWM_2.c ****     {
 473              		.loc 1 679 0
 474              		.cfi_startproc
 475              		@ args = 0, pretend = 0, frame = 8
 476              		@ frame_needed = 1, uses_anonymous_args = 0
 477              		@ link register save eliminated.
 478 0000 80B4     		push	{r7}
 479              	.LCFI25:
 480              		.cfi_def_cfa_offset 4
 481              		.cfi_offset 7, -4
 482 0002 83B0     		sub	sp, sp, #12
 483              	.LCFI26:
 484              		.cfi_def_cfa_offset 16
 485 0004 00AF     		add	r7, sp, #0
 486              	.LCFI27:
 487              		.cfi_def_cfa_register 7
 488 0006 0346     		mov	r3, r0
 489 0008 FB71     		strb	r3, [r7, #7]
 680:.\Generated_Source\PSoC5/PWM_2.c ****     	CY_SET_REG8(PWM_2_STATUS_MASK_PTR, interruptMode);
 490              		.loc 1 680 0
 491 000a 46F28343 		movw	r3, #25731
 492 000e C4F20003 		movt	r3, 16384
 493 0012 FA79     		ldrb	r2, [r7, #7]
 494 0014 1A70     		strb	r2, [r3, #0]
 681:.\Generated_Source\PSoC5/PWM_2.c ****     }
 495              		.loc 1 681 0
 496 0016 07F10C07 		add	r7, r7, #12
 497 001a BD46     		mov	sp, r7
 498 001c 80BC     		pop	{r7}
 499 001e 7047     		bx	lr
 500              		.cfi_endproc
 501              	.LFE10:
 502              		.size	PWM_2_SetInterruptMode, .-PWM_2_SetInterruptMode
 503              		.section	.text.PWM_2_ReadStatusRegister,"ax",%progbits
 504              		.align	2
 505              		.global	PWM_2_ReadStatusRegister
 506              		.thumb
 507              		.thumb_func
 508              		.type	PWM_2_ReadStatusRegister, %function
 509              	PWM_2_ReadStatusRegister:
 510              	.LFB11:
 682:.\Generated_Source\PSoC5/PWM_2.c **** 
 683:.\Generated_Source\PSoC5/PWM_2.c **** 
 684:.\Generated_Source\PSoC5/PWM_2.c ****     /*******************************************************************************
 685:.\Generated_Source\PSoC5/PWM_2.c ****     * Function Name: PWM_2_ReadStatusRegister
 686:.\Generated_Source\PSoC5/PWM_2.c ****     ********************************************************************************
ARM GAS  C:\Users\RIEKOH~1\AppData\Local\Temp\ccPvP9Wz.s 			page 22


 687:.\Generated_Source\PSoC5/PWM_2.c ****     * 
 688:.\Generated_Source\PSoC5/PWM_2.c ****     * Summary:
 689:.\Generated_Source\PSoC5/PWM_2.c ****     *  This function returns the current state of the status register. 
 690:.\Generated_Source\PSoC5/PWM_2.c ****     *
 691:.\Generated_Source\PSoC5/PWM_2.c ****     * Parameters:  
 692:.\Generated_Source\PSoC5/PWM_2.c ****     *  None
 693:.\Generated_Source\PSoC5/PWM_2.c ****     *
 694:.\Generated_Source\PSoC5/PWM_2.c ****     * Return: 
 695:.\Generated_Source\PSoC5/PWM_2.c ****     *  uint8 : Current status register value. The status register bits are:
 696:.\Generated_Source\PSoC5/PWM_2.c ****     *  [7:6] : Unused(0)
 697:.\Generated_Source\PSoC5/PWM_2.c ****     *  [5]   : Kill event output
 698:.\Generated_Source\PSoC5/PWM_2.c ****     *  [4]   : FIFO not empty
 699:.\Generated_Source\PSoC5/PWM_2.c ****     *  [3]   : FIFO full
 700:.\Generated_Source\PSoC5/PWM_2.c ****     *  [2]   : Terminal count
 701:.\Generated_Source\PSoC5/PWM_2.c ****     *  [1]   : Compare output 2
 702:.\Generated_Source\PSoC5/PWM_2.c ****     *  [0]   : Compare output 1
 703:.\Generated_Source\PSoC5/PWM_2.c ****     *
 704:.\Generated_Source\PSoC5/PWM_2.c ****     *******************************************************************************/
 705:.\Generated_Source\PSoC5/PWM_2.c ****     uint8 PWM_2_ReadStatusRegister(void)   
 706:.\Generated_Source\PSoC5/PWM_2.c ****     {
 511              		.loc 1 706 0
 512              		.cfi_startproc
 513              		@ args = 0, pretend = 0, frame = 8
 514              		@ frame_needed = 1, uses_anonymous_args = 0
 515              		@ link register save eliminated.
 516 0000 80B4     		push	{r7}
 517              	.LCFI28:
 518              		.cfi_def_cfa_offset 4
 519              		.cfi_offset 7, -4
 520 0002 83B0     		sub	sp, sp, #12
 521              	.LCFI29:
 522              		.cfi_def_cfa_offset 16
 523 0004 00AF     		add	r7, sp, #0
 524              	.LCFI30:
 525              		.cfi_def_cfa_register 7
 707:.\Generated_Source\PSoC5/PWM_2.c ****     	uint8 result;
 708:.\Generated_Source\PSoC5/PWM_2.c ****     	
 709:.\Generated_Source\PSoC5/PWM_2.c ****     	result = CY_GET_REG8(PWM_2_STATUS_PTR);
 526              		.loc 1 709 0
 527 0006 46F26343 		movw	r3, #25699
 528 000a C4F20003 		movt	r3, 16384
 529 000e 1B78     		ldrb	r3, [r3, #0]
 530 0010 FB71     		strb	r3, [r7, #7]
 710:.\Generated_Source\PSoC5/PWM_2.c ****     	return (result);
 531              		.loc 1 710 0
 532 0012 FB79     		ldrb	r3, [r7, #7]	@ zero_extendqisi2
 711:.\Generated_Source\PSoC5/PWM_2.c ****     }
 533              		.loc 1 711 0
 534 0014 1846     		mov	r0, r3
 535 0016 07F10C07 		add	r7, r7, #12
 536 001a BD46     		mov	sp, r7
 537 001c 80BC     		pop	{r7}
 538 001e 7047     		bx	lr
 539              		.cfi_endproc
 540              	.LFE11:
 541              		.size	PWM_2_ReadStatusRegister, .-PWM_2_ReadStatusRegister
 542              		.section	.text.PWM_2_ReadControlRegister,"ax",%progbits
ARM GAS  C:\Users\RIEKOH~1\AppData\Local\Temp\ccPvP9Wz.s 			page 23


 543              		.align	2
 544              		.global	PWM_2_ReadControlRegister
 545              		.thumb
 546              		.thumb_func
 547              		.type	PWM_2_ReadControlRegister, %function
 548              	PWM_2_ReadControlRegister:
 549              	.LFB12:
 712:.\Generated_Source\PSoC5/PWM_2.c **** 
 713:.\Generated_Source\PSoC5/PWM_2.c **** #endif /* (PWM_2_UseStatus || PWM_2_UsingFixedFunction) */
 714:.\Generated_Source\PSoC5/PWM_2.c **** 
 715:.\Generated_Source\PSoC5/PWM_2.c **** 
 716:.\Generated_Source\PSoC5/PWM_2.c **** #if (PWM_2_UseControl)
 717:.\Generated_Source\PSoC5/PWM_2.c **** 
 718:.\Generated_Source\PSoC5/PWM_2.c **** 
 719:.\Generated_Source\PSoC5/PWM_2.c ****     /*******************************************************************************
 720:.\Generated_Source\PSoC5/PWM_2.c ****     * Function Name: PWM_2_ReadControlRegister
 721:.\Generated_Source\PSoC5/PWM_2.c ****     ********************************************************************************
 722:.\Generated_Source\PSoC5/PWM_2.c ****     * 
 723:.\Generated_Source\PSoC5/PWM_2.c ****     * Summary:
 724:.\Generated_Source\PSoC5/PWM_2.c ****     *  Returns the current state of the control register. This API is available 
 725:.\Generated_Source\PSoC5/PWM_2.c ****     *  only if the control register is not removed.
 726:.\Generated_Source\PSoC5/PWM_2.c ****     *
 727:.\Generated_Source\PSoC5/PWM_2.c ****     * Parameters:  
 728:.\Generated_Source\PSoC5/PWM_2.c ****     *  None 
 729:.\Generated_Source\PSoC5/PWM_2.c ****     *
 730:.\Generated_Source\PSoC5/PWM_2.c ****     * Return: 
 731:.\Generated_Source\PSoC5/PWM_2.c ****     *  uint8 : Current control register value
 732:.\Generated_Source\PSoC5/PWM_2.c ****     *
 733:.\Generated_Source\PSoC5/PWM_2.c ****     *******************************************************************************/    
 734:.\Generated_Source\PSoC5/PWM_2.c ****     uint8 PWM_2_ReadControlRegister(void) 
 735:.\Generated_Source\PSoC5/PWM_2.c ****     {
 550              		.loc 1 735 0
 551              		.cfi_startproc
 552              		@ args = 0, pretend = 0, frame = 8
 553              		@ frame_needed = 1, uses_anonymous_args = 0
 554              		@ link register save eliminated.
 555 0000 80B4     		push	{r7}
 556              	.LCFI31:
 557              		.cfi_def_cfa_offset 4
 558              		.cfi_offset 7, -4
 559 0002 83B0     		sub	sp, sp, #12
 560              	.LCFI32:
 561              		.cfi_def_cfa_offset 16
 562 0004 00AF     		add	r7, sp, #0
 563              	.LCFI33:
 564              		.cfi_def_cfa_register 7
 736:.\Generated_Source\PSoC5/PWM_2.c ****     	uint8 result;
 737:.\Generated_Source\PSoC5/PWM_2.c ****     	
 738:.\Generated_Source\PSoC5/PWM_2.c ****     	result = CY_GET_REG8(PWM_2_CONTROL_PTR);
 565              		.loc 1 738 0
 566 0006 46F27243 		movw	r3, #25714
 567 000a C4F20003 		movt	r3, 16384
 568 000e 1B78     		ldrb	r3, [r3, #0]
 569 0010 FB71     		strb	r3, [r7, #7]
 739:.\Generated_Source\PSoC5/PWM_2.c ****     	return (result);
 570              		.loc 1 739 0
 571 0012 FB79     		ldrb	r3, [r7, #7]	@ zero_extendqisi2
ARM GAS  C:\Users\RIEKOH~1\AppData\Local\Temp\ccPvP9Wz.s 			page 24


 740:.\Generated_Source\PSoC5/PWM_2.c ****     }
 572              		.loc 1 740 0
 573 0014 1846     		mov	r0, r3
 574 0016 07F10C07 		add	r7, r7, #12
 575 001a BD46     		mov	sp, r7
 576 001c 80BC     		pop	{r7}
 577 001e 7047     		bx	lr
 578              		.cfi_endproc
 579              	.LFE12:
 580              		.size	PWM_2_ReadControlRegister, .-PWM_2_ReadControlRegister
 581              		.section	.text.PWM_2_WriteControlRegister,"ax",%progbits
 582              		.align	2
 583              		.global	PWM_2_WriteControlRegister
 584              		.thumb
 585              		.thumb_func
 586              		.type	PWM_2_WriteControlRegister, %function
 587              	PWM_2_WriteControlRegister:
 588              	.LFB13:
 741:.\Generated_Source\PSoC5/PWM_2.c **** 
 742:.\Generated_Source\PSoC5/PWM_2.c **** 
 743:.\Generated_Source\PSoC5/PWM_2.c ****     /*******************************************************************************
 744:.\Generated_Source\PSoC5/PWM_2.c ****     * Function Name: PWM_2_WriteControlRegister
 745:.\Generated_Source\PSoC5/PWM_2.c ****     ********************************************************************************
 746:.\Generated_Source\PSoC5/PWM_2.c ****     * 
 747:.\Generated_Source\PSoC5/PWM_2.c ****     * Summary:
 748:.\Generated_Source\PSoC5/PWM_2.c ****     *  Sets the bit field of the control register. This API is available only if 
 749:.\Generated_Source\PSoC5/PWM_2.c ****     *  the control register is not removed.
 750:.\Generated_Source\PSoC5/PWM_2.c ****     *
 751:.\Generated_Source\PSoC5/PWM_2.c ****     * Parameters:  
 752:.\Generated_Source\PSoC5/PWM_2.c ****     *  uint8 control: Control register bit field, The status register bits are:
 753:.\Generated_Source\PSoC5/PWM_2.c ****     *  [7]   : PWM Enable
 754:.\Generated_Source\PSoC5/PWM_2.c ****     *  [6]   : Reset
 755:.\Generated_Source\PSoC5/PWM_2.c ****     *  [5:3] : Compare Mode2
 756:.\Generated_Source\PSoC5/PWM_2.c ****     *  [2:0] : Compare Mode2
 757:.\Generated_Source\PSoC5/PWM_2.c ****     *
 758:.\Generated_Source\PSoC5/PWM_2.c ****     * Return: 
 759:.\Generated_Source\PSoC5/PWM_2.c ****     *  None
 760:.\Generated_Source\PSoC5/PWM_2.c ****     *
 761:.\Generated_Source\PSoC5/PWM_2.c ****     *******************************************************************************/  
 762:.\Generated_Source\PSoC5/PWM_2.c ****     void PWM_2_WriteControlRegister(uint8 control) 
 763:.\Generated_Source\PSoC5/PWM_2.c ****     {
 589              		.loc 1 763 0
 590              		.cfi_startproc
 591              		@ args = 0, pretend = 0, frame = 8
 592              		@ frame_needed = 1, uses_anonymous_args = 0
 593              		@ link register save eliminated.
 594 0000 80B4     		push	{r7}
 595              	.LCFI34:
 596              		.cfi_def_cfa_offset 4
 597              		.cfi_offset 7, -4
 598 0002 83B0     		sub	sp, sp, #12
 599              	.LCFI35:
 600              		.cfi_def_cfa_offset 16
 601 0004 00AF     		add	r7, sp, #0
 602              	.LCFI36:
 603              		.cfi_def_cfa_register 7
 604 0006 0346     		mov	r3, r0
ARM GAS  C:\Users\RIEKOH~1\AppData\Local\Temp\ccPvP9Wz.s 			page 25


 605 0008 FB71     		strb	r3, [r7, #7]
 764:.\Generated_Source\PSoC5/PWM_2.c ****     	CY_SET_REG8(PWM_2_CONTROL_PTR, control);
 606              		.loc 1 764 0
 607 000a 46F27243 		movw	r3, #25714
 608 000e C4F20003 		movt	r3, 16384
 609 0012 FA79     		ldrb	r2, [r7, #7]
 610 0014 1A70     		strb	r2, [r3, #0]
 765:.\Generated_Source\PSoC5/PWM_2.c ****     }
 611              		.loc 1 765 0
 612 0016 07F10C07 		add	r7, r7, #12
 613 001a BD46     		mov	sp, r7
 614 001c 80BC     		pop	{r7}
 615 001e 7047     		bx	lr
 616              		.cfi_endproc
 617              	.LFE13:
 618              		.size	PWM_2_WriteControlRegister, .-PWM_2_WriteControlRegister
 619              		.section	.text.PWM_2_ReadCapture,"ax",%progbits
 620              		.align	2
 621              		.global	PWM_2_ReadCapture
 622              		.thumb
 623              		.thumb_func
 624              		.type	PWM_2_ReadCapture, %function
 625              	PWM_2_ReadCapture:
 626              	.LFB14:
 766:.\Generated_Source\PSoC5/PWM_2.c **** 	
 767:.\Generated_Source\PSoC5/PWM_2.c **** #endif /* (PWM_2_UseControl) */
 768:.\Generated_Source\PSoC5/PWM_2.c **** 
 769:.\Generated_Source\PSoC5/PWM_2.c **** 
 770:.\Generated_Source\PSoC5/PWM_2.c **** #if (!PWM_2_UsingFixedFunction)
 771:.\Generated_Source\PSoC5/PWM_2.c **** 
 772:.\Generated_Source\PSoC5/PWM_2.c **** 
 773:.\Generated_Source\PSoC5/PWM_2.c ****     /*******************************************************************************
 774:.\Generated_Source\PSoC5/PWM_2.c ****     * Function Name: PWM_2_ReadCapture
 775:.\Generated_Source\PSoC5/PWM_2.c ****     ********************************************************************************
 776:.\Generated_Source\PSoC5/PWM_2.c ****     * 
 777:.\Generated_Source\PSoC5/PWM_2.c ****     * Summary:
 778:.\Generated_Source\PSoC5/PWM_2.c ****     *  Reads the capture value from the capture FIFO.
 779:.\Generated_Source\PSoC5/PWM_2.c ****     *
 780:.\Generated_Source\PSoC5/PWM_2.c ****     * Parameters:  
 781:.\Generated_Source\PSoC5/PWM_2.c ****     *  None
 782:.\Generated_Source\PSoC5/PWM_2.c ****     *
 783:.\Generated_Source\PSoC5/PWM_2.c ****     * Return: 
 784:.\Generated_Source\PSoC5/PWM_2.c ****     *  uint8/uint16: The current capture value
 785:.\Generated_Source\PSoC5/PWM_2.c ****     *
 786:.\Generated_Source\PSoC5/PWM_2.c ****     *******************************************************************************/  
 787:.\Generated_Source\PSoC5/PWM_2.c ****     uint16 PWM_2_ReadCapture(void)  
 788:.\Generated_Source\PSoC5/PWM_2.c ****     {
 627              		.loc 1 788 0
 628              		.cfi_startproc
 629              		@ args = 0, pretend = 0, frame = 0
 630              		@ frame_needed = 1, uses_anonymous_args = 0
 631              		@ link register save eliminated.
 632 0000 80B4     		push	{r7}
 633              	.LCFI37:
 634              		.cfi_def_cfa_offset 4
 635              		.cfi_offset 7, -4
 636 0002 00AF     		add	r7, sp, #0
ARM GAS  C:\Users\RIEKOH~1\AppData\Local\Temp\ccPvP9Wz.s 			page 26


 637              	.LCFI38:
 638              		.cfi_def_cfa_register 7
 789:.\Generated_Source\PSoC5/PWM_2.c ****     	return (CY_GET_REG16(PWM_2_CAPTURE_LSB_PTR));
 639              		.loc 1 789 0
 640 0004 46F6A403 		movw	r3, #26788
 641 0008 C4F20003 		movt	r3, 16384
 642 000c 1B88     		ldrh	r3, [r3, #0]	@ movhi
 643 000e 9BB2     		uxth	r3, r3
 790:.\Generated_Source\PSoC5/PWM_2.c ****     }
 644              		.loc 1 790 0
 645 0010 1846     		mov	r0, r3
 646 0012 BD46     		mov	sp, r7
 647 0014 80BC     		pop	{r7}
 648 0016 7047     		bx	lr
 649              		.cfi_endproc
 650              	.LFE14:
 651              		.size	PWM_2_ReadCapture, .-PWM_2_ReadCapture
 652              		.section	.text.PWM_2_ReadCompare1,"ax",%progbits
 653              		.align	2
 654              		.global	PWM_2_ReadCompare1
 655              		.thumb
 656              		.thumb_func
 657              		.type	PWM_2_ReadCompare1, %function
 658              	PWM_2_ReadCompare1:
 659              	.LFB15:
 791:.\Generated_Source\PSoC5/PWM_2.c **** 	
 792:.\Generated_Source\PSoC5/PWM_2.c **** #endif /* (!PWM_2_UsingFixedFunction) */
 793:.\Generated_Source\PSoC5/PWM_2.c **** 
 794:.\Generated_Source\PSoC5/PWM_2.c **** 
 795:.\Generated_Source\PSoC5/PWM_2.c **** #if (PWM_2_UseOneCompareMode)
 796:.\Generated_Source\PSoC5/PWM_2.c **** 
 797:.\Generated_Source\PSoC5/PWM_2.c **** 
 798:.\Generated_Source\PSoC5/PWM_2.c ****     /*******************************************************************************
 799:.\Generated_Source\PSoC5/PWM_2.c ****     * Function Name: PWM_2_ReadCompare
 800:.\Generated_Source\PSoC5/PWM_2.c ****     ********************************************************************************
 801:.\Generated_Source\PSoC5/PWM_2.c ****     * 
 802:.\Generated_Source\PSoC5/PWM_2.c ****     * Summary:
 803:.\Generated_Source\PSoC5/PWM_2.c ****     *  Reads the compare value for the compare output when the PWM Mode parameter is 
 804:.\Generated_Source\PSoC5/PWM_2.c ****     *  set to Dither mode, Center Aligned mode, or One Output mode.
 805:.\Generated_Source\PSoC5/PWM_2.c ****     *
 806:.\Generated_Source\PSoC5/PWM_2.c ****     * Parameters:  
 807:.\Generated_Source\PSoC5/PWM_2.c ****     *  None
 808:.\Generated_Source\PSoC5/PWM_2.c ****     *
 809:.\Generated_Source\PSoC5/PWM_2.c ****     * Return: 
 810:.\Generated_Source\PSoC5/PWM_2.c ****     *  uint8/uint16: Current compare value
 811:.\Generated_Source\PSoC5/PWM_2.c ****     *
 812:.\Generated_Source\PSoC5/PWM_2.c ****     *******************************************************************************/  
 813:.\Generated_Source\PSoC5/PWM_2.c ****     uint16 PWM_2_ReadCompare(void)  
 814:.\Generated_Source\PSoC5/PWM_2.c ****     {
 815:.\Generated_Source\PSoC5/PWM_2.c **** 		#if(PWM_2_UsingFixedFunction)
 816:.\Generated_Source\PSoC5/PWM_2.c ****             return ((uint16)CY_GET_REG16(PWM_2_COMPARE1_LSB_PTR));
 817:.\Generated_Source\PSoC5/PWM_2.c ****         #else
 818:.\Generated_Source\PSoC5/PWM_2.c ****             return (CY_GET_REG16(PWM_2_COMPARE1_LSB_PTR));
 819:.\Generated_Source\PSoC5/PWM_2.c ****         #endif /* (PWM_2_UsingFixedFunction) */
 820:.\Generated_Source\PSoC5/PWM_2.c ****     }
 821:.\Generated_Source\PSoC5/PWM_2.c **** 
 822:.\Generated_Source\PSoC5/PWM_2.c **** #else
ARM GAS  C:\Users\RIEKOH~1\AppData\Local\Temp\ccPvP9Wz.s 			page 27


 823:.\Generated_Source\PSoC5/PWM_2.c **** 
 824:.\Generated_Source\PSoC5/PWM_2.c **** 
 825:.\Generated_Source\PSoC5/PWM_2.c ****     /*******************************************************************************
 826:.\Generated_Source\PSoC5/PWM_2.c ****     * Function Name: PWM_2_ReadCompare1
 827:.\Generated_Source\PSoC5/PWM_2.c ****     ********************************************************************************
 828:.\Generated_Source\PSoC5/PWM_2.c ****     * 
 829:.\Generated_Source\PSoC5/PWM_2.c ****     * Summary:
 830:.\Generated_Source\PSoC5/PWM_2.c ****     *  Reads the compare value for the compare1 output.
 831:.\Generated_Source\PSoC5/PWM_2.c ****     *
 832:.\Generated_Source\PSoC5/PWM_2.c ****     * Parameters:  
 833:.\Generated_Source\PSoC5/PWM_2.c ****     *  None
 834:.\Generated_Source\PSoC5/PWM_2.c ****     *
 835:.\Generated_Source\PSoC5/PWM_2.c ****     * Return: 
 836:.\Generated_Source\PSoC5/PWM_2.c ****     *  uint8/uint16: Current compare value.
 837:.\Generated_Source\PSoC5/PWM_2.c ****     *
 838:.\Generated_Source\PSoC5/PWM_2.c ****     *******************************************************************************/  
 839:.\Generated_Source\PSoC5/PWM_2.c ****     uint16 PWM_2_ReadCompare1(void) 
 840:.\Generated_Source\PSoC5/PWM_2.c ****     {
 660              		.loc 1 840 0
 661              		.cfi_startproc
 662              		@ args = 0, pretend = 0, frame = 0
 663              		@ frame_needed = 1, uses_anonymous_args = 0
 664              		@ link register save eliminated.
 665 0000 80B4     		push	{r7}
 666              	.LCFI39:
 667              		.cfi_def_cfa_offset 4
 668              		.cfi_offset 7, -4
 669 0002 00AF     		add	r7, sp, #0
 670              	.LCFI40:
 671              		.cfi_def_cfa_register 7
 841:.\Generated_Source\PSoC5/PWM_2.c **** 		return (CY_GET_REG16(PWM_2_COMPARE1_LSB_PTR));
 672              		.loc 1 841 0
 673 0004 46F64403 		movw	r3, #26692
 674 0008 C4F20003 		movt	r3, 16384
 675 000c 1B88     		ldrh	r3, [r3, #0]	@ movhi
 676 000e 9BB2     		uxth	r3, r3
 842:.\Generated_Source\PSoC5/PWM_2.c ****     }
 677              		.loc 1 842 0
 678 0010 1846     		mov	r0, r3
 679 0012 BD46     		mov	sp, r7
 680 0014 80BC     		pop	{r7}
 681 0016 7047     		bx	lr
 682              		.cfi_endproc
 683              	.LFE15:
 684              		.size	PWM_2_ReadCompare1, .-PWM_2_ReadCompare1
 685              		.section	.text.PWM_2_ReadCompare2,"ax",%progbits
 686              		.align	2
 687              		.global	PWM_2_ReadCompare2
 688              		.thumb
 689              		.thumb_func
 690              		.type	PWM_2_ReadCompare2, %function
 691              	PWM_2_ReadCompare2:
 692              	.LFB16:
 843:.\Generated_Source\PSoC5/PWM_2.c **** 
 844:.\Generated_Source\PSoC5/PWM_2.c **** 
 845:.\Generated_Source\PSoC5/PWM_2.c ****     /*******************************************************************************
 846:.\Generated_Source\PSoC5/PWM_2.c ****     * Function Name: PWM_2_ReadCompare2
ARM GAS  C:\Users\RIEKOH~1\AppData\Local\Temp\ccPvP9Wz.s 			page 28


 847:.\Generated_Source\PSoC5/PWM_2.c ****     ********************************************************************************
 848:.\Generated_Source\PSoC5/PWM_2.c ****     * 
 849:.\Generated_Source\PSoC5/PWM_2.c ****     * Summary:
 850:.\Generated_Source\PSoC5/PWM_2.c ****     *  Reads the compare value for the compare2 output.
 851:.\Generated_Source\PSoC5/PWM_2.c ****     *
 852:.\Generated_Source\PSoC5/PWM_2.c ****     * Parameters:  
 853:.\Generated_Source\PSoC5/PWM_2.c ****     *  None
 854:.\Generated_Source\PSoC5/PWM_2.c ****     *
 855:.\Generated_Source\PSoC5/PWM_2.c ****     * Return: 
 856:.\Generated_Source\PSoC5/PWM_2.c ****     *  uint8/uint16: Current compare value.
 857:.\Generated_Source\PSoC5/PWM_2.c ****     *
 858:.\Generated_Source\PSoC5/PWM_2.c ****     *******************************************************************************/  
 859:.\Generated_Source\PSoC5/PWM_2.c ****     uint16 PWM_2_ReadCompare2(void)  
 860:.\Generated_Source\PSoC5/PWM_2.c ****     {
 693              		.loc 1 860 0
 694              		.cfi_startproc
 695              		@ args = 0, pretend = 0, frame = 0
 696              		@ frame_needed = 1, uses_anonymous_args = 0
 697              		@ link register save eliminated.
 698 0000 80B4     		push	{r7}
 699              	.LCFI41:
 700              		.cfi_def_cfa_offset 4
 701              		.cfi_offset 7, -4
 702 0002 00AF     		add	r7, sp, #0
 703              	.LCFI42:
 704              		.cfi_def_cfa_register 7
 861:.\Generated_Source\PSoC5/PWM_2.c **** 		return (CY_GET_REG16(PWM_2_COMPARE2_LSB_PTR));
 705              		.loc 1 861 0
 706 0004 46F66403 		movw	r3, #26724
 707 0008 C4F20003 		movt	r3, 16384
 708 000c 1B88     		ldrh	r3, [r3, #0]	@ movhi
 709 000e 9BB2     		uxth	r3, r3
 862:.\Generated_Source\PSoC5/PWM_2.c ****     }
 710              		.loc 1 862 0
 711 0010 1846     		mov	r0, r3
 712 0012 BD46     		mov	sp, r7
 713 0014 80BC     		pop	{r7}
 714 0016 7047     		bx	lr
 715              		.cfi_endproc
 716              	.LFE16:
 717              		.size	PWM_2_ReadCompare2, .-PWM_2_ReadCompare2
 718              		.section	.text.PWM_2_ReadPeriod,"ax",%progbits
 719              		.align	2
 720              		.global	PWM_2_ReadPeriod
 721              		.thumb
 722              		.thumb_func
 723              		.type	PWM_2_ReadPeriod, %function
 724              	PWM_2_ReadPeriod:
 725              	.LFB17:
 863:.\Generated_Source\PSoC5/PWM_2.c **** 
 864:.\Generated_Source\PSoC5/PWM_2.c **** #endif /* (PWM_2_UseOneCompareMode) */
 865:.\Generated_Source\PSoC5/PWM_2.c **** 
 866:.\Generated_Source\PSoC5/PWM_2.c **** 
 867:.\Generated_Source\PSoC5/PWM_2.c **** /*******************************************************************************
 868:.\Generated_Source\PSoC5/PWM_2.c **** * Function Name: PWM_2_ReadPeriod
 869:.\Generated_Source\PSoC5/PWM_2.c **** ********************************************************************************
 870:.\Generated_Source\PSoC5/PWM_2.c **** * 
ARM GAS  C:\Users\RIEKOH~1\AppData\Local\Temp\ccPvP9Wz.s 			page 29


 871:.\Generated_Source\PSoC5/PWM_2.c **** * Summary:
 872:.\Generated_Source\PSoC5/PWM_2.c **** *  Reads the period value used by the PWM hardware.
 873:.\Generated_Source\PSoC5/PWM_2.c **** *
 874:.\Generated_Source\PSoC5/PWM_2.c **** * Parameters:  
 875:.\Generated_Source\PSoC5/PWM_2.c **** *  None
 876:.\Generated_Source\PSoC5/PWM_2.c **** *
 877:.\Generated_Source\PSoC5/PWM_2.c **** * Return: 
 878:.\Generated_Source\PSoC5/PWM_2.c **** *  uint8/16: Period value
 879:.\Generated_Source\PSoC5/PWM_2.c **** *
 880:.\Generated_Source\PSoC5/PWM_2.c **** *******************************************************************************/ 
 881:.\Generated_Source\PSoC5/PWM_2.c **** uint16 PWM_2_ReadPeriod(void) 
 882:.\Generated_Source\PSoC5/PWM_2.c **** {
 726              		.loc 1 882 0
 727              		.cfi_startproc
 728              		@ args = 0, pretend = 0, frame = 0
 729              		@ frame_needed = 1, uses_anonymous_args = 0
 730              		@ link register save eliminated.
 731 0000 80B4     		push	{r7}
 732              	.LCFI43:
 733              		.cfi_def_cfa_offset 4
 734              		.cfi_offset 7, -4
 735 0002 00AF     		add	r7, sp, #0
 736              	.LCFI44:
 737              		.cfi_def_cfa_register 7
 883:.\Generated_Source\PSoC5/PWM_2.c **** 	#if(PWM_2_UsingFixedFunction)
 884:.\Generated_Source\PSoC5/PWM_2.c ****         return ((uint16)CY_GET_REG16(PWM_2_PERIOD_LSB_PTR));
 885:.\Generated_Source\PSoC5/PWM_2.c ****     #else
 886:.\Generated_Source\PSoC5/PWM_2.c ****         return (CY_GET_REG16(PWM_2_PERIOD_LSB_PTR));
 738              		.loc 1 886 0
 739 0004 46F68403 		movw	r3, #26756
 740 0008 C4F20003 		movt	r3, 16384
 741 000c 1B88     		ldrh	r3, [r3, #0]	@ movhi
 742 000e 9BB2     		uxth	r3, r3
 887:.\Generated_Source\PSoC5/PWM_2.c ****     #endif /* (PWM_2_UsingFixedFunction) */
 888:.\Generated_Source\PSoC5/PWM_2.c **** }
 743              		.loc 1 888 0
 744 0010 1846     		mov	r0, r3
 745 0012 BD46     		mov	sp, r7
 746 0014 80BC     		pop	{r7}
 747 0016 7047     		bx	lr
 748              		.cfi_endproc
 749              	.LFE17:
 750              		.size	PWM_2_ReadPeriod, .-PWM_2_ReadPeriod
 751              		.text
 752              	.Letext0:
 753              		.file 2 ".\\Generated_Source\\PSoC5\\cytypes.h"
