ARM GAS  C:\Users\RIEKOH~1\AppData\Local\Temp\ccKwzQtj.s 			page 1


   1              		.syntax unified
   2              		.cpu cortex-m3
   3              		.fpu softvfp
   4              		.eabi_attribute 20, 1
   5              		.eabi_attribute 21, 1
   6              		.eabi_attribute 23, 3
   7              		.eabi_attribute 24, 1
   8              		.eabi_attribute 25, 1
   9              		.eabi_attribute 26, 1
  10              		.eabi_attribute 30, 6
  11              		.eabi_attribute 34, 1
  12              		.eabi_attribute 18, 4
  13              		.thumb
  14              		.file	"UART_PM.c"
  15              		.text
  16              	.Ltext0:
  17              		.cfi_sections	.debug_frame
  18              		.bss
  19              		.align	2
  20              	UART_backup:
  21 0000 000000   		.space	3
  22 0003 00       		.section	.text.UART_SaveConfig,"ax",%progbits
  23              		.align	2
  24              		.global	UART_SaveConfig
  25              		.thumb
  26              		.thumb_func
  27              		.type	UART_SaveConfig, %function
  28              	UART_SaveConfig:
  29              	.LFB0:
  30              		.file 1 ".\\Generated_Source\\PSoC5\\UART_PM.c"
   1:.\Generated_Source\PSoC5/UART_PM.c **** /*******************************************************************************
   2:.\Generated_Source\PSoC5/UART_PM.c **** * File Name: UART_PM.c
   3:.\Generated_Source\PSoC5/UART_PM.c **** * Version 2.30
   4:.\Generated_Source\PSoC5/UART_PM.c **** *
   5:.\Generated_Source\PSoC5/UART_PM.c **** * Description:
   6:.\Generated_Source\PSoC5/UART_PM.c **** *  This file provides Sleep/WakeUp APIs functionality.
   7:.\Generated_Source\PSoC5/UART_PM.c **** *
   8:.\Generated_Source\PSoC5/UART_PM.c **** * Note:
   9:.\Generated_Source\PSoC5/UART_PM.c **** *
  10:.\Generated_Source\PSoC5/UART_PM.c **** ********************************************************************************
  11:.\Generated_Source\PSoC5/UART_PM.c **** * Copyright 2008-2012, Cypress Semiconductor Corporation.  All rights reserved.
  12:.\Generated_Source\PSoC5/UART_PM.c **** * You may use this file only in accordance with the license, terms, conditions,
  13:.\Generated_Source\PSoC5/UART_PM.c **** * disclaimers, and limitations in the end user license agreement accompanying
  14:.\Generated_Source\PSoC5/UART_PM.c **** * the software package with which this file was provided.
  15:.\Generated_Source\PSoC5/UART_PM.c **** *******************************************************************************/
  16:.\Generated_Source\PSoC5/UART_PM.c **** 
  17:.\Generated_Source\PSoC5/UART_PM.c **** #include "UART.h"
  18:.\Generated_Source\PSoC5/UART_PM.c **** 
  19:.\Generated_Source\PSoC5/UART_PM.c **** 
  20:.\Generated_Source\PSoC5/UART_PM.c **** /***************************************
  21:.\Generated_Source\PSoC5/UART_PM.c **** * Local data allocation
  22:.\Generated_Source\PSoC5/UART_PM.c **** ***************************************/
  23:.\Generated_Source\PSoC5/UART_PM.c **** 
  24:.\Generated_Source\PSoC5/UART_PM.c **** static UART_BACKUP_STRUCT  UART_backup =
  25:.\Generated_Source\PSoC5/UART_PM.c **** {
  26:.\Generated_Source\PSoC5/UART_PM.c ****     /* enableState - disabled */
  27:.\Generated_Source\PSoC5/UART_PM.c ****     0u,
ARM GAS  C:\Users\RIEKOH~1\AppData\Local\Temp\ccKwzQtj.s 			page 2


  28:.\Generated_Source\PSoC5/UART_PM.c **** };
  29:.\Generated_Source\PSoC5/UART_PM.c **** 
  30:.\Generated_Source\PSoC5/UART_PM.c **** 
  31:.\Generated_Source\PSoC5/UART_PM.c **** 
  32:.\Generated_Source\PSoC5/UART_PM.c **** /*******************************************************************************
  33:.\Generated_Source\PSoC5/UART_PM.c **** * Function Name: UART_SaveConfig
  34:.\Generated_Source\PSoC5/UART_PM.c **** ********************************************************************************
  35:.\Generated_Source\PSoC5/UART_PM.c **** *
  36:.\Generated_Source\PSoC5/UART_PM.c **** * Summary:
  37:.\Generated_Source\PSoC5/UART_PM.c **** *  Saves the current user configuration.
  38:.\Generated_Source\PSoC5/UART_PM.c **** *
  39:.\Generated_Source\PSoC5/UART_PM.c **** * Parameters:
  40:.\Generated_Source\PSoC5/UART_PM.c **** *  None.
  41:.\Generated_Source\PSoC5/UART_PM.c **** *
  42:.\Generated_Source\PSoC5/UART_PM.c **** * Return:
  43:.\Generated_Source\PSoC5/UART_PM.c **** *  None.
  44:.\Generated_Source\PSoC5/UART_PM.c **** *
  45:.\Generated_Source\PSoC5/UART_PM.c **** * Global Variables:
  46:.\Generated_Source\PSoC5/UART_PM.c **** *  UART_backup - modified when non-retention registers are saved.
  47:.\Generated_Source\PSoC5/UART_PM.c **** *
  48:.\Generated_Source\PSoC5/UART_PM.c **** * Reentrant:
  49:.\Generated_Source\PSoC5/UART_PM.c **** *  No.
  50:.\Generated_Source\PSoC5/UART_PM.c **** *
  51:.\Generated_Source\PSoC5/UART_PM.c **** *******************************************************************************/
  52:.\Generated_Source\PSoC5/UART_PM.c **** void UART_SaveConfig(void)
  53:.\Generated_Source\PSoC5/UART_PM.c **** {
  31              		.loc 1 53 0
  32              		.cfi_startproc
  33              		@ args = 0, pretend = 0, frame = 0
  34              		@ frame_needed = 1, uses_anonymous_args = 0
  35              		@ link register save eliminated.
  36 0000 80B4     		push	{r7}
  37              	.LCFI0:
  38              		.cfi_def_cfa_offset 4
  39              		.cfi_offset 7, -4
  40 0002 00AF     		add	r7, sp, #0
  41              	.LCFI1:
  42              		.cfi_def_cfa_register 7
  54:.\Generated_Source\PSoC5/UART_PM.c ****     #if (CY_UDB_V0)
  55:.\Generated_Source\PSoC5/UART_PM.c **** 
  56:.\Generated_Source\PSoC5/UART_PM.c ****         #if(UART_CONTROL_REG_REMOVED == 0u)
  57:.\Generated_Source\PSoC5/UART_PM.c ****             UART_backup.cr = UART_CONTROL_REG;
  58:.\Generated_Source\PSoC5/UART_PM.c ****         #endif /* End UART_CONTROL_REG_REMOVED */
  59:.\Generated_Source\PSoC5/UART_PM.c **** 
  60:.\Generated_Source\PSoC5/UART_PM.c ****         #if( (UART_RX_ENABLED) || (UART_HD_ENABLED) )
  61:.\Generated_Source\PSoC5/UART_PM.c ****             UART_backup.rx_period = UART_RXBITCTR_PERIOD_REG;
  62:.\Generated_Source\PSoC5/UART_PM.c ****             UART_backup.rx_mask = UART_RXSTATUS_MASK_REG;
  63:.\Generated_Source\PSoC5/UART_PM.c ****             #if (UART_RXHW_ADDRESS_ENABLED)
  64:.\Generated_Source\PSoC5/UART_PM.c ****                 UART_backup.rx_addr1 = UART_RXADDRESS1_REG;
  65:.\Generated_Source\PSoC5/UART_PM.c ****                 UART_backup.rx_addr2 = UART_RXADDRESS2_REG;
  66:.\Generated_Source\PSoC5/UART_PM.c ****             #endif /* End UART_RXHW_ADDRESS_ENABLED */
  67:.\Generated_Source\PSoC5/UART_PM.c ****         #endif /* End UART_RX_ENABLED | UART_HD_ENABLED*/
  68:.\Generated_Source\PSoC5/UART_PM.c **** 
  69:.\Generated_Source\PSoC5/UART_PM.c ****         #if(UART_TX_ENABLED)
  70:.\Generated_Source\PSoC5/UART_PM.c ****             #if(UART_TXCLKGEN_DP)
  71:.\Generated_Source\PSoC5/UART_PM.c ****                 UART_backup.tx_clk_ctr = UART_TXBITCLKGEN_CTR_REG;
  72:.\Generated_Source\PSoC5/UART_PM.c ****                 UART_backup.tx_clk_compl = UART_TXBITCLKTX_COMPLETE_REG;
ARM GAS  C:\Users\RIEKOH~1\AppData\Local\Temp\ccKwzQtj.s 			page 3


  73:.\Generated_Source\PSoC5/UART_PM.c ****             #else
  74:.\Generated_Source\PSoC5/UART_PM.c ****                 UART_backup.tx_period = UART_TXBITCTR_PERIOD_REG;
  75:.\Generated_Source\PSoC5/UART_PM.c ****             #endif /*End UART_TXCLKGEN_DP */
  76:.\Generated_Source\PSoC5/UART_PM.c ****             UART_backup.tx_mask = UART_TXSTATUS_MASK_REG;
  77:.\Generated_Source\PSoC5/UART_PM.c ****         #endif /*End UART_TX_ENABLED */
  78:.\Generated_Source\PSoC5/UART_PM.c **** 
  79:.\Generated_Source\PSoC5/UART_PM.c **** 
  80:.\Generated_Source\PSoC5/UART_PM.c ****     #else /* CY_UDB_V1 */
  81:.\Generated_Source\PSoC5/UART_PM.c **** 
  82:.\Generated_Source\PSoC5/UART_PM.c ****         #if(UART_CONTROL_REG_REMOVED == 0u)
  83:.\Generated_Source\PSoC5/UART_PM.c ****             UART_backup.cr = UART_CONTROL_REG;
  84:.\Generated_Source\PSoC5/UART_PM.c ****         #endif /* End UART_CONTROL_REG_REMOVED */
  85:.\Generated_Source\PSoC5/UART_PM.c **** 
  86:.\Generated_Source\PSoC5/UART_PM.c ****     #endif  /* End CY_UDB_V0 */
  87:.\Generated_Source\PSoC5/UART_PM.c **** }
  43              		.loc 1 87 0
  44 0004 BD46     		mov	sp, r7
  45 0006 80BC     		pop	{r7}
  46 0008 7047     		bx	lr
  47              		.cfi_endproc
  48              	.LFE0:
  49              		.size	UART_SaveConfig, .-UART_SaveConfig
  50 000a 00BF     		.section	.text.UART_RestoreConfig,"ax",%progbits
  51              		.align	2
  52              		.global	UART_RestoreConfig
  53              		.thumb
  54              		.thumb_func
  55              		.type	UART_RestoreConfig, %function
  56              	UART_RestoreConfig:
  57              	.LFB1:
  88:.\Generated_Source\PSoC5/UART_PM.c **** 
  89:.\Generated_Source\PSoC5/UART_PM.c **** 
  90:.\Generated_Source\PSoC5/UART_PM.c **** /*******************************************************************************
  91:.\Generated_Source\PSoC5/UART_PM.c **** * Function Name: UART_RestoreConfig
  92:.\Generated_Source\PSoC5/UART_PM.c **** ********************************************************************************
  93:.\Generated_Source\PSoC5/UART_PM.c **** *
  94:.\Generated_Source\PSoC5/UART_PM.c **** * Summary:
  95:.\Generated_Source\PSoC5/UART_PM.c **** *  Restores the current user configuration.
  96:.\Generated_Source\PSoC5/UART_PM.c **** *
  97:.\Generated_Source\PSoC5/UART_PM.c **** * Parameters:
  98:.\Generated_Source\PSoC5/UART_PM.c **** *  None.
  99:.\Generated_Source\PSoC5/UART_PM.c **** *
 100:.\Generated_Source\PSoC5/UART_PM.c **** * Return:
 101:.\Generated_Source\PSoC5/UART_PM.c **** *  None.
 102:.\Generated_Source\PSoC5/UART_PM.c **** *
 103:.\Generated_Source\PSoC5/UART_PM.c **** * Global Variables:
 104:.\Generated_Source\PSoC5/UART_PM.c **** *  UART_backup - used when non-retention registers are restored.
 105:.\Generated_Source\PSoC5/UART_PM.c **** *
 106:.\Generated_Source\PSoC5/UART_PM.c **** * Reentrant:
 107:.\Generated_Source\PSoC5/UART_PM.c **** *  No.
 108:.\Generated_Source\PSoC5/UART_PM.c **** *
 109:.\Generated_Source\PSoC5/UART_PM.c **** *******************************************************************************/
 110:.\Generated_Source\PSoC5/UART_PM.c **** void UART_RestoreConfig(void)
 111:.\Generated_Source\PSoC5/UART_PM.c **** {
  58              		.loc 1 111 0
  59              		.cfi_startproc
  60              		@ args = 0, pretend = 0, frame = 0
ARM GAS  C:\Users\RIEKOH~1\AppData\Local\Temp\ccKwzQtj.s 			page 4


  61              		@ frame_needed = 1, uses_anonymous_args = 0
  62              		@ link register save eliminated.
  63 0000 80B4     		push	{r7}
  64              	.LCFI2:
  65              		.cfi_def_cfa_offset 4
  66              		.cfi_offset 7, -4
  67 0002 00AF     		add	r7, sp, #0
  68              	.LCFI3:
  69              		.cfi_def_cfa_register 7
 112:.\Generated_Source\PSoC5/UART_PM.c **** 
 113:.\Generated_Source\PSoC5/UART_PM.c ****     #if (CY_UDB_V0)
 114:.\Generated_Source\PSoC5/UART_PM.c **** 
 115:.\Generated_Source\PSoC5/UART_PM.c ****         #if(UART_CONTROL_REG_REMOVED == 0u)
 116:.\Generated_Source\PSoC5/UART_PM.c ****             UART_CONTROL_REG = UART_backup.cr;
 117:.\Generated_Source\PSoC5/UART_PM.c ****         #endif /* End UART_CONTROL_REG_REMOVED */
 118:.\Generated_Source\PSoC5/UART_PM.c **** 
 119:.\Generated_Source\PSoC5/UART_PM.c ****         #if( (UART_RX_ENABLED) || (UART_HD_ENABLED) )
 120:.\Generated_Source\PSoC5/UART_PM.c ****             UART_RXBITCTR_PERIOD_REG = UART_backup.rx_period;
 121:.\Generated_Source\PSoC5/UART_PM.c ****             UART_RXSTATUS_MASK_REG = UART_backup.rx_mask;
 122:.\Generated_Source\PSoC5/UART_PM.c ****             #if (UART_RXHW_ADDRESS_ENABLED)
 123:.\Generated_Source\PSoC5/UART_PM.c ****                 UART_RXADDRESS1_REG = UART_backup.rx_addr1;
 124:.\Generated_Source\PSoC5/UART_PM.c ****                 UART_RXADDRESS2_REG = UART_backup.rx_addr2;
 125:.\Generated_Source\PSoC5/UART_PM.c ****             #endif /* End UART_RXHW_ADDRESS_ENABLED */
 126:.\Generated_Source\PSoC5/UART_PM.c ****         #endif  /* End (UART_RX_ENABLED) || (UART_HD_ENABLED) */
 127:.\Generated_Source\PSoC5/UART_PM.c **** 
 128:.\Generated_Source\PSoC5/UART_PM.c ****         #if(UART_TX_ENABLED)
 129:.\Generated_Source\PSoC5/UART_PM.c ****             #if(UART_TXCLKGEN_DP)
 130:.\Generated_Source\PSoC5/UART_PM.c ****                 UART_TXBITCLKGEN_CTR_REG = UART_backup.tx_clk_ctr;
 131:.\Generated_Source\PSoC5/UART_PM.c ****                 UART_TXBITCLKTX_COMPLETE_REG = UART_backup.tx_clk_compl;
 132:.\Generated_Source\PSoC5/UART_PM.c ****             #else
 133:.\Generated_Source\PSoC5/UART_PM.c ****                 UART_TXBITCTR_PERIOD_REG = UART_backup.tx_period;
 134:.\Generated_Source\PSoC5/UART_PM.c ****             #endif /*End UART_TXCLKGEN_DP */
 135:.\Generated_Source\PSoC5/UART_PM.c ****             UART_TXSTATUS_MASK_REG = UART_backup.tx_mask;
 136:.\Generated_Source\PSoC5/UART_PM.c ****         #endif /*End UART_TX_ENABLED */
 137:.\Generated_Source\PSoC5/UART_PM.c **** 
 138:.\Generated_Source\PSoC5/UART_PM.c ****     #else /* CY_UDB_V1 */
 139:.\Generated_Source\PSoC5/UART_PM.c **** 
 140:.\Generated_Source\PSoC5/UART_PM.c ****         #if(UART_CONTROL_REG_REMOVED == 0u)
 141:.\Generated_Source\PSoC5/UART_PM.c ****             UART_CONTROL_REG = UART_backup.cr;
 142:.\Generated_Source\PSoC5/UART_PM.c ****         #endif /* End UART_CONTROL_REG_REMOVED */
 143:.\Generated_Source\PSoC5/UART_PM.c **** 
 144:.\Generated_Source\PSoC5/UART_PM.c ****     #endif  /* End CY_UDB_V0 */
 145:.\Generated_Source\PSoC5/UART_PM.c **** }
  70              		.loc 1 145 0
  71 0004 BD46     		mov	sp, r7
  72 0006 80BC     		pop	{r7}
  73 0008 7047     		bx	lr
  74              		.cfi_endproc
  75              	.LFE1:
  76              		.size	UART_RestoreConfig, .-UART_RestoreConfig
  77 000a 00BF     		.section	.text.UART_Sleep,"ax",%progbits
  78              		.align	2
  79              		.global	UART_Sleep
  80              		.thumb
  81              		.thumb_func
  82              		.type	UART_Sleep, %function
  83              	UART_Sleep:
ARM GAS  C:\Users\RIEKOH~1\AppData\Local\Temp\ccKwzQtj.s 			page 5


  84              	.LFB2:
 146:.\Generated_Source\PSoC5/UART_PM.c **** 
 147:.\Generated_Source\PSoC5/UART_PM.c **** 
 148:.\Generated_Source\PSoC5/UART_PM.c **** /*******************************************************************************
 149:.\Generated_Source\PSoC5/UART_PM.c **** * Function Name: UART_Sleep
 150:.\Generated_Source\PSoC5/UART_PM.c **** ********************************************************************************
 151:.\Generated_Source\PSoC5/UART_PM.c **** *
 152:.\Generated_Source\PSoC5/UART_PM.c **** * Summary:
 153:.\Generated_Source\PSoC5/UART_PM.c **** *  Stops and saves the user configuration. Should be called
 154:.\Generated_Source\PSoC5/UART_PM.c **** *  just prior to entering sleep.
 155:.\Generated_Source\PSoC5/UART_PM.c **** *
 156:.\Generated_Source\PSoC5/UART_PM.c **** *
 157:.\Generated_Source\PSoC5/UART_PM.c **** * Parameters:
 158:.\Generated_Source\PSoC5/UART_PM.c **** *  None.
 159:.\Generated_Source\PSoC5/UART_PM.c **** *
 160:.\Generated_Source\PSoC5/UART_PM.c **** * Return:
 161:.\Generated_Source\PSoC5/UART_PM.c **** *  None.
 162:.\Generated_Source\PSoC5/UART_PM.c **** *
 163:.\Generated_Source\PSoC5/UART_PM.c **** * Global Variables:
 164:.\Generated_Source\PSoC5/UART_PM.c **** *  UART_backup - modified when non-retention registers are saved.
 165:.\Generated_Source\PSoC5/UART_PM.c **** *
 166:.\Generated_Source\PSoC5/UART_PM.c **** * Reentrant:
 167:.\Generated_Source\PSoC5/UART_PM.c **** *  No.
 168:.\Generated_Source\PSoC5/UART_PM.c **** *
 169:.\Generated_Source\PSoC5/UART_PM.c **** *******************************************************************************/
 170:.\Generated_Source\PSoC5/UART_PM.c **** void UART_Sleep(void)
 171:.\Generated_Source\PSoC5/UART_PM.c **** {
  85              		.loc 1 171 0
  86              		.cfi_startproc
  87              		@ args = 0, pretend = 0, frame = 0
  88              		@ frame_needed = 1, uses_anonymous_args = 0
  89 0000 80B5     		push	{r7, lr}
  90              	.LCFI4:
  91              		.cfi_def_cfa_offset 8
  92              		.cfi_offset 7, -8
  93              		.cfi_offset 14, -4
  94 0002 00AF     		add	r7, sp, #0
  95              	.LCFI5:
  96              		.cfi_def_cfa_register 7
 172:.\Generated_Source\PSoC5/UART_PM.c **** 
 173:.\Generated_Source\PSoC5/UART_PM.c ****     #if(UART_RX_ENABLED || UART_HD_ENABLED)
 174:.\Generated_Source\PSoC5/UART_PM.c ****         if((UART_RXSTATUS_ACTL_REG  & UART_INT_ENABLE) != 0u)
  97              		.loc 1 174 0
  98 0004 46F29653 		movw	r3, #26006
  99 0008 C4F20003 		movt	r3, 16384
 100 000c 1B78     		ldrb	r3, [r3, #0]
 101 000e DBB2     		uxtb	r3, r3
 102 0010 03F01003 		and	r3, r3, #16
 103 0014 002B     		cmp	r3, #0
 104 0016 07D0     		beq	.L4
 175:.\Generated_Source\PSoC5/UART_PM.c ****         {
 176:.\Generated_Source\PSoC5/UART_PM.c ****             UART_backup.enableState = 1u;
 105              		.loc 1 176 0
 106 0018 40F20003 		movw	r3, #:lower16:UART_backup
 107 001c C0F20003 		movt	r3, #:upper16:UART_backup
 108 0020 4FF00102 		mov	r2, #1
 109 0024 1A70     		strb	r2, [r3, #0]
ARM GAS  C:\Users\RIEKOH~1\AppData\Local\Temp\ccKwzQtj.s 			page 6


 110 0026 06E0     		b	.L5
 111              	.L4:
 177:.\Generated_Source\PSoC5/UART_PM.c ****         }
 178:.\Generated_Source\PSoC5/UART_PM.c ****         else
 179:.\Generated_Source\PSoC5/UART_PM.c ****         {
 180:.\Generated_Source\PSoC5/UART_PM.c ****             UART_backup.enableState = 0u;
 112              		.loc 1 180 0
 113 0028 40F20003 		movw	r3, #:lower16:UART_backup
 114 002c C0F20003 		movt	r3, #:upper16:UART_backup
 115 0030 4FF00002 		mov	r2, #0
 116 0034 1A70     		strb	r2, [r3, #0]
 117              	.L5:
 181:.\Generated_Source\PSoC5/UART_PM.c ****         }
 182:.\Generated_Source\PSoC5/UART_PM.c ****     #else
 183:.\Generated_Source\PSoC5/UART_PM.c ****         if((UART_TXSTATUS_ACTL_REG  & UART_INT_ENABLE) !=0u)
 184:.\Generated_Source\PSoC5/UART_PM.c ****         {
 185:.\Generated_Source\PSoC5/UART_PM.c ****             UART_backup.enableState = 1u;
 186:.\Generated_Source\PSoC5/UART_PM.c ****         }
 187:.\Generated_Source\PSoC5/UART_PM.c ****         else
 188:.\Generated_Source\PSoC5/UART_PM.c ****         {
 189:.\Generated_Source\PSoC5/UART_PM.c ****             UART_backup.enableState = 0u;
 190:.\Generated_Source\PSoC5/UART_PM.c ****         }
 191:.\Generated_Source\PSoC5/UART_PM.c ****     #endif /* End UART_RX_ENABLED || UART_HD_ENABLED*/
 192:.\Generated_Source\PSoC5/UART_PM.c **** 
 193:.\Generated_Source\PSoC5/UART_PM.c ****     UART_Stop();
 118              		.loc 1 193 0
 119 0036 FFF7FEFF 		bl	UART_Stop
 194:.\Generated_Source\PSoC5/UART_PM.c ****     UART_SaveConfig();
 120              		.loc 1 194 0
 121 003a FFF7FEFF 		bl	UART_SaveConfig
 195:.\Generated_Source\PSoC5/UART_PM.c **** }
 122              		.loc 1 195 0
 123 003e 80BD     		pop	{r7, pc}
 124              		.cfi_endproc
 125              	.LFE2:
 126              		.size	UART_Sleep, .-UART_Sleep
 127              		.section	.text.UART_Wakeup,"ax",%progbits
 128              		.align	2
 129              		.global	UART_Wakeup
 130              		.thumb
 131              		.thumb_func
 132              		.type	UART_Wakeup, %function
 133              	UART_Wakeup:
 134              	.LFB3:
 196:.\Generated_Source\PSoC5/UART_PM.c **** 
 197:.\Generated_Source\PSoC5/UART_PM.c **** 
 198:.\Generated_Source\PSoC5/UART_PM.c **** /*******************************************************************************
 199:.\Generated_Source\PSoC5/UART_PM.c **** * Function Name: UART_Wakeup
 200:.\Generated_Source\PSoC5/UART_PM.c **** ********************************************************************************
 201:.\Generated_Source\PSoC5/UART_PM.c **** *
 202:.\Generated_Source\PSoC5/UART_PM.c **** * Summary:
 203:.\Generated_Source\PSoC5/UART_PM.c **** *  Restores and enables the user configuration. Should be called
 204:.\Generated_Source\PSoC5/UART_PM.c **** *  just after awaking from sleep.
 205:.\Generated_Source\PSoC5/UART_PM.c **** *
 206:.\Generated_Source\PSoC5/UART_PM.c **** * Parameters:
 207:.\Generated_Source\PSoC5/UART_PM.c **** *  None.
 208:.\Generated_Source\PSoC5/UART_PM.c **** *
ARM GAS  C:\Users\RIEKOH~1\AppData\Local\Temp\ccKwzQtj.s 			page 7


 209:.\Generated_Source\PSoC5/UART_PM.c **** * Return:
 210:.\Generated_Source\PSoC5/UART_PM.c **** *  None.
 211:.\Generated_Source\PSoC5/UART_PM.c **** *
 212:.\Generated_Source\PSoC5/UART_PM.c **** * Global Variables:
 213:.\Generated_Source\PSoC5/UART_PM.c **** *  UART_backup - used when non-retention registers are restored.
 214:.\Generated_Source\PSoC5/UART_PM.c **** *
 215:.\Generated_Source\PSoC5/UART_PM.c **** * Reentrant:
 216:.\Generated_Source\PSoC5/UART_PM.c **** *  No.
 217:.\Generated_Source\PSoC5/UART_PM.c **** *
 218:.\Generated_Source\PSoC5/UART_PM.c **** *******************************************************************************/
 219:.\Generated_Source\PSoC5/UART_PM.c **** void UART_Wakeup(void)
 220:.\Generated_Source\PSoC5/UART_PM.c **** {
 135              		.loc 1 220 0
 136              		.cfi_startproc
 137              		@ args = 0, pretend = 0, frame = 0
 138              		@ frame_needed = 1, uses_anonymous_args = 0
 139 0000 80B5     		push	{r7, lr}
 140              	.LCFI6:
 141              		.cfi_def_cfa_offset 8
 142              		.cfi_offset 7, -8
 143              		.cfi_offset 14, -4
 144 0002 00AF     		add	r7, sp, #0
 145              	.LCFI7:
 146              		.cfi_def_cfa_register 7
 221:.\Generated_Source\PSoC5/UART_PM.c ****     UART_RestoreConfig();
 147              		.loc 1 221 0
 148 0004 FFF7FEFF 		bl	UART_RestoreConfig
 222:.\Generated_Source\PSoC5/UART_PM.c ****     #if( (UART_RX_ENABLED) || (UART_HD_ENABLED) )
 223:.\Generated_Source\PSoC5/UART_PM.c ****         UART_ClearRxBuffer();
 149              		.loc 1 223 0
 150 0008 FFF7FEFF 		bl	UART_ClearRxBuffer
 224:.\Generated_Source\PSoC5/UART_PM.c ****     #endif /* End (UART_RX_ENABLED) || (UART_HD_ENABLED) */
 225:.\Generated_Source\PSoC5/UART_PM.c ****     #if(UART_TX_ENABLED || UART_HD_ENABLED)
 226:.\Generated_Source\PSoC5/UART_PM.c ****         UART_ClearTxBuffer();
 151              		.loc 1 226 0
 152 000c FFF7FEFF 		bl	UART_ClearTxBuffer
 227:.\Generated_Source\PSoC5/UART_PM.c ****     #endif /* End UART_TX_ENABLED || UART_HD_ENABLED */
 228:.\Generated_Source\PSoC5/UART_PM.c **** 
 229:.\Generated_Source\PSoC5/UART_PM.c ****     if(UART_backup.enableState != 0u)
 153              		.loc 1 229 0
 154 0010 40F20003 		movw	r3, #:lower16:UART_backup
 155 0014 C0F20003 		movt	r3, #:upper16:UART_backup
 156 0018 1B78     		ldrb	r3, [r3, #0]	@ zero_extendqisi2
 157 001a 002B     		cmp	r3, #0
 158 001c 01D0     		beq	.L6
 230:.\Generated_Source\PSoC5/UART_PM.c ****     {
 231:.\Generated_Source\PSoC5/UART_PM.c ****         UART_Enable();
 159              		.loc 1 231 0
 160 001e FFF7FEFF 		bl	UART_Enable
 161              	.L6:
 232:.\Generated_Source\PSoC5/UART_PM.c ****     }
 233:.\Generated_Source\PSoC5/UART_PM.c **** }
 162              		.loc 1 233 0
 163 0022 80BD     		pop	{r7, pc}
 164              		.cfi_endproc
 165              	.LFE3:
 166              		.size	UART_Wakeup, .-UART_Wakeup
ARM GAS  C:\Users\RIEKOH~1\AppData\Local\Temp\ccKwzQtj.s 			page 8


 167              		.text
 168              	.Letext0:
 169              		.file 2 ".\\Generated_Source\\PSoC5\\cytypes.h"
 170              		.file 3 ".\\Generated_Source\\PSoC5\\UART.h"
