ARM GAS  C:\Users\RIEKOH~1\AppData\Local\Temp\ccfc0hsw.s 			page 1


   1              		.syntax unified
   2              		.cpu cortex-m3
   3              		.fpu softvfp
   4              		.eabi_attribute 20, 1
   5              		.eabi_attribute 21, 1
   6              		.eabi_attribute 23, 3
   7              		.eabi_attribute 24, 1
   8              		.eabi_attribute 25, 1
   9              		.eabi_attribute 26, 1
  10              		.eabi_attribute 30, 6
  11              		.eabi_attribute 34, 1
  12              		.eabi_attribute 18, 4
  13              		.thumb
  14              		.file	"main.c"
  15              		.text
  16              	.Ltext0:
  17              		.cfi_sections	.debug_frame
  18              		.section	.text.WRITE,"ax",%progbits
  19              		.align	2
  20              		.global	WRITE
  21              		.thumb
  22              		.thumb_func
  23              		.type	WRITE, %function
  24              	WRITE:
  25              	.LFB56:
  26              		.file 1 ".\\main.c"
   1:.\main.c      **** /* ========================================
   2:.\main.c      ****  * tail14 double 2014/6/5
   3:.\main.c      ****  * 
   4:.\main.c      ****  * R.Hirota
   5:.\main.c      ****  * ========================================
   6:.\main.c      **** */
   7:.\main.c      **** #include <project.h>
   8:.\main.c      **** 
   9:.\main.c      **** void WRITE(){
  27              		.loc 1 9 0
  28              		.cfi_startproc
  29              		@ args = 0, pretend = 0, frame = 0
  30              		@ frame_needed = 1, uses_anonymous_args = 0
  31 0000 80B5     		push	{r7, lr}
  32              	.LCFI0:
  33              		.cfi_def_cfa_offset 8
  34              		.cfi_offset 7, -8
  35              		.cfi_offset 14, -4
  36 0002 00AF     		add	r7, sp, #0
  37              	.LCFI1:
  38              		.cfi_def_cfa_register 7
  10:.\main.c      ****     if(Control_Reg_1_Read()){
  39              		.loc 1 10 0
  40 0004 FFF7FEFF 		bl	Control_Reg_1_Read
  41 0008 0346     		mov	r3, r0
  42 000a 002B     		cmp	r3, #0
  43 000c 08D0     		beq	.L2
  11:.\main.c      ****         DE_0_Write(0),DE_1_Write(1);
  44              		.loc 1 11 0
  45 000e 4FF00000 		mov	r0, #0
  46 0012 FFF7FEFF 		bl	DE_0_Write
ARM GAS  C:\Users\RIEKOH~1\AppData\Local\Temp\ccfc0hsw.s 			page 2


  47 0016 4FF00100 		mov	r0, #1
  48 001a FFF7FEFF 		bl	DE_1_Write
  49 001e 07E0     		b	.L1
  50              	.L2:
  12:.\main.c      ****     }
  13:.\main.c      ****     else{
  14:.\main.c      ****         DE_0_Write(1),DE_1_Write(0);
  51              		.loc 1 14 0
  52 0020 4FF00100 		mov	r0, #1
  53 0024 FFF7FEFF 		bl	DE_0_Write
  54 0028 4FF00000 		mov	r0, #0
  55 002c FFF7FEFF 		bl	DE_1_Write
  56              	.L1:
  15:.\main.c      ****     }
  16:.\main.c      **** }
  57              		.loc 1 16 0
  58 0030 80BD     		pop	{r7, pc}
  59              		.cfi_endproc
  60              	.LFE56:
  61              		.size	WRITE, .-WRITE
  62 0032 00BF     		.section	.text.READ,"ax",%progbits
  63              		.align	2
  64              		.global	READ
  65              		.thumb
  66              		.thumb_func
  67              		.type	READ, %function
  68              	READ:
  69              	.LFB57:
  17:.\main.c      **** 
  18:.\main.c      **** void READ(){
  70              		.loc 1 18 0
  71              		.cfi_startproc
  72              		@ args = 0, pretend = 0, frame = 0
  73              		@ frame_needed = 1, uses_anonymous_args = 0
  74 0000 80B5     		push	{r7, lr}
  75              	.LCFI2:
  76              		.cfi_def_cfa_offset 8
  77              		.cfi_offset 7, -8
  78              		.cfi_offset 14, -4
  79 0002 00AF     		add	r7, sp, #0
  80              	.LCFI3:
  81              		.cfi_def_cfa_register 7
  19:.\main.c      ****     DE_0_Write(0),DE_1_Write(0);
  82              		.loc 1 19 0
  83 0004 4FF00000 		mov	r0, #0
  84 0008 FFF7FEFF 		bl	DE_0_Write
  85 000c 4FF00000 		mov	r0, #0
  86 0010 FFF7FEFF 		bl	DE_1_Write
  20:.\main.c      **** }
  87              		.loc 1 20 0
  88 0014 80BD     		pop	{r7, pc}
  89              		.cfi_endproc
  90              	.LFE57:
  91              		.size	READ, .-READ
  92              		.comm	elevator_buffer,4,4
  93              		.comm	radder_buffer,4,4
  94              		.comm	rad_now,4,4
ARM GAS  C:\Users\RIEKOH~1\AppData\Local\Temp\ccfc0hsw.s 			page 3


  95              		.comm	rad_error,4,4
  96              		.comm	pak,6,4
  97              		.global	counter
  98 0016 00BF     		.bss
  99              		.align	2
 100              		.type	counter, %object
 101              		.size	counter, 4
 102              	counter:
 103 0000 00000000 		.space	4
 104              		.section	.text.main,"ax",%progbits
 105              		.align	2
 106              		.global	main
 107              		.thumb
 108              		.thumb_func
 109              		.type	main, %function
 110              	main:
 111              	.LFB58:
  21:.\main.c      **** 
  22:.\main.c      **** #define	RS485_PACKET_LENGTH	(6)
  23:.\main.c      **** 
  24:.\main.c      **** typedef union _tagRS485_PACKET {
  25:.\main.c      **** 	struct {
  26:.\main.c      **** 		unsigned char bStatus;
  27:.\main.c      **** 		unsigned char bCheckSum;
  28:.\main.c      **** 		unsigned short wData[2];
  29:.\main.c      **** 	} _pak;
  30:.\main.c      **** 	unsigned char _byte[RS485_PACKET_LENGTH];
  31:.\main.c      **** } PACKET;
  32:.\main.c      **** 
  33:.\main.c      **** void rs485_Start(void);
  34:.\main.c      **** void rs485_isr(void);
  35:.\main.c      **** char rs485_CheckPacket(char, PACKET*);
  36:.\main.c      **** char CheckValid(PACKET *);
  37:.\main.c      **** void Servo_Start(void);
  38:.\main.c      **** void Terminal_Count_ISR(void);
  39:.\main.c      **** unsigned int FormatValueElv(unsigned short);
  40:.\main.c      **** unsigned int FormatValueRad(unsigned short);
  41:.\main.c      **** int CenterStatus1(void);
  42:.\main.c      **** int CenterStatus2(void);
  43:.\main.c      **** void SignalChange(void);
  44:.\main.c      **** 
  45:.\main.c      **** #define	PACKET_ENDIANCHANGE(x)	{\
  46:.\main.c      **** 	char temp; \
  47:.\main.c      **** 	temp = x->_byte[2]; \
  48:.\main.c      **** 	x->_byte[2] = x->_byte[3]; \
  49:.\main.c      **** 	x->_byte[3] = temp; \
  50:.\main.c      **** 	temp = x->_byte[4]; \
  51:.\main.c      **** 	x->_byte[4] = x->_byte[5]; \
  52:.\main.c      **** 	x->_byte[5] = temp; \
  53:.\main.c      **** 	}
  54:.\main.c      **** 
  55:.\main.c      **** //Global variable here.
  56:.\main.c      **** 
  57:.\main.c      **** unsigned int
  58:.\main.c      **** 	elevator_buffer, 
  59:.\main.c      **** 	radder_buffer;
  60:.\main.c      ****     rad_now;
ARM GAS  C:\Users\RIEKOH~1\AppData\Local\Temp\ccfc0hsw.s 			page 4


  61:.\main.c      ****     rad_error;
  62:.\main.c      **** PACKET pak;
  63:.\main.c      **** 
  64:.\main.c      **** int counter = 0;
  65:.\main.c      **** 
  66:.\main.c      **** void main(){ 
 112              		.loc 1 66 0
 113              		.cfi_startproc
 114              		@ args = 0, pretend = 0, frame = 0
 115              		@ frame_needed = 1, uses_anonymous_args = 0
 116 0000 80B5     		push	{r7, lr}
 117              	.LCFI4:
 118              		.cfi_def_cfa_offset 8
 119              		.cfi_offset 7, -8
 120              		.cfi_offset 14, -4
 121 0002 00AF     		add	r7, sp, #0
 122              	.LCFI5:
 123              		.cfi_def_cfa_register 7
  67:.\main.c      ****     
  68:.\main.c      ****     rs485_Start();   
 124              		.loc 1 68 0
 125 0004 FFF7FEFF 		bl	rs485_Start
  69:.\main.c      ****     Servo_Start();
 126              		.loc 1 69 0
 127 0008 FFF7FEFF 		bl	Servo_Start
  70:.\main.c      ****     CyGlobalIntEnable;  // Uncomment this line to enable global interrupts. 
 128              		.loc 1 70 0
 129              	@ 70 ".\main.c" 1
 130 000c 62B6     		CPSIE   i
 131              	@ 0 "" 2
 132              		.thumb
 133              	.L10:
  71:.\main.c      **** 
  72:.\main.c      **** 	while(1) {
  73:.\main.c      **** 		if(rs485_CheckPacket(0x55, &pak)==0) {
 134              		.loc 1 73 0
 135 000e 4FF05500 		mov	r0, #85
 136 0012 40F20001 		movw	r1, #:lower16:pak
 137 0016 C0F20001 		movt	r1, #:upper16:pak
 138 001a FFF7FEFF 		bl	rs485_CheckPacket
 139 001e 0346     		mov	r3, r0
 140 0020 002B     		cmp	r3, #0
 141 0022 50D1     		bne	.L6
  74:.\main.c      ****             LED_2_Write(1);
 142              		.loc 1 74 0
 143 0024 4FF00100 		mov	r0, #1
 144 0028 FFF7FEFF 		bl	LED_2_Write
  75:.\main.c      ****             LED_1_Write(0);
 145              		.loc 1 75 0
 146 002c 4FF00000 		mov	r0, #0
 147 0030 FFF7FEFF 		bl	LED_1_Write
  76:.\main.c      ****             LED_4_Write(1);
 148              		.loc 1 76 0
 149 0034 4FF00100 		mov	r0, #1
 150 0038 FFF7FEFF 		bl	LED_4_Write
  77:.\main.c      ****             if(CheckValid(&pak)==1) {
 151              		.loc 1 77 0
ARM GAS  C:\Users\RIEKOH~1\AppData\Local\Temp\ccfc0hsw.s 			page 5


 152 003c 40F20000 		movw	r0, #:lower16:pak
 153 0040 C0F20000 		movt	r0, #:upper16:pak
 154 0044 FFF7FEFF 		bl	CheckValid
 155 0048 0346     		mov	r3, r0
 156 004a 012B     		cmp	r3, #1
 157 004c 2ED1     		bne	.L7
  78:.\main.c      ****                 counter++;
 158              		.loc 1 78 0
 159 004e 40F20003 		movw	r3, #:lower16:counter
 160 0052 C0F20003 		movt	r3, #:upper16:counter
 161 0056 1B68     		ldr	r3, [r3, #0]
 162 0058 03F10102 		add	r2, r3, #1
 163 005c 40F20003 		movw	r3, #:lower16:counter
 164 0060 C0F20003 		movt	r3, #:upper16:counter
 165 0064 1A60     		str	r2, [r3, #0]
  79:.\main.c      ****                 elevator_buffer = pak._pak.wData[0];
 166              		.loc 1 79 0
 167 0066 40F20003 		movw	r3, #:lower16:pak
 168 006a C0F20003 		movt	r3, #:upper16:pak
 169 006e 5B88     		ldrh	r3, [r3, #2]
 170 0070 1A46     		mov	r2, r3
 171 0072 40F20003 		movw	r3, #:lower16:elevator_buffer
 172 0076 C0F20003 		movt	r3, #:upper16:elevator_buffer
 173 007a 1A60     		str	r2, [r3, #0]
  80:.\main.c      **** 				radder_buffer = pak._pak.wData[1];
 174              		.loc 1 80 0
 175 007c 40F20003 		movw	r3, #:lower16:pak
 176 0080 C0F20003 		movt	r3, #:upper16:pak
 177 0084 9B88     		ldrh	r3, [r3, #4]
 178 0086 1A46     		mov	r2, r3
 179 0088 40F20003 		movw	r3, #:lower16:radder_buffer
 180 008c C0F20003 		movt	r3, #:upper16:radder_buffer
 181 0090 1A60     		str	r2, [r3, #0]
  81:.\main.c      ****                 LED_2_Write(0);
 182              		.loc 1 81 0
 183 0092 4FF00000 		mov	r0, #0
 184 0096 FFF7FEFF 		bl	LED_2_Write
  82:.\main.c      ****                 LED_1_Write(0);
 185              		.loc 1 82 0
 186 009a 4FF00000 		mov	r0, #0
 187 009e FFF7FEFF 		bl	LED_1_Write
  83:.\main.c      ****                 LED_4_Write(1);
 188              		.loc 1 83 0
 189 00a2 4FF00100 		mov	r0, #1
 190 00a6 FFF7FEFF 		bl	LED_4_Write
  84:.\main.c      ****             } else {
  85:.\main.c      ****                 LED_1_Write(1);
  86:.\main.c      ****                 LED_2_Write(1);
  87:.\main.c      ****                 LED_4_Write(1);
  88:.\main.c      ****             }
  89:.\main.c      ****         } else {
  90:.\main.c      ****             LED_2_Write(1);
  91:.\main.c      ****             LED_4_Write(1);
  92:.\main.c      ****             if(counter > -500){
  93:.\main.c      ****                 counter--;
  94:.\main.c      ****             }else{
  95:.\main.c      ****                 SignalChange();
ARM GAS  C:\Users\RIEKOH~1\AppData\Local\Temp\ccfc0hsw.s 			page 6


  96:.\main.c      ****                 LED_4_Write(0);
  97:.\main.c      ****                 counter = 0;
  98:.\main.c      ****             }
  99:.\main.c      ****         } 
 100:.\main.c      **** 	}
 191              		.loc 1 100 0
 192 00aa B0E7     		b	.L10
 193              	.L7:
  85:.\main.c      ****                 LED_1_Write(1);
 194              		.loc 1 85 0
 195 00ac 4FF00100 		mov	r0, #1
 196 00b0 FFF7FEFF 		bl	LED_1_Write
  86:.\main.c      ****                 LED_2_Write(1);
 197              		.loc 1 86 0
 198 00b4 4FF00100 		mov	r0, #1
 199 00b8 FFF7FEFF 		bl	LED_2_Write
  87:.\main.c      ****                 LED_4_Write(1);
 200              		.loc 1 87 0
 201 00bc 4FF00100 		mov	r0, #1
 202 00c0 FFF7FEFF 		bl	LED_4_Write
 203              		.loc 1 100 0
 204 00c4 A3E7     		b	.L10
 205              	.L6:
  90:.\main.c      ****             LED_2_Write(1);
 206              		.loc 1 90 0
 207 00c6 4FF00100 		mov	r0, #1
 208 00ca FFF7FEFF 		bl	LED_2_Write
  91:.\main.c      ****             LED_4_Write(1);
 209              		.loc 1 91 0
 210 00ce 4FF00100 		mov	r0, #1
 211 00d2 FFF7FEFF 		bl	LED_4_Write
  92:.\main.c      ****             if(counter > -500){
 212              		.loc 1 92 0
 213 00d6 40F20003 		movw	r3, #:lower16:counter
 214 00da C0F20003 		movt	r3, #:upper16:counter
 215 00de 1A68     		ldr	r2, [r3, #0]
 216 00e0 6FF4F973 		mvn	r3, #498
 217 00e4 9A42     		cmp	r2, r3
 218 00e6 0CDB     		blt	.L9
  93:.\main.c      ****                 counter--;
 219              		.loc 1 93 0
 220 00e8 40F20003 		movw	r3, #:lower16:counter
 221 00ec C0F20003 		movt	r3, #:upper16:counter
 222 00f0 1B68     		ldr	r3, [r3, #0]
 223 00f2 03F1FF32 		add	r2, r3, #-1
 224 00f6 40F20003 		movw	r3, #:lower16:counter
 225 00fa C0F20003 		movt	r3, #:upper16:counter
 226 00fe 1A60     		str	r2, [r3, #0]
 227              		.loc 1 100 0
 228 0100 85E7     		b	.L10
 229              	.L9:
  95:.\main.c      ****                 SignalChange();
 230              		.loc 1 95 0
 231 0102 FFF7FEFF 		bl	SignalChange
  96:.\main.c      ****                 LED_4_Write(0);
 232              		.loc 1 96 0
 233 0106 4FF00000 		mov	r0, #0
ARM GAS  C:\Users\RIEKOH~1\AppData\Local\Temp\ccfc0hsw.s 			page 7


 234 010a FFF7FEFF 		bl	LED_4_Write
  97:.\main.c      ****                 counter = 0;
 235              		.loc 1 97 0
 236 010e 40F20003 		movw	r3, #:lower16:counter
 237 0112 C0F20003 		movt	r3, #:upper16:counter
 238 0116 4FF00002 		mov	r2, #0
 239 011a 1A60     		str	r2, [r3, #0]
 240              		.loc 1 100 0
 241 011c 77E7     		b	.L10
 242              		.cfi_endproc
 243              	.LFE58:
 244              		.size	main, .-main
 245 011e 00BF     		.section	.text.Timer_Set,"ax",%progbits
 246              		.align	2
 247              		.global	Timer_Set
 248              		.thumb
 249              		.thumb_func
 250              		.type	Timer_Set, %function
 251              	Timer_Set:
 252              	.LFB59:
 101:.\main.c      ****     return;
 102:.\main.c      **** }
 103:.\main.c      **** 
 104:.\main.c      **** void Timer_Set(unsigned int ms){
 253              		.loc 1 104 0
 254              		.cfi_startproc
 255              		@ args = 0, pretend = 0, frame = 8
 256              		@ frame_needed = 1, uses_anonymous_args = 0
 257 0000 80B5     		push	{r7, lr}
 258              	.LCFI6:
 259              		.cfi_def_cfa_offset 8
 260              		.cfi_offset 7, -8
 261              		.cfi_offset 14, -4
 262 0002 82B0     		sub	sp, sp, #8
 263              	.LCFI7:
 264              		.cfi_def_cfa_offset 16
 265 0004 00AF     		add	r7, sp, #0
 266              	.LCFI8:
 267              		.cfi_def_cfa_register 7
 268 0006 7860     		str	r0, [r7, #4]
 105:.\main.c      **** 	Timer_WriteCounter(ms);
 269              		.loc 1 105 0
 270 0008 7B68     		ldr	r3, [r7, #4]
 271 000a 9BB2     		uxth	r3, r3
 272 000c 1846     		mov	r0, r3
 273 000e FFF7FEFF 		bl	Timer_WriteCounter
 106:.\main.c      **** 	return;
 274              		.loc 1 106 0
 275 0012 00BF     		nop
 107:.\main.c      **** }
 276              		.loc 1 107 0
 277 0014 07F10807 		add	r7, r7, #8
 278 0018 BD46     		mov	sp, r7
 279 001a 80BD     		pop	{r7, pc}
 280              		.cfi_endproc
 281              	.LFE59:
 282              		.size	Timer_Set, .-Timer_Set
ARM GAS  C:\Users\RIEKOH~1\AppData\Local\Temp\ccfc0hsw.s 			page 8


 283              		.section	.text.Timer_Delayus,"ax",%progbits
 284              		.align	2
 285              		.global	Timer_Delayus
 286              		.thumb
 287              		.thumb_func
 288              		.type	Timer_Delayus, %function
 289              	Timer_Delayus:
 290              	.LFB60:
 108:.\main.c      **** 
 109:.\main.c      **** void Timer_Delayus(unsigned int us){
 291              		.loc 1 109 0
 292              		.cfi_startproc
 293              		@ args = 0, pretend = 0, frame = 8
 294              		@ frame_needed = 1, uses_anonymous_args = 0
 295 0000 80B5     		push	{r7, lr}
 296              	.LCFI9:
 297              		.cfi_def_cfa_offset 8
 298              		.cfi_offset 7, -8
 299              		.cfi_offset 14, -4
 300 0002 82B0     		sub	sp, sp, #8
 301              	.LCFI10:
 302              		.cfi_def_cfa_offset 16
 303 0004 00AF     		add	r7, sp, #0
 304              	.LCFI11:
 305              		.cfi_def_cfa_register 7
 306 0006 7860     		str	r0, [r7, #4]
 110:.\main.c      **** 	Timer_Set(us + 50);
 307              		.loc 1 110 0
 308 0008 7B68     		ldr	r3, [r7, #4]
 309 000a 03F13203 		add	r3, r3, #50
 310 000e 1846     		mov	r0, r3
 311 0010 FFF7FEFF 		bl	Timer_Set
 111:.\main.c      **** 	while(Timer_ReadCounter() > 50) {}
 312              		.loc 1 111 0
 313 0014 00BF     		nop
 314              	.L14:
 315              		.loc 1 111 0 is_stmt 0 discriminator 1
 316 0016 FFF7FEFF 		bl	Timer_ReadCounter
 317 001a 0346     		mov	r3, r0
 318 001c 322B     		cmp	r3, #50
 319 001e FAD8     		bhi	.L14
 112:.\main.c      **** 	return;
 320              		.loc 1 112 0 is_stmt 1
 321 0020 00BF     		nop
 113:.\main.c      **** }
 322              		.loc 1 113 0
 323 0022 07F10807 		add	r7, r7, #8
 324 0026 BD46     		mov	sp, r7
 325 0028 80BD     		pop	{r7, pc}
 326              		.cfi_endproc
 327              	.LFE60:
 328              		.size	Timer_Delayus, .-Timer_Delayus
 329 002a 00BF     		.section	.text.rs485_Start,"ax",%progbits
 330              		.align	2
 331              		.global	rs485_Start
 332              		.thumb
 333              		.thumb_func
ARM GAS  C:\Users\RIEKOH~1\AppData\Local\Temp\ccfc0hsw.s 			page 9


 334              		.type	rs485_Start, %function
 335              	rs485_Start:
 336              	.LFB61:
 114:.\main.c      **** 
 115:.\main.c      **** void rs485_Start(void){
 337              		.loc 1 115 0
 338              		.cfi_startproc
 339              		@ args = 0, pretend = 0, frame = 0
 340              		@ frame_needed = 1, uses_anonymous_args = 0
 341 0000 80B5     		push	{r7, lr}
 342              	.LCFI12:
 343              		.cfi_def_cfa_offset 8
 344              		.cfi_offset 7, -8
 345              		.cfi_offset 14, -4
 346 0002 00AF     		add	r7, sp, #0
 347              	.LCFI13:
 348              		.cfi_def_cfa_register 7
 116:.\main.c      **** 	UART_Start();
 349              		.loc 1 116 0
 350 0004 FFF7FEFF 		bl	UART_Start
 117:.\main.c      **** 	Timer_Start();
 351              		.loc 1 117 0
 352 0008 FFF7FEFF 		bl	Timer_Start
 118:.\main.c      **** 	return;
 353              		.loc 1 118 0
 354 000c 00BF     		nop
 119:.\main.c      **** }
 355              		.loc 1 119 0
 356 000e 80BD     		pop	{r7, pc}
 357              		.cfi_endproc
 358              	.LFE61:
 359              		.size	rs485_Start, .-rs485_Start
 360              		.section	.text.rs485_CheckPacket,"ax",%progbits
 361              		.align	2
 362              		.global	rs485_CheckPacket
 363              		.thumb
 364              		.thumb_func
 365              		.type	rs485_CheckPacket, %function
 366              	rs485_CheckPacket:
 367              	.LFB62:
 120:.\main.c      **** 
 121:.\main.c      **** /*
 122:.\main.c      ****  * rs485_CheckPacket
 123:.\main.c      ****  * 複数アドレス対応版 ビット3-6が一致で応答
 124:.\main.c      ****  * addr : device address (7bit unsigned)
 125:.\main.c      ****  * pak : pointer to PACKET structure
 126:.\main.c      ****  */
 127:.\main.c      **** char rs485_CheckPacket(
 128:.\main.c      **** 	char addr,
 129:.\main.c      **** 	PACKET *pak)
 130:.\main.c      **** {
 368              		.loc 1 130 0
 369              		.cfi_startproc
 370              		@ args = 0, pretend = 0, frame = 16
 371              		@ frame_needed = 1, uses_anonymous_args = 0
 372 0000 90B5     		push	{r4, r7, lr}
 373              	.LCFI14:
ARM GAS  C:\Users\RIEKOH~1\AppData\Local\Temp\ccfc0hsw.s 			page 10


 374              		.cfi_def_cfa_offset 12
 375              		.cfi_offset 4, -12
 376              		.cfi_offset 7, -8
 377              		.cfi_offset 14, -4
 378 0002 85B0     		sub	sp, sp, #20
 379              	.LCFI15:
 380              		.cfi_def_cfa_offset 32
 381 0004 00AF     		add	r7, sp, #0
 382              	.LCFI16:
 383              		.cfi_def_cfa_register 7
 384 0006 0346     		mov	r3, r0
 385 0008 3960     		str	r1, [r7, #0]
 386 000a FB71     		strb	r3, [r7, #7]
 131:.\main.c      **** 	char rcv;
 132:.\main.c      **** 	unsigned char i;
 133:.\main.c      **** 	
 134:.\main.c      **** 	if((UART_ReadRxStatus() & UART_RX_STS_FIFO_NOTEMPTY) == 0)
 387              		.loc 1 134 0
 388 000c FFF7FEFF 		bl	UART_ReadRxStatus
 389 0010 0346     		mov	r3, r0
 390 0012 03F02003 		and	r3, r3, #32
 391 0016 002B     		cmp	r3, #0
 392 0018 08D1     		bne	.L19
 135:.\main.c      **** 	{
 136:.\main.c      ****         LED_1_Write(1);
 393              		.loc 1 136 0
 394 001a 4FF00100 		mov	r0, #1
 395 001e FFF7FEFF 		bl	LED_1_Write
 137:.\main.c      **** 		READ();
 396              		.loc 1 137 0
 397 0022 FFF7FEFF 		bl	READ
 138:.\main.c      **** 		return 1;
 398              		.loc 1 138 0
 399 0026 4FF00103 		mov	r3, #1
 400 002a B2E0     		b	.L20
 401              	.L19:
 139:.\main.c      **** 	}
 140:.\main.c      **** 	LED_1_Write(1);
 402              		.loc 1 140 0
 403 002c 4FF00100 		mov	r0, #1
 404 0030 FFF7FEFF 		bl	LED_1_Write
 141:.\main.c      **** 	rcv = UART_ReadRxData();
 405              		.loc 1 141 0
 406 0034 FFF7FEFF 		bl	UART_ReadRxData
 407 0038 0346     		mov	r3, r0
 408 003a BB73     		strb	r3, [r7, #14]
 142:.\main.c      **** 	UART_ClearRxBuffer();
 409              		.loc 1 142 0
 410 003c FFF7FEFF 		bl	UART_ClearRxBuffer
 143:.\main.c      **** 	if(addr != (rcv & 0x7f)){
 411              		.loc 1 143 0
 412 0040 FA79     		ldrb	r2, [r7, #7]	@ zero_extendqisi2
 413 0042 BB7B     		ldrb	r3, [r7, #14]	@ zero_extendqisi2
 414 0044 03F07F03 		and	r3, r3, #127
 415 0048 9A42     		cmp	r2, r3
 416 004a 20D0     		beq	.L21
 144:.\main.c      **** 		Timer_Set(200);
ARM GAS  C:\Users\RIEKOH~1\AppData\Local\Temp\ccfc0hsw.s 			page 11


 417              		.loc 1 144 0
 418 004c 4FF0C800 		mov	r0, #200
 419 0050 FFF7FEFF 		bl	Timer_Set
 145:.\main.c      **** 		READ();
 420              		.loc 1 145 0
 421 0054 FFF7FEFF 		bl	READ
 146:.\main.c      **** 		while(Timer_ReadCounter() > 49){
 422              		.loc 1 146 0
 423 0058 0FE0     		b	.L22
 424              	.L23:
 147:.\main.c      **** 			if((UART_ReadRxStatus() & UART_RX_STS_FIFO_NOTEMPTY) != 0){
 425              		.loc 1 147 0
 426 005a FFF7FEFF 		bl	UART_ReadRxStatus
 427 005e 0346     		mov	r3, r0
 428 0060 03F02003 		and	r3, r3, #32
 429 0064 002B     		cmp	r3, #0
 430 0066 08D0     		beq	.L22
 148:.\main.c      **** 				Timer_Delayus(900);
 431              		.loc 1 148 0
 432 0068 4FF46170 		mov	r0, #900
 433 006c FFF7FEFF 		bl	Timer_Delayus
 149:.\main.c      **** 				UART_ClearRxBuffer();
 434              		.loc 1 149 0
 435 0070 FFF7FEFF 		bl	UART_ClearRxBuffer
 150:.\main.c      **** 				return 1;
 436              		.loc 1 150 0
 437 0074 4FF00103 		mov	r3, #1
 438 0078 8BE0     		b	.L20
 439              	.L22:
 146:.\main.c      **** 		while(Timer_ReadCounter() > 49){
 440              		.loc 1 146 0 discriminator 1
 441 007a FFF7FEFF 		bl	Timer_ReadCounter
 442 007e 0346     		mov	r3, r0
 443 0080 312B     		cmp	r3, #49
 444 0082 EAD8     		bhi	.L23
 151:.\main.c      **** 			}
 152:.\main.c      **** 		}
 153:.\main.c      **** 		UART_ClearRxBuffer();
 445              		.loc 1 153 0
 446 0084 FFF7FEFF 		bl	UART_ClearRxBuffer
 154:.\main.c      **** 		return 1;
 447              		.loc 1 154 0
 448 0088 4FF00103 		mov	r3, #1
 449 008c 81E0     		b	.L20
 450              	.L21:
 155:.\main.c      **** 	}
 156:.\main.c      **** 	
 157:.\main.c      ****     LED_1_Write(0);
 451              		.loc 1 157 0
 452 008e 4FF00000 		mov	r0, #0
 453 0092 FFF7FEFF 		bl	LED_1_Write
 158:.\main.c      **** 	WRITE();
 454              		.loc 1 158 0
 455 0096 FFF7FEFF 		bl	WRITE
 159:.\main.c      **** 	UART_PutChar(addr);
 456              		.loc 1 159 0
 457 009a FB79     		ldrb	r3, [r7, #7]	@ zero_extendqisi2
ARM GAS  C:\Users\RIEKOH~1\AppData\Local\Temp\ccfc0hsw.s 			page 12


 458 009c 1846     		mov	r0, r3
 459 009e FFF7FEFF 		bl	UART_PutChar
 160:.\main.c      **** 	while(!(UART_ReadTxStatus() & UART_TX_STS_COMPLETE)) {}
 460              		.loc 1 160 0
 461 00a2 00BF     		nop
 462              	.L24:
 463              		.loc 1 160 0 is_stmt 0 discriminator 1
 464 00a4 FFF7FEFF 		bl	UART_ReadTxStatus
 465 00a8 0346     		mov	r3, r0
 466 00aa 03F00103 		and	r3, r3, #1
 467 00ae 002B     		cmp	r3, #0
 468 00b0 F8D0     		beq	.L24
 161:.\main.c      **** 	UART_ClearRxBuffer();
 469              		.loc 1 161 0 is_stmt 1
 470 00b2 FFF7FEFF 		bl	UART_ClearRxBuffer
 162:.\main.c      **** 	
 163:.\main.c      **** 	if(rcv & 0x80){
 471              		.loc 1 163 0
 472 00b6 BB7B     		ldrb	r3, [r7, #14]	@ zero_extendqisi2
 473 00b8 5BB2     		sxtb	r3, r3
 474 00ba 002B     		cmp	r3, #0
 475 00bc 2FDA     		bge	.L25
 476              	.LBB2:
 164:.\main.c      **** 		// send data to master
 165:.\main.c      **** 		PACKET_ENDIANCHANGE(pak);
 477              		.loc 1 165 0
 478 00be 3B68     		ldr	r3, [r7, #0]
 479 00c0 9B78     		ldrb	r3, [r3, #2]
 480 00c2 7B73     		strb	r3, [r7, #13]
 481 00c4 3B68     		ldr	r3, [r7, #0]
 482 00c6 DA78     		ldrb	r2, [r3, #3]	@ zero_extendqisi2
 483 00c8 3B68     		ldr	r3, [r7, #0]
 484 00ca 9A70     		strb	r2, [r3, #2]
 485 00cc 3B68     		ldr	r3, [r7, #0]
 486 00ce 7A7B     		ldrb	r2, [r7, #13]
 487 00d0 DA70     		strb	r2, [r3, #3]
 488 00d2 3B68     		ldr	r3, [r7, #0]
 489 00d4 1B79     		ldrb	r3, [r3, #4]
 490 00d6 7B73     		strb	r3, [r7, #13]
 491 00d8 3B68     		ldr	r3, [r7, #0]
 492 00da 5A79     		ldrb	r2, [r3, #5]	@ zero_extendqisi2
 493 00dc 3B68     		ldr	r3, [r7, #0]
 494 00de 1A71     		strb	r2, [r3, #4]
 495 00e0 3B68     		ldr	r3, [r7, #0]
 496 00e2 7A7B     		ldrb	r2, [r7, #13]
 497 00e4 5A71     		strb	r2, [r3, #5]
 498              	.LBE2:
 166:.\main.c      **** 		for(i = 0; i < 6; i++){
 499              		.loc 1 166 0
 500 00e6 4FF00003 		mov	r3, #0
 501 00ea FB73     		strb	r3, [r7, #15]
 502 00ec 13E0     		b	.L26
 503              	.L28:
 167:.\main.c      **** 			UART_PutChar(pak->_byte[i]);
 504              		.loc 1 167 0
 505 00ee FB7B     		ldrb	r3, [r7, #15]	@ zero_extendqisi2
 506 00f0 3A68     		ldr	r2, [r7, #0]
ARM GAS  C:\Users\RIEKOH~1\AppData\Local\Temp\ccfc0hsw.s 			page 13


 507 00f2 D35C     		ldrb	r3, [r2, r3]	@ zero_extendqisi2
 508 00f4 1846     		mov	r0, r3
 509 00f6 FFF7FEFF 		bl	UART_PutChar
 168:.\main.c      **** 			while(!(UART_ReadTxStatus() & UART_TX_STS_COMPLETE)) {}
 510              		.loc 1 168 0
 511 00fa 00BF     		nop
 512              	.L27:
 513              		.loc 1 168 0 is_stmt 0 discriminator 1
 514 00fc FFF7FEFF 		bl	UART_ReadTxStatus
 515 0100 0346     		mov	r3, r0
 516 0102 03F00103 		and	r3, r3, #1
 517 0106 002B     		cmp	r3, #0
 518 0108 F8D0     		beq	.L27
 169:.\main.c      **** 			UART_ClearRxBuffer();
 519              		.loc 1 169 0 is_stmt 1
 520 010a FFF7FEFF 		bl	UART_ClearRxBuffer
 166:.\main.c      **** 		for(i = 0; i < 6; i++){
 521              		.loc 1 166 0
 522 010e FB7B     		ldrb	r3, [r7, #15]
 523 0110 03F10103 		add	r3, r3, #1
 524 0114 FB73     		strb	r3, [r7, #15]
 525              	.L26:
 166:.\main.c      **** 		for(i = 0; i < 6; i++){
 526              		.loc 1 166 0 is_stmt 0 discriminator 1
 527 0116 FB7B     		ldrb	r3, [r7, #15]	@ zero_extendqisi2
 528 0118 052B     		cmp	r3, #5
 529 011a E8D9     		bls	.L28
 166:.\main.c      **** 		for(i = 0; i < 6; i++){
 530              		.loc 1 166 0
 531 011c 25E0     		b	.L29
 532              	.L25:
 170:.\main.c      **** 		}
 171:.\main.c      **** 	}
 172:.\main.c      **** 	else{
 173:.\main.c      **** 		// receive data from master
 174:.\main.c      **** 		READ();
 533              		.loc 1 174 0 is_stmt 1
 534 011e FFF7FEFF 		bl	READ
 175:.\main.c      **** 		Timer_Set(1010);
 535              		.loc 1 175 0
 536 0122 40F2F230 		movw	r0, #1010
 537 0126 FFF7FEFF 		bl	Timer_Set
 176:.\main.c      **** 		i = 0;
 538              		.loc 1 176 0
 539 012a 4FF00003 		mov	r3, #0
 540 012e FB73     		strb	r3, [r7, #15]
 177:.\main.c      **** 		while((i < 6) && (Timer_ReadCounter() > 10)){
 541              		.loc 1 177 0
 542 0130 13E0     		b	.L30
 543              	.L31:
 178:.\main.c      **** 			if(UART_ReadRxStatus() & UART_RX_STS_FIFO_NOTEMPTY){
 544              		.loc 1 178 0
 545 0132 FFF7FEFF 		bl	UART_ReadRxStatus
 546 0136 0346     		mov	r3, r0
 547 0138 03F02003 		and	r3, r3, #32
 548 013c 002B     		cmp	r3, #0
 549 013e 0CD0     		beq	.L30
ARM GAS  C:\Users\RIEKOH~1\AppData\Local\Temp\ccfc0hsw.s 			page 14


 179:.\main.c      **** 				pak->_byte[i++] = UART_ReadRxData();
 550              		.loc 1 179 0
 551 0140 FC7B     		ldrb	r4, [r7, #15]	@ zero_extendqisi2
 552 0142 FFF7FEFF 		bl	UART_ReadRxData
 553 0146 0346     		mov	r3, r0
 554 0148 1A46     		mov	r2, r3
 555 014a 3B68     		ldr	r3, [r7, #0]
 556 014c 1A55     		strb	r2, [r3, r4]
 557 014e FB7B     		ldrb	r3, [r7, #15]
 558 0150 03F10103 		add	r3, r3, #1
 559 0154 FB73     		strb	r3, [r7, #15]
 180:.\main.c      **** 				UART_ClearRxBuffer();
 560              		.loc 1 180 0
 561 0156 FFF7FEFF 		bl	UART_ClearRxBuffer
 562              	.L30:
 177:.\main.c      **** 		while((i < 6) && (Timer_ReadCounter() > 10)){
 563              		.loc 1 177 0 discriminator 1
 564 015a FB7B     		ldrb	r3, [r7, #15]	@ zero_extendqisi2
 565 015c 052B     		cmp	r3, #5
 566 015e 04D8     		bhi	.L29
 177:.\main.c      **** 		while((i < 6) && (Timer_ReadCounter() > 10)){
 567              		.loc 1 177 0 is_stmt 0 discriminator 2
 568 0160 FFF7FEFF 		bl	Timer_ReadCounter
 569 0164 0346     		mov	r3, r0
 570 0166 0A2B     		cmp	r3, #10
 571 0168 E3D8     		bhi	.L31
 572              	.L29:
 181:.\main.c      **** 			}
 182:.\main.c      **** 		}
 183:.\main.c      **** 		//PACKET_ENDIANCHANGE(pak);
 184:.\main.c      **** 	}
 185:.\main.c      **** 	WRITE();
 573              		.loc 1 185 0 is_stmt 1
 574 016a FFF7FEFF 		bl	WRITE
 186:.\main.c      **** 	UART_PutChar(addr);
 575              		.loc 1 186 0
 576 016e FB79     		ldrb	r3, [r7, #7]	@ zero_extendqisi2
 577 0170 1846     		mov	r0, r3
 578 0172 FFF7FEFF 		bl	UART_PutChar
 187:.\main.c      **** 	while(!(UART_ReadTxStatus() & UART_TX_STS_COMPLETE)) {}
 579              		.loc 1 187 0
 580 0176 00BF     		nop
 581              	.L32:
 582              		.loc 1 187 0 is_stmt 0 discriminator 1
 583 0178 FFF7FEFF 		bl	UART_ReadTxStatus
 584 017c 0346     		mov	r3, r0
 585 017e 03F00103 		and	r3, r3, #1
 586 0182 002B     		cmp	r3, #0
 587 0184 F8D0     		beq	.L32
 188:.\main.c      **** 	UART_ClearRxBuffer();
 588              		.loc 1 188 0 is_stmt 1
 589 0186 FFF7FEFF 		bl	UART_ClearRxBuffer
 189:.\main.c      ****     READ();
 590              		.loc 1 189 0
 591 018a FFF7FEFF 		bl	READ
 190:.\main.c      **** 	return 0;
 592              		.loc 1 190 0
ARM GAS  C:\Users\RIEKOH~1\AppData\Local\Temp\ccfc0hsw.s 			page 15


 593 018e 4FF00003 		mov	r3, #0
 594              	.L20:
 191:.\main.c      **** }
 595              		.loc 1 191 0
 596 0192 1846     		mov	r0, r3
 597 0194 07F11407 		add	r7, r7, #20
 598 0198 BD46     		mov	sp, r7
 599 019a 90BD     		pop	{r4, r7, pc}
 600              		.cfi_endproc
 601              	.LFE62:
 602              		.size	rs485_CheckPacket, .-rs485_CheckPacket
 603              		.section	.text.CheckValid,"ax",%progbits
 604              		.align	2
 605              		.global	CheckValid
 606              		.thumb
 607              		.thumb_func
 608              		.type	CheckValid, %function
 609              	CheckValid:
 610              	.LFB63:
 192:.\main.c      **** 
 193:.\main.c      **** char CheckValid(PACKET *pak){
 611              		.loc 1 193 0
 612              		.cfi_startproc
 613              		@ args = 0, pretend = 0, frame = 16
 614              		@ frame_needed = 1, uses_anonymous_args = 0
 615              		@ link register save eliminated.
 616 0000 80B4     		push	{r7}
 617              	.LCFI17:
 618              		.cfi_def_cfa_offset 4
 619              		.cfi_offset 7, -4
 620 0002 85B0     		sub	sp, sp, #20
 621              	.LCFI18:
 622              		.cfi_def_cfa_offset 24
 623 0004 00AF     		add	r7, sp, #0
 624              	.LCFI19:
 625              		.cfi_def_cfa_register 7
 626 0006 7860     		str	r0, [r7, #4]
 194:.\main.c      ****     unsigned char sum = 0;
 627              		.loc 1 194 0
 628 0008 4FF00003 		mov	r3, #0
 629 000c FB73     		strb	r3, [r7, #15]
 195:.\main.c      ****     int i;
 196:.\main.c      ****     
 197:.\main.c      ****     for(i = 0; i < 4; i++){
 630              		.loc 1 197 0
 631 000e 4FF00003 		mov	r3, #0
 632 0012 BB60     		str	r3, [r7, #8]
 633 0014 0BE0     		b	.L34
 634              	.L35:
 198:.\main.c      ****         sum += pak->_byte[i+2];    
 635              		.loc 1 198 0 discriminator 2
 636 0016 BB68     		ldr	r3, [r7, #8]
 637 0018 03F10203 		add	r3, r3, #2
 638 001c 7A68     		ldr	r2, [r7, #4]
 639 001e D25C     		ldrb	r2, [r2, r3]	@ zero_extendqisi2
 640 0020 FB7B     		ldrb	r3, [r7, #15]
 641 0022 D318     		adds	r3, r2, r3
ARM GAS  C:\Users\RIEKOH~1\AppData\Local\Temp\ccfc0hsw.s 			page 16


 642 0024 FB73     		strb	r3, [r7, #15]
 197:.\main.c      ****     for(i = 0; i < 4; i++){
 643              		.loc 1 197 0 discriminator 2
 644 0026 BB68     		ldr	r3, [r7, #8]
 645 0028 03F10103 		add	r3, r3, #1
 646 002c BB60     		str	r3, [r7, #8]
 647              	.L34:
 197:.\main.c      ****     for(i = 0; i < 4; i++){
 648              		.loc 1 197 0 is_stmt 0 discriminator 1
 649 002e BB68     		ldr	r3, [r7, #8]
 650 0030 032B     		cmp	r3, #3
 651 0032 F0DD     		ble	.L35
 199:.\main.c      ****     }
 200:.\main.c      ****     if((~sum & 0xff) == pak->_pak.bCheckSum) {
 652              		.loc 1 200 0 is_stmt 1
 653 0034 FB7B     		ldrb	r3, [r7, #15]	@ zero_extendqisi2
 654 0036 6FEA0303 		mvn	r3, r3
 655 003a DAB2     		uxtb	r2, r3
 656 003c 7B68     		ldr	r3, [r7, #4]
 657 003e 5B78     		ldrb	r3, [r3, #1]	@ zero_extendqisi2
 658 0040 9A42     		cmp	r2, r3
 659 0042 02D1     		bne	.L36
 201:.\main.c      ****         return 1;
 660              		.loc 1 201 0
 661 0044 4FF00103 		mov	r3, #1
 662 0048 01E0     		b	.L37
 663              	.L36:
 202:.\main.c      ****     } else {
 203:.\main.c      ****         return 0;
 664              		.loc 1 203 0
 665 004a 4FF00003 		mov	r3, #0
 666              	.L37:
 204:.\main.c      ****     }
 205:.\main.c      **** }
 667              		.loc 1 205 0
 668 004e 1846     		mov	r0, r3
 669 0050 07F11407 		add	r7, r7, #20
 670 0054 BD46     		mov	sp, r7
 671 0056 80BC     		pop	{r7}
 672 0058 7047     		bx	lr
 673              		.cfi_endproc
 674              	.LFE63:
 675              		.size	CheckValid, .-CheckValid
 676 005a 00BF     		.section	.text.CenterStatus1,"ax",%progbits
 677              		.align	2
 678              		.global	CenterStatus1
 679              		.thumb
 680              		.thumb_func
 681              		.type	CenterStatus1, %function
 682              	CenterStatus1:
 683              	.LFB64:
 206:.\main.c      **** 
 207:.\main.c      **** int CenterStatus1(void){
 684              		.loc 1 207 0
 685              		.cfi_startproc
 686              		@ args = 0, pretend = 0, frame = 16
 687              		@ frame_needed = 1, uses_anonymous_args = 0
ARM GAS  C:\Users\RIEKOH~1\AppData\Local\Temp\ccfc0hsw.s 			page 17


 688 0000 80B5     		push	{r7, lr}
 689              	.LCFI20:
 690              		.cfi_def_cfa_offset 8
 691              		.cfi_offset 7, -8
 692              		.cfi_offset 14, -4
 693 0002 84B0     		sub	sp, sp, #16
 694              	.LCFI21:
 695              		.cfi_def_cfa_offset 24
 696 0004 00AF     		add	r7, sp, #0
 697              	.LCFI22:
 698              		.cfi_def_cfa_register 7
 208:.\main.c      **** 	int Trim1 ,dTrim1 = 25;
 699              		.loc 1 208 0
 700 0006 4FF01903 		mov	r3, #25
 701 000a BB60     		str	r3, [r7, #8]
 209:.\main.c      **** 	int sw1 = (~ Status_Reg_1_Read()) & 0x0F ;
 702              		.loc 1 209 0
 703 000c FFF7FEFF 		bl	Status_Reg_1_Read
 704 0010 0346     		mov	r3, r0
 705 0012 6FEA0303 		mvn	r3, r3
 706 0016 03F00F03 		and	r3, r3, #15
 707 001a 7B60     		str	r3, [r7, #4]
 210:.\main.c      **** 	switch(sw1){
 708              		.loc 1 210 0
 709 001c 7B68     		ldr	r3, [r7, #4]
 710 001e 0F2B     		cmp	r3, #15
 711 0020 00F29480 		bhi	.L39
 712 0024 01A2     		adr	r2, .L56
 713 0026 52F823F0 		ldr	pc, [r2, r3, lsl #2]
 714 002a 00BF     		.align	2
 715              	.L56:
 716 002c 6D000000 		.word	.L40+1
 717 0030 7F000000 		.word	.L41+1
 718 0034 8D000000 		.word	.L42+1
 719 0038 9F000000 		.word	.L43+1
 720 003c B3000000 		.word	.L44+1
 721 0040 C5000000 		.word	.L45+1
 722 0044 D3000000 		.word	.L46+1
 723 0048 E5000000 		.word	.L47+1
 724 004c EF000000 		.word	.L48+1
 725 0050 F7000000 		.word	.L49+1
 726 0054 FD000000 		.word	.L50+1
 727 0058 07010000 		.word	.L51+1
 728 005c 15010000 		.word	.L52+1
 729 0060 1F010000 		.word	.L53+1
 730 0064 2D010000 		.word	.L54+1
 731 0068 3F010000 		.word	.L55+1
 732              	.L40:
 211:.\main.c      **** 		case 0x00 :
 212:.\main.c      **** 			Trim1 = -8*dTrim1;
 733              		.loc 1 212 0
 734 006c BA68     		ldr	r2, [r7, #8]
 735 006e 1346     		mov	r3, r2
 736 0070 4FEA4373 		lsl	r3, r3, #29
 737 0074 9B1A     		subs	r3, r3, r2
 738 0076 4FEAC303 		lsl	r3, r3, #3
 739 007a FB60     		str	r3, [r7, #12]
ARM GAS  C:\Users\RIEKOH~1\AppData\Local\Temp\ccfc0hsw.s 			page 18


 213:.\main.c      **** 			break;	
 740              		.loc 1 213 0
 741 007c 66E0     		b	.L39
 742              	.L41:
 214:.\main.c      **** 		case 0x01 :
 215:.\main.c      **** 			Trim1 = -7*dTrim1;
 743              		.loc 1 215 0
 744 007e BB68     		ldr	r3, [r7, #8]
 745 0080 1A46     		mov	r2, r3
 746 0082 4FEAC303 		lsl	r3, r3, #3
 747 0086 D31A     		subs	r3, r2, r3
 748 0088 FB60     		str	r3, [r7, #12]
 216:.\main.c      **** 			break;
 749              		.loc 1 216 0
 750 008a 5FE0     		b	.L39
 751              	.L42:
 217:.\main.c      **** 		case 0x02 :
 218:.\main.c      **** 			Trim1 = -6*dTrim1;
 752              		.loc 1 218 0
 753 008c BA68     		ldr	r2, [r7, #8]
 754 008e 1346     		mov	r3, r2
 755 0090 4FEA8202 		lsl	r2, r2, #2
 756 0094 9B1A     		subs	r3, r3, r2
 757 0096 4FEA4303 		lsl	r3, r3, #1
 758 009a FB60     		str	r3, [r7, #12]
 219:.\main.c      **** 			break;
 759              		.loc 1 219 0
 760 009c 56E0     		b	.L39
 761              	.L43:
 220:.\main.c      **** 		case 0x03 :
 221:.\main.c      **** 			Trim1 = -5*dTrim1;
 762              		.loc 1 221 0
 763 009e BA68     		ldr	r2, [r7, #8]
 764 00a0 1346     		mov	r3, r2
 765 00a2 4FEA8373 		lsl	r3, r3, #30
 766 00a6 9B1A     		subs	r3, r3, r2
 767 00a8 4FEA8303 		lsl	r3, r3, #2
 768 00ac 9B1A     		subs	r3, r3, r2
 769 00ae FB60     		str	r3, [r7, #12]
 222:.\main.c      **** 			break;
 770              		.loc 1 222 0
 771 00b0 4CE0     		b	.L39
 772              	.L44:
 223:.\main.c      **** 		case 0x04 :
 224:.\main.c      **** 			Trim1 = -4*dTrim1;
 773              		.loc 1 224 0
 774 00b2 BA68     		ldr	r2, [r7, #8]
 775 00b4 1346     		mov	r3, r2
 776 00b6 4FEA8373 		lsl	r3, r3, #30
 777 00ba 9B1A     		subs	r3, r3, r2
 778 00bc 4FEA8303 		lsl	r3, r3, #2
 779 00c0 FB60     		str	r3, [r7, #12]
 225:.\main.c      **** 			break;
 780              		.loc 1 225 0
 781 00c2 43E0     		b	.L39
 782              	.L45:
 226:.\main.c      **** 		case 0x05 :
ARM GAS  C:\Users\RIEKOH~1\AppData\Local\Temp\ccfc0hsw.s 			page 19


 227:.\main.c      **** 			Trim1 = -3*dTrim1;
 783              		.loc 1 227 0
 784 00c4 BB68     		ldr	r3, [r7, #8]
 785 00c6 1A46     		mov	r2, r3
 786 00c8 4FEA8303 		lsl	r3, r3, #2
 787 00cc D31A     		subs	r3, r2, r3
 788 00ce FB60     		str	r3, [r7, #12]
 228:.\main.c      **** 			break;
 789              		.loc 1 228 0
 790 00d0 3CE0     		b	.L39
 791              	.L46:
 229:.\main.c      **** 		case 0x06 :
 230:.\main.c      **** 			Trim1 = -2*dTrim1;
 792              		.loc 1 230 0
 793 00d2 BA68     		ldr	r2, [r7, #8]
 794 00d4 1346     		mov	r3, r2
 795 00d6 4FEAC373 		lsl	r3, r3, #31
 796 00da 9B1A     		subs	r3, r3, r2
 797 00dc 4FEA4303 		lsl	r3, r3, #1
 798 00e0 FB60     		str	r3, [r7, #12]
 231:.\main.c      **** 			break;
 799              		.loc 1 231 0
 800 00e2 33E0     		b	.L39
 801              	.L47:
 232:.\main.c      **** 		case 0x07 :
 233:.\main.c      **** 			Trim1 = -1*dTrim1;
 802              		.loc 1 233 0
 803 00e4 BB68     		ldr	r3, [r7, #8]
 804 00e6 C3F10003 		rsb	r3, r3, #0
 805 00ea FB60     		str	r3, [r7, #12]
 234:.\main.c      **** 			break;
 806              		.loc 1 234 0
 807 00ec 2EE0     		b	.L39
 808              	.L48:
 235:.\main.c      **** 		case 0x08 :
 236:.\main.c      **** 			Trim1 = 0*dTrim1;
 809              		.loc 1 236 0
 810 00ee 4FF00003 		mov	r3, #0
 811 00f2 FB60     		str	r3, [r7, #12]
 237:.\main.c      **** 			break;
 812              		.loc 1 237 0
 813 00f4 2AE0     		b	.L39
 814              	.L49:
 238:.\main.c      **** 		case 0x09 :
 239:.\main.c      **** 			Trim1 = 1*dTrim1;
 815              		.loc 1 239 0
 816 00f6 BB68     		ldr	r3, [r7, #8]
 817 00f8 FB60     		str	r3, [r7, #12]
 240:.\main.c      **** 			break;
 818              		.loc 1 240 0
 819 00fa 27E0     		b	.L39
 820              	.L50:
 241:.\main.c      **** 		case 0x0A :
 242:.\main.c      **** 			Trim1 = 2*dTrim1;
 821              		.loc 1 242 0
 822 00fc BB68     		ldr	r3, [r7, #8]
 823 00fe 4FEA4303 		lsl	r3, r3, #1
ARM GAS  C:\Users\RIEKOH~1\AppData\Local\Temp\ccfc0hsw.s 			page 20


 824 0102 FB60     		str	r3, [r7, #12]
 243:.\main.c      **** 			break;
 825              		.loc 1 243 0
 826 0104 22E0     		b	.L39
 827              	.L51:
 244:.\main.c      **** 		case 0x0B :
 245:.\main.c      **** 			Trim1 = 3*dTrim1;
 828              		.loc 1 245 0
 829 0106 BA68     		ldr	r2, [r7, #8]
 830 0108 1346     		mov	r3, r2
 831 010a 4FEA4303 		lsl	r3, r3, #1
 832 010e 9B18     		adds	r3, r3, r2
 833 0110 FB60     		str	r3, [r7, #12]
 246:.\main.c      **** 			break;
 834              		.loc 1 246 0
 835 0112 1BE0     		b	.L39
 836              	.L52:
 247:.\main.c      **** 		case 0x0C :
 248:.\main.c      **** 			Trim1 = 4*dTrim1;
 837              		.loc 1 248 0
 838 0114 BB68     		ldr	r3, [r7, #8]
 839 0116 4FEA8303 		lsl	r3, r3, #2
 840 011a FB60     		str	r3, [r7, #12]
 249:.\main.c      **** 			break;
 841              		.loc 1 249 0
 842 011c 16E0     		b	.L39
 843              	.L53:
 250:.\main.c      **** 		case 0x0D :
 251:.\main.c      **** 			Trim1 = 5*dTrim1;
 844              		.loc 1 251 0
 845 011e BA68     		ldr	r2, [r7, #8]
 846 0120 1346     		mov	r3, r2
 847 0122 4FEA8303 		lsl	r3, r3, #2
 848 0126 9B18     		adds	r3, r3, r2
 849 0128 FB60     		str	r3, [r7, #12]
 252:.\main.c      **** 			break;
 850              		.loc 1 252 0
 851 012a 0FE0     		b	.L39
 852              	.L54:
 253:.\main.c      **** 		case 0x0E :
 254:.\main.c      **** 			Trim1 = 6*dTrim1;
 853              		.loc 1 254 0
 854 012c BA68     		ldr	r2, [r7, #8]
 855 012e 1346     		mov	r3, r2
 856 0130 4FEA4303 		lsl	r3, r3, #1
 857 0134 9B18     		adds	r3, r3, r2
 858 0136 4FEA4303 		lsl	r3, r3, #1
 859 013a FB60     		str	r3, [r7, #12]
 255:.\main.c      **** 			break;
 860              		.loc 1 255 0
 861 013c 06E0     		b	.L39
 862              	.L55:
 256:.\main.c      **** 		case 0x0F :
 257:.\main.c      **** 			Trim1 = 7*dTrim1;
 863              		.loc 1 257 0
 864 013e BA68     		ldr	r2, [r7, #8]
 865 0140 1346     		mov	r3, r2
ARM GAS  C:\Users\RIEKOH~1\AppData\Local\Temp\ccfc0hsw.s 			page 21


 866 0142 4FEAC303 		lsl	r3, r3, #3
 867 0146 9B1A     		subs	r3, r3, r2
 868 0148 FB60     		str	r3, [r7, #12]
 258:.\main.c      **** 			break;
 869              		.loc 1 258 0
 870 014a 00BF     		nop
 871              	.L39:
 259:.\main.c      **** 	}
 260:.\main.c      **** 	return(Trim1);
 872              		.loc 1 260 0
 873 014c FB68     		ldr	r3, [r7, #12]
 261:.\main.c      **** }
 874              		.loc 1 261 0
 875 014e 1846     		mov	r0, r3
 876 0150 07F11007 		add	r7, r7, #16
 877 0154 BD46     		mov	sp, r7
 878 0156 80BD     		pop	{r7, pc}
 879              		.cfi_endproc
 880              	.LFE64:
 881              		.size	CenterStatus1, .-CenterStatus1
 882              		.section	.text.CenterStatus2,"ax",%progbits
 883              		.align	2
 884              		.global	CenterStatus2
 885              		.thumb
 886              		.thumb_func
 887              		.type	CenterStatus2, %function
 888              	CenterStatus2:
 889              	.LFB65:
 262:.\main.c      **** 
 263:.\main.c      **** int CenterStatus2(void){
 890              		.loc 1 263 0
 891              		.cfi_startproc
 892              		@ args = 0, pretend = 0, frame = 16
 893              		@ frame_needed = 1, uses_anonymous_args = 0
 894 0000 80B5     		push	{r7, lr}
 895              	.LCFI23:
 896              		.cfi_def_cfa_offset 8
 897              		.cfi_offset 7, -8
 898              		.cfi_offset 14, -4
 899 0002 84B0     		sub	sp, sp, #16
 900              	.LCFI24:
 901              		.cfi_def_cfa_offset 24
 902 0004 00AF     		add	r7, sp, #0
 903              	.LCFI25:
 904              		.cfi_def_cfa_register 7
 264:.\main.c      **** 	int Trim2 ,dTrim2 = 10;
 905              		.loc 1 264 0
 906 0006 4FF00A03 		mov	r3, #10
 907 000a BB60     		str	r3, [r7, #8]
 265:.\main.c      **** 	int sw2 = (~ Status_Reg_2_Read()) & 0x0F ;
 908              		.loc 1 265 0
 909 000c FFF7FEFF 		bl	Status_Reg_2_Read
 910 0010 0346     		mov	r3, r0
 911 0012 6FEA0303 		mvn	r3, r3
 912 0016 03F00F03 		and	r3, r3, #15
 913 001a 7B60     		str	r3, [r7, #4]
 266:.\main.c      **** 	switch(sw2){
ARM GAS  C:\Users\RIEKOH~1\AppData\Local\Temp\ccfc0hsw.s 			page 22


 914              		.loc 1 266 0
 915 001c 7B68     		ldr	r3, [r7, #4]
 916 001e 0F2B     		cmp	r3, #15
 917 0020 00F29480 		bhi	.L59
 918 0024 01A2     		adr	r2, .L76
 919 0026 52F823F0 		ldr	pc, [r2, r3, lsl #2]
 920 002a 00BF     		.align	2
 921              	.L76:
 922 002c 6D000000 		.word	.L60+1
 923 0030 7F000000 		.word	.L61+1
 924 0034 8D000000 		.word	.L62+1
 925 0038 9F000000 		.word	.L63+1
 926 003c B3000000 		.word	.L64+1
 927 0040 C5000000 		.word	.L65+1
 928 0044 D3000000 		.word	.L66+1
 929 0048 E5000000 		.word	.L67+1
 930 004c EF000000 		.word	.L68+1
 931 0050 F7000000 		.word	.L69+1
 932 0054 FD000000 		.word	.L70+1
 933 0058 07010000 		.word	.L71+1
 934 005c 15010000 		.word	.L72+1
 935 0060 1F010000 		.word	.L73+1
 936 0064 2D010000 		.word	.L74+1
 937 0068 3F010000 		.word	.L75+1
 938              	.L60:
 267:.\main.c      **** 		case 0x00 :
 268:.\main.c      **** 			Trim2 = -8*dTrim2;
 939              		.loc 1 268 0
 940 006c BA68     		ldr	r2, [r7, #8]
 941 006e 1346     		mov	r3, r2
 942 0070 4FEA4373 		lsl	r3, r3, #29
 943 0074 9B1A     		subs	r3, r3, r2
 944 0076 4FEAC303 		lsl	r3, r3, #3
 945 007a FB60     		str	r3, [r7, #12]
 269:.\main.c      **** 			break;	
 946              		.loc 1 269 0
 947 007c 66E0     		b	.L59
 948              	.L61:
 270:.\main.c      **** 		case 0x01 :
 271:.\main.c      **** 			Trim2 = -7*dTrim2;
 949              		.loc 1 271 0
 950 007e BB68     		ldr	r3, [r7, #8]
 951 0080 1A46     		mov	r2, r3
 952 0082 4FEAC303 		lsl	r3, r3, #3
 953 0086 D31A     		subs	r3, r2, r3
 954 0088 FB60     		str	r3, [r7, #12]
 272:.\main.c      **** 			break;
 955              		.loc 1 272 0
 956 008a 5FE0     		b	.L59
 957              	.L62:
 273:.\main.c      **** 		case 0x02 :
 274:.\main.c      **** 			Trim2 = -6*dTrim2;
 958              		.loc 1 274 0
 959 008c BA68     		ldr	r2, [r7, #8]
 960 008e 1346     		mov	r3, r2
 961 0090 4FEA8202 		lsl	r2, r2, #2
 962 0094 9B1A     		subs	r3, r3, r2
ARM GAS  C:\Users\RIEKOH~1\AppData\Local\Temp\ccfc0hsw.s 			page 23


 963 0096 4FEA4303 		lsl	r3, r3, #1
 964 009a FB60     		str	r3, [r7, #12]
 275:.\main.c      **** 			break;
 965              		.loc 1 275 0
 966 009c 56E0     		b	.L59
 967              	.L63:
 276:.\main.c      **** 		case 0x03 :
 277:.\main.c      **** 			Trim2 = -5*dTrim2;
 968              		.loc 1 277 0
 969 009e BA68     		ldr	r2, [r7, #8]
 970 00a0 1346     		mov	r3, r2
 971 00a2 4FEA8373 		lsl	r3, r3, #30
 972 00a6 9B1A     		subs	r3, r3, r2
 973 00a8 4FEA8303 		lsl	r3, r3, #2
 974 00ac 9B1A     		subs	r3, r3, r2
 975 00ae FB60     		str	r3, [r7, #12]
 278:.\main.c      **** 			break;
 976              		.loc 1 278 0
 977 00b0 4CE0     		b	.L59
 978              	.L64:
 279:.\main.c      **** 		case 0x04 :
 280:.\main.c      **** 			Trim2 = -4*dTrim2;
 979              		.loc 1 280 0
 980 00b2 BA68     		ldr	r2, [r7, #8]
 981 00b4 1346     		mov	r3, r2
 982 00b6 4FEA8373 		lsl	r3, r3, #30
 983 00ba 9B1A     		subs	r3, r3, r2
 984 00bc 4FEA8303 		lsl	r3, r3, #2
 985 00c0 FB60     		str	r3, [r7, #12]
 281:.\main.c      **** 			break;
 986              		.loc 1 281 0
 987 00c2 43E0     		b	.L59
 988              	.L65:
 282:.\main.c      **** 		case 0x05 :
 283:.\main.c      **** 			Trim2 = -3*dTrim2;
 989              		.loc 1 283 0
 990 00c4 BB68     		ldr	r3, [r7, #8]
 991 00c6 1A46     		mov	r2, r3
 992 00c8 4FEA8303 		lsl	r3, r3, #2
 993 00cc D31A     		subs	r3, r2, r3
 994 00ce FB60     		str	r3, [r7, #12]
 284:.\main.c      **** 			break;
 995              		.loc 1 284 0
 996 00d0 3CE0     		b	.L59
 997              	.L66:
 285:.\main.c      **** 		case 0x06 :
 286:.\main.c      **** 			Trim2 = -2*dTrim2;
 998              		.loc 1 286 0
 999 00d2 BA68     		ldr	r2, [r7, #8]
 1000 00d4 1346     		mov	r3, r2
 1001 00d6 4FEAC373 		lsl	r3, r3, #31
 1002 00da 9B1A     		subs	r3, r3, r2
 1003 00dc 4FEA4303 		lsl	r3, r3, #1
 1004 00e0 FB60     		str	r3, [r7, #12]
 287:.\main.c      **** 			break;
 1005              		.loc 1 287 0
 1006 00e2 33E0     		b	.L59
ARM GAS  C:\Users\RIEKOH~1\AppData\Local\Temp\ccfc0hsw.s 			page 24


 1007              	.L67:
 288:.\main.c      **** 		case 0x07 :
 289:.\main.c      **** 			Trim2 = -1*dTrim2;
 1008              		.loc 1 289 0
 1009 00e4 BB68     		ldr	r3, [r7, #8]
 1010 00e6 C3F10003 		rsb	r3, r3, #0
 1011 00ea FB60     		str	r3, [r7, #12]
 290:.\main.c      **** 			break;
 1012              		.loc 1 290 0
 1013 00ec 2EE0     		b	.L59
 1014              	.L68:
 291:.\main.c      **** 		case 0x08 :
 292:.\main.c      **** 			Trim2 = 0*dTrim2;
 1015              		.loc 1 292 0
 1016 00ee 4FF00003 		mov	r3, #0
 1017 00f2 FB60     		str	r3, [r7, #12]
 293:.\main.c      **** 			break;
 1018              		.loc 1 293 0
 1019 00f4 2AE0     		b	.L59
 1020              	.L69:
 294:.\main.c      **** 		case 0x09 :
 295:.\main.c      **** 			Trim2 = 1*dTrim2;
 1021              		.loc 1 295 0
 1022 00f6 BB68     		ldr	r3, [r7, #8]
 1023 00f8 FB60     		str	r3, [r7, #12]
 296:.\main.c      **** 			break;
 1024              		.loc 1 296 0
 1025 00fa 27E0     		b	.L59
 1026              	.L70:
 297:.\main.c      **** 		case 0x0A :
 298:.\main.c      **** 			Trim2 = 2*dTrim2;
 1027              		.loc 1 298 0
 1028 00fc BB68     		ldr	r3, [r7, #8]
 1029 00fe 4FEA4303 		lsl	r3, r3, #1
 1030 0102 FB60     		str	r3, [r7, #12]
 299:.\main.c      **** 			break;
 1031              		.loc 1 299 0
 1032 0104 22E0     		b	.L59
 1033              	.L71:
 300:.\main.c      **** 		case 0x0B :
 301:.\main.c      **** 			Trim2 = 3*dTrim2;
 1034              		.loc 1 301 0
 1035 0106 BA68     		ldr	r2, [r7, #8]
 1036 0108 1346     		mov	r3, r2
 1037 010a 4FEA4303 		lsl	r3, r3, #1
 1038 010e 9B18     		adds	r3, r3, r2
 1039 0110 FB60     		str	r3, [r7, #12]
 302:.\main.c      **** 			break;
 1040              		.loc 1 302 0
 1041 0112 1BE0     		b	.L59
 1042              	.L72:
 303:.\main.c      **** 		case 0x0C :
 304:.\main.c      **** 			Trim2 = 4*dTrim2;
 1043              		.loc 1 304 0
 1044 0114 BB68     		ldr	r3, [r7, #8]
 1045 0116 4FEA8303 		lsl	r3, r3, #2
 1046 011a FB60     		str	r3, [r7, #12]
ARM GAS  C:\Users\RIEKOH~1\AppData\Local\Temp\ccfc0hsw.s 			page 25


 305:.\main.c      **** 			break;
 1047              		.loc 1 305 0
 1048 011c 16E0     		b	.L59
 1049              	.L73:
 306:.\main.c      **** 		case 0x0D :
 307:.\main.c      **** 			Trim2 = 5*dTrim2;
 1050              		.loc 1 307 0
 1051 011e BA68     		ldr	r2, [r7, #8]
 1052 0120 1346     		mov	r3, r2
 1053 0122 4FEA8303 		lsl	r3, r3, #2
 1054 0126 9B18     		adds	r3, r3, r2
 1055 0128 FB60     		str	r3, [r7, #12]
 308:.\main.c      **** 			break;
 1056              		.loc 1 308 0
 1057 012a 0FE0     		b	.L59
 1058              	.L74:
 309:.\main.c      **** 		case 0x0E :
 310:.\main.c      **** 			Trim2 = 6*dTrim2;
 1059              		.loc 1 310 0
 1060 012c BA68     		ldr	r2, [r7, #8]
 1061 012e 1346     		mov	r3, r2
 1062 0130 4FEA4303 		lsl	r3, r3, #1
 1063 0134 9B18     		adds	r3, r3, r2
 1064 0136 4FEA4303 		lsl	r3, r3, #1
 1065 013a FB60     		str	r3, [r7, #12]
 311:.\main.c      **** 			break;
 1066              		.loc 1 311 0
 1067 013c 06E0     		b	.L59
 1068              	.L75:
 312:.\main.c      **** 		case 0x0F :
 313:.\main.c      **** 			Trim2 = 7*dTrim2;
 1069              		.loc 1 313 0
 1070 013e BA68     		ldr	r2, [r7, #8]
 1071 0140 1346     		mov	r3, r2
 1072 0142 4FEAC303 		lsl	r3, r3, #3
 1073 0146 9B1A     		subs	r3, r3, r2
 1074 0148 FB60     		str	r3, [r7, #12]
 314:.\main.c      **** 			break;
 1075              		.loc 1 314 0
 1076 014a 00BF     		nop
 1077              	.L59:
 315:.\main.c      **** 	}
 316:.\main.c      **** 	return(Trim2);
 1078              		.loc 1 316 0
 1079 014c FB68     		ldr	r3, [r7, #12]
 317:.\main.c      **** }
 1080              		.loc 1 317 0
 1081 014e 1846     		mov	r0, r3
 1082 0150 07F11007 		add	r7, r7, #16
 1083 0154 BD46     		mov	sp, r7
 1084 0156 80BD     		pop	{r7, pc}
 1085              		.cfi_endproc
 1086              	.LFE65:
 1087              		.size	CenterStatus2, .-CenterStatus2
 1088              		.section	.text.Servo_Start,"ax",%progbits
 1089              		.align	2
 1090              		.global	Servo_Start
ARM GAS  C:\Users\RIEKOH~1\AppData\Local\Temp\ccfc0hsw.s 			page 26


 1091              		.thumb
 1092              		.thumb_func
 1093              		.type	Servo_Start, %function
 1094              	Servo_Start:
 1095              	.LFB66:
 318:.\main.c      **** 
 319:.\main.c      **** void Servo_Start(void){
 1096              		.loc 1 319 0
 1097              		.cfi_startproc
 1098              		@ args = 0, pretend = 0, frame = 0
 1099              		@ frame_needed = 1, uses_anonymous_args = 0
 1100 0000 80B5     		push	{r7, lr}
 1101              	.LCFI26:
 1102              		.cfi_def_cfa_offset 8
 1103              		.cfi_offset 7, -8
 1104              		.cfi_offset 14, -4
 1105 0002 00AF     		add	r7, sp, #0
 1106              	.LCFI27:
 1107              		.cfi_def_cfa_register 7
 320:.\main.c      **** 	elevator_buffer = 1500;
 1108              		.loc 1 320 0
 1109 0004 40F20003 		movw	r3, #:lower16:elevator_buffer
 1110 0008 C0F20003 		movt	r3, #:upper16:elevator_buffer
 1111 000c 40F2DC52 		movw	r2, #1500
 1112 0010 1A60     		str	r2, [r3, #0]
 321:.\main.c      **** 	radder_buffer = 1500;
 1113              		.loc 1 321 0
 1114 0012 40F20003 		movw	r3, #:lower16:radder_buffer
 1115 0016 C0F20003 		movt	r3, #:upper16:radder_buffer
 1116 001a 40F2DC52 		movw	r2, #1500
 1117 001e 1A60     		str	r2, [r3, #0]
 322:.\main.c      **** 	PWM_1_Start();
 1118              		.loc 1 322 0
 1119 0020 FFF7FEFF 		bl	PWM_1_Start
 323:.\main.c      ****     isr_tc_StartEx(Terminal_Count_ISR);
 1120              		.loc 1 323 0
 1121 0024 40F20000 		movw	r0, #:lower16:Terminal_Count_ISR
 1122 0028 C0F20000 		movt	r0, #:upper16:Terminal_Count_ISR
 1123 002c FFF7FEFF 		bl	isr_tc_StartEx
 324:.\main.c      ****     Control_Reg_1_Write(0);
 1124              		.loc 1 324 0
 1125 0030 4FF00000 		mov	r0, #0
 1126 0034 FFF7FEFF 		bl	Control_Reg_1_Write
 325:.\main.c      ****     return;
 1127              		.loc 1 325 0
 1128 0038 00BF     		nop
 326:.\main.c      **** }
 1129              		.loc 1 326 0
 1130 003a 80BD     		pop	{r7, pc}
 1131              		.cfi_endproc
 1132              	.LFE66:
 1133              		.size	Servo_Start, .-Servo_Start
 1134              		.global	__aeabi_i2d
 1135              		.global	__aeabi_dmul
 1136              		.global	__aeabi_dsub
 1137              		.global	__aeabi_d2uiz
 1138              		.section	.text.FormatValueElv,"ax",%progbits
ARM GAS  C:\Users\RIEKOH~1\AppData\Local\Temp\ccfc0hsw.s 			page 27


 1139              		.align	2
 1140              		.global	FormatValueElv
 1141              		.thumb
 1142              		.thumb_func
 1143              		.type	FormatValueElv, %function
 1144              	FormatValueElv:
 1145              	.LFB67:
 327:.\main.c      **** 
 328:.\main.c      **** unsigned int FormatValueElv(unsigned short raw_elv){
 1146              		.loc 1 328 0
 1147              		.cfi_startproc
 1148              		@ args = 0, pretend = 0, frame = 8
 1149              		@ frame_needed = 1, uses_anonymous_args = 0
 1150 0000 B0B5     		push	{r4, r5, r7, lr}
 1151              	.LCFI28:
 1152              		.cfi_def_cfa_offset 16
 1153              		.cfi_offset 4, -16
 1154              		.cfi_offset 5, -12
 1155              		.cfi_offset 7, -8
 1156              		.cfi_offset 14, -4
 1157 0002 82B0     		sub	sp, sp, #8
 1158              	.LCFI29:
 1159              		.cfi_def_cfa_offset 24
 1160 0004 00AF     		add	r7, sp, #0
 1161              	.LCFI30:
 1162              		.cfi_def_cfa_register 7
 1163 0006 0346     		mov	r3, r0
 1164 0008 FB80     		strh	r3, [r7, #6]	@ movhi
 329:.\main.c      **** 	raw_elv = 1400 + (int)CenterStatus1() - (raw_elv - 1500)*1.3;
 1165              		.loc 1 329 0
 1166 000a FFF7FEFF 		bl	CenterStatus1
 1167 000e 0346     		mov	r3, r0
 1168 0010 03F5AF63 		add	r3, r3, #1400
 1169 0014 1846     		mov	r0, r3
 1170 0016 FFF7FEFF 		bl	__aeabi_i2d
 1171 001a 0446     		mov	r4, r0
 1172 001c 0D46     		mov	r5, r1
 1173 001e FB88     		ldrh	r3, [r7, #6]
 1174 0020 A3F2DC53 		subw	r3, r3, #1500
 1175 0024 1846     		mov	r0, r3
 1176 0026 FFF7FEFF 		bl	__aeabi_i2d
 1177 002a 0246     		mov	r2, r0
 1178 002c 0B46     		mov	r3, r1
 1179 002e 1046     		mov	r0, r2
 1180 0030 1946     		mov	r1, r3
 1181 0032 13A3     		adr	r3, .L83
 1182 0034 D3E90023 		ldrd	r2, [r3]
 1183 0038 FFF7FEFF 		bl	__aeabi_dmul
 1184 003c 0246     		mov	r2, r0
 1185 003e 0B46     		mov	r3, r1
 1186 0040 2046     		mov	r0, r4
 1187 0042 2946     		mov	r1, r5
 1188 0044 FFF7FEFF 		bl	__aeabi_dsub
 1189 0048 0246     		mov	r2, r0
 1190 004a 0B46     		mov	r3, r1
 1191 004c 1046     		mov	r0, r2
 1192 004e 1946     		mov	r1, r3
ARM GAS  C:\Users\RIEKOH~1\AppData\Local\Temp\ccfc0hsw.s 			page 28


 1193 0050 FFF7FEFF 		bl	__aeabi_d2uiz
 1194 0054 0346     		mov	r3, r0
 1195 0056 FB80     		strh	r3, [r7, #6]	@ movhi
 330:.\main.c      **** 	if((raw_elv <= 2200)&&(raw_elv >= 800)){
 1196              		.loc 1 330 0
 1197 0058 FA88     		ldrh	r2, [r7, #6]
 1198 005a 40F69803 		movw	r3, #2200
 1199 005e 9A42     		cmp	r2, r3
 1200 0060 06D8     		bhi	.L81
 1201              		.loc 1 330 0 is_stmt 0 discriminator 1
 1202 0062 FA88     		ldrh	r2, [r7, #6]
 1203 0064 40F21F33 		movw	r3, #799
 1204 0068 9A42     		cmp	r2, r3
 1205 006a 01D9     		bls	.L81
 331:.\main.c      **** 		return raw_elv;
 1206              		.loc 1 331 0 is_stmt 1
 1207 006c FB88     		ldrh	r3, [r7, #6]
 1208 006e 02E0     		b	.L82
 1209              	.L81:
 332:.\main.c      **** 	}else{
 333:.\main.c      **** 		return PWM_1_ReadCompare1();
 1210              		.loc 1 333 0
 1211 0070 FFF7FEFF 		bl	PWM_1_ReadCompare1
 1212 0074 0346     		mov	r3, r0
 1213              	.L82:
 334:.\main.c      **** 	}
 335:.\main.c      **** }
 1214              		.loc 1 335 0
 1215 0076 1846     		mov	r0, r3
 1216 0078 07F10807 		add	r7, r7, #8
 1217 007c BD46     		mov	sp, r7
 1218 007e B0BD     		pop	{r4, r5, r7, pc}
 1219              	.L84:
 1220              		.align	3
 1221              	.L83:
 1222 0080 CDCCCCCC 		.word	-858993459
 1223 0084 CCCCF43F 		.word	1073007820
 1224              		.cfi_endproc
 1225              	.LFE67:
 1226              		.size	FormatValueElv, .-FormatValueElv
 1227              		.section	.text.FormatValueRad,"ax",%progbits
 1228              		.align	2
 1229              		.global	FormatValueRad
 1230              		.thumb
 1231              		.thumb_func
 1232              		.type	FormatValueRad, %function
 1233              	FormatValueRad:
 1234              	.LFB68:
 336:.\main.c      **** 
 337:.\main.c      **** unsigned int FormatValueRad(unsigned short raw_rad){
 1235              		.loc 1 337 0
 1236              		.cfi_startproc
 1237              		@ args = 0, pretend = 0, frame = 8
 1238              		@ frame_needed = 1, uses_anonymous_args = 0
 1239 0000 80B5     		push	{r7, lr}
 1240              	.LCFI31:
 1241              		.cfi_def_cfa_offset 8
ARM GAS  C:\Users\RIEKOH~1\AppData\Local\Temp\ccfc0hsw.s 			page 29


 1242              		.cfi_offset 7, -8
 1243              		.cfi_offset 14, -4
 1244 0002 82B0     		sub	sp, sp, #8
 1245              	.LCFI32:
 1246              		.cfi_def_cfa_offset 16
 1247 0004 00AF     		add	r7, sp, #0
 1248              	.LCFI33:
 1249              		.cfi_def_cfa_register 7
 1250 0006 0346     		mov	r3, r0
 1251 0008 FB80     		strh	r3, [r7, #6]	@ movhi
 338:.\main.c      **** 	raw_rad += (int)CenterStatus2();
 1252              		.loc 1 338 0
 1253 000a FFF7FEFF 		bl	CenterStatus2
 1254 000e 0346     		mov	r3, r0
 1255 0010 9AB2     		uxth	r2, r3
 1256 0012 FB88     		ldrh	r3, [r7, #6]	@ movhi
 1257 0014 D318     		adds	r3, r2, r3
 1258 0016 FB80     		strh	r3, [r7, #6]	@ movhi
 339:.\main.c      ****     rad_now = PWM_1_ReadCompare2();
 1259              		.loc 1 339 0
 1260 0018 FFF7FEFF 		bl	PWM_1_ReadCompare2
 1261 001c 0346     		mov	r3, r0
 1262 001e 1A46     		mov	r2, r3
 1263 0020 40F20003 		movw	r3, #:lower16:rad_now
 1264 0024 C0F20003 		movt	r3, #:upper16:rad_now
 1265 0028 1A60     		str	r2, [r3, #0]
 340:.\main.c      ****     if((((raw_rad <= 2200) && (raw_rad >= 800) && (raw_rad < rad_now + 500) && (raw_rad > rad_now -
 1266              		.loc 1 340 0
 1267 002a FA88     		ldrh	r2, [r7, #6]
 1268 002c 40F69803 		movw	r3, #2200
 1269 0030 9A42     		cmp	r2, r3
 1270 0032 18D8     		bhi	.L86
 1271              		.loc 1 340 0 is_stmt 0 discriminator 1
 1272 0034 FA88     		ldrh	r2, [r7, #6]
 1273 0036 40F21F33 		movw	r3, #799
 1274 003a 9A42     		cmp	r2, r3
 1275 003c 13D9     		bls	.L86
 1276 003e FA88     		ldrh	r2, [r7, #6]
 1277 0040 40F20003 		movw	r3, #:lower16:rad_now
 1278 0044 C0F20003 		movt	r3, #:upper16:rad_now
 1279 0048 1B68     		ldr	r3, [r3, #0]
 1280 004a 03F5FA73 		add	r3, r3, #500
 1281 004e 9A42     		cmp	r2, r3
 1282 0050 09DA     		bge	.L86
 1283 0052 FA88     		ldrh	r2, [r7, #6]
 1284 0054 40F20003 		movw	r3, #:lower16:rad_now
 1285 0058 C0F20003 		movt	r3, #:upper16:rad_now
 1286 005c 1B68     		ldr	r3, [r3, #0]
 1287 005e A3F5FA73 		sub	r3, r3, #500
 1288 0062 9A42     		cmp	r2, r3
 1289 0064 06DC     		bgt	.L87
 1290              	.L86:
 1291              		.loc 1 340 0 discriminator 2
 1292 0066 40F20003 		movw	r3, #:lower16:rad_error
 1293 006a C0F20003 		movt	r3, #:upper16:rad_error
 1294 006e 1B68     		ldr	r3, [r3, #0]
 1295 0070 052B     		cmp	r3, #5
ARM GAS  C:\Users\RIEKOH~1\AppData\Local\Temp\ccfc0hsw.s 			page 30


 1296 0072 01DD     		ble	.L88
 1297              	.L87:
 341:.\main.c      ****         return raw_rad;
 1298              		.loc 1 341 0 is_stmt 1
 1299 0074 FB88     		ldrh	r3, [r7, #6]
 1300 0076 04E0     		b	.L89
 1301              	.L88:
 342:.\main.c      ****         rad_error = 0;
 343:.\main.c      ****     }
 344:.\main.c      ****     else{
 345:.\main.c      ****         return rad_now;
 1302              		.loc 1 345 0
 1303 0078 40F20003 		movw	r3, #:lower16:rad_now
 1304 007c C0F20003 		movt	r3, #:upper16:rad_now
 1305 0080 1B68     		ldr	r3, [r3, #0]
 1306              	.L89:
 346:.\main.c      ****         rad_error++;
 347:.\main.c      ****     }
 348:.\main.c      **** }
 1307              		.loc 1 348 0
 1308 0082 1846     		mov	r0, r3
 1309 0084 07F10807 		add	r7, r7, #8
 1310 0088 BD46     		mov	sp, r7
 1311 008a 80BD     		pop	{r7, pc}
 1312              		.cfi_endproc
 1313              	.LFE68:
 1314              		.size	FormatValueRad, .-FormatValueRad
 1315              		.section	.text.Terminal_Count_ISR,"ax",%progbits
 1316              		.align	2
 1317              		.global	Terminal_Count_ISR
 1318              		.thumb
 1319              		.thumb_func
 1320              		.type	Terminal_Count_ISR, %function
 1321              	Terminal_Count_ISR:
 1322              	.LFB69:
 349:.\main.c      **** 
 350:.\main.c      **** CY_ISR(Terminal_Count_ISR) {
 1323              		.loc 1 350 0
 1324              		.cfi_startproc
 1325              		@ args = 0, pretend = 0, frame = 0
 1326              		@ frame_needed = 1, uses_anonymous_args = 0
 1327 0000 80B5     		push	{r7, lr}
 1328              	.LCFI34:
 1329              		.cfi_def_cfa_offset 8
 1330              		.cfi_offset 7, -8
 1331              		.cfi_offset 14, -4
 1332 0002 00AF     		add	r7, sp, #0
 1333              	.LCFI35:
 1334              		.cfi_def_cfa_register 7
 351:.\main.c      **** 	PWM_1_WriteCompare1(FormatValueElv(elevator_buffer));
 1335              		.loc 1 351 0
 1336 0004 40F20003 		movw	r3, #:lower16:elevator_buffer
 1337 0008 C0F20003 		movt	r3, #:upper16:elevator_buffer
 1338 000c 1B68     		ldr	r3, [r3, #0]
 1339 000e 9BB2     		uxth	r3, r3
 1340 0010 1846     		mov	r0, r3
 1341 0012 FFF7FEFF 		bl	FormatValueElv
ARM GAS  C:\Users\RIEKOH~1\AppData\Local\Temp\ccfc0hsw.s 			page 31


 1342 0016 0346     		mov	r3, r0
 1343 0018 9BB2     		uxth	r3, r3
 1344 001a 1846     		mov	r0, r3
 1345 001c FFF7FEFF 		bl	PWM_1_WriteCompare1
 352:.\main.c      **** 	PWM_1_WriteCompare2(FormatValueRad(radder_buffer));
 1346              		.loc 1 352 0
 1347 0020 40F20003 		movw	r3, #:lower16:radder_buffer
 1348 0024 C0F20003 		movt	r3, #:upper16:radder_buffer
 1349 0028 1B68     		ldr	r3, [r3, #0]
 1350 002a 9BB2     		uxth	r3, r3
 1351 002c 1846     		mov	r0, r3
 1352 002e FFF7FEFF 		bl	FormatValueRad
 1353 0032 0346     		mov	r3, r0
 1354 0034 9BB2     		uxth	r3, r3
 1355 0036 1846     		mov	r0, r3
 1356 0038 FFF7FEFF 		bl	PWM_1_WriteCompare2
 353:.\main.c      ****     PWM_1_ReadStatusRegister();
 1357              		.loc 1 353 0
 1358 003c FFF7FEFF 		bl	PWM_1_ReadStatusRegister
 354:.\main.c      ****     return;
 1359              		.loc 1 354 0
 1360 0040 00BF     		nop
 355:.\main.c      **** }
 1361              		.loc 1 355 0
 1362 0042 80BD     		pop	{r7, pc}
 1363              		.cfi_endproc
 1364              	.LFE69:
 1365              		.size	Terminal_Count_ISR, .-Terminal_Count_ISR
 1366              		.section	.text.SignalChange,"ax",%progbits
 1367              		.align	2
 1368              		.global	SignalChange
 1369              		.thumb
 1370              		.thumb_func
 1371              		.type	SignalChange, %function
 1372              	SignalChange:
 1373              	.LFB70:
 356:.\main.c      **** 
 357:.\main.c      **** void SignalChange(void){
 1374              		.loc 1 357 0
 1375              		.cfi_startproc
 1376              		@ args = 0, pretend = 0, frame = 0
 1377              		@ frame_needed = 1, uses_anonymous_args = 0
 1378 0000 80B5     		push	{r7, lr}
 1379              	.LCFI36:
 1380              		.cfi_def_cfa_offset 8
 1381              		.cfi_offset 7, -8
 1382              		.cfi_offset 14, -4
 1383 0002 00AF     		add	r7, sp, #0
 1384              	.LCFI37:
 1385              		.cfi_def_cfa_register 7
 358:.\main.c      ****     if(Control_Reg_1_Read()){
 1386              		.loc 1 358 0
 1387 0004 FFF7FEFF 		bl	Control_Reg_1_Read
 1388 0008 0346     		mov	r3, r0
 1389 000a 002B     		cmp	r3, #0
 1390 000c 04D0     		beq	.L93
 359:.\main.c      ****         Control_Reg_1_Write(0);
ARM GAS  C:\Users\RIEKOH~1\AppData\Local\Temp\ccfc0hsw.s 			page 32


 1391              		.loc 1 359 0
 1392 000e 4FF00000 		mov	r0, #0
 1393 0012 FFF7FEFF 		bl	Control_Reg_1_Write
 1394 0016 03E0     		b	.L92
 1395              	.L93:
 360:.\main.c      ****     }
 361:.\main.c      ****     else{
 362:.\main.c      ****         Control_Reg_1_Write(1);
 1396              		.loc 1 362 0
 1397 0018 4FF00100 		mov	r0, #1
 1398 001c FFF7FEFF 		bl	Control_Reg_1_Write
 1399              	.L92:
 363:.\main.c      ****     }   
 364:.\main.c      **** }
 1400              		.loc 1 364 0
 1401 0020 80BD     		pop	{r7, pc}
 1402              		.cfi_endproc
 1403              	.LFE70:
 1404              		.size	SignalChange, .-SignalChange
 1405 0022 00BF     		.text
 1406              	.Letext0:
 1407              		.file 2 "c:\\program files\\cypress\\psoc creator\\3.0\\psoc creator\\import\\gnu_cs\\arm\\4.7.3\\
 1408              		.file 3 "./Generated_Source/PSoC5/cytypes.h"
 1409              		.file 4 "./Generated_Source/PSoC5/core_cm3.h"
