Archive member included because of file (symbol)

.\CortexM3\ARM_GCC_473\Debug\tail_true_double.a(cyfitter_cfg.o)
                              .\CortexM3\ARM_GCC_473\Debug\Cm3Start.o (cyfitter_cfg)
.\CortexM3\ARM_GCC_473\Debug\tail_true_double.a(CyBootAsmGnu.o)
                              .\CortexM3\ARM_GCC_473\Debug\tail_true_double.a(cyfitter_cfg.o) (CyDelayCycles)
.\CortexM3\ARM_GCC_473\Debug\tail_true_double.a(CyLib.o)
                              .\CortexM3\ARM_GCC_473\Debug\Cm3Start.o (CyResetStatus)
.\CortexM3\ARM_GCC_473\Debug\tail_true_double.a(cyPm.o)
                              .\CortexM3\ARM_GCC_473\Debug\tail_true_double.a(CyLib.o) (CyPmReadStatus)
.\CortexM3\ARM_GCC_473\Debug\tail_true_double.a(UART.o)
                              .\CortexM3\ARM_GCC_473\Debug\main.o (UART_Start)
.\CortexM3\ARM_GCC_473\Debug\tail_true_double.a(Timer.o)
                              .\CortexM3\ARM_GCC_473\Debug\main.o (Timer_WriteCounter)
.\CortexM3\ARM_GCC_473\Debug\tail_true_double.a(LED_1.o)
                              .\CortexM3\ARM_GCC_473\Debug\main.o (LED_1_Write)
.\CortexM3\ARM_GCC_473\Debug\tail_true_double.a(LED_2.o)
                              .\CortexM3\ARM_GCC_473\Debug\main.o (LED_2_Write)
.\CortexM3\ARM_GCC_473\Debug\tail_true_double.a(PWM_1.o)
                              .\CortexM3\ARM_GCC_473\Debug\main.o (PWM_1_Start)
.\CortexM3\ARM_GCC_473\Debug\tail_true_double.a(isr_tc.o)
                              .\CortexM3\ARM_GCC_473\Debug\main.o (isr_tc_StartEx)
.\CortexM3\ARM_GCC_473\Debug\tail_true_double.a(Status_Reg_1.o)
                              .\CortexM3\ARM_GCC_473\Debug\main.o (Status_Reg_1_Read)
.\CortexM3\ARM_GCC_473\Debug\tail_true_double.a(Status_Reg_2.o)
                              .\CortexM3\ARM_GCC_473\Debug\main.o (Status_Reg_2_Read)
.\CortexM3\ARM_GCC_473\Debug\tail_true_double.a(DE_0.o)
                              .\CortexM3\ARM_GCC_473\Debug\main.o (DE_0_Write)
.\CortexM3\ARM_GCC_473\Debug\tail_true_double.a(DE_1.o)
                              .\CortexM3\ARM_GCC_473\Debug\main.o (DE_1_Write)
.\CortexM3\ARM_GCC_473\Debug\tail_true_double.a(Control_Reg_1.o)
                              .\CortexM3\ARM_GCC_473\Debug\main.o (Control_Reg_1_Write)
.\CortexM3\ARM_GCC_473\Debug\tail_true_double.a(LED_4.o)
                              .\CortexM3\ARM_GCC_473\Debug\main.o (LED_4_Write)
.\CortexM3\ARM_GCC_473\Debug\tail_true_double.a(CyFlash.o)
                              .\CortexM3\ARM_GCC_473\Debug\tail_true_double.a(cyPm.o) (CyFlash_SetWaitCycles)
.\CortexM3\ARM_GCC_473\Debug\tail_true_double.a(CySpc.o)
                              .\CortexM3\ARM_GCC_473\Debug\tail_true_double.a(CyFlash.o) (CySpcStart)
c:/program files/cypress/psoc creator/3.0/psoc creator/import/gnu_cs/arm/4.7.3/bin/../lib/gcc/arm-none-eabi/4.7.3/armv7-m\libgcc.a(_arm_addsubdf3.o)
                              .\CortexM3\ARM_GCC_473\Debug\main.o (__aeabi_dsub)
c:/program files/cypress/psoc creator/3.0/psoc creator/import/gnu_cs/arm/4.7.3/bin/../lib/gcc/arm-none-eabi/4.7.3/armv7-m\libgcc.a(_arm_muldivdf3.o)
                              .\CortexM3\ARM_GCC_473\Debug\main.o (__aeabi_dmul)
c:/program files/cypress/psoc creator/3.0/psoc creator/import/gnu_cs/arm/4.7.3/bin/../lib/gcc/arm-none-eabi/4.7.3/armv7-m\libgcc.a(_arm_fixunsdfsi.o)
                              .\CortexM3\ARM_GCC_473\Debug\main.o (__aeabi_d2uiz)
c:/program files/cypress/psoc creator/3.0/psoc creator/import/gnu_cs/arm/4.7.3/bin/../lib/gcc/arm-none-eabi/4.7.3/../../../../arm-none-eabi/lib/armv7-m\libc_s.a(lib_a-__atexit2.o)
                              c:/program files/cypress/psoc creator/3.0/psoc creator/import/gnu_cs/arm/4.7.3/bin/../lib/gcc/arm-none-eabi/4.7.3/../../../../arm-none-eabi/lib/armv7-m/crt0.o (__register_exitproc)
c:/program files/cypress/psoc creator/3.0/psoc creator/import/gnu_cs/arm/4.7.3/bin/../lib/gcc/arm-none-eabi/4.7.3/../../../../arm-none-eabi/lib/armv7-m\libc_s.a(lib_a-exit.o)
                              c:/program files/cypress/psoc creator/3.0/psoc creator/import/gnu_cs/arm/4.7.3/bin/../lib/gcc/arm-none-eabi/4.7.3/../../../../arm-none-eabi/lib/armv7-m/crt0.o (exit)
c:/program files/cypress/psoc creator/3.0/psoc creator/import/gnu_cs/arm/4.7.3/bin/../lib/gcc/arm-none-eabi/4.7.3/../../../../arm-none-eabi/lib/armv7-m\libc_s.a(lib_a-fini.o)
                              c:/program files/cypress/psoc creator/3.0/psoc creator/import/gnu_cs/arm/4.7.3/bin/../lib/gcc/arm-none-eabi/4.7.3/../../../../arm-none-eabi/lib/armv7-m/crt0.o (__libc_fini_array)
c:/program files/cypress/psoc creator/3.0/psoc creator/import/gnu_cs/arm/4.7.3/bin/../lib/gcc/arm-none-eabi/4.7.3/../../../../arm-none-eabi/lib/armv7-m\libc_s.a(lib_a-impure.o)
                              c:/program files/cypress/psoc creator/3.0/psoc creator/import/gnu_cs/arm/4.7.3/bin/../lib/gcc/arm-none-eabi/4.7.3/../../../../arm-none-eabi/lib/armv7-m\libc_s.a(lib_a-exit.o) (_global_impure_ptr)
c:/program files/cypress/psoc creator/3.0/psoc creator/import/gnu_cs/arm/4.7.3/bin/../lib/gcc/arm-none-eabi/4.7.3/../../../../arm-none-eabi/lib/armv7-m\libc_s.a(lib_a-init.o)
                              c:/program files/cypress/psoc creator/3.0/psoc creator/import/gnu_cs/arm/4.7.3/bin/../lib/gcc/arm-none-eabi/4.7.3/../../../../arm-none-eabi/lib/armv7-m/crt0.o (__libc_init_array)
c:/program files/cypress/psoc creator/3.0/psoc creator/import/gnu_cs/arm/4.7.3/bin/../lib/gcc/arm-none-eabi/4.7.3/../../../../arm-none-eabi/lib/armv7-m\libc_s.a(lib_a-memcpy.o)
                              .\CortexM3\ARM_GCC_473\Debug\tail_true_double.a(cyfitter_cfg.o) (memcpy)
c:/program files/cypress/psoc creator/3.0/psoc creator/import/gnu_cs/arm/4.7.3/bin/../lib/gcc/arm-none-eabi/4.7.3/../../../../arm-none-eabi/lib/armv7-m\libc_s.a(lib_a-memset.o)
                              c:/program files/cypress/psoc creator/3.0/psoc creator/import/gnu_cs/arm/4.7.3/bin/../lib/gcc/arm-none-eabi/4.7.3/../../../../arm-none-eabi/lib/armv7-m/crt0.o (memset)

Allocating common symbols
Common symbol       size              file

radder_buffer       0x4               .\CortexM3\ARM_GCC_473\Debug\main.o
elevator_buffer     0x4               .\CortexM3\ARM_GCC_473\Debug\main.o
pak                 0x6               .\CortexM3\ARM_GCC_473\Debug\main.o
rad_now             0x4               .\CortexM3\ARM_GCC_473\Debug\main.o
rad_error           0x4               .\CortexM3\ARM_GCC_473\Debug\main.o
dieTemperature      0x2               .\CortexM3\ARM_GCC_473\Debug\tail_true_double.a(CyFlash.o)

Discarded input sections

 .text          0x00000000        0x0 c:/program files/cypress/psoc creator/3.0/psoc creator/import/gnu_cs/arm/4.7.3/bin/../lib/gcc/arm-none-eabi/4.7.3/armv7-m/crti.o
 .data          0x00000000        0x0 c:/program files/cypress/psoc creator/3.0/psoc creator/import/gnu_cs/arm/4.7.3/bin/../lib/gcc/arm-none-eabi/4.7.3/armv7-m/crti.o
 .bss           0x00000000        0x0 c:/program files/cypress/psoc creator/3.0/psoc creator/import/gnu_cs/arm/4.7.3/bin/../lib/gcc/arm-none-eabi/4.7.3/armv7-m/crti.o
 .data          0x00000000        0x4 c:/program files/cypress/psoc creator/3.0/psoc creator/import/gnu_cs/arm/4.7.3/bin/../lib/gcc/arm-none-eabi/4.7.3/armv7-m/crtbegin.o
 .text          0x00000000       0x70 c:/program files/cypress/psoc creator/3.0/psoc creator/import/gnu_cs/arm/4.7.3/bin/../lib/gcc/arm-none-eabi/4.7.3/../../../../arm-none-eabi/lib/armv7-m/crt0.o
 .data          0x00000000        0x0 c:/program files/cypress/psoc creator/3.0/psoc creator/import/gnu_cs/arm/4.7.3/bin/../lib/gcc/arm-none-eabi/4.7.3/../../../../arm-none-eabi/lib/armv7-m/crt0.o
 .bss           0x00000000        0x0 c:/program files/cypress/psoc creator/3.0/psoc creator/import/gnu_cs/arm/4.7.3/bin/../lib/gcc/arm-none-eabi/4.7.3/../../../../arm-none-eabi/lib/armv7-m/crt0.o
 .ARM.extab     0x00000000        0x0 c:/program files/cypress/psoc creator/3.0/psoc creator/import/gnu_cs/arm/4.7.3/bin/../lib/gcc/arm-none-eabi/4.7.3/../../../../arm-none-eabi/lib/armv7-m/crt0.o
 .ARM.exidx     0x00000000        0x8 c:/program files/cypress/psoc creator/3.0/psoc creator/import/gnu_cs/arm/4.7.3/bin/../lib/gcc/arm-none-eabi/4.7.3/../../../../arm-none-eabi/lib/armv7-m/crt0.o
 .text          0x00000000        0x0 .\CortexM3\ARM_GCC_473\Debug\main.o
 .data          0x00000000        0x0 .\CortexM3\ARM_GCC_473\Debug\main.o
 .text          0x00000000        0x0 .\CortexM3\ARM_GCC_473\Debug\cymetadata.o
 .data          0x00000000        0x0 .\CortexM3\ARM_GCC_473\Debug\cymetadata.o
 .bss           0x00000000        0x0 .\CortexM3\ARM_GCC_473\Debug\cymetadata.o
 .text          0x00000000        0x0 .\CortexM3\ARM_GCC_473\Debug\Cm3Start.o
 .data          0x00000000        0x0 .\CortexM3\ARM_GCC_473\Debug\Cm3Start.o
 .bss           0x00000000        0x0 .\CortexM3\ARM_GCC_473\Debug\Cm3Start.o
 .text._exit    0x00000000       0x30 .\CortexM3\ARM_GCC_473\Debug\Cm3Start.o
Memory Configuration

Name             Origin             Length             Attributes
rom              0x00000000         0x00040000         xr
ram              0x1fff8000         0x00010000         xrw
*default*        0x00000000         0xffffffff

Linker script and memory map

LOAD c:/program files/cypress/psoc creator/3.0/psoc creator/import/gnu_cs/arm/4.7.3/bin/../lib/gcc/arm-none-eabi/4.7.3/armv7-m/crti.o
LOAD c:/program files/cypress/psoc creator/3.0/psoc creator/import/gnu_cs/arm/4.7.3/bin/../lib/gcc/arm-none-eabi/4.7.3/armv7-m/crtbegin.o
LOAD c:/program files/cypress/psoc creator/3.0/psoc creator/import/gnu_cs/arm/4.7.3/bin/../lib/gcc/arm-none-eabi/4.7.3/../../../../arm-none-eabi/lib/armv7-m/crt0.o
START GROUP
LOAD .\CortexM3\ARM_GCC_473\Debug\main.o
LOAD .\CortexM3\ARM_GCC_473\Debug\cymetadata.o
LOAD .\CortexM3\ARM_GCC_473\Debug\Cm3Start.o
LOAD .\CortexM3\ARM_GCC_473\Debug\tail_true_double.a
LOAD C:\Program Files\Cypress\PSoC Creator\3.0\PSoC Creator\psoc\content\cycomponentlibrary\CyComponentLibrary.cylib\CortexM3\ARM_GCC_473\Debug\CyComponentLibrary.a
END GROUP
START GROUP
LOAD c:/program files/cypress/psoc creator/3.0/psoc creator/import/gnu_cs/arm/4.7.3/bin/../lib/gcc/arm-none-eabi/4.7.3/armv7-m\libgcc.a
LOAD c:/program files/cypress/psoc creator/3.0/psoc creator/import/gnu_cs/arm/4.7.3/bin/../lib/gcc/arm-none-eabi/4.7.3/../../../../arm-none-eabi/lib/armv7-m\libc_s.a
END GROUP
LOAD c:/program files/cypress/psoc creator/3.0/psoc creator/import/gnu_cs/arm/4.7.3/bin/../lib/gcc/arm-none-eabi/4.7.3/armv7-m/crtend.o
LOAD c:/program files/cypress/psoc creator/3.0/psoc creator/import/gnu_cs/arm/4.7.3/bin/../lib/gcc/arm-none-eabi/4.7.3/armv7-m/crtn.o
START GROUP
LOAD c:/program files/cypress/psoc creator/3.0/psoc creator/import/gnu_cs/arm/4.7.3/bin/../lib/gcc/arm-none-eabi/4.7.3/armv7-m\libgcc.a
LOAD c:/program files/cypress/psoc creator/3.0/psoc creator/import/gnu_cs/arm/4.7.3/bin/../lib/gcc/arm-none-eabi/4.7.3/../../../../arm-none-eabi/lib/armv7-m\libc.a
LOAD c:/program files/cypress/psoc creator/3.0/psoc creator/import/gnu_cs/arm/4.7.3/bin/../lib/gcc/arm-none-eabi/4.7.3/../../../../arm-none-eabi/lib/armv7-m\libnosys.a
END GROUP
                0x00000000                CY_APPL_ORIGIN = 0x0
                0x00000100                CY_FLASH_ROW_SIZE = 0x100
                0x00000020                CY_ECC_ROW_SIZE = 0x20
                0x00000000                CY_EE_IN_BTLDR = 0x0
                0x00000000                CY_APPL_LOADABLE = 0x0
                0x00000800                CY_EE_SIZE = 0x800
                0x00000001                CY_APPL_NUM = 0x1
                0x00000001                CY_APPL_MAX = 0x1
                0x00000040                CY_METADATA_SIZE = 0x40
                0x1fff8150                PROVIDE (__cy_heap_start, _end)
                0x00000001                PROVIDE (__cy_region_num, ((__cy_regions_end - __cy_regions) / 0x10))
                0x20008000                PROVIDE (__cy_stack, (ORIGIN (ram) + 0x10000))
                0x20004000                PROVIDE (__cy_heap_end, (__cy_stack - 0x4000))

.cybootloader   0x00000000        0x0
 *(.cybootloader)
                0x00000000                appl1_start = CY_APPL_ORIGIN?CY_APPL_ORIGIN:ALIGN (CY_FLASH_ROW_SIZE)
                0x0001ff00                appl2_start = (appl1_start + ALIGN ((((0x40000 - appl1_start) - (0x2 * CY_FLASH_ROW_SIZE)) / 0x2), CY_FLASH_ROW_SIZE))
                0x00000000                appl_start = (CY_APPL_NUM == 0x1)?appl1_start:appl2_start
                0x00000000                ecc_offset = ((appl_start / CY_FLASH_ROW_SIZE) * CY_ECC_ROW_SIZE)
                0x00000000                ee_offset = (CY_APPL_LOADABLE && ! (CY_EE_IN_BTLDR))?((CY_EE_SIZE / CY_APPL_MAX) * (CY_APPL_NUM - 0x1)):0x0
                0x00000800                ee_size = (CY_APPL_LOADABLE && ! (CY_EE_IN_BTLDR))?(CY_EE_SIZE / CY_APPL_MAX):CY_EE_SIZE
                0x00000000                PROVIDE (CY_ECC_OFFSET, ecc_offset)

.text           0x00000000     0x1eea
 CREATE_OBJECT_SYMBOLS
                0x00000000                PROVIDE (__cy_interrupt_vector, RomVectors)
 *(.romvectors)
 .romvectors    0x00000000       0x10 .\CortexM3\ARM_GCC_473\Debug\Cm3Start.o
                0x00000000                RomVectors
                0x00000001                ASSERT ((. != __cy_interrupt_vector), No interrupt vector)
                0x00000001                ASSERT (CY_APPL_ORIGIN?(SIZEOF (.cybootloader) <= CY_APPL_ORIGIN):0x1, Wrong image location)
                0x00000010                PROVIDE (__cy_reset, Reset)
 *(.text.Reset)
 .text.Reset    0x00000010       0x1c .\CortexM3\ARM_GCC_473\Debug\Cm3Start.o
                0x00000010                Reset
                0x00000001                ASSERT ((. != __cy_reset), No reset code)
 *(.dma_init)
                0x00000001                ASSERT ((((appl_start + .) <= 0x10000) || 0x1), DMA Init must be within the first 64k of flash)
 *(.text .text.* .gnu.linkonce.t.*)
 .text          0x0000002c       0x54 c:/program files/cypress/psoc creator/3.0/psoc creator/import/gnu_cs/arm/4.7.3/bin/../lib/gcc/arm-none-eabi/4.7.3/armv7-m/crtbegin.o
 .text.WRITE    0x00000080       0x34 .\CortexM3\ARM_GCC_473\Debug\main.o
                0x00000080                WRITE
 .text.READ     0x000000b4       0x18 .\CortexM3\ARM_GCC_473\Debug\main.o
                0x000000b4                READ
 .text.main     0x000000cc      0x120 .\CortexM3\ARM_GCC_473\Debug\main.o
                0x000000cc                main
 .text.Timer_Set
                0x000001ec       0x1c .\CortexM3\ARM_GCC_473\Debug\main.o
                0x000001ec                Timer_Set
 .text.Timer_Delayus
                0x00000208       0x2c .\CortexM3\ARM_GCC_473\Debug\main.o
                0x00000208                Timer_Delayus
 .text.rs485_Start
                0x00000234       0x10 .\CortexM3\ARM_GCC_473\Debug\main.o
                0x00000234                rs485_Start
 .text.rs485_CheckPacket
                0x00000244      0x19c .\CortexM3\ARM_GCC_473\Debug\main.o
                0x00000244                rs485_CheckPacket
 .text.CheckValid
                0x000003e0       0x5c .\CortexM3\ARM_GCC_473\Debug\main.o
                0x000003e0                CheckValid
 .text.CenterStatus1
                0x0000043c      0x158 .\CortexM3\ARM_GCC_473\Debug\main.o
                0x0000043c                CenterStatus1
 .text.CenterStatus2
                0x00000594      0x158 .\CortexM3\ARM_GCC_473\Debug\main.o
                0x00000594                CenterStatus2
 .text.Servo_Start
                0x000006ec       0x3c .\CortexM3\ARM_GCC_473\Debug\main.o
                0x000006ec                Servo_Start
 .text.FormatValueElv
                0x00000728       0x88 .\CortexM3\ARM_GCC_473\Debug\main.o
                0x00000728                FormatValueElv
 .text.FormatValueRad
                0x000007b0       0x8c .\CortexM3\ARM_GCC_473\Debug\main.o
                0x000007b0                FormatValueRad
 .text.Terminal_Count_ISR
                0x0000083c       0x44 .\CortexM3\ARM_GCC_473\Debug\main.o
                0x0000083c                Terminal_Count_ISR
 .text.SignalChange
                0x00000880       0x24 .\CortexM3\ARM_GCC_473\Debug\main.o
                0x00000880                SignalChange
 .text.IntDefaultHandler
                0x000008a4        0x8 .\CortexM3\ARM_GCC_473\Debug\Cm3Start.o
                0x000008a4                IntDefaultHandler
 .text.Start_c  0x000008ac       0xcc .\CortexM3\ARM_GCC_473\Debug\Cm3Start.o
                0x000008ac                Start_c
 .text.initialize_psoc
                0x00000978       0xb4 .\CortexM3\ARM_GCC_473\Debug\Cm3Start.o
                0x00000978                initialize_psoc
 .text.CYMEMZERO
                0x00000a2c       0x20 .\CortexM3\ARM_GCC_473\Debug\tail_true_double.a(cyfitter_cfg.o)
 .text.CYCONFIGCPY
                0x00000a4c       0x20 .\CortexM3\ARM_GCC_473\Debug\tail_true_double.a(cyfitter_cfg.o)
 .text.CyClockStartupError
                0x00000a6c        0xc .\CortexM3\ARM_GCC_473\Debug\tail_true_double.a(cyfitter_cfg.o)
 .text.cfg_write_bytes32
                0x00000a78       0x84 .\CortexM3\ARM_GCC_473\Debug\tail_true_double.a(cyfitter_cfg.o)
 .text.ClockSetup
                0x00000afc      0x188 .\CortexM3\ARM_GCC_473\Debug\tail_true_double.a(cyfitter_cfg.o)
 .text.AnalogSetDefault
                0x00000c84       0x50 .\CortexM3\ARM_GCC_473\Debug\tail_true_double.a(cyfitter_cfg.o)
 .text.cyfitter_cfg
                0x00000cd4      0x1b0 .\CortexM3\ARM_GCC_473\Debug\tail_true_double.a(cyfitter_cfg.o)
                0x00000cd4                cyfitter_cfg
 *fill*         0x00000e84        0x4 00
 .text          0x00000e88       0x28 .\CortexM3\ARM_GCC_473\Debug\tail_true_double.a(CyBootAsmGnu.o)
                0x00000e88                CyDelayCycles
                0x00000e9c                CyEnterCriticalSection
                0x00000ea4                CyExitCriticalSection
 .text.UART_Start
                0x00000eb0       0x2c .\CortexM3\ARM_GCC_473\Debug\tail_true_double.a(UART.o)
                0x00000eb0                UART_Start
 .text.UART_Init
                0x00000edc       0x50 .\CortexM3\ARM_GCC_473\Debug\tail_true_double.a(UART.o)
                0x00000edc                UART_Init
 .text.UART_Enable
                0x00000f2c       0x74 .\CortexM3\ARM_GCC_473\Debug\tail_true_double.a(UART.o)
                0x00000f2c                UART_Enable
 .text.UART_ReadRxData
                0x00000fa0       0x20 .\CortexM3\ARM_GCC_473\Debug\tail_true_double.a(UART.o)
                0x00000fa0                UART_ReadRxData
 .text.UART_ReadRxStatus
                0x00000fc0       0x28 .\CortexM3\ARM_GCC_473\Debug\tail_true_double.a(UART.o)
                0x00000fc0                UART_ReadRxStatus
 .text.UART_ClearRxBuffer
                0x00000fe8       0x58 .\CortexM3\ARM_GCC_473\Debug\tail_true_double.a(UART.o)
                0x00000fe8                UART_ClearRxBuffer
 .text.UART_ReadTxStatus
                0x00001040       0x18 .\CortexM3\ARM_GCC_473\Debug\tail_true_double.a(UART.o)
                0x00001040                UART_ReadTxStatus
 .text.UART_PutChar
                0x00001058       0x38 .\CortexM3\ARM_GCC_473\Debug\tail_true_double.a(UART.o)
                0x00001058                UART_PutChar
 .text.Timer_Init
                0x00001090       0x58 .\CortexM3\ARM_GCC_473\Debug\tail_true_double.a(Timer.o)
                0x00001090                Timer_Init
 .text.Timer_Enable
                0x000010e8       0x28 .\CortexM3\ARM_GCC_473\Debug\tail_true_double.a(Timer.o)
                0x000010e8                Timer_Enable
 .text.Timer_Start
                0x00001110       0x2c .\CortexM3\ARM_GCC_473\Debug\tail_true_double.a(Timer.o)
                0x00001110                Timer_Start
 .text.Timer_SetInterruptMode
                0x0000113c       0x20 .\CortexM3\ARM_GCC_473\Debug\tail_true_double.a(Timer.o)
                0x0000113c                Timer_SetInterruptMode
 .text.Timer_ReadStatusRegister
                0x0000115c       0x18 .\CortexM3\ARM_GCC_473\Debug\tail_true_double.a(Timer.o)
                0x0000115c                Timer_ReadStatusRegister
 .text.Timer_WritePeriod
                0x00001174       0x20 .\CortexM3\ARM_GCC_473\Debug\tail_true_double.a(Timer.o)
                0x00001174                Timer_WritePeriod
 .text.Timer_ReadCapture
                0x00001194       0x18 .\CortexM3\ARM_GCC_473\Debug\tail_true_double.a(Timer.o)
                0x00001194                Timer_ReadCapture
 .text.Timer_WriteCounter
                0x000011ac       0x20 .\CortexM3\ARM_GCC_473\Debug\tail_true_double.a(Timer.o)
                0x000011ac                Timer_WriteCounter
 .text.Timer_ReadCounter
                0x000011cc       0x24 .\CortexM3\ARM_GCC_473\Debug\tail_true_double.a(Timer.o)
                0x000011cc                Timer_ReadCounter
 .text.Timer_ClearFIFO
                0x000011f0       0x1c .\CortexM3\ARM_GCC_473\Debug\tail_true_double.a(Timer.o)
                0x000011f0                Timer_ClearFIFO
 .text.LED_1_Write
                0x0000120c       0x44 .\CortexM3\ARM_GCC_473\Debug\tail_true_double.a(LED_1.o)
                0x0000120c                LED_1_Write
 .text.LED_2_Write
                0x00001250       0x44 .\CortexM3\ARM_GCC_473\Debug\tail_true_double.a(LED_2.o)
                0x00001250                LED_2_Write
 .text.PWM_1_Start
                0x00001294       0x2c .\CortexM3\ARM_GCC_473\Debug\tail_true_double.a(PWM_1.o)
                0x00001294                PWM_1_Start
 .text.PWM_1_Init
                0x000012c0       0xc4 .\CortexM3\ARM_GCC_473\Debug\tail_true_double.a(PWM_1.o)
                0x000012c0                PWM_1_Init
 .text.PWM_1_Enable
                0x00001384       0x28 .\CortexM3\ARM_GCC_473\Debug\tail_true_double.a(PWM_1.o)
                0x00001384                PWM_1_Enable
 .text.PWM_1_WriteCounter
                0x000013ac       0x20 .\CortexM3\ARM_GCC_473\Debug\tail_true_double.a(PWM_1.o)
                0x000013ac                PWM_1_WriteCounter
 .text.PWM_1_ClearFIFO
                0x000013cc       0x1c .\CortexM3\ARM_GCC_473\Debug\tail_true_double.a(PWM_1.o)
                0x000013cc                PWM_1_ClearFIFO
 .text.PWM_1_WritePeriod
                0x000013e8       0x20 .\CortexM3\ARM_GCC_473\Debug\tail_true_double.a(PWM_1.o)
                0x000013e8                PWM_1_WritePeriod
 .text.PWM_1_WriteCompare1
                0x00001408       0x20 .\CortexM3\ARM_GCC_473\Debug\tail_true_double.a(PWM_1.o)
                0x00001408                PWM_1_WriteCompare1
 .text.PWM_1_WriteCompare2
                0x00001428       0x20 .\CortexM3\ARM_GCC_473\Debug\tail_true_double.a(PWM_1.o)
                0x00001428                PWM_1_WriteCompare2
 .text.PWM_1_SetInterruptMode
                0x00001448       0x20 .\CortexM3\ARM_GCC_473\Debug\tail_true_double.a(PWM_1.o)
                0x00001448                PWM_1_SetInterruptMode
 .text.PWM_1_ReadStatusRegister
                0x00001468       0x20 .\CortexM3\ARM_GCC_473\Debug\tail_true_double.a(PWM_1.o)
                0x00001468                PWM_1_ReadStatusRegister
 .text.PWM_1_ReadCapture
                0x00001488       0x18 .\CortexM3\ARM_GCC_473\Debug\tail_true_double.a(PWM_1.o)
                0x00001488                PWM_1_ReadCapture
 .text.PWM_1_ReadCompare1
                0x000014a0       0x18 .\CortexM3\ARM_GCC_473\Debug\tail_true_double.a(PWM_1.o)
                0x000014a0                PWM_1_ReadCompare1
 .text.PWM_1_ReadCompare2
                0x000014b8       0x18 .\CortexM3\ARM_GCC_473\Debug\tail_true_double.a(PWM_1.o)
                0x000014b8                PWM_1_ReadCompare2
 .text.isr_tc_StartEx
                0x000014d0       0x28 .\CortexM3\ARM_GCC_473\Debug\tail_true_double.a(isr_tc.o)
                0x000014d0                isr_tc_StartEx
 .text.isr_tc_SetVector
                0x000014f8       0x28 .\CortexM3\ARM_GCC_473\Debug\tail_true_double.a(isr_tc.o)
                0x000014f8                isr_tc_SetVector
 .text.isr_tc_SetPriority
                0x00001520       0x28 .\CortexM3\ARM_GCC_473\Debug\tail_true_double.a(isr_tc.o)
                0x00001520                isr_tc_SetPriority
 .text.isr_tc_Enable
                0x00001548       0x18 .\CortexM3\ARM_GCC_473\Debug\tail_true_double.a(isr_tc.o)
                0x00001548                isr_tc_Enable
 .text.isr_tc_Disable
                0x00001560       0x18 .\CortexM3\ARM_GCC_473\Debug\tail_true_double.a(isr_tc.o)
                0x00001560                isr_tc_Disable
 .text.Status_Reg_1_Read
                0x00001578       0x18 .\CortexM3\ARM_GCC_473\Debug\tail_true_double.a(Status_Reg_1.o)
                0x00001578                Status_Reg_1_Read
 .text.Status_Reg_2_Read
                0x00001590       0x18 .\CortexM3\ARM_GCC_473\Debug\tail_true_double.a(Status_Reg_2.o)
                0x00001590                Status_Reg_2_Read
 .text.DE_0_Write
                0x000015a8       0x44 .\CortexM3\ARM_GCC_473\Debug\tail_true_double.a(DE_0.o)
                0x000015a8                DE_0_Write
 .text.DE_1_Write
                0x000015ec       0x40 .\CortexM3\ARM_GCC_473\Debug\tail_true_double.a(DE_1.o)
                0x000015ec                DE_1_Write
 .text.Control_Reg_1_Write
                0x0000162c       0x20 .\CortexM3\ARM_GCC_473\Debug\tail_true_double.a(Control_Reg_1.o)
                0x0000162c                Control_Reg_1_Write
 .text.Control_Reg_1_Read
                0x0000164c       0x18 .\CortexM3\ARM_GCC_473\Debug\tail_true_double.a(Control_Reg_1.o)
                0x0000164c                Control_Reg_1_Read
 .text.LED_4_Write
                0x00001664       0x44 .\CortexM3\ARM_GCC_473\Debug\tail_true_double.a(LED_4.o)
                0x00001664                LED_4_Write
 .text          0x000016a8      0x370 c:/program files/cypress/psoc creator/3.0/psoc creator/import/gnu_cs/arm/4.7.3/bin/../lib/gcc/arm-none-eabi/4.7.3/armv7-m\libgcc.a(_arm_addsubdf3.o)
                0x000016a8                __aeabi_drsub
                0x000016b0                __aeabi_dsub
                0x000016b0                __subdf3
                0x000016b4                __aeabi_dadd
                0x000016b4                __adddf3
                0x0000192c                __floatunsidf
                0x0000192c                __aeabi_ui2d
                0x0000194c                __floatsidf
                0x0000194c                __aeabi_i2d
                0x00001970                __aeabi_f2d
                0x00001970                __extendsfdf2
                0x000019ac                __floatundidf
                0x000019ac                __aeabi_ul2d
                0x000019bc                __floatdidf
                0x000019bc                __aeabi_l2d
 .text          0x00001a18      0x424 c:/program files/cypress/psoc creator/3.0/psoc creator/import/gnu_cs/arm/4.7.3/bin/../lib/gcc/arm-none-eabi/4.7.3/armv7-m\libgcc.a(_arm_muldivdf3.o)
                0x00001a18                __aeabi_dmul
                0x00001a18                __muldf3
                0x00001c6c                __divdf3
                0x00001c6c                __aeabi_ddiv
 .text          0x00001e3c       0x40 c:/program files/cypress/psoc creator/3.0/psoc creator/import/gnu_cs/arm/4.7.3/bin/../lib/gcc/arm-none-eabi/4.7.3/armv7-m\libgcc.a(_arm_fixunsdfsi.o)
                0x00001e3c                __aeabi_d2uiz
                0x00001e3c                __fixunsdfsi
 .text.__libc_init_array
                0x00001e7c       0x4c c:/program files/cypress/psoc creator/3.0/psoc creator/import/gnu_cs/arm/4.7.3/bin/../lib/gcc/arm-none-eabi/4.7.3/../../../../arm-none-eabi/lib/armv7-m\libc_s.a(lib_a-init.o)
                0x00001e7c                __libc_init_array
 .text.memcpy   0x00001ec8       0x12 c:/program files/cypress/psoc creator/3.0/psoc creator/import/gnu_cs/arm/4.7.3/bin/../lib/gcc/arm-none-eabi/4.7.3/../../../../arm-none-eabi/lib/armv7-m\libc_s.a(lib_a-memcpy.o)
                0x00001ec8                memcpy
 .text.memset   0x00001eda       0x10 c:/program files/cypress/psoc creator/3.0/psoc creator/import/gnu_cs/arm/4.7.3/bin/../lib/gcc/arm-none-eabi/4.7.3/../../../../arm-none-eabi/lib/armv7-m\libc_s.a(lib_a-memset.o)
                0x00001eda                memset
 *(.plt)
 *(.gnu.warning)
 *(.glue_7t)
 .glue_7t       0x00000000        0x0 linker stubs
 *(.glue_7)
 .glue_7        0x00000000        0x0 linker stubs
 *(.vfp11_veneer)
 .vfp11_veneer  0x00000000        0x0 linker stubs
 *(.bootloader)
 *(.ARM.extab* .gnu.linkonce.armextab.*)
 *(.gcc_except_table)

.v4_bx          0x00001eec        0x0
 .v4_bx         0x00000000        0x0 linker stubs

.iplt           0x00001eec        0x0
 .iplt          0x00000000        0x0 c:/program files/cypress/psoc creator/3.0/psoc creator/import/gnu_cs/arm/4.7.3/bin/../lib/gcc/arm-none-eabi/4.7.3/armv7-m/crtbegin.o

.eh_frame_hdr
 *(.eh_frame_hdr)

.eh_frame       0x00001eec        0x4
 *(.eh_frame)
 .eh_frame      0x00001eec        0x0 c:/program files/cypress/psoc creator/3.0/psoc creator/import/gnu_cs/arm/4.7.3/bin/../lib/gcc/arm-none-eabi/4.7.3/armv7-m/crtbegin.o
 .eh_frame      0x00001eec        0x4 c:/program files/cypress/psoc creator/3.0/psoc creator/import/gnu_cs/arm/4.7.3/bin/../lib/gcc/arm-none-eabi/4.7.3/armv7-m/crtend.o
                0x00001ef0                PROVIDE (__exidx_start, .)

.ARM.exidx
 *(.ARM.exidx* .gnu.linkonce.armexidx.*)
                0x00001ef0                __exidx_end = .

.rodata         0x00001ef0       0x60
 *(.rodata .rodata.* .gnu.linkonce.r.*)
 .rodata        0x00001ef0       0x2c .\CortexM3\ARM_GCC_473\Debug\tail_true_double.a(cyfitter_cfg.o)
                0x00001f1c                . = ALIGN (0x4)
 *(.init)
 .init          0x00001f1c        0x4 c:/program files/cypress/psoc creator/3.0/psoc creator/import/gnu_cs/arm/4.7.3/bin/../lib/gcc/arm-none-eabi/4.7.3/armv7-m/crti.o
                0x00001f1c                _init
 .init          0x00001f20        0x8 c:/program files/cypress/psoc creator/3.0/psoc creator/import/gnu_cs/arm/4.7.3/bin/../lib/gcc/arm-none-eabi/4.7.3/armv7-m/crtn.o
                0x00001f28                . = ALIGN (0x4)
                0x00001f28                __preinit_array_start = .
 *(.preinit_array)
                0x00001f28                __preinit_array_end = .
                0x00001f28                . = ALIGN (0x4)
                0x00001f28                __init_array_start = .
 *(SORT(.init_array.*))
 *(.init_array)
 .init_array    0x00001f28        0x4 c:/program files/cypress/psoc creator/3.0/psoc creator/import/gnu_cs/arm/4.7.3/bin/../lib/gcc/arm-none-eabi/4.7.3/armv7-m/crtbegin.o
 .init_array    0x00001f2c        0x4 .\CortexM3\ARM_GCC_473\Debug\Cm3Start.o
                0x00001f30                __init_array_end = .
                0x00001f30                . = ALIGN (0x4)
 *(.fini)
 .fini          0x00001f30        0x4 c:/program files/cypress/psoc creator/3.0/psoc creator/import/gnu_cs/arm/4.7.3/bin/../lib/gcc/arm-none-eabi/4.7.3/armv7-m/crti.o
                0x00001f30                _fini
 .fini          0x00001f34        0x8 c:/program files/cypress/psoc creator/3.0/psoc creator/import/gnu_cs/arm/4.7.3/bin/../lib/gcc/arm-none-eabi/4.7.3/armv7-m/crtn.o
                0x00001f3c                . = ALIGN (0x4)
                0x00001f3c                __fini_array_start = .
 *(.fini_array)
 .fini_array    0x00001f3c        0x4 c:/program files/cypress/psoc creator/3.0/psoc creator/import/gnu_cs/arm/4.7.3/bin/../lib/gcc/arm-none-eabi/4.7.3/armv7-m/crtbegin.o
 *(SORT(.fini_array.*))
                0x00001f40                __fini_array_end = .
                0x00001f40                . = ALIGN (0x4)
 *crtbegin.o(.ctors)
 *(EXCLUDE_FILE(*crtend.o) .ctors)
 *(SORT(.ctors.*))
 *crtend.o(.ctors)
                0x00001f40                . = ALIGN (0x4)
 *crtbegin.o(.dtors)
 *(EXCLUDE_FILE(*crtend.o) .dtors)
 *(SORT(.dtors.*))
 *crtend.o(.dtors)
                0x00001f40                . = ALIGN (0x4)
                0x00001f40                __cy_regions = .
                0x00001f40        0x4 LONG 0x1f50 __cy_region_init_ram
                0x00001f44        0x4 LONG 0x1fff8108 __cy_region_start_data
                0x00001f48        0x4 LONG 0x8 __cy_region_init_size_ram
                0x00001f4c        0x4 LONG 0x40 __cy_region_zero_size_ram
                0x00001f50                __cy_regions_end = .
                0x00001f50                . = ALIGN (0x8)
                0x00001f50                _etext = .

.ramvectors     0x1fff8000      0x100
                0x1fff8000                __cy_region_start_ram = .
 *(.ramvectors)
 .ramvectors    0x1fff8000      0x100 .\CortexM3\ARM_GCC_473\Debug\Cm3Start.o
                0x1fff8000                CyRamVectors

.noinit         0x1fff8100        0x5
 *(.noinit)
 .noinit        0x1fff8100        0x4 .\CortexM3\ARM_GCC_473\Debug\Cm3Start.o
 .noinit        0x1fff8104        0x1 .\CortexM3\ARM_GCC_473\Debug\tail_true_double.a(CyLib.o)
                0x1fff8104                CyResetStatus

.data           0x1fff8108        0x8 load address 0x00001f50
                0x1fff8108                __cy_region_start_data = .
 *(.jcr)
 .jcr           0x1fff8108        0x0 c:/program files/cypress/psoc creator/3.0/psoc creator/import/gnu_cs/arm/4.7.3/bin/../lib/gcc/arm-none-eabi/4.7.3/armv7-m/crtbegin.o
 .jcr           0x1fff8108        0x4 c:/program files/cypress/psoc creator/3.0/psoc creator/import/gnu_cs/arm/4.7.3/bin/../lib/gcc/arm-none-eabi/4.7.3/armv7-m/crtend.o
 *(.got.plt)
 *(.got)
 *(.shdata)
 *(.data .data.* .gnu.linkonce.d.*)
                0x1fff8110                . = ALIGN (0x8)
 *fill*         0x1fff810c        0x4 00
 *(.ram)
                0x1fff8110                _edata = .

.igot.plt       0x1fff8110        0x0 load address 0x00001f58
 .igot.plt      0x00000000        0x0 c:/program files/cypress/psoc creator/3.0/psoc creator/import/gnu_cs/arm/4.7.3/bin/../lib/gcc/arm-none-eabi/4.7.3/armv7-m/crtbegin.o

.bss            0x1fff8110       0x40 load address 0x00001f58
                0x1fff8110                PROVIDE (__bss_start__, .)
 *(.shbss)
 *(.bss .bss.* .gnu.linkonce.b.*)
 .bss           0x1fff8110       0x1c c:/program files/cypress/psoc creator/3.0/psoc creator/import/gnu_cs/arm/4.7.3/bin/../lib/gcc/arm-none-eabi/4.7.3/armv7-m/crtbegin.o
 .bss           0x1fff812c        0x4 .\CortexM3\ARM_GCC_473\Debug\main.o
                0x1fff812c                counter
 .bss           0x1fff8130        0x2 .\CortexM3\ARM_GCC_473\Debug\tail_true_double.a(UART.o)
                0x1fff8130                UART_initVar
 .bss           0x1fff8132        0x1 .\CortexM3\ARM_GCC_473\Debug\tail_true_double.a(Timer.o)
                0x1fff8132                Timer_initVar
 .bss           0x1fff8133        0x1 .\CortexM3\ARM_GCC_473\Debug\tail_true_double.a(PWM_1.o)
                0x1fff8133                PWM_1_initVar
 *(COMMON)
 COMMON         0x1fff8134       0x18 .\CortexM3\ARM_GCC_473\Debug\main.o
                0x1fff8134                radder_buffer
                0x1fff8138                elevator_buffer
                0x1fff813c                pak
                0x1fff8144                rad_now
                0x1fff8148                rad_error
                0x1fff8150                . = ALIGN (0x8)
 *fill*         0x1fff814c        0x4 00
 *(.ram.b)
                0x1fff8150                _end = .
                0x1fff8150                __end = .
                0x1fff8150                PROVIDE (end, .)
                0x1fff8150                PROVIDE (__bss_end__, .)
                0x00001f50                __cy_region_init_ram = LOADADDR (.data)
                0x00000008                __cy_region_init_size_ram = (_edata - ADDR (.data))
                0x00000040                __cy_region_zero_size_ram = (_end - _edata)

.heap           0x1fff8150     0x1000 load address 0x00001f58
                0x1fff8150                . = _end
                0x1fff9150                . = (. + 0x1000)
 *fill*         0x1fff8150     0x1000 00
                0x1fff9150                __cy_heap_limit = .

.stack          0x20004000     0x4000
                0x20004000                __cy_stack_limit = .
                0x20008000                . = (. + 0x4000)
 *fill*         0x20004000     0x4000 00
                0x00000001                ASSERT ((__cy_stack_limit >= __cy_heap_limit), region RAM overflowed with stack)

.cyloadermeta
 *(.cyloadermeta)

.cyloadablemeta
 *(.cyloadablemeta)

.cyconfigecc    0x80000000      0x734
 *(.cyconfigecc)
 .cyconfigecc   0x80000000      0x734 .\CortexM3\ARM_GCC_473\Debug\cymetadata.o
                0x80000000                cy_meta_configecc

.cycustnvl      0x90000000        0x4
 *(.cycustnvl)
 .cycustnvl     0x90000000        0x4 .\CortexM3\ARM_GCC_473\Debug\cymetadata.o
                0x90000000                cy_meta_custnvl

.cywolatch      0x90100000        0x4
 *(.cywolatch)
 .cywolatch     0x90100000        0x4 .\CortexM3\ARM_GCC_473\Debug\cymetadata.o
                0x90100000                cy_meta_wonvl

.cyeeprom       0x90200000        0x0
 *(.cyeeprom)
                0x00000001                ASSERT ((. <= ((0x90200000 + ee_offset) + ee_size)), .cyeeprom data will not fit in EEPROM)

.cyflashprotect
                0x90400000      0x100
 *(.cyflashprotect)
 .cyflashprotect
                0x90400000      0x100 .\CortexM3\ARM_GCC_473\Debug\cymetadata.o
                0x90400000                cy_meta_flashprotect

.cymeta         0x90500000        0xc
 *(.cymeta)
 .cymeta        0x90500000        0xc .\CortexM3\ARM_GCC_473\Debug\cymetadata.o
                0x90500000                cy_metadata

.rel.dyn        0x00001f58        0x0 load address 0x9050000c
 .rel.iplt      0x00000000        0x0 c:/program files/cypress/psoc creator/3.0/psoc creator/import/gnu_cs/arm/4.7.3/bin/../lib/gcc/arm-none-eabi/4.7.3/armv7-m/crtbegin.o

.stab
 *(.stab)

.stabstr
 *(.stabstr)

.debug
 *(.debug)

.line
 *(.line)

.debug_srcinfo
 *(.debug_srcinfo)

.debug_sfnames
 *(.debug_sfnames)

.debug_aranges  0x00000000      0x958
 *(.debug_aranges)
 .debug_aranges
                0x00000000       0x90 .\CortexM3\ARM_GCC_473\Debug\main.o
 .debug_aranges
                0x00000090       0x18 .\CortexM3\ARM_GCC_473\Debug\cymetadata.o
 .debug_aranges
                0x000000a8       0x40 .\CortexM3\ARM_GCC_473\Debug\Cm3Start.o
 .debug_aranges
                0x000000e8       0x60 .\CortexM3\ARM_GCC_473\Debug\tail_true_double.a(cyfitter_cfg.o)
 .debug_aranges
                0x00000148       0x20 .\CortexM3\ARM_GCC_473\Debug\tail_true_double.a(CyBootAsmGnu.o)
 .debug_aranges
                0x00000168      0x218 .\CortexM3\ARM_GCC_473\Debug\tail_true_double.a(CyLib.o)
 .debug_aranges
                0x00000380       0x90 .\CortexM3\ARM_GCC_473\Debug\tail_true_double.a(cyPm.o)
 .debug_aranges
                0x00000410       0xf0 .\CortexM3\ARM_GCC_473\Debug\tail_true_double.a(UART.o)
 .debug_aranges
                0x00000500       0x90 .\CortexM3\ARM_GCC_473\Debug\tail_true_double.a(Timer.o)
 .debug_aranges
                0x00000590       0x38 .\CortexM3\ARM_GCC_473\Debug\tail_true_double.a(LED_1.o)
 .debug_aranges
                0x000005c8       0x38 .\CortexM3\ARM_GCC_473\Debug\tail_true_double.a(LED_2.o)
 .debug_aranges
                0x00000600       0xa8 .\CortexM3\ARM_GCC_473\Debug\tail_true_double.a(PWM_1.o)
 .debug_aranges
                0x000006a8       0x80 .\CortexM3\ARM_GCC_473\Debug\tail_true_double.a(isr_tc.o)
 .debug_aranges
                0x00000728       0x40 .\CortexM3\ARM_GCC_473\Debug\tail_true_double.a(Status_Reg_1.o)
 .debug_aranges
                0x00000768       0x40 .\CortexM3\ARM_GCC_473\Debug\tail_true_double.a(Status_Reg_2.o)
 .debug_aranges
                0x000007a8       0x38 .\CortexM3\ARM_GCC_473\Debug\tail_true_double.a(DE_0.o)
 .debug_aranges
                0x000007e0       0x38 .\CortexM3\ARM_GCC_473\Debug\tail_true_double.a(DE_1.o)
 .debug_aranges
                0x00000818       0x28 .\CortexM3\ARM_GCC_473\Debug\tail_true_double.a(Control_Reg_1.o)
 .debug_aranges
                0x00000840       0x38 .\CortexM3\ARM_GCC_473\Debug\tail_true_double.a(LED_4.o)
 .debug_aranges
                0x00000878       0x78 .\CortexM3\ARM_GCC_473\Debug\tail_true_double.a(CyFlash.o)
 .debug_aranges
                0x000008f0       0x68 .\CortexM3\ARM_GCC_473\Debug\tail_true_double.a(CySpc.o)

.debug_pubnames
 *(.debug_pubnames)

.debug_info     0x00000000     0x3e07
 *(.debug_info .gnu.linkonce.wi.*)
 .debug_info    0x00000000      0x43a .\CortexM3\ARM_GCC_473\Debug\main.o
 .debug_info    0x0000043a      0x143 .\CortexM3\ARM_GCC_473\Debug\cymetadata.o
 .debug_info    0x0000057d      0x2ea .\CortexM3\ARM_GCC_473\Debug\Cm3Start.o
 .debug_info    0x00000867      0x3c0 .\CortexM3\ARM_GCC_473\Debug\tail_true_double.a(cyfitter_cfg.o)
 .debug_info    0x00000c27       0x98 .\CortexM3\ARM_GCC_473\Debug\tail_true_double.a(CyBootAsmGnu.o)
 .debug_info    0x00000cbf      0xcd7 .\CortexM3\ARM_GCC_473\Debug\tail_true_double.a(CyLib.o)
 .debug_info    0x00001996      0x5c3 .\CortexM3\ARM_GCC_473\Debug\tail_true_double.a(cyPm.o)
 .debug_info    0x00001f59      0x58b .\CortexM3\ARM_GCC_473\Debug\tail_true_double.a(UART.o)
 .debug_info    0x000024e4      0x2a0 .\CortexM3\ARM_GCC_473\Debug\tail_true_double.a(Timer.o)
 .debug_info    0x00002784      0x134 .\CortexM3\ARM_GCC_473\Debug\tail_true_double.a(LED_1.o)
 .debug_info    0x000028b8      0x134 .\CortexM3\ARM_GCC_473\Debug\tail_true_double.a(LED_2.o)
 .debug_info    0x000029ec      0x34b .\CortexM3\ARM_GCC_473\Debug\tail_true_double.a(PWM_1.o)
 .debug_info    0x00002d37      0x278 .\CortexM3\ARM_GCC_473\Debug\tail_true_double.a(isr_tc.o)
 .debug_info    0x00002faf      0x156 .\CortexM3\ARM_GCC_473\Debug\tail_true_double.a(Status_Reg_1.o)
 .debug_info    0x00003105      0x156 .\CortexM3\ARM_GCC_473\Debug\tail_true_double.a(Status_Reg_2.o)
 .debug_info    0x0000325b      0x134 .\CortexM3\ARM_GCC_473\Debug\tail_true_double.a(DE_0.o)
 .debug_info    0x0000338f      0x134 .\CortexM3\ARM_GCC_473\Debug\tail_true_double.a(DE_1.o)
 .debug_info    0x000034c3       0xe3 .\CortexM3\ARM_GCC_473\Debug\tail_true_double.a(Control_Reg_1.o)
 .debug_info    0x000035a6      0x134 .\CortexM3\ARM_GCC_473\Debug\tail_true_double.a(LED_4.o)
 .debug_info    0x000036da      0x354 .\CortexM3\ARM_GCC_473\Debug\tail_true_double.a(CyFlash.o)
 .debug_info    0x00003a2e      0x3d9 .\CortexM3\ARM_GCC_473\Debug\tail_true_double.a(CySpc.o)

.debug_abbrev   0x00000000     0x1567
 *(.debug_abbrev)
 .debug_abbrev  0x00000000      0x1ec .\CortexM3\ARM_GCC_473\Debug\main.o
 .debug_abbrev  0x000001ec       0x77 .\CortexM3\ARM_GCC_473\Debug\cymetadata.o
 .debug_abbrev  0x00000263      0x175 .\CortexM3\ARM_GCC_473\Debug\Cm3Start.o
 .debug_abbrev  0x000003d8      0x19f .\CortexM3\ARM_GCC_473\Debug\tail_true_double.a(cyfitter_cfg.o)
 .debug_abbrev  0x00000577       0x14 .\CortexM3\ARM_GCC_473\Debug\tail_true_double.a(CyBootAsmGnu.o)
 .debug_abbrev  0x0000058b      0x207 .\CortexM3\ARM_GCC_473\Debug\tail_true_double.a(CyLib.o)
 .debug_abbrev  0x00000792      0x170 .\CortexM3\ARM_GCC_473\Debug\tail_true_double.a(cyPm.o)
 .debug_abbrev  0x00000902      0x165 .\CortexM3\ARM_GCC_473\Debug\tail_true_double.a(UART.o)
 .debug_abbrev  0x00000a67      0x11d .\CortexM3\ARM_GCC_473\Debug\tail_true_double.a(Timer.o)
 .debug_abbrev  0x00000b84       0x92 .\CortexM3\ARM_GCC_473\Debug\tail_true_double.a(LED_1.o)
 .debug_abbrev  0x00000c16       0x92 .\CortexM3\ARM_GCC_473\Debug\tail_true_double.a(LED_2.o)
 .debug_abbrev  0x00000ca8      0x130 .\CortexM3\ARM_GCC_473\Debug\tail_true_double.a(PWM_1.o)
 .debug_abbrev  0x00000dd8      0x12d .\CortexM3\ARM_GCC_473\Debug\tail_true_double.a(isr_tc.o)
 .debug_abbrev  0x00000f05       0xac .\CortexM3\ARM_GCC_473\Debug\tail_true_double.a(Status_Reg_1.o)
 .debug_abbrev  0x00000fb1       0xac .\CortexM3\ARM_GCC_473\Debug\tail_true_double.a(Status_Reg_2.o)
 .debug_abbrev  0x0000105d       0x92 .\CortexM3\ARM_GCC_473\Debug\tail_true_double.a(DE_0.o)
 .debug_abbrev  0x000010ef       0x92 .\CortexM3\ARM_GCC_473\Debug\tail_true_double.a(DE_1.o)
 .debug_abbrev  0x00001181       0x83 .\CortexM3\ARM_GCC_473\Debug\tail_true_double.a(Control_Reg_1.o)
 .debug_abbrev  0x00001204       0x92 .\CortexM3\ARM_GCC_473\Debug\tail_true_double.a(LED_4.o)
 .debug_abbrev  0x00001296      0x172 .\CortexM3\ARM_GCC_473\Debug\tail_true_double.a(CyFlash.o)
 .debug_abbrev  0x00001408      0x15f .\CortexM3\ARM_GCC_473\Debug\tail_true_double.a(CySpc.o)

.debug_line     0x00000000     0x215e
 *(.debug_line)
 .debug_line    0x00000000      0x315 .\CortexM3\ARM_GCC_473\Debug\main.o
 .debug_line    0x00000315       0x53 .\CortexM3\ARM_GCC_473\Debug\cymetadata.o
 .debug_line    0x00000368      0x1aa .\CortexM3\ARM_GCC_473\Debug\Cm3Start.o
 .debug_line    0x00000512      0x1f5 .\CortexM3\ARM_GCC_473\Debug\tail_true_double.a(cyfitter_cfg.o)
 .debug_line    0x00000707       0x68 .\CortexM3\ARM_GCC_473\Debug\tail_true_double.a(CyBootAsmGnu.o)
 .debug_line    0x0000076f      0x73b .\CortexM3\ARM_GCC_473\Debug\tail_true_double.a(CyLib.o)
 .debug_line    0x00000eaa      0x347 .\CortexM3\ARM_GCC_473\Debug\tail_true_double.a(cyPm.o)
 .debug_line    0x000011f1      0x2ef .\CortexM3\ARM_GCC_473\Debug\tail_true_double.a(UART.o)
 .debug_line    0x000014e0      0x174 .\CortexM3\ARM_GCC_473\Debug\tail_true_double.a(Timer.o)
 .debug_line    0x00001654       0x96 .\CortexM3\ARM_GCC_473\Debug\tail_true_double.a(LED_1.o)
 .debug_line    0x000016ea       0x96 .\CortexM3\ARM_GCC_473\Debug\tail_true_double.a(LED_2.o)
 .debug_line    0x00001780      0x1b3 .\CortexM3\ARM_GCC_473\Debug\tail_true_double.a(PWM_1.o)
 .debug_line    0x00001933      0x141 .\CortexM3\ARM_GCC_473\Debug\tail_true_double.a(isr_tc.o)
 .debug_line    0x00001a74       0xb2 .\CortexM3\ARM_GCC_473\Debug\tail_true_double.a(Status_Reg_1.o)
 .debug_line    0x00001b26       0xb2 .\CortexM3\ARM_GCC_473\Debug\tail_true_double.a(Status_Reg_2.o)
 .debug_line    0x00001bd8       0x95 .\CortexM3\ARM_GCC_473\Debug\tail_true_double.a(DE_0.o)
 .debug_line    0x00001c6d       0x95 .\CortexM3\ARM_GCC_473\Debug\tail_true_double.a(DE_1.o)
 .debug_line    0x00001d02       0x78 .\CortexM3\ARM_GCC_473\Debug\tail_true_double.a(Control_Reg_1.o)
 .debug_line    0x00001d7a       0x96 .\CortexM3\ARM_GCC_473\Debug\tail_true_double.a(LED_4.o)
 .debug_line    0x00001e10      0x1a7 .\CortexM3\ARM_GCC_473\Debug\tail_true_double.a(CyFlash.o)
 .debug_line    0x00001fb7      0x1a7 .\CortexM3\ARM_GCC_473\Debug\tail_true_double.a(CySpc.o)

.debug_frame    0x00000000     0x1d08
 *(.debug_frame)
 .debug_frame   0x00000000      0x1dc .\CortexM3\ARM_GCC_473\Debug\main.o
 .debug_frame   0x000001dc       0xa4 .\CortexM3\ARM_GCC_473\Debug\Cm3Start.o
 .debug_frame   0x00000280      0x120 .\CortexM3\ARM_GCC_473\Debug\tail_true_double.a(cyfitter_cfg.o)
 .debug_frame   0x000003a0      0x778 .\CortexM3\ARM_GCC_473\Debug\tail_true_double.a(CyLib.o)
 .debug_frame   0x00000b18      0x1d0 .\CortexM3\ARM_GCC_473\Debug\tail_true_double.a(cyPm.o)
 .debug_frame   0x00000ce8      0x328 .\CortexM3\ARM_GCC_473\Debug\tail_true_double.a(UART.o)
 .debug_frame   0x00001010      0x1b8 .\CortexM3\ARM_GCC_473\Debug\tail_true_double.a(Timer.o)
 .debug_frame   0x000011c8       0x80 .\CortexM3\ARM_GCC_473\Debug\tail_true_double.a(LED_1.o)
 .debug_frame   0x00001248       0x80 .\CortexM3\ARM_GCC_473\Debug\tail_true_double.a(LED_2.o)
 .debug_frame   0x000012c8      0x20c .\CortexM3\ARM_GCC_473\Debug\tail_true_double.a(PWM_1.o)
 .debug_frame   0x000014d4      0x180 .\CortexM3\ARM_GCC_473\Debug\tail_true_double.a(isr_tc.o)
 .debug_frame   0x00001654       0xa4 .\CortexM3\ARM_GCC_473\Debug\tail_true_double.a(Status_Reg_1.o)
 .debug_frame   0x000016f8       0xa4 .\CortexM3\ARM_GCC_473\Debug\tail_true_double.a(Status_Reg_2.o)
 .debug_frame   0x0000179c       0x80 .\CortexM3\ARM_GCC_473\Debug\tail_true_double.a(DE_0.o)
 .debug_frame   0x0000181c       0x80 .\CortexM3\ARM_GCC_473\Debug\tail_true_double.a(DE_1.o)
 .debug_frame   0x0000189c       0x48 .\CortexM3\ARM_GCC_473\Debug\tail_true_double.a(Control_Reg_1.o)
 .debug_frame   0x000018e4       0x80 .\CortexM3\ARM_GCC_473\Debug\tail_true_double.a(LED_4.o)
 .debug_frame   0x00001964      0x178 .\CortexM3\ARM_GCC_473\Debug\tail_true_double.a(CyFlash.o)
 .debug_frame   0x00001adc      0x13c .\CortexM3\ARM_GCC_473\Debug\tail_true_double.a(CySpc.o)
 .debug_frame   0x00001c18       0x28 c:/program files/cypress/psoc creator/3.0/psoc creator/import/gnu_cs/arm/4.7.3/bin/../lib/gcc/arm-none-eabi/4.7.3/../../../../arm-none-eabi/lib/armv7-m\libc_s.a(lib_a-__atexit2.o)
 .debug_frame   0x00001c40       0x28 c:/program files/cypress/psoc creator/3.0/psoc creator/import/gnu_cs/arm/4.7.3/bin/../lib/gcc/arm-none-eabi/4.7.3/../../../../arm-none-eabi/lib/armv7-m\libc_s.a(lib_a-exit.o)
 .debug_frame   0x00001c68       0x2c c:/program files/cypress/psoc creator/3.0/psoc creator/import/gnu_cs/arm/4.7.3/bin/../lib/gcc/arm-none-eabi/4.7.3/../../../../arm-none-eabi/lib/armv7-m\libc_s.a(lib_a-fini.o)
 .debug_frame   0x00001c94       0x2c c:/program files/cypress/psoc creator/3.0/psoc creator/import/gnu_cs/arm/4.7.3/bin/../lib/gcc/arm-none-eabi/4.7.3/../../../../arm-none-eabi/lib/armv7-m\libc_s.a(lib_a-init.o)
 .debug_frame   0x00001cc0       0x28 c:/program files/cypress/psoc creator/3.0/psoc creator/import/gnu_cs/arm/4.7.3/bin/../lib/gcc/arm-none-eabi/4.7.3/../../../../arm-none-eabi/lib/armv7-m\libc_s.a(lib_a-memcpy.o)
 .debug_frame   0x00001ce8       0x20 c:/program files/cypress/psoc creator/3.0/psoc creator/import/gnu_cs/arm/4.7.3/bin/../lib/gcc/arm-none-eabi/4.7.3/../../../../arm-none-eabi/lib/armv7-m\libc_s.a(lib_a-memset.o)

.debug_str      0x00000000     0x1b53
 *(.debug_str)
 .debug_str     0x00000000      0x268 .\CortexM3\ARM_GCC_473\Debug\main.o
                                0x2ba (size before relaxing)
 .debug_str     0x00000268       0xbf .\CortexM3\ARM_GCC_473\Debug\cymetadata.o
                                0x1ad (size before relaxing)
 .debug_str     0x00000327      0x119 .\CortexM3\ARM_GCC_473\Debug\Cm3Start.o
                                0x269 (size before relaxing)
 .debug_str     0x00000440      0x15e .\CortexM3\ARM_GCC_473\Debug\tail_true_double.a(cyfitter_cfg.o)
                                0x2ba (size before relaxing)
 .debug_str     0x0000059e      0x633 .\CortexM3\ARM_GCC_473\Debug\tail_true_double.a(CyLib.o)
                                0x7cf (size before relaxing)
 .debug_str     0x00000bd1      0x371 .\CortexM3\ARM_GCC_473\Debug\tail_true_double.a(cyPm.o)
                                0x4de (size before relaxing)
 .debug_str     0x00000f42      0x284 .\CortexM3\ARM_GCC_473\Debug\tail_true_double.a(UART.o)
                                0x3da (size before relaxing)
 .debug_str     0x000011c6      0x166 .\CortexM3\ARM_GCC_473\Debug\tail_true_double.a(Timer.o)
                                0x2c5 (size before relaxing)
 .debug_str     0x0000132c       0x68 .\CortexM3\ARM_GCC_473\Debug\tail_true_double.a(LED_1.o)
                                0x1a5 (size before relaxing)
 .debug_str     0x00001394       0x5d .\CortexM3\ARM_GCC_473\Debug\tail_true_double.a(LED_2.o)
                                0x1a5 (size before relaxing)
 .debug_str     0x000013f1      0x1a4 .\CortexM3\ARM_GCC_473\Debug\tail_true_double.a(PWM_1.o)
                                0x311 (size before relaxing)
 .debug_str     0x00001595       0xf6 .\CortexM3\ARM_GCC_473\Debug\tail_true_double.a(isr_tc.o)
                                0x26b (size before relaxing)
 .debug_str     0x0000168b       0xa2 .\CortexM3\ARM_GCC_473\Debug\tail_true_double.a(Status_Reg_1.o)
                                0x1f1 (size before relaxing)
 .debug_str     0x0000172d       0xa2 .\CortexM3\ARM_GCC_473\Debug\tail_true_double.a(Status_Reg_2.o)
                                0x1f1 (size before relaxing)
 .debug_str     0x000017cf       0x58 .\CortexM3\ARM_GCC_473\Debug\tail_true_double.a(DE_0.o)
                                0x1a0 (size before relaxing)
 .debug_str     0x00001827       0x58 .\CortexM3\ARM_GCC_473\Debug\tail_true_double.a(DE_1.o)
                                0x1a0 (size before relaxing)
 .debug_str     0x0000187f       0x50 .\CortexM3\ARM_GCC_473\Debug\tail_true_double.a(Control_Reg_1.o)
                                0x18a (size before relaxing)
 .debug_str     0x000018cf       0x5d .\CortexM3\ARM_GCC_473\Debug\tail_true_double.a(LED_4.o)
                                0x1a5 (size before relaxing)
 .debug_str     0x0000192c      0x129 .\CortexM3\ARM_GCC_473\Debug\tail_true_double.a(CyFlash.o)
                                0x2a4 (size before relaxing)
 .debug_str     0x00001a55       0xfe .\CortexM3\ARM_GCC_473\Debug\tail_true_double.a(CySpc.o)
                                0x280 (size before relaxing)

.debug_loc      0x00000000     0x2f00
 *(.debug_loc)
 .debug_loc     0x00000000      0x2f4 .\CortexM3\ARM_GCC_473\Debug\main.o
 .debug_loc     0x000002f4      0x100 .\CortexM3\ARM_GCC_473\Debug\Cm3Start.o
 .debug_loc     0x000003f4      0x1f8 .\CortexM3\ARM_GCC_473\Debug\tail_true_double.a(cyfitter_cfg.o)
 .debug_loc     0x000005ec      0xce0 .\CortexM3\ARM_GCC_473\Debug\tail_true_double.a(CyLib.o)
 .debug_loc     0x000012cc      0x2e8 .\CortexM3\ARM_GCC_473\Debug\tail_true_double.a(cyPm.o)
 .debug_loc     0x000015b4      0x5ac .\CortexM3\ARM_GCC_473\Debug\tail_true_double.a(UART.o)
 .debug_loc     0x00001b60      0x2d0 .\CortexM3\ARM_GCC_473\Debug\tail_true_double.a(Timer.o)
 .debug_loc     0x00001e30       0xc8 .\CortexM3\ARM_GCC_473\Debug\tail_true_double.a(LED_1.o)
 .debug_loc     0x00001ef8       0xc8 .\CortexM3\ARM_GCC_473\Debug\tail_true_double.a(LED_2.o)
 .debug_loc     0x00001fc0      0x384 .\CortexM3\ARM_GCC_473\Debug\tail_true_double.a(PWM_1.o)
 .debug_loc     0x00002344      0x278 .\CortexM3\ARM_GCC_473\Debug\tail_true_double.a(isr_tc.o)
 .debug_loc     0x000025bc      0x100 .\CortexM3\ARM_GCC_473\Debug\tail_true_double.a(Status_Reg_1.o)
 .debug_loc     0x000026bc      0x100 .\CortexM3\ARM_GCC_473\Debug\tail_true_double.a(Status_Reg_2.o)
 .debug_loc     0x000027bc       0xc8 .\CortexM3\ARM_GCC_473\Debug\tail_true_double.a(DE_0.o)
 .debug_loc     0x00002884       0xc8 .\CortexM3\ARM_GCC_473\Debug\tail_true_double.a(DE_1.o)
 .debug_loc     0x0000294c       0x64 .\CortexM3\ARM_GCC_473\Debug\tail_true_double.a(Control_Reg_1.o)
 .debug_loc     0x000029b0       0xc8 .\CortexM3\ARM_GCC_473\Debug\tail_true_double.a(LED_4.o)
 .debug_loc     0x00002a78      0x258 .\CortexM3\ARM_GCC_473\Debug\tail_true_double.a(CyFlash.o)
 .debug_loc     0x00002cd0      0x230 .\CortexM3\ARM_GCC_473\Debug\tail_true_double.a(CySpc.o)

.debug_macinfo
 *(.debug_macinfo)

.debug_ranges   0x00000000      0x7f0
 *(.debug_ranges)
 .debug_ranges  0x00000000       0x80 .\CortexM3\ARM_GCC_473\Debug\main.o
 .debug_ranges  0x00000080       0x30 .\CortexM3\ARM_GCC_473\Debug\Cm3Start.o
 .debug_ranges  0x000000b0       0x50 .\CortexM3\ARM_GCC_473\Debug\tail_true_double.a(cyfitter_cfg.o)
 .debug_ranges  0x00000100      0x208 .\CortexM3\ARM_GCC_473\Debug\tail_true_double.a(CyLib.o)
 .debug_ranges  0x00000308       0x80 .\CortexM3\ARM_GCC_473\Debug\tail_true_double.a(cyPm.o)
 .debug_ranges  0x00000388       0xe0 .\CortexM3\ARM_GCC_473\Debug\tail_true_double.a(UART.o)
 .debug_ranges  0x00000468       0x80 .\CortexM3\ARM_GCC_473\Debug\tail_true_double.a(Timer.o)
 .debug_ranges  0x000004e8       0x28 .\CortexM3\ARM_GCC_473\Debug\tail_true_double.a(LED_1.o)
 .debug_ranges  0x00000510       0x28 .\CortexM3\ARM_GCC_473\Debug\tail_true_double.a(LED_2.o)
 .debug_ranges  0x00000538       0x98 .\CortexM3\ARM_GCC_473\Debug\tail_true_double.a(PWM_1.o)
 .debug_ranges  0x000005d0       0x70 .\CortexM3\ARM_GCC_473\Debug\tail_true_double.a(isr_tc.o)
 .debug_ranges  0x00000640       0x30 .\CortexM3\ARM_GCC_473\Debug\tail_true_double.a(Status_Reg_1.o)
 .debug_ranges  0x00000670       0x30 .\CortexM3\ARM_GCC_473\Debug\tail_true_double.a(Status_Reg_2.o)
 .debug_ranges  0x000006a0       0x28 .\CortexM3\ARM_GCC_473\Debug\tail_true_double.a(DE_0.o)
 .debug_ranges  0x000006c8       0x28 .\CortexM3\ARM_GCC_473\Debug\tail_true_double.a(DE_1.o)
 .debug_ranges  0x000006f0       0x18 .\CortexM3\ARM_GCC_473\Debug\tail_true_double.a(Control_Reg_1.o)
 .debug_ranges  0x00000708       0x28 .\CortexM3\ARM_GCC_473\Debug\tail_true_double.a(LED_4.o)
 .debug_ranges  0x00000730       0x68 .\CortexM3\ARM_GCC_473\Debug\tail_true_double.a(CyFlash.o)
 .debug_ranges  0x00000798       0x58 .\CortexM3\ARM_GCC_473\Debug\tail_true_double.a(CySpc.o)

.comment        0x00000000       0x70
 .comment       0x00000000       0x70 .\CortexM3\ARM_GCC_473\Debug\main.o
                                 0x71 (size before relaxing)
 .comment       0x00000000       0x71 .\CortexM3\ARM_GCC_473\Debug\cymetadata.o
 .comment       0x00000000       0x71 .\CortexM3\ARM_GCC_473\Debug\Cm3Start.o
 .comment       0x00000000       0x71 .\CortexM3\ARM_GCC_473\Debug\tail_true_double.a(cyfitter_cfg.o)
 .comment       0x00000000       0x71 .\CortexM3\ARM_GCC_473\Debug\tail_true_double.a(CyLib.o)
 .comment       0x00000000       0x71 .\CortexM3\ARM_GCC_473\Debug\tail_true_double.a(cyPm.o)
 .comment       0x00000000       0x71 .\CortexM3\ARM_GCC_473\Debug\tail_true_double.a(UART.o)
 .comment       0x00000000       0x71 .\CortexM3\ARM_GCC_473\Debug\tail_true_double.a(Timer.o)
 .comment       0x00000000       0x71 .\CortexM3\ARM_GCC_473\Debug\tail_true_double.a(LED_1.o)
 .comment       0x00000000       0x71 .\CortexM3\ARM_GCC_473\Debug\tail_true_double.a(LED_2.o)
 .comment       0x00000000       0x71 .\CortexM3\ARM_GCC_473\Debug\tail_true_double.a(PWM_1.o)
 .comment       0x00000000       0x71 .\CortexM3\ARM_GCC_473\Debug\tail_true_double.a(isr_tc.o)
 .comment       0x00000000       0x71 .\CortexM3\ARM_GCC_473\Debug\tail_true_double.a(Status_Reg_1.o)
 .comment       0x00000000       0x71 .\CortexM3\ARM_GCC_473\Debug\tail_true_double.a(Status_Reg_2.o)
 .comment       0x00000000       0x71 .\CortexM3\ARM_GCC_473\Debug\tail_true_double.a(DE_0.o)
 .comment       0x00000000       0x71 .\CortexM3\ARM_GCC_473\Debug\tail_true_double.a(DE_1.o)
 .comment       0x00000000       0x71 .\CortexM3\ARM_GCC_473\Debug\tail_true_double.a(Control_Reg_1.o)
 .comment       0x00000000       0x71 .\CortexM3\ARM_GCC_473\Debug\tail_true_double.a(LED_4.o)
 .comment       0x00000000       0x71 .\CortexM3\ARM_GCC_473\Debug\tail_true_double.a(CyFlash.o)
 .comment       0x00000000       0x71 .\CortexM3\ARM_GCC_473\Debug\tail_true_double.a(CySpc.o)

.debug_weaknames
 *(.debug_weaknames)

.debug_funcnames
 *(.debug_funcnames)

.debug_typenames
 *(.debug_typenames)

.debug_varnames
 *(.debug_varnames)

.note.gnu.arm.ident
 *(.note.gnu.arm.ident)

.ARM.attributes
                0x00000000       0x29
 *(.ARM.attributes)
 .ARM.attributes
                0x00000000       0x1d c:/program files/cypress/psoc creator/3.0/psoc creator/import/gnu_cs/arm/4.7.3/bin/../lib/gcc/arm-none-eabi/4.7.3/armv7-m/crti.o
 .ARM.attributes
                0x0000001d       0x2d c:/program files/cypress/psoc creator/3.0/psoc creator/import/gnu_cs/arm/4.7.3/bin/../lib/gcc/arm-none-eabi/4.7.3/armv7-m/crtbegin.o
 .ARM.attributes
                0x0000004a       0x1b c:/program files/cypress/psoc creator/3.0/psoc creator/import/gnu_cs/arm/4.7.3/bin/../lib/gcc/arm-none-eabi/4.7.3/../../../../arm-none-eabi/lib/armv7-m/crt0.o
 .ARM.attributes
                0x00000065       0x33 .\CortexM3\ARM_GCC_473\Debug\main.o
 .ARM.attributes
                0x00000098       0x33 .\CortexM3\ARM_GCC_473\Debug\cymetadata.o
 .ARM.attributes
                0x000000cb       0x33 .\CortexM3\ARM_GCC_473\Debug\Cm3Start.o
 .ARM.attributes
                0x000000fe       0x33 .\CortexM3\ARM_GCC_473\Debug\tail_true_double.a(cyfitter_cfg.o)
 .ARM.attributes
                0x00000131       0x21 .\CortexM3\ARM_GCC_473\Debug\tail_true_double.a(CyBootAsmGnu.o)
 .ARM.attributes
                0x00000152       0x33 .\CortexM3\ARM_GCC_473\Debug\tail_true_double.a(CyLib.o)
 .ARM.attributes
                0x00000185       0x33 .\CortexM3\ARM_GCC_473\Debug\tail_true_double.a(cyPm.o)
 .ARM.attributes
                0x000001b8       0x33 .\CortexM3\ARM_GCC_473\Debug\tail_true_double.a(UART.o)
 .ARM.attributes
                0x000001eb       0x33 .\CortexM3\ARM_GCC_473\Debug\tail_true_double.a(Timer.o)
 .ARM.attributes
                0x0000021e       0x33 .\CortexM3\ARM_GCC_473\Debug\tail_true_double.a(LED_1.o)
 .ARM.attributes
                0x00000251       0x33 .\CortexM3\ARM_GCC_473\Debug\tail_true_double.a(LED_2.o)
 .ARM.attributes
                0x00000284       0x33 .\CortexM3\ARM_GCC_473\Debug\tail_true_double.a(PWM_1.o)
 .ARM.attributes
                0x000002b7       0x33 .\CortexM3\ARM_GCC_473\Debug\tail_true_double.a(isr_tc.o)
 .ARM.attributes
                0x000002ea       0x33 .\CortexM3\ARM_GCC_473\Debug\tail_true_double.a(Status_Reg_1.o)
 .ARM.attributes
                0x0000031d       0x33 .\CortexM3\ARM_GCC_473\Debug\tail_true_double.a(Status_Reg_2.o)
 .ARM.attributes
                0x00000350       0x33 .\CortexM3\ARM_GCC_473\Debug\tail_true_double.a(DE_0.o)
 .ARM.attributes
                0x00000383       0x33 .\CortexM3\ARM_GCC_473\Debug\tail_true_double.a(DE_1.o)
 .ARM.attributes
                0x000003b6       0x33 .\CortexM3\ARM_GCC_473\Debug\tail_true_double.a(Control_Reg_1.o)
 .ARM.attributes
                0x000003e9       0x33 .\CortexM3\ARM_GCC_473\Debug\tail_true_double.a(LED_4.o)
 .ARM.attributes
                0x0000041c       0x33 .\CortexM3\ARM_GCC_473\Debug\tail_true_double.a(CyFlash.o)
 .ARM.attributes
                0x0000044f       0x33 .\CortexM3\ARM_GCC_473\Debug\tail_true_double.a(CySpc.o)
 .ARM.attributes
                0x00000482       0x1d c:/program files/cypress/psoc creator/3.0/psoc creator/import/gnu_cs/arm/4.7.3/bin/../lib/gcc/arm-none-eabi/4.7.3/armv7-m\libgcc.a(_arm_addsubdf3.o)
 .ARM.attributes
                0x0000049f       0x1d c:/program files/cypress/psoc creator/3.0/psoc creator/import/gnu_cs/arm/4.7.3/bin/../lib/gcc/arm-none-eabi/4.7.3/armv7-m\libgcc.a(_arm_muldivdf3.o)
 .ARM.attributes
                0x000004bc       0x1d c:/program files/cypress/psoc creator/3.0/psoc creator/import/gnu_cs/arm/4.7.3/bin/../lib/gcc/arm-none-eabi/4.7.3/armv7-m\libgcc.a(_arm_fixunsdfsi.o)
 .ARM.attributes
                0x000004d9       0x2d c:/program files/cypress/psoc creator/3.0/psoc creator/import/gnu_cs/arm/4.7.3/bin/../lib/gcc/arm-none-eabi/4.7.3/../../../../arm-none-eabi/lib/armv7-m\libc_s.a(lib_a-__atexit2.o)
 .ARM.attributes
                0x00000506       0x2d c:/program files/cypress/psoc creator/3.0/psoc creator/import/gnu_cs/arm/4.7.3/bin/../lib/gcc/arm-none-eabi/4.7.3/../../../../arm-none-eabi/lib/armv7-m\libc_s.a(lib_a-exit.o)
 .ARM.attributes
                0x00000533       0x2d c:/program files/cypress/psoc creator/3.0/psoc creator/import/gnu_cs/arm/4.7.3/bin/../lib/gcc/arm-none-eabi/4.7.3/../../../../arm-none-eabi/lib/armv7-m\libc_s.a(lib_a-fini.o)
 .ARM.attributes
                0x00000560       0x2d c:/program files/cypress/psoc creator/3.0/psoc creator/import/gnu_cs/arm/4.7.3/bin/../lib/gcc/arm-none-eabi/4.7.3/../../../../arm-none-eabi/lib/armv7-m\libc_s.a(lib_a-impure.o)
 .ARM.attributes
                0x0000058d       0x2d c:/program files/cypress/psoc creator/3.0/psoc creator/import/gnu_cs/arm/4.7.3/bin/../lib/gcc/arm-none-eabi/4.7.3/../../../../arm-none-eabi/lib/armv7-m\libc_s.a(lib_a-init.o)
 .ARM.attributes
                0x000005ba       0x2d c:/program files/cypress/psoc creator/3.0/psoc creator/import/gnu_cs/arm/4.7.3/bin/../lib/gcc/arm-none-eabi/4.7.3/../../../../arm-none-eabi/lib/armv7-m\libc_s.a(lib_a-memcpy.o)
 .ARM.attributes
                0x000005e7       0x2d c:/program files/cypress/psoc creator/3.0/psoc creator/import/gnu_cs/arm/4.7.3/bin/../lib/gcc/arm-none-eabi/4.7.3/../../../../arm-none-eabi/lib/armv7-m\libc_s.a(lib_a-memset.o)
 .ARM.attributes
                0x00000614       0x2d c:/program files/cypress/psoc creator/3.0/psoc creator/import/gnu_cs/arm/4.7.3/bin/../lib/gcc/arm-none-eabi/4.7.3/armv7-m/crtend.o
 .ARM.attributes
                0x00000641       0x1d c:/program files/cypress/psoc creator/3.0/psoc creator/import/gnu_cs/arm/4.7.3/bin/../lib/gcc/arm-none-eabi/4.7.3/armv7-m/crtn.o

/DISCARD/
 *(.note.GNU-stack)
OUTPUT(.\CortexM3\ARM_GCC_473\Debug\tail_true_double.elf elf32-littlearm)
