:400000000080002011000000A5080000A508000080B500AF47F2BC63C4F2000344F2FA62C4F2000212681A6000F040FC10B5054C237833B9044810B10448AFF3008001211C
:40004000217010BD1081FF1F00000000EC1E000008B5064B1BB106480649AFF300800648016811B1054A02B1904708BD00000000EC1E00001481FF1F0881FF1F0000000055
:4000800080B500AF01F0E2FA0346002B08D04FF0000001F089FA4FF0010001F0A7FA07E04FF0010001F080FA4FF0000001F09EFA80BD00BF80B500AF4FF0000001F074FAE6
:4000C0004FF0000001F092FA80BD00BF80B500AF00F0B0F800F00AFB62B64FF0550048F23C11C1F6FF7100F0ADF80346002B50D14FF0010001F0ACF84FF0000001F086F8D0
:400100004FF0010001F0AEFA48F23C10C1F6FF7000F066F90346012B2ED148F22C13C1F6FF731B6803F1010248F22C13C1F6FF731A6048F23C13C1F6FF735B881A4648F210
:400140003813C1F6FF731A6048F23C13C1F6FF739B881A4648F23413C1F6FF731A604FF0000001F075F84FF0000001F04FF84FF0010001F077FAB0E74FF0010001F046F87C
:400180004FF0010001F064F84FF0010001F06AFAA3E74FF0010001F05BF84FF0010001F061FA48F22C13C1F6FF731A686FF4F9739A420CDB48F22C13C1F6FF731B6803F1B4
:4001C000FF3248F22C13C1F6FF731A6085E700F057FB4FF0000001F045FA48F22C13C1F6FF734FF000021A6077E700BF80B582B000AF78607B689BB2184600F0D7FF00BF1A
:4002000007F10807BD4680BD80B582B000AF78607B6803F132031846FFF7E8FF00BF00F0D5FF0346322BFAD800BF07F10807BD4680BD00BF80B500AF00F03AFE00F068FF1F
:4002400000BF80BD90B585B000AF03463960FB7100F0B6FE034603F02003002B08D14FF0010000F0D3FFFFF725FF4FF00103B2E04FF0010000F0CAFF00F092FE0346BB7323
:4002800000F0B2FEFA79BB7B03F07F039A4220D04FF0C800FFF7AAFFFFF70CFF0FE000F08FFE034603F02003002B08D04FF46170FFF7AAFF00F098FE4FF001038BE000F068
:4002C00085FF0346312BEAD800F08EFE4FF0010381E04FF0000000F099FFFFF7D1FEFB79184600F0B9FE00BF00F0AAFE034603F00103002BF8D000F077FEBB7B5BB2002B91
:400300002FDA3B689B787B733B68DA783B689A703B687A7BDA703B681B797B733B685A793B681A713B687A7B5A714FF00003FB7313E0FB7B3A68D35C184600F08DFE00BFDE
:4003400000F07EFE034603F00103002BF8D000F04BFEFB7B03F10103FB73FB7B052BE8D925E0FFF7A7FE40F2F230FFF73FFF4FF00003FB7313E000F023FE034603F0200327
:40038000002B0CD0FC7B00F00BFE03461A463B681A55FB7B03F10103FB7300F025FEFB7B052B04D800F012FF03460A2BE3D8FFF767FEFB79184600F04FFE00BF00F040FE09
:4003C000034603F00103002BF8D000F00DFEFFF771FE4FF00003184607F11407BD4690BD80B485B000AF78604FF00003FB734FF00003BB600BE0BB6803F102037A68D25C53
:40040000FB7BD318FB73BB6803F10103BB60BB68032BF0DDFB7B6FEA0303DAB27B685B789A4202D14FF0010301E04FF00003184607F11407BD4680BC704700BF80B584B0DE
:4004400000AF4FF01903BB6001F096F803466FEA030303F00F037B607B680F2B00F2948001A252F823F000BFA9040000BB040000C9040000DB040000EF040000010500005D
:400480000F050000210500002B050000330500003905000043050000510500005B050000690500007B050000BA6813464FEA43739B1A4FEAC303FB6066E0BB681A464FEAF5
:4004C000C303D31AFB605FE0BA6813464FEA82029B1A4FEA4303FB6056E0BA6813464FEA83739B1A4FEA83039B1AFB604CE0BA6813464FEA83739B1A4FEA8303FB6043E0BC
:40050000BB681A464FEA8303D31AFB603CE0BA6813464FEAC3739B1A4FEA4303FB6033E0BB68C3F10003FB602EE04FF00003FB602AE0BB68FB6027E0BB684FEA4303FB601D
:4005400022E0BA6813464FEA43039B18FB601BE0BB684FEA8303FB6016E0BA6813464FEA83039B18FB600FE0BA6813464FEA43039B184FEA4303FB6006E0BA6813464FEAEB
:40058000C3039B1AFB6000BFFB68184607F11007BD4680BD80B584B000AF4FF00A03BB6000F0F6FF03466FEA030303F00F037B607B680F2B00F2948001A252F823F000BFC8
:4005C0000106000013060000210600003306000047060000590600006706000079060000830600008B060000910600009B060000A9060000B3060000C1060000D306000089
:40060000BA6813464FEA43739B1A4FEAC303FB6066E0BB681A464FEAC303D31AFB605FE0BA6813464FEA82029B1A4FEA4303FB6056E0BA6813464FEA83739B1A4FEA8303D7
:400640009B1AFB604CE0BA6813464FEA83739B1A4FEA8303FB6043E0BB681A464FEA8303D31AFB603CE0BA6813464FEAC3739B1A4FEA4303FB6033E0BB68C3F10003FB603B
:400680002EE04FF00003FB602AE0BB68FB6027E0BB684FEA4303FB6022E0BA6813464FEA43039B18FB601BE0BB684FEA8303FB6016E0BA6813464FEA83039B18FB600FE094
:4006C000BA6813464FEA43039B184FEA4303FB6006E0BA6813464FEAC3039B1AFB6000BFFB68184607F11007BD4680BD80B500AF48F23813C1F6FF7340F2DC521A6048F28E
:400700003413C1F6FF7340F2DC521A6000F0C2FD40F63D00C0F2000000F0DAFE4FF0000000F084FF00BF80BDB0B582B000AF0346FB80FFF783FE034603F5AF63184601F002
:4007400005F904460D46FB88A3F2DC53184601F0FDF802460B461046194613A3D3E9002301F05AF902460B462046294600F0A0FF02460B461046194601F060FB0346FB80D1
:40078000FA8840F698039A4206D8FA8840F21F339A4201D9FB8802E000F082FE0346184607F10807BD46B0BDCDCCCCCCCCCCF43F80B582B000AF0346FB80FFF7EBFE03467F
:4007C0009AB2FB88D318FB8000F076FE03461A4648F24413C1F6FF731A60FA8840F698039A4218D8FA8840F21F339A4213D9FA8848F24413C1F6FF731B6803F5FA739A4296
:4008000009DAFA8848F24413C1F6FF731B68A3F5FA739A4206DC48F24813C1F6FF731B68052B01DDFB8804E048F24413C1F6FF731B68184607F10807BD4680BD80B500AFD7
:4008400048F23813C1F6FF731B689BB21846FFF76BFF03469BB2184600F0D6FD48F23413C1F6FF731B689BB21846FFF7A1FF03469BB2184600F0D8FD00F0F6FD00BF80BD7F
:4008800080B500AF00F0E2FE0346002B04D04FF0000000F0CBFE03E04FF0010000F0C6FE80BD00BF80B400AFFEE700BF80B586B000AF40F20103C0F200037B6141F640731F
:4008C000C0F200033B6140F20103C0F200037B6141F64073C0F200033B613BE03B691B68FB603B695B68BB603B699B683B604FF000037B600FE0FB681A68BB681A60BB6893
:4009000003F10403BB60FB6803F10403FB607B6803F104037B607A683B689A42EBD13B69DB683B604FF000037B600BE0BB684FF000021A60BB6803F10403BB607B6803F19A
:4009400004037B607A683B689A42EFD13B6903F110033B617B69002B0CBF00230123DBB27A6902F1FF327A61002BB7D101F086FAFFF7ACFBFEE700BF80B582B000AF4EF6DE
:400980000C53CEF200034FF48062C0F2FA521A604EF61453CEF200034EF61452CEF20002126842F400721A604FF000037B6019E07B68032B07D840F20003C0F200037A6830
:4009C00053F8223003E040F6A503C0F2000348F20002C1F6FF72796842F821307B6803F101037B607B682F2BE2D947F2BC63C4F200031B78DAB248F20413C1F6FF731A7032
:400A00004EF60853CEF2000348F20002C1F6FF721A6000F05FF948F20013C1F6FF734FF000021A6007F10807BD4680BD80B582B000AF7860396078684FF000013A6801F07C
:400A40004CFA07F10807BD4680BD00BF80B584B000AFF860B9607A60F868B9687A6801F033FA07F11007BD4680BD00BF80B483B000AF0346FB71FEE780B487B000AF786096
:400A800039604FF000033B614FF000037B612CE07B694FEA83037A68D3181B68BB60BB68FB73BB6823F0FF03BB6017E03B694FEA43033A68D3181B781A46BB68D3183A6958
:400AC0004FEA420239688A1852781A703B6903F101033B61FB7B03F1FF33FB73FB7B002BE4D17B6903F101037B617B691B2BCFD907F11C07BD4680BC704700BF80B582B089
:400B000000AF4FF48143C4F200034FF001021A8044F28203C4F200034FF018021A7044F28403C4F200034FF017021A8044F28603C4F200034FF018021A7044F28803C4F2D9
:400B400000034FF017021A8044F28A03C4F200034FF018021A704FF48643C4F200034FF002021A704FF040234FF008021A704FF48443C4F200034FF003021A7044F2A1634F
:400B8000C4F200034FF48472C4F600121278D2B21A7044F22223C4F200034FF008021A8044F22023C4F2000341F251221A804FF00003FB704FF019037B6019E0FB784FEACE
:400BC0004303DAB244F22523C4F200031B78DBB203F00103DBB21343DBB203F00303FB704FF4F07000F050F97B6803F1FF337B607B68002B02D0FB78032BDFD17B68002B02
:400C000003D14FF00300FFF731FF44F20403C4F200034FF480721A8044F20403C4F200034FF007021A7044F20603C4F200034FF000021A7044F20803C4F200034FF04802A5
:400C40001A7044F20403C4F200034FF000021A7044F20103C4F200034FF002021A7044F2A233C4F2000344F2A232C4F200021278D2B242F00702D2B21A7007F10807BD4682
:400C800080BD00BF80B483B000AF40F2CF13C4F600131B78FB7145F66E03C4F20003FA7902F00702D2B21A7045F66F03C4F20003FA794FEA1212D2B21A7045F67603C4F2B3
:400CC00000034FF044021A7007F10C07BD4680BC704700BF80B582B000AF72B64FF00003FB7119E0FA7913464FEA43039B184FEA430341F6F062C0F200029B183B603B6892
:400D00001A683B689B889BB210461946FFF78EFEFB7903F10103FB71FB79062BE2D94FF090404FF07001C4F60001FFF7A5FE45F20303C4F2010345F20302C4F20102127826
:400D4000D2B242F00202D2B21A7045F21303C4F2010345F21302C4F201021278D2B242F00202D2B21A7044F2A033C4F2000344F2A032C4F200021278D2B242F04002D2B2C5
:400D80001A7044F2C233C4F2000344F2C232C4F200021278D2B242F01002D2B21A704FF4A240C4F200004FF4E061C4F600014FF00A02FFF74BFE45F2C210C4F2000040F2EE
:400DC0000C71C4F600014FF00802FFF73FFE45F2F210C4F2000040F21471C4F600014FF00802FFF733FE45F22010C4F2000040F21C71C4F600014FF00A02FFF727FE45F23A
:400E00003010C4F200004FF4E561C4F600014FF00A02FFF71BFE44F22233C4F2000344F22232C4F200021278D2B242F00802D2B21A704FF49043C4F200034FF001021A70A5
:400E4000FFF75CFE4FF49043C4F200034FF081021A704FF00403C4F208034FF001021A70FFF710FF44F2B030C4F2000044F2A031C4F200014FF00E02FFF7E8FD07F1080774
:400E8000BD4680BD000000000230800800F0058000BF013800467FF4FCAF7047EFF3108072B6704780F31088704700BFAFF3008080B500AF48F23013C1F6FF731B78002B74
:400EC00008D100F00BF848F23013C1F6FF734FF001021A7000F02AF880BD00BF80B400AF46F28553C4F200034FF072021A7046F28653C4F200034FF020021A7046F2245359
:400F0000C4F200034FF007021A7046F23453C4F200034FF048021A7046F28753C4F200034FF000021A70BD4680BC704780B582B000AFFFF7B3FF0346FB7146F29553C4F2C6
:400F4000000346F29552C4F200021278D2B242F02002D2B21A7046F29653C4F2000346F29652C4F200021278D2B242F01002D2B21A7046F29753C4F2000346F29752C4F263
:400F800000021278D2B242F01002D2B21A70FB791846FFF787FF07F10807BD4680BD00BF80B483B000AF46F24643C4F200031B78FB71FB79184607F10C07BD4680BC704719
:400FC00080B483B000AF46F26653C4F200031B78DBB203F07F03FB71FB79184607F10C07BD4680BC704700BF80B582B000AFFFF755FF0346FB7146F29643C4F2000346F287
:401000009642C4F200021278D2B242F00102D2B21A7046F29643C4F2000346F29642C4F200021278D2B222F00102D2B21A70FB791846FFF737FF07F10807BD4680BD00BF08
:4010400080B400AF46F26753C4F200031B78DBB21846BD4680BC704780B483B000AF0346FB7100BF46F26753C4F200031B78DBB203F00403002BF5D146F24743C4F20003B3
:40108000FA791A7007F10C07BD4680BC704700BF80B582B000AF4FF0010000F06BF84FF0010000F083F8FFF7F9FE0346FB7146F29343C4F2000346F29342C4F20002127867
:4010C000D2B242F01002D2B21A70FB791846FFF7E9FE00F08DF84FF0000000F02FF807F10807BD4680BD00BF80B400AF46F27743C4F2000346F27742C4F200021278D2B255
:4011000062F07F02D2B21A70BD4680BC704700BF80B500AF48F23213C1F6FF731B78002B08D1FFF7B5FF48F23213C1F6FF734FF001021A70FFF7D8FF80BD00BF80B483B0A8
:4011400000AF0346FB7146F28343C4F20003FA791A7007F10C07BD4680BC704780B400AF46F26343C4F200031B78DBB21846BD4680BC704780B483B000AF0346FB8046F652
:401180004403C4F20003FA881A8007F10C07BD4680BC704780B400AF46F68403C4F200031B889BB21846BD4680BC704780B483B000AF0346FB8046F60403C4F20003FA8817
:4011C0001A8007F10C07BD4680BC704780B400AF46F60403C4F200031B8846F68403C4F200031B889BB21846BD4680BC704700BF80B500AF01E0FFF7CDFFFFF7AFFF0346DF
:4012000003F00803002BF6D180BD00BF80B485B000AF0346FB7145F2F013C4F200031B78DBB223F00403FB7345F2F013C4F20003FA794FEA8202D2B202F00402D1B2FA7BC3
:401240000A43D2B21A7007F11407BD4680BC704780B485B000AF0346FB7145F2F013C4F200031B78DBB223F00803FB7345F2F013C4F20003FA794FEAC202D2B202F00802BB
:40128000D1B2FA7B0A43D2B21A7007F11407BD4680BC704780B500AF48F23313C1F6FF731B78002B08D100F00BF848F23313C1F6FF734FF001021A7000F064F880BD00BFFE
:4012C00080B582B000AF46F27943C4F200031B78DBB223F03F03FB7146F27943C4F20003FA7942F00902D2B21A7046F29843C4F2000346F29842C4F200021278D2B242F009
:401300000102D2B21A7046F29943C4F2000346F29942C4F200021278D2B242F00102D2B21A7044F61F6000F041F844F61F6000F05BF840F2DC5000F067F840F2DC5000F0DA
:4013400073F84FF0040000F07FF8FFF7A7FD0346BB7146F29843C4F2000346F29842C4F200021278D2B242F01002D2B21A70BB791846FFF797FD00F029F807F10807BD461C
:4013800080BD00BF80B400AF46F27943C4F2000346F27942C4F200021278D2B262F07F02D2B21A70BD4680BC704700BF80B483B000AF0346FB8046F61003C4F20003FA88EE
:4013C0001A8007F10C07BD4680BC704780B500AF01E000F059F800F047F8034603F01003002BF6D180BD00BF80B483B000AF0346FB8046F69003C4F20003FA881A8007F16A
:401400000C07BD4680BC704780B483B000AF0346FB8046F65003C4F20003FA881A8007F10C07BD4680BC704780B483B000AF0346FB8046F67003C4F20003FA881A8007F10E
:401440000C07BD4680BC704780B483B000AF0346FB7146F28843C4F20003FA791A7007F10C07BD4680BC704780B483B000AF46F26843C4F200031B78FB71FB79184607F163
:401480000C07BD4680BC704780B400AF46F6B003C4F200031B889BB21846BD4680BC704780B400AF46F65003C4F200031B889BB21846BD4680BC704780B400AF46F6700353
:4014C000C4F200031B889BB21846BD4680BC704780B582B000AF786000F042F8786800F00BF84FF0070000F01BF800F02DF807F10807BD4680BD00BF80B485B000AF7860B0
:401500004EF60853CEF200031B68FB60FB6803F140037A681A6007F11407BD4680BC704780B483B000AF0346FB714FF46443CEF20003FA794FEA4212D2B21A7007F10C07DB
:40154000BD4680BC704700BF80B400AF4FF46143CEF200034FF001021A60BD4680BC704780B400AF4EF28013CEF200034FF001021A60BD4680BC704780B400AF46F2694385
:40158000C4F200031B78DBB21846BD4680BC704780B400AF46F26243C4F200031B78DBB21846BD4680BC704780B485B000AF0346FB714FF4A243C4F200031B78DBB223F030
:4015C0000403FB734FF4A243C4F20003FA794FEA8202D2B202F00402D1B2FA7B0A43D2B21A7007F11407BD4680BC704780B485B000AF0346FB7145F23013C4F200031B78FA
:40160000DBB203F07F03FB7345F23013C4F20003FA794FEAC212D1B2FA7B0A43D2B21A7007F11407BD4680BC704700BF80B483B000AF0346FB7146F27643C4F20003FA7984
:401640001A7007F10C07BD4680BC704780B400AF46F27643C4F200031B78DBB21846BD4680BC704780B485B000AF0346FB7145F2C013C4F200031B78DBB223F00803FB73A2
:4016800045F2C013C4F20003FA794FEAC202D2B202F00802D1B2FA7B0A43D2B21A7007F11407BD4680BC704781F0004102E000BF83F0004330B54FEA41044FEA430594EAB0
:4016C000050F08BF90EA020F1FBF54EA000C55EA020C7FEA645C7FEA655C00F0E2804FEA5454D4EB5555B8BF6D420CDD2C4480EA020281EA030382EA000083EA010180EA7D
:40170000020281EA0303362D88BF30BD11F0004F4FEA01314FF4801C4CEA113102D0404261EB410113F0004F4FEA03334CEA133302D0524263EB430394EA050F00F0A780C9
:40174000A4F10104D5F1200E0DDB02FA0EFC22FA05F2801841F1000103FA0EF2801843FA05F359410EE0A5F120050EF1200E012A03FA0EFC28BF4CF0020C43FA05F3C01865
:4017800051EBE37101F0004507D54FF0000EDCF1000C7EEB00006EEB0101B1F5801F1BD3B1F5001F0CD349085FEA30004FEA3C0C04F101044FEA445212F5800F80F09A8092
:4017C000BCF1004F08BF5FEA500C50F1000041EB045141EA050130BD5FEA4C0C404141EB010111F4801FA4F10104E9D191F0000F04BF01460020B1FA81F308BF2033A3F1D2
:401800000B03B3F120020CDA0C3208DD02F1140CC2F10C0201FA0CF021FA02F10CE002F11402D8BFC2F1200C01FA02F120FA0CFCDCBF41EA0C019040E41AA2BF01EB045134
:40184000294330BD6FEA04041F3C1CDA0C340EDC04F11404C4F1200220FA04F001FA02F340EA030021FA04F345EA030130BDC4F10C04C4F1200220FA02F001FA04F340EA2E
:401880000300294630BD21FA04F0294630BD94F0000F83F4801306BF81F480110134013D4EE77FEA645C18BF7FEA655C29D094EA050F08BF90EA020F05D054EA000C04BF65
:4018C0001946104630BD91EA030F1EBF0021002030BD5FEA545C05D14000494128BF41F0004130BD14F580043CBF01F5801130BD01F0004545F0FE4141F470014FF0000044
:4019000030BD7FEA645C1ABF194610467FEA655C1CBF0B46024650EA013406BF52EA033591EA030F41F4002130BD00BF90F0000F04BF0021704730B54FF4806404F13204CD
:401940004FF000054FF0000150E700BF90F0000F04BF0021704730B54FF4806404F1320410F0004548BF40424FF000013EE700BF42004FEAE2014FEA31014FEA02701FBF48
:4019800012F07F4393F07F4F81F06051704792F0000F14BF93F07F4F704730B54FF4607401F0004521F0004120E700BF50EA010208BF704730B54FF000050AE050EA010278
:4019C00008BF704730B511F0004502D5404261EB41014FF4806404F132045FEA915C3FF4DCAE4FF003025FEADC0C18BF03325FEADC0C18BF033202EBDC02C2F1200300FAB9
:401A000003FC20FA02F001FA03FE40EA0E0021FA02F11444C1E600BF70B54FF0FF0C4CF4E06C1CEA11541DBF1CEA135594EA0C0F95EA0C0F00F0DEF82C4481EA030621EA03
:401A40004C5123EA4C5350EA013518BF52EA033541F4801143F4801338D0A0FB02CE4FF00005E1FB02E506F00042E0FB03E54FF00006E1FB03569CF0000F18BF4EF0010E24
:401A8000A4F1FF04B6F5007F64F5407404D25FEA4E0E6D4146EB060642EAC62141EA55514FEAC52040EA5E504FEACE2EB4F1FD0C88BFBCF5E06F1ED8BEF1004F08BF5FEAE9
:401AC000500E50F1000041EB045170BD06F0004646EA010140EA020081EA0301B4EB5C04C2BFD4EB0C0541EA045170BD41F480114FF0000E013C00F3AB8014F1360FDEBF3E
:401B0000002001F0004170BDC4F10004203C35DA0C341BDC04F11404C4F1200500FA05F320FA04F001FA05F240EA020001F0004221F0004110EBD37021FA04F642EB0601BA
:401B40005EEA430E08BF20EAD37070BDC4F10C04C4F1200500FA04F320FA05F001FA04F240EA020001F0004110EBD37041F100015EEA430E08BF20EAD37070BDC4F1200578
:401B800000FA05F24EEA020E20FA04F301FA05F243EA020321FA04F001F0004121FA04F220EA020000EBD3705EEA430E08BF20EAD37070BD94F0000F0FD101F00046400067
:401BC00041EB010111F4801F08BF013CF7D041EA060195F0000F18BF704703F00046520043EB030313F4801F08BF013DF7D043EA0603704794EA0C0F0CEA135518BF95EA89
:401C00000C0F0CD050EA410618BF52EA4306D1D181EA030101F000414FF0000070BD50EA410606BF1046194652EA430619D094EA0C0F02D150EA013613D195EA0C0F05D187
:401C400052EA03361CBF104619460AD181EA030101F0004141F0FE4141F470014FF0000070BD41F0FE4141F4780170BD70B54FF0FF0C4CF4E06C1CEA11541DBF1CEA135566
:401C800094EA0C0F95EA0C0F00F0A7F8A4EB050481EA030E52EA03354FEA013100F088804FEA03334FF0805545EA131343EA12634FEA022245EA111545EA10654FEA002648
:401CC0000EF000419D4208BF964244F1FD0404F5407402D25B084FEA3202B61A65EB03055B084FEA32024FF480104FF4002CB6EB020E75EB030E22BFB61A754640EA0C00A2
:401D00005B084FEA3202B6EB020E75EB030E22BFB61A754640EA5C005B084FEA3202B6EB020E75EB030E22BFB61A754640EA9C005B084FEA3202B6EB020E75EB030E22BFC8
:401D4000B61A754640EADC0055EA060E18D04FEA051545EA16754FEA06164FEAC30343EA52734FEAC2025FEA1C1CC0D111F4801F0BD141EA00014FF000004FF0004CB6E722
:401D800011F4801F04BF01430020B4F1FD0C88BFBCF5E06F3FF6AFAEB5EB030C04BFB6EB020C5FEA500C50F1000041EB045170BD0EF0004E4EEA113114EB5C04C2BFD4EBB7
:401DC0000C0541EA045170BD41F480114FF0000E013C90E645EA060E8DE60CEA135594EA0C0F08BF95EA0C0F3FF43BAF94EA0C0F0AD150EA01347FF434AF95EA0C0F7FF4EE
:401E000025AF104619462CE795EA0C0F06D152EA03353FF4FDAE1046194622E750EA410618BF52EA43067FF4C5AE50EA41047FF40DAF52EA43057FF4EBAE12E74A0011D25E
:401E400012F5001211D20DD56FF47873B3EB62520ED44FEAC12343F0004343EA505323FA02F070474FF00000704750EA013002D14FF0FF3070474FF00000704738B50E4D42
:401E80000E4B0024E81A8510AC4205D00B4951F8242090470134F7E700F040F80849094A541AA5100024AC4205D0054B53F8240080470134F7E738BD281F0000281F00008E
:401EC000281F0000301F000010B50023934203D0CC5CC4540133F9E710BD82180346934202D003F8011BFAE77047000000000000105100401000405100403000000001406F
:401F0000001000140140000800400140000A004C014000020050014020000000F8B500BFF8BC08BC9E4670475100000079090000F8B500BFF8BC08BC9E4670472D0000006B
:401F4000501F00000881FF1F080000004000000000000000000000000000000000000000000000000000000000000000000000000000000000000000000000000000000003
:401F80000000000000000000000000000000000000000000000000000000000000000000000000000000000000000000000000000000000000000000000000000000000021
:401FC00000000000000000000000000000000000000000000000000000000000000000000000000000000000000000000000000000000000000000000000000000000000E1
:4020000000000000000000000000000000000000000000000000000000000000000000000000000000000000000000000000000000000000000000000000000000000000A0
:402040000000000000000000000000000000000000000000000000000000000000000000000000000000000000000000000000000000000000000000000000000000000060
:020000040003F7
:0200000480007A
:400000000652004002640040036500405D020140360301401105014063060140430701404A0801402E090140050B0140020D01405014014047150140451601404D17014005
:4000400003190140034001400A4101400B420140024301400545014004460140034701400B4801400F4901400650014001510140000804F1140F180C19481C10830D882FEF
:4000800085728638870F020C0430070108100C0F0D010E3010081280143C1602183C1A011B011C20204422882501260328042A402C3F323F330136C039083A08404549FF0A
:4000C0004AFF4BFF4F015018580459045A045B045C225D025F016040624064406540668068806A806C806E80850687018B018D018F06950799079D04A201A506A902AE019E
:40010000B001B107BA20BE01C045C5ECC720C823C9FFCAFFCBFFCD83CE03CF01D018D401D804D904DA04DB04DC22DD22DF01E040E240E440E540E680E880EA80EC80EE803C
:40014000048105280C800E200F84100211021401151016201701180819101A401C011D081E202101260429282C2030A031183610388039403A203B043D403F0442804501D6
:400180004680480249054E025002520259055A405C885D025F108D02C0F0C2F0C4F9CA46CC2ECE5ED081D218D6FBE04090089112948097049D289EA09F01A214A480A740E3
:4001C000A808AC21AD10AF10B080E608E8200201060609020A080F051106120417031A082002220427072A02320834073607370738023B803E54405341064204440246C0B2
:40020000470E481849FF4AFF4BFF4C624DA04EF04F41500C580459045A045B045C215D025F016640670269106A306B106D106E106F12850387048A038B0E8C1C8E0290207D
:400240009109940996109A109C40A00CA211A414A903AB04AC10AD03AE0CAF0CB020B10FB21FB440BB02BE11C054C102C5EBC70CC813C9FFCAFFCBFFCEF0CF44D00CD28058
:40028000D804D904DA04DB04DC22DD22DF01E6C0EA40EB020202030805040608074009100BA20E080F80102011401280151017011A481B081D201E011F052080268028088B
:4002C00029802F10320234083602388039083B603CA03D6040084240448045204620482049814C044F405104560857106F017280848085018A0490089112948097049D28B4
:400300009EA09F01A214A480A740C073C25FC45DCA4CCCC1CE36D0E5D2380004070212011A021B01200226042F02300231013204340135024020410649FF4AFF4BFF4DA0F9
:400340004F04501854275604580459045A045B045C115D115F01604062C06440654066C068C06AC06CC06EC087019201A601B001B101C020C106C5D1C650C702C81BC9FF73
:40038000CAFFCBFFCDAFCE0FCF04D018D280D804D904DA04DB04DC11DD11DF01E040E2C0E440E540E6C0E8C0EAC0ECC0EEC007400A400E400F041210150216101A801D208E
:4003C0001EA0210127442E4036203B043F04412045204A0C4B054E085238584859025B205EA85F016602670872408B048F20984899029E02C010C258C434CA10CC20CE42AA
:40040000D024D224D6FFD8A0E080860298489902B040B4088502E60804060504090E0A010C010D020E060F0C1406150C16011807190C1B021C011D0820042402250C2702E8
:4004400028072B022D0130073301350E3A023B20400645054601480549FF4A074BFF4C404D204EF04F055008580459045A045C225D025F01604061A8624063208402850393
:40048000870489038B088C028F02910193029402970398029F0CA401A801AB01AC01B10FB201B402BB02BE10D602D712D804D904DB04DC22DD20DF01004001080308048C64
:4004C000061007200A010B140E200F2410A013201540171418C01E081F082128230427402A402B182D10308831203504374138803A143D083E103F8042204308481049107B
:40050000524053405E086C106D486E106F1474A8752876048340900891109201931094A4978499149B019D289E209F44A210A490A508A748AF20C0A7C267C4EECA2ECCDE62
:40054000CE7ED204D640081E09080C0B0D020E140F0410101108120413021620180119011D021F0C22202301241E270E28082A022C062E183001310E321E330134203B0264
:400580003E113F0454185604580459045B045C225D205F01840487028A048C0390049302960298049B029D02A003A101A604AA04AC01AD02B301B403B604B702B820BE102C
:4005C000BF44D401D804D904DB04DC02DD20DF0100840180030804200602070109280A200B600C100FA012821314140215121704180119101D041F222244260227202981C5
:400600002E022F1032923410368239083CA040204104582059015A885C015E205F106440670A800281048321844087029008911A92019348948097A4981099019B019DAC97
:400640009E209F40A040A120A290A310A490A602A740AC18AE80AF08C0C7C27EC4FFCAC9CCBDCE32D68FD8B0EE11AA40B704EE1031403610CC3003800A210F4854108F0407
:400680009D40A610C010C2F0D44085409D40A410A610AA10AE01AF80B340E610E810EC30A410A6100384040205408780C00F9B04B140B401EA038F049B04E60884108610E2
:4006C0009920A020A410A610A920B420E210E610EE800A4054205D206304824093049920A020AF04C210D440D620D840E020EA40000608040A060C0210041A04000F00006E
:40070000F80001FE0600080000000000000C0C0004000000000C0C00000000000F00000F0000000000000000440010ECA8004C00000000000000000000000000000000002E
:400740000000000000000000000000000000000000000000000000000000000000000000000000000000000000000000000000000000000000000000000000000000000079
:400780000000000000000000000000000000000000000000000000000000000000000000000000000000000000000000000000000000000000000000000000000000000039
:4007C00000000000000000000000000000000000000000000000000000000000000000000000000000000000000000000000000000000000000000000000000000000000F9
:4008000000000000000000000000000000000000000000000000000000000000000000000000000000000000000000000000000000000000000000000000000000000000B8
:0200000490006A
:0400000000004007B5
:0200000490105A
:04000000BC90ACAF55
:0200000490303A
:02000000C93302
:0200000490402A
:4000000000000000000000000000000000000000000000000000000000000000000000000000000000000000000000000000000000000000000000000000000000000000C0
:400040000000000000000000000000000000000000000000000000000000000000000000000000000000000000000000000000000000000000000000000000000000000080
:400080000000000000000000000000000000000000000000000000000000000000000000000000000000000000000000000000000000000000000000000000000000000040
:4000C0000000000000000000000000000000000000000000000000000000000000000000000000000000000000000000000000000000000000000000000000000000000000
:0200000490501A
:0C00000000012E11E06900012E21A99CD6
:00000001FF