ARM GAS  C:\Users\Kenichi\AppData\Local\Temp\cc7blFiL.s 			page 1


   1              		.syntax unified
   2              		.cpu cortex-m3
   3              		.fpu softvfp
   4              		.eabi_attribute 20, 1
   5              		.eabi_attribute 21, 1
   6              		.eabi_attribute 23, 3
   7              		.eabi_attribute 24, 1
   8              		.eabi_attribute 25, 1
   9              		.eabi_attribute 26, 1
  10              		.eabi_attribute 30, 6
  11              		.eabi_attribute 34, 1
  12              		.eabi_attribute 18, 4
  13              		.thumb
  14              		.file	"main.c"
  15              		.text
  16              	.Ltext0:
  17              		.cfi_sections	.debug_frame
  18              		.comm	aileronL,4,4
  19              		.comm	aileronL_buffer,4,4
  20              		.comm	aileronL_before,4,4
  21              		.comm	pak,6,4
  22              		.section	.text.main,"ax",%progbits
  23              		.align	2
  24              		.global	main
  25              		.thumb
  26              		.thumb_func
  27              		.type	main, %function
  28              	main:
  29              	.LFB56:
  30              		.file 1 ".\\main.c"
   1:.\main.c      **** /* ========================================
   2:.\main.c      ****  * aileronL14 version 1.0 2014/4/25
   3:.\main.c      ****  * 1...right 2...left
   4:.\main.c      ****  *
   5:.\main.c      ****  * 元ファイルです
   6:.\main.c      ****  * ========================================
   7:.\main.c      **** */
   8:.\main.c      **** #include <project.h>
   9:.\main.c      **** 
  10:.\main.c      **** #define WRITE()		DE_Write(1)
  11:.\main.c      **** #define	READ()		DE_Write(0)
  12:.\main.c      **** 
  13:.\main.c      **** #define	RS485_PACKET_LENGTH	(6)
  14:.\main.c      **** 
  15:.\main.c      **** typedef union _tagRS485_PACKET {
  16:.\main.c      **** 	struct {
  17:.\main.c      **** 		unsigned char bStatus;
  18:.\main.c      **** 		unsigned char bCheckSum;
  19:.\main.c      **** 		unsigned short wData[2];
  20:.\main.c      **** 	} _pak;
  21:.\main.c      **** 	unsigned char _byte[RS485_PACKET_LENGTH];
  22:.\main.c      **** } PACKET;
  23:.\main.c      **** 
  24:.\main.c      **** void rs485_Start(void);
  25:.\main.c      **** void rs485_isr(void);
  26:.\main.c      **** char rs485_CheckPacket(char, PACKET*);
  27:.\main.c      **** char CheckValid(PACKET *);
ARM GAS  C:\Users\Kenichi\AppData\Local\Temp\cc7blFiL.s 			page 2


  28:.\main.c      **** void Servo_Start(void);
  29:.\main.c      **** void Terminal_Count_ISR(void);
  30:.\main.c      **** unsigned int FormatValueAilL(unsigned short);
  31:.\main.c      **** int CenterStatus(void);
  32:.\main.c      **** 
  33:.\main.c      **** #define	PACKET_ENDIANCHANGE(x)	{\
  34:.\main.c      **** 	char temp; \
  35:.\main.c      **** 	temp = x->_byte[2]; \
  36:.\main.c      **** 	x->_byte[2] = x->_byte[3]; \
  37:.\main.c      **** 	x->_byte[3] = temp; \
  38:.\main.c      **** 	temp = x->_byte[4]; \
  39:.\main.c      **** 	x->_byte[4] = x->_byte[5]; \
  40:.\main.c      **** 	x->_byte[5] = temp; \
  41:.\main.c      **** 	}
  42:.\main.c      **** 
  43:.\main.c      **** //Global variable here.
  44:.\main.c      **** 
  45:.\main.c      **** unsigned int aileronL,aileronL_buffer,aileronL_before;
  46:.\main.c      **** PACKET pak;
  47:.\main.c      **** 
  48:.\main.c      **** void main(){ 
  31              		.loc 1 48 0
  32              		.cfi_startproc
  33              		@ args = 0, pretend = 0, frame = 0
  34              		@ frame_needed = 1, uses_anonymous_args = 0
  35 0000 80B5     		push	{r7, lr}
  36              	.LCFI0:
  37              		.cfi_def_cfa_offset 8
  38              		.cfi_offset 7, -8
  39              		.cfi_offset 14, -4
  40 0002 00AF     		add	r7, sp, #0
  41              	.LCFI1:
  42              		.cfi_def_cfa_register 7
  49:.\main.c      ****     rs485_Start();   
  43              		.loc 1 49 0
  44 0004 FFF7FEFF 		bl	rs485_Start
  50:.\main.c      ****     Servo_Start();
  45              		.loc 1 50 0
  46 0008 FFF7FEFF 		bl	Servo_Start
  51:.\main.c      ****     CyGlobalIntEnable;  // Uncomment this line to enable global interrupts. 
  47              		.loc 1 51 0
  48              	@ 51 ".\main.c" 1
  49 000c 62B6     		CPSIE   i
  50              	@ 0 "" 2
  51              		.thumb
  52              	.L5:
  52:.\main.c      **** 	while(1) {
  53:.\main.c      **** 		if(rs485_CheckPacket(0x63, &pak)==0) {
  53              		.loc 1 53 0
  54 000e 4FF06300 		mov	r0, #99
  55 0012 40F20001 		movw	r1, #:lower16:pak
  56 0016 C0F20001 		movt	r1, #:upper16:pak
  57 001a FFF7FEFF 		bl	rs485_CheckPacket
  58 001e 0346     		mov	r3, r0
  59 0020 002B     		cmp	r3, #0
  60 0022 2DD1     		bne	.L2
  54:.\main.c      ****             LED_2_Write(1);
ARM GAS  C:\Users\Kenichi\AppData\Local\Temp\cc7blFiL.s 			page 3


  61              		.loc 1 54 0
  62 0024 4FF00100 		mov	r0, #1
  63 0028 FFF7FEFF 		bl	LED_2_Write
  55:.\main.c      ****             LED_1_Write(0);
  64              		.loc 1 55 0
  65 002c 4FF00000 		mov	r0, #0
  66 0030 FFF7FEFF 		bl	LED_1_Write
  56:.\main.c      ****             if(CheckValid(&pak)==1) {
  67              		.loc 1 56 0
  68 0034 40F20000 		movw	r0, #:lower16:pak
  69 0038 C0F20000 		movt	r0, #:upper16:pak
  70 003c FFF7FEFF 		bl	CheckValid
  71 0040 0346     		mov	r3, r0
  72 0042 012B     		cmp	r3, #1
  73 0044 13D1     		bne	.L3
  57:.\main.c      ****                 aileronL_buffer = pak._pak.wData[0];
  74              		.loc 1 57 0
  75 0046 40F20003 		movw	r3, #:lower16:pak
  76 004a C0F20003 		movt	r3, #:upper16:pak
  77 004e 5B88     		ldrh	r3, [r3, #2]
  78 0050 1A46     		mov	r2, r3
  79 0052 40F20003 		movw	r3, #:lower16:aileronL_buffer
  80 0056 C0F20003 		movt	r3, #:upper16:aileronL_buffer
  81 005a 1A60     		str	r2, [r3, #0]
  58:.\main.c      ****                 LED_2_Write(0);
  82              		.loc 1 58 0
  83 005c 4FF00000 		mov	r0, #0
  84 0060 FFF7FEFF 		bl	LED_2_Write
  59:.\main.c      ****                 LED_1_Write(0);
  85              		.loc 1 59 0
  86 0064 4FF00000 		mov	r0, #0
  87 0068 FFF7FEFF 		bl	LED_1_Write
  60:.\main.c      ****             } else {
  61:.\main.c      ****                 LED_2_Write(1);
  62:.\main.c      ****                 LED_1_Write(1);
  63:.\main.c      ****             }
  64:.\main.c      ****         } else {
  65:.\main.c      ****             LED_2_Write(1);
  66:.\main.c      ****             LED_1_Write(1);
  67:.\main.c      ****         } 
  68:.\main.c      **** 	}
  88              		.loc 1 68 0
  89 006c CFE7     		b	.L5
  90              	.L3:
  61:.\main.c      ****                 LED_2_Write(1);
  91              		.loc 1 61 0
  92 006e 4FF00100 		mov	r0, #1
  93 0072 FFF7FEFF 		bl	LED_2_Write
  62:.\main.c      ****                 LED_1_Write(1);
  94              		.loc 1 62 0
  95 0076 4FF00100 		mov	r0, #1
  96 007a FFF7FEFF 		bl	LED_1_Write
  97              		.loc 1 68 0
  98 007e C6E7     		b	.L5
  99              	.L2:
  65:.\main.c      ****             LED_2_Write(1);
 100              		.loc 1 65 0
ARM GAS  C:\Users\Kenichi\AppData\Local\Temp\cc7blFiL.s 			page 4


 101 0080 4FF00100 		mov	r0, #1
 102 0084 FFF7FEFF 		bl	LED_2_Write
  66:.\main.c      ****             LED_1_Write(1);
 103              		.loc 1 66 0
 104 0088 4FF00100 		mov	r0, #1
 105 008c FFF7FEFF 		bl	LED_1_Write
 106              		.loc 1 68 0
 107 0090 BDE7     		b	.L5
 108              		.cfi_endproc
 109              	.LFE56:
 110              		.size	main, .-main
 111 0092 00BF     		.section	.text.Timer_Set,"ax",%progbits
 112              		.align	2
 113              		.global	Timer_Set
 114              		.thumb
 115              		.thumb_func
 116              		.type	Timer_Set, %function
 117              	Timer_Set:
 118              	.LFB57:
  69:.\main.c      ****     return;
  70:.\main.c      **** }
  71:.\main.c      **** 
  72:.\main.c      **** void Timer_Set(unsigned int ms){
 119              		.loc 1 72 0
 120              		.cfi_startproc
 121              		@ args = 0, pretend = 0, frame = 8
 122              		@ frame_needed = 1, uses_anonymous_args = 0
 123 0000 80B5     		push	{r7, lr}
 124              	.LCFI2:
 125              		.cfi_def_cfa_offset 8
 126              		.cfi_offset 7, -8
 127              		.cfi_offset 14, -4
 128 0002 82B0     		sub	sp, sp, #8
 129              	.LCFI3:
 130              		.cfi_def_cfa_offset 16
 131 0004 00AF     		add	r7, sp, #0
 132              	.LCFI4:
 133              		.cfi_def_cfa_register 7
 134 0006 7860     		str	r0, [r7, #4]
  73:.\main.c      **** 	Timer_WriteCounter(ms);
 135              		.loc 1 73 0
 136 0008 7B68     		ldr	r3, [r7, #4]
 137 000a 9BB2     		uxth	r3, r3
 138 000c 1846     		mov	r0, r3
 139 000e FFF7FEFF 		bl	Timer_WriteCounter
  74:.\main.c      **** 	return;
 140              		.loc 1 74 0
 141 0012 00BF     		nop
  75:.\main.c      **** }
 142              		.loc 1 75 0
 143 0014 07F10807 		add	r7, r7, #8
 144 0018 BD46     		mov	sp, r7
 145 001a 80BD     		pop	{r7, pc}
 146              		.cfi_endproc
 147              	.LFE57:
 148              		.size	Timer_Set, .-Timer_Set
 149              		.section	.text.Timer_Delayus,"ax",%progbits
ARM GAS  C:\Users\Kenichi\AppData\Local\Temp\cc7blFiL.s 			page 5


 150              		.align	2
 151              		.global	Timer_Delayus
 152              		.thumb
 153              		.thumb_func
 154              		.type	Timer_Delayus, %function
 155              	Timer_Delayus:
 156              	.LFB58:
  76:.\main.c      **** 
  77:.\main.c      **** void Timer_Delayus(unsigned int us){
 157              		.loc 1 77 0
 158              		.cfi_startproc
 159              		@ args = 0, pretend = 0, frame = 8
 160              		@ frame_needed = 1, uses_anonymous_args = 0
 161 0000 80B5     		push	{r7, lr}
 162              	.LCFI5:
 163              		.cfi_def_cfa_offset 8
 164              		.cfi_offset 7, -8
 165              		.cfi_offset 14, -4
 166 0002 82B0     		sub	sp, sp, #8
 167              	.LCFI6:
 168              		.cfi_def_cfa_offset 16
 169 0004 00AF     		add	r7, sp, #0
 170              	.LCFI7:
 171              		.cfi_def_cfa_register 7
 172 0006 7860     		str	r0, [r7, #4]
  78:.\main.c      **** 	Timer_Set(us + 50);
 173              		.loc 1 78 0
 174 0008 7B68     		ldr	r3, [r7, #4]
 175 000a 03F13203 		add	r3, r3, #50
 176 000e 1846     		mov	r0, r3
 177 0010 FFF7FEFF 		bl	Timer_Set
  79:.\main.c      **** 	while(Timer_ReadCounter() > 50) {}
 178              		.loc 1 79 0
 179 0014 00BF     		nop
 180              	.L9:
 181              		.loc 1 79 0 is_stmt 0 discriminator 1
 182 0016 FFF7FEFF 		bl	Timer_ReadCounter
 183 001a 0346     		mov	r3, r0
 184 001c 322B     		cmp	r3, #50
 185 001e FAD8     		bhi	.L9
  80:.\main.c      **** 	return;
 186              		.loc 1 80 0 is_stmt 1
 187 0020 00BF     		nop
  81:.\main.c      **** }
 188              		.loc 1 81 0
 189 0022 07F10807 		add	r7, r7, #8
 190 0026 BD46     		mov	sp, r7
 191 0028 80BD     		pop	{r7, pc}
 192              		.cfi_endproc
 193              	.LFE58:
 194              		.size	Timer_Delayus, .-Timer_Delayus
 195 002a 00BF     		.section	.text.rs485_Start,"ax",%progbits
 196              		.align	2
 197              		.global	rs485_Start
 198              		.thumb
 199              		.thumb_func
 200              		.type	rs485_Start, %function
ARM GAS  C:\Users\Kenichi\AppData\Local\Temp\cc7blFiL.s 			page 6


 201              	rs485_Start:
 202              	.LFB59:
  82:.\main.c      **** 
  83:.\main.c      **** void rs485_Start(void){
 203              		.loc 1 83 0
 204              		.cfi_startproc
 205              		@ args = 0, pretend = 0, frame = 0
 206              		@ frame_needed = 1, uses_anonymous_args = 0
 207 0000 80B5     		push	{r7, lr}
 208              	.LCFI8:
 209              		.cfi_def_cfa_offset 8
 210              		.cfi_offset 7, -8
 211              		.cfi_offset 14, -4
 212 0002 00AF     		add	r7, sp, #0
 213              	.LCFI9:
 214              		.cfi_def_cfa_register 7
  84:.\main.c      **** 	UART_Start();
 215              		.loc 1 84 0
 216 0004 FFF7FEFF 		bl	UART_Start
  85:.\main.c      **** 	Timer_Start();
 217              		.loc 1 85 0
 218 0008 FFF7FEFF 		bl	Timer_Start
  86:.\main.c      **** 	return;
 219              		.loc 1 86 0
 220 000c 00BF     		nop
  87:.\main.c      **** }
 221              		.loc 1 87 0
 222 000e 80BD     		pop	{r7, pc}
 223              		.cfi_endproc
 224              	.LFE59:
 225              		.size	rs485_Start, .-rs485_Start
 226              		.section	.text.rs485_CheckPacket,"ax",%progbits
 227              		.align	2
 228              		.global	rs485_CheckPacket
 229              		.thumb
 230              		.thumb_func
 231              		.type	rs485_CheckPacket, %function
 232              	rs485_CheckPacket:
 233              	.LFB60:
  88:.\main.c      **** 
  89:.\main.c      **** /*
  90:.\main.c      ****  * rs485_CheckPacket
  91:.\main.c      ****  * 複数アドレス対応版 ビット3-6が一致で応答
  92:.\main.c      ****  * addr : device address (7bit unsigned)
  93:.\main.c      ****  * pak : pointer to PACKET structure
  94:.\main.c      ****  */
  95:.\main.c      **** char rs485_CheckPacket(
  96:.\main.c      **** 	char addr,
  97:.\main.c      **** 	PACKET *pak)
  98:.\main.c      **** {
 234              		.loc 1 98 0
 235              		.cfi_startproc
 236              		@ args = 0, pretend = 0, frame = 16
 237              		@ frame_needed = 1, uses_anonymous_args = 0
 238 0000 90B5     		push	{r4, r7, lr}
 239              	.LCFI10:
 240              		.cfi_def_cfa_offset 12
ARM GAS  C:\Users\Kenichi\AppData\Local\Temp\cc7blFiL.s 			page 7


 241              		.cfi_offset 4, -12
 242              		.cfi_offset 7, -8
 243              		.cfi_offset 14, -4
 244 0002 85B0     		sub	sp, sp, #20
 245              	.LCFI11:
 246              		.cfi_def_cfa_offset 32
 247 0004 00AF     		add	r7, sp, #0
 248              	.LCFI12:
 249              		.cfi_def_cfa_register 7
 250 0006 0346     		mov	r3, r0
 251 0008 3960     		str	r1, [r7, #0]
 252 000a FB71     		strb	r3, [r7, #7]
  99:.\main.c      **** 	char rcv;
 100:.\main.c      **** 	unsigned char i;
 101:.\main.c      **** 	
 102:.\main.c      **** 	if((UART_ReadRxStatus() & UART_RX_STS_FIFO_NOTEMPTY) == 0)
 253              		.loc 1 102 0
 254 000c FFF7FEFF 		bl	UART_ReadRxStatus
 255 0010 0346     		mov	r3, r0
 256 0012 03F02003 		and	r3, r3, #32
 257 0016 002B     		cmp	r3, #0
 258 0018 0AD1     		bne	.L14
 103:.\main.c      **** 	{
 104:.\main.c      ****         LED_1_Write(1);
 259              		.loc 1 104 0
 260 001a 4FF00100 		mov	r0, #1
 261 001e FFF7FEFF 		bl	LED_1_Write
 105:.\main.c      **** 		READ();
 262              		.loc 1 105 0
 263 0022 4FF00000 		mov	r0, #0
 264 0026 FFF7FEFF 		bl	DE_Write
 106:.\main.c      **** 		return 1;
 265              		.loc 1 106 0
 266 002a 4FF00103 		mov	r3, #1
 267 002e BCE0     		b	.L15
 268              	.L14:
 107:.\main.c      **** 	}
 108:.\main.c      **** 	LED_1_Write(1);
 269              		.loc 1 108 0
 270 0030 4FF00100 		mov	r0, #1
 271 0034 FFF7FEFF 		bl	LED_1_Write
 109:.\main.c      **** 	rcv = UART_ReadRxData();
 272              		.loc 1 109 0
 273 0038 FFF7FEFF 		bl	UART_ReadRxData
 274 003c 0346     		mov	r3, r0
 275 003e BB73     		strb	r3, [r7, #14]
 110:.\main.c      **** 	UART_ClearRxBuffer();
 276              		.loc 1 110 0
 277 0040 FFF7FEFF 		bl	UART_ClearRxBuffer
 111:.\main.c      **** 	if(addr != (rcv & 0x7f)){
 278              		.loc 1 111 0
 279 0044 FA79     		ldrb	r2, [r7, #7]	@ zero_extendqisi2
 280 0046 BB7B     		ldrb	r3, [r7, #14]	@ zero_extendqisi2
 281 0048 03F07F03 		and	r3, r3, #127
 282 004c 9A42     		cmp	r2, r3
 283 004e 22D0     		beq	.L16
 112:.\main.c      **** 		Timer_Set(200);
ARM GAS  C:\Users\Kenichi\AppData\Local\Temp\cc7blFiL.s 			page 8


 284              		.loc 1 112 0
 285 0050 4FF0C800 		mov	r0, #200
 286 0054 FFF7FEFF 		bl	Timer_Set
 113:.\main.c      **** 		READ();
 287              		.loc 1 113 0
 288 0058 4FF00000 		mov	r0, #0
 289 005c FFF7FEFF 		bl	DE_Write
 114:.\main.c      **** 		while(Timer_ReadCounter() > 49){
 290              		.loc 1 114 0
 291 0060 0FE0     		b	.L17
 292              	.L18:
 115:.\main.c      **** 			if((UART_ReadRxStatus() & UART_RX_STS_FIFO_NOTEMPTY) != 0){
 293              		.loc 1 115 0
 294 0062 FFF7FEFF 		bl	UART_ReadRxStatus
 295 0066 0346     		mov	r3, r0
 296 0068 03F02003 		and	r3, r3, #32
 297 006c 002B     		cmp	r3, #0
 298 006e 08D0     		beq	.L17
 116:.\main.c      **** 				Timer_Delayus(900);
 299              		.loc 1 116 0
 300 0070 4FF46170 		mov	r0, #900
 301 0074 FFF7FEFF 		bl	Timer_Delayus
 117:.\main.c      **** 				UART_ClearRxBuffer();
 302              		.loc 1 117 0
 303 0078 FFF7FEFF 		bl	UART_ClearRxBuffer
 118:.\main.c      **** 				return 1;
 304              		.loc 1 118 0
 305 007c 4FF00103 		mov	r3, #1
 306 0080 93E0     		b	.L15
 307              	.L17:
 114:.\main.c      **** 		while(Timer_ReadCounter() > 49){
 308              		.loc 1 114 0 discriminator 1
 309 0082 FFF7FEFF 		bl	Timer_ReadCounter
 310 0086 0346     		mov	r3, r0
 311 0088 312B     		cmp	r3, #49
 312 008a EAD8     		bhi	.L18
 119:.\main.c      **** 			}
 120:.\main.c      **** 		}
 121:.\main.c      **** 		UART_ClearRxBuffer();
 313              		.loc 1 121 0
 314 008c FFF7FEFF 		bl	UART_ClearRxBuffer
 122:.\main.c      **** 		return 1;
 315              		.loc 1 122 0
 316 0090 4FF00103 		mov	r3, #1
 317 0094 89E0     		b	.L15
 318              	.L16:
 123:.\main.c      **** 	}
 124:.\main.c      **** 	
 125:.\main.c      ****     LED_1_Write(0);
 319              		.loc 1 125 0
 320 0096 4FF00000 		mov	r0, #0
 321 009a FFF7FEFF 		bl	LED_1_Write
 126:.\main.c      **** 	WRITE();
 322              		.loc 1 126 0
 323 009e 4FF00100 		mov	r0, #1
 324 00a2 FFF7FEFF 		bl	DE_Write
 127:.\main.c      **** 	UART_PutChar(addr);
ARM GAS  C:\Users\Kenichi\AppData\Local\Temp\cc7blFiL.s 			page 9


 325              		.loc 1 127 0
 326 00a6 FB79     		ldrb	r3, [r7, #7]	@ zero_extendqisi2
 327 00a8 1846     		mov	r0, r3
 328 00aa FFF7FEFF 		bl	UART_PutChar
 128:.\main.c      **** 	while(!(UART_ReadTxStatus() & UART_TX_STS_COMPLETE)) {}
 329              		.loc 1 128 0
 330 00ae 00BF     		nop
 331              	.L19:
 332              		.loc 1 128 0 is_stmt 0 discriminator 1
 333 00b0 FFF7FEFF 		bl	UART_ReadTxStatus
 334 00b4 0346     		mov	r3, r0
 335 00b6 03F00103 		and	r3, r3, #1
 336 00ba 002B     		cmp	r3, #0
 337 00bc F8D0     		beq	.L19
 129:.\main.c      **** 	UART_ClearRxBuffer();
 338              		.loc 1 129 0 is_stmt 1
 339 00be FFF7FEFF 		bl	UART_ClearRxBuffer
 130:.\main.c      **** 	
 131:.\main.c      **** 	if(rcv & 0x80){
 340              		.loc 1 131 0
 341 00c2 BB7B     		ldrb	r3, [r7, #14]	@ zero_extendqisi2
 342 00c4 5BB2     		sxtb	r3, r3
 343 00c6 002B     		cmp	r3, #0
 344 00c8 2FDA     		bge	.L20
 345              	.LBB2:
 132:.\main.c      **** 		// send data to master
 133:.\main.c      **** 		PACKET_ENDIANCHANGE(pak);
 346              		.loc 1 133 0
 347 00ca 3B68     		ldr	r3, [r7, #0]
 348 00cc 9B78     		ldrb	r3, [r3, #2]
 349 00ce 7B73     		strb	r3, [r7, #13]
 350 00d0 3B68     		ldr	r3, [r7, #0]
 351 00d2 DA78     		ldrb	r2, [r3, #3]	@ zero_extendqisi2
 352 00d4 3B68     		ldr	r3, [r7, #0]
 353 00d6 9A70     		strb	r2, [r3, #2]
 354 00d8 3B68     		ldr	r3, [r7, #0]
 355 00da 7A7B     		ldrb	r2, [r7, #13]
 356 00dc DA70     		strb	r2, [r3, #3]
 357 00de 3B68     		ldr	r3, [r7, #0]
 358 00e0 1B79     		ldrb	r3, [r3, #4]
 359 00e2 7B73     		strb	r3, [r7, #13]
 360 00e4 3B68     		ldr	r3, [r7, #0]
 361 00e6 5A79     		ldrb	r2, [r3, #5]	@ zero_extendqisi2
 362 00e8 3B68     		ldr	r3, [r7, #0]
 363 00ea 1A71     		strb	r2, [r3, #4]
 364 00ec 3B68     		ldr	r3, [r7, #0]
 365 00ee 7A7B     		ldrb	r2, [r7, #13]
 366 00f0 5A71     		strb	r2, [r3, #5]
 367              	.LBE2:
 134:.\main.c      **** 		for(i = 0; i < 6; i++){
 368              		.loc 1 134 0
 369 00f2 4FF00003 		mov	r3, #0
 370 00f6 FB73     		strb	r3, [r7, #15]
 371 00f8 13E0     		b	.L21
 372              	.L23:
 135:.\main.c      **** 			UART_PutChar(pak->_byte[i]);
 373              		.loc 1 135 0
ARM GAS  C:\Users\Kenichi\AppData\Local\Temp\cc7blFiL.s 			page 10


 374 00fa FB7B     		ldrb	r3, [r7, #15]	@ zero_extendqisi2
 375 00fc 3A68     		ldr	r2, [r7, #0]
 376 00fe D35C     		ldrb	r3, [r2, r3]	@ zero_extendqisi2
 377 0100 1846     		mov	r0, r3
 378 0102 FFF7FEFF 		bl	UART_PutChar
 136:.\main.c      **** 			while(!(UART_ReadTxStatus() & UART_TX_STS_COMPLETE)) {}
 379              		.loc 1 136 0
 380 0106 00BF     		nop
 381              	.L22:
 382              		.loc 1 136 0 is_stmt 0 discriminator 1
 383 0108 FFF7FEFF 		bl	UART_ReadTxStatus
 384 010c 0346     		mov	r3, r0
 385 010e 03F00103 		and	r3, r3, #1
 386 0112 002B     		cmp	r3, #0
 387 0114 F8D0     		beq	.L22
 137:.\main.c      **** 			UART_ClearRxBuffer();
 388              		.loc 1 137 0 is_stmt 1
 389 0116 FFF7FEFF 		bl	UART_ClearRxBuffer
 134:.\main.c      **** 		for(i = 0; i < 6; i++){
 390              		.loc 1 134 0
 391 011a FB7B     		ldrb	r3, [r7, #15]
 392 011c 03F10103 		add	r3, r3, #1
 393 0120 FB73     		strb	r3, [r7, #15]
 394              	.L21:
 134:.\main.c      **** 		for(i = 0; i < 6; i++){
 395              		.loc 1 134 0 is_stmt 0 discriminator 1
 396 0122 FB7B     		ldrb	r3, [r7, #15]	@ zero_extendqisi2
 397 0124 052B     		cmp	r3, #5
 398 0126 E8D9     		bls	.L23
 134:.\main.c      **** 		for(i = 0; i < 6; i++){
 399              		.loc 1 134 0
 400 0128 27E0     		b	.L24
 401              	.L20:
 138:.\main.c      **** 		}
 139:.\main.c      **** 	}
 140:.\main.c      **** 	else{
 141:.\main.c      **** 		// receive data from master
 142:.\main.c      **** 		READ();
 402              		.loc 1 142 0 is_stmt 1
 403 012a 4FF00000 		mov	r0, #0
 404 012e FFF7FEFF 		bl	DE_Write
 143:.\main.c      **** 		Timer_Set(1010);
 405              		.loc 1 143 0
 406 0132 40F2F230 		movw	r0, #1010
 407 0136 FFF7FEFF 		bl	Timer_Set
 144:.\main.c      **** 		i = 0;
 408              		.loc 1 144 0
 409 013a 4FF00003 		mov	r3, #0
 410 013e FB73     		strb	r3, [r7, #15]
 145:.\main.c      **** 		while((i < 6) && (Timer_ReadCounter() > 10)){
 411              		.loc 1 145 0
 412 0140 13E0     		b	.L25
 413              	.L26:
 146:.\main.c      **** 			if(UART_ReadRxStatus() & UART_RX_STS_FIFO_NOTEMPTY){
 414              		.loc 1 146 0
 415 0142 FFF7FEFF 		bl	UART_ReadRxStatus
 416 0146 0346     		mov	r3, r0
ARM GAS  C:\Users\Kenichi\AppData\Local\Temp\cc7blFiL.s 			page 11


 417 0148 03F02003 		and	r3, r3, #32
 418 014c 002B     		cmp	r3, #0
 419 014e 0CD0     		beq	.L25
 147:.\main.c      **** 				pak->_byte[i++] = UART_ReadRxData();
 420              		.loc 1 147 0
 421 0150 FC7B     		ldrb	r4, [r7, #15]	@ zero_extendqisi2
 422 0152 FFF7FEFF 		bl	UART_ReadRxData
 423 0156 0346     		mov	r3, r0
 424 0158 1A46     		mov	r2, r3
 425 015a 3B68     		ldr	r3, [r7, #0]
 426 015c 1A55     		strb	r2, [r3, r4]
 427 015e FB7B     		ldrb	r3, [r7, #15]
 428 0160 03F10103 		add	r3, r3, #1
 429 0164 FB73     		strb	r3, [r7, #15]
 148:.\main.c      **** 				UART_ClearRxBuffer();
 430              		.loc 1 148 0
 431 0166 FFF7FEFF 		bl	UART_ClearRxBuffer
 432              	.L25:
 145:.\main.c      **** 		while((i < 6) && (Timer_ReadCounter() > 10)){
 433              		.loc 1 145 0 discriminator 1
 434 016a FB7B     		ldrb	r3, [r7, #15]	@ zero_extendqisi2
 435 016c 052B     		cmp	r3, #5
 436 016e 04D8     		bhi	.L24
 145:.\main.c      **** 		while((i < 6) && (Timer_ReadCounter() > 10)){
 437              		.loc 1 145 0 is_stmt 0 discriminator 2
 438 0170 FFF7FEFF 		bl	Timer_ReadCounter
 439 0174 0346     		mov	r3, r0
 440 0176 0A2B     		cmp	r3, #10
 441 0178 E3D8     		bhi	.L26
 442              	.L24:
 149:.\main.c      **** 			}
 150:.\main.c      **** 		}
 151:.\main.c      **** 		//PACKET_ENDIANCHANGE(pak);
 152:.\main.c      **** 	}
 153:.\main.c      **** 	WRITE();
 443              		.loc 1 153 0 is_stmt 1
 444 017a 4FF00100 		mov	r0, #1
 445 017e FFF7FEFF 		bl	DE_Write
 154:.\main.c      **** 	UART_PutChar(addr);
 446              		.loc 1 154 0
 447 0182 FB79     		ldrb	r3, [r7, #7]	@ zero_extendqisi2
 448 0184 1846     		mov	r0, r3
 449 0186 FFF7FEFF 		bl	UART_PutChar
 155:.\main.c      **** 	while(!(UART_ReadTxStatus() & UART_TX_STS_COMPLETE)) {}
 450              		.loc 1 155 0
 451 018a 00BF     		nop
 452              	.L27:
 453              		.loc 1 155 0 is_stmt 0 discriminator 1
 454 018c FFF7FEFF 		bl	UART_ReadTxStatus
 455 0190 0346     		mov	r3, r0
 456 0192 03F00103 		and	r3, r3, #1
 457 0196 002B     		cmp	r3, #0
 458 0198 F8D0     		beq	.L27
 156:.\main.c      **** 	UART_ClearRxBuffer();
 459              		.loc 1 156 0 is_stmt 1
 460 019a FFF7FEFF 		bl	UART_ClearRxBuffer
 157:.\main.c      **** 	READ();
ARM GAS  C:\Users\Kenichi\AppData\Local\Temp\cc7blFiL.s 			page 12


 461              		.loc 1 157 0
 462 019e 4FF00000 		mov	r0, #0
 463 01a2 FFF7FEFF 		bl	DE_Write
 158:.\main.c      **** 	return 0;
 464              		.loc 1 158 0
 465 01a6 4FF00003 		mov	r3, #0
 466              	.L15:
 159:.\main.c      **** }
 467              		.loc 1 159 0
 468 01aa 1846     		mov	r0, r3
 469 01ac 07F11407 		add	r7, r7, #20
 470 01b0 BD46     		mov	sp, r7
 471 01b2 90BD     		pop	{r4, r7, pc}
 472              		.cfi_endproc
 473              	.LFE60:
 474              		.size	rs485_CheckPacket, .-rs485_CheckPacket
 475              		.section	.text.CheckValid,"ax",%progbits
 476              		.align	2
 477              		.global	CheckValid
 478              		.thumb
 479              		.thumb_func
 480              		.type	CheckValid, %function
 481              	CheckValid:
 482              	.LFB61:
 160:.\main.c      **** 
 161:.\main.c      **** char CheckValid(PACKET *pak){
 483              		.loc 1 161 0
 484              		.cfi_startproc
 485              		@ args = 0, pretend = 0, frame = 16
 486              		@ frame_needed = 1, uses_anonymous_args = 0
 487              		@ link register save eliminated.
 488 0000 80B4     		push	{r7}
 489              	.LCFI13:
 490              		.cfi_def_cfa_offset 4
 491              		.cfi_offset 7, -4
 492 0002 85B0     		sub	sp, sp, #20
 493              	.LCFI14:
 494              		.cfi_def_cfa_offset 24
 495 0004 00AF     		add	r7, sp, #0
 496              	.LCFI15:
 497              		.cfi_def_cfa_register 7
 498 0006 7860     		str	r0, [r7, #4]
 162:.\main.c      ****     unsigned char sum = 0;
 499              		.loc 1 162 0
 500 0008 4FF00003 		mov	r3, #0
 501 000c FB73     		strb	r3, [r7, #15]
 163:.\main.c      ****     int i;
 164:.\main.c      ****     
 165:.\main.c      ****     for(i = 0; i < 4; i++){
 502              		.loc 1 165 0
 503 000e 4FF00003 		mov	r3, #0
 504 0012 BB60     		str	r3, [r7, #8]
 505 0014 0BE0     		b	.L29
 506              	.L30:
 166:.\main.c      ****         sum += pak->_byte[i+2];    
 507              		.loc 1 166 0 discriminator 2
 508 0016 BB68     		ldr	r3, [r7, #8]
ARM GAS  C:\Users\Kenichi\AppData\Local\Temp\cc7blFiL.s 			page 13


 509 0018 03F10203 		add	r3, r3, #2
 510 001c 7A68     		ldr	r2, [r7, #4]
 511 001e D25C     		ldrb	r2, [r2, r3]	@ zero_extendqisi2
 512 0020 FB7B     		ldrb	r3, [r7, #15]
 513 0022 D318     		adds	r3, r2, r3
 514 0024 FB73     		strb	r3, [r7, #15]
 165:.\main.c      ****     for(i = 0; i < 4; i++){
 515              		.loc 1 165 0 discriminator 2
 516 0026 BB68     		ldr	r3, [r7, #8]
 517 0028 03F10103 		add	r3, r3, #1
 518 002c BB60     		str	r3, [r7, #8]
 519              	.L29:
 165:.\main.c      ****     for(i = 0; i < 4; i++){
 520              		.loc 1 165 0 is_stmt 0 discriminator 1
 521 002e BB68     		ldr	r3, [r7, #8]
 522 0030 032B     		cmp	r3, #3
 523 0032 F0DD     		ble	.L30
 167:.\main.c      ****     }
 168:.\main.c      ****     if((~sum & 0xff) == pak->_pak.bCheckSum) {
 524              		.loc 1 168 0 is_stmt 1
 525 0034 FB7B     		ldrb	r3, [r7, #15]	@ zero_extendqisi2
 526 0036 6FEA0303 		mvn	r3, r3
 527 003a DAB2     		uxtb	r2, r3
 528 003c 7B68     		ldr	r3, [r7, #4]
 529 003e 5B78     		ldrb	r3, [r3, #1]	@ zero_extendqisi2
 530 0040 9A42     		cmp	r2, r3
 531 0042 02D1     		bne	.L31
 169:.\main.c      ****         return 1;
 532              		.loc 1 169 0
 533 0044 4FF00103 		mov	r3, #1
 534 0048 01E0     		b	.L32
 535              	.L31:
 170:.\main.c      ****     } else {
 171:.\main.c      ****         return 0;
 536              		.loc 1 171 0
 537 004a 4FF00003 		mov	r3, #0
 538              	.L32:
 172:.\main.c      ****     }
 173:.\main.c      **** }
 539              		.loc 1 173 0
 540 004e 1846     		mov	r0, r3
 541 0050 07F11407 		add	r7, r7, #20
 542 0054 BD46     		mov	sp, r7
 543 0056 80BC     		pop	{r7}
 544 0058 7047     		bx	lr
 545              		.cfi_endproc
 546              	.LFE61:
 547              		.size	CheckValid, .-CheckValid
 548 005a 00BF     		.section	.text.Servo_Start,"ax",%progbits
 549              		.align	2
 550              		.global	Servo_Start
 551              		.thumb
 552              		.thumb_func
 553              		.type	Servo_Start, %function
 554              	Servo_Start:
 555              	.LFB62:
 174:.\main.c      **** 
ARM GAS  C:\Users\Kenichi\AppData\Local\Temp\cc7blFiL.s 			page 14


 175:.\main.c      **** void Servo_Start(void){
 556              		.loc 1 175 0
 557              		.cfi_startproc
 558              		@ args = 0, pretend = 0, frame = 0
 559              		@ frame_needed = 1, uses_anonymous_args = 0
 560 0000 80B5     		push	{r7, lr}
 561              	.LCFI16:
 562              		.cfi_def_cfa_offset 8
 563              		.cfi_offset 7, -8
 564              		.cfi_offset 14, -4
 565 0002 00AF     		add	r7, sp, #0
 566              	.LCFI17:
 567              		.cfi_def_cfa_register 7
 176:.\main.c      ****     PWM_1_Start();
 568              		.loc 1 176 0
 569 0004 FFF7FEFF 		bl	PWM_1_Start
 177:.\main.c      **** 	aileronL_buffer = 1500;
 570              		.loc 1 177 0
 571 0008 40F20003 		movw	r3, #:lower16:aileronL_buffer
 572 000c C0F20003 		movt	r3, #:upper16:aileronL_buffer
 573 0010 40F2DC52 		movw	r2, #1500
 574 0014 1A60     		str	r2, [r3, #0]
 178:.\main.c      ****     isr_tc_StartEx(Terminal_Count_ISR);
 575              		.loc 1 178 0
 576 0016 40F20000 		movw	r0, #:lower16:Terminal_Count_ISR
 577 001a C0F20000 		movt	r0, #:upper16:Terminal_Count_ISR
 578 001e FFF7FEFF 		bl	isr_tc_StartEx
 179:.\main.c      ****     return;
 579              		.loc 1 179 0
 580 0022 00BF     		nop
 180:.\main.c      **** }
 581              		.loc 1 180 0
 582 0024 80BD     		pop	{r7, pc}
 583              		.cfi_endproc
 584              	.LFE62:
 585              		.size	Servo_Start, .-Servo_Start
 586              		.global	__aeabi_i2d
 587              		.global	__aeabi_dmul
 588              		.global	__aeabi_dadd
 589              		.global	__aeabi_d2uiz
 590 0026 00BF     		.section	.text.FormatValueAilL,"ax",%progbits
 591              		.align	2
 592              		.global	FormatValueAilL
 593              		.thumb
 594              		.thumb_func
 595              		.type	FormatValueAilL, %function
 596              	FormatValueAilL:
 597              	.LFB63:
 181:.\main.c      **** 
 182:.\main.c      **** unsigned int FormatValueAilL(unsigned short raw){
 598              		.loc 1 182 0
 599              		.cfi_startproc
 600              		@ args = 0, pretend = 0, frame = 8
 601              		@ frame_needed = 1, uses_anonymous_args = 0
 602 0000 B0B5     		push	{r4, r5, r7, lr}
 603              	.LCFI18:
 604              		.cfi_def_cfa_offset 16
ARM GAS  C:\Users\Kenichi\AppData\Local\Temp\cc7blFiL.s 			page 15


 605              		.cfi_offset 4, -16
 606              		.cfi_offset 5, -12
 607              		.cfi_offset 7, -8
 608              		.cfi_offset 14, -4
 609 0002 82B0     		sub	sp, sp, #8
 610              	.LCFI19:
 611              		.cfi_def_cfa_offset 24
 612 0004 00AF     		add	r7, sp, #0
 613              	.LCFI20:
 614              		.cfi_def_cfa_register 7
 615 0006 0346     		mov	r3, r0
 616 0008 FB80     		strh	r3, [r7, #6]	@ movhi
 183:.\main.c      **** 	if((raw >= 1500)&&(raw <= 2000)){
 617              		.loc 1 183 0
 618 000a FA88     		ldrh	r2, [r7, #6]
 619 000c 40F2DB53 		movw	r3, #1499
 620 0010 9A42     		cmp	r2, r3
 621 0012 2AD9     		bls	.L36
 622              		.loc 1 183 0 is_stmt 0 discriminator 1
 623 0014 FB88     		ldrh	r3, [r7, #6]
 624 0016 B3F5FA6F 		cmp	r3, #2000
 625 001a 26D8     		bhi	.L36
 184:.\main.c      **** 		return (1200 + CenterStatus() + (raw - 1500)*0.8);
 626              		.loc 1 184 0 is_stmt 1
 627 001c FFF7FEFF 		bl	CenterStatus
 628 0020 0346     		mov	r3, r0
 629 0022 03F59663 		add	r3, r3, #1200
 630 0026 1846     		mov	r0, r3
 631 0028 FFF7FEFF 		bl	__aeabi_i2d
 632 002c 0446     		mov	r4, r0
 633 002e 0D46     		mov	r5, r1
 634 0030 FB88     		ldrh	r3, [r7, #6]
 635 0032 A3F2DC53 		subw	r3, r3, #1500
 636 0036 1846     		mov	r0, r3
 637 0038 FFF7FEFF 		bl	__aeabi_i2d
 638 003c 0246     		mov	r2, r0
 639 003e 0B46     		mov	r3, r1
 640 0040 1046     		mov	r0, r2
 641 0042 1946     		mov	r1, r3
 642 0044 26A3     		adr	r3, .L39
 643 0046 D3E90023 		ldrd	r2, [r3]
 644 004a FFF7FEFF 		bl	__aeabi_dmul
 645 004e 0246     		mov	r2, r0
 646 0050 0B46     		mov	r3, r1
 647 0052 2046     		mov	r0, r4
 648 0054 2946     		mov	r1, r5
 649 0056 FFF7FEFF 		bl	__aeabi_dadd
 650 005a 0246     		mov	r2, r0
 651 005c 0B46     		mov	r3, r1
 652 005e 1046     		mov	r0, r2
 653 0060 1946     		mov	r1, r3
 654 0062 FFF7FEFF 		bl	__aeabi_d2uiz
 655 0066 0346     		mov	r3, r0
 656 0068 33E0     		b	.L37
 657              	.L36:
 185:.\main.c      **** 	}else if((raw < 1500)&&(raw >= 500)){
 658              		.loc 1 185 0
ARM GAS  C:\Users\Kenichi\AppData\Local\Temp\cc7blFiL.s 			page 16


 659 006a FA88     		ldrh	r2, [r7, #6]
 660 006c 40F2DB53 		movw	r3, #1499
 661 0070 9A42     		cmp	r2, r3
 662 0072 2BD8     		bhi	.L38
 663              		.loc 1 185 0 is_stmt 0 discriminator 1
 664 0074 FA88     		ldrh	r2, [r7, #6]
 665 0076 40F2F313 		movw	r3, #499
 666 007a 9A42     		cmp	r2, r3
 667 007c 26D9     		bls	.L38
 186:.\main.c      **** 		return (1200 + CenterStatus() + (raw - 1500)*0.6);
 668              		.loc 1 186 0 is_stmt 1
 669 007e FFF7FEFF 		bl	CenterStatus
 670 0082 0346     		mov	r3, r0
 671 0084 03F59663 		add	r3, r3, #1200
 672 0088 1846     		mov	r0, r3
 673 008a FFF7FEFF 		bl	__aeabi_i2d
 674 008e 0446     		mov	r4, r0
 675 0090 0D46     		mov	r5, r1
 676 0092 FB88     		ldrh	r3, [r7, #6]
 677 0094 A3F2DC53 		subw	r3, r3, #1500
 678 0098 1846     		mov	r0, r3
 679 009a FFF7FEFF 		bl	__aeabi_i2d
 680 009e 0246     		mov	r2, r0
 681 00a0 0B46     		mov	r3, r1
 682 00a2 1046     		mov	r0, r2
 683 00a4 1946     		mov	r1, r3
 684 00a6 10A3     		adr	r3, .L39+8
 685 00a8 D3E90023 		ldrd	r2, [r3]
 686 00ac FFF7FEFF 		bl	__aeabi_dmul
 687 00b0 0246     		mov	r2, r0
 688 00b2 0B46     		mov	r3, r1
 689 00b4 2046     		mov	r0, r4
 690 00b6 2946     		mov	r1, r5
 691 00b8 FFF7FEFF 		bl	__aeabi_dadd
 692 00bc 0246     		mov	r2, r0
 693 00be 0B46     		mov	r3, r1
 694 00c0 1046     		mov	r0, r2
 695 00c2 1946     		mov	r1, r3
 696 00c4 FFF7FEFF 		bl	__aeabi_d2uiz
 697 00c8 0346     		mov	r3, r0
 698 00ca 02E0     		b	.L37
 699              	.L38:
 187:.\main.c      **** 	}else{
 188:.\main.c      **** 		return PWM_1_ReadCompare1(); 
 700              		.loc 1 188 0
 701 00cc FFF7FEFF 		bl	PWM_1_ReadCompare1
 702 00d0 0346     		mov	r3, r0
 703              	.L37:
 189:.\main.c      **** 	}
 190:.\main.c      **** }
 704              		.loc 1 190 0
 705 00d2 1846     		mov	r0, r3
 706 00d4 07F10807 		add	r7, r7, #8
 707 00d8 BD46     		mov	sp, r7
 708 00da B0BD     		pop	{r4, r5, r7, pc}
 709              	.L40:
 710 00dc AFF30080 		.align	3
ARM GAS  C:\Users\Kenichi\AppData\Local\Temp\cc7blFiL.s 			page 17


 711              	.L39:
 712 00e0 9A999999 		.word	-1717986918
 713 00e4 9999E93F 		.word	1072273817
 714 00e8 33333333 		.word	858993459
 715 00ec 3333E33F 		.word	1071854387
 716              		.cfi_endproc
 717              	.LFE63:
 718              		.size	FormatValueAilL, .-FormatValueAilL
 719              		.section	.text.CenterStatus,"ax",%progbits
 720              		.align	2
 721              		.global	CenterStatus
 722              		.thumb
 723              		.thumb_func
 724              		.type	CenterStatus, %function
 725              	CenterStatus:
 726              	.LFB64:
 191:.\main.c      **** 
 192:.\main.c      **** int CenterStatus(void){
 727              		.loc 1 192 0
 728              		.cfi_startproc
 729              		@ args = 0, pretend = 0, frame = 16
 730              		@ frame_needed = 1, uses_anonymous_args = 0
 731 0000 80B5     		push	{r7, lr}
 732              	.LCFI21:
 733              		.cfi_def_cfa_offset 8
 734              		.cfi_offset 7, -8
 735              		.cfi_offset 14, -4
 736 0002 84B0     		sub	sp, sp, #16
 737              	.LCFI22:
 738              		.cfi_def_cfa_offset 24
 739 0004 00AF     		add	r7, sp, #0
 740              	.LCFI23:
 741              		.cfi_def_cfa_register 7
 193:.\main.c      **** 	int Trim ,dTrim = 20;
 742              		.loc 1 193 0
 743 0006 4FF01403 		mov	r3, #20
 744 000a BB60     		str	r3, [r7, #8]
 194:.\main.c      **** 	int sw = (~ Status_Reg_Read()) & 0x0F ;
 745              		.loc 1 194 0
 746 000c FFF7FEFF 		bl	Status_Reg_Read
 747 0010 0346     		mov	r3, r0
 748 0012 6FEA0303 		mvn	r3, r3
 749 0016 03F00F03 		and	r3, r3, #15
 750 001a 7B60     		str	r3, [r7, #4]
 195:.\main.c      **** 	switch(sw){
 751              		.loc 1 195 0
 752 001c 7B68     		ldr	r3, [r7, #4]
 753 001e 0F2B     		cmp	r3, #15
 754 0020 00F29480 		bhi	.L42
 755 0024 01A2     		adr	r2, .L59
 756 0026 52F823F0 		ldr	pc, [r2, r3, lsl #2]
 757 002a 00BF     		.align	2
 758              	.L59:
 759 002c 6D000000 		.word	.L43+1
 760 0030 7F000000 		.word	.L44+1
 761 0034 8D000000 		.word	.L45+1
 762 0038 9F000000 		.word	.L46+1
ARM GAS  C:\Users\Kenichi\AppData\Local\Temp\cc7blFiL.s 			page 18


 763 003c B3000000 		.word	.L47+1
 764 0040 C5000000 		.word	.L48+1
 765 0044 D3000000 		.word	.L49+1
 766 0048 E5000000 		.word	.L50+1
 767 004c EF000000 		.word	.L51+1
 768 0050 F7000000 		.word	.L52+1
 769 0054 FD000000 		.word	.L53+1
 770 0058 07010000 		.word	.L54+1
 771 005c 15010000 		.word	.L55+1
 772 0060 1F010000 		.word	.L56+1
 773 0064 2D010000 		.word	.L57+1
 774 0068 3F010000 		.word	.L58+1
 775              	.L43:
 196:.\main.c      **** 		case 0x00 :
 197:.\main.c      **** 			Trim = -8*dTrim;
 776              		.loc 1 197 0
 777 006c BA68     		ldr	r2, [r7, #8]
 778 006e 1346     		mov	r3, r2
 779 0070 4FEA4373 		lsl	r3, r3, #29
 780 0074 9B1A     		subs	r3, r3, r2
 781 0076 4FEAC303 		lsl	r3, r3, #3
 782 007a FB60     		str	r3, [r7, #12]
 198:.\main.c      **** 			break;	
 783              		.loc 1 198 0
 784 007c 66E0     		b	.L42
 785              	.L44:
 199:.\main.c      **** 		case 0x01 :
 200:.\main.c      **** 			Trim = -7*dTrim;
 786              		.loc 1 200 0
 787 007e BB68     		ldr	r3, [r7, #8]
 788 0080 1A46     		mov	r2, r3
 789 0082 4FEAC303 		lsl	r3, r3, #3
 790 0086 D31A     		subs	r3, r2, r3
 791 0088 FB60     		str	r3, [r7, #12]
 201:.\main.c      **** 			break;
 792              		.loc 1 201 0
 793 008a 5FE0     		b	.L42
 794              	.L45:
 202:.\main.c      **** 		case 0x02 :
 203:.\main.c      **** 			Trim = -6*dTrim;
 795              		.loc 1 203 0
 796 008c BA68     		ldr	r2, [r7, #8]
 797 008e 1346     		mov	r3, r2
 798 0090 4FEA8202 		lsl	r2, r2, #2
 799 0094 9B1A     		subs	r3, r3, r2
 800 0096 4FEA4303 		lsl	r3, r3, #1
 801 009a FB60     		str	r3, [r7, #12]
 204:.\main.c      **** 			break;
 802              		.loc 1 204 0
 803 009c 56E0     		b	.L42
 804              	.L46:
 205:.\main.c      **** 		case 0x03 :
 206:.\main.c      **** 			Trim = -5*dTrim;
 805              		.loc 1 206 0
 806 009e BA68     		ldr	r2, [r7, #8]
 807 00a0 1346     		mov	r3, r2
 808 00a2 4FEA8373 		lsl	r3, r3, #30
ARM GAS  C:\Users\Kenichi\AppData\Local\Temp\cc7blFiL.s 			page 19


 809 00a6 9B1A     		subs	r3, r3, r2
 810 00a8 4FEA8303 		lsl	r3, r3, #2
 811 00ac 9B1A     		subs	r3, r3, r2
 812 00ae FB60     		str	r3, [r7, #12]
 207:.\main.c      **** 			break;
 813              		.loc 1 207 0
 814 00b0 4CE0     		b	.L42
 815              	.L47:
 208:.\main.c      **** 		case 0x04 :
 209:.\main.c      **** 			Trim = -4*dTrim;
 816              		.loc 1 209 0
 817 00b2 BA68     		ldr	r2, [r7, #8]
 818 00b4 1346     		mov	r3, r2
 819 00b6 4FEA8373 		lsl	r3, r3, #30
 820 00ba 9B1A     		subs	r3, r3, r2
 821 00bc 4FEA8303 		lsl	r3, r3, #2
 822 00c0 FB60     		str	r3, [r7, #12]
 210:.\main.c      **** 			break;
 823              		.loc 1 210 0
 824 00c2 43E0     		b	.L42
 825              	.L48:
 211:.\main.c      **** 		case 0x05 :
 212:.\main.c      **** 			Trim = -3*dTrim;
 826              		.loc 1 212 0
 827 00c4 BB68     		ldr	r3, [r7, #8]
 828 00c6 1A46     		mov	r2, r3
 829 00c8 4FEA8303 		lsl	r3, r3, #2
 830 00cc D31A     		subs	r3, r2, r3
 831 00ce FB60     		str	r3, [r7, #12]
 213:.\main.c      **** 			break;
 832              		.loc 1 213 0
 833 00d0 3CE0     		b	.L42
 834              	.L49:
 214:.\main.c      **** 		case 0x06 :
 215:.\main.c      **** 			Trim = -2*dTrim;
 835              		.loc 1 215 0
 836 00d2 BA68     		ldr	r2, [r7, #8]
 837 00d4 1346     		mov	r3, r2
 838 00d6 4FEAC373 		lsl	r3, r3, #31
 839 00da 9B1A     		subs	r3, r3, r2
 840 00dc 4FEA4303 		lsl	r3, r3, #1
 841 00e0 FB60     		str	r3, [r7, #12]
 216:.\main.c      **** 			break;
 842              		.loc 1 216 0
 843 00e2 33E0     		b	.L42
 844              	.L50:
 217:.\main.c      **** 		case 0x07 :
 218:.\main.c      **** 			Trim = -1*dTrim;
 845              		.loc 1 218 0
 846 00e4 BB68     		ldr	r3, [r7, #8]
 847 00e6 C3F10003 		rsb	r3, r3, #0
 848 00ea FB60     		str	r3, [r7, #12]
 219:.\main.c      **** 			break;
 849              		.loc 1 219 0
 850 00ec 2EE0     		b	.L42
 851              	.L51:
 220:.\main.c      **** 		case 0x08 :
ARM GAS  C:\Users\Kenichi\AppData\Local\Temp\cc7blFiL.s 			page 20


 221:.\main.c      **** 			Trim = 0*dTrim;
 852              		.loc 1 221 0
 853 00ee 4FF00003 		mov	r3, #0
 854 00f2 FB60     		str	r3, [r7, #12]
 222:.\main.c      **** 			break;
 855              		.loc 1 222 0
 856 00f4 2AE0     		b	.L42
 857              	.L52:
 223:.\main.c      **** 		case 0x09 :
 224:.\main.c      **** 			Trim = 1*dTrim;
 858              		.loc 1 224 0
 859 00f6 BB68     		ldr	r3, [r7, #8]
 860 00f8 FB60     		str	r3, [r7, #12]
 225:.\main.c      **** 			break;
 861              		.loc 1 225 0
 862 00fa 27E0     		b	.L42
 863              	.L53:
 226:.\main.c      **** 		case 0x0A :
 227:.\main.c      **** 			Trim = 2*dTrim;
 864              		.loc 1 227 0
 865 00fc BB68     		ldr	r3, [r7, #8]
 866 00fe 4FEA4303 		lsl	r3, r3, #1
 867 0102 FB60     		str	r3, [r7, #12]
 228:.\main.c      **** 			break;
 868              		.loc 1 228 0
 869 0104 22E0     		b	.L42
 870              	.L54:
 229:.\main.c      **** 		case 0x0B :
 230:.\main.c      **** 			Trim = 3*dTrim;
 871              		.loc 1 230 0
 872 0106 BA68     		ldr	r2, [r7, #8]
 873 0108 1346     		mov	r3, r2
 874 010a 4FEA4303 		lsl	r3, r3, #1
 875 010e 9B18     		adds	r3, r3, r2
 876 0110 FB60     		str	r3, [r7, #12]
 231:.\main.c      **** 			break;
 877              		.loc 1 231 0
 878 0112 1BE0     		b	.L42
 879              	.L55:
 232:.\main.c      **** 		case 0x0C :
 233:.\main.c      **** 			Trim = 4*dTrim;
 880              		.loc 1 233 0
 881 0114 BB68     		ldr	r3, [r7, #8]
 882 0116 4FEA8303 		lsl	r3, r3, #2
 883 011a FB60     		str	r3, [r7, #12]
 234:.\main.c      **** 			break;
 884              		.loc 1 234 0
 885 011c 16E0     		b	.L42
 886              	.L56:
 235:.\main.c      **** 		case 0x0D :
 236:.\main.c      **** 			Trim = 5*dTrim;
 887              		.loc 1 236 0
 888 011e BA68     		ldr	r2, [r7, #8]
 889 0120 1346     		mov	r3, r2
 890 0122 4FEA8303 		lsl	r3, r3, #2
 891 0126 9B18     		adds	r3, r3, r2
 892 0128 FB60     		str	r3, [r7, #12]
ARM GAS  C:\Users\Kenichi\AppData\Local\Temp\cc7blFiL.s 			page 21


 237:.\main.c      **** 			break;
 893              		.loc 1 237 0
 894 012a 0FE0     		b	.L42
 895              	.L57:
 238:.\main.c      **** 		case 0x0E :
 239:.\main.c      **** 			Trim = 6*dTrim;
 896              		.loc 1 239 0
 897 012c BA68     		ldr	r2, [r7, #8]
 898 012e 1346     		mov	r3, r2
 899 0130 4FEA4303 		lsl	r3, r3, #1
 900 0134 9B18     		adds	r3, r3, r2
 901 0136 4FEA4303 		lsl	r3, r3, #1
 902 013a FB60     		str	r3, [r7, #12]
 240:.\main.c      **** 			break;
 903              		.loc 1 240 0
 904 013c 06E0     		b	.L42
 905              	.L58:
 241:.\main.c      **** 		case 0x0F :
 242:.\main.c      **** 			Trim = 7*dTrim;
 906              		.loc 1 242 0
 907 013e BA68     		ldr	r2, [r7, #8]
 908 0140 1346     		mov	r3, r2
 909 0142 4FEAC303 		lsl	r3, r3, #3
 910 0146 9B1A     		subs	r3, r3, r2
 911 0148 FB60     		str	r3, [r7, #12]
 243:.\main.c      **** 			break;
 912              		.loc 1 243 0
 913 014a 00BF     		nop
 914              	.L42:
 244:.\main.c      **** 	}
 245:.\main.c      **** 	return(Trim);
 915              		.loc 1 245 0
 916 014c FB68     		ldr	r3, [r7, #12]
 246:.\main.c      **** }
 917              		.loc 1 246 0
 918 014e 1846     		mov	r0, r3
 919 0150 07F11007 		add	r7, r7, #16
 920 0154 BD46     		mov	sp, r7
 921 0156 80BD     		pop	{r7, pc}
 922              		.cfi_endproc
 923              	.LFE64:
 924              		.size	CenterStatus, .-CenterStatus
 925              		.section	.text.Terminal_Count_ISR,"ax",%progbits
 926              		.align	2
 927              		.global	Terminal_Count_ISR
 928              		.thumb
 929              		.thumb_func
 930              		.type	Terminal_Count_ISR, %function
 931              	Terminal_Count_ISR:
 932              	.LFB65:
 247:.\main.c      **** 
 248:.\main.c      **** CY_ISR(Terminal_Count_ISR) {
 933              		.loc 1 248 0
 934              		.cfi_startproc
 935              		@ args = 0, pretend = 0, frame = 0
 936              		@ frame_needed = 1, uses_anonymous_args = 0
 937 0000 80B5     		push	{r7, lr}
ARM GAS  C:\Users\Kenichi\AppData\Local\Temp\cc7blFiL.s 			page 22


 938              	.LCFI24:
 939              		.cfi_def_cfa_offset 8
 940              		.cfi_offset 7, -8
 941              		.cfi_offset 14, -4
 942 0002 00AF     		add	r7, sp, #0
 943              	.LCFI25:
 944              		.cfi_def_cfa_register 7
 249:.\main.c      ****     PWM_1_WriteCompare1(FormatValueAilL(aileronL_buffer));
 945              		.loc 1 249 0
 946 0004 40F20003 		movw	r3, #:lower16:aileronL_buffer
 947 0008 C0F20003 		movt	r3, #:upper16:aileronL_buffer
 948 000c 1B68     		ldr	r3, [r3, #0]
 949 000e 9BB2     		uxth	r3, r3
 950 0010 1846     		mov	r0, r3
 951 0012 FFF7FEFF 		bl	FormatValueAilL
 952 0016 0346     		mov	r3, r0
 953 0018 9BB2     		uxth	r3, r3
 954 001a 1846     		mov	r0, r3
 955 001c FFF7FEFF 		bl	PWM_1_WriteCompare1
 250:.\main.c      ****     PWM_1_ReadStatusRegister();
 956              		.loc 1 250 0
 957 0020 FFF7FEFF 		bl	PWM_1_ReadStatusRegister
 251:.\main.c      ****     return;
 958              		.loc 1 251 0
 959 0024 00BF     		nop
 252:.\main.c      **** }
 960              		.loc 1 252 0
 961 0026 80BD     		pop	{r7, pc}
 962              		.cfi_endproc
 963              	.LFE65:
 964              		.size	Terminal_Count_ISR, .-Terminal_Count_ISR
 965              		.text
 966              	.Letext0:
 967              		.file 2 "c:\\program files (x86)\\cypress\\psoc creator\\3.0\\psoc creator\\import\\gnu_cs\\arm\\4
 968              		.file 3 "./Generated_Source/PSoC5/cytypes.h"
 969              		.file 4 "./Generated_Source/PSoC5/core_cm3.h"
