:400000000080002011000000F5030000F503000080B500AF47F2BC63C4F2000344F2FA62C4F2000212681A6000F0E8F910B5054C237833B9044810B10448AFF300800121E1
:40004000217010BD1081FF1F000000004C11000008B5064B1BB106480649AFF300800648016811B1054A02B1904708BD000000004C1100001481FF1F0881FF1F00000000AF
:4000800080B500AF00F074F800F082F962B64FF0550048F23C11C1F6FF7100F071F80346002B38D14FF0010000F09CFE4FF0000000F076FE48F23C10C1F6FF7000F03AF929
:4000C0000346012B1ED148F23C13C1F6FF735B881A4648F23813C1F6FF731A6048F23C13C1F6FF739B881A4648F23013C1F6FF731A604FF0000000F075FE4FF0000000F059
:400100004FFEC4E74FF0010000F06CFE4FF0010000F046FEBBE74FF0010000F063FE4FF0010000F03DFEB2E780B582B000AF78607B689BB2184600F0E1FD00BF07F1080772
:40014000BD4680BD80B582B000AF78607B6803F132031846FFF7E8FF00BF00F0DFFD0346322BFAD800BF07F10807BD4680BD00BF80B500AF00F044FC00F072FD00BF80BDD3
:4001800090B585B000AF03463960FB7100F0C0FC034603F02003002B0AD14FF0010000F0FFFD4FF0000000F0D9FD4FF00103BCE04FF0010000F0F4FD00F09AFC0346BB7389
:4001C00000F0BAFCFA79BB7B03F07F039A4222D04FF0C800FFF7A8FF4FF0000000F0BEFD0FE000F095FC034603F02003002B08D04FF46170FFF7A6FF00F09EFC4FF0010391
:4002000093E000F08BFD0346312BEAD800F094FC4FF0010389E04FF0000000F0C1FD4FF0010000F09BFDFB79184600F0BDFC00BF00F0AEFC034603F00103002BF8D000F094
:400240007BFCBB7B5BB2002B2FDA3B689B787B733B68DA783B689A703B687A7BDA703B681B797B733B685A793B681A713B687A7B5A714FF00003FB7313E0FB7B3A68D35C52
:40028000184600F091FC00BF00F082FC034603F00103002BF8D000F04FFCFB7B03F10103FB73FB7B052BE8D927E04FF0000000F055FD40F2F230FFF737FF4FF00003FB73CD
:4002C00013E000F025FC034603F02003002B0CD0FC7B00F00DFC03461A463B681A55FB7B03F10103FB7300F027FCFB7B052B04D800F014FD03460A2BE3D84FF0010000F08E
:400300002DFDFB79184600F04FFC00BF00F040FC034603F00103002BF8D000F00DFC4FF0000000F01BFD4FF00003184607F11407BD4690BD80B485B000AF78604FF00003F3
:40034000FB734FF00003BB600BE0BB6803F102037A68D25CFB7BD318FB73BB6803F10103BB60BB68032BF0DDFB7B6FEA0303DAB27B685B789A4202D14FF0010301E04FF04F
:400380000003184607F11407BD4680BC704700BF80B500AF48F23813C1F6FF734FF4AF621A6048F23013C1F6FF7340F2DC521A6000F03AFD40F2C530C0F2000000F03AFE0C
:4003C00000BF80BD80B500AF48F23813C1F6FF731B689BB2184600F0E1FD48F23013C1F6FF731B689BB2184600F0E8FD00F006FE00BF80BD80B400AFFEE700BF80B586B0E8
:4004000000AF40F20103C0F200037B6141F2A013C0F200033B6140F20103C0F200037B6141F2A013C0F200033B613BE03B691B68FB603B695B68BB603B699B683B604FF071
:4004400000037B600FE0FB681A68BB681A60BB6803F10403BB60FB6803F10403FB607B6803F104037B607A683B689A42EBD13B69DB683B604FF000037B600BE0BB684FF079
:4004800000021A60BB6803F10403BB607B6803F104037B607A683B689A42EFD13B6903F110033B617B69002B0CBF00230123DBB27A6902F1FF327A61002BB7D100F00EFE27
:4004C000FFF7DEFDFEE700BF80B582B000AF4EF60C53CEF200034FF48062C0F2FA521A604EF61453CEF200034EF61452CEF20002126842F400721A604FF000037B6019E0E2
:400500007B68032B07D840F20003C0F200037A6853F8223003E040F2F533C0F2000348F20002C1F6FF72796842F821307B6803F101037B607B682F2BE2D947F2BC63C4F2E4
:4005400000031B78DAB248F20413C1F6FF731A704EF60853CEF2000348F20002C1F6FF721A6000F05FF948F20013C1F6FF734FF000021A6007F10807BD4680BD80B582B0EE
:4005800000AF7860396078684FF000013A6800F0D4FD07F10807BD4680BD00BF80B584B000AFF860B9607A60F868B9687A6800F0BBFD07F11007BD4680BD00BF80B483B0AF
:4005C00000AF0346FB71FEE780B487B000AF786039604FF000033B614FF000037B612CE07B694FEA83037A68D3181B68BB60BB68FB73BB6823F0FF03BB6017E03B694FEA59
:4006000043033A68D3181B781A46BB68D3183A694FEA420239688A1852781A703B6903F101033B61FB7B03F1FF33FB73FB7B002BE4D17B6903F101037B617B691B2BCFD90D
:4006400007F11C07BD4680BC704700BF80B582B000AF4FF48143C4F200034FF001021A8044F28203C4F200034FF018021A7044F28403C4F200034FF017021A8044F286037A
:40068000C4F200034FF018021A7044F28803C4F200034FF017021A8044F28A03C4F200034FF018021A704FF48643C4F200034FF002021A704FF040234FF008021A704FF489
:4006C0008443C4F200034FF003021A7044F2A163C4F200034FF48472C4F600121278D2B21A7044F22223C4F200034FF008021A8044F22023C4F2000341F251221A804FF054
:400700000003FB704FF019037B6019E0FB784FEA4303DAB244F22523C4F200031B78DBB203F00103DBB21343DBB203F00303FB704FF4F07000F050F97B6803F1FF337B60BC
:400740007B68002B02D0FB78032BDFD17B68002B03D14FF00300FFF731FF44F20403C4F200034FF480721A8044F20403C4F200034FF007021A7044F20603C4F200034FF03A
:4007800000021A7044F20803C4F200034FF048021A7044F20403C4F200034FF000021A7044F20103C4F200034FF002021A7044F2A233C4F2000344F2A232C4F2000212780F
:4007C000D2B242F00702D2B21A7007F10807BD4680BD00BF80B483B000AF40F2CF13C4F600131B78FB7145F66E03C4F20003FA7902F00702D2B21A7045F66F03C4F20003E9
:40080000FA794FEA1212D2B21A7045F67603C4F200034FF044021A7007F10C07BD4680BC704700BF80B582B000AF72B64FF00003FB7119E0FA7913464FEA43039B184FEA82
:40084000430341F25012C0F200029B183B603B681A683B689B889BB210461946FFF78EFEFB7903F10103FB71FB79062BE2D94FF090404FF07001C4F60001FFF7A5FE45F2AA
:400880000303C4F2010345F20302C4F201021278D2B242F00202D2B21A7045F21303C4F2010345F21302C4F201021278D2B242F00202D2B21A7044F2A033C4F2000344F2DB
:4008C000A032C4F200021278D2B242F04002D2B21A7044F2C233C4F2000344F2C232C4F200021278D2B242F01002D2B21A704FF4A240C4F2000040F28C61C4F600014FF0C4
:400900000A02FFF74BFE45F2C210C4F200004FF4D361C4F600014FF00802FFF73FFE45F2F210C4F200004FF4D461C4F600014FF00802FFF733FE45F22210C4F200004FF40B
:40094000D561C4F600014FF00802FFF727FE45F23010C4F200004FF4D661C4F600014FF00A02FFF71BFE44F22233C4F2000344F22232C4F200021278D2B242F00802D2B212
:400980001A704FF49043C4F200034FF001021A70FFF75CFE4FF49043C4F200034FF081021A704FF00403C4F208034FF001021A70FFF710FF44F2B030C4F2000044F2A031FC
:4009C000C4F200014FF00E02FFF7E8FD07F10807BD4680BD000000000230800800F0058000BF013800467FF4FCAF7047EFF3108072B6704780F31088704700BFAFF3008099
:400A000080B500AF48F22C13C1F6FF731B78002B08D100F00BF848F22C13C1F6FF734FF001021A7000F02AF880BD00BF80B400AF46F28643C4F200034FF072021A7046F218
:400A40008743C4F200034FF020021A7046F22443C4F200034FF007021A7046F23443C4F200034FF048021A704FF4C943C4F200034FF000021A70BD4680BC704780B582B033
:400A800000AFFFF7B3FF0346FB7146F29643C4F2000346F29642C4F200021278D2B242F02002D2B21A7046F29743C4F2000346F29742C4F200021278D2B242F01002D2B2BE
:400AC0001A7046F29043C4F2000346F29042C4F200021278D2B242F01002D2B21A70FB791846FFF787FF07F10807BD4680BD00BF80B483B000AF46F24243C4F200031B7813
:400B0000FB71FB79184607F10C07BD4680BC704780B483B000AF46F26743C4F200031B78DBB203F07F03FB71FB79184607F10C07BD4680BC704700BF80B582B000AFFFF726
:400B400055FF0346FB7146F29243C4F2000346F29242C4F200021278D2B242F00102D2B21A7046F29243C4F2000346F29242C4F200021278D2B222F00102D2B21A70FB7962
:400B80001846FFF737FF07F10807BD4680BD00BF80B400AF46F26043C4F200031B78DBB21846BD4680BC704780B483B000AF0346FB7100BF46F26043C4F200031B78DBB27C
:400BC00003F00403002BF5D146F24043C4F20003FA791A7007F10C07BD4680BC704700BF80B582B000AF4FF0010000F06BF84FF0010000F083F8FFF7F9FE0346FB7146F2AB
:400C00009653C4F2000346F29652C4F200021278D2B242F01002D2B21A70FB791846FFF7E9FE00F08DF84FF0000000F02FF807F10807BD4680BD00BF80B400AF46F2765376
:400C4000C4F2000346F27652C4F200021278D2B262F07F02D2B21A70BD4680BC704700BF80B500AF48F22E13C1F6FF731B78002B08D1FFF7B5FF48F22E13C1F6FF734FF0B3
:400C800001021A70FFF7D8FF80BD00BF80B483B000AF0346FB7146F28653C4F20003FA791A7007F10C07BD4680BC704780B400AF46F26653C4F200031B78DBB21846BD463D
:400CC00080BC704780B483B000AF0346FB8046F64C23C4F20003FA881A8007F10C07BD4680BC704780B400AF46F68C23C4F200031B889BB21846BD4680BC704780B483B074
:400D000000AF0346FB8046F60C23C4F20003FA881A8007F10C07BD4680BC704780B400AF46F60C23C4F200031B8846F68C23C4F200031B889BB21846BD4680BC704700BFAE
:400D400080B500AF01E0FFF7CDFFFFF7AFFF034603F00803002BF6D180BD00BF80B485B000AF0346FB714FF4A243C4F200031B78DBB223F00403FB734FF4A243C4F20003DC
:400D8000FA794FEA8202D2B202F00402D1B2FA7B0A43D2B21A7007F11407BD4680BC704780B485B000AF0346FB7145F2F013C4F200031B78DBB223F00403FB7345F2F01389
:400DC000C4F20003FA794FEA8202D2B202F00402D1B2FA7B0A43D2B21A7007F11407BD4680BC704780B485B000AF0346FB7145F2F013C4F200031B78DBB223F00803FB73C6
:400E000045F2F013C4F20003FA794FEAC202D2B202F00802D1B2FA7B0A43D2B21A7007F11407BD4680BC704780B500AF48F22F13C1F6FF731B78002B08D100F00BF848F226
:400E40002F13C1F6FF734FF001021A7000F064F880BD00BF80B582B000AF46F27443C4F200031B78DBB223F03F03FB7146F27443C4F20003FA7942F00902D2B21A7046F2B6
:400E80009643C4F2000346F29642C4F200021278D2B242F00102D2B21A7046F29743C4F2000346F29742C4F200021278D2B242F00102D2B21A7044F6206000F041F844F685
:400EC000206000F05BF840F2DC5000F067F84FF03F0000F073F84FF0040000F07FF8FFF785FD0346BB7146F29753C4F2000346F29752C4F200021278D2B242F01002D2B288
:400F00001A70BB791846FFF775FD00F029F807F10807BD4680BD00BF80B400AF46F27443C4F2000346F27442C4F200021278D2B262F07F02D2B21A70BD4680BC704700BF41
:400F400080B483B000AF0346FB8046F60C03C4F20003FA881A8007F10C07BD4680BC704780B500AF01E000F059F800F047F8034603F01003002BF6D180BD00BF80B483B09D
:400F800000AF0346FB8046F68C03C4F20003FA881A8007F10C07BD4680BC704780B483B000AF0346FB8046F64C03C4F20003FA881A8007F10C07BD4680BC704780B483B07B
:400FC00000AF0346FB8046F66C03C4F20003FA881A8007F10C07BD4680BC704780B483B000AF0346FB7146F28753C4F20003FA791A7007F10C07BD4680BC704780B483B002
:4010000000AF46F26753C4F200031B78FB71FB79184607F10C07BD4680BC704780B400AF46F6AC03C4F200031B889BB21846BD4680BC704780B582B000AF786000F042F8A1
:40104000786800F00BF84FF0070000F01BF800F02DF807F10807BD4680BD00BF80B485B000AF78604EF60853CEF200031B68FB60FB6803F140037A681A6007F11407BD46FD
:4010800080BC704780B483B000AF0346FB714FF46443CEF20003FA794FEA4212D2B21A7007F10C07BD4680BC704700BF80B400AF4FF46143CEF200034FF001021A60BD46AB
:4010C00080BC704780B400AF4EF28013CEF200034FF001021A60BD4680BC704738B50E4D0E4B0024E81A8510AC4205D00B4951F8242090470134F7E700F040F80849094A1C
:40110000541AA5100024AC4205D0054B53F8240080470134F7E738BD8811000088110000881100009011000010B50023934203D0CC5CC4540133F9E710BD82180346934242
:4011400002D003F8011BFAE7704700000000000010510040100040510040300000000140001000140140000800400140000A004C014000020050014020000000F8B500BF57
:40118000F8BC08BC9E46704751000000C9040000F8B500BFF8BC08BC9E4670472D000000B01100000881FF1F080000003800000000000000000000000000000000000000AA
:4011C00000000000000000000000000000000000000000000000000000000000000000000000000000000000000000000000000000000000000000000000000000000000EF
:4012000000000000000000000000000000000000000000000000000000000000000000000000000000000000000000000000000000000000000000000000000000000000AE
:40124000000000000000000000000000000000000000000000000000000000000000000000000000000000000000000000000000000000000000000000000000000000006E
:40128000000000000000000000000000000000000000000000000000000000000000000000000000000000000000000000000000000000000000000000000000000000002E
:020000040003F7
:0200000480007A
:4000000008520040036400400265004041000140310101404F020140460301404C04014047050140560601404407014001090140020B0140010D0140011501404D1601409D
:400040003A17014003400140104101400742014002430140064501400646014002470140044801400C49014005500140015101400008010804F1140E1804190C60047C2070
:40008000800F86728738860D872F09090A020C021001130E1503170C19101A041D031E021F04220228022D032F0430023201330F340435103B083E053F104036410445E0E4
:4000C00046BC480E49FF4AFF4BFF4EF04F44500C5401580459045A045B045C215D225F0166C06A406B02840385018A0390019501960398039C02A403A501A901AA03B5014F
:40010000B603BF10D804D904DC02DF010010030204040704080109200A020C040D400E040F4010801208162819141A401E0120082104220826102B022E282F1430A0320990
:40014000370438103C043D08410443024804490150805110580159055A405B10C063C2FBC46ACA68CC4FCE44D003D204D60F041F0501081F100A12D114141649170118016A
:4001800019021A262701290130803218330234073660370139803E403F044062410342054401450C46E0480949FF4AFF4BFF4C624DA04EF04F41500C580459045A045B0490
:4001C0005C225D025F016640670269106A306B106D106E106F128510870C880489148A018C018E06951C97029B039E079F10A004A109A310A801AA02AD0CAF11B207B51F14
:40020000BA08D804D904DB04DC22DF0100100302042808400A020E140F4010801208181019041C801D801E1422302680272028402B022F14308031043210362037043928F6
:400240003D084404458447104D204E024F08561058915B085C045D415F1065206708814083208810890191289201941095809606976899109C049F04A218A420A524A702A8
:40028000B480B710C063C271C40ACA69CC6ECE46D070D230D6FFE48005030B040E0312071302180619081F042002210325012A05300731083303350439083A023F144003DE
:4002C0004615480C49FF4A074BFF4C404D204EF04F0550085280580459045A045B045C225D125F01604061A86240632081078318840C851F880489088C088F04900F910457
:400300009403951C960C970298039B039C02A00FA40CA51CA603A701A918AA03AC01AD10B20FB51FBA08BB28D804D904DC22DF010302041005800620081009020D400E14F3
:400340000F801080120414021502171419011B021E101F04210A222125042704281029052D802E202F103020310232803402371439083A143CB03D083E02410850A0734064
:4003800091889205942896029728980299149A109C019F14A040A290A304A4A0A524A602A702A804A940AA10AC02AF50B308B480C0E1C2FAC4FACA73CCEDCEF6D00201018E
:4003C000030605070601080609080A010C040D0810071401150716061A081B011D041E08200621062201230124062502280229062D0831073308340736083A203E40403002
:40040000410649FF4AFF4BFF4DA04F04501856025711580459045A045B045C225D215F01604062C06440654066C068C06AC06CC06EC0C030C106C5D5C610C702C81BC9FFE8
:40044000CAFFCBFFCDAFCE0FCF04D018D418D604DA04DB04DD21DF01E040E2C0E440E540E6C0E8C0EAC0ECC0EEC0058007140E120F881440150216241D401F10260327102F
:400480002C422E28358037143C013D5841084508482049014A084E0C512052085A015E206080614062206C146D5074107580762C850187109211934094289502972099106D
:4004C0009B049D809E209F10A104A230A344A410A520A602A904AB40AE02AF04B001C0E0C2F0C470CAF0CC70CEF0D042D224D621D80DEE20EA10EE80E220AFA00F0212019F
:4005000017011A0127022F013302360137013F40404649FF4AFF4BFF4F01501852805401580459045A045B045C115D225F016040624064406540668068806A806C806E80ED
:40054000840288018F029B04A602A701A904B001B104B302B402B501B808BE01C046C5ECC702C813C9FFCAFFCBFFCD83CE03CF01D018D427D604D804D904DA04DB04DC1172
:40058000DD12DF01E040E240E440E540E680E880EA80EC80EE8000140D200F401030181019221F8020042108238026402720281029102C202E80312036083B403F404280AA
:4005C00046404A084B054E08520859215A085B805E805F056008610276C0840885028902920893409911A020A120A508A801AA10B492C006C250C404CA56CC44CE18D08196
:40060000D224D6DFD805E620EA1030203740CC3000080A010B800E080F805F80820483808A019F40A420C010C2F0D620E280E4209F40A420AB40AC04AF40E830EC409F4068
:40064000A4200308052006208B08C007E2040610B220B520C004EA08EE01B210EE0488208940A420B74057015B807D809B80A140A301AF81D480D620DE20EA40EE10000668
:4006800008060A0610061A06000F00000800F10E06000800000000000004040004000000200C0C00000000000E000000000000000400000C08000C0000000000000000004C
:4006C00000000000000000000000000000000000000000000000000000000000000000000000000000000000000000000000000000000000000000000000000000000000FA
:4007000000000000000000000000000000000000000000000000000000000000000000000000000000000000000000000000000000000000000000000000000000000000B9
:400740000000000000000000000000000000000000000000000000000000000000000000000000000000000000000000000000000000000000000000000000000000000079
:400780000000000000000000000000000000000000000000000000000000000000000000000000000000000000000000000000000000000000000000000000000000000039
:0200000490006A
:0400000000004007B5
:0200000490105A
:04000000BC90ACAF55
:0200000490303A
:02000000C57BBE
:0200000490402A
:4000000000000000000000000000000000000000000000000000000000000000000000000000000000000000000000000000000000000000000000000000000000000000C0
:400040000000000000000000000000000000000000000000000000000000000000000000000000000000000000000000000000000000000000000000000000000000000080
:400080000000000000000000000000000000000000000000000000000000000000000000000000000000000000000000000000000000000000000000000000000000000040
:4000C0000000000000000000000000000000000000000000000000000000000000000000000000000000000000000000000000000000000000000000000000000000000000
:0200000490501A
:0C00000000012E11E06900012E1BA5E498
:00000001FF