ARM GAS  C:\Users\RIEKOH~1\AppData\Local\Temp\ccHe7PJD.s 			page 1


   1              		.syntax unified
   2              		.cpu cortex-m3
   3              		.fpu softvfp
   4              		.eabi_attribute 20, 1
   5              		.eabi_attribute 21, 1
   6              		.eabi_attribute 23, 3
   7              		.eabi_attribute 24, 1
   8              		.eabi_attribute 25, 1
   9              		.eabi_attribute 26, 1
  10              		.eabi_attribute 30, 6
  11              		.eabi_attribute 34, 1
  12              		.eabi_attribute 18, 4
  13              		.thumb
  14              		.file	"cymetadata.c"
  15              		.text
  16              	.Ltext0:
  17              		.cfi_sections	.debug_frame
  18              		.global	cy_meta_configecc
  19              		.section	.cyconfigecc,"a",%progbits
  20              		.align	2
  21              		.type	cy_meta_configecc, %object
  22              		.size	cy_meta_configecc, 1592
  23              	cy_meta_configecc:
  24 0000 05       		.byte	5
  25 0001 52       		.byte	82
  26 0002 00       		.byte	0
  27 0003 40       		.byte	64
  28 0004 04       		.byte	4
  29 0005 64       		.byte	100
  30 0006 00       		.byte	0
  31 0007 40       		.byte	64
  32 0008 01       		.byte	1
  33 0009 65       		.byte	101
  34 000a 00       		.byte	0
  35 000b 40       		.byte	64
  36 000c 43       		.byte	67
  37 000d 00       		.byte	0
  38 000e 01       		.byte	1
  39 000f 40       		.byte	64
  40 0010 2B       		.byte	43
  41 0011 01       		.byte	1
  42 0012 01       		.byte	1
  43 0013 40       		.byte	64
  44 0014 45       		.byte	69
  45 0015 02       		.byte	2
  46 0016 01       		.byte	1
  47 0017 40       		.byte	64
  48 0018 3C       		.byte	60
  49 0019 03       		.byte	3
  50 001a 01       		.byte	1
  51 001b 40       		.byte	64
  52 001c 4C       		.byte	76
  53 001d 04       		.byte	4
  54 001e 01       		.byte	1
  55 001f 40       		.byte	64
  56 0020 3E       		.byte	62
  57 0021 05       		.byte	5
ARM GAS  C:\Users\RIEKOH~1\AppData\Local\Temp\ccHe7PJD.s 			page 2


  58 0022 01       		.byte	1
  59 0023 40       		.byte	64
  60 0024 52       		.byte	82
  61 0025 06       		.byte	6
  62 0026 01       		.byte	1
  63 0027 40       		.byte	64
  64 0028 36       		.byte	54
  65 0029 07       		.byte	7
  66 002a 01       		.byte	1
  67 002b 40       		.byte	64
  68 002c 01       		.byte	1
  69 002d 0B       		.byte	11
  70 002e 01       		.byte	1
  71 002f 40       		.byte	64
  72 0030 02       		.byte	2
  73 0031 0D       		.byte	13
  74 0032 01       		.byte	1
  75 0033 40       		.byte	64
  76 0034 02       		.byte	2
  77 0035 15       		.byte	21
  78 0036 01       		.byte	1
  79 0037 40       		.byte	64
  80 0038 52       		.byte	82
  81 0039 16       		.byte	22
  82 003a 01       		.byte	1
  83 003b 40       		.byte	64
  84 003c 30       		.byte	48
  85 003d 17       		.byte	23
  86 003e 01       		.byte	1
  87 003f 40       		.byte	64
  88 0040 05       		.byte	5
  89 0041 40       		.byte	64
  90 0042 01       		.byte	1
  91 0043 40       		.byte	64
  92 0044 0C       		.byte	12
  93 0045 41       		.byte	65
  94 0046 01       		.byte	1
  95 0047 40       		.byte	64
  96 0048 07       		.byte	7
  97 0049 42       		.byte	66
  98 004a 01       		.byte	1
  99 004b 40       		.byte	64
 100 004c 03       		.byte	3
 101 004d 43       		.byte	67
 102 004e 01       		.byte	1
 103 004f 40       		.byte	64
 104 0050 08       		.byte	8
 105 0051 45       		.byte	69
 106 0052 01       		.byte	1
 107 0053 40       		.byte	64
 108 0054 03       		.byte	3
 109 0055 46       		.byte	70
 110 0056 01       		.byte	1
 111 0057 40       		.byte	64
 112 0058 03       		.byte	3
 113 0059 48       		.byte	72
 114 005a 01       		.byte	1
ARM GAS  C:\Users\RIEKOH~1\AppData\Local\Temp\ccHe7PJD.s 			page 3


 115 005b 40       		.byte	64
 116 005c 0C       		.byte	12
 117 005d 49       		.byte	73
 118 005e 01       		.byte	1
 119 005f 40       		.byte	64
 120 0060 05       		.byte	5
 121 0061 50       		.byte	80
 122 0062 01       		.byte	1
 123 0063 40       		.byte	64
 124 0064 01       		.byte	1
 125 0065 51       		.byte	81
 126 0066 01       		.byte	1
 127 0067 40       		.byte	64
 128 0068 04       		.byte	4
 129 0069 F1       		.byte	-15
 130 006a 14       		.byte	20
 131 006b 0F       		.byte	15
 132 006c 18       		.byte	24
 133 006d 08       		.byte	8
 134 006e 19       		.byte	25
 135 006f 0C       		.byte	12
 136 0070 60       		.byte	96
 137 0071 04       		.byte	4
 138 0072 80       		.byte	-128
 139 0073 38       		.byte	56
 140 0074 81       		.byte	-127
 141 0075 72       		.byte	114
 142 0076 86       		.byte	-122
 143 0077 0F       		.byte	15
 144 0078 87       		.byte	-121
 145 0079 0D       		.byte	13
 146 007a 87       		.byte	-121
 147 007b 2F       		.byte	47
 148 007c 54       		.byte	84
 149 007d 18       		.byte	24
 150 007e 56       		.byte	86
 151 007f 04       		.byte	4
 152 0080 5B       		.byte	91
 153 0081 04       		.byte	4
 154 0082 5D       		.byte	93
 155 0083 20       		.byte	32
 156 0084 5F       		.byte	95
 157 0085 01       		.byte	1
 158 0086 80       		.byte	-128
 159 0087 12       		.byte	18
 160 0088 82       		.byte	-126
 161 0089 44       		.byte	68
 162 008a 83       		.byte	-125
 163 008b 01       		.byte	1
 164 008c 86       		.byte	-122
 165 008d 03       		.byte	3
 166 008e 87       		.byte	-121
 167 008f 02       		.byte	2
 168 0090 8B       		.byte	-117
 169 0091 01       		.byte	1
 170 0092 90       		.byte	-112
 171 0093 09       		.byte	9
ARM GAS  C:\Users\RIEKOH~1\AppData\Local\Temp\ccHe7PJD.s 			page 4


 172 0094 92       		.byte	-110
 173 0095 44       		.byte	68
 174 0096 93       		.byte	-109
 175 0097 04       		.byte	4
 176 0098 94       		.byte	-108
 177 0099 07       		.byte	7
 178 009a 96       		.byte	-106
 179 009b 38       		.byte	56
 180 009c 97       		.byte	-105
 181 009d 04       		.byte	4
 182 009e 98       		.byte	-104
 183 009f 03       		.byte	3
 184 00a0 9E       		.byte	-98
 185 00a1 03       		.byte	3
 186 00a2 A0       		.byte	-96
 187 00a3 03       		.byte	3
 188 00a4 A4       		.byte	-92
 189 00a5 1C       		.byte	28
 190 00a6 A5       		.byte	-91
 191 00a7 04       		.byte	4
 192 00a8 A8       		.byte	-88
 193 00a9 1C       		.byte	28
 194 00aa AB       		.byte	-85
 195 00ab 02       		.byte	2
 196 00ac AD       		.byte	-83
 197 00ad 04       		.byte	4
 198 00ae AE       		.byte	-82
 199 00af 03       		.byte	3
 200 00b0 B0       		.byte	-80
 201 00b1 03       		.byte	3
 202 00b2 B2       		.byte	-78
 203 00b3 1C       		.byte	28
 204 00b4 B3       		.byte	-77
 205 00b5 04       		.byte	4
 206 00b6 B5       		.byte	-75
 207 00b7 02       		.byte	2
 208 00b8 B6       		.byte	-74
 209 00b9 60       		.byte	96
 210 00ba B7       		.byte	-73
 211 00bb 01       		.byte	1
 212 00bc B9       		.byte	-71
 213 00bd 08       		.byte	8
 214 00be BE       		.byte	-66
 215 00bf 40       		.byte	64
 216 00c0 BF       		.byte	-65
 217 00c1 50       		.byte	80
 218 00c2 C0       		.byte	-64
 219 00c3 65       		.byte	101
 220 00c4 C1       		.byte	-63
 221 00c5 02       		.byte	2
 222 00c6 C2       		.byte	-62
 223 00c7 04       		.byte	4
 224 00c8 C4       		.byte	-60
 225 00c9 01       		.byte	1
 226 00ca C6       		.byte	-58
 227 00cb C0       		.byte	-64
 228 00cc C7       		.byte	-57
ARM GAS  C:\Users\RIEKOH~1\AppData\Local\Temp\ccHe7PJD.s 			page 5


 229 00cd 0E       		.byte	14
 230 00ce C8       		.byte	-56
 231 00cf 18       		.byte	24
 232 00d0 C9       		.byte	-55
 233 00d1 FF       		.byte	-1
 234 00d2 CA       		.byte	-54
 235 00d3 FF       		.byte	-1
 236 00d4 CB       		.byte	-53
 237 00d5 FF       		.byte	-1
 238 00d6 CC       		.byte	-52
 239 00d7 62       		.byte	98
 240 00d8 CD       		.byte	-51
 241 00d9 A0       		.byte	-96
 242 00da CE       		.byte	-50
 243 00db F0       		.byte	-16
 244 00dc CF       		.byte	-49
 245 00dd 41       		.byte	65
 246 00de D0       		.byte	-48
 247 00df 0C       		.byte	12
 248 00e0 D6       		.byte	-42
 249 00e1 02       		.byte	2
 250 00e2 D7       		.byte	-41
 251 00e3 11       		.byte	17
 252 00e4 D8       		.byte	-40
 253 00e5 04       		.byte	4
 254 00e6 D9       		.byte	-39
 255 00e7 04       		.byte	4
 256 00e8 DA       		.byte	-38
 257 00e9 04       		.byte	4
 258 00ea DB       		.byte	-37
 259 00eb 04       		.byte	4
 260 00ec DC       		.byte	-36
 261 00ed 22       		.byte	34
 262 00ee DD       		.byte	-35
 263 00ef 22       		.byte	34
 264 00f0 DF       		.byte	-33
 265 00f1 01       		.byte	1
 266 00f2 E6       		.byte	-26
 267 00f3 40       		.byte	64
 268 00f4 E7       		.byte	-25
 269 00f5 02       		.byte	2
 270 00f6 E9       		.byte	-23
 271 00f7 10       		.byte	16
 272 00f8 EA       		.byte	-22
 273 00f9 30       		.byte	48
 274 00fa EB       		.byte	-21
 275 00fb 10       		.byte	16
 276 00fc ED       		.byte	-19
 277 00fd 10       		.byte	16
 278 00fe EE       		.byte	-18
 279 00ff 10       		.byte	16
 280 0100 EF       		.byte	-17
 281 0101 12       		.byte	18
 282 0102 05       		.byte	5
 283 0103 04       		.byte	4
 284 0104 06       		.byte	6
 285 0105 80       		.byte	-128
ARM GAS  C:\Users\RIEKOH~1\AppData\Local\Temp\ccHe7PJD.s 			page 6


 286 0106 08       		.byte	8
 287 0107 40       		.byte	64
 288 0108 0B       		.byte	11
 289 0109 02       		.byte	2
 290 010a 0D       		.byte	13
 291 010b 20       		.byte	32
 292 010c 0E       		.byte	14
 293 010d 12       		.byte	18
 294 010e 0F       		.byte	15
 295 010f 40       		.byte	64
 296 0110 14       		.byte	20
 297 0111 40       		.byte	64
 298 0112 17       		.byte	23
 299 0113 54       		.byte	84
 300 0114 1D       		.byte	29
 301 0115 81       		.byte	-127
 302 0116 1E       		.byte	30
 303 0117 10       		.byte	16
 304 0118 24       		.byte	36
 305 0119 05       		.byte	5
 306 011a 25       		.byte	37
 307 011b 04       		.byte	4
 308 011c 2F       		.byte	47
 309 011d 19       		.byte	25
 310 011e 35       		.byte	53
 311 011f 04       		.byte	4
 312 0120 36       		.byte	54
 313 0121 01       		.byte	1
 314 0122 3D       		.byte	61
 315 0123 0A       		.byte	10
 316 0124 3F       		.byte	63
 317 0125 20       		.byte	32
 318 0126 45       		.byte	69
 319 0127 A1       		.byte	-95
 320 0128 4C       		.byte	76
 321 0129 08       		.byte	8
 322 012a 4D       		.byte	77
 323 012b 80       		.byte	-128
 324 012c 57       		.byte	87
 325 012d 18       		.byte	24
 326 012e 59       		.byte	89
 327 012f A1       		.byte	-95
 328 0130 5A       		.byte	90
 329 0131 10       		.byte	16
 330 0132 5B       		.byte	91
 331 0133 40       		.byte	64
 332 0134 5C       		.byte	92
 333 0135 10       		.byte	16
 334 0136 60       		.byte	96
 335 0137 05       		.byte	5
 336 0138 62       		.byte	98
 337 0139 02       		.byte	2
 338 013a 6D       		.byte	109
 339 013b 04       		.byte	4
 340 013c 6E       		.byte	110
 341 013d 08       		.byte	8
 342 013e 6F       		.byte	111
ARM GAS  C:\Users\RIEKOH~1\AppData\Local\Temp\ccHe7PJD.s 			page 7


 343 013f 15       		.byte	21
 344 0140 77       		.byte	119
 345 0141 2A       		.byte	42
 346 0142 82       		.byte	-126
 347 0143 02       		.byte	2
 348 0144 C0       		.byte	-64
 349 0145 30       		.byte	48
 350 0146 C2       		.byte	-62
 351 0147 F0       		.byte	-16
 352 0148 C4       		.byte	-60
 353 0149 F0       		.byte	-16
 354 014a CA       		.byte	-54
 355 014b 70       		.byte	112
 356 014c CC       		.byte	-52
 357 014d C0       		.byte	-64
 358 014e CE       		.byte	-50
 359 014f E0       		.byte	-32
 360 0150 D0       		.byte	-48
 361 0151 B0       		.byte	-80
 362 0152 D2       		.byte	-46
 363 0153 30       		.byte	48
 364 0154 D6       		.byte	-42
 365 0155 21       		.byte	33
 366 0156 D8       		.byte	-40
 367 0157 0D       		.byte	13
 368 0158 00       		.byte	0
 369 0159 02       		.byte	2
 370 015a 04       		.byte	4
 371 015b 8F       		.byte	-113
 372 015c 05       		.byte	5
 373 015d 01       		.byte	1
 374 015e 06       		.byte	6
 375 015f 20       		.byte	32
 376 0160 08       		.byte	8
 377 0161 03       		.byte	3
 378 0162 0C       		.byte	12
 379 0163 08       		.byte	8
 380 0164 10       		.byte	16
 381 0165 81       		.byte	-127
 382 0166 11       		.byte	17
 383 0167 01       		.byte	1
 384 0168 12       		.byte	18
 385 0169 10       		.byte	16
 386 016a 15       		.byte	21
 387 016b 01       		.byte	1
 388 016c 16       		.byte	22
 389 016d 80       		.byte	-128
 390 016e 18       		.byte	24
 391 016f EF       		.byte	-17
 392 0170 1C       		.byte	28
 393 0171 8C       		.byte	-116
 394 0172 1E       		.byte	30
 395 0173 43       		.byte	67
 396 0174 20       		.byte	32
 397 0175 E3       		.byte	-29
 398 0176 22       		.byte	34
 399 0177 0C       		.byte	12
ARM GAS  C:\Users\RIEKOH~1\AppData\Local\Temp\ccHe7PJD.s 			page 8


 400 0178 24       		.byte	36
 401 0179 04       		.byte	4
 402 017a 28       		.byte	40
 403 017b 0C       		.byte	12
 404 017c 2E       		.byte	46
 405 017d 63       		.byte	99
 406 017e 30       		.byte	48
 407 017f 0F       		.byte	15
 408 0180 31       		.byte	49
 409 0181 01       		.byte	1
 410 0182 32       		.byte	50
 411 0183 10       		.byte	16
 412 0184 36       		.byte	54
 413 0185 EC       		.byte	-20
 414 0186 3A       		.byte	58
 415 0187 A2       		.byte	-94
 416 0188 58       		.byte	88
 417 0189 04       		.byte	4
 418 018a 59       		.byte	89
 419 018b 04       		.byte	4
 420 018c 5B       		.byte	91
 421 018d 04       		.byte	4
 422 018e 5C       		.byte	92
 423 018f 22       		.byte	34
 424 0190 5F       		.byte	95
 425 0191 01       		.byte	1
 426 0192 86       		.byte	-122
 427 0193 02       		.byte	2
 428 0194 8D       		.byte	-115
 429 0195 01       		.byte	1
 430 0196 8F       		.byte	-113
 431 0197 02       		.byte	2
 432 0198 90       		.byte	-112
 433 0199 03       		.byte	3
 434 019a 91       		.byte	-111
 435 019b 04       		.byte	4
 436 019c 93       		.byte	-109
 437 019d 01       		.byte	1
 438 019e 95       		.byte	-107
 439 019f 04       		.byte	4
 440 01a0 9B       		.byte	-101
 441 01a1 07       		.byte	7
 442 01a2 9D       		.byte	-99
 443 01a3 01       		.byte	1
 444 01a4 9F       		.byte	-97
 445 01a5 06       		.byte	6
 446 01a6 A0       		.byte	-96
 447 01a7 03       		.byte	3
 448 01a8 AC       		.byte	-84
 449 01a9 01       		.byte	1
 450 01aa B1       		.byte	-79
 451 01ab 07       		.byte	7
 452 01ac B4       		.byte	-76
 453 01ad 03       		.byte	3
 454 01ae B8       		.byte	-72
 455 01af 20       		.byte	32
 456 01b0 BB       		.byte	-69
ARM GAS  C:\Users\RIEKOH~1\AppData\Local\Temp\ccHe7PJD.s 			page 9


 457 01b1 02       		.byte	2
 458 01b2 BE       		.byte	-66
 459 01b3 10       		.byte	16
 460 01b4 C0       		.byte	-64
 461 01b5 02       		.byte	2
 462 01b6 C5       		.byte	-59
 463 01b7 01       		.byte	1
 464 01b8 C7       		.byte	-57
 465 01b9 05       		.byte	5
 466 01ba C8       		.byte	-56
 467 01bb 11       		.byte	17
 468 01bc C9       		.byte	-55
 469 01bd FF       		.byte	-1
 470 01be CA       		.byte	-54
 471 01bf 07       		.byte	7
 472 01c0 CB       		.byte	-53
 473 01c1 FF       		.byte	-1
 474 01c2 CC       		.byte	-52
 475 01c3 40       		.byte	64
 476 01c4 CD       		.byte	-51
 477 01c5 20       		.byte	32
 478 01c6 CE       		.byte	-50
 479 01c7 F0       		.byte	-16
 480 01c8 CF       		.byte	-49
 481 01c9 05       		.byte	5
 482 01ca D0       		.byte	-48
 483 01cb 08       		.byte	8
 484 01cc D8       		.byte	-40
 485 01cd 04       		.byte	4
 486 01ce D9       		.byte	-39
 487 01cf 04       		.byte	4
 488 01d0 DA       		.byte	-38
 489 01d1 04       		.byte	4
 490 01d2 DB       		.byte	-37
 491 01d3 04       		.byte	4
 492 01d4 DC       		.byte	-36
 493 01d5 20       		.byte	32
 494 01d6 DD       		.byte	-35
 495 01d7 02       		.byte	2
 496 01d8 DF       		.byte	-33
 497 01d9 01       		.byte	1
 498 01da E0       		.byte	-32
 499 01db 40       		.byte	64
 500 01dc E1       		.byte	-31
 501 01dd A8       		.byte	-88
 502 01de E2       		.byte	-30
 503 01df 40       		.byte	64
 504 01e0 E3       		.byte	-29
 505 01e1 20       		.byte	32
 506 01e2 00       		.byte	0
 507 01e3 08       		.byte	8
 508 01e4 02       		.byte	2
 509 01e5 20       		.byte	32
 510 01e6 05       		.byte	5
 511 01e7 24       		.byte	36
 512 01e8 06       		.byte	6
 513 01e9 80       		.byte	-128
ARM GAS  C:\Users\RIEKOH~1\AppData\Local\Temp\ccHe7PJD.s 			page 10


 514 01ea 07       		.byte	7
 515 01eb 02       		.byte	2
 516 01ec 0B       		.byte	11
 517 01ed 80       		.byte	-128
 518 01ee 0D       		.byte	13
 519 01ef 20       		.byte	32
 520 01f0 0E       		.byte	14
 521 01f1 22       		.byte	34
 522 01f2 0F       		.byte	15
 523 01f3 40       		.byte	64
 524 01f4 12       		.byte	18
 525 01f5 82       		.byte	-126
 526 01f6 14       		.byte	20
 527 01f7 40       		.byte	64
 528 01f8 17       		.byte	23
 529 01f9 68       		.byte	104
 530 01fa 18       		.byte	24
 531 01fb 04       		.byte	4
 532 01fc 1C       		.byte	28
 533 01fd 80       		.byte	-128
 534 01fe 1D       		.byte	29
 535 01ff 20       		.byte	32
 536 0200 1E       		.byte	30
 537 0201 22       		.byte	34
 538 0202 1F       		.byte	31
 539 0203 11       		.byte	17
 540 0204 22       		.byte	34
 541 0205 02       		.byte	2
 542 0206 27       		.byte	39
 543 0207 40       		.byte	64
 544 0208 32       		.byte	50
 545 0209 A2       		.byte	-94
 546 020a 33       		.byte	51
 547 020b 08       		.byte	8
 548 020c 37       		.byte	55
 549 020d 05       		.byte	5
 550 020e 3B       		.byte	59
 551 020f 80       		.byte	-128
 552 0210 3D       		.byte	61
 553 0211 04       		.byte	4
 554 0212 40       		.byte	64
 555 0213 04       		.byte	4
 556 0214 48       		.byte	72
 557 0215 11       		.byte	17
 558 0216 4A       		.byte	74
 559 0217 02       		.byte	2
 560 0218 53       		.byte	83
 561 0219 08       		.byte	8
 562 021a 58       		.byte	88
 563 021b 82       		.byte	-126
 564 021c 59       		.byte	89
 565 021d 08       		.byte	8
 566 021e 5B       		.byte	91
 567 021f 10       		.byte	16
 568 0220 5D       		.byte	93
 569 0221 82       		.byte	-126
 570 0222 5F       		.byte	95
ARM GAS  C:\Users\RIEKOH~1\AppData\Local\Temp\ccHe7PJD.s 			page 11


 571 0223 14       		.byte	20
 572 0224 81       		.byte	-127
 573 0225 08       		.byte	8
 574 0226 85       		.byte	-123
 575 0227 80       		.byte	-128
 576 0228 86       		.byte	-122
 577 0229 84       		.byte	-124
 578 022a 88       		.byte	-120
 579 022b 02       		.byte	2
 580 022c 8D       		.byte	-115
 581 022d 02       		.byte	2
 582 022e 91       		.byte	-111
 583 022f 04       		.byte	4
 584 0230 94       		.byte	-108
 585 0231 10       		.byte	16
 586 0232 97       		.byte	-105
 587 0233 62       		.byte	98
 588 0234 98       		.byte	-104
 589 0235 40       		.byte	64
 590 0236 99       		.byte	-103
 591 0237 20       		.byte	32
 592 0238 9B       		.byte	-101
 593 0239 2F       		.byte	47
 594 023a 9D       		.byte	-99
 595 023b 04       		.byte	4
 596 023c 9E       		.byte	-98
 597 023d 80       		.byte	-128
 598 023e 9F       		.byte	-97
 599 023f 40       		.byte	64
 600 0240 A2       		.byte	-94
 601 0241 04       		.byte	4
 602 0242 A4       		.byte	-92
 603 0243 08       		.byte	8
 604 0244 A5       		.byte	-91
 605 0245 21       		.byte	33
 606 0246 A6       		.byte	-90
 607 0247 01       		.byte	1
 608 0248 C0       		.byte	-64
 609 0249 F4       		.byte	-12
 610 024a C2       		.byte	-62
 611 024b F8       		.byte	-8
 612 024c C4       		.byte	-60
 613 024d F9       		.byte	-7
 614 024e CC       		.byte	-52
 615 024f CF       		.byte	-49
 616 0250 CE       		.byte	-50
 617 0251 48       		.byte	72
 618 0252 D0       		.byte	-48
 619 0253 04       		.byte	4
 620 0254 D6       		.byte	-42
 621 0255 FF       		.byte	-1
 622 0256 E0       		.byte	-32
 623 0257 40       		.byte	64
 624 0258 E6       		.byte	-26
 625 0259 04       		.byte	4
 626 025a 05       		.byte	5
 627 025b 28       		.byte	40
ARM GAS  C:\Users\RIEKOH~1\AppData\Local\Temp\ccHe7PJD.s 			page 12


 628 025c 11       		.byte	17
 629 025d 38       		.byte	56
 630 025e 13       		.byte	19
 631 025f 04       		.byte	4
 632 0260 17       		.byte	23
 633 0261 06       		.byte	6
 634 0262 18       		.byte	24
 635 0263 01       		.byte	1
 636 0264 19       		.byte	25
 637 0265 12       		.byte	18
 638 0266 1B       		.byte	27
 639 0267 20       		.byte	32
 640 0268 1D       		.byte	29
 641 0269 18       		.byte	24
 642 026a 1F       		.byte	31
 643 026b 22       		.byte	34
 644 026c 21       		.byte	33
 645 026d 20       		.byte	32
 646 026e 23       		.byte	35
 647 026f 18       		.byte	24
 648 0270 25       		.byte	37
 649 0271 01       		.byte	1
 650 0272 2B       		.byte	43
 651 0273 20       		.byte	32
 652 0274 30       		.byte	48
 653 0275 01       		.byte	1
 654 0276 33       		.byte	51
 655 0277 3E       		.byte	62
 656 0278 35       		.byte	53
 657 0279 01       		.byte	1
 658 027a 3E       		.byte	62
 659 027b 01       		.byte	1
 660 027c 58       		.byte	88
 661 027d 04       		.byte	4
 662 027e 59       		.byte	89
 663 027f 04       		.byte	4
 664 0280 5C       		.byte	92
 665 0281 20       		.byte	32
 666 0282 5F       		.byte	95
 667 0283 01       		.byte	1
 668 0284 80       		.byte	-128
 669 0285 02       		.byte	2
 670 0286 82       		.byte	-126
 671 0287 01       		.byte	1
 672 0288 84       		.byte	-124
 673 0289 18       		.byte	24
 674 028a 85       		.byte	-123
 675 028b 04       		.byte	4
 676 028c 86       		.byte	-122
 677 028d 04       		.byte	4
 678 028e 88       		.byte	-120
 679 028f 03       		.byte	3
 680 0290 89       		.byte	-119
 681 0291 01       		.byte	1
 682 0292 8C       		.byte	-116
 683 0293 10       		.byte	16
 684 0294 90       		.byte	-112
ARM GAS  C:\Users\RIEKOH~1\AppData\Local\Temp\ccHe7PJD.s 			page 13


 685 0295 01       		.byte	1
 686 0296 91       		.byte	-111
 687 0297 0E       		.byte	14
 688 0298 92       		.byte	-110
 689 0299 02       		.byte	2
 690 029a 94       		.byte	-108
 691 029b 1C       		.byte	28
 692 029c 95       		.byte	-107
 693 029d 0C       		.byte	12
 694 029e 97       		.byte	-105
 695 029f 02       		.byte	2
 696 02a0 98       		.byte	-104
 697 02a1 03       		.byte	3
 698 02a2 99       		.byte	-103
 699 02a3 0C       		.byte	12
 700 02a4 9C       		.byte	-100
 701 02a5 18       		.byte	24
 702 02a6 9E       		.byte	-98
 703 02a7 04       		.byte	4
 704 02a8 9F       		.byte	-97
 705 02a9 02       		.byte	2
 706 02aa A0       		.byte	-96
 707 02ab 04       		.byte	4
 708 02ac A1       		.byte	-95
 709 02ad 08       		.byte	8
 710 02ae A2       		.byte	-94
 711 02af 18       		.byte	24
 712 02b0 A4       		.byte	-92
 713 02b1 08       		.byte	8
 714 02b2 A5       		.byte	-91
 715 02b3 0E       		.byte	14
 716 02b4 A8       		.byte	-88
 717 02b5 18       		.byte	24
 718 02b6 AD       		.byte	-83
 719 02b7 02       		.byte	2
 720 02b8 AE       		.byte	-82
 721 02b9 04       		.byte	4
 722 02ba AF       		.byte	-81
 723 02bb 0C       		.byte	12
 724 02bc B1       		.byte	-79
 725 02bd 0E       		.byte	14
 726 02be B2       		.byte	-78
 727 02bf 1C       		.byte	28
 728 02c0 B3       		.byte	-77
 729 02c1 01       		.byte	1
 730 02c2 B4       		.byte	-76
 731 02c3 03       		.byte	3
 732 02c4 BA       		.byte	-70
 733 02c5 08       		.byte	8
 734 02c6 BF       		.byte	-65
 735 02c7 04       		.byte	4
 736 02c8 C0       		.byte	-64
 737 02c9 43       		.byte	67
 738 02ca C1       		.byte	-63
 739 02cb 05       		.byte	5
 740 02cc C5       		.byte	-59
 741 02cd E0       		.byte	-32
ARM GAS  C:\Users\RIEKOH~1\AppData\Local\Temp\ccHe7PJD.s 			page 14


 742 02ce C6       		.byte	-58
 743 02cf C0       		.byte	-64
 744 02d0 C7       		.byte	-57
 745 02d1 0B       		.byte	11
 746 02d2 C8       		.byte	-56
 747 02d3 1A       		.byte	26
 748 02d4 C9       		.byte	-55
 749 02d5 FF       		.byte	-1
 750 02d6 CA       		.byte	-54
 751 02d7 FF       		.byte	-1
 752 02d8 CB       		.byte	-53
 753 02d9 FF       		.byte	-1
 754 02da CE       		.byte	-50
 755 02db F0       		.byte	-16
 756 02dc CF       		.byte	-49
 757 02dd 44       		.byte	68
 758 02de D0       		.byte	-48
 759 02df 0C       		.byte	12
 760 02e0 D8       		.byte	-40
 761 02e1 04       		.byte	4
 762 02e2 D9       		.byte	-39
 763 02e3 04       		.byte	4
 764 02e4 DA       		.byte	-38
 765 02e5 04       		.byte	4
 766 02e6 DC       		.byte	-36
 767 02e7 22       		.byte	34
 768 02e8 DD       		.byte	-35
 769 02e9 02       		.byte	2
 770 02ea DF       		.byte	-33
 771 02eb 01       		.byte	1
 772 02ec E6       		.byte	-26
 773 02ed C0       		.byte	-64
 774 02ee EA       		.byte	-22
 775 02ef 40       		.byte	64
 776 02f0 EB       		.byte	-21
 777 02f1 02       		.byte	2
 778 02f2 05       		.byte	5
 779 02f3 04       		.byte	4
 780 02f4 06       		.byte	6
 781 02f5 82       		.byte	-126
 782 02f6 07       		.byte	7
 783 02f7 06       		.byte	6
 784 02f8 08       		.byte	8
 785 02f9 80       		.byte	-128
 786 02fa 0A       		.byte	10
 787 02fb 18       		.byte	24
 788 02fc 0B       		.byte	11
 789 02fd 22       		.byte	34
 790 02fe 0E       		.byte	14
 791 02ff 1A       		.byte	26
 792 0300 0F       		.byte	15
 793 0301 40       		.byte	64
 794 0302 14       		.byte	20
 795 0303 80       		.byte	-128
 796 0304 15       		.byte	21
 797 0305 04       		.byte	4
 798 0306 17       		.byte	23
ARM GAS  C:\Users\RIEKOH~1\AppData\Local\Temp\ccHe7PJD.s 			page 15


 799 0307 68       		.byte	104
 800 0308 1A       		.byte	26
 801 0309 80       		.byte	-128
 802 030a 1D       		.byte	29
 803 030b 04       		.byte	4
 804 030c 1E       		.byte	30
 805 030d 04       		.byte	4
 806 030e 1F       		.byte	31
 807 030f 04       		.byte	4
 808 0310 20       		.byte	32
 809 0311 08       		.byte	8
 810 0312 21       		.byte	33
 811 0313 20       		.byte	32
 812 0314 22       		.byte	34
 813 0315 04       		.byte	4
 814 0316 25       		.byte	37
 815 0317 09       		.byte	9
 816 0318 28       		.byte	40
 817 0319 40       		.byte	64
 818 031a 2B       		.byte	43
 819 031b 18       		.byte	24
 820 031c 2E       		.byte	46
 821 031d 02       		.byte	2
 822 031e 2F       		.byte	47
 823 031f 11       		.byte	17
 824 0320 31       		.byte	49
 825 0321 20       		.byte	32
 826 0322 32       		.byte	50
 827 0323 86       		.byte	-122
 828 0324 35       		.byte	53
 829 0325 04       		.byte	4
 830 0326 36       		.byte	54
 831 0327 01       		.byte	1
 832 0328 37       		.byte	55
 833 0329 60       		.byte	96
 834 032a 3A       		.byte	58
 835 032b 04       		.byte	4
 836 032c 3C       		.byte	60
 837 032d 20       		.byte	32
 838 032e 3D       		.byte	61
 839 032f 04       		.byte	4
 840 0330 3F       		.byte	63
 841 0331 20       		.byte	32
 842 0332 44       		.byte	68
 843 0333 40       		.byte	64
 844 0334 45       		.byte	69
 845 0335 08       		.byte	8
 846 0336 4D       		.byte	77
 847 0337 82       		.byte	-126
 848 0338 56       		.byte	86
 849 0339 24       		.byte	36
 850 033a 93       		.byte	-109
 851 033b 62       		.byte	98
 852 033c 94       		.byte	-108
 853 033d 10       		.byte	16
 854 033e 96       		.byte	-106
 855 033f 04       		.byte	4
ARM GAS  C:\Users\RIEKOH~1\AppData\Local\Temp\ccHe7PJD.s 			page 16


 856 0340 97       		.byte	-105
 857 0341 80       		.byte	-128
 858 0342 9A       		.byte	-102
 859 0343 80       		.byte	-128
 860 0344 9B       		.byte	-101
 861 0345 6E       		.byte	110
 862 0346 9D       		.byte	-99
 863 0347 04       		.byte	4
 864 0348 A0       		.byte	-96
 865 0349 11       		.byte	17
 866 034a A2       		.byte	-94
 867 034b 07       		.byte	7
 868 034c A3       		.byte	-93
 869 034d 08       		.byte	8
 870 034e A4       		.byte	-92
 871 034f 04       		.byte	4
 872 0350 A5       		.byte	-91
 873 0351 01       		.byte	1
 874 0352 A6       		.byte	-90
 875 0353 80       		.byte	-128
 876 0354 AB       		.byte	-85
 877 0355 10       		.byte	16
 878 0356 AF       		.byte	-81
 879 0357 54       		.byte	84
 880 0358 B0       		.byte	-80
 881 0359 48       		.byte	72
 882 035a B4       		.byte	-76
 883 035b 80       		.byte	-128
 884 035c C0       		.byte	-64
 885 035d F0       		.byte	-16
 886 035e C2       		.byte	-62
 887 035f F2       		.byte	-14
 888 0360 C4       		.byte	-60
 889 0361 F0       		.byte	-16
 890 0362 CA       		.byte	-54
 891 0363 D7       		.byte	-41
 892 0364 CC       		.byte	-52
 893 0365 FF       		.byte	-1
 894 0366 CE       		.byte	-50
 895 0367 62       		.byte	98
 896 0368 D0       		.byte	-48
 897 0369 C0       		.byte	-64
 898 036a D2       		.byte	-46
 899 036b 10       		.byte	16
 900 036c EA       		.byte	-22
 901 036d 04       		.byte	4
 902 036e 00       		.byte	0
 903 036f 10       		.byte	16
 904 0370 03       		.byte	3
 905 0371 02       		.byte	2
 906 0372 07       		.byte	7
 907 0373 02       		.byte	2
 908 0374 0B       		.byte	11
 909 0375 02       		.byte	2
 910 0376 0C       		.byte	12
 911 0377 03       		.byte	3
 912 0378 0E       		.byte	14
ARM GAS  C:\Users\RIEKOH~1\AppData\Local\Temp\ccHe7PJD.s 			page 17


 913 0379 04       		.byte	4
 914 037a 11       		.byte	17
 915 037b 01       		.byte	1
 916 037c 1C       		.byte	28
 917 037d 09       		.byte	9
 918 037e 1D       		.byte	29
 919 037f 02       		.byte	2
 920 0380 20       		.byte	32
 921 0381 03       		.byte	3
 922 0382 21       		.byte	33
 923 0383 02       		.byte	2
 924 0384 22       		.byte	34
 925 0385 0C       		.byte	12
 926 0386 24       		.byte	36
 927 0387 03       		.byte	3
 928 0388 25       		.byte	37
 929 0389 01       		.byte	1
 930 038a 26       		.byte	38
 931 038b 04       		.byte	4
 932 038c 29       		.byte	41
 933 038d 01       		.byte	1
 934 038e 2A       		.byte	42
 935 038f 0E       		.byte	14
 936 0390 2D       		.byte	45
 937 0391 01       		.byte	1
 938 0392 33       		.byte	51
 939 0393 01       		.byte	1
 940 0394 34       		.byte	52
 941 0395 10       		.byte	16
 942 0396 36       		.byte	54
 943 0397 0F       		.byte	15
 944 0398 37       		.byte	55
 945 0399 02       		.byte	2
 946 039a 3A       		.byte	58
 947 039b 80       		.byte	-128
 948 039c 3E       		.byte	62
 949 039d 10       		.byte	16
 950 039e 3F       		.byte	63
 951 039f 44       		.byte	68
 952 03a0 40       		.byte	64
 953 03a1 45       		.byte	69
 954 03a2 49       		.byte	73
 955 03a3 FF       		.byte	-1
 956 03a4 4A       		.byte	74
 957 03a5 FF       		.byte	-1
 958 03a6 4B       		.byte	75
 959 03a7 FF       		.byte	-1
 960 03a8 4F       		.byte	79
 961 03a9 01       		.byte	1
 962 03aa 50       		.byte	80
 963 03ab 18       		.byte	24
 964 03ac 52       		.byte	82
 965 03ad 80       		.byte	-128
 966 03ae 54       		.byte	84
 967 03af 01       		.byte	1
 968 03b0 58       		.byte	88
 969 03b1 04       		.byte	4
ARM GAS  C:\Users\RIEKOH~1\AppData\Local\Temp\ccHe7PJD.s 			page 18


 970 03b2 59       		.byte	89
 971 03b3 04       		.byte	4
 972 03b4 5A       		.byte	90
 973 03b5 04       		.byte	4
 974 03b6 5B       		.byte	91
 975 03b7 04       		.byte	4
 976 03b8 5C       		.byte	92
 977 03b9 02       		.byte	2
 978 03ba 5D       		.byte	93
 979 03bb 22       		.byte	34
 980 03bc 5F       		.byte	95
 981 03bd 01       		.byte	1
 982 03be 60       		.byte	96
 983 03bf 40       		.byte	64
 984 03c0 62       		.byte	98
 985 03c1 40       		.byte	64
 986 03c2 64       		.byte	100
 987 03c3 40       		.byte	64
 988 03c4 65       		.byte	101
 989 03c5 40       		.byte	64
 990 03c6 66       		.byte	102
 991 03c7 80       		.byte	-128
 992 03c8 68       		.byte	104
 993 03c9 80       		.byte	-128
 994 03ca 6A       		.byte	106
 995 03cb 80       		.byte	-128
 996 03cc 6C       		.byte	108
 997 03cd 80       		.byte	-128
 998 03ce 6E       		.byte	110
 999 03cf 80       		.byte	-128
 1000 03d0 83       		.byte	-125
 1001 03d1 01       		.byte	1
 1002 03d2 9F       		.byte	-97
 1003 03d3 01       		.byte	1
 1004 03d4 B7       		.byte	-73
 1005 03d5 01       		.byte	1
 1006 03d6 B8       		.byte	-72
 1007 03d7 20       		.byte	32
 1008 03d8 BF       		.byte	-65
 1009 03d9 40       		.byte	64
 1010 03da C0       		.byte	-64
 1011 03db 14       		.byte	20
 1012 03dc C5       		.byte	-59
 1013 03dd EC       		.byte	-20
 1014 03de C7       		.byte	-57
 1015 03df 20       		.byte	32
 1016 03e0 C8       		.byte	-56
 1017 03e1 23       		.byte	35
 1018 03e2 C9       		.byte	-55
 1019 03e3 FF       		.byte	-1
 1020 03e4 CA       		.byte	-54
 1021 03e5 FF       		.byte	-1
 1022 03e6 CB       		.byte	-53
 1023 03e7 FF       		.byte	-1
 1024 03e8 CD       		.byte	-51
 1025 03e9 83       		.byte	-125
 1026 03ea CE       		.byte	-50
ARM GAS  C:\Users\RIEKOH~1\AppData\Local\Temp\ccHe7PJD.s 			page 19


 1027 03eb 03       		.byte	3
 1028 03ec CF       		.byte	-49
 1029 03ed 01       		.byte	1
 1030 03ee D0       		.byte	-48
 1031 03ef 18       		.byte	24
 1032 03f0 D4       		.byte	-44
 1033 03f1 01       		.byte	1
 1034 03f2 D8       		.byte	-40
 1035 03f3 04       		.byte	4
 1036 03f4 D9       		.byte	-39
 1037 03f5 04       		.byte	4
 1038 03f6 DA       		.byte	-38
 1039 03f7 04       		.byte	4
 1040 03f8 DB       		.byte	-37
 1041 03f9 04       		.byte	4
 1042 03fa DC       		.byte	-36
 1043 03fb 01       		.byte	1
 1044 03fc DD       		.byte	-35
 1045 03fd 22       		.byte	34
 1046 03fe DF       		.byte	-33
 1047 03ff 01       		.byte	1
 1048 0400 E0       		.byte	-32
 1049 0401 40       		.byte	64
 1050 0402 E2       		.byte	-30
 1051 0403 40       		.byte	64
 1052 0404 E4       		.byte	-28
 1053 0405 40       		.byte	64
 1054 0406 E5       		.byte	-27
 1055 0407 40       		.byte	64
 1056 0408 E6       		.byte	-26
 1057 0409 80       		.byte	-128
 1058 040a E8       		.byte	-24
 1059 040b 80       		.byte	-128
 1060 040c EA       		.byte	-22
 1061 040d 80       		.byte	-128
 1062 040e EC       		.byte	-20
 1063 040f 80       		.byte	-128
 1064 0410 EE       		.byte	-18
 1065 0411 80       		.byte	-128
 1066 0412 05       		.byte	5
 1067 0413 82       		.byte	-126
 1068 0414 0F       		.byte	15
 1069 0415 02       		.byte	2
 1070 0416 14       		.byte	20
 1071 0417 40       		.byte	64
 1072 0418 16       		.byte	22
 1073 0419 28       		.byte	40
 1074 041a 18       		.byte	24
 1075 041b 08       		.byte	8
 1076 041c 1E       		.byte	30
 1077 041d 08       		.byte	8
 1078 041e 1F       		.byte	31
 1079 041f 40       		.byte	64
 1080 0420 22       		.byte	34
 1081 0421 40       		.byte	64
 1082 0422 24       		.byte	36
 1083 0423 10       		.byte	16
ARM GAS  C:\Users\RIEKOH~1\AppData\Local\Temp\ccHe7PJD.s 			page 20


 1084 0424 26       		.byte	38
 1085 0425 40       		.byte	64
 1086 0426 2C       		.byte	44
 1087 0427 40       		.byte	64
 1088 0428 2F       		.byte	47
 1089 0429 55       		.byte	85
 1090 042a 33       		.byte	51
 1091 042b 40       		.byte	64
 1092 042c 35       		.byte	53
 1093 042d 80       		.byte	-128
 1094 042e 36       		.byte	54
 1095 042f 81       		.byte	-127
 1096 0430 38       		.byte	56
 1097 0431 02       		.byte	2
 1098 0432 3C       		.byte	60
 1099 0433 0A       		.byte	10
 1100 0434 3E       		.byte	62
 1101 0435 38       		.byte	56
 1102 0436 3F       		.byte	63
 1103 0437 02       		.byte	2
 1104 0438 41       		.byte	65
 1105 0439 02       		.byte	2
 1106 043a 43       		.byte	67
 1107 043b 40       		.byte	64
 1108 043c 46       		.byte	70
 1109 043d 40       		.byte	64
 1110 043e 49       		.byte	73
 1111 043f 05       		.byte	5
 1112 0440 4E       		.byte	78
 1113 0441 02       		.byte	2
 1114 0442 50       		.byte	80
 1115 0443 01       		.byte	1
 1116 0444 51       		.byte	81
 1117 0445 02       		.byte	2
 1118 0446 52       		.byte	82
 1119 0447 02       		.byte	2
 1120 0448 59       		.byte	89
 1121 0449 05       		.byte	5
 1122 044a 5A       		.byte	90
 1123 044b 80       		.byte	-128
 1124 044c 5D       		.byte	93
 1125 044d 02       		.byte	2
 1126 044e 5E       		.byte	94
 1127 044f 98       		.byte	-104
 1128 0450 76       		.byte	118
 1129 0451 40       		.byte	64
 1130 0452 77       		.byte	119
 1131 0453 40       		.byte	64
 1132 0454 93       		.byte	-109
 1133 0455 2A       		.byte	42
 1134 0456 94       		.byte	-108
 1135 0457 10       		.byte	16
 1136 0458 97       		.byte	-105
 1137 0459 80       		.byte	-128
 1138 045a 99       		.byte	-103
 1139 045b 02       		.byte	2
 1140 045c 9A       		.byte	-102
ARM GAS  C:\Users\RIEKOH~1\AppData\Local\Temp\ccHe7PJD.s 			page 21


 1141 045d 20       		.byte	32
 1142 045e 9C       		.byte	-100
 1143 045f 40       		.byte	64
 1144 0460 9D       		.byte	-99
 1145 0461 80       		.byte	-128
 1146 0462 A0       		.byte	-96
 1147 0463 05       		.byte	5
 1148 0464 A2       		.byte	-94
 1149 0465 01       		.byte	1
 1150 0466 A3       		.byte	-93
 1151 0467 08       		.byte	8
 1152 0468 A6       		.byte	-90
 1153 0469 80       		.byte	-128
 1154 046a AA       		.byte	-86
 1155 046b 40       		.byte	64
 1156 046c C0       		.byte	-64
 1157 046d 90       		.byte	-112
 1158 046e C2       		.byte	-62
 1159 046f 80       		.byte	-128
 1160 0470 C4       		.byte	-60
 1161 0471 70       		.byte	112
 1162 0472 CA       		.byte	-54
 1163 0473 F0       		.byte	-16
 1164 0474 CC       		.byte	-52
 1165 0475 98       		.byte	-104
 1166 0476 CE       		.byte	-50
 1167 0477 E1       		.byte	-31
 1168 0478 D0       		.byte	-48
 1169 0479 89       		.byte	-119
 1170 047a D2       		.byte	-46
 1171 047b 10       		.byte	16
 1172 047c D6       		.byte	-42
 1173 047d FB       		.byte	-5
 1174 047e EA       		.byte	-22
 1175 047f 14       		.byte	20
 1176 0480 E2       		.byte	-30
 1177 0481 20       		.byte	32
 1178 0482 E6       		.byte	-26
 1179 0483 04       		.byte	4
 1180 0484 AA       		.byte	-86
 1181 0485 40       		.byte	64
 1182 0486 AF       		.byte	-81
 1183 0487 80       		.byte	-128
 1184 0488 01       		.byte	1
 1185 0489 06       		.byte	6
 1186 048a 07       		.byte	7
 1187 048b 07       		.byte	7
 1188 048c 12       		.byte	18
 1189 048d 01       		.byte	1
 1190 048e 1A       		.byte	26
 1191 048f 01       		.byte	1
 1192 0490 1F       		.byte	31
 1193 0491 03       		.byte	3
 1194 0492 23       		.byte	35
 1195 0493 05       		.byte	5
 1196 0494 29       		.byte	41
 1197 0495 02       		.byte	2
ARM GAS  C:\Users\RIEKOH~1\AppData\Local\Temp\ccHe7PJD.s 			page 22


 1198 0496 36       		.byte	54
 1199 0497 01       		.byte	1
 1200 0498 37       		.byte	55
 1201 0499 07       		.byte	7
 1202 049a 3B       		.byte	59
 1203 049b 80       		.byte	-128
 1204 049c 40       		.byte	64
 1205 049d 20       		.byte	32
 1206 049e 41       		.byte	65
 1207 049f 06       		.byte	6
 1208 04a0 49       		.byte	73
 1209 04a1 FF       		.byte	-1
 1210 04a2 4A       		.byte	74
 1211 04a3 FF       		.byte	-1
 1212 04a4 4B       		.byte	75
 1213 04a5 FF       		.byte	-1
 1214 04a6 4D       		.byte	77
 1215 04a7 A0       		.byte	-96
 1216 04a8 4F       		.byte	79
 1217 04a9 04       		.byte	4
 1218 04aa 50       		.byte	80
 1219 04ab 18       		.byte	24
 1220 04ac 58       		.byte	88
 1221 04ad 04       		.byte	4
 1222 04ae 59       		.byte	89
 1223 04af 04       		.byte	4
 1224 04b0 5A       		.byte	90
 1225 04b1 04       		.byte	4
 1226 04b2 5C       		.byte	92
 1227 04b3 21       		.byte	33
 1228 04b4 5D       		.byte	93
 1229 04b5 01       		.byte	1
 1230 04b6 5F       		.byte	95
 1231 04b7 01       		.byte	1
 1232 04b8 60       		.byte	96
 1233 04b9 40       		.byte	64
 1234 04ba 62       		.byte	98
 1235 04bb C0       		.byte	-64
 1236 04bc 64       		.byte	100
 1237 04bd 40       		.byte	64
 1238 04be 65       		.byte	101
 1239 04bf 40       		.byte	64
 1240 04c0 66       		.byte	102
 1241 04c1 C0       		.byte	-64
 1242 04c2 68       		.byte	104
 1243 04c3 C0       		.byte	-64
 1244 04c4 6A       		.byte	106
 1245 04c5 C0       		.byte	-64
 1246 04c6 6C       		.byte	108
 1247 04c7 C0       		.byte	-64
 1248 04c8 6E       		.byte	110
 1249 04c9 C0       		.byte	-64
 1250 04ca 80       		.byte	-128
 1251 04cb 02       		.byte	2
 1252 04cc 85       		.byte	-123
 1253 04cd 04       		.byte	4
 1254 04ce 8C       		.byte	-116
ARM GAS  C:\Users\RIEKOH~1\AppData\Local\Temp\ccHe7PJD.s 			page 23


 1255 04cf 04       		.byte	4
 1256 04d0 8F       		.byte	-113
 1257 04d1 08       		.byte	8
 1258 04d2 92       		.byte	-110
 1259 04d3 01       		.byte	1
 1260 04d4 9B       		.byte	-101
 1261 04d5 01       		.byte	1
 1262 04d6 9F       		.byte	-97
 1263 04d7 02       		.byte	2
 1264 04d8 A2       		.byte	-94
 1265 04d9 05       		.byte	5
 1266 04da A6       		.byte	-90
 1267 04db 02       		.byte	2
 1268 04dc B0       		.byte	-80
 1269 04dd 01       		.byte	1
 1270 04de B1       		.byte	-79
 1271 04df 02       		.byte	2
 1272 04e0 B3       		.byte	-77
 1273 04e1 08       		.byte	8
 1274 04e2 B4       		.byte	-76
 1275 04e3 02       		.byte	2
 1276 04e4 B5       		.byte	-75
 1277 04e5 04       		.byte	4
 1278 04e6 B6       		.byte	-74
 1279 04e7 04       		.byte	4
 1280 04e8 B7       		.byte	-73
 1281 04e9 01       		.byte	1
 1282 04ea BF       		.byte	-65
 1283 04eb 10       		.byte	16
 1284 04ec C0       		.byte	-64
 1285 04ed 30       		.byte	48
 1286 04ee C1       		.byte	-63
 1287 04ef 06       		.byte	6
 1288 04f0 C5       		.byte	-59
 1289 04f1 D5       		.byte	-43
 1290 04f2 C6       		.byte	-58
 1291 04f3 01       		.byte	1
 1292 04f4 C7       		.byte	-57
 1293 04f5 02       		.byte	2
 1294 04f6 C8       		.byte	-56
 1295 04f7 17       		.byte	23
 1296 04f8 C9       		.byte	-55
 1297 04f9 FF       		.byte	-1
 1298 04fa CA       		.byte	-54
 1299 04fb FF       		.byte	-1
 1300 04fc CB       		.byte	-53
 1301 04fd FF       		.byte	-1
 1302 04fe CD       		.byte	-51
 1303 04ff AF       		.byte	-81
 1304 0500 CE       		.byte	-50
 1305 0501 0F       		.byte	15
 1306 0502 CF       		.byte	-49
 1307 0503 04       		.byte	4
 1308 0504 D0       		.byte	-48
 1309 0505 18       		.byte	24
 1310 0506 D2       		.byte	-46
 1311 0507 80       		.byte	-128
ARM GAS  C:\Users\RIEKOH~1\AppData\Local\Temp\ccHe7PJD.s 			page 24


 1312 0508 D4       		.byte	-44
 1313 0509 27       		.byte	39
 1314 050a D6       		.byte	-42
 1315 050b 04       		.byte	4
 1316 050c D8       		.byte	-40
 1317 050d 04       		.byte	4
 1318 050e D9       		.byte	-39
 1319 050f 04       		.byte	4
 1320 0510 DA       		.byte	-38
 1321 0511 04       		.byte	4
 1322 0512 DB       		.byte	-37
 1323 0513 04       		.byte	4
 1324 0514 DC       		.byte	-36
 1325 0515 11       		.byte	17
 1326 0516 DD       		.byte	-35
 1327 0517 11       		.byte	17
 1328 0518 DF       		.byte	-33
 1329 0519 01       		.byte	1
 1330 051a E0       		.byte	-32
 1331 051b 40       		.byte	64
 1332 051c E2       		.byte	-30
 1333 051d C0       		.byte	-64
 1334 051e E4       		.byte	-28
 1335 051f 40       		.byte	64
 1336 0520 E5       		.byte	-27
 1337 0521 40       		.byte	64
 1338 0522 E6       		.byte	-26
 1339 0523 C0       		.byte	-64
 1340 0524 E8       		.byte	-24
 1341 0525 C0       		.byte	-64
 1342 0526 EA       		.byte	-22
 1343 0527 C0       		.byte	-64
 1344 0528 EC       		.byte	-20
 1345 0529 C0       		.byte	-64
 1346 052a EE       		.byte	-18
 1347 052b C0       		.byte	-64
 1348 052c 00       		.byte	0
 1349 052d 82       		.byte	-126
 1350 052e 0B       		.byte	11
 1351 052f 40       		.byte	64
 1352 0530 0C       		.byte	12
 1353 0531 20       		.byte	32
 1354 0532 0F       		.byte	15
 1355 0533 40       		.byte	64
 1356 0534 10       		.byte	16
 1357 0535 A0       		.byte	-96
 1358 0536 19       		.byte	25
 1359 0537 50       		.byte	80
 1360 0538 1A       		.byte	26
 1361 0539 80       		.byte	-128
 1362 053a 1F       		.byte	31
 1363 053b 80       		.byte	-128
 1364 053c 20       		.byte	32
 1365 053d 96       		.byte	-106
 1366 053e 23       		.byte	35
 1367 053f 20       		.byte	32
 1368 0540 26       		.byte	38
ARM GAS  C:\Users\RIEKOH~1\AppData\Local\Temp\ccHe7PJD.s 			page 25


 1369 0541 80       		.byte	-128
 1370 0542 2F       		.byte	47
 1371 0543 48       		.byte	72
 1372 0544 30       		.byte	48
 1373 0545 A0       		.byte	-96
 1374 0546 36       		.byte	54
 1375 0547 80       		.byte	-128
 1376 0548 38       		.byte	56
 1377 0549 08       		.byte	8
 1378 054a 3B       		.byte	59
 1379 054b 40       		.byte	64
 1380 054c 3C       		.byte	60
 1381 054d 08       		.byte	8
 1382 054e 3F       		.byte	63
 1383 054f 02       		.byte	2
 1384 0550 40       		.byte	64
 1385 0551 10       		.byte	16
 1386 0552 47       		.byte	71
 1387 0553 20       		.byte	32
 1388 0554 48       		.byte	72
 1389 0555 20       		.byte	32
 1390 0556 49       		.byte	73
 1391 0557 01       		.byte	1
 1392 0558 4A       		.byte	74
 1393 0559 08       		.byte	8
 1394 055a 4E       		.byte	78
 1395 055b 0C       		.byte	12
 1396 055c 50       		.byte	80
 1397 055d 80       		.byte	-128
 1398 055e 52       		.byte	82
 1399 055f 08       		.byte	8
 1400 0560 59       		.byte	89
 1401 0561 51       		.byte	81
 1402 0562 5A       		.byte	90
 1403 0563 08       		.byte	8
 1404 0564 60       		.byte	96
 1405 0565 04       		.byte	4
 1406 0566 61       		.byte	97
 1407 0567 02       		.byte	2
 1408 0568 73       		.byte	115
 1409 0569 40       		.byte	64
 1410 056a 89       		.byte	-119
 1411 056b 02       		.byte	2
 1412 056c 90       		.byte	-112
 1413 056d 08       		.byte	8
 1414 056e 93       		.byte	-109
 1415 056f 80       		.byte	-128
 1416 0570 A0       		.byte	-96
 1417 0571 04       		.byte	4
 1418 0572 A3       		.byte	-93
 1419 0573 09       		.byte	9
 1420 0574 A6       		.byte	-90
 1421 0575 80       		.byte	-128
 1422 0576 C0       		.byte	-64
 1423 0577 09       		.byte	9
 1424 0578 C2       		.byte	-62
 1425 0579 58       		.byte	88
ARM GAS  C:\Users\RIEKOH~1\AppData\Local\Temp\ccHe7PJD.s 			page 26


 1426 057a C4       		.byte	-60
 1427 057b 0C       		.byte	12
 1428 057c CA       		.byte	-54
 1429 057d A0       		.byte	-96
 1430 057e CC       		.byte	-52
 1431 057f 1C       		.byte	28
 1432 0580 CE       		.byte	-50
 1433 0581 CA       		.byte	-54
 1434 0582 D0       		.byte	-48
 1435 0583 22       		.byte	34
 1436 0584 D2       		.byte	-46
 1437 0585 24       		.byte	36
 1438 0586 D6       		.byte	-42
 1439 0587 0F       		.byte	15
 1440 0588 D8       		.byte	-40
 1441 0589 05       		.byte	5
 1442 058a E6       		.byte	-26
 1443 058b 20       		.byte	32
 1444 058c 30       		.byte	48
 1445 058d 20       		.byte	32
 1446 058e 37       		.byte	55
 1447 058f 20       		.byte	32
 1448 0590 83       		.byte	-125
 1449 0591 20       		.byte	32
 1450 0592 CC       		.byte	-52
 1451 0593 30       		.byte	48
 1452 0594 E2       		.byte	-30
 1453 0595 80       		.byte	-128
 1454 0596 00       		.byte	0
 1455 0597 08       		.byte	8
 1456 0598 09       		.byte	9
 1457 0599 02       		.byte	2
 1458 059a 0A       		.byte	10
 1459 059b 01       		.byte	1
 1460 059c 0F       		.byte	15
 1461 059d 18       		.byte	24
 1462 059e 53       		.byte	83
 1463 059f 08       		.byte	8
 1464 05a0 87       		.byte	-121
 1465 05a1 10       		.byte	16
 1466 05a2 8F       		.byte	-113
 1467 05a3 04       		.byte	4
 1468 05a4 A4       		.byte	-92
 1469 05a5 20       		.byte	32
 1470 05a6 C0       		.byte	-64
 1471 05a7 10       		.byte	16
 1472 05a8 C2       		.byte	-62
 1473 05a9 F0       		.byte	-16
 1474 05aa D4       		.byte	-44
 1475 05ab 20       		.byte	32
 1476 05ac E0       		.byte	-32
 1477 05ad 10       		.byte	16
 1478 05ae A4       		.byte	-92
 1479 05af 20       		.byte	32
 1480 05b0 A7       		.byte	-89
 1481 05b1 08       		.byte	8
 1482 05b2 AC       		.byte	-84
ARM GAS  C:\Users\RIEKOH~1\AppData\Local\Temp\ccHe7PJD.s 			page 27


 1483 05b3 04       		.byte	4
 1484 05b4 AD       		.byte	-83
 1485 05b5 02       		.byte	2
 1486 05b6 AE       		.byte	-82
 1487 05b7 01       		.byte	1
 1488 05b8 E8       		.byte	-24
 1489 05b9 50       		.byte	80
 1490 05ba EC       		.byte	-20
 1491 05bb 40       		.byte	64
 1492 05bc A4       		.byte	-92
 1493 05bd 20       		.byte	32
 1494 05be AB       		.byte	-85
 1495 05bf 08       		.byte	8
 1496 05c0 EE       		.byte	-18
 1497 05c1 80       		.byte	-128
 1498 05c2 01       		.byte	1
 1499 05c3 04       		.byte	4
 1500 05c4 02       		.byte	2
 1501 05c5 08       		.byte	8
 1502 05c6 04       		.byte	4
 1503 05c7 02       		.byte	2
 1504 05c8 05       		.byte	5
 1505 05c9 20       		.byte	32
 1506 05ca 80       		.byte	-128
 1507 05cb 01       		.byte	1
 1508 05cc 89       		.byte	-119
 1509 05cd 04       		.byte	4
 1510 05ce C0       		.byte	-64
 1511 05cf 0F       		.byte	15
 1512 05d0 E2       		.byte	-30
 1513 05d1 04       		.byte	4
 1514 05d2 AA       		.byte	-86
 1515 05d3 08       		.byte	8
 1516 05d4 B5       		.byte	-75
 1517 05d5 20       		.byte	32
 1518 05d6 EA       		.byte	-22
 1519 05d7 08       		.byte	8
 1520 05d8 88       		.byte	-120
 1521 05d9 20       		.byte	32
 1522 05da 89       		.byte	-119
 1523 05db 40       		.byte	64
 1524 05dc A4       		.byte	-92
 1525 05dd 20       		.byte	32
 1526 05de 57       		.byte	87
 1527 05df 01       		.byte	1
 1528 05e0 5B       		.byte	91
 1529 05e1 40       		.byte	64
 1530 05e2 7D       		.byte	125
 1531 05e3 80       		.byte	-128
 1532 05e4 9B       		.byte	-101
 1533 05e5 40       		.byte	64
 1534 05e6 A1       		.byte	-95
 1535 05e7 40       		.byte	64
 1536 05e8 A3       		.byte	-93
 1537 05e9 01       		.byte	1
 1538 05ea AB       		.byte	-85
 1539 05eb 40       		.byte	64
ARM GAS  C:\Users\RIEKOH~1\AppData\Local\Temp\ccHe7PJD.s 			page 28


 1540 05ec AF       		.byte	-81
 1541 05ed 01       		.byte	1
 1542 05ee D4       		.byte	-44
 1543 05ef 80       		.byte	-128
 1544 05f0 D6       		.byte	-42
 1545 05f1 20       		.byte	32
 1546 05f2 DE       		.byte	-34
 1547 05f3 20       		.byte	32
 1548 05f4 EE       		.byte	-18
 1549 05f5 90       		.byte	-112
 1550 05f6 00       		.byte	0
 1551 05f7 06       		.byte	6
 1552 05f8 08       		.byte	8
 1553 05f9 04       		.byte	4
 1554 05fa 0A       		.byte	10
 1555 05fb 06       		.byte	6
 1556 05fc 10       		.byte	16
 1557 05fd 06       		.byte	6
 1558 05fe 1A       		.byte	26
 1559 05ff 06       		.byte	6
 1560 0600 00       		.byte	0
 1561 0601 0F       		.byte	15
 1562 0602 00       		.byte	0
 1563 0603 00       		.byte	0
 1564 0604 F8       		.byte	-8
 1565 0605 00       		.byte	0
 1566 0606 01       		.byte	1
 1567 0607 FE       		.byte	-2
 1568 0608 06       		.byte	6
 1569 0609 00       		.byte	0
 1570 060a 08       		.byte	8
 1571 060b 00       		.byte	0
 1572 060c 00       		.byte	0
 1573 060d 00       		.byte	0
 1574 060e 00       		.byte	0
 1575 060f 00       		.byte	0
 1576 0610 00       		.byte	0
 1577 0611 04       		.byte	4
 1578 0612 04       		.byte	4
 1579 0613 00       		.byte	0
 1580 0614 04       		.byte	4
 1581 0615 00       		.byte	0
 1582 0616 00       		.byte	0
 1583 0617 00       		.byte	0
 1584 0618 00       		.byte	0
 1585 0619 0C       		.byte	12
 1586 061a 0C       		.byte	12
 1587 061b 00       		.byte	0
 1588 061c 00       		.byte	0
 1589 061d 00       		.byte	0
 1590 061e 00       		.byte	0
 1591 061f 00       		.byte	0
 1592 0620 0F       		.byte	15
 1593 0621 00       		.byte	0
 1594 0622 00       		.byte	0
 1595 0623 0F       		.byte	15
 1596 0624 00       		.byte	0
ARM GAS  C:\Users\RIEKOH~1\AppData\Local\Temp\ccHe7PJD.s 			page 29


 1597 0625 00       		.byte	0
 1598 0626 00       		.byte	0
 1599 0627 00       		.byte	0
 1600 0628 00       		.byte	0
 1601 0629 00       		.byte	0
 1602 062a 00       		.byte	0
 1603 062b 00       		.byte	0
 1604 062c 04       		.byte	4
 1605 062d 00       		.byte	0
 1606 062e 00       		.byte	0
 1607 062f 0C       		.byte	12
 1608 0630 08       		.byte	8
 1609 0631 00       		.byte	0
 1610 0632 0C       		.byte	12
 1611 0633 00       		.byte	0
 1612 0634 00       		.byte	0
 1613 0635 00       		.byte	0
 1614 0636 00       		.byte	0
 1615 0637 00       		.byte	0
 1616              		.global	cy_meta_custnvl
 1617              		.section	.cycustnvl,"a",%progbits
 1618              		.align	2
 1619              		.type	cy_meta_custnvl, %object
 1620              		.size	cy_meta_custnvl, 4
 1621              	cy_meta_custnvl:
 1622 0000 00       		.byte	0
 1623 0001 00       		.byte	0
 1624 0002 40       		.byte	64
 1625 0003 07       		.byte	7
 1626              		.global	cy_meta_wonvl
 1627              		.section	.cywolatch,"a",%progbits
 1628              		.align	2
 1629              		.type	cy_meta_wonvl, %object
 1630              		.size	cy_meta_wonvl, 4
 1631              	cy_meta_wonvl:
 1632 0000 BC       		.byte	-68
 1633 0001 90       		.byte	-112
 1634 0002 AC       		.byte	-84
 1635 0003 AF       		.byte	-81
 1636              		.global	cy_meta_flashprotect
 1637              		.section	.cyflashprotect,"a",%progbits
 1638              		.align	2
 1639              		.type	cy_meta_flashprotect, %object
 1640              		.size	cy_meta_flashprotect, 256
 1641              	cy_meta_flashprotect:
 1642 0000 00000000 		.space	256
 1642      00000000 
 1642      00000000 
 1642      00000000 
 1642      00000000 
 1643              		.global	cy_metadata
 1644              		.section	.cymeta,"a",%progbits
 1645              		.align	2
 1646              		.type	cy_metadata, %object
 1647              		.size	cy_metadata, 12
 1648              	cy_metadata:
 1649 0000 00       		.byte	0
ARM GAS  C:\Users\RIEKOH~1\AppData\Local\Temp\ccHe7PJD.s 			page 30


 1650 0001 01       		.byte	1
 1651 0002 2E       		.byte	46
 1652 0003 11       		.byte	17
 1653 0004 E0       		.byte	-32
 1654 0005 69       		.byte	105
 1655 0006 00       		.byte	0
 1656 0007 01       		.byte	1
 1657 0008 00       		.byte	0
 1658 0009 00       		.byte	0
 1659 000a 00       		.byte	0
 1660 000b 00       		.byte	0
 1661              		.text
 1662              	.Letext0:
 1663              		.file 1 ".\\Generated_Source\\PSoC5\\cymetadata.c"
 1664              		.file 2 ".\\Generated_Source\\PSoC5\\cytypes.h"
