ARM GAS  C:\Users\RIEKOH~1\AppData\Local\Temp\ccluRx12.s 			page 1


   1              		.syntax unified
   2              		.cpu cortex-m3
   3              		.fpu softvfp
   4              		.eabi_attribute 20, 1
   5              		.eabi_attribute 21, 1
   6              		.eabi_attribute 23, 3
   7              		.eabi_attribute 24, 1
   8              		.eabi_attribute 25, 1
   9              		.eabi_attribute 26, 1
  10              		.eabi_attribute 30, 6
  11              		.eabi_attribute 34, 1
  12              		.eabi_attribute 18, 4
  13              		.thumb
  14              		.file	"main.c"
  15              		.text
  16              	.Ltext0:
  17              		.cfi_sections	.debug_frame
  18              		.comm	elevator_buffer,4,4
  19              		.comm	radder_buffer,4,4
  20              		.comm	pak,6,4
  21              		.section	.text.main,"ax",%progbits
  22              		.align	2
  23              		.global	main
  24              		.thumb
  25              		.thumb_func
  26              		.type	main, %function
  27              	main:
  28              	.LFB56:
  29              		.file 1 ".\\main.c"
   1:.\main.c      **** /* ========================================
   2:.\main.c      ****  * tail14 version 1.0 2014/4/25
   3:.\main.c      ****  * 0...elevator 1...rudder
   4:.\main.c      ****  *
   5:.\main.c      ****  * 元ファイルです
   6:.\main.c      ****  * ========================================
   7:.\main.c      **** */
   8:.\main.c      **** #include <project.h>
   9:.\main.c      **** 
  10:.\main.c      **** #define WRITE()		DE_Write(1)
  11:.\main.c      **** #define	READ()		DE_Write(0)
  12:.\main.c      **** 
  13:.\main.c      **** #define	RS485_PACKET_LENGTH	(6)
  14:.\main.c      **** 
  15:.\main.c      **** typedef union _tagRS485_PACKET {
  16:.\main.c      **** 	struct {
  17:.\main.c      **** 		unsigned char bStatus;
  18:.\main.c      **** 		unsigned char bCheckSum;
  19:.\main.c      **** 		unsigned short wData[2];
  20:.\main.c      **** 	} _pak;
  21:.\main.c      **** 	unsigned char _byte[RS485_PACKET_LENGTH];
  22:.\main.c      **** } PACKET;
  23:.\main.c      **** 
  24:.\main.c      **** void rs485_Start(void);
  25:.\main.c      **** void rs485_isr(void);
  26:.\main.c      **** char rs485_CheckPacket(char, PACKET*);
  27:.\main.c      **** char CheckValid(PACKET *);
  28:.\main.c      **** void Servo_Start(void);
ARM GAS  C:\Users\RIEKOH~1\AppData\Local\Temp\ccluRx12.s 			page 2


  29:.\main.c      **** void Terminal_Count_ISR(void);
  30:.\main.c      **** unsigned int FormatValueElv(unsigned short);
  31:.\main.c      **** unsigned int FormatValueRad(unsigned short);
  32:.\main.c      **** int CenterStatus1(void);
  33:.\main.c      **** int CenterStatus2(void);
  34:.\main.c      **** 
  35:.\main.c      **** #define	PACKET_ENDIANCHANGE(x)	{\
  36:.\main.c      **** 	char temp; \
  37:.\main.c      **** 	temp = x->_byte[2]; \
  38:.\main.c      **** 	x->_byte[2] = x->_byte[3]; \
  39:.\main.c      **** 	x->_byte[3] = temp; \
  40:.\main.c      **** 	temp = x->_byte[4]; \
  41:.\main.c      **** 	x->_byte[4] = x->_byte[5]; \
  42:.\main.c      **** 	x->_byte[5] = temp; \
  43:.\main.c      **** 	}
  44:.\main.c      **** 
  45:.\main.c      **** //Global variable here.
  46:.\main.c      **** 
  47:.\main.c      **** unsigned int 
  48:.\main.c      **** 	elevator_buffer, 
  49:.\main.c      **** 	radder_buffer;
  50:.\main.c      **** PACKET pak;
  51:.\main.c      **** 
  52:.\main.c      **** void main(){ 
  30              		.loc 1 52 0
  31              		.cfi_startproc
  32              		@ args = 0, pretend = 0, frame = 0
  33              		@ frame_needed = 1, uses_anonymous_args = 0
  34 0000 80B5     		push	{r7, lr}
  35              	.LCFI0:
  36              		.cfi_def_cfa_offset 8
  37              		.cfi_offset 7, -8
  38              		.cfi_offset 14, -4
  39 0002 00AF     		add	r7, sp, #0
  40              	.LCFI1:
  41              		.cfi_def_cfa_register 7
  53:.\main.c      ****     
  54:.\main.c      ****     rs485_Start();   
  42              		.loc 1 54 0
  43 0004 FFF7FEFF 		bl	rs485_Start
  55:.\main.c      ****     Servo_Start();
  44              		.loc 1 55 0
  45 0008 FFF7FEFF 		bl	Servo_Start
  56:.\main.c      ****     CyGlobalIntEnable;  // Uncomment this line to enable global interrupts. 
  46              		.loc 1 56 0
  47              	@ 56 ".\main.c" 1
  48 000c 62B6     		CPSIE   i
  49              	@ 0 "" 2
  50              		.thumb
  51              	.L5:
  57:.\main.c      **** 	while(1) {
  58:.\main.c      **** 		if(rs485_CheckPacket(0x55, &pak)==0) {
  52              		.loc 1 58 0
  53 000e 4FF05500 		mov	r0, #85
  54 0012 40F20001 		movw	r1, #:lower16:pak
  55 0016 C0F20001 		movt	r1, #:upper16:pak
  56 001a FFF7FEFF 		bl	rs485_CheckPacket
ARM GAS  C:\Users\RIEKOH~1\AppData\Local\Temp\ccluRx12.s 			page 3


  57 001e 0346     		mov	r3, r0
  58 0020 002B     		cmp	r3, #0
  59 0022 38D1     		bne	.L2
  59:.\main.c      ****             LED_2_Write(1);
  60              		.loc 1 59 0
  61 0024 4FF00100 		mov	r0, #1
  62 0028 FFF7FEFF 		bl	LED_2_Write
  60:.\main.c      ****             LED_1_Write(0);
  63              		.loc 1 60 0
  64 002c 4FF00000 		mov	r0, #0
  65 0030 FFF7FEFF 		bl	LED_1_Write
  61:.\main.c      ****             if(CheckValid(&pak)==1) {
  66              		.loc 1 61 0
  67 0034 40F20000 		movw	r0, #:lower16:pak
  68 0038 C0F20000 		movt	r0, #:upper16:pak
  69 003c FFF7FEFF 		bl	CheckValid
  70 0040 0346     		mov	r3, r0
  71 0042 012B     		cmp	r3, #1
  72 0044 1ED1     		bne	.L3
  62:.\main.c      ****                 elevator_buffer = pak._pak.wData[0];
  73              		.loc 1 62 0
  74 0046 40F20003 		movw	r3, #:lower16:pak
  75 004a C0F20003 		movt	r3, #:upper16:pak
  76 004e 5B88     		ldrh	r3, [r3, #2]
  77 0050 1A46     		mov	r2, r3
  78 0052 40F20003 		movw	r3, #:lower16:elevator_buffer
  79 0056 C0F20003 		movt	r3, #:upper16:elevator_buffer
  80 005a 1A60     		str	r2, [r3, #0]
  63:.\main.c      **** 				radder_buffer = pak._pak.wData[1];
  81              		.loc 1 63 0
  82 005c 40F20003 		movw	r3, #:lower16:pak
  83 0060 C0F20003 		movt	r3, #:upper16:pak
  84 0064 9B88     		ldrh	r3, [r3, #4]
  85 0066 1A46     		mov	r2, r3
  86 0068 40F20003 		movw	r3, #:lower16:radder_buffer
  87 006c C0F20003 		movt	r3, #:upper16:radder_buffer
  88 0070 1A60     		str	r2, [r3, #0]
  64:.\main.c      ****                 LED_2_Write(0);
  89              		.loc 1 64 0
  90 0072 4FF00000 		mov	r0, #0
  91 0076 FFF7FEFF 		bl	LED_2_Write
  65:.\main.c      ****                 LED_1_Write(0);
  92              		.loc 1 65 0
  93 007a 4FF00000 		mov	r0, #0
  94 007e FFF7FEFF 		bl	LED_1_Write
  66:.\main.c      ****             } else {
  67:.\main.c      ****                 LED_2_Write(1);
  68:.\main.c      ****                 LED_1_Write(1);
  69:.\main.c      ****             }
  70:.\main.c      ****         } else {
  71:.\main.c      ****             LED_2_Write(1);
  72:.\main.c      ****             LED_1_Write(1);
  73:.\main.c      ****         } 
  74:.\main.c      **** 	}
  95              		.loc 1 74 0
  96 0082 C4E7     		b	.L5
  97              	.L3:
ARM GAS  C:\Users\RIEKOH~1\AppData\Local\Temp\ccluRx12.s 			page 4


  67:.\main.c      ****                 LED_2_Write(1);
  98              		.loc 1 67 0
  99 0084 4FF00100 		mov	r0, #1
 100 0088 FFF7FEFF 		bl	LED_2_Write
  68:.\main.c      ****                 LED_1_Write(1);
 101              		.loc 1 68 0
 102 008c 4FF00100 		mov	r0, #1
 103 0090 FFF7FEFF 		bl	LED_1_Write
 104              		.loc 1 74 0
 105 0094 BBE7     		b	.L5
 106              	.L2:
  71:.\main.c      ****             LED_2_Write(1);
 107              		.loc 1 71 0
 108 0096 4FF00100 		mov	r0, #1
 109 009a FFF7FEFF 		bl	LED_2_Write
  72:.\main.c      ****             LED_1_Write(1);
 110              		.loc 1 72 0
 111 009e 4FF00100 		mov	r0, #1
 112 00a2 FFF7FEFF 		bl	LED_1_Write
 113              		.loc 1 74 0
 114 00a6 B2E7     		b	.L5
 115              		.cfi_endproc
 116              	.LFE56:
 117              		.size	main, .-main
 118              		.section	.text.Timer_Set,"ax",%progbits
 119              		.align	2
 120              		.global	Timer_Set
 121              		.thumb
 122              		.thumb_func
 123              		.type	Timer_Set, %function
 124              	Timer_Set:
 125              	.LFB57:
  75:.\main.c      ****     return;
  76:.\main.c      **** }
  77:.\main.c      **** 
  78:.\main.c      **** void Timer_Set(unsigned int ms){
 126              		.loc 1 78 0
 127              		.cfi_startproc
 128              		@ args = 0, pretend = 0, frame = 8
 129              		@ frame_needed = 1, uses_anonymous_args = 0
 130 0000 80B5     		push	{r7, lr}
 131              	.LCFI2:
 132              		.cfi_def_cfa_offset 8
 133              		.cfi_offset 7, -8
 134              		.cfi_offset 14, -4
 135 0002 82B0     		sub	sp, sp, #8
 136              	.LCFI3:
 137              		.cfi_def_cfa_offset 16
 138 0004 00AF     		add	r7, sp, #0
 139              	.LCFI4:
 140              		.cfi_def_cfa_register 7
 141 0006 7860     		str	r0, [r7, #4]
  79:.\main.c      **** 	Timer_WriteCounter(ms);
 142              		.loc 1 79 0
 143 0008 7B68     		ldr	r3, [r7, #4]
 144 000a 9BB2     		uxth	r3, r3
 145 000c 1846     		mov	r0, r3
ARM GAS  C:\Users\RIEKOH~1\AppData\Local\Temp\ccluRx12.s 			page 5


 146 000e FFF7FEFF 		bl	Timer_WriteCounter
  80:.\main.c      **** 	return;
 147              		.loc 1 80 0
 148 0012 00BF     		nop
  81:.\main.c      **** }
 149              		.loc 1 81 0
 150 0014 07F10807 		add	r7, r7, #8
 151 0018 BD46     		mov	sp, r7
 152 001a 80BD     		pop	{r7, pc}
 153              		.cfi_endproc
 154              	.LFE57:
 155              		.size	Timer_Set, .-Timer_Set
 156              		.section	.text.Timer_Delayus,"ax",%progbits
 157              		.align	2
 158              		.global	Timer_Delayus
 159              		.thumb
 160              		.thumb_func
 161              		.type	Timer_Delayus, %function
 162              	Timer_Delayus:
 163              	.LFB58:
  82:.\main.c      **** 
  83:.\main.c      **** void Timer_Delayus(unsigned int us){
 164              		.loc 1 83 0
 165              		.cfi_startproc
 166              		@ args = 0, pretend = 0, frame = 8
 167              		@ frame_needed = 1, uses_anonymous_args = 0
 168 0000 80B5     		push	{r7, lr}
 169              	.LCFI5:
 170              		.cfi_def_cfa_offset 8
 171              		.cfi_offset 7, -8
 172              		.cfi_offset 14, -4
 173 0002 82B0     		sub	sp, sp, #8
 174              	.LCFI6:
 175              		.cfi_def_cfa_offset 16
 176 0004 00AF     		add	r7, sp, #0
 177              	.LCFI7:
 178              		.cfi_def_cfa_register 7
 179 0006 7860     		str	r0, [r7, #4]
  84:.\main.c      **** 	Timer_Set(us + 50);
 180              		.loc 1 84 0
 181 0008 7B68     		ldr	r3, [r7, #4]
 182 000a 03F13203 		add	r3, r3, #50
 183 000e 1846     		mov	r0, r3
 184 0010 FFF7FEFF 		bl	Timer_Set
  85:.\main.c      **** 	while(Timer_ReadCounter() > 50) {}
 185              		.loc 1 85 0
 186 0014 00BF     		nop
 187              	.L9:
 188              		.loc 1 85 0 is_stmt 0 discriminator 1
 189 0016 FFF7FEFF 		bl	Timer_ReadCounter
 190 001a 0346     		mov	r3, r0
 191 001c 322B     		cmp	r3, #50
 192 001e FAD8     		bhi	.L9
  86:.\main.c      **** 	return;
 193              		.loc 1 86 0 is_stmt 1
 194 0020 00BF     		nop
  87:.\main.c      **** }
ARM GAS  C:\Users\RIEKOH~1\AppData\Local\Temp\ccluRx12.s 			page 6


 195              		.loc 1 87 0
 196 0022 07F10807 		add	r7, r7, #8
 197 0026 BD46     		mov	sp, r7
 198 0028 80BD     		pop	{r7, pc}
 199              		.cfi_endproc
 200              	.LFE58:
 201              		.size	Timer_Delayus, .-Timer_Delayus
 202 002a 00BF     		.section	.text.rs485_Start,"ax",%progbits
 203              		.align	2
 204              		.global	rs485_Start
 205              		.thumb
 206              		.thumb_func
 207              		.type	rs485_Start, %function
 208              	rs485_Start:
 209              	.LFB59:
  88:.\main.c      **** 
  89:.\main.c      **** void rs485_Start(void){
 210              		.loc 1 89 0
 211              		.cfi_startproc
 212              		@ args = 0, pretend = 0, frame = 0
 213              		@ frame_needed = 1, uses_anonymous_args = 0
 214 0000 80B5     		push	{r7, lr}
 215              	.LCFI8:
 216              		.cfi_def_cfa_offset 8
 217              		.cfi_offset 7, -8
 218              		.cfi_offset 14, -4
 219 0002 00AF     		add	r7, sp, #0
 220              	.LCFI9:
 221              		.cfi_def_cfa_register 7
  90:.\main.c      **** 	UART_Start();
 222              		.loc 1 90 0
 223 0004 FFF7FEFF 		bl	UART_Start
  91:.\main.c      **** 	Timer_Start();
 224              		.loc 1 91 0
 225 0008 FFF7FEFF 		bl	Timer_Start
  92:.\main.c      **** 	return;
 226              		.loc 1 92 0
 227 000c 00BF     		nop
  93:.\main.c      **** }
 228              		.loc 1 93 0
 229 000e 80BD     		pop	{r7, pc}
 230              		.cfi_endproc
 231              	.LFE59:
 232              		.size	rs485_Start, .-rs485_Start
 233              		.section	.text.rs485_CheckPacket,"ax",%progbits
 234              		.align	2
 235              		.global	rs485_CheckPacket
 236              		.thumb
 237              		.thumb_func
 238              		.type	rs485_CheckPacket, %function
 239              	rs485_CheckPacket:
 240              	.LFB60:
  94:.\main.c      **** 
  95:.\main.c      **** /*
  96:.\main.c      ****  * rs485_CheckPacket
  97:.\main.c      ****  * 複数アドレス対応版 ビット3-6が一致で応答
  98:.\main.c      ****  * addr : device address (7bit unsigned)
ARM GAS  C:\Users\RIEKOH~1\AppData\Local\Temp\ccluRx12.s 			page 7


  99:.\main.c      ****  * pak : pointer to PACKET structure
 100:.\main.c      ****  */
 101:.\main.c      **** char rs485_CheckPacket(
 102:.\main.c      **** 	char addr,
 103:.\main.c      **** 	PACKET *pak)
 104:.\main.c      **** {
 241              		.loc 1 104 0
 242              		.cfi_startproc
 243              		@ args = 0, pretend = 0, frame = 16
 244              		@ frame_needed = 1, uses_anonymous_args = 0
 245 0000 90B5     		push	{r4, r7, lr}
 246              	.LCFI10:
 247              		.cfi_def_cfa_offset 12
 248              		.cfi_offset 4, -12
 249              		.cfi_offset 7, -8
 250              		.cfi_offset 14, -4
 251 0002 85B0     		sub	sp, sp, #20
 252              	.LCFI11:
 253              		.cfi_def_cfa_offset 32
 254 0004 00AF     		add	r7, sp, #0
 255              	.LCFI12:
 256              		.cfi_def_cfa_register 7
 257 0006 0346     		mov	r3, r0
 258 0008 3960     		str	r1, [r7, #0]
 259 000a FB71     		strb	r3, [r7, #7]
 105:.\main.c      **** 	char rcv;
 106:.\main.c      **** 	unsigned char i;
 107:.\main.c      **** 	
 108:.\main.c      **** 	if((UART_ReadRxStatus() & UART_RX_STS_FIFO_NOTEMPTY) == 0)
 260              		.loc 1 108 0
 261 000c FFF7FEFF 		bl	UART_ReadRxStatus
 262 0010 0346     		mov	r3, r0
 263 0012 03F02003 		and	r3, r3, #32
 264 0016 002B     		cmp	r3, #0
 265 0018 0AD1     		bne	.L14
 109:.\main.c      **** 	{
 110:.\main.c      ****         LED_1_Write(1);
 266              		.loc 1 110 0
 267 001a 4FF00100 		mov	r0, #1
 268 001e FFF7FEFF 		bl	LED_1_Write
 111:.\main.c      **** 		READ();
 269              		.loc 1 111 0
 270 0022 4FF00000 		mov	r0, #0
 271 0026 FFF7FEFF 		bl	DE_Write
 112:.\main.c      **** 		return 1;
 272              		.loc 1 112 0
 273 002a 4FF00103 		mov	r3, #1
 274 002e BCE0     		b	.L15
 275              	.L14:
 113:.\main.c      **** 	}
 114:.\main.c      **** 	LED_1_Write(1);
 276              		.loc 1 114 0
 277 0030 4FF00100 		mov	r0, #1
 278 0034 FFF7FEFF 		bl	LED_1_Write
 115:.\main.c      **** 	rcv = UART_ReadRxData();
 279              		.loc 1 115 0
 280 0038 FFF7FEFF 		bl	UART_ReadRxData
ARM GAS  C:\Users\RIEKOH~1\AppData\Local\Temp\ccluRx12.s 			page 8


 281 003c 0346     		mov	r3, r0
 282 003e BB73     		strb	r3, [r7, #14]
 116:.\main.c      **** 	UART_ClearRxBuffer();
 283              		.loc 1 116 0
 284 0040 FFF7FEFF 		bl	UART_ClearRxBuffer
 117:.\main.c      **** 	if(addr != (rcv & 0x7f)){
 285              		.loc 1 117 0
 286 0044 FA79     		ldrb	r2, [r7, #7]	@ zero_extendqisi2
 287 0046 BB7B     		ldrb	r3, [r7, #14]	@ zero_extendqisi2
 288 0048 03F07F03 		and	r3, r3, #127
 289 004c 9A42     		cmp	r2, r3
 290 004e 22D0     		beq	.L16
 118:.\main.c      **** 		Timer_Set(200);
 291              		.loc 1 118 0
 292 0050 4FF0C800 		mov	r0, #200
 293 0054 FFF7FEFF 		bl	Timer_Set
 119:.\main.c      **** 		READ();
 294              		.loc 1 119 0
 295 0058 4FF00000 		mov	r0, #0
 296 005c FFF7FEFF 		bl	DE_Write
 120:.\main.c      **** 		while(Timer_ReadCounter() > 49){
 297              		.loc 1 120 0
 298 0060 0FE0     		b	.L17
 299              	.L18:
 121:.\main.c      **** 			if((UART_ReadRxStatus() & UART_RX_STS_FIFO_NOTEMPTY) != 0){
 300              		.loc 1 121 0
 301 0062 FFF7FEFF 		bl	UART_ReadRxStatus
 302 0066 0346     		mov	r3, r0
 303 0068 03F02003 		and	r3, r3, #32
 304 006c 002B     		cmp	r3, #0
 305 006e 08D0     		beq	.L17
 122:.\main.c      **** 				Timer_Delayus(900);
 306              		.loc 1 122 0
 307 0070 4FF46170 		mov	r0, #900
 308 0074 FFF7FEFF 		bl	Timer_Delayus
 123:.\main.c      **** 				UART_ClearRxBuffer();
 309              		.loc 1 123 0
 310 0078 FFF7FEFF 		bl	UART_ClearRxBuffer
 124:.\main.c      **** 				return 1;
 311              		.loc 1 124 0
 312 007c 4FF00103 		mov	r3, #1
 313 0080 93E0     		b	.L15
 314              	.L17:
 120:.\main.c      **** 		while(Timer_ReadCounter() > 49){
 315              		.loc 1 120 0 discriminator 1
 316 0082 FFF7FEFF 		bl	Timer_ReadCounter
 317 0086 0346     		mov	r3, r0
 318 0088 312B     		cmp	r3, #49
 319 008a EAD8     		bhi	.L18
 125:.\main.c      **** 			}
 126:.\main.c      **** 		}
 127:.\main.c      **** 		UART_ClearRxBuffer();
 320              		.loc 1 127 0
 321 008c FFF7FEFF 		bl	UART_ClearRxBuffer
 128:.\main.c      **** 		return 1;
 322              		.loc 1 128 0
 323 0090 4FF00103 		mov	r3, #1
ARM GAS  C:\Users\RIEKOH~1\AppData\Local\Temp\ccluRx12.s 			page 9


 324 0094 89E0     		b	.L15
 325              	.L16:
 129:.\main.c      **** 	}
 130:.\main.c      **** 	
 131:.\main.c      ****     LED_1_Write(0);
 326              		.loc 1 131 0
 327 0096 4FF00000 		mov	r0, #0
 328 009a FFF7FEFF 		bl	LED_1_Write
 132:.\main.c      **** 	WRITE();
 329              		.loc 1 132 0
 330 009e 4FF00100 		mov	r0, #1
 331 00a2 FFF7FEFF 		bl	DE_Write
 133:.\main.c      **** 	UART_PutChar(addr);
 332              		.loc 1 133 0
 333 00a6 FB79     		ldrb	r3, [r7, #7]	@ zero_extendqisi2
 334 00a8 1846     		mov	r0, r3
 335 00aa FFF7FEFF 		bl	UART_PutChar
 134:.\main.c      **** 	while(!(UART_ReadTxStatus() & UART_TX_STS_COMPLETE)) {}
 336              		.loc 1 134 0
 337 00ae 00BF     		nop
 338              	.L19:
 339              		.loc 1 134 0 is_stmt 0 discriminator 1
 340 00b0 FFF7FEFF 		bl	UART_ReadTxStatus
 341 00b4 0346     		mov	r3, r0
 342 00b6 03F00103 		and	r3, r3, #1
 343 00ba 002B     		cmp	r3, #0
 344 00bc F8D0     		beq	.L19
 135:.\main.c      **** 	UART_ClearRxBuffer();
 345              		.loc 1 135 0 is_stmt 1
 346 00be FFF7FEFF 		bl	UART_ClearRxBuffer
 136:.\main.c      **** 	
 137:.\main.c      **** 	if(rcv & 0x80){
 347              		.loc 1 137 0
 348 00c2 BB7B     		ldrb	r3, [r7, #14]	@ zero_extendqisi2
 349 00c4 5BB2     		sxtb	r3, r3
 350 00c6 002B     		cmp	r3, #0
 351 00c8 2FDA     		bge	.L20
 352              	.LBB2:
 138:.\main.c      **** 		// send data to master
 139:.\main.c      **** 		PACKET_ENDIANCHANGE(pak);
 353              		.loc 1 139 0
 354 00ca 3B68     		ldr	r3, [r7, #0]
 355 00cc 9B78     		ldrb	r3, [r3, #2]
 356 00ce 7B73     		strb	r3, [r7, #13]
 357 00d0 3B68     		ldr	r3, [r7, #0]
 358 00d2 DA78     		ldrb	r2, [r3, #3]	@ zero_extendqisi2
 359 00d4 3B68     		ldr	r3, [r7, #0]
 360 00d6 9A70     		strb	r2, [r3, #2]
 361 00d8 3B68     		ldr	r3, [r7, #0]
 362 00da 7A7B     		ldrb	r2, [r7, #13]
 363 00dc DA70     		strb	r2, [r3, #3]
 364 00de 3B68     		ldr	r3, [r7, #0]
 365 00e0 1B79     		ldrb	r3, [r3, #4]
 366 00e2 7B73     		strb	r3, [r7, #13]
 367 00e4 3B68     		ldr	r3, [r7, #0]
 368 00e6 5A79     		ldrb	r2, [r3, #5]	@ zero_extendqisi2
 369 00e8 3B68     		ldr	r3, [r7, #0]
ARM GAS  C:\Users\RIEKOH~1\AppData\Local\Temp\ccluRx12.s 			page 10


 370 00ea 1A71     		strb	r2, [r3, #4]
 371 00ec 3B68     		ldr	r3, [r7, #0]
 372 00ee 7A7B     		ldrb	r2, [r7, #13]
 373 00f0 5A71     		strb	r2, [r3, #5]
 374              	.LBE2:
 140:.\main.c      **** 		for(i = 0; i < 6; i++){
 375              		.loc 1 140 0
 376 00f2 4FF00003 		mov	r3, #0
 377 00f6 FB73     		strb	r3, [r7, #15]
 378 00f8 13E0     		b	.L21
 379              	.L23:
 141:.\main.c      **** 			UART_PutChar(pak->_byte[i]);
 380              		.loc 1 141 0
 381 00fa FB7B     		ldrb	r3, [r7, #15]	@ zero_extendqisi2
 382 00fc 3A68     		ldr	r2, [r7, #0]
 383 00fe D35C     		ldrb	r3, [r2, r3]	@ zero_extendqisi2
 384 0100 1846     		mov	r0, r3
 385 0102 FFF7FEFF 		bl	UART_PutChar
 142:.\main.c      **** 			while(!(UART_ReadTxStatus() & UART_TX_STS_COMPLETE)) {}
 386              		.loc 1 142 0
 387 0106 00BF     		nop
 388              	.L22:
 389              		.loc 1 142 0 is_stmt 0 discriminator 1
 390 0108 FFF7FEFF 		bl	UART_ReadTxStatus
 391 010c 0346     		mov	r3, r0
 392 010e 03F00103 		and	r3, r3, #1
 393 0112 002B     		cmp	r3, #0
 394 0114 F8D0     		beq	.L22
 143:.\main.c      **** 			UART_ClearRxBuffer();
 395              		.loc 1 143 0 is_stmt 1
 396 0116 FFF7FEFF 		bl	UART_ClearRxBuffer
 140:.\main.c      **** 		for(i = 0; i < 6; i++){
 397              		.loc 1 140 0
 398 011a FB7B     		ldrb	r3, [r7, #15]
 399 011c 03F10103 		add	r3, r3, #1
 400 0120 FB73     		strb	r3, [r7, #15]
 401              	.L21:
 140:.\main.c      **** 		for(i = 0; i < 6; i++){
 402              		.loc 1 140 0 is_stmt 0 discriminator 1
 403 0122 FB7B     		ldrb	r3, [r7, #15]	@ zero_extendqisi2
 404 0124 052B     		cmp	r3, #5
 405 0126 E8D9     		bls	.L23
 140:.\main.c      **** 		for(i = 0; i < 6; i++){
 406              		.loc 1 140 0
 407 0128 27E0     		b	.L24
 408              	.L20:
 144:.\main.c      **** 		}
 145:.\main.c      **** 	}
 146:.\main.c      **** 	else{
 147:.\main.c      **** 		// receive data from master
 148:.\main.c      **** 		READ();
 409              		.loc 1 148 0 is_stmt 1
 410 012a 4FF00000 		mov	r0, #0
 411 012e FFF7FEFF 		bl	DE_Write
 149:.\main.c      **** 		Timer_Set(1010);
 412              		.loc 1 149 0
 413 0132 40F2F230 		movw	r0, #1010
ARM GAS  C:\Users\RIEKOH~1\AppData\Local\Temp\ccluRx12.s 			page 11


 414 0136 FFF7FEFF 		bl	Timer_Set
 150:.\main.c      **** 		i = 0;
 415              		.loc 1 150 0
 416 013a 4FF00003 		mov	r3, #0
 417 013e FB73     		strb	r3, [r7, #15]
 151:.\main.c      **** 		while((i < 6) && (Timer_ReadCounter() > 10)){
 418              		.loc 1 151 0
 419 0140 13E0     		b	.L25
 420              	.L26:
 152:.\main.c      **** 			if(UART_ReadRxStatus() & UART_RX_STS_FIFO_NOTEMPTY){
 421              		.loc 1 152 0
 422 0142 FFF7FEFF 		bl	UART_ReadRxStatus
 423 0146 0346     		mov	r3, r0
 424 0148 03F02003 		and	r3, r3, #32
 425 014c 002B     		cmp	r3, #0
 426 014e 0CD0     		beq	.L25
 153:.\main.c      **** 				pak->_byte[i++] = UART_ReadRxData();
 427              		.loc 1 153 0
 428 0150 FC7B     		ldrb	r4, [r7, #15]	@ zero_extendqisi2
 429 0152 FFF7FEFF 		bl	UART_ReadRxData
 430 0156 0346     		mov	r3, r0
 431 0158 1A46     		mov	r2, r3
 432 015a 3B68     		ldr	r3, [r7, #0]
 433 015c 1A55     		strb	r2, [r3, r4]
 434 015e FB7B     		ldrb	r3, [r7, #15]
 435 0160 03F10103 		add	r3, r3, #1
 436 0164 FB73     		strb	r3, [r7, #15]
 154:.\main.c      **** 				UART_ClearRxBuffer();
 437              		.loc 1 154 0
 438 0166 FFF7FEFF 		bl	UART_ClearRxBuffer
 439              	.L25:
 151:.\main.c      **** 		while((i < 6) && (Timer_ReadCounter() > 10)){
 440              		.loc 1 151 0 discriminator 1
 441 016a FB7B     		ldrb	r3, [r7, #15]	@ zero_extendqisi2
 442 016c 052B     		cmp	r3, #5
 443 016e 04D8     		bhi	.L24
 151:.\main.c      **** 		while((i < 6) && (Timer_ReadCounter() > 10)){
 444              		.loc 1 151 0 is_stmt 0 discriminator 2
 445 0170 FFF7FEFF 		bl	Timer_ReadCounter
 446 0174 0346     		mov	r3, r0
 447 0176 0A2B     		cmp	r3, #10
 448 0178 E3D8     		bhi	.L26
 449              	.L24:
 155:.\main.c      **** 			}
 156:.\main.c      **** 		}
 157:.\main.c      **** 		//PACKET_ENDIANCHANGE(pak);
 158:.\main.c      **** 	}
 159:.\main.c      **** 	WRITE();
 450              		.loc 1 159 0 is_stmt 1
 451 017a 4FF00100 		mov	r0, #1
 452 017e FFF7FEFF 		bl	DE_Write
 160:.\main.c      **** 	UART_PutChar(addr);
 453              		.loc 1 160 0
 454 0182 FB79     		ldrb	r3, [r7, #7]	@ zero_extendqisi2
 455 0184 1846     		mov	r0, r3
 456 0186 FFF7FEFF 		bl	UART_PutChar
 161:.\main.c      **** 	while(!(UART_ReadTxStatus() & UART_TX_STS_COMPLETE)) {}
ARM GAS  C:\Users\RIEKOH~1\AppData\Local\Temp\ccluRx12.s 			page 12


 457              		.loc 1 161 0
 458 018a 00BF     		nop
 459              	.L27:
 460              		.loc 1 161 0 is_stmt 0 discriminator 1
 461 018c FFF7FEFF 		bl	UART_ReadTxStatus
 462 0190 0346     		mov	r3, r0
 463 0192 03F00103 		and	r3, r3, #1
 464 0196 002B     		cmp	r3, #0
 465 0198 F8D0     		beq	.L27
 162:.\main.c      **** 	UART_ClearRxBuffer();
 466              		.loc 1 162 0 is_stmt 1
 467 019a FFF7FEFF 		bl	UART_ClearRxBuffer
 163:.\main.c      **** 	READ();
 468              		.loc 1 163 0
 469 019e 4FF00000 		mov	r0, #0
 470 01a2 FFF7FEFF 		bl	DE_Write
 164:.\main.c      **** 	return 0;
 471              		.loc 1 164 0
 472 01a6 4FF00003 		mov	r3, #0
 473              	.L15:
 165:.\main.c      **** }
 474              		.loc 1 165 0
 475 01aa 1846     		mov	r0, r3
 476 01ac 07F11407 		add	r7, r7, #20
 477 01b0 BD46     		mov	sp, r7
 478 01b2 90BD     		pop	{r4, r7, pc}
 479              		.cfi_endproc
 480              	.LFE60:
 481              		.size	rs485_CheckPacket, .-rs485_CheckPacket
 482              		.section	.text.CheckValid,"ax",%progbits
 483              		.align	2
 484              		.global	CheckValid
 485              		.thumb
 486              		.thumb_func
 487              		.type	CheckValid, %function
 488              	CheckValid:
 489              	.LFB61:
 166:.\main.c      **** 
 167:.\main.c      **** char CheckValid(PACKET *pak){
 490              		.loc 1 167 0
 491              		.cfi_startproc
 492              		@ args = 0, pretend = 0, frame = 16
 493              		@ frame_needed = 1, uses_anonymous_args = 0
 494              		@ link register save eliminated.
 495 0000 80B4     		push	{r7}
 496              	.LCFI13:
 497              		.cfi_def_cfa_offset 4
 498              		.cfi_offset 7, -4
 499 0002 85B0     		sub	sp, sp, #20
 500              	.LCFI14:
 501              		.cfi_def_cfa_offset 24
 502 0004 00AF     		add	r7, sp, #0
 503              	.LCFI15:
 504              		.cfi_def_cfa_register 7
 505 0006 7860     		str	r0, [r7, #4]
 168:.\main.c      ****     unsigned char sum = 0;
 506              		.loc 1 168 0
ARM GAS  C:\Users\RIEKOH~1\AppData\Local\Temp\ccluRx12.s 			page 13


 507 0008 4FF00003 		mov	r3, #0
 508 000c FB73     		strb	r3, [r7, #15]
 169:.\main.c      ****     int i;
 170:.\main.c      ****     
 171:.\main.c      ****     for(i = 0; i < 4; i++){
 509              		.loc 1 171 0
 510 000e 4FF00003 		mov	r3, #0
 511 0012 BB60     		str	r3, [r7, #8]
 512 0014 0BE0     		b	.L29
 513              	.L30:
 172:.\main.c      ****         sum += pak->_byte[i+2];    
 514              		.loc 1 172 0 discriminator 2
 515 0016 BB68     		ldr	r3, [r7, #8]
 516 0018 03F10203 		add	r3, r3, #2
 517 001c 7A68     		ldr	r2, [r7, #4]
 518 001e D25C     		ldrb	r2, [r2, r3]	@ zero_extendqisi2
 519 0020 FB7B     		ldrb	r3, [r7, #15]
 520 0022 D318     		adds	r3, r2, r3
 521 0024 FB73     		strb	r3, [r7, #15]
 171:.\main.c      ****     for(i = 0; i < 4; i++){
 522              		.loc 1 171 0 discriminator 2
 523 0026 BB68     		ldr	r3, [r7, #8]
 524 0028 03F10103 		add	r3, r3, #1
 525 002c BB60     		str	r3, [r7, #8]
 526              	.L29:
 171:.\main.c      ****     for(i = 0; i < 4; i++){
 527              		.loc 1 171 0 is_stmt 0 discriminator 1
 528 002e BB68     		ldr	r3, [r7, #8]
 529 0030 032B     		cmp	r3, #3
 530 0032 F0DD     		ble	.L30
 173:.\main.c      ****     }
 174:.\main.c      ****     if((~sum & 0xff) == pak->_pak.bCheckSum) {
 531              		.loc 1 174 0 is_stmt 1
 532 0034 FB7B     		ldrb	r3, [r7, #15]	@ zero_extendqisi2
 533 0036 6FEA0303 		mvn	r3, r3
 534 003a DAB2     		uxtb	r2, r3
 535 003c 7B68     		ldr	r3, [r7, #4]
 536 003e 5B78     		ldrb	r3, [r3, #1]	@ zero_extendqisi2
 537 0040 9A42     		cmp	r2, r3
 538 0042 02D1     		bne	.L31
 175:.\main.c      ****         return 1;
 539              		.loc 1 175 0
 540 0044 4FF00103 		mov	r3, #1
 541 0048 01E0     		b	.L32
 542              	.L31:
 176:.\main.c      ****     } else {
 177:.\main.c      ****         return 0;
 543              		.loc 1 177 0
 544 004a 4FF00003 		mov	r3, #0
 545              	.L32:
 178:.\main.c      ****     }
 179:.\main.c      **** }
 546              		.loc 1 179 0
 547 004e 1846     		mov	r0, r3
 548 0050 07F11407 		add	r7, r7, #20
 549 0054 BD46     		mov	sp, r7
 550 0056 80BC     		pop	{r7}
ARM GAS  C:\Users\RIEKOH~1\AppData\Local\Temp\ccluRx12.s 			page 14


 551 0058 7047     		bx	lr
 552              		.cfi_endproc
 553              	.LFE61:
 554              		.size	CheckValid, .-CheckValid
 555 005a 00BF     		.section	.text.CenterStatus1,"ax",%progbits
 556              		.align	2
 557              		.global	CenterStatus1
 558              		.thumb
 559              		.thumb_func
 560              		.type	CenterStatus1, %function
 561              	CenterStatus1:
 562              	.LFB62:
 180:.\main.c      **** 
 181:.\main.c      **** int CenterStatus1(void){
 563              		.loc 1 181 0
 564              		.cfi_startproc
 565              		@ args = 0, pretend = 0, frame = 16
 566              		@ frame_needed = 1, uses_anonymous_args = 0
 567 0000 80B5     		push	{r7, lr}
 568              	.LCFI16:
 569              		.cfi_def_cfa_offset 8
 570              		.cfi_offset 7, -8
 571              		.cfi_offset 14, -4
 572 0002 84B0     		sub	sp, sp, #16
 573              	.LCFI17:
 574              		.cfi_def_cfa_offset 24
 575 0004 00AF     		add	r7, sp, #0
 576              	.LCFI18:
 577              		.cfi_def_cfa_register 7
 182:.\main.c      **** 	int Trim1 ,dTrim1 = 20;
 578              		.loc 1 182 0
 579 0006 4FF01403 		mov	r3, #20
 580 000a BB60     		str	r3, [r7, #8]
 183:.\main.c      **** 	int sw1 = (~ Status_Reg_1_Read()) & 0x0F ;
 581              		.loc 1 183 0
 582 000c FFF7FEFF 		bl	Status_Reg_1_Read
 583 0010 0346     		mov	r3, r0
 584 0012 6FEA0303 		mvn	r3, r3
 585 0016 03F00F03 		and	r3, r3, #15
 586 001a 7B60     		str	r3, [r7, #4]
 184:.\main.c      **** 	switch(sw1){
 587              		.loc 1 184 0
 588 001c 7B68     		ldr	r3, [r7, #4]
 589 001e 0F2B     		cmp	r3, #15
 590 0020 00F29480 		bhi	.L34
 591 0024 01A2     		adr	r2, .L51
 592 0026 52F823F0 		ldr	pc, [r2, r3, lsl #2]
 593 002a 00BF     		.align	2
 594              	.L51:
 595 002c 6D000000 		.word	.L35+1
 596 0030 7F000000 		.word	.L36+1
 597 0034 8D000000 		.word	.L37+1
 598 0038 9F000000 		.word	.L38+1
 599 003c B3000000 		.word	.L39+1
 600 0040 C5000000 		.word	.L40+1
 601 0044 D3000000 		.word	.L41+1
 602 0048 E5000000 		.word	.L42+1
ARM GAS  C:\Users\RIEKOH~1\AppData\Local\Temp\ccluRx12.s 			page 15


 603 004c EF000000 		.word	.L43+1
 604 0050 F7000000 		.word	.L44+1
 605 0054 FD000000 		.word	.L45+1
 606 0058 07010000 		.word	.L46+1
 607 005c 15010000 		.word	.L47+1
 608 0060 1F010000 		.word	.L48+1
 609 0064 2D010000 		.word	.L49+1
 610 0068 3F010000 		.word	.L50+1
 611              	.L35:
 185:.\main.c      **** 		case 0x00 :
 186:.\main.c      **** 			Trim1 = -8*dTrim1;
 612              		.loc 1 186 0
 613 006c BA68     		ldr	r2, [r7, #8]
 614 006e 1346     		mov	r3, r2
 615 0070 4FEA4373 		lsl	r3, r3, #29
 616 0074 9B1A     		subs	r3, r3, r2
 617 0076 4FEAC303 		lsl	r3, r3, #3
 618 007a FB60     		str	r3, [r7, #12]
 187:.\main.c      **** 			break;	
 619              		.loc 1 187 0
 620 007c 66E0     		b	.L34
 621              	.L36:
 188:.\main.c      **** 		case 0x01 :
 189:.\main.c      **** 			Trim1 = -7*dTrim1;
 622              		.loc 1 189 0
 623 007e BB68     		ldr	r3, [r7, #8]
 624 0080 1A46     		mov	r2, r3
 625 0082 4FEAC303 		lsl	r3, r3, #3
 626 0086 D31A     		subs	r3, r2, r3
 627 0088 FB60     		str	r3, [r7, #12]
 190:.\main.c      **** 			break;
 628              		.loc 1 190 0
 629 008a 5FE0     		b	.L34
 630              	.L37:
 191:.\main.c      **** 		case 0x02 :
 192:.\main.c      **** 			Trim1 = -6*dTrim1;
 631              		.loc 1 192 0
 632 008c BA68     		ldr	r2, [r7, #8]
 633 008e 1346     		mov	r3, r2
 634 0090 4FEA8202 		lsl	r2, r2, #2
 635 0094 9B1A     		subs	r3, r3, r2
 636 0096 4FEA4303 		lsl	r3, r3, #1
 637 009a FB60     		str	r3, [r7, #12]
 193:.\main.c      **** 			break;
 638              		.loc 1 193 0
 639 009c 56E0     		b	.L34
 640              	.L38:
 194:.\main.c      **** 		case 0x03 :
 195:.\main.c      **** 			Trim1 = -5*dTrim1;
 641              		.loc 1 195 0
 642 009e BA68     		ldr	r2, [r7, #8]
 643 00a0 1346     		mov	r3, r2
 644 00a2 4FEA8373 		lsl	r3, r3, #30
 645 00a6 9B1A     		subs	r3, r3, r2
 646 00a8 4FEA8303 		lsl	r3, r3, #2
 647 00ac 9B1A     		subs	r3, r3, r2
 648 00ae FB60     		str	r3, [r7, #12]
ARM GAS  C:\Users\RIEKOH~1\AppData\Local\Temp\ccluRx12.s 			page 16


 196:.\main.c      **** 			break;
 649              		.loc 1 196 0
 650 00b0 4CE0     		b	.L34
 651              	.L39:
 197:.\main.c      **** 		case 0x04 :
 198:.\main.c      **** 			Trim1 = -4*dTrim1;
 652              		.loc 1 198 0
 653 00b2 BA68     		ldr	r2, [r7, #8]
 654 00b4 1346     		mov	r3, r2
 655 00b6 4FEA8373 		lsl	r3, r3, #30
 656 00ba 9B1A     		subs	r3, r3, r2
 657 00bc 4FEA8303 		lsl	r3, r3, #2
 658 00c0 FB60     		str	r3, [r7, #12]
 199:.\main.c      **** 			break;
 659              		.loc 1 199 0
 660 00c2 43E0     		b	.L34
 661              	.L40:
 200:.\main.c      **** 		case 0x05 :
 201:.\main.c      **** 			Trim1 = -3*dTrim1;
 662              		.loc 1 201 0
 663 00c4 BB68     		ldr	r3, [r7, #8]
 664 00c6 1A46     		mov	r2, r3
 665 00c8 4FEA8303 		lsl	r3, r3, #2
 666 00cc D31A     		subs	r3, r2, r3
 667 00ce FB60     		str	r3, [r7, #12]
 202:.\main.c      **** 			break;
 668              		.loc 1 202 0
 669 00d0 3CE0     		b	.L34
 670              	.L41:
 203:.\main.c      **** 		case 0x06 :
 204:.\main.c      **** 			Trim1 = -2*dTrim1;
 671              		.loc 1 204 0
 672 00d2 BA68     		ldr	r2, [r7, #8]
 673 00d4 1346     		mov	r3, r2
 674 00d6 4FEAC373 		lsl	r3, r3, #31
 675 00da 9B1A     		subs	r3, r3, r2
 676 00dc 4FEA4303 		lsl	r3, r3, #1
 677 00e0 FB60     		str	r3, [r7, #12]
 205:.\main.c      **** 			break;
 678              		.loc 1 205 0
 679 00e2 33E0     		b	.L34
 680              	.L42:
 206:.\main.c      **** 		case 0x07 :
 207:.\main.c      **** 			Trim1 = -1*dTrim1;
 681              		.loc 1 207 0
 682 00e4 BB68     		ldr	r3, [r7, #8]
 683 00e6 C3F10003 		rsb	r3, r3, #0
 684 00ea FB60     		str	r3, [r7, #12]
 208:.\main.c      **** 			break;
 685              		.loc 1 208 0
 686 00ec 2EE0     		b	.L34
 687              	.L43:
 209:.\main.c      **** 		case 0x08 :
 210:.\main.c      **** 			Trim1 = 0*dTrim1;
 688              		.loc 1 210 0
 689 00ee 4FF00003 		mov	r3, #0
 690 00f2 FB60     		str	r3, [r7, #12]
ARM GAS  C:\Users\RIEKOH~1\AppData\Local\Temp\ccluRx12.s 			page 17


 211:.\main.c      **** 			break;
 691              		.loc 1 211 0
 692 00f4 2AE0     		b	.L34
 693              	.L44:
 212:.\main.c      **** 		case 0x09 :
 213:.\main.c      **** 			Trim1 = 1*dTrim1;
 694              		.loc 1 213 0
 695 00f6 BB68     		ldr	r3, [r7, #8]
 696 00f8 FB60     		str	r3, [r7, #12]
 214:.\main.c      **** 			break;
 697              		.loc 1 214 0
 698 00fa 27E0     		b	.L34
 699              	.L45:
 215:.\main.c      **** 		case 0x0A :
 216:.\main.c      **** 			Trim1 = 2*dTrim1;
 700              		.loc 1 216 0
 701 00fc BB68     		ldr	r3, [r7, #8]
 702 00fe 4FEA4303 		lsl	r3, r3, #1
 703 0102 FB60     		str	r3, [r7, #12]
 217:.\main.c      **** 			break;
 704              		.loc 1 217 0
 705 0104 22E0     		b	.L34
 706              	.L46:
 218:.\main.c      **** 		case 0x0B :
 219:.\main.c      **** 			Trim1 = 3*dTrim1;
 707              		.loc 1 219 0
 708 0106 BA68     		ldr	r2, [r7, #8]
 709 0108 1346     		mov	r3, r2
 710 010a 4FEA4303 		lsl	r3, r3, #1
 711 010e 9B18     		adds	r3, r3, r2
 712 0110 FB60     		str	r3, [r7, #12]
 220:.\main.c      **** 			break;
 713              		.loc 1 220 0
 714 0112 1BE0     		b	.L34
 715              	.L47:
 221:.\main.c      **** 		case 0x0C :
 222:.\main.c      **** 			Trim1 = 4*dTrim1;
 716              		.loc 1 222 0
 717 0114 BB68     		ldr	r3, [r7, #8]
 718 0116 4FEA8303 		lsl	r3, r3, #2
 719 011a FB60     		str	r3, [r7, #12]
 223:.\main.c      **** 			break;
 720              		.loc 1 223 0
 721 011c 16E0     		b	.L34
 722              	.L48:
 224:.\main.c      **** 		case 0x0D :
 225:.\main.c      **** 			Trim1 = 5*dTrim1;
 723              		.loc 1 225 0
 724 011e BA68     		ldr	r2, [r7, #8]
 725 0120 1346     		mov	r3, r2
 726 0122 4FEA8303 		lsl	r3, r3, #2
 727 0126 9B18     		adds	r3, r3, r2
 728 0128 FB60     		str	r3, [r7, #12]
 226:.\main.c      **** 			break;
 729              		.loc 1 226 0
 730 012a 0FE0     		b	.L34
 731              	.L49:
ARM GAS  C:\Users\RIEKOH~1\AppData\Local\Temp\ccluRx12.s 			page 18


 227:.\main.c      **** 		case 0x0E :
 228:.\main.c      **** 			Trim1 = 6*dTrim1;
 732              		.loc 1 228 0
 733 012c BA68     		ldr	r2, [r7, #8]
 734 012e 1346     		mov	r3, r2
 735 0130 4FEA4303 		lsl	r3, r3, #1
 736 0134 9B18     		adds	r3, r3, r2
 737 0136 4FEA4303 		lsl	r3, r3, #1
 738 013a FB60     		str	r3, [r7, #12]
 229:.\main.c      **** 			break;
 739              		.loc 1 229 0
 740 013c 06E0     		b	.L34
 741              	.L50:
 230:.\main.c      **** 		case 0x0F :
 231:.\main.c      **** 			Trim1 = 7*dTrim1;
 742              		.loc 1 231 0
 743 013e BA68     		ldr	r2, [r7, #8]
 744 0140 1346     		mov	r3, r2
 745 0142 4FEAC303 		lsl	r3, r3, #3
 746 0146 9B1A     		subs	r3, r3, r2
 747 0148 FB60     		str	r3, [r7, #12]
 232:.\main.c      **** 			break;
 748              		.loc 1 232 0
 749 014a 00BF     		nop
 750              	.L34:
 233:.\main.c      **** 	}
 234:.\main.c      **** 	return(Trim1);
 751              		.loc 1 234 0
 752 014c FB68     		ldr	r3, [r7, #12]
 235:.\main.c      **** }
 753              		.loc 1 235 0
 754 014e 1846     		mov	r0, r3
 755 0150 07F11007 		add	r7, r7, #16
 756 0154 BD46     		mov	sp, r7
 757 0156 80BD     		pop	{r7, pc}
 758              		.cfi_endproc
 759              	.LFE62:
 760              		.size	CenterStatus1, .-CenterStatus1
 761              		.section	.text.CenterStatus2,"ax",%progbits
 762              		.align	2
 763              		.global	CenterStatus2
 764              		.thumb
 765              		.thumb_func
 766              		.type	CenterStatus2, %function
 767              	CenterStatus2:
 768              	.LFB63:
 236:.\main.c      **** 
 237:.\main.c      **** int CenterStatus2(void){
 769              		.loc 1 237 0
 770              		.cfi_startproc
 771              		@ args = 0, pretend = 0, frame = 16
 772              		@ frame_needed = 1, uses_anonymous_args = 0
 773 0000 80B5     		push	{r7, lr}
 774              	.LCFI19:
 775              		.cfi_def_cfa_offset 8
 776              		.cfi_offset 7, -8
 777              		.cfi_offset 14, -4
ARM GAS  C:\Users\RIEKOH~1\AppData\Local\Temp\ccluRx12.s 			page 19


 778 0002 84B0     		sub	sp, sp, #16
 779              	.LCFI20:
 780              		.cfi_def_cfa_offset 24
 781 0004 00AF     		add	r7, sp, #0
 782              	.LCFI21:
 783              		.cfi_def_cfa_register 7
 238:.\main.c      **** 	int Trim2 ,dTrim2 = 20;
 784              		.loc 1 238 0
 785 0006 4FF01403 		mov	r3, #20
 786 000a BB60     		str	r3, [r7, #8]
 239:.\main.c      **** 	int sw2 = (~ Status_Reg_2_Read()) & 0x0F ;
 787              		.loc 1 239 0
 788 000c FFF7FEFF 		bl	Status_Reg_2_Read
 789 0010 0346     		mov	r3, r0
 790 0012 6FEA0303 		mvn	r3, r3
 791 0016 03F00F03 		and	r3, r3, #15
 792 001a 7B60     		str	r3, [r7, #4]
 240:.\main.c      **** 	switch(sw2){
 793              		.loc 1 240 0
 794 001c 7B68     		ldr	r3, [r7, #4]
 795 001e 0F2B     		cmp	r3, #15
 796 0020 00F29480 		bhi	.L54
 797 0024 01A2     		adr	r2, .L71
 798 0026 52F823F0 		ldr	pc, [r2, r3, lsl #2]
 799 002a 00BF     		.align	2
 800              	.L71:
 801 002c 6D000000 		.word	.L55+1
 802 0030 7F000000 		.word	.L56+1
 803 0034 8D000000 		.word	.L57+1
 804 0038 9F000000 		.word	.L58+1
 805 003c B3000000 		.word	.L59+1
 806 0040 C5000000 		.word	.L60+1
 807 0044 D3000000 		.word	.L61+1
 808 0048 E5000000 		.word	.L62+1
 809 004c EF000000 		.word	.L63+1
 810 0050 F7000000 		.word	.L64+1
 811 0054 FD000000 		.word	.L65+1
 812 0058 07010000 		.word	.L66+1
 813 005c 15010000 		.word	.L67+1
 814 0060 1F010000 		.word	.L68+1
 815 0064 2D010000 		.word	.L69+1
 816 0068 3F010000 		.word	.L70+1
 817              	.L55:
 241:.\main.c      **** 		case 0x00 :
 242:.\main.c      **** 			Trim2 = -8*dTrim2;
 818              		.loc 1 242 0
 819 006c BA68     		ldr	r2, [r7, #8]
 820 006e 1346     		mov	r3, r2
 821 0070 4FEA4373 		lsl	r3, r3, #29
 822 0074 9B1A     		subs	r3, r3, r2
 823 0076 4FEAC303 		lsl	r3, r3, #3
 824 007a FB60     		str	r3, [r7, #12]
 243:.\main.c      **** 			break;	
 825              		.loc 1 243 0
 826 007c 66E0     		b	.L54
 827              	.L56:
 244:.\main.c      **** 		case 0x01 :
ARM GAS  C:\Users\RIEKOH~1\AppData\Local\Temp\ccluRx12.s 			page 20


 245:.\main.c      **** 			Trim2 = -7*dTrim2;
 828              		.loc 1 245 0
 829 007e BB68     		ldr	r3, [r7, #8]
 830 0080 1A46     		mov	r2, r3
 831 0082 4FEAC303 		lsl	r3, r3, #3
 832 0086 D31A     		subs	r3, r2, r3
 833 0088 FB60     		str	r3, [r7, #12]
 246:.\main.c      **** 			break;
 834              		.loc 1 246 0
 835 008a 5FE0     		b	.L54
 836              	.L57:
 247:.\main.c      **** 		case 0x02 :
 248:.\main.c      **** 			Trim2 = -6*dTrim2;
 837              		.loc 1 248 0
 838 008c BA68     		ldr	r2, [r7, #8]
 839 008e 1346     		mov	r3, r2
 840 0090 4FEA8202 		lsl	r2, r2, #2
 841 0094 9B1A     		subs	r3, r3, r2
 842 0096 4FEA4303 		lsl	r3, r3, #1
 843 009a FB60     		str	r3, [r7, #12]
 249:.\main.c      **** 			break;
 844              		.loc 1 249 0
 845 009c 56E0     		b	.L54
 846              	.L58:
 250:.\main.c      **** 		case 0x03 :
 251:.\main.c      **** 			Trim2 = -5*dTrim2;
 847              		.loc 1 251 0
 848 009e BA68     		ldr	r2, [r7, #8]
 849 00a0 1346     		mov	r3, r2
 850 00a2 4FEA8373 		lsl	r3, r3, #30
 851 00a6 9B1A     		subs	r3, r3, r2
 852 00a8 4FEA8303 		lsl	r3, r3, #2
 853 00ac 9B1A     		subs	r3, r3, r2
 854 00ae FB60     		str	r3, [r7, #12]
 252:.\main.c      **** 			break;
 855              		.loc 1 252 0
 856 00b0 4CE0     		b	.L54
 857              	.L59:
 253:.\main.c      **** 		case 0x04 :
 254:.\main.c      **** 			Trim2 = -4*dTrim2;
 858              		.loc 1 254 0
 859 00b2 BA68     		ldr	r2, [r7, #8]
 860 00b4 1346     		mov	r3, r2
 861 00b6 4FEA8373 		lsl	r3, r3, #30
 862 00ba 9B1A     		subs	r3, r3, r2
 863 00bc 4FEA8303 		lsl	r3, r3, #2
 864 00c0 FB60     		str	r3, [r7, #12]
 255:.\main.c      **** 			break;
 865              		.loc 1 255 0
 866 00c2 43E0     		b	.L54
 867              	.L60:
 256:.\main.c      **** 		case 0x05 :
 257:.\main.c      **** 			Trim2 = -3*dTrim2;
 868              		.loc 1 257 0
 869 00c4 BB68     		ldr	r3, [r7, #8]
 870 00c6 1A46     		mov	r2, r3
 871 00c8 4FEA8303 		lsl	r3, r3, #2
ARM GAS  C:\Users\RIEKOH~1\AppData\Local\Temp\ccluRx12.s 			page 21


 872 00cc D31A     		subs	r3, r2, r3
 873 00ce FB60     		str	r3, [r7, #12]
 258:.\main.c      **** 			break;
 874              		.loc 1 258 0
 875 00d0 3CE0     		b	.L54
 876              	.L61:
 259:.\main.c      **** 		case 0x06 :
 260:.\main.c      **** 			Trim2 = -2*dTrim2;
 877              		.loc 1 260 0
 878 00d2 BA68     		ldr	r2, [r7, #8]
 879 00d4 1346     		mov	r3, r2
 880 00d6 4FEAC373 		lsl	r3, r3, #31
 881 00da 9B1A     		subs	r3, r3, r2
 882 00dc 4FEA4303 		lsl	r3, r3, #1
 883 00e0 FB60     		str	r3, [r7, #12]
 261:.\main.c      **** 			break;
 884              		.loc 1 261 0
 885 00e2 33E0     		b	.L54
 886              	.L62:
 262:.\main.c      **** 		case 0x07 :
 263:.\main.c      **** 			Trim2 = -1*dTrim2;
 887              		.loc 1 263 0
 888 00e4 BB68     		ldr	r3, [r7, #8]
 889 00e6 C3F10003 		rsb	r3, r3, #0
 890 00ea FB60     		str	r3, [r7, #12]
 264:.\main.c      **** 			break;
 891              		.loc 1 264 0
 892 00ec 2EE0     		b	.L54
 893              	.L63:
 265:.\main.c      **** 		case 0x08 :
 266:.\main.c      **** 			Trim2 = 0*dTrim2;
 894              		.loc 1 266 0
 895 00ee 4FF00003 		mov	r3, #0
 896 00f2 FB60     		str	r3, [r7, #12]
 267:.\main.c      **** 			break;
 897              		.loc 1 267 0
 898 00f4 2AE0     		b	.L54
 899              	.L64:
 268:.\main.c      **** 		case 0x09 :
 269:.\main.c      **** 			Trim2 = 1*dTrim2;
 900              		.loc 1 269 0
 901 00f6 BB68     		ldr	r3, [r7, #8]
 902 00f8 FB60     		str	r3, [r7, #12]
 270:.\main.c      **** 			break;
 903              		.loc 1 270 0
 904 00fa 27E0     		b	.L54
 905              	.L65:
 271:.\main.c      **** 		case 0x0A :
 272:.\main.c      **** 			Trim2 = 2*dTrim2;
 906              		.loc 1 272 0
 907 00fc BB68     		ldr	r3, [r7, #8]
 908 00fe 4FEA4303 		lsl	r3, r3, #1
 909 0102 FB60     		str	r3, [r7, #12]
 273:.\main.c      **** 			break;
 910              		.loc 1 273 0
 911 0104 22E0     		b	.L54
 912              	.L66:
ARM GAS  C:\Users\RIEKOH~1\AppData\Local\Temp\ccluRx12.s 			page 22


 274:.\main.c      **** 		case 0x0B :
 275:.\main.c      **** 			Trim2 = 3*dTrim2;
 913              		.loc 1 275 0
 914 0106 BA68     		ldr	r2, [r7, #8]
 915 0108 1346     		mov	r3, r2
 916 010a 4FEA4303 		lsl	r3, r3, #1
 917 010e 9B18     		adds	r3, r3, r2
 918 0110 FB60     		str	r3, [r7, #12]
 276:.\main.c      **** 			break;
 919              		.loc 1 276 0
 920 0112 1BE0     		b	.L54
 921              	.L67:
 277:.\main.c      **** 		case 0x0C :
 278:.\main.c      **** 			Trim2 = 4*dTrim2;
 922              		.loc 1 278 0
 923 0114 BB68     		ldr	r3, [r7, #8]
 924 0116 4FEA8303 		lsl	r3, r3, #2
 925 011a FB60     		str	r3, [r7, #12]
 279:.\main.c      **** 			break;
 926              		.loc 1 279 0
 927 011c 16E0     		b	.L54
 928              	.L68:
 280:.\main.c      **** 		case 0x0D :
 281:.\main.c      **** 			Trim2 = 5*dTrim2;
 929              		.loc 1 281 0
 930 011e BA68     		ldr	r2, [r7, #8]
 931 0120 1346     		mov	r3, r2
 932 0122 4FEA8303 		lsl	r3, r3, #2
 933 0126 9B18     		adds	r3, r3, r2
 934 0128 FB60     		str	r3, [r7, #12]
 282:.\main.c      **** 			break;
 935              		.loc 1 282 0
 936 012a 0FE0     		b	.L54
 937              	.L69:
 283:.\main.c      **** 		case 0x0E :
 284:.\main.c      **** 			Trim2 = 6*dTrim2;
 938              		.loc 1 284 0
 939 012c BA68     		ldr	r2, [r7, #8]
 940 012e 1346     		mov	r3, r2
 941 0130 4FEA4303 		lsl	r3, r3, #1
 942 0134 9B18     		adds	r3, r3, r2
 943 0136 4FEA4303 		lsl	r3, r3, #1
 944 013a FB60     		str	r3, [r7, #12]
 285:.\main.c      **** 			break;
 945              		.loc 1 285 0
 946 013c 06E0     		b	.L54
 947              	.L70:
 286:.\main.c      **** 		case 0x0F :
 287:.\main.c      **** 			Trim2 = 7*dTrim2;
 948              		.loc 1 287 0
 949 013e BA68     		ldr	r2, [r7, #8]
 950 0140 1346     		mov	r3, r2
 951 0142 4FEAC303 		lsl	r3, r3, #3
 952 0146 9B1A     		subs	r3, r3, r2
 953 0148 FB60     		str	r3, [r7, #12]
 288:.\main.c      **** 			break;
 954              		.loc 1 288 0
ARM GAS  C:\Users\RIEKOH~1\AppData\Local\Temp\ccluRx12.s 			page 23


 955 014a 00BF     		nop
 956              	.L54:
 289:.\main.c      **** 	}
 290:.\main.c      **** 	return(Trim2);
 957              		.loc 1 290 0
 958 014c FB68     		ldr	r3, [r7, #12]
 291:.\main.c      **** }
 959              		.loc 1 291 0
 960 014e 1846     		mov	r0, r3
 961 0150 07F11007 		add	r7, r7, #16
 962 0154 BD46     		mov	sp, r7
 963 0156 80BD     		pop	{r7, pc}
 964              		.cfi_endproc
 965              	.LFE63:
 966              		.size	CenterStatus2, .-CenterStatus2
 967              		.section	.text.Servo_Start,"ax",%progbits
 968              		.align	2
 969              		.global	Servo_Start
 970              		.thumb
 971              		.thumb_func
 972              		.type	Servo_Start, %function
 973              	Servo_Start:
 974              	.LFB64:
 292:.\main.c      **** 
 293:.\main.c      **** void Servo_Start(void){
 975              		.loc 1 293 0
 976              		.cfi_startproc
 977              		@ args = 0, pretend = 0, frame = 0
 978              		@ frame_needed = 1, uses_anonymous_args = 0
 979 0000 80B5     		push	{r7, lr}
 980              	.LCFI22:
 981              		.cfi_def_cfa_offset 8
 982              		.cfi_offset 7, -8
 983              		.cfi_offset 14, -4
 984 0002 00AF     		add	r7, sp, #0
 985              	.LCFI23:
 986              		.cfi_def_cfa_register 7
 294:.\main.c      **** 	elevator_buffer = 1500;
 987              		.loc 1 294 0
 988 0004 40F20003 		movw	r3, #:lower16:elevator_buffer
 989 0008 C0F20003 		movt	r3, #:upper16:elevator_buffer
 990 000c 40F2DC52 		movw	r2, #1500
 991 0010 1A60     		str	r2, [r3, #0]
 295:.\main.c      **** 	radder_buffer = 1500;
 992              		.loc 1 295 0
 993 0012 40F20003 		movw	r3, #:lower16:radder_buffer
 994 0016 C0F20003 		movt	r3, #:upper16:radder_buffer
 995 001a 40F2DC52 		movw	r2, #1500
 996 001e 1A60     		str	r2, [r3, #0]
 296:.\main.c      **** 	PWM_1_Start();
 997              		.loc 1 296 0
 998 0020 FFF7FEFF 		bl	PWM_1_Start
 297:.\main.c      ****     isr_tc_StartEx(Terminal_Count_ISR);
 999              		.loc 1 297 0
 1000 0024 40F20000 		movw	r0, #:lower16:Terminal_Count_ISR
 1001 0028 C0F20000 		movt	r0, #:upper16:Terminal_Count_ISR
 1002 002c FFF7FEFF 		bl	isr_tc_StartEx
ARM GAS  C:\Users\RIEKOH~1\AppData\Local\Temp\ccluRx12.s 			page 24


 298:.\main.c      ****     return;
 1003              		.loc 1 298 0
 1004 0030 00BF     		nop
 299:.\main.c      **** }
 1005              		.loc 1 299 0
 1006 0032 80BD     		pop	{r7, pc}
 1007              		.cfi_endproc
 1008              	.LFE64:
 1009              		.size	Servo_Start, .-Servo_Start
 1010              		.global	__aeabi_i2d
 1011              		.global	__aeabi_dmul
 1012              		.global	__aeabi_dsub
 1013              		.global	__aeabi_d2uiz
 1014              		.section	.text.FormatValueElv,"ax",%progbits
 1015              		.align	2
 1016              		.global	FormatValueElv
 1017              		.thumb
 1018              		.thumb_func
 1019              		.type	FormatValueElv, %function
 1020              	FormatValueElv:
 1021              	.LFB65:
 300:.\main.c      **** 
 301:.\main.c      **** unsigned int FormatValueElv(unsigned short raw_elv){
 1022              		.loc 1 301 0
 1023              		.cfi_startproc
 1024              		@ args = 0, pretend = 0, frame = 8
 1025              		@ frame_needed = 1, uses_anonymous_args = 0
 1026 0000 B0B5     		push	{r4, r5, r7, lr}
 1027              	.LCFI24:
 1028              		.cfi_def_cfa_offset 16
 1029              		.cfi_offset 4, -16
 1030              		.cfi_offset 5, -12
 1031              		.cfi_offset 7, -8
 1032              		.cfi_offset 14, -4
 1033 0002 82B0     		sub	sp, sp, #8
 1034              	.LCFI25:
 1035              		.cfi_def_cfa_offset 24
 1036 0004 00AF     		add	r7, sp, #0
 1037              	.LCFI26:
 1038              		.cfi_def_cfa_register 7
 1039 0006 0346     		mov	r3, r0
 1040 0008 FB80     		strh	r3, [r7, #6]	@ movhi
 302:.\main.c      **** 	raw_elv = 1400 + CenterStatus1() - (raw_elv - 1500)*1.4;
 1041              		.loc 1 302 0
 1042 000a FFF7FEFF 		bl	CenterStatus1
 1043 000e 0346     		mov	r3, r0
 1044 0010 03F5AF63 		add	r3, r3, #1400
 1045 0014 1846     		mov	r0, r3
 1046 0016 FFF7FEFF 		bl	__aeabi_i2d
 1047 001a 0446     		mov	r4, r0
 1048 001c 0D46     		mov	r5, r1
 1049 001e FB88     		ldrh	r3, [r7, #6]
 1050 0020 A3F2DC53 		subw	r3, r3, #1500
 1051 0024 1846     		mov	r0, r3
 1052 0026 FFF7FEFF 		bl	__aeabi_i2d
 1053 002a 0246     		mov	r2, r0
 1054 002c 0B46     		mov	r3, r1
ARM GAS  C:\Users\RIEKOH~1\AppData\Local\Temp\ccluRx12.s 			page 25


 1055 002e 1046     		mov	r0, r2
 1056 0030 1946     		mov	r1, r3
 1057 0032 13A3     		adr	r3, .L78
 1058 0034 D3E90023 		ldrd	r2, [r3]
 1059 0038 FFF7FEFF 		bl	__aeabi_dmul
 1060 003c 0246     		mov	r2, r0
 1061 003e 0B46     		mov	r3, r1
 1062 0040 2046     		mov	r0, r4
 1063 0042 2946     		mov	r1, r5
 1064 0044 FFF7FEFF 		bl	__aeabi_dsub
 1065 0048 0246     		mov	r2, r0
 1066 004a 0B46     		mov	r3, r1
 1067 004c 1046     		mov	r0, r2
 1068 004e 1946     		mov	r1, r3
 1069 0050 FFF7FEFF 		bl	__aeabi_d2uiz
 1070 0054 0346     		mov	r3, r0
 1071 0056 FB80     		strh	r3, [r7, #6]	@ movhi
 303:.\main.c      **** 	if((raw_elv <= 2200)&&(raw_elv >= 800)){
 1072              		.loc 1 303 0
 1073 0058 FA88     		ldrh	r2, [r7, #6]
 1074 005a 40F69803 		movw	r3, #2200
 1075 005e 9A42     		cmp	r2, r3
 1076 0060 06D8     		bhi	.L76
 1077              		.loc 1 303 0 is_stmt 0 discriminator 1
 1078 0062 FA88     		ldrh	r2, [r7, #6]
 1079 0064 40F21F33 		movw	r3, #799
 1080 0068 9A42     		cmp	r2, r3
 1081 006a 01D9     		bls	.L76
 304:.\main.c      **** 		return raw_elv;
 1082              		.loc 1 304 0 is_stmt 1
 1083 006c FB88     		ldrh	r3, [r7, #6]
 1084 006e 02E0     		b	.L77
 1085              	.L76:
 305:.\main.c      **** 	}else{
 306:.\main.c      **** 		return PWM_1_ReadCompare1();
 1086              		.loc 1 306 0
 1087 0070 FFF7FEFF 		bl	PWM_1_ReadCompare1
 1088 0074 0346     		mov	r3, r0
 1089              	.L77:
 307:.\main.c      **** 	}
 308:.\main.c      **** }
 1090              		.loc 1 308 0
 1091 0076 1846     		mov	r0, r3
 1092 0078 07F10807 		add	r7, r7, #8
 1093 007c BD46     		mov	sp, r7
 1094 007e B0BD     		pop	{r4, r5, r7, pc}
 1095              	.L79:
 1096              		.align	3
 1097              	.L78:
 1098 0080 66666666 		.word	1717986918
 1099 0084 6666F63F 		.word	1073112678
 1100              		.cfi_endproc
 1101              	.LFE65:
 1102              		.size	FormatValueElv, .-FormatValueElv
 1103              		.section	.text.FormatValueRad,"ax",%progbits
 1104              		.align	2
 1105              		.global	FormatValueRad
ARM GAS  C:\Users\RIEKOH~1\AppData\Local\Temp\ccluRx12.s 			page 26


 1106              		.thumb
 1107              		.thumb_func
 1108              		.type	FormatValueRad, %function
 1109              	FormatValueRad:
 1110              	.LFB66:
 309:.\main.c      **** 
 310:.\main.c      **** unsigned int FormatValueRad(unsigned short raw_rad){
 1111              		.loc 1 310 0
 1112              		.cfi_startproc
 1113              		@ args = 0, pretend = 0, frame = 8
 1114              		@ frame_needed = 1, uses_anonymous_args = 0
 1115 0000 80B5     		push	{r7, lr}
 1116              	.LCFI27:
 1117              		.cfi_def_cfa_offset 8
 1118              		.cfi_offset 7, -8
 1119              		.cfi_offset 14, -4
 1120 0002 82B0     		sub	sp, sp, #8
 1121              	.LCFI28:
 1122              		.cfi_def_cfa_offset 16
 1123 0004 00AF     		add	r7, sp, #0
 1124              	.LCFI29:
 1125              		.cfi_def_cfa_register 7
 1126 0006 0346     		mov	r3, r0
 1127 0008 FB80     		strh	r3, [r7, #6]	@ movhi
 311:.\main.c      **** 	raw_rad = 1500 + CenterStatus2() + (raw_rad - 1500)*3;
 1128              		.loc 1 311 0
 1129 000a FFF7FEFF 		bl	CenterStatus2
 1130 000e 0346     		mov	r3, r0
 1131 0010 9AB2     		uxth	r2, r3
 1132 0012 FB88     		ldrh	r3, [r7, #6]	@ movhi
 1133 0014 1946     		mov	r1, r3	@ movhi
 1134 0016 4FEA4101 		lsl	r1, r1, #1
 1135 001a CB18     		adds	r3, r1, r3
 1136 001c 9BB2     		uxth	r3, r3
 1137 001e D318     		adds	r3, r2, r3
 1138 0020 9BB2     		uxth	r3, r3
 1139 0022 A3F6B833 		subw	r3, r3, #3000
 1140 0026 FB80     		strh	r3, [r7, #6]	@ movhi
 312:.\main.c      **** 	if((raw_rad <= 2200)&&(raw_rad >= 800)){
 1141              		.loc 1 312 0
 1142 0028 FA88     		ldrh	r2, [r7, #6]
 1143 002a 40F69803 		movw	r3, #2200
 1144 002e 9A42     		cmp	r2, r3
 1145 0030 06D8     		bhi	.L81
 1146              		.loc 1 312 0 is_stmt 0 discriminator 1
 1147 0032 FA88     		ldrh	r2, [r7, #6]
 1148 0034 40F21F33 		movw	r3, #799
 1149 0038 9A42     		cmp	r2, r3
 1150 003a 01D9     		bls	.L81
 313:.\main.c      **** 		return raw_rad;
 1151              		.loc 1 313 0 is_stmt 1
 1152 003c FB88     		ldrh	r3, [r7, #6]
 1153 003e 02E0     		b	.L82
 1154              	.L81:
 314:.\main.c      **** 	}else{
 315:.\main.c      **** 		return PWM_1_ReadCompare2();
 1155              		.loc 1 315 0
ARM GAS  C:\Users\RIEKOH~1\AppData\Local\Temp\ccluRx12.s 			page 27


 1156 0040 FFF7FEFF 		bl	PWM_1_ReadCompare2
 1157 0044 0346     		mov	r3, r0
 1158              	.L82:
 316:.\main.c      **** 	}
 317:.\main.c      **** }
 1159              		.loc 1 317 0
 1160 0046 1846     		mov	r0, r3
 1161 0048 07F10807 		add	r7, r7, #8
 1162 004c BD46     		mov	sp, r7
 1163 004e 80BD     		pop	{r7, pc}
 1164              		.cfi_endproc
 1165              	.LFE66:
 1166              		.size	FormatValueRad, .-FormatValueRad
 1167              		.section	.text.Terminal_Count_ISR,"ax",%progbits
 1168              		.align	2
 1169              		.global	Terminal_Count_ISR
 1170              		.thumb
 1171              		.thumb_func
 1172              		.type	Terminal_Count_ISR, %function
 1173              	Terminal_Count_ISR:
 1174              	.LFB67:
 318:.\main.c      **** 
 319:.\main.c      **** CY_ISR(Terminal_Count_ISR) {
 1175              		.loc 1 319 0
 1176              		.cfi_startproc
 1177              		@ args = 0, pretend = 0, frame = 0
 1178              		@ frame_needed = 1, uses_anonymous_args = 0
 1179 0000 80B5     		push	{r7, lr}
 1180              	.LCFI30:
 1181              		.cfi_def_cfa_offset 8
 1182              		.cfi_offset 7, -8
 1183              		.cfi_offset 14, -4
 1184 0002 00AF     		add	r7, sp, #0
 1185              	.LCFI31:
 1186              		.cfi_def_cfa_register 7
 320:.\main.c      **** 	PWM_1_WriteCompare1(FormatValueElv(elevator_buffer));
 1187              		.loc 1 320 0
 1188 0004 40F20003 		movw	r3, #:lower16:elevator_buffer
 1189 0008 C0F20003 		movt	r3, #:upper16:elevator_buffer
 1190 000c 1B68     		ldr	r3, [r3, #0]
 1191 000e 9BB2     		uxth	r3, r3
 1192 0010 1846     		mov	r0, r3
 1193 0012 FFF7FEFF 		bl	FormatValueElv
 1194 0016 0346     		mov	r3, r0
 1195 0018 9BB2     		uxth	r3, r3
 1196 001a 1846     		mov	r0, r3
 1197 001c FFF7FEFF 		bl	PWM_1_WriteCompare1
 321:.\main.c      **** 	PWM_1_WriteCompare2(FormatValueRad(radder_buffer));
 1198              		.loc 1 321 0
 1199 0020 40F20003 		movw	r3, #:lower16:radder_buffer
 1200 0024 C0F20003 		movt	r3, #:upper16:radder_buffer
 1201 0028 1B68     		ldr	r3, [r3, #0]
 1202 002a 9BB2     		uxth	r3, r3
 1203 002c 1846     		mov	r0, r3
 1204 002e FFF7FEFF 		bl	FormatValueRad
 1205 0032 0346     		mov	r3, r0
 1206 0034 9BB2     		uxth	r3, r3
ARM GAS  C:\Users\RIEKOH~1\AppData\Local\Temp\ccluRx12.s 			page 28


 1207 0036 1846     		mov	r0, r3
 1208 0038 FFF7FEFF 		bl	PWM_1_WriteCompare2
 322:.\main.c      ****     PWM_1_ReadStatusRegister();
 1209              		.loc 1 322 0
 1210 003c FFF7FEFF 		bl	PWM_1_ReadStatusRegister
 323:.\main.c      ****     return;
 1211              		.loc 1 323 0
 1212 0040 00BF     		nop
 324:.\main.c      **** }
 1213              		.loc 1 324 0
 1214 0042 80BD     		pop	{r7, pc}
 1215              		.cfi_endproc
 1216              	.LFE67:
 1217              		.size	Terminal_Count_ISR, .-Terminal_Count_ISR
 1218              		.text
 1219              	.Letext0:
 1220              		.file 2 "c:\\program files\\cypress\\psoc creator\\3.0\\psoc creator\\import\\gnu_cs\\arm\\4.7.3\\
 1221              		.file 3 "./Generated_Source/PSoC5/cytypes.h"
 1222              		.file 4 "./Generated_Source/PSoC5/core_cm3.h"
