Archive member included because of file (symbol)

.\CortexM3\ARM_GCC_473\Debug\tail_true.a(cyfitter_cfg.o)
                              .\CortexM3\ARM_GCC_473\Debug\Cm3Start.o (cyfitter_cfg)
.\CortexM3\ARM_GCC_473\Debug\tail_true.a(CyBootAsmGnu.o)
                              .\CortexM3\ARM_GCC_473\Debug\tail_true.a(cyfitter_cfg.o) (CyDelayCycles)
.\CortexM3\ARM_GCC_473\Debug\tail_true.a(CyLib.o)
                              .\CortexM3\ARM_GCC_473\Debug\Cm3Start.o (CyResetStatus)
.\CortexM3\ARM_GCC_473\Debug\tail_true.a(cyPm.o)
                              .\CortexM3\ARM_GCC_473\Debug\tail_true.a(CyLib.o) (CyPmReadStatus)
.\CortexM3\ARM_GCC_473\Debug\tail_true.a(UART.o)
                              .\CortexM3\ARM_GCC_473\Debug\main.o (UART_Start)
.\CortexM3\ARM_GCC_473\Debug\tail_true.a(Timer.o)
                              .\CortexM3\ARM_GCC_473\Debug\main.o (Timer_WriteCounter)
.\CortexM3\ARM_GCC_473\Debug\tail_true.a(DE.o)
                              .\CortexM3\ARM_GCC_473\Debug\main.o (DE_Write)
.\CortexM3\ARM_GCC_473\Debug\tail_true.a(LED_1.o)
                              .\CortexM3\ARM_GCC_473\Debug\main.o (LED_1_Write)
.\CortexM3\ARM_GCC_473\Debug\tail_true.a(LED_2.o)
                              .\CortexM3\ARM_GCC_473\Debug\main.o (LED_2_Write)
.\CortexM3\ARM_GCC_473\Debug\tail_true.a(PWM_1.o)
                              .\CortexM3\ARM_GCC_473\Debug\main.o (PWM_1_Start)
.\CortexM3\ARM_GCC_473\Debug\tail_true.a(isr_tc.o)
                              .\CortexM3\ARM_GCC_473\Debug\main.o (isr_tc_StartEx)
.\CortexM3\ARM_GCC_473\Debug\tail_true.a(Status_Reg_1.o)
                              .\CortexM3\ARM_GCC_473\Debug\main.o (Status_Reg_1_Read)
.\CortexM3\ARM_GCC_473\Debug\tail_true.a(Status_Reg_2.o)
                              .\CortexM3\ARM_GCC_473\Debug\main.o (Status_Reg_2_Read)
.\CortexM3\ARM_GCC_473\Debug\tail_true.a(CyFlash.o)
                              .\CortexM3\ARM_GCC_473\Debug\tail_true.a(cyPm.o) (CyFlash_SetWaitCycles)
.\CortexM3\ARM_GCC_473\Debug\tail_true.a(CySpc.o)
                              .\CortexM3\ARM_GCC_473\Debug\tail_true.a(CyFlash.o) (CySpcStart)
c:/program files/cypress/psoc creator/3.0/psoc creator/import/gnu_cs/arm/4.7.3/bin/../lib/gcc/arm-none-eabi/4.7.3/armv7-m\libgcc.a(_arm_addsubdf3.o)
                              .\CortexM3\ARM_GCC_473\Debug\main.o (__aeabi_dsub)
c:/program files/cypress/psoc creator/3.0/psoc creator/import/gnu_cs/arm/4.7.3/bin/../lib/gcc/arm-none-eabi/4.7.3/armv7-m\libgcc.a(_arm_muldivdf3.o)
                              .\CortexM3\ARM_GCC_473\Debug\main.o (__aeabi_dmul)
c:/program files/cypress/psoc creator/3.0/psoc creator/import/gnu_cs/arm/4.7.3/bin/../lib/gcc/arm-none-eabi/4.7.3/armv7-m\libgcc.a(_arm_fixunsdfsi.o)
                              .\CortexM3\ARM_GCC_473\Debug\main.o (__aeabi_d2uiz)
c:/program files/cypress/psoc creator/3.0/psoc creator/import/gnu_cs/arm/4.7.3/bin/../lib/gcc/arm-none-eabi/4.7.3/../../../../arm-none-eabi/lib/armv7-m\libc_s.a(lib_a-__atexit2.o)
                              c:/program files/cypress/psoc creator/3.0/psoc creator/import/gnu_cs/arm/4.7.3/bin/../lib/gcc/arm-none-eabi/4.7.3/../../../../arm-none-eabi/lib/armv7-m/crt0.o (__register_exitproc)
c:/program files/cypress/psoc creator/3.0/psoc creator/import/gnu_cs/arm/4.7.3/bin/../lib/gcc/arm-none-eabi/4.7.3/../../../../arm-none-eabi/lib/armv7-m\libc_s.a(lib_a-exit.o)
                              c:/program files/cypress/psoc creator/3.0/psoc creator/import/gnu_cs/arm/4.7.3/bin/../lib/gcc/arm-none-eabi/4.7.3/../../../../arm-none-eabi/lib/armv7-m/crt0.o (exit)
c:/program files/cypress/psoc creator/3.0/psoc creator/import/gnu_cs/arm/4.7.3/bin/../lib/gcc/arm-none-eabi/4.7.3/../../../../arm-none-eabi/lib/armv7-m\libc_s.a(lib_a-fini.o)
                              c:/program files/cypress/psoc creator/3.0/psoc creator/import/gnu_cs/arm/4.7.3/bin/../lib/gcc/arm-none-eabi/4.7.3/../../../../arm-none-eabi/lib/armv7-m/crt0.o (__libc_fini_array)
c:/program files/cypress/psoc creator/3.0/psoc creator/import/gnu_cs/arm/4.7.3/bin/../lib/gcc/arm-none-eabi/4.7.3/../../../../arm-none-eabi/lib/armv7-m\libc_s.a(lib_a-impure.o)
                              c:/program files/cypress/psoc creator/3.0/psoc creator/import/gnu_cs/arm/4.7.3/bin/../lib/gcc/arm-none-eabi/4.7.3/../../../../arm-none-eabi/lib/armv7-m\libc_s.a(lib_a-exit.o) (_global_impure_ptr)
c:/program files/cypress/psoc creator/3.0/psoc creator/import/gnu_cs/arm/4.7.3/bin/../lib/gcc/arm-none-eabi/4.7.3/../../../../arm-none-eabi/lib/armv7-m\libc_s.a(lib_a-init.o)
                              c:/program files/cypress/psoc creator/3.0/psoc creator/import/gnu_cs/arm/4.7.3/bin/../lib/gcc/arm-none-eabi/4.7.3/../../../../arm-none-eabi/lib/armv7-m/crt0.o (__libc_init_array)
c:/program files/cypress/psoc creator/3.0/psoc creator/import/gnu_cs/arm/4.7.3/bin/../lib/gcc/arm-none-eabi/4.7.3/../../../../arm-none-eabi/lib/armv7-m\libc_s.a(lib_a-memcpy.o)
                              .\CortexM3\ARM_GCC_473\Debug\tail_true.a(cyfitter_cfg.o) (memcpy)
c:/program files/cypress/psoc creator/3.0/psoc creator/import/gnu_cs/arm/4.7.3/bin/../lib/gcc/arm-none-eabi/4.7.3/../../../../arm-none-eabi/lib/armv7-m\libc_s.a(lib_a-memset.o)
                              c:/program files/cypress/psoc creator/3.0/psoc creator/import/gnu_cs/arm/4.7.3/bin/../lib/gcc/arm-none-eabi/4.7.3/../../../../arm-none-eabi/lib/armv7-m/crt0.o (memset)

Allocating common symbols
Common symbol       size              file

radder_buffer       0x4               .\CortexM3\ARM_GCC_473\Debug\main.o
elevator_buffer     0x4               .\CortexM3\ARM_GCC_473\Debug\main.o
pak                 0x6               .\CortexM3\ARM_GCC_473\Debug\main.o
dieTemperature      0x2               .\CortexM3\ARM_GCC_473\Debug\tail_true.a(CyFlash.o)

Discarded input sections

 .text          0x00000000        0x0 c:/program files/cypress/psoc creator/3.0/psoc creator/import/gnu_cs/arm/4.7.3/bin/../lib/gcc/arm-none-eabi/4.7.3/armv7-m/crti.o
 .data          0x00000000        0x0 c:/program files/cypress/psoc creator/3.0/psoc creator/import/gnu_cs/arm/4.7.3/bin/../lib/gcc/arm-none-eabi/4.7.3/armv7-m/crti.o
 .bss           0x00000000        0x0 c:/program files/cypress/psoc creator/3.0/psoc creator/import/gnu_cs/arm/4.7.3/bin/../lib/gcc/arm-none-eabi/4.7.3/armv7-m/crti.o
 .data          0x00000000        0x4 c:/program files/cypress/psoc creator/3.0/psoc creator/import/gnu_cs/arm/4.7.3/bin/../lib/gcc/arm-none-eabi/4.7.3/armv7-m/crtbegin.o
 .text          0x00000000       0x70 c:/program files/cypress/psoc creator/3.0/psoc creator/import/gnu_cs/arm/4.7.3/bin/../lib/gcc/arm-none-eabi/4.7.3/../../../../arm-none-eabi/lib/armv7-m/crt0.o
 .data          0x00000000        0x0 c:/program files/cypress/psoc creator/3.0/psoc creator/import/gnu_cs/arm/4.7.3/bin/../lib/gcc/arm-none-eabi/4.7.3/../../../../arm-none-eabi/lib/armv7-m/crt0.o
 .bss           0x00000000        0x0 c:/program files/cypress/psoc creator/3.0/psoc creator/import/gnu_cs/arm/4.7.3/bin/../lib/gcc/arm-none-eabi/4.7.3/../../../../arm-none-eabi/lib/armv7-m/crt0.o
 .ARM.extab     0x00000000        0x0 c:/program files/cypress/psoc creator/3.0/psoc creator/import/gnu_cs/arm/4.7.3/bin/../lib/gcc/arm-none-eabi/4.7.3/../../../../arm-none-eabi/lib/armv7-m/crt0.o
 .ARM.exidx     0x00000000        0x8 c:/program files/cypress/psoc creator/3.0/psoc creator/import/gnu_cs/arm/4.7.3/bin/../lib/gcc/arm-none-eabi/4.7.3/../../../../arm-none-eabi/lib/armv7-m/crt0.o
 .text          0x00000000        0x0 .\CortexM3\ARM_GCC_473\Debug\main.o
 .data          0x00000000        0x0 .\CortexM3\ARM_GCC_473\Debug\main.o
 .bss           0x00000000        0x0 .\CortexM3\ARM_GCC_473\Debug\main.o
 .text          0x00000000        0x0 .\CortexM3\ARM_GCC_473\Debug\cymetadata.o
 .data          0x00000000        0x0 .\CortexM3\ARM_GCC_473\Debug\cymetadata.o
 .bss           0x00000000        0x0 .\CortexM3\ARM_GCC_473\Debug\cymetadata.o
 .text          0x00000000        0x0 .\CortexM3\ARM_GCC_473\Debug\Cm3Start.o
 .data          0x00000000        0x0 .\CortexM3\ARM_GCC_473\Debug\Cm3Start.o
 .bss           0x00000000        0x0 .\CortexM3\ARM_GCC_473\Debug\Cm3Start.o
Memory Configuration

Name             Origin             Length             Attributes
rom              0x00000000         0x00040000         xr
ram              0x1fff8000         0x00010000         xrw
*default*        0x00000000         0xffffffff

Linker script and memory map

LOAD c:/program files/cypress/psoc creator/3.0/psoc creator/import/gnu_cs/arm/4.7.3/bin/../lib/gcc/arm-none-eabi/4.7.3/armv7-m/crti.o
LOAD c:/program files/cypress/psoc creator/3.0/psoc creator/import/gnu_cs/arm/4.7.3/bin/../lib/gcc/arm-none-eabi/4.7.3/armv7-m/crtbegin.o
LOAD c:/program files/cypress/psoc creator/3.0/psoc creator/import/gnu_cs/arm/4.7.3/bin/../lib/gcc/arm-none-eabi/4.7.3/../../../../arm-none-eabi/lib/armv7-m/crt0.o
START GROUP
LOAD .\CortexM3\ARM_GCC_473\Debug\main.o
LOAD .\CortexM3\ARM_GCC_473\Debug\cymetadata.o
LOAD .\CortexM3\ARM_GCC_473\Debug\Cm3Start.o
LOAD .\CortexM3\ARM_GCC_473\Debug\tail_true.a
LOAD C:\Program Files\Cypress\PSoC Creator\3.0\PSoC Creator\psoc\content\cycomponentlibrary\CyComponentLibrary.cylib\CortexM3\ARM_GCC_473\Debug\CyComponentLibrary.a
END GROUP
START GROUP
LOAD c:/program files/cypress/psoc creator/3.0/psoc creator/import/gnu_cs/arm/4.7.3/bin/../lib/gcc/arm-none-eabi/4.7.3/armv7-m\libgcc.a
LOAD c:/program files/cypress/psoc creator/3.0/psoc creator/import/gnu_cs/arm/4.7.3/bin/../lib/gcc/arm-none-eabi/4.7.3/../../../../arm-none-eabi/lib/armv7-m\libc_s.a
END GROUP
LOAD c:/program files/cypress/psoc creator/3.0/psoc creator/import/gnu_cs/arm/4.7.3/bin/../lib/gcc/arm-none-eabi/4.7.3/armv7-m/crtend.o
LOAD c:/program files/cypress/psoc creator/3.0/psoc creator/import/gnu_cs/arm/4.7.3/bin/../lib/gcc/arm-none-eabi/4.7.3/armv7-m/crtn.o
START GROUP
LOAD c:/program files/cypress/psoc creator/3.0/psoc creator/import/gnu_cs/arm/4.7.3/bin/../lib/gcc/arm-none-eabi/4.7.3/armv7-m\libgcc.a
LOAD c:/program files/cypress/psoc creator/3.0/psoc creator/import/gnu_cs/arm/4.7.3/bin/../lib/gcc/arm-none-eabi/4.7.3/../../../../arm-none-eabi/lib/armv7-m\libc.a
LOAD c:/program files/cypress/psoc creator/3.0/psoc creator/import/gnu_cs/arm/4.7.3/bin/../lib/gcc/arm-none-eabi/4.7.3/../../../../arm-none-eabi/lib/armv7-m\libnosys.a
END GROUP
                0x00000000                CY_APPL_ORIGIN = 0x0
                0x00000100                CY_FLASH_ROW_SIZE = 0x100
                0x00000020                CY_ECC_ROW_SIZE = 0x20
                0x00000000                CY_EE_IN_BTLDR = 0x0
                0x00000000                CY_APPL_LOADABLE = 0x0
                0x00000800                CY_EE_SIZE = 0x800
                0x00000001                CY_APPL_NUM = 0x1
                0x00000001                CY_APPL_MAX = 0x1
                0x00000040                CY_METADATA_SIZE = 0x40
                0x1fff8140                PROVIDE (__cy_heap_start, _end)
                0x00000001                PROVIDE (__cy_region_num, ((__cy_regions_end - __cy_regions) / 0x10))
                0x20008000                PROVIDE (__cy_stack, (ORIGIN (ram) + 0x10000))
                0x20004000                PROVIDE (__cy_heap_end, (__cy_stack - 0x4000))

.cybootloader   0x00000000        0x0
 *(.cybootloader)
                0x00000000                appl1_start = CY_APPL_ORIGIN?CY_APPL_ORIGIN:ALIGN (CY_FLASH_ROW_SIZE)
                0x0001ff00                appl2_start = (appl1_start + ALIGN ((((0x40000 - appl1_start) - (0x2 * CY_FLASH_ROW_SIZE)) / 0x2), CY_FLASH_ROW_SIZE))
                0x00000000                appl_start = (CY_APPL_NUM == 0x1)?appl1_start:appl2_start
                0x00000000                ecc_offset = ((appl_start / CY_FLASH_ROW_SIZE) * CY_ECC_ROW_SIZE)
                0x00000000                ee_offset = (CY_APPL_LOADABLE && ! (CY_EE_IN_BTLDR))?((CY_EE_SIZE / CY_APPL_MAX) * (CY_APPL_NUM - 0x1)):0x0
                0x00000800                ee_size = (CY_APPL_LOADABLE && ! (CY_EE_IN_BTLDR))?(CY_EE_SIZE / CY_APPL_MAX):CY_EE_SIZE
                0x00000000                PROVIDE (CY_ECC_OFFSET, ecc_offset)

.text           0x00000000     0x1d1e
 CREATE_OBJECT_SYMBOLS
                0x00000000                PROVIDE (__cy_interrupt_vector, RomVectors)
 *(.romvectors)
 .romvectors    0x00000000       0x10 .\CortexM3\ARM_GCC_473\Debug\Cm3Start.o
                0x00000000                RomVectors
                0x00000001                ASSERT ((. != __cy_interrupt_vector), No interrupt vector)
                0x00000001                ASSERT (CY_APPL_ORIGIN?(SIZEOF (.cybootloader) <= CY_APPL_ORIGIN):0x1, Wrong image location)
                0x00000010                PROVIDE (__cy_reset, Reset)
 *(.text.Reset)
 .text.Reset    0x00000010       0x1c .\CortexM3\ARM_GCC_473\Debug\Cm3Start.o
                0x00000010                Reset
                0x00000001                ASSERT ((. != __cy_reset), No reset code)
 *(.dma_init)
                0x00000001                ASSERT ((((appl_start + .) <= 0x10000) || 0x1), DMA Init must be within the first 64k of flash)
 *(.text .text.* .gnu.linkonce.t.*)
 .text          0x0000002c       0x54 c:/program files/cypress/psoc creator/3.0/psoc creator/import/gnu_cs/arm/4.7.3/bin/../lib/gcc/arm-none-eabi/4.7.3/armv7-m/crtbegin.o
 .text.main     0x00000080       0xa8 .\CortexM3\ARM_GCC_473\Debug\main.o
                0x00000080                main
 .text.Timer_Set
                0x00000128       0x1c .\CortexM3\ARM_GCC_473\Debug\main.o
                0x00000128                Timer_Set
 .text.Timer_Delayus
                0x00000144       0x2c .\CortexM3\ARM_GCC_473\Debug\main.o
                0x00000144                Timer_Delayus
 .text.rs485_Start
                0x00000170       0x10 .\CortexM3\ARM_GCC_473\Debug\main.o
                0x00000170                rs485_Start
 .text.rs485_CheckPacket
                0x00000180      0x1b4 .\CortexM3\ARM_GCC_473\Debug\main.o
                0x00000180                rs485_CheckPacket
 .text.CheckValid
                0x00000334       0x5c .\CortexM3\ARM_GCC_473\Debug\main.o
                0x00000334                CheckValid
 .text.CenterStatus1
                0x00000390      0x158 .\CortexM3\ARM_GCC_473\Debug\main.o
                0x00000390                CenterStatus1
 .text.CenterStatus2
                0x000004e8      0x158 .\CortexM3\ARM_GCC_473\Debug\main.o
                0x000004e8                CenterStatus2
 .text.Servo_Start
                0x00000640       0x34 .\CortexM3\ARM_GCC_473\Debug\main.o
                0x00000640                Servo_Start
 *fill*         0x00000674        0x4 00
 .text.FormatValueElv
                0x00000678       0x88 .\CortexM3\ARM_GCC_473\Debug\main.o
                0x00000678                FormatValueElv
 .text.FormatValueRad
                0x00000700       0x50 .\CortexM3\ARM_GCC_473\Debug\main.o
                0x00000700                FormatValueRad
 .text.Terminal_Count_ISR
                0x00000750       0x44 .\CortexM3\ARM_GCC_473\Debug\main.o
                0x00000750                Terminal_Count_ISR
 .text.IntDefaultHandler
                0x00000794        0x8 .\CortexM3\ARM_GCC_473\Debug\Cm3Start.o
                0x00000794                IntDefaultHandler
 .text.Start_c  0x0000079c       0xcc .\CortexM3\ARM_GCC_473\Debug\Cm3Start.o
                0x0000079c                Start_c
 .text.initialize_psoc
                0x00000868       0xb4 .\CortexM3\ARM_GCC_473\Debug\Cm3Start.o
                0x00000868                initialize_psoc
 .text.CYMEMZERO
                0x0000091c       0x20 .\CortexM3\ARM_GCC_473\Debug\tail_true.a(cyfitter_cfg.o)
 .text.CYCONFIGCPY
                0x0000093c       0x20 .\CortexM3\ARM_GCC_473\Debug\tail_true.a(cyfitter_cfg.o)
 .text.CyClockStartupError
                0x0000095c        0xc .\CortexM3\ARM_GCC_473\Debug\tail_true.a(cyfitter_cfg.o)
 .text.cfg_write_bytes32
                0x00000968       0x84 .\CortexM3\ARM_GCC_473\Debug\tail_true.a(cyfitter_cfg.o)
 .text.ClockSetup
                0x000009ec      0x188 .\CortexM3\ARM_GCC_473\Debug\tail_true.a(cyfitter_cfg.o)
 .text.AnalogSetDefault
                0x00000b74       0x50 .\CortexM3\ARM_GCC_473\Debug\tail_true.a(cyfitter_cfg.o)
 .text.cyfitter_cfg
                0x00000bc4      0x1b0 .\CortexM3\ARM_GCC_473\Debug\tail_true.a(cyfitter_cfg.o)
                0x00000bc4                cyfitter_cfg
 *fill*         0x00000d74        0x4 00
 .text          0x00000d78       0x28 .\CortexM3\ARM_GCC_473\Debug\tail_true.a(CyBootAsmGnu.o)
                0x00000d78                CyDelayCycles
                0x00000d8c                CyEnterCriticalSection
                0x00000d94                CyExitCriticalSection
 .text.UART_Start
                0x00000da0       0x2c .\CortexM3\ARM_GCC_473\Debug\tail_true.a(UART.o)
                0x00000da0                UART_Start
 .text.UART_Init
                0x00000dcc       0x50 .\CortexM3\ARM_GCC_473\Debug\tail_true.a(UART.o)
                0x00000dcc                UART_Init
 .text.UART_Enable
                0x00000e1c       0x74 .\CortexM3\ARM_GCC_473\Debug\tail_true.a(UART.o)
                0x00000e1c                UART_Enable
 .text.UART_ReadRxData
                0x00000e90       0x20 .\CortexM3\ARM_GCC_473\Debug\tail_true.a(UART.o)
                0x00000e90                UART_ReadRxData
 .text.UART_ReadRxStatus
                0x00000eb0       0x28 .\CortexM3\ARM_GCC_473\Debug\tail_true.a(UART.o)
                0x00000eb0                UART_ReadRxStatus
 .text.UART_ClearRxBuffer
                0x00000ed8       0x58 .\CortexM3\ARM_GCC_473\Debug\tail_true.a(UART.o)
                0x00000ed8                UART_ClearRxBuffer
 .text.UART_ReadTxStatus
                0x00000f30       0x18 .\CortexM3\ARM_GCC_473\Debug\tail_true.a(UART.o)
                0x00000f30                UART_ReadTxStatus
 .text.UART_PutChar
                0x00000f48       0x38 .\CortexM3\ARM_GCC_473\Debug\tail_true.a(UART.o)
                0x00000f48                UART_PutChar
 .text.Timer_Init
                0x00000f80       0x58 .\CortexM3\ARM_GCC_473\Debug\tail_true.a(Timer.o)
                0x00000f80                Timer_Init
 .text.Timer_Enable
                0x00000fd8       0x28 .\CortexM3\ARM_GCC_473\Debug\tail_true.a(Timer.o)
                0x00000fd8                Timer_Enable
 .text.Timer_Start
                0x00001000       0x2c .\CortexM3\ARM_GCC_473\Debug\tail_true.a(Timer.o)
                0x00001000                Timer_Start
 .text.Timer_SetInterruptMode
                0x0000102c       0x20 .\CortexM3\ARM_GCC_473\Debug\tail_true.a(Timer.o)
                0x0000102c                Timer_SetInterruptMode
 .text.Timer_ReadStatusRegister
                0x0000104c       0x18 .\CortexM3\ARM_GCC_473\Debug\tail_true.a(Timer.o)
                0x0000104c                Timer_ReadStatusRegister
 .text.Timer_WritePeriod
                0x00001064       0x20 .\CortexM3\ARM_GCC_473\Debug\tail_true.a(Timer.o)
                0x00001064                Timer_WritePeriod
 .text.Timer_ReadCapture
                0x00001084       0x18 .\CortexM3\ARM_GCC_473\Debug\tail_true.a(Timer.o)
                0x00001084                Timer_ReadCapture
 .text.Timer_WriteCounter
                0x0000109c       0x20 .\CortexM3\ARM_GCC_473\Debug\tail_true.a(Timer.o)
                0x0000109c                Timer_WriteCounter
 .text.Timer_ReadCounter
                0x000010bc       0x24 .\CortexM3\ARM_GCC_473\Debug\tail_true.a(Timer.o)
                0x000010bc                Timer_ReadCounter
 .text.Timer_ClearFIFO
                0x000010e0       0x1c .\CortexM3\ARM_GCC_473\Debug\tail_true.a(Timer.o)
                0x000010e0                Timer_ClearFIFO
 .text.DE_Write
                0x000010fc       0x44 .\CortexM3\ARM_GCC_473\Debug\tail_true.a(DE.o)
                0x000010fc                DE_Write
 .text.LED_1_Write
                0x00001140       0x44 .\CortexM3\ARM_GCC_473\Debug\tail_true.a(LED_1.o)
                0x00001140                LED_1_Write
 .text.LED_2_Write
                0x00001184       0x44 .\CortexM3\ARM_GCC_473\Debug\tail_true.a(LED_2.o)
                0x00001184                LED_2_Write
 .text.PWM_1_Start
                0x000011c8       0x2c .\CortexM3\ARM_GCC_473\Debug\tail_true.a(PWM_1.o)
                0x000011c8                PWM_1_Start
 .text.PWM_1_Init
                0x000011f4       0xc4 .\CortexM3\ARM_GCC_473\Debug\tail_true.a(PWM_1.o)
                0x000011f4                PWM_1_Init
 .text.PWM_1_Enable
                0x000012b8       0x28 .\CortexM3\ARM_GCC_473\Debug\tail_true.a(PWM_1.o)
                0x000012b8                PWM_1_Enable
 .text.PWM_1_WriteCounter
                0x000012e0       0x20 .\CortexM3\ARM_GCC_473\Debug\tail_true.a(PWM_1.o)
                0x000012e0                PWM_1_WriteCounter
 .text.PWM_1_ClearFIFO
                0x00001300       0x1c .\CortexM3\ARM_GCC_473\Debug\tail_true.a(PWM_1.o)
                0x00001300                PWM_1_ClearFIFO
 .text.PWM_1_WritePeriod
                0x0000131c       0x20 .\CortexM3\ARM_GCC_473\Debug\tail_true.a(PWM_1.o)
                0x0000131c                PWM_1_WritePeriod
 .text.PWM_1_WriteCompare1
                0x0000133c       0x20 .\CortexM3\ARM_GCC_473\Debug\tail_true.a(PWM_1.o)
                0x0000133c                PWM_1_WriteCompare1
 .text.PWM_1_WriteCompare2
                0x0000135c       0x20 .\CortexM3\ARM_GCC_473\Debug\tail_true.a(PWM_1.o)
                0x0000135c                PWM_1_WriteCompare2
 .text.PWM_1_SetInterruptMode
                0x0000137c       0x20 .\CortexM3\ARM_GCC_473\Debug\tail_true.a(PWM_1.o)
                0x0000137c                PWM_1_SetInterruptMode
 .text.PWM_1_ReadStatusRegister
                0x0000139c       0x20 .\CortexM3\ARM_GCC_473\Debug\tail_true.a(PWM_1.o)
                0x0000139c                PWM_1_ReadStatusRegister
 .text.PWM_1_ReadCapture
                0x000013bc       0x18 .\CortexM3\ARM_GCC_473\Debug\tail_true.a(PWM_1.o)
                0x000013bc                PWM_1_ReadCapture
 .text.PWM_1_ReadCompare1
                0x000013d4       0x18 .\CortexM3\ARM_GCC_473\Debug\tail_true.a(PWM_1.o)
                0x000013d4                PWM_1_ReadCompare1
 .text.PWM_1_ReadCompare2
                0x000013ec       0x18 .\CortexM3\ARM_GCC_473\Debug\tail_true.a(PWM_1.o)
                0x000013ec                PWM_1_ReadCompare2
 .text.isr_tc_StartEx
                0x00001404       0x28 .\CortexM3\ARM_GCC_473\Debug\tail_true.a(isr_tc.o)
                0x00001404                isr_tc_StartEx
 .text.isr_tc_SetVector
                0x0000142c       0x28 .\CortexM3\ARM_GCC_473\Debug\tail_true.a(isr_tc.o)
                0x0000142c                isr_tc_SetVector
 .text.isr_tc_SetPriority
                0x00001454       0x28 .\CortexM3\ARM_GCC_473\Debug\tail_true.a(isr_tc.o)
                0x00001454                isr_tc_SetPriority
 .text.isr_tc_Enable
                0x0000147c       0x18 .\CortexM3\ARM_GCC_473\Debug\tail_true.a(isr_tc.o)
                0x0000147c                isr_tc_Enable
 .text.isr_tc_Disable
                0x00001494       0x18 .\CortexM3\ARM_GCC_473\Debug\tail_true.a(isr_tc.o)
                0x00001494                isr_tc_Disable
 .text.Status_Reg_1_Read
                0x000014ac       0x18 .\CortexM3\ARM_GCC_473\Debug\tail_true.a(Status_Reg_1.o)
                0x000014ac                Status_Reg_1_Read
 .text.Status_Reg_2_Read
                0x000014c4       0x18 .\CortexM3\ARM_GCC_473\Debug\tail_true.a(Status_Reg_2.o)
                0x000014c4                Status_Reg_2_Read
 .text          0x000014dc      0x370 c:/program files/cypress/psoc creator/3.0/psoc creator/import/gnu_cs/arm/4.7.3/bin/../lib/gcc/arm-none-eabi/4.7.3/armv7-m\libgcc.a(_arm_addsubdf3.o)
                0x000014dc                __aeabi_drsub
                0x000014e4                __aeabi_dsub
                0x000014e4                __subdf3
                0x000014e8                __aeabi_dadd
                0x000014e8                __adddf3
                0x00001760                __floatunsidf
                0x00001760                __aeabi_ui2d
                0x00001780                __floatsidf
                0x00001780                __aeabi_i2d
                0x000017a4                __aeabi_f2d
                0x000017a4                __extendsfdf2
                0x000017e0                __floatundidf
                0x000017e0                __aeabi_ul2d
                0x000017f0                __floatdidf
                0x000017f0                __aeabi_l2d
 .text          0x0000184c      0x424 c:/program files/cypress/psoc creator/3.0/psoc creator/import/gnu_cs/arm/4.7.3/bin/../lib/gcc/arm-none-eabi/4.7.3/armv7-m\libgcc.a(_arm_muldivdf3.o)
                0x0000184c                __aeabi_dmul
                0x0000184c                __muldf3
                0x00001aa0                __divdf3
                0x00001aa0                __aeabi_ddiv
 .text          0x00001c70       0x40 c:/program files/cypress/psoc creator/3.0/psoc creator/import/gnu_cs/arm/4.7.3/bin/../lib/gcc/arm-none-eabi/4.7.3/armv7-m\libgcc.a(_arm_fixunsdfsi.o)
                0x00001c70                __aeabi_d2uiz
                0x00001c70                __fixunsdfsi
 .text.__libc_init_array
                0x00001cb0       0x4c c:/program files/cypress/psoc creator/3.0/psoc creator/import/gnu_cs/arm/4.7.3/bin/../lib/gcc/arm-none-eabi/4.7.3/../../../../arm-none-eabi/lib/armv7-m\libc_s.a(lib_a-init.o)
                0x00001cb0                __libc_init_array
 .text.memcpy   0x00001cfc       0x12 c:/program files/cypress/psoc creator/3.0/psoc creator/import/gnu_cs/arm/4.7.3/bin/../lib/gcc/arm-none-eabi/4.7.3/../../../../arm-none-eabi/lib/armv7-m\libc_s.a(lib_a-memcpy.o)
                0x00001cfc                memcpy
 .text.memset   0x00001d0e       0x10 c:/program files/cypress/psoc creator/3.0/psoc creator/import/gnu_cs/arm/4.7.3/bin/../lib/gcc/arm-none-eabi/4.7.3/../../../../arm-none-eabi/lib/armv7-m\libc_s.a(lib_a-memset.o)
                0x00001d0e                memset
 *(.plt)
 *(.gnu.warning)
 *(.glue_7t)
 .glue_7t       0x00000000        0x0 linker stubs
 *(.glue_7)
 .glue_7        0x00000000        0x0 linker stubs
 *(.vfp11_veneer)
 .vfp11_veneer  0x00000000        0x0 linker stubs
 *(.bootloader)
 *(.ARM.extab* .gnu.linkonce.armextab.*)
 *(.gcc_except_table)

.v4_bx          0x00001d20        0x0
 .v4_bx         0x00000000        0x0 linker stubs

.iplt           0x00001d20        0x0
 .iplt          0x00000000        0x0 c:/program files/cypress/psoc creator/3.0/psoc creator/import/gnu_cs/arm/4.7.3/bin/../lib/gcc/arm-none-eabi/4.7.3/armv7-m/crtbegin.o

.eh_frame_hdr
 *(.eh_frame_hdr)

.eh_frame       0x00001d20        0x4
 *(.eh_frame)
 .eh_frame      0x00001d20        0x0 c:/program files/cypress/psoc creator/3.0/psoc creator/import/gnu_cs/arm/4.7.3/bin/../lib/gcc/arm-none-eabi/4.7.3/armv7-m/crtbegin.o
 .eh_frame      0x00001d20        0x4 c:/program files/cypress/psoc creator/3.0/psoc creator/import/gnu_cs/arm/4.7.3/bin/../lib/gcc/arm-none-eabi/4.7.3/armv7-m/crtend.o
                0x00001d24                PROVIDE (__exidx_start, .)

.ARM.exidx
 *(.ARM.exidx* .gnu.linkonce.armexidx.*)
                0x00001d24                __exidx_end = .

.rodata         0x00001d24       0x64
 *(.rodata .rodata.* .gnu.linkonce.r.*)
 .rodata        0x00001d24       0x2c .\CortexM3\ARM_GCC_473\Debug\tail_true.a(cyfitter_cfg.o)
                0x00001d50                . = ALIGN (0x4)
 *(.init)
 .init          0x00001d50        0x4 c:/program files/cypress/psoc creator/3.0/psoc creator/import/gnu_cs/arm/4.7.3/bin/../lib/gcc/arm-none-eabi/4.7.3/armv7-m/crti.o
                0x00001d50                _init
 .init          0x00001d54        0x8 c:/program files/cypress/psoc creator/3.0/psoc creator/import/gnu_cs/arm/4.7.3/bin/../lib/gcc/arm-none-eabi/4.7.3/armv7-m/crtn.o
                0x00001d5c                . = ALIGN (0x4)
                0x00001d5c                __preinit_array_start = .
 *(.preinit_array)
                0x00001d5c                __preinit_array_end = .
                0x00001d5c                . = ALIGN (0x4)
                0x00001d5c                __init_array_start = .
 *(SORT(.init_array.*))
 *(.init_array)
 .init_array    0x00001d5c        0x4 c:/program files/cypress/psoc creator/3.0/psoc creator/import/gnu_cs/arm/4.7.3/bin/../lib/gcc/arm-none-eabi/4.7.3/armv7-m/crtbegin.o
 .init_array    0x00001d60        0x4 .\CortexM3\ARM_GCC_473\Debug\Cm3Start.o
                0x00001d64                __init_array_end = .
                0x00001d64                . = ALIGN (0x4)
 *(.fini)
 .fini          0x00001d64        0x4 c:/program files/cypress/psoc creator/3.0/psoc creator/import/gnu_cs/arm/4.7.3/bin/../lib/gcc/arm-none-eabi/4.7.3/armv7-m/crti.o
                0x00001d64                _fini
 .fini          0x00001d68        0x8 c:/program files/cypress/psoc creator/3.0/psoc creator/import/gnu_cs/arm/4.7.3/bin/../lib/gcc/arm-none-eabi/4.7.3/armv7-m/crtn.o
                0x00001d70                . = ALIGN (0x4)
                0x00001d70                __fini_array_start = .
 *(.fini_array)
 .fini_array    0x00001d70        0x4 c:/program files/cypress/psoc creator/3.0/psoc creator/import/gnu_cs/arm/4.7.3/bin/../lib/gcc/arm-none-eabi/4.7.3/armv7-m/crtbegin.o
 *(SORT(.fini_array.*))
                0x00001d74                __fini_array_end = .
                0x00001d74                . = ALIGN (0x4)
 *crtbegin.o(.ctors)
 *(EXCLUDE_FILE(*crtend.o) .ctors)
 *(SORT(.ctors.*))
 *crtend.o(.ctors)
                0x00001d74                . = ALIGN (0x4)
 *crtbegin.o(.dtors)
 *(EXCLUDE_FILE(*crtend.o) .dtors)
 *(SORT(.dtors.*))
 *crtend.o(.dtors)
                0x00001d74                . = ALIGN (0x4)
                0x00001d74                __cy_regions = .
                0x00001d74        0x4 LONG 0x1d88 __cy_region_init_ram
                0x00001d78        0x4 LONG 0x1fff8108 __cy_region_start_data
                0x00001d7c        0x4 LONG 0x8 __cy_region_init_size_ram
                0x00001d80        0x4 LONG 0x30 __cy_region_zero_size_ram
                0x00001d84                __cy_regions_end = .
                0x00001d88                . = ALIGN (0x8)
 *fill*         0x00001d84        0x4 00
                0x00001d88                _etext = .

.ramvectors     0x1fff8000      0x100
                0x1fff8000                __cy_region_start_ram = .
 *(.ramvectors)
 .ramvectors    0x1fff8000      0x100 .\CortexM3\ARM_GCC_473\Debug\Cm3Start.o
                0x1fff8000                CyRamVectors

.noinit         0x1fff8100        0x5
 *(.noinit)
 .noinit        0x1fff8100        0x4 .\CortexM3\ARM_GCC_473\Debug\Cm3Start.o
 .noinit        0x1fff8104        0x1 .\CortexM3\ARM_GCC_473\Debug\tail_true.a(CyLib.o)
                0x1fff8104                CyResetStatus

.data           0x1fff8108        0x8 load address 0x00001d88
                0x1fff8108                __cy_region_start_data = .
 *(.jcr)
 .jcr           0x1fff8108        0x0 c:/program files/cypress/psoc creator/3.0/psoc creator/import/gnu_cs/arm/4.7.3/bin/../lib/gcc/arm-none-eabi/4.7.3/armv7-m/crtbegin.o
 .jcr           0x1fff8108        0x4 c:/program files/cypress/psoc creator/3.0/psoc creator/import/gnu_cs/arm/4.7.3/bin/../lib/gcc/arm-none-eabi/4.7.3/armv7-m/crtend.o
 *(.got.plt)
 *(.got)
 *(.shdata)
 *(.data .data.* .gnu.linkonce.d.*)
                0x1fff8110                . = ALIGN (0x8)
 *fill*         0x1fff810c        0x4 00
 *(.ram)
                0x1fff8110                _edata = .

.igot.plt       0x1fff8110        0x0 load address 0x00001d90
 .igot.plt      0x00000000        0x0 c:/program files/cypress/psoc creator/3.0/psoc creator/import/gnu_cs/arm/4.7.3/bin/../lib/gcc/arm-none-eabi/4.7.3/armv7-m/crtbegin.o

.bss            0x1fff8110       0x30 load address 0x00001d90
                0x1fff8110                PROVIDE (__bss_start__, .)
 *(.shbss)
 *(.bss .bss.* .gnu.linkonce.b.*)
 .bss           0x1fff8110       0x1c c:/program files/cypress/psoc creator/3.0/psoc creator/import/gnu_cs/arm/4.7.3/bin/../lib/gcc/arm-none-eabi/4.7.3/armv7-m/crtbegin.o
 .bss           0x1fff812c        0x2 .\CortexM3\ARM_GCC_473\Debug\tail_true.a(UART.o)
                0x1fff812c                UART_initVar
 .bss           0x1fff812e        0x1 .\CortexM3\ARM_GCC_473\Debug\tail_true.a(Timer.o)
                0x1fff812e                Timer_initVar
 .bss           0x1fff812f        0x1 .\CortexM3\ARM_GCC_473\Debug\tail_true.a(PWM_1.o)
                0x1fff812f                PWM_1_initVar
 *(COMMON)
 COMMON         0x1fff8130        0xe .\CortexM3\ARM_GCC_473\Debug\main.o
                0x1fff8130                radder_buffer
                0x1fff8134                elevator_buffer
                0x1fff8138                pak
                0x1fff8140                . = ALIGN (0x8)
 *fill*         0x1fff813e        0x2 00
 *(.ram.b)
                0x1fff8140                _end = .
                0x1fff8140                __end = .
                0x1fff8140                PROVIDE (end, .)
                0x1fff8140                PROVIDE (__bss_end__, .)
                0x00001d88                __cy_region_init_ram = LOADADDR (.data)
                0x00000008                __cy_region_init_size_ram = (_edata - ADDR (.data))
                0x00000030                __cy_region_zero_size_ram = (_end - _edata)

.heap           0x1fff8140     0x1000 load address 0x00001d90
                0x1fff8140                . = _end
                0x1fff9140                . = (. + 0x1000)
 *fill*         0x1fff8140     0x1000 00
                0x1fff9140                __cy_heap_limit = .

.stack          0x20004000     0x4000
                0x20004000                __cy_stack_limit = .
                0x20008000                . = (. + 0x4000)
 *fill*         0x20004000     0x4000 00
                0x00000001                ASSERT ((__cy_stack_limit >= __cy_heap_limit), region RAM overflowed with stack)

.cyloadermeta
 *(.cyloadermeta)

.cyloadablemeta
 *(.cyloadablemeta)

.cyconfigecc    0x80000000      0x638
 *(.cyconfigecc)
 .cyconfigecc   0x80000000      0x638 .\CortexM3\ARM_GCC_473\Debug\cymetadata.o
                0x80000000                cy_meta_configecc

.cycustnvl      0x90000000        0x4
 *(.cycustnvl)
 .cycustnvl     0x90000000        0x4 .\CortexM3\ARM_GCC_473\Debug\cymetadata.o
                0x90000000                cy_meta_custnvl

.cywolatch      0x90100000        0x4
 *(.cywolatch)
 .cywolatch     0x90100000        0x4 .\CortexM3\ARM_GCC_473\Debug\cymetadata.o
                0x90100000                cy_meta_wonvl

.cyeeprom       0x90200000        0x0
 *(.cyeeprom)
                0x00000001                ASSERT ((. <= ((0x90200000 + ee_offset) + ee_size)), .cyeeprom data will not fit in EEPROM)

.cyflashprotect
                0x90400000      0x100
 *(.cyflashprotect)
 .cyflashprotect
                0x90400000      0x100 .\CortexM3\ARM_GCC_473\Debug\cymetadata.o
                0x90400000                cy_meta_flashprotect

.cymeta         0x90500000        0xc
 *(.cymeta)
 .cymeta        0x90500000        0xc .\CortexM3\ARM_GCC_473\Debug\cymetadata.o
                0x90500000                cy_metadata

.rel.dyn        0x00001d90        0x0 load address 0x9050000c
 .rel.iplt      0x00000000        0x0 c:/program files/cypress/psoc creator/3.0/psoc creator/import/gnu_cs/arm/4.7.3/bin/../lib/gcc/arm-none-eabi/4.7.3/armv7-m/crtbegin.o

.stab
 *(.stab)

.stabstr
 *(.stabstr)

.debug
 *(.debug)

.line
 *(.line)

.debug_srcinfo
 *(.debug_srcinfo)

.debug_sfnames
 *(.debug_sfnames)

.debug_aranges  0x00000000      0x8a8
 *(.debug_aranges)
 .debug_aranges
                0x00000000       0x78 .\CortexM3\ARM_GCC_473\Debug\main.o
 .debug_aranges
                0x00000078       0x18 .\CortexM3\ARM_GCC_473\Debug\cymetadata.o
 .debug_aranges
                0x00000090       0x40 .\CortexM3\ARM_GCC_473\Debug\Cm3Start.o
 .debug_aranges
                0x000000d0       0x60 .\CortexM3\ARM_GCC_473\Debug\tail_true.a(cyfitter_cfg.o)
 .debug_aranges
                0x00000130       0x20 .\CortexM3\ARM_GCC_473\Debug\tail_true.a(CyBootAsmGnu.o)
 .debug_aranges
                0x00000150      0x218 .\CortexM3\ARM_GCC_473\Debug\tail_true.a(CyLib.o)
 .debug_aranges
                0x00000368       0x90 .\CortexM3\ARM_GCC_473\Debug\tail_true.a(cyPm.o)
 .debug_aranges
                0x000003f8       0xf0 .\CortexM3\ARM_GCC_473\Debug\tail_true.a(UART.o)
 .debug_aranges
                0x000004e8       0x90 .\CortexM3\ARM_GCC_473\Debug\tail_true.a(Timer.o)
 .debug_aranges
                0x00000578       0x38 .\CortexM3\ARM_GCC_473\Debug\tail_true.a(DE.o)
 .debug_aranges
                0x000005b0       0x38 .\CortexM3\ARM_GCC_473\Debug\tail_true.a(LED_1.o)
 .debug_aranges
                0x000005e8       0x38 .\CortexM3\ARM_GCC_473\Debug\tail_true.a(LED_2.o)
 .debug_aranges
                0x00000620       0xa8 .\CortexM3\ARM_GCC_473\Debug\tail_true.a(PWM_1.o)
 .debug_aranges
                0x000006c8       0x80 .\CortexM3\ARM_GCC_473\Debug\tail_true.a(isr_tc.o)
 .debug_aranges
                0x00000748       0x40 .\CortexM3\ARM_GCC_473\Debug\tail_true.a(Status_Reg_1.o)
 .debug_aranges
                0x00000788       0x40 .\CortexM3\ARM_GCC_473\Debug\tail_true.a(Status_Reg_2.o)
 .debug_aranges
                0x000007c8       0x78 .\CortexM3\ARM_GCC_473\Debug\tail_true.a(CyFlash.o)
 .debug_aranges
                0x00000840       0x68 .\CortexM3\ARM_GCC_473\Debug\tail_true.a(CySpc.o)

.debug_pubnames
 *(.debug_pubnames)

.debug_info     0x00000000     0x3a38
 *(.debug_info .gnu.linkonce.wi.*)
 .debug_info    0x00000000      0x3bf .\CortexM3\ARM_GCC_473\Debug\main.o
 .debug_info    0x000003bf      0x141 .\CortexM3\ARM_GCC_473\Debug\cymetadata.o
 .debug_info    0x00000500      0x2ea .\CortexM3\ARM_GCC_473\Debug\Cm3Start.o
 .debug_info    0x000007ea      0x3c0 .\CortexM3\ARM_GCC_473\Debug\tail_true.a(cyfitter_cfg.o)
 .debug_info    0x00000baa       0x91 .\CortexM3\ARM_GCC_473\Debug\tail_true.a(CyBootAsmGnu.o)
 .debug_info    0x00000c3b      0xcd7 .\CortexM3\ARM_GCC_473\Debug\tail_true.a(CyLib.o)
 .debug_info    0x00001912      0x5c3 .\CortexM3\ARM_GCC_473\Debug\tail_true.a(cyPm.o)
 .debug_info    0x00001ed5      0x58b .\CortexM3\ARM_GCC_473\Debug\tail_true.a(UART.o)
 .debug_info    0x00002460      0x2a0 .\CortexM3\ARM_GCC_473\Debug\tail_true.a(Timer.o)
 .debug_info    0x00002700      0x134 .\CortexM3\ARM_GCC_473\Debug\tail_true.a(DE.o)
 .debug_info    0x00002834      0x134 .\CortexM3\ARM_GCC_473\Debug\tail_true.a(LED_1.o)
 .debug_info    0x00002968      0x134 .\CortexM3\ARM_GCC_473\Debug\tail_true.a(LED_2.o)
 .debug_info    0x00002a9c      0x34b .\CortexM3\ARM_GCC_473\Debug\tail_true.a(PWM_1.o)
 .debug_info    0x00002de7      0x278 .\CortexM3\ARM_GCC_473\Debug\tail_true.a(isr_tc.o)
 .debug_info    0x0000305f      0x156 .\CortexM3\ARM_GCC_473\Debug\tail_true.a(Status_Reg_1.o)
 .debug_info    0x000031b5      0x156 .\CortexM3\ARM_GCC_473\Debug\tail_true.a(Status_Reg_2.o)
 .debug_info    0x0000330b      0x354 .\CortexM3\ARM_GCC_473\Debug\tail_true.a(CyFlash.o)
 .debug_info    0x0000365f      0x3d9 .\CortexM3\ARM_GCC_473\Debug\tail_true.a(CySpc.o)

.debug_abbrev   0x00000000     0x13a2
 *(.debug_abbrev)
 .debug_abbrev  0x00000000      0x1ce .\CortexM3\ARM_GCC_473\Debug\main.o
 .debug_abbrev  0x000001ce       0x77 .\CortexM3\ARM_GCC_473\Debug\cymetadata.o
 .debug_abbrev  0x00000245      0x175 .\CortexM3\ARM_GCC_473\Debug\Cm3Start.o
 .debug_abbrev  0x000003ba      0x19f .\CortexM3\ARM_GCC_473\Debug\tail_true.a(cyfitter_cfg.o)
 .debug_abbrev  0x00000559       0x14 .\CortexM3\ARM_GCC_473\Debug\tail_true.a(CyBootAsmGnu.o)
 .debug_abbrev  0x0000056d      0x207 .\CortexM3\ARM_GCC_473\Debug\tail_true.a(CyLib.o)
 .debug_abbrev  0x00000774      0x170 .\CortexM3\ARM_GCC_473\Debug\tail_true.a(cyPm.o)
 .debug_abbrev  0x000008e4      0x165 .\CortexM3\ARM_GCC_473\Debug\tail_true.a(UART.o)
 .debug_abbrev  0x00000a49      0x11d .\CortexM3\ARM_GCC_473\Debug\tail_true.a(Timer.o)
 .debug_abbrev  0x00000b66       0x92 .\CortexM3\ARM_GCC_473\Debug\tail_true.a(DE.o)
 .debug_abbrev  0x00000bf8       0x92 .\CortexM3\ARM_GCC_473\Debug\tail_true.a(LED_1.o)
 .debug_abbrev  0x00000c8a       0x92 .\CortexM3\ARM_GCC_473\Debug\tail_true.a(LED_2.o)
 .debug_abbrev  0x00000d1c      0x130 .\CortexM3\ARM_GCC_473\Debug\tail_true.a(PWM_1.o)
 .debug_abbrev  0x00000e4c      0x12d .\CortexM3\ARM_GCC_473\Debug\tail_true.a(isr_tc.o)
 .debug_abbrev  0x00000f79       0xac .\CortexM3\ARM_GCC_473\Debug\tail_true.a(Status_Reg_1.o)
 .debug_abbrev  0x00001025       0xac .\CortexM3\ARM_GCC_473\Debug\tail_true.a(Status_Reg_2.o)
 .debug_abbrev  0x000010d1      0x172 .\CortexM3\ARM_GCC_473\Debug\tail_true.a(CyFlash.o)
 .debug_abbrev  0x00001243      0x15f .\CortexM3\ARM_GCC_473\Debug\tail_true.a(CySpc.o)

.debug_line     0x00000000     0x1f6c
 *(.debug_line)
 .debug_line    0x00000000      0x2c8 .\CortexM3\ARM_GCC_473\Debug\main.o
 .debug_line    0x000002c8       0x53 .\CortexM3\ARM_GCC_473\Debug\cymetadata.o
 .debug_line    0x0000031b      0x1aa .\CortexM3\ARM_GCC_473\Debug\Cm3Start.o
 .debug_line    0x000004c5      0x1f5 .\CortexM3\ARM_GCC_473\Debug\tail_true.a(cyfitter_cfg.o)
 .debug_line    0x000006ba       0x68 .\CortexM3\ARM_GCC_473\Debug\tail_true.a(CyBootAsmGnu.o)
 .debug_line    0x00000722      0x73b .\CortexM3\ARM_GCC_473\Debug\tail_true.a(CyLib.o)
 .debug_line    0x00000e5d      0x347 .\CortexM3\ARM_GCC_473\Debug\tail_true.a(cyPm.o)
 .debug_line    0x000011a4      0x2ef .\CortexM3\ARM_GCC_473\Debug\tail_true.a(UART.o)
 .debug_line    0x00001493      0x174 .\CortexM3\ARM_GCC_473\Debug\tail_true.a(Timer.o)
 .debug_line    0x00001607       0x93 .\CortexM3\ARM_GCC_473\Debug\tail_true.a(DE.o)
 .debug_line    0x0000169a       0x96 .\CortexM3\ARM_GCC_473\Debug\tail_true.a(LED_1.o)
 .debug_line    0x00001730       0x96 .\CortexM3\ARM_GCC_473\Debug\tail_true.a(LED_2.o)
 .debug_line    0x000017c6      0x1b3 .\CortexM3\ARM_GCC_473\Debug\tail_true.a(PWM_1.o)
 .debug_line    0x00001979      0x141 .\CortexM3\ARM_GCC_473\Debug\tail_true.a(isr_tc.o)
 .debug_line    0x00001aba       0xb2 .\CortexM3\ARM_GCC_473\Debug\tail_true.a(Status_Reg_1.o)
 .debug_line    0x00001b6c       0xb2 .\CortexM3\ARM_GCC_473\Debug\tail_true.a(Status_Reg_2.o)
 .debug_line    0x00001c1e      0x1a7 .\CortexM3\ARM_GCC_473\Debug\tail_true.a(CyFlash.o)
 .debug_line    0x00001dc5      0x1a7 .\CortexM3\ARM_GCC_473\Debug\tail_true.a(CySpc.o)

.debug_frame    0x00000000     0x1b6c
 *(.debug_frame)
 .debug_frame   0x00000000      0x188 .\CortexM3\ARM_GCC_473\Debug\main.o
 .debug_frame   0x00000188       0xa4 .\CortexM3\ARM_GCC_473\Debug\Cm3Start.o
 .debug_frame   0x0000022c      0x120 .\CortexM3\ARM_GCC_473\Debug\tail_true.a(cyfitter_cfg.o)
 .debug_frame   0x0000034c      0x778 .\CortexM3\ARM_GCC_473\Debug\tail_true.a(CyLib.o)
 .debug_frame   0x00000ac4      0x1d0 .\CortexM3\ARM_GCC_473\Debug\tail_true.a(cyPm.o)
 .debug_frame   0x00000c94      0x328 .\CortexM3\ARM_GCC_473\Debug\tail_true.a(UART.o)
 .debug_frame   0x00000fbc      0x1b8 .\CortexM3\ARM_GCC_473\Debug\tail_true.a(Timer.o)
 .debug_frame   0x00001174       0x80 .\CortexM3\ARM_GCC_473\Debug\tail_true.a(DE.o)
 .debug_frame   0x000011f4       0x80 .\CortexM3\ARM_GCC_473\Debug\tail_true.a(LED_1.o)
 .debug_frame   0x00001274       0x80 .\CortexM3\ARM_GCC_473\Debug\tail_true.a(LED_2.o)
 .debug_frame   0x000012f4      0x20c .\CortexM3\ARM_GCC_473\Debug\tail_true.a(PWM_1.o)
 .debug_frame   0x00001500      0x180 .\CortexM3\ARM_GCC_473\Debug\tail_true.a(isr_tc.o)
 .debug_frame   0x00001680       0xa4 .\CortexM3\ARM_GCC_473\Debug\tail_true.a(Status_Reg_1.o)
 .debug_frame   0x00001724       0xa4 .\CortexM3\ARM_GCC_473\Debug\tail_true.a(Status_Reg_2.o)
 .debug_frame   0x000017c8      0x178 .\CortexM3\ARM_GCC_473\Debug\tail_true.a(CyFlash.o)
 .debug_frame   0x00001940      0x13c .\CortexM3\ARM_GCC_473\Debug\tail_true.a(CySpc.o)
 .debug_frame   0x00001a7c       0x28 c:/program files/cypress/psoc creator/3.0/psoc creator/import/gnu_cs/arm/4.7.3/bin/../lib/gcc/arm-none-eabi/4.7.3/../../../../arm-none-eabi/lib/armv7-m\libc_s.a(lib_a-__atexit2.o)
 .debug_frame   0x00001aa4       0x28 c:/program files/cypress/psoc creator/3.0/psoc creator/import/gnu_cs/arm/4.7.3/bin/../lib/gcc/arm-none-eabi/4.7.3/../../../../arm-none-eabi/lib/armv7-m\libc_s.a(lib_a-exit.o)
 .debug_frame   0x00001acc       0x2c c:/program files/cypress/psoc creator/3.0/psoc creator/import/gnu_cs/arm/4.7.3/bin/../lib/gcc/arm-none-eabi/4.7.3/../../../../arm-none-eabi/lib/armv7-m\libc_s.a(lib_a-fini.o)
 .debug_frame   0x00001af8       0x2c c:/program files/cypress/psoc creator/3.0/psoc creator/import/gnu_cs/arm/4.7.3/bin/../lib/gcc/arm-none-eabi/4.7.3/../../../../arm-none-eabi/lib/armv7-m\libc_s.a(lib_a-init.o)
 .debug_frame   0x00001b24       0x28 c:/program files/cypress/psoc creator/3.0/psoc creator/import/gnu_cs/arm/4.7.3/bin/../lib/gcc/arm-none-eabi/4.7.3/../../../../arm-none-eabi/lib/armv7-m\libc_s.a(lib_a-memcpy.o)
 .debug_frame   0x00001b4c       0x20 c:/program files/cypress/psoc creator/3.0/psoc creator/import/gnu_cs/arm/4.7.3/bin/../lib/gcc/arm-none-eabi/4.7.3/../../../../arm-none-eabi/lib/armv7-m\libc_s.a(lib_a-memset.o)

.debug_str      0x00000000     0x19c3
 *(.debug_str)
 .debug_str     0x00000000      0x227 .\CortexM3\ARM_GCC_473\Debug\main.o
                                0x279 (size before relaxing)
 .debug_str     0x00000227       0x77 .\CortexM3\ARM_GCC_473\Debug\cymetadata.o
                                0x1a6 (size before relaxing)
 .debug_str     0x0000029e      0x119 .\CortexM3\ARM_GCC_473\Debug\Cm3Start.o
                                0x262 (size before relaxing)
 .debug_str     0x000003b7      0x15e .\CortexM3\ARM_GCC_473\Debug\tail_true.a(cyfitter_cfg.o)
                                0x2b3 (size before relaxing)
 .debug_str     0x00000515      0x633 .\CortexM3\ARM_GCC_473\Debug\tail_true.a(CyLib.o)
                                0x7c8 (size before relaxing)
 .debug_str     0x00000b48      0x371 .\CortexM3\ARM_GCC_473\Debug\tail_true.a(cyPm.o)
                                0x4d7 (size before relaxing)
 .debug_str     0x00000eb9      0x284 .\CortexM3\ARM_GCC_473\Debug\tail_true.a(UART.o)
                                0x3d3 (size before relaxing)
 .debug_str     0x0000113d      0x16e .\CortexM3\ARM_GCC_473\Debug\tail_true.a(Timer.o)
                                0x2be (size before relaxing)
 .debug_str     0x000012ab       0x59 .\CortexM3\ARM_GCC_473\Debug\tail_true.a(DE.o)
                                0x18f (size before relaxing)
 .debug_str     0x00001304       0x5d .\CortexM3\ARM_GCC_473\Debug\tail_true.a(LED_1.o)
                                0x19e (size before relaxing)
 .debug_str     0x00001361       0x5d .\CortexM3\ARM_GCC_473\Debug\tail_true.a(LED_2.o)
                                0x19e (size before relaxing)
 .debug_str     0x000013be      0x1a4 .\CortexM3\ARM_GCC_473\Debug\tail_true.a(PWM_1.o)
                                0x30a (size before relaxing)
 .debug_str     0x00001562       0xf6 .\CortexM3\ARM_GCC_473\Debug\tail_true.a(isr_tc.o)
                                0x264 (size before relaxing)
 .debug_str     0x00001658       0xa2 .\CortexM3\ARM_GCC_473\Debug\tail_true.a(Status_Reg_1.o)
                                0x1ea (size before relaxing)
 .debug_str     0x000016fa       0xa2 .\CortexM3\ARM_GCC_473\Debug\tail_true.a(Status_Reg_2.o)
                                0x1ea (size before relaxing)
 .debug_str     0x0000179c      0x129 .\CortexM3\ARM_GCC_473\Debug\tail_true.a(CyFlash.o)
                                0x29d (size before relaxing)
 .debug_str     0x000018c5       0xfe .\CortexM3\ARM_GCC_473\Debug\tail_true.a(CySpc.o)
                                0x279 (size before relaxing)

.debug_loc      0x00000000     0x2c88
 *(.debug_loc)
 .debug_loc     0x00000000      0x270 .\CortexM3\ARM_GCC_473\Debug\main.o
 .debug_loc     0x00000270      0x100 .\CortexM3\ARM_GCC_473\Debug\Cm3Start.o
 .debug_loc     0x00000370      0x1f8 .\CortexM3\ARM_GCC_473\Debug\tail_true.a(cyfitter_cfg.o)
 .debug_loc     0x00000568      0xce0 .\CortexM3\ARM_GCC_473\Debug\tail_true.a(CyLib.o)
 .debug_loc     0x00001248      0x2e8 .\CortexM3\ARM_GCC_473\Debug\tail_true.a(cyPm.o)
 .debug_loc     0x00001530      0x5ac .\CortexM3\ARM_GCC_473\Debug\tail_true.a(UART.o)
 .debug_loc     0x00001adc      0x2d0 .\CortexM3\ARM_GCC_473\Debug\tail_true.a(Timer.o)
 .debug_loc     0x00001dac       0xc8 .\CortexM3\ARM_GCC_473\Debug\tail_true.a(DE.o)
 .debug_loc     0x00001e74       0xc8 .\CortexM3\ARM_GCC_473\Debug\tail_true.a(LED_1.o)
 .debug_loc     0x00001f3c       0xc8 .\CortexM3\ARM_GCC_473\Debug\tail_true.a(LED_2.o)
 .debug_loc     0x00002004      0x384 .\CortexM3\ARM_GCC_473\Debug\tail_true.a(PWM_1.o)
 .debug_loc     0x00002388      0x278 .\CortexM3\ARM_GCC_473\Debug\tail_true.a(isr_tc.o)
 .debug_loc     0x00002600      0x100 .\CortexM3\ARM_GCC_473\Debug\tail_true.a(Status_Reg_1.o)
 .debug_loc     0x00002700      0x100 .\CortexM3\ARM_GCC_473\Debug\tail_true.a(Status_Reg_2.o)
 .debug_loc     0x00002800      0x258 .\CortexM3\ARM_GCC_473\Debug\tail_true.a(CyFlash.o)
 .debug_loc     0x00002a58      0x230 .\CortexM3\ARM_GCC_473\Debug\tail_true.a(CySpc.o)

.debug_macinfo
 *(.debug_macinfo)

.debug_ranges   0x00000000      0x770
 *(.debug_ranges)
 .debug_ranges  0x00000000       0x68 .\CortexM3\ARM_GCC_473\Debug\main.o
 .debug_ranges  0x00000068       0x30 .\CortexM3\ARM_GCC_473\Debug\Cm3Start.o
 .debug_ranges  0x00000098       0x50 .\CortexM3\ARM_GCC_473\Debug\tail_true.a(cyfitter_cfg.o)
 .debug_ranges  0x000000e8      0x208 .\CortexM3\ARM_GCC_473\Debug\tail_true.a(CyLib.o)
 .debug_ranges  0x000002f0       0x80 .\CortexM3\ARM_GCC_473\Debug\tail_true.a(cyPm.o)
 .debug_ranges  0x00000370       0xe0 .\CortexM3\ARM_GCC_473\Debug\tail_true.a(UART.o)
 .debug_ranges  0x00000450       0x80 .\CortexM3\ARM_GCC_473\Debug\tail_true.a(Timer.o)
 .debug_ranges  0x000004d0       0x28 .\CortexM3\ARM_GCC_473\Debug\tail_true.a(DE.o)
 .debug_ranges  0x000004f8       0x28 .\CortexM3\ARM_GCC_473\Debug\tail_true.a(LED_1.o)
 .debug_ranges  0x00000520       0x28 .\CortexM3\ARM_GCC_473\Debug\tail_true.a(LED_2.o)
 .debug_ranges  0x00000548       0x98 .\CortexM3\ARM_GCC_473\Debug\tail_true.a(PWM_1.o)
 .debug_ranges  0x000005e0       0x70 .\CortexM3\ARM_GCC_473\Debug\tail_true.a(isr_tc.o)
 .debug_ranges  0x00000650       0x30 .\CortexM3\ARM_GCC_473\Debug\tail_true.a(Status_Reg_1.o)
 .debug_ranges  0x00000680       0x30 .\CortexM3\ARM_GCC_473\Debug\tail_true.a(Status_Reg_2.o)
 .debug_ranges  0x000006b0       0x68 .\CortexM3\ARM_GCC_473\Debug\tail_true.a(CyFlash.o)
 .debug_ranges  0x00000718       0x58 .\CortexM3\ARM_GCC_473\Debug\tail_true.a(CySpc.o)

.comment        0x00000000       0x70
 .comment       0x00000000       0x70 .\CortexM3\ARM_GCC_473\Debug\main.o
                                 0x71 (size before relaxing)
 .comment       0x00000000       0x71 .\CortexM3\ARM_GCC_473\Debug\cymetadata.o
 .comment       0x00000000       0x71 .\CortexM3\ARM_GCC_473\Debug\Cm3Start.o
 .comment       0x00000000       0x71 .\CortexM3\ARM_GCC_473\Debug\tail_true.a(cyfitter_cfg.o)
 .comment       0x00000000       0x71 .\CortexM3\ARM_GCC_473\Debug\tail_true.a(CyLib.o)
 .comment       0x00000000       0x71 .\CortexM3\ARM_GCC_473\Debug\tail_true.a(cyPm.o)
 .comment       0x00000000       0x71 .\CortexM3\ARM_GCC_473\Debug\tail_true.a(UART.o)
 .comment       0x00000000       0x71 .\CortexM3\ARM_GCC_473\Debug\tail_true.a(Timer.o)
 .comment       0x00000000       0x71 .\CortexM3\ARM_GCC_473\Debug\tail_true.a(DE.o)
 .comment       0x00000000       0x71 .\CortexM3\ARM_GCC_473\Debug\tail_true.a(LED_1.o)
 .comment       0x00000000       0x71 .\CortexM3\ARM_GCC_473\Debug\tail_true.a(LED_2.o)
 .comment       0x00000000       0x71 .\CortexM3\ARM_GCC_473\Debug\tail_true.a(PWM_1.o)
 .comment       0x00000000       0x71 .\CortexM3\ARM_GCC_473\Debug\tail_true.a(isr_tc.o)
 .comment       0x00000000       0x71 .\CortexM3\ARM_GCC_473\Debug\tail_true.a(Status_Reg_1.o)
 .comment       0x00000000       0x71 .\CortexM3\ARM_GCC_473\Debug\tail_true.a(Status_Reg_2.o)
 .comment       0x00000000       0x71 .\CortexM3\ARM_GCC_473\Debug\tail_true.a(CyFlash.o)
 .comment       0x00000000       0x71 .\CortexM3\ARM_GCC_473\Debug\tail_true.a(CySpc.o)

.debug_weaknames
 *(.debug_weaknames)

.debug_funcnames
 *(.debug_funcnames)

.debug_typenames
 *(.debug_typenames)

.debug_varnames
 *(.debug_varnames)

.note.gnu.arm.ident
 *(.note.gnu.arm.ident)

.ARM.attributes
                0x00000000       0x29
 *(.ARM.attributes)
 .ARM.attributes
                0x00000000       0x1d c:/program files/cypress/psoc creator/3.0/psoc creator/import/gnu_cs/arm/4.7.3/bin/../lib/gcc/arm-none-eabi/4.7.3/armv7-m/crti.o
 .ARM.attributes
                0x0000001d       0x2d c:/program files/cypress/psoc creator/3.0/psoc creator/import/gnu_cs/arm/4.7.3/bin/../lib/gcc/arm-none-eabi/4.7.3/armv7-m/crtbegin.o
 .ARM.attributes
                0x0000004a       0x1b c:/program files/cypress/psoc creator/3.0/psoc creator/import/gnu_cs/arm/4.7.3/bin/../lib/gcc/arm-none-eabi/4.7.3/../../../../arm-none-eabi/lib/armv7-m/crt0.o
 .ARM.attributes
                0x00000065       0x33 .\CortexM3\ARM_GCC_473\Debug\main.o
 .ARM.attributes
                0x00000098       0x33 .\CortexM3\ARM_GCC_473\Debug\cymetadata.o
 .ARM.attributes
                0x000000cb       0x33 .\CortexM3\ARM_GCC_473\Debug\Cm3Start.o
 .ARM.attributes
                0x000000fe       0x33 .\CortexM3\ARM_GCC_473\Debug\tail_true.a(cyfitter_cfg.o)
 .ARM.attributes
                0x00000131       0x21 .\CortexM3\ARM_GCC_473\Debug\tail_true.a(CyBootAsmGnu.o)
 .ARM.attributes
                0x00000152       0x33 .\CortexM3\ARM_GCC_473\Debug\tail_true.a(CyLib.o)
 .ARM.attributes
                0x00000185       0x33 .\CortexM3\ARM_GCC_473\Debug\tail_true.a(cyPm.o)
 .ARM.attributes
                0x000001b8       0x33 .\CortexM3\ARM_GCC_473\Debug\tail_true.a(UART.o)
 .ARM.attributes
                0x000001eb       0x33 .\CortexM3\ARM_GCC_473\Debug\tail_true.a(Timer.o)
 .ARM.attributes
                0x0000021e       0x33 .\CortexM3\ARM_GCC_473\Debug\tail_true.a(DE.o)
 .ARM.attributes
                0x00000251       0x33 .\CortexM3\ARM_GCC_473\Debug\tail_true.a(LED_1.o)
 .ARM.attributes
                0x00000284       0x33 .\CortexM3\ARM_GCC_473\Debug\tail_true.a(LED_2.o)
 .ARM.attributes
                0x000002b7       0x33 .\CortexM3\ARM_GCC_473\Debug\tail_true.a(PWM_1.o)
 .ARM.attributes
                0x000002ea       0x33 .\CortexM3\ARM_GCC_473\Debug\tail_true.a(isr_tc.o)
 .ARM.attributes
                0x0000031d       0x33 .\CortexM3\ARM_GCC_473\Debug\tail_true.a(Status_Reg_1.o)
 .ARM.attributes
                0x00000350       0x33 .\CortexM3\ARM_GCC_473\Debug\tail_true.a(Status_Reg_2.o)
 .ARM.attributes
                0x00000383       0x33 .\CortexM3\ARM_GCC_473\Debug\tail_true.a(CyFlash.o)
 .ARM.attributes
                0x000003b6       0x33 .\CortexM3\ARM_GCC_473\Debug\tail_true.a(CySpc.o)
 .ARM.attributes
                0x000003e9       0x1d c:/program files/cypress/psoc creator/3.0/psoc creator/import/gnu_cs/arm/4.7.3/bin/../lib/gcc/arm-none-eabi/4.7.3/armv7-m\libgcc.a(_arm_addsubdf3.o)
 .ARM.attributes
                0x00000406       0x1d c:/program files/cypress/psoc creator/3.0/psoc creator/import/gnu_cs/arm/4.7.3/bin/../lib/gcc/arm-none-eabi/4.7.3/armv7-m\libgcc.a(_arm_muldivdf3.o)
 .ARM.attributes
                0x00000423       0x1d c:/program files/cypress/psoc creator/3.0/psoc creator/import/gnu_cs/arm/4.7.3/bin/../lib/gcc/arm-none-eabi/4.7.3/armv7-m\libgcc.a(_arm_fixunsdfsi.o)
 .ARM.attributes
                0x00000440       0x2d c:/program files/cypress/psoc creator/3.0/psoc creator/import/gnu_cs/arm/4.7.3/bin/../lib/gcc/arm-none-eabi/4.7.3/../../../../arm-none-eabi/lib/armv7-m\libc_s.a(lib_a-__atexit2.o)
 .ARM.attributes
                0x0000046d       0x2d c:/program files/cypress/psoc creator/3.0/psoc creator/import/gnu_cs/arm/4.7.3/bin/../lib/gcc/arm-none-eabi/4.7.3/../../../../arm-none-eabi/lib/armv7-m\libc_s.a(lib_a-exit.o)
 .ARM.attributes
                0x0000049a       0x2d c:/program files/cypress/psoc creator/3.0/psoc creator/import/gnu_cs/arm/4.7.3/bin/../lib/gcc/arm-none-eabi/4.7.3/../../../../arm-none-eabi/lib/armv7-m\libc_s.a(lib_a-fini.o)
 .ARM.attributes
                0x000004c7       0x2d c:/program files/cypress/psoc creator/3.0/psoc creator/import/gnu_cs/arm/4.7.3/bin/../lib/gcc/arm-none-eabi/4.7.3/../../../../arm-none-eabi/lib/armv7-m\libc_s.a(lib_a-impure.o)
 .ARM.attributes
                0x000004f4       0x2d c:/program files/cypress/psoc creator/3.0/psoc creator/import/gnu_cs/arm/4.7.3/bin/../lib/gcc/arm-none-eabi/4.7.3/../../../../arm-none-eabi/lib/armv7-m\libc_s.a(lib_a-init.o)
 .ARM.attributes
                0x00000521       0x2d c:/program files/cypress/psoc creator/3.0/psoc creator/import/gnu_cs/arm/4.7.3/bin/../lib/gcc/arm-none-eabi/4.7.3/../../../../arm-none-eabi/lib/armv7-m\libc_s.a(lib_a-memcpy.o)
 .ARM.attributes
                0x0000054e       0x2d c:/program files/cypress/psoc creator/3.0/psoc creator/import/gnu_cs/arm/4.7.3/bin/../lib/gcc/arm-none-eabi/4.7.3/../../../../arm-none-eabi/lib/armv7-m\libc_s.a(lib_a-memset.o)
 .ARM.attributes
                0x0000057b       0x2d c:/program files/cypress/psoc creator/3.0/psoc creator/import/gnu_cs/arm/4.7.3/bin/../lib/gcc/arm-none-eabi/4.7.3/armv7-m/crtend.o
 .ARM.attributes
                0x000005a8       0x1d c:/program files/cypress/psoc creator/3.0/psoc creator/import/gnu_cs/arm/4.7.3/bin/../lib/gcc/arm-none-eabi/4.7.3/armv7-m/crtn.o

/DISCARD/
 *(.note.GNU-stack)
OUTPUT(.\CortexM3\ARM_GCC_473\Debug\tail_true.elf elf32-littlearm)
