ARM GAS  C:\Users\RIEKOH~1\AppData\Local\Temp\ccVib3td.s 			page 1


   1              		.syntax unified
   2              		.cpu cortex-m3
   3              		.fpu softvfp
   4              		.eabi_attribute 20, 1
   5              		.eabi_attribute 21, 1
   6              		.eabi_attribute 23, 3
   7              		.eabi_attribute 24, 1
   8              		.eabi_attribute 25, 1
   9              		.eabi_attribute 26, 1
  10              		.eabi_attribute 30, 6
  11              		.eabi_attribute 34, 1
  12              		.eabi_attribute 18, 4
  13              		.thumb
  14              		.file	"Timer_PM.c"
  15              		.text
  16              	.Ltext0:
  17              		.cfi_sections	.debug_frame
  18              		.bss
  19              		.align	2
  20              	Timer_backup:
  21 0000 00000000 		.space	6
  21      0000
  22 0006 0000     		.section	.text.Timer_SaveConfig,"ax",%progbits
  23              		.align	2
  24              		.global	Timer_SaveConfig
  25              		.thumb
  26              		.thumb_func
  27              		.type	Timer_SaveConfig, %function
  28              	Timer_SaveConfig:
  29              	.LFB0:
  30              		.file 1 ".\\Generated_Source\\PSoC5\\Timer_PM.c"
   1:.\Generated_Source\PSoC5/Timer_PM.c **** /*******************************************************************************
   2:.\Generated_Source\PSoC5/Timer_PM.c **** * File Name: Timer_PM.c
   3:.\Generated_Source\PSoC5/Timer_PM.c **** * Version 2.50
   4:.\Generated_Source\PSoC5/Timer_PM.c **** *
   5:.\Generated_Source\PSoC5/Timer_PM.c **** *  Description:
   6:.\Generated_Source\PSoC5/Timer_PM.c **** *     This file provides the power management source code to API for the
   7:.\Generated_Source\PSoC5/Timer_PM.c **** *     Timer.
   8:.\Generated_Source\PSoC5/Timer_PM.c **** *
   9:.\Generated_Source\PSoC5/Timer_PM.c **** *   Note:
  10:.\Generated_Source\PSoC5/Timer_PM.c **** *     None
  11:.\Generated_Source\PSoC5/Timer_PM.c **** *
  12:.\Generated_Source\PSoC5/Timer_PM.c **** *******************************************************************************
  13:.\Generated_Source\PSoC5/Timer_PM.c **** * Copyright 2008-2012, Cypress Semiconductor Corporation.  All rights reserved.
  14:.\Generated_Source\PSoC5/Timer_PM.c **** * You may use this file only in accordance with the license, terms, conditions,
  15:.\Generated_Source\PSoC5/Timer_PM.c **** * disclaimers, and limitations in the end user license agreement accompanying
  16:.\Generated_Source\PSoC5/Timer_PM.c **** * the software package with which this file was provided.
  17:.\Generated_Source\PSoC5/Timer_PM.c **** ********************************************************************************/
  18:.\Generated_Source\PSoC5/Timer_PM.c **** 
  19:.\Generated_Source\PSoC5/Timer_PM.c **** #include "Timer.h"
  20:.\Generated_Source\PSoC5/Timer_PM.c **** static Timer_backupStruct Timer_backup;
  21:.\Generated_Source\PSoC5/Timer_PM.c **** 
  22:.\Generated_Source\PSoC5/Timer_PM.c **** 
  23:.\Generated_Source\PSoC5/Timer_PM.c **** /*******************************************************************************
  24:.\Generated_Source\PSoC5/Timer_PM.c **** * Function Name: Timer_SaveConfig
  25:.\Generated_Source\PSoC5/Timer_PM.c **** ********************************************************************************
  26:.\Generated_Source\PSoC5/Timer_PM.c **** *
ARM GAS  C:\Users\RIEKOH~1\AppData\Local\Temp\ccVib3td.s 			page 2


  27:.\Generated_Source\PSoC5/Timer_PM.c **** * Summary:
  28:.\Generated_Source\PSoC5/Timer_PM.c **** *     Save the current user configuration
  29:.\Generated_Source\PSoC5/Timer_PM.c **** *
  30:.\Generated_Source\PSoC5/Timer_PM.c **** * Parameters:
  31:.\Generated_Source\PSoC5/Timer_PM.c **** *  void
  32:.\Generated_Source\PSoC5/Timer_PM.c **** *
  33:.\Generated_Source\PSoC5/Timer_PM.c **** * Return:
  34:.\Generated_Source\PSoC5/Timer_PM.c **** *  void
  35:.\Generated_Source\PSoC5/Timer_PM.c **** *
  36:.\Generated_Source\PSoC5/Timer_PM.c **** * Global variables:
  37:.\Generated_Source\PSoC5/Timer_PM.c **** *  Timer_backup:  Variables of this global structure are modified to
  38:.\Generated_Source\PSoC5/Timer_PM.c **** *  store the values of non retention configuration registers when Sleep() API is
  39:.\Generated_Source\PSoC5/Timer_PM.c **** *  called.
  40:.\Generated_Source\PSoC5/Timer_PM.c **** *
  41:.\Generated_Source\PSoC5/Timer_PM.c **** *******************************************************************************/
  42:.\Generated_Source\PSoC5/Timer_PM.c **** void Timer_SaveConfig(void) 
  43:.\Generated_Source\PSoC5/Timer_PM.c **** {
  31              		.loc 1 43 0
  32              		.cfi_startproc
  33              		@ args = 0, pretend = 0, frame = 0
  34              		@ frame_needed = 1, uses_anonymous_args = 0
  35 0000 80B5     		push	{r7, lr}
  36              	.LCFI0:
  37              		.cfi_def_cfa_offset 8
  38              		.cfi_offset 7, -8
  39              		.cfi_offset 14, -4
  40 0002 00AF     		add	r7, sp, #0
  41              	.LCFI1:
  42              		.cfi_def_cfa_register 7
  44:.\Generated_Source\PSoC5/Timer_PM.c ****     #if (!Timer_UsingFixedFunction)
  45:.\Generated_Source\PSoC5/Timer_PM.c ****         /* Backup the UDB non-rentention registers for CY_UDB_V0 */
  46:.\Generated_Source\PSoC5/Timer_PM.c ****         #if (CY_UDB_V0)
  47:.\Generated_Source\PSoC5/Timer_PM.c ****             Timer_backup.TimerUdb = Timer_ReadCounter();
  48:.\Generated_Source\PSoC5/Timer_PM.c ****             Timer_backup.TimerPeriod = Timer_ReadPeriod();
  49:.\Generated_Source\PSoC5/Timer_PM.c ****             Timer_backup.InterruptMaskValue = Timer_STATUS_MASK;
  50:.\Generated_Source\PSoC5/Timer_PM.c ****             #if (Timer_UsingHWCaptureCounter)
  51:.\Generated_Source\PSoC5/Timer_PM.c ****                 Timer_backup.TimerCaptureCounter = Timer_ReadCaptureCount();
  52:.\Generated_Source\PSoC5/Timer_PM.c ****             #endif /* Backup the UDB non-rentention register capture counter for CY_UDB_V0 */
  53:.\Generated_Source\PSoC5/Timer_PM.c ****         #endif /* Backup the UDB non-rentention registers for CY_UDB_V0 */
  54:.\Generated_Source\PSoC5/Timer_PM.c **** 
  55:.\Generated_Source\PSoC5/Timer_PM.c ****         #if (CY_UDB_V1)
  56:.\Generated_Source\PSoC5/Timer_PM.c ****             Timer_backup.TimerUdb = Timer_ReadCounter();
  43              		.loc 1 56 0
  44 0004 FFF7FEFF 		bl	Timer_ReadCounter
  45 0008 0346     		mov	r3, r0
  46 000a 1A46     		mov	r2, r3
  47 000c 40F20003 		movw	r3, #:lower16:Timer_backup
  48 0010 C0F20003 		movt	r3, #:upper16:Timer_backup
  49 0014 5A80     		strh	r2, [r3, #2]	@ movhi
  57:.\Generated_Source\PSoC5/Timer_PM.c ****             Timer_backup.InterruptMaskValue = Timer_STATUS_MASK;
  50              		.loc 1 57 0
  51 0016 46F28743 		movw	r3, #25735
  52 001a C4F20003 		movt	r3, 16384
  53 001e 1B78     		ldrb	r3, [r3, #0]
  54 0020 DAB2     		uxtb	r2, r3
  55 0022 40F20003 		movw	r3, #:lower16:Timer_backup
  56 0026 C0F20003 		movt	r3, #:upper16:Timer_backup
ARM GAS  C:\Users\RIEKOH~1\AppData\Local\Temp\ccVib3td.s 			page 3


  57 002a 1A71     		strb	r2, [r3, #4]
  58:.\Generated_Source\PSoC5/Timer_PM.c ****             #if (Timer_UsingHWCaptureCounter)
  59:.\Generated_Source\PSoC5/Timer_PM.c ****                 Timer_backup.TimerCaptureCounter = Timer_ReadCaptureCount();
  60:.\Generated_Source\PSoC5/Timer_PM.c ****             #endif /* Back Up capture counter register  */
  61:.\Generated_Source\PSoC5/Timer_PM.c ****         #endif /* Backup non retention registers, interrupt mask and capture counter for CY_UDB_V1 
  62:.\Generated_Source\PSoC5/Timer_PM.c **** 
  63:.\Generated_Source\PSoC5/Timer_PM.c ****         #if(!Timer_ControlRegRemoved)
  64:.\Generated_Source\PSoC5/Timer_PM.c ****             Timer_backup.TimerControlRegister = Timer_ReadControlRegister();
  58              		.loc 1 64 0
  59 002c FFF7FEFF 		bl	Timer_ReadControlRegister
  60 0030 0346     		mov	r3, r0
  61 0032 1A46     		mov	r2, r3
  62 0034 40F20003 		movw	r3, #:lower16:Timer_backup
  63 0038 C0F20003 		movt	r3, #:upper16:Timer_backup
  64 003c 5A71     		strb	r2, [r3, #5]
  65:.\Generated_Source\PSoC5/Timer_PM.c ****         #endif /* Backup the enable state of the Timer component */
  66:.\Generated_Source\PSoC5/Timer_PM.c ****     #endif /* Backup non retention registers in UDB implementation. All fixed function registers ar
  67:.\Generated_Source\PSoC5/Timer_PM.c **** }
  65              		.loc 1 67 0
  66 003e 80BD     		pop	{r7, pc}
  67              		.cfi_endproc
  68              	.LFE0:
  69              		.size	Timer_SaveConfig, .-Timer_SaveConfig
  70              		.section	.text.Timer_RestoreConfig,"ax",%progbits
  71              		.align	2
  72              		.global	Timer_RestoreConfig
  73              		.thumb
  74              		.thumb_func
  75              		.type	Timer_RestoreConfig, %function
  76              	Timer_RestoreConfig:
  77              	.LFB1:
  68:.\Generated_Source\PSoC5/Timer_PM.c **** 
  69:.\Generated_Source\PSoC5/Timer_PM.c **** 
  70:.\Generated_Source\PSoC5/Timer_PM.c **** /*******************************************************************************
  71:.\Generated_Source\PSoC5/Timer_PM.c **** * Function Name: Timer_RestoreConfig
  72:.\Generated_Source\PSoC5/Timer_PM.c **** ********************************************************************************
  73:.\Generated_Source\PSoC5/Timer_PM.c **** *
  74:.\Generated_Source\PSoC5/Timer_PM.c **** * Summary:
  75:.\Generated_Source\PSoC5/Timer_PM.c **** *  Restores the current user configuration.
  76:.\Generated_Source\PSoC5/Timer_PM.c **** *
  77:.\Generated_Source\PSoC5/Timer_PM.c **** * Parameters:
  78:.\Generated_Source\PSoC5/Timer_PM.c **** *  void
  79:.\Generated_Source\PSoC5/Timer_PM.c **** *
  80:.\Generated_Source\PSoC5/Timer_PM.c **** * Return:
  81:.\Generated_Source\PSoC5/Timer_PM.c **** *  void
  82:.\Generated_Source\PSoC5/Timer_PM.c **** *
  83:.\Generated_Source\PSoC5/Timer_PM.c **** * Global variables:
  84:.\Generated_Source\PSoC5/Timer_PM.c **** *  Timer_backup:  Variables of this global structure are used to
  85:.\Generated_Source\PSoC5/Timer_PM.c **** *  restore the values of non retention registers on wakeup from sleep mode.
  86:.\Generated_Source\PSoC5/Timer_PM.c **** *
  87:.\Generated_Source\PSoC5/Timer_PM.c **** *******************************************************************************/
  88:.\Generated_Source\PSoC5/Timer_PM.c **** void Timer_RestoreConfig(void) 
  89:.\Generated_Source\PSoC5/Timer_PM.c **** {   
  78              		.loc 1 89 0
  79              		.cfi_startproc
  80              		@ args = 0, pretend = 0, frame = 0
  81              		@ frame_needed = 1, uses_anonymous_args = 0
ARM GAS  C:\Users\RIEKOH~1\AppData\Local\Temp\ccVib3td.s 			page 4


  82 0000 80B5     		push	{r7, lr}
  83              	.LCFI2:
  84              		.cfi_def_cfa_offset 8
  85              		.cfi_offset 7, -8
  86              		.cfi_offset 14, -4
  87 0002 00AF     		add	r7, sp, #0
  88              	.LCFI3:
  89              		.cfi_def_cfa_register 7
  90:.\Generated_Source\PSoC5/Timer_PM.c ****     #if (!Timer_UsingFixedFunction)
  91:.\Generated_Source\PSoC5/Timer_PM.c ****         /* Restore the UDB non-rentention registers for CY_UDB_V0 */
  92:.\Generated_Source\PSoC5/Timer_PM.c ****         #if (CY_UDB_V0)
  93:.\Generated_Source\PSoC5/Timer_PM.c ****             /* Interrupt State Backup for Critical Region*/
  94:.\Generated_Source\PSoC5/Timer_PM.c ****             uint8 Timer_interruptState;
  95:.\Generated_Source\PSoC5/Timer_PM.c **** 
  96:.\Generated_Source\PSoC5/Timer_PM.c ****             Timer_WriteCounter(Timer_backup.TimerUdb);
  97:.\Generated_Source\PSoC5/Timer_PM.c ****             Timer_WritePeriod(Timer_backup.TimerPeriod);
  98:.\Generated_Source\PSoC5/Timer_PM.c ****             /* CyEnterCriticalRegion and CyExitCriticalRegion are used to mark following region cri
  99:.\Generated_Source\PSoC5/Timer_PM.c ****             /* Enter Critical Region*/
 100:.\Generated_Source\PSoC5/Timer_PM.c ****             Timer_interruptState = CyEnterCriticalSection();
 101:.\Generated_Source\PSoC5/Timer_PM.c ****             /* Use the interrupt output of the status register for IRQ output */
 102:.\Generated_Source\PSoC5/Timer_PM.c ****             Timer_STATUS_AUX_CTRL |= Timer_STATUS_ACTL_INT_EN_MASK;
 103:.\Generated_Source\PSoC5/Timer_PM.c ****             /* Exit Critical Region*/
 104:.\Generated_Source\PSoC5/Timer_PM.c ****             CyExitCriticalSection(Timer_interruptState);
 105:.\Generated_Source\PSoC5/Timer_PM.c ****             Timer_STATUS_MASK =Timer_backup.InterruptMaskValue;
 106:.\Generated_Source\PSoC5/Timer_PM.c ****             #if (Timer_UsingHWCaptureCounter)
 107:.\Generated_Source\PSoC5/Timer_PM.c ****                 Timer_SetCaptureCount(Timer_backup.TimerCaptureCounter);
 108:.\Generated_Source\PSoC5/Timer_PM.c ****             #endif /* Restore the UDB non-rentention register capture counter for CY_UDB_V0 */
 109:.\Generated_Source\PSoC5/Timer_PM.c ****         #endif /* Restore the UDB non-rentention registers for CY_UDB_V0 */
 110:.\Generated_Source\PSoC5/Timer_PM.c **** 
 111:.\Generated_Source\PSoC5/Timer_PM.c ****         #if (CY_UDB_V1)
 112:.\Generated_Source\PSoC5/Timer_PM.c ****             Timer_WriteCounter(Timer_backup.TimerUdb);
  90              		.loc 1 112 0
  91 0004 40F20003 		movw	r3, #:lower16:Timer_backup
  92 0008 C0F20003 		movt	r3, #:upper16:Timer_backup
  93 000c 5B88     		ldrh	r3, [r3, #2]
  94 000e 1846     		mov	r0, r3
  95 0010 FFF7FEFF 		bl	Timer_WriteCounter
 113:.\Generated_Source\PSoC5/Timer_PM.c ****             Timer_STATUS_MASK =Timer_backup.InterruptMaskValue;
  96              		.loc 1 113 0
  97 0014 46F28743 		movw	r3, #25735
  98 0018 C4F20003 		movt	r3, 16384
  99 001c 40F20002 		movw	r2, #:lower16:Timer_backup
 100 0020 C0F20002 		movt	r2, #:upper16:Timer_backup
 101 0024 1279     		ldrb	r2, [r2, #4]	@ zero_extendqisi2
 102 0026 1A70     		strb	r2, [r3, #0]
 114:.\Generated_Source\PSoC5/Timer_PM.c ****             #if (Timer_UsingHWCaptureCounter)
 115:.\Generated_Source\PSoC5/Timer_PM.c ****                 Timer_SetCaptureCount(Timer_backup.TimerCaptureCounter);
 116:.\Generated_Source\PSoC5/Timer_PM.c ****             #endif /* Restore Capture counter register*/
 117:.\Generated_Source\PSoC5/Timer_PM.c ****         #endif /* Restore up non retention registers, interrupt mask and capture counter for CY_UDB
 118:.\Generated_Source\PSoC5/Timer_PM.c **** 
 119:.\Generated_Source\PSoC5/Timer_PM.c ****         #if(!Timer_ControlRegRemoved)
 120:.\Generated_Source\PSoC5/Timer_PM.c ****             Timer_WriteControlRegister(Timer_backup.TimerControlRegister);
 103              		.loc 1 120 0
 104 0028 40F20003 		movw	r3, #:lower16:Timer_backup
 105 002c C0F20003 		movt	r3, #:upper16:Timer_backup
 106 0030 5B79     		ldrb	r3, [r3, #5]	@ zero_extendqisi2
 107 0032 1846     		mov	r0, r3
ARM GAS  C:\Users\RIEKOH~1\AppData\Local\Temp\ccVib3td.s 			page 5


 108 0034 FFF7FEFF 		bl	Timer_WriteControlRegister
 121:.\Generated_Source\PSoC5/Timer_PM.c ****         #endif /* Restore the enable state of the Timer component */
 122:.\Generated_Source\PSoC5/Timer_PM.c ****     #endif /* Restore non retention registers in the UDB implementation only */
 123:.\Generated_Source\PSoC5/Timer_PM.c **** }
 109              		.loc 1 123 0
 110 0038 80BD     		pop	{r7, pc}
 111              		.cfi_endproc
 112              	.LFE1:
 113              		.size	Timer_RestoreConfig, .-Timer_RestoreConfig
 114 003a 00BF     		.section	.text.Timer_Sleep,"ax",%progbits
 115              		.align	2
 116              		.global	Timer_Sleep
 117              		.thumb
 118              		.thumb_func
 119              		.type	Timer_Sleep, %function
 120              	Timer_Sleep:
 121              	.LFB2:
 124:.\Generated_Source\PSoC5/Timer_PM.c **** 
 125:.\Generated_Source\PSoC5/Timer_PM.c **** 
 126:.\Generated_Source\PSoC5/Timer_PM.c **** /*******************************************************************************
 127:.\Generated_Source\PSoC5/Timer_PM.c **** * Function Name: Timer_Sleep
 128:.\Generated_Source\PSoC5/Timer_PM.c **** ********************************************************************************
 129:.\Generated_Source\PSoC5/Timer_PM.c **** *
 130:.\Generated_Source\PSoC5/Timer_PM.c **** * Summary:
 131:.\Generated_Source\PSoC5/Timer_PM.c **** *     Stop and Save the user configuration
 132:.\Generated_Source\PSoC5/Timer_PM.c **** *
 133:.\Generated_Source\PSoC5/Timer_PM.c **** * Parameters:
 134:.\Generated_Source\PSoC5/Timer_PM.c **** *  void
 135:.\Generated_Source\PSoC5/Timer_PM.c **** *
 136:.\Generated_Source\PSoC5/Timer_PM.c **** * Return:
 137:.\Generated_Source\PSoC5/Timer_PM.c **** *  void
 138:.\Generated_Source\PSoC5/Timer_PM.c **** *
 139:.\Generated_Source\PSoC5/Timer_PM.c **** * Global variables:
 140:.\Generated_Source\PSoC5/Timer_PM.c **** *  Timer_backup.TimerEnableState:  Is modified depending on the
 141:.\Generated_Source\PSoC5/Timer_PM.c **** *  enable state of the block before entering sleep mode.
 142:.\Generated_Source\PSoC5/Timer_PM.c **** *
 143:.\Generated_Source\PSoC5/Timer_PM.c **** *******************************************************************************/
 144:.\Generated_Source\PSoC5/Timer_PM.c **** void Timer_Sleep(void) 
 145:.\Generated_Source\PSoC5/Timer_PM.c **** {
 122              		.loc 1 145 0
 123              		.cfi_startproc
 124              		@ args = 0, pretend = 0, frame = 0
 125              		@ frame_needed = 1, uses_anonymous_args = 0
 126 0000 80B5     		push	{r7, lr}
 127              	.LCFI4:
 128              		.cfi_def_cfa_offset 8
 129              		.cfi_offset 7, -8
 130              		.cfi_offset 14, -4
 131 0002 00AF     		add	r7, sp, #0
 132              	.LCFI5:
 133              		.cfi_def_cfa_register 7
 146:.\Generated_Source\PSoC5/Timer_PM.c ****     #if(!Timer_ControlRegRemoved)
 147:.\Generated_Source\PSoC5/Timer_PM.c ****         /* Save Counter's enable state */
 148:.\Generated_Source\PSoC5/Timer_PM.c ****         if(Timer_CTRL_ENABLE == (Timer_CONTROL & Timer_CTRL_ENABLE))
 134              		.loc 1 148 0
 135 0004 46F27643 		movw	r3, #25718
 136 0008 C4F20003 		movt	r3, 16384
ARM GAS  C:\Users\RIEKOH~1\AppData\Local\Temp\ccVib3td.s 			page 6


 137 000c 1B78     		ldrb	r3, [r3, #0]
 138 000e DBB2     		uxtb	r3, r3
 139 0010 DBB2     		uxtb	r3, r3
 140 0012 5BB2     		sxtb	r3, r3
 141 0014 002B     		cmp	r3, #0
 142 0016 07DA     		bge	.L4
 149:.\Generated_Source\PSoC5/Timer_PM.c ****         {
 150:.\Generated_Source\PSoC5/Timer_PM.c ****             /* Timer is enabled */
 151:.\Generated_Source\PSoC5/Timer_PM.c ****             Timer_backup.TimerEnableState = 1u;
 143              		.loc 1 151 0
 144 0018 40F20003 		movw	r3, #:lower16:Timer_backup
 145 001c C0F20003 		movt	r3, #:upper16:Timer_backup
 146 0020 4FF00102 		mov	r2, #1
 147 0024 1A70     		strb	r2, [r3, #0]
 148 0026 06E0     		b	.L5
 149              	.L4:
 152:.\Generated_Source\PSoC5/Timer_PM.c ****         }
 153:.\Generated_Source\PSoC5/Timer_PM.c ****         else
 154:.\Generated_Source\PSoC5/Timer_PM.c ****         {
 155:.\Generated_Source\PSoC5/Timer_PM.c ****             /* Timer is disabled */
 156:.\Generated_Source\PSoC5/Timer_PM.c ****             Timer_backup.TimerEnableState = 0u;
 150              		.loc 1 156 0
 151 0028 40F20003 		movw	r3, #:lower16:Timer_backup
 152 002c C0F20003 		movt	r3, #:upper16:Timer_backup
 153 0030 4FF00002 		mov	r2, #0
 154 0034 1A70     		strb	r2, [r3, #0]
 155              	.L5:
 157:.\Generated_Source\PSoC5/Timer_PM.c ****         }
 158:.\Generated_Source\PSoC5/Timer_PM.c ****     #endif /* Back up enable state from the Timer control register */
 159:.\Generated_Source\PSoC5/Timer_PM.c ****     Timer_Stop();
 156              		.loc 1 159 0
 157 0036 FFF7FEFF 		bl	Timer_Stop
 160:.\Generated_Source\PSoC5/Timer_PM.c ****     Timer_SaveConfig();
 158              		.loc 1 160 0
 159 003a FFF7FEFF 		bl	Timer_SaveConfig
 161:.\Generated_Source\PSoC5/Timer_PM.c **** }
 160              		.loc 1 161 0
 161 003e 80BD     		pop	{r7, pc}
 162              		.cfi_endproc
 163              	.LFE2:
 164              		.size	Timer_Sleep, .-Timer_Sleep
 165              		.section	.text.Timer_Wakeup,"ax",%progbits
 166              		.align	2
 167              		.global	Timer_Wakeup
 168              		.thumb
 169              		.thumb_func
 170              		.type	Timer_Wakeup, %function
 171              	Timer_Wakeup:
 172              	.LFB3:
 162:.\Generated_Source\PSoC5/Timer_PM.c **** 
 163:.\Generated_Source\PSoC5/Timer_PM.c **** 
 164:.\Generated_Source\PSoC5/Timer_PM.c **** /*******************************************************************************
 165:.\Generated_Source\PSoC5/Timer_PM.c **** * Function Name: Timer_Wakeup
 166:.\Generated_Source\PSoC5/Timer_PM.c **** ********************************************************************************
 167:.\Generated_Source\PSoC5/Timer_PM.c **** *
 168:.\Generated_Source\PSoC5/Timer_PM.c **** * Summary:
 169:.\Generated_Source\PSoC5/Timer_PM.c **** *  Restores and enables the user configuration
ARM GAS  C:\Users\RIEKOH~1\AppData\Local\Temp\ccVib3td.s 			page 7


 170:.\Generated_Source\PSoC5/Timer_PM.c **** *
 171:.\Generated_Source\PSoC5/Timer_PM.c **** * Parameters:
 172:.\Generated_Source\PSoC5/Timer_PM.c **** *  void
 173:.\Generated_Source\PSoC5/Timer_PM.c **** *
 174:.\Generated_Source\PSoC5/Timer_PM.c **** * Return:
 175:.\Generated_Source\PSoC5/Timer_PM.c **** *  void
 176:.\Generated_Source\PSoC5/Timer_PM.c **** *
 177:.\Generated_Source\PSoC5/Timer_PM.c **** * Global variables:
 178:.\Generated_Source\PSoC5/Timer_PM.c **** *  Timer_backup.enableState:  Is used to restore the enable state of
 179:.\Generated_Source\PSoC5/Timer_PM.c **** *  block on wakeup from sleep mode.
 180:.\Generated_Source\PSoC5/Timer_PM.c **** *
 181:.\Generated_Source\PSoC5/Timer_PM.c **** *******************************************************************************/
 182:.\Generated_Source\PSoC5/Timer_PM.c **** void Timer_Wakeup(void) 
 183:.\Generated_Source\PSoC5/Timer_PM.c **** {
 173              		.loc 1 183 0
 174              		.cfi_startproc
 175              		@ args = 0, pretend = 0, frame = 0
 176              		@ frame_needed = 1, uses_anonymous_args = 0
 177 0000 80B5     		push	{r7, lr}
 178              	.LCFI6:
 179              		.cfi_def_cfa_offset 8
 180              		.cfi_offset 7, -8
 181              		.cfi_offset 14, -4
 182 0002 00AF     		add	r7, sp, #0
 183              	.LCFI7:
 184              		.cfi_def_cfa_register 7
 184:.\Generated_Source\PSoC5/Timer_PM.c ****     Timer_RestoreConfig();
 185              		.loc 1 184 0
 186 0004 FFF7FEFF 		bl	Timer_RestoreConfig
 185:.\Generated_Source\PSoC5/Timer_PM.c ****     #if(!Timer_ControlRegRemoved)
 186:.\Generated_Source\PSoC5/Timer_PM.c ****         if(Timer_backup.TimerEnableState == 1u)
 187              		.loc 1 186 0
 188 0008 40F20003 		movw	r3, #:lower16:Timer_backup
 189 000c C0F20003 		movt	r3, #:upper16:Timer_backup
 190 0010 1B78     		ldrb	r3, [r3, #0]	@ zero_extendqisi2
 191 0012 012B     		cmp	r3, #1
 192 0014 01D1     		bne	.L6
 187:.\Generated_Source\PSoC5/Timer_PM.c ****         {     /* Enable Timer's operation */
 188:.\Generated_Source\PSoC5/Timer_PM.c ****                 Timer_Enable();
 193              		.loc 1 188 0
 194 0016 FFF7FEFF 		bl	Timer_Enable
 195              	.L6:
 189:.\Generated_Source\PSoC5/Timer_PM.c ****         } /* Do nothing if Timer was disabled before */
 190:.\Generated_Source\PSoC5/Timer_PM.c ****     #endif /* Remove this code section if Control register is removed */
 191:.\Generated_Source\PSoC5/Timer_PM.c **** }
 196              		.loc 1 191 0
 197 001a 80BD     		pop	{r7, pc}
 198              		.cfi_endproc
 199              	.LFE3:
 200              		.size	Timer_Wakeup, .-Timer_Wakeup
 201              		.text
 202              	.Letext0:
 203              		.file 2 ".\\Generated_Source\\PSoC5\\cytypes.h"
 204              		.file 3 ".\\Generated_Source\\PSoC5\\Timer.h"
