ARM GAS  C:\Users\RIEKOH~1\AppData\Local\Temp\cc1ugwpa.s 			page 1


   1              		.syntax unified
   2              		.cpu cortex-m3
   3              		.fpu softvfp
   4              		.eabi_attribute 20, 1
   5              		.eabi_attribute 21, 1
   6              		.eabi_attribute 23, 3
   7              		.eabi_attribute 24, 1
   8              		.eabi_attribute 25, 1
   9              		.eabi_attribute 26, 1
  10              		.eabi_attribute 30, 6
  11              		.eabi_attribute 34, 1
  12              		.eabi_attribute 18, 4
  13              		.thumb
  14              		.file	"UART.c"
  15              		.text
  16              	.Ltext0:
  17              		.cfi_sections	.debug_frame
  18              		.global	UART_initVar
  19              		.bss
  20              		.type	UART_initVar, %object
  21              		.size	UART_initVar, 1
  22              	UART_initVar:
  23 0000 00       		.space	1
  24              		.section	.text.UART_Start,"ax",%progbits
  25              		.align	2
  26              		.global	UART_Start
  27              		.thumb
  28              		.thumb_func
  29              		.type	UART_Start, %function
  30              	UART_Start:
  31              	.LFB0:
  32              		.file 1 ".\\Generated_Source\\PSoC5\\UART.c"
   1:.\Generated_Source\PSoC5/UART.c **** /*******************************************************************************
   2:.\Generated_Source\PSoC5/UART.c **** * File Name: UART.c
   3:.\Generated_Source\PSoC5/UART.c **** * Version 2.30
   4:.\Generated_Source\PSoC5/UART.c **** *
   5:.\Generated_Source\PSoC5/UART.c **** * Description:
   6:.\Generated_Source\PSoC5/UART.c **** *  This file provides all API functionality of the UART component
   7:.\Generated_Source\PSoC5/UART.c **** *
   8:.\Generated_Source\PSoC5/UART.c **** * Note:
   9:.\Generated_Source\PSoC5/UART.c **** *
  10:.\Generated_Source\PSoC5/UART.c **** ********************************************************************************
  11:.\Generated_Source\PSoC5/UART.c **** * Copyright 2008-2012, Cypress Semiconductor Corporation.  All rights reserved.
  12:.\Generated_Source\PSoC5/UART.c **** * You may use this file only in accordance with the license, terms, conditions,
  13:.\Generated_Source\PSoC5/UART.c **** * disclaimers, and limitations in the end user license agreement accompanying
  14:.\Generated_Source\PSoC5/UART.c **** * the software package with which this file was provided.
  15:.\Generated_Source\PSoC5/UART.c **** *******************************************************************************/
  16:.\Generated_Source\PSoC5/UART.c **** 
  17:.\Generated_Source\PSoC5/UART.c **** #include "UART.h"
  18:.\Generated_Source\PSoC5/UART.c **** #include "CyLib.h"
  19:.\Generated_Source\PSoC5/UART.c **** #if(UART_INTERNAL_CLOCK_USED)
  20:.\Generated_Source\PSoC5/UART.c ****     #include "UART_IntClock.h"
  21:.\Generated_Source\PSoC5/UART.c **** #endif /* End UART_INTERNAL_CLOCK_USED */
  22:.\Generated_Source\PSoC5/UART.c **** 
  23:.\Generated_Source\PSoC5/UART.c **** 
  24:.\Generated_Source\PSoC5/UART.c **** /***************************************
  25:.\Generated_Source\PSoC5/UART.c **** * Global data allocation
ARM GAS  C:\Users\RIEKOH~1\AppData\Local\Temp\cc1ugwpa.s 			page 2


  26:.\Generated_Source\PSoC5/UART.c **** ***************************************/
  27:.\Generated_Source\PSoC5/UART.c **** 
  28:.\Generated_Source\PSoC5/UART.c **** uint8 UART_initVar = 0u;
  29:.\Generated_Source\PSoC5/UART.c **** #if( UART_TX_ENABLED && (UART_TXBUFFERSIZE > UART_FIFO_LENGTH))
  30:.\Generated_Source\PSoC5/UART.c ****     volatile uint8 UART_txBuffer[UART_TXBUFFERSIZE];
  31:.\Generated_Source\PSoC5/UART.c ****     volatile uint8 UART_txBufferRead = 0u;
  32:.\Generated_Source\PSoC5/UART.c ****     uint8 UART_txBufferWrite = 0u;
  33:.\Generated_Source\PSoC5/UART.c **** #endif /* End UART_TX_ENABLED */
  34:.\Generated_Source\PSoC5/UART.c **** #if( ( UART_RX_ENABLED || UART_HD_ENABLED ) && \
  35:.\Generated_Source\PSoC5/UART.c ****      (UART_RXBUFFERSIZE > UART_FIFO_LENGTH) )
  36:.\Generated_Source\PSoC5/UART.c ****     volatile uint8 UART_rxBuffer[UART_RXBUFFERSIZE];
  37:.\Generated_Source\PSoC5/UART.c ****     volatile uint8 UART_rxBufferRead = 0u;
  38:.\Generated_Source\PSoC5/UART.c ****     volatile uint8 UART_rxBufferWrite = 0u;
  39:.\Generated_Source\PSoC5/UART.c ****     volatile uint8 UART_rxBufferLoopDetect = 0u;
  40:.\Generated_Source\PSoC5/UART.c ****     volatile uint8 UART_rxBufferOverflow = 0u;
  41:.\Generated_Source\PSoC5/UART.c ****     #if (UART_RXHW_ADDRESS_ENABLED)
  42:.\Generated_Source\PSoC5/UART.c ****         volatile uint8 UART_rxAddressMode = UART_RXADDRESSMODE;
  43:.\Generated_Source\PSoC5/UART.c ****         volatile uint8 UART_rxAddressDetected = 0u;
  44:.\Generated_Source\PSoC5/UART.c ****     #endif /* End EnableHWAddress */
  45:.\Generated_Source\PSoC5/UART.c **** #endif /* End UART_RX_ENABLED */
  46:.\Generated_Source\PSoC5/UART.c **** 
  47:.\Generated_Source\PSoC5/UART.c **** 
  48:.\Generated_Source\PSoC5/UART.c **** /*******************************************************************************
  49:.\Generated_Source\PSoC5/UART.c **** * Function Name: UART_Start
  50:.\Generated_Source\PSoC5/UART.c **** ********************************************************************************
  51:.\Generated_Source\PSoC5/UART.c **** *
  52:.\Generated_Source\PSoC5/UART.c **** * Summary:
  53:.\Generated_Source\PSoC5/UART.c **** *  Initialize and Enable the UART component.
  54:.\Generated_Source\PSoC5/UART.c **** *  Enable the clock input to enable operation.
  55:.\Generated_Source\PSoC5/UART.c **** *
  56:.\Generated_Source\PSoC5/UART.c **** * Parameters:
  57:.\Generated_Source\PSoC5/UART.c **** *  None.
  58:.\Generated_Source\PSoC5/UART.c **** *
  59:.\Generated_Source\PSoC5/UART.c **** * Return:
  60:.\Generated_Source\PSoC5/UART.c **** *  None.
  61:.\Generated_Source\PSoC5/UART.c **** *
  62:.\Generated_Source\PSoC5/UART.c **** * Global variables:
  63:.\Generated_Source\PSoC5/UART.c **** *  The UART_intiVar variable is used to indicate initial
  64:.\Generated_Source\PSoC5/UART.c **** *  configuration of this component. The variable is initialized to zero (0u)
  65:.\Generated_Source\PSoC5/UART.c **** *  and set to one (1u) the first time UART_Start() is called. This allows for
  66:.\Generated_Source\PSoC5/UART.c **** *  component initialization without re-initialization in all subsequent calls
  67:.\Generated_Source\PSoC5/UART.c **** *  to the UART_Start() routine.
  68:.\Generated_Source\PSoC5/UART.c **** *
  69:.\Generated_Source\PSoC5/UART.c **** * Reentrant:
  70:.\Generated_Source\PSoC5/UART.c **** *  No.
  71:.\Generated_Source\PSoC5/UART.c **** *
  72:.\Generated_Source\PSoC5/UART.c **** *******************************************************************************/
  73:.\Generated_Source\PSoC5/UART.c **** void UART_Start(void) 
  74:.\Generated_Source\PSoC5/UART.c **** {
  33              		.loc 1 74 0
  34              		.cfi_startproc
  35              		@ args = 0, pretend = 0, frame = 0
  36              		@ frame_needed = 1, uses_anonymous_args = 0
  37 0000 80B5     		push	{r7, lr}
  38              	.LCFI0:
  39              		.cfi_def_cfa_offset 8
  40              		.cfi_offset 7, -8
ARM GAS  C:\Users\RIEKOH~1\AppData\Local\Temp\cc1ugwpa.s 			page 3


  41              		.cfi_offset 14, -4
  42 0002 00AF     		add	r7, sp, #0
  43              	.LCFI1:
  44              		.cfi_def_cfa_register 7
  75:.\Generated_Source\PSoC5/UART.c ****     /* If not Initialized then initialize all required hardware and software */
  76:.\Generated_Source\PSoC5/UART.c ****     if(UART_initVar == 0u)
  45              		.loc 1 76 0
  46 0004 40F20003 		movw	r3, #:lower16:UART_initVar
  47 0008 C0F20003 		movt	r3, #:upper16:UART_initVar
  48 000c 1B78     		ldrb	r3, [r3, #0]	@ zero_extendqisi2
  49 000e 002B     		cmp	r3, #0
  50 0010 08D1     		bne	.L2
  77:.\Generated_Source\PSoC5/UART.c ****     {
  78:.\Generated_Source\PSoC5/UART.c ****         UART_Init();
  51              		.loc 1 78 0
  52 0012 FFF7FEFF 		bl	UART_Init
  79:.\Generated_Source\PSoC5/UART.c ****         UART_initVar = 1u;
  53              		.loc 1 79 0
  54 0016 40F20003 		movw	r3, #:lower16:UART_initVar
  55 001a C0F20003 		movt	r3, #:upper16:UART_initVar
  56 001e 4FF00102 		mov	r2, #1
  57 0022 1A70     		strb	r2, [r3, #0]
  58              	.L2:
  80:.\Generated_Source\PSoC5/UART.c ****     }
  81:.\Generated_Source\PSoC5/UART.c ****     UART_Enable();
  59              		.loc 1 81 0
  60 0024 FFF7FEFF 		bl	UART_Enable
  82:.\Generated_Source\PSoC5/UART.c **** }
  61              		.loc 1 82 0
  62 0028 80BD     		pop	{r7, pc}
  63              		.cfi_endproc
  64              	.LFE0:
  65              		.size	UART_Start, .-UART_Start
  66 002a 00BF     		.section	.text.UART_Init,"ax",%progbits
  67              		.align	2
  68              		.global	UART_Init
  69              		.thumb
  70              		.thumb_func
  71              		.type	UART_Init, %function
  72              	UART_Init:
  73              	.LFB1:
  83:.\Generated_Source\PSoC5/UART.c **** 
  84:.\Generated_Source\PSoC5/UART.c **** 
  85:.\Generated_Source\PSoC5/UART.c **** /*******************************************************************************
  86:.\Generated_Source\PSoC5/UART.c **** * Function Name: UART_Init
  87:.\Generated_Source\PSoC5/UART.c **** ********************************************************************************
  88:.\Generated_Source\PSoC5/UART.c **** *
  89:.\Generated_Source\PSoC5/UART.c **** * Summary:
  90:.\Generated_Source\PSoC5/UART.c **** *  Initialize component's parameters to the parameters set by user in the
  91:.\Generated_Source\PSoC5/UART.c **** *  customizer of the component placed onto schematic. Usually called in
  92:.\Generated_Source\PSoC5/UART.c **** *  UART_Start().
  93:.\Generated_Source\PSoC5/UART.c **** *
  94:.\Generated_Source\PSoC5/UART.c **** * Parameters:
  95:.\Generated_Source\PSoC5/UART.c **** *  None.
  96:.\Generated_Source\PSoC5/UART.c **** *
  97:.\Generated_Source\PSoC5/UART.c **** * Return:
  98:.\Generated_Source\PSoC5/UART.c **** *  None.
ARM GAS  C:\Users\RIEKOH~1\AppData\Local\Temp\cc1ugwpa.s 			page 4


  99:.\Generated_Source\PSoC5/UART.c **** *
 100:.\Generated_Source\PSoC5/UART.c **** *******************************************************************************/
 101:.\Generated_Source\PSoC5/UART.c **** void UART_Init(void) 
 102:.\Generated_Source\PSoC5/UART.c **** {
  74              		.loc 1 102 0
  75              		.cfi_startproc
  76              		@ args = 0, pretend = 0, frame = 0
  77              		@ frame_needed = 1, uses_anonymous_args = 0
  78              		@ link register save eliminated.
  79 0000 80B4     		push	{r7}
  80              	.LCFI2:
  81              		.cfi_def_cfa_offset 4
  82              		.cfi_offset 7, -4
  83 0002 00AF     		add	r7, sp, #0
  84              	.LCFI3:
  85              		.cfi_def_cfa_register 7
 103:.\Generated_Source\PSoC5/UART.c ****     #if(UART_RX_ENABLED || UART_HD_ENABLED)
 104:.\Generated_Source\PSoC5/UART.c **** 
 105:.\Generated_Source\PSoC5/UART.c ****         #if(UART_RX_INTERRUPT_ENABLED && (UART_RXBUFFERSIZE > UART_FIFO_LENGTH))
 106:.\Generated_Source\PSoC5/UART.c ****             /* Set the RX Interrupt. */
 107:.\Generated_Source\PSoC5/UART.c ****             (void)CyIntSetVector(UART_RX_VECT_NUM, &UART_RXISR);
 108:.\Generated_Source\PSoC5/UART.c ****             CyIntSetPriority(UART_RX_VECT_NUM, UART_RX_PRIOR_NUM);
 109:.\Generated_Source\PSoC5/UART.c ****         #endif /* End UART_RX_INTERRUPT_ENABLED */
 110:.\Generated_Source\PSoC5/UART.c **** 
 111:.\Generated_Source\PSoC5/UART.c ****         #if (UART_RXHW_ADDRESS_ENABLED)
 112:.\Generated_Source\PSoC5/UART.c ****             UART_SetRxAddressMode(UART_RXAddressMode);
 113:.\Generated_Source\PSoC5/UART.c ****             UART_SetRxAddress1(UART_RXHWADDRESS1);
 114:.\Generated_Source\PSoC5/UART.c ****             UART_SetRxAddress2(UART_RXHWADDRESS2);
 115:.\Generated_Source\PSoC5/UART.c ****         #endif /* End UART_RXHW_ADDRESS_ENABLED */
 116:.\Generated_Source\PSoC5/UART.c **** 
 117:.\Generated_Source\PSoC5/UART.c ****         /* Init Count7 period */
 118:.\Generated_Source\PSoC5/UART.c ****         UART_RXBITCTR_PERIOD_REG = UART_RXBITCTR_INIT;
  86              		.loc 1 118 0
  87 0004 46F28143 		movw	r3, #25729
  88 0008 C4F20003 		movt	r3, 16384
  89 000c 4FF07202 		mov	r2, #114
  90 0010 1A70     		strb	r2, [r3, #0]
 119:.\Generated_Source\PSoC5/UART.c ****         /* Configure the Initial RX interrupt mask */
 120:.\Generated_Source\PSoC5/UART.c ****         UART_RXSTATUS_MASK_REG  = UART_INIT_RX_INTERRUPTS_MASK;
  91              		.loc 1 120 0
  92 0012 4FF4C943 		mov	r3, #25728
  93 0016 C4F20003 		movt	r3, 16384
  94 001a 4FF02002 		mov	r2, #32
  95 001e 1A70     		strb	r2, [r3, #0]
 121:.\Generated_Source\PSoC5/UART.c ****     #endif /* End UART_RX_ENABLED || UART_HD_ENABLED*/
 122:.\Generated_Source\PSoC5/UART.c **** 
 123:.\Generated_Source\PSoC5/UART.c ****     #if(UART_TX_ENABLED)
 124:.\Generated_Source\PSoC5/UART.c ****         #if(UART_TX_INTERRUPT_ENABLED && (UART_TXBUFFERSIZE > UART_FIFO_LENGTH))
 125:.\Generated_Source\PSoC5/UART.c ****             /* Set the TX Interrupt. */
 126:.\Generated_Source\PSoC5/UART.c ****             (void)CyIntSetVector(UART_TX_VECT_NUM, &UART_TXISR);
 127:.\Generated_Source\PSoC5/UART.c ****             CyIntSetPriority(UART_TX_VECT_NUM, UART_TX_PRIOR_NUM);
 128:.\Generated_Source\PSoC5/UART.c ****         #endif /* End UART_TX_INTERRUPT_ENABLED */
 129:.\Generated_Source\PSoC5/UART.c **** 
 130:.\Generated_Source\PSoC5/UART.c ****         /* Write Counter Value for TX Bit Clk Generator*/
 131:.\Generated_Source\PSoC5/UART.c ****         #if(UART_TXCLKGEN_DP)
 132:.\Generated_Source\PSoC5/UART.c ****             UART_TXBITCLKGEN_CTR_REG = UART_BIT_CENTER;
  96              		.loc 1 132 0
ARM GAS  C:\Users\RIEKOH~1\AppData\Local\Temp\cc1ugwpa.s 			page 5


  97 0020 46F22343 		movw	r3, #25635
  98 0024 C4F20003 		movt	r3, 16384
  99 0028 4FF00702 		mov	r2, #7
 100 002c 1A70     		strb	r2, [r3, #0]
 133:.\Generated_Source\PSoC5/UART.c ****             UART_TXBITCLKTX_COMPLETE_REG = (UART_NUMBER_OF_DATA_BITS +
 101              		.loc 1 133 0
 102 002e 46F23343 		movw	r3, #25651
 103 0032 C4F20003 		movt	r3, 16384
 104 0036 4FF04802 		mov	r2, #72
 105 003a 1A70     		strb	r2, [r3, #0]
 134:.\Generated_Source\PSoC5/UART.c ****                         UART_NUMBER_OF_START_BIT) * UART_OVER_SAMPLE_COUNT;
 135:.\Generated_Source\PSoC5/UART.c ****         #else
 136:.\Generated_Source\PSoC5/UART.c ****             UART_TXBITCTR_PERIOD_REG = ((UART_NUMBER_OF_DATA_BITS +
 137:.\Generated_Source\PSoC5/UART.c ****                         UART_NUMBER_OF_START_BIT) * UART_OVER_SAMPLE_8) - 1u;
 138:.\Generated_Source\PSoC5/UART.c ****         #endif /* End UART_TXCLKGEN_DP */
 139:.\Generated_Source\PSoC5/UART.c **** 
 140:.\Generated_Source\PSoC5/UART.c ****         /* Configure the Initial TX interrupt mask */
 141:.\Generated_Source\PSoC5/UART.c ****         #if(UART_TX_INTERRUPT_ENABLED && (UART_TXBUFFERSIZE > UART_FIFO_LENGTH))
 142:.\Generated_Source\PSoC5/UART.c ****             UART_TXSTATUS_MASK_REG = UART_TX_STS_FIFO_EMPTY;
 143:.\Generated_Source\PSoC5/UART.c ****         #else
 144:.\Generated_Source\PSoC5/UART.c ****             UART_TXSTATUS_MASK_REG = UART_INIT_TX_INTERRUPTS_MASK;
 106              		.loc 1 144 0
 107 003c 46F28643 		movw	r3, #25734
 108 0040 C4F20003 		movt	r3, 16384
 109 0044 4FF00002 		mov	r2, #0
 110 0048 1A70     		strb	r2, [r3, #0]
 145:.\Generated_Source\PSoC5/UART.c ****         #endif /*End UART_TX_INTERRUPT_ENABLED*/
 146:.\Generated_Source\PSoC5/UART.c **** 
 147:.\Generated_Source\PSoC5/UART.c ****     #endif /* End UART_TX_ENABLED */
 148:.\Generated_Source\PSoC5/UART.c **** 
 149:.\Generated_Source\PSoC5/UART.c ****     #if(UART_PARITY_TYPE_SW)  /* Write Parity to Control Register */
 150:.\Generated_Source\PSoC5/UART.c ****         UART_WriteControlRegister( \
 151:.\Generated_Source\PSoC5/UART.c ****             (UART_ReadControlRegister() & (uint8)~UART_CTRL_PARITY_TYPE_MASK) | \
 152:.\Generated_Source\PSoC5/UART.c ****             (uint8)(UART_PARITY_TYPE << UART_CTRL_PARITY_TYPE0_SHIFT) );
 153:.\Generated_Source\PSoC5/UART.c ****     #endif /* End UART_PARITY_TYPE_SW */
 154:.\Generated_Source\PSoC5/UART.c **** }
 111              		.loc 1 154 0
 112 004a BD46     		mov	sp, r7
 113 004c 80BC     		pop	{r7}
 114 004e 7047     		bx	lr
 115              		.cfi_endproc
 116              	.LFE1:
 117              		.size	UART_Init, .-UART_Init
 118              		.section	.text.UART_Enable,"ax",%progbits
 119              		.align	2
 120              		.global	UART_Enable
 121              		.thumb
 122              		.thumb_func
 123              		.type	UART_Enable, %function
 124              	UART_Enable:
 125              	.LFB2:
 155:.\Generated_Source\PSoC5/UART.c **** 
 156:.\Generated_Source\PSoC5/UART.c **** 
 157:.\Generated_Source\PSoC5/UART.c **** /*******************************************************************************
 158:.\Generated_Source\PSoC5/UART.c **** * Function Name: UART_Enable
 159:.\Generated_Source\PSoC5/UART.c **** ********************************************************************************
 160:.\Generated_Source\PSoC5/UART.c **** *
ARM GAS  C:\Users\RIEKOH~1\AppData\Local\Temp\cc1ugwpa.s 			page 6


 161:.\Generated_Source\PSoC5/UART.c **** * Summary:
 162:.\Generated_Source\PSoC5/UART.c **** *  Enables the UART block operation
 163:.\Generated_Source\PSoC5/UART.c **** *
 164:.\Generated_Source\PSoC5/UART.c **** * Parameters:
 165:.\Generated_Source\PSoC5/UART.c **** *  None.
 166:.\Generated_Source\PSoC5/UART.c **** *
 167:.\Generated_Source\PSoC5/UART.c **** * Return:
 168:.\Generated_Source\PSoC5/UART.c **** *  None.
 169:.\Generated_Source\PSoC5/UART.c **** *
 170:.\Generated_Source\PSoC5/UART.c **** * Global Variables:
 171:.\Generated_Source\PSoC5/UART.c **** *  UART_rxAddressDetected - set to initial state (0).
 172:.\Generated_Source\PSoC5/UART.c **** *
 173:.\Generated_Source\PSoC5/UART.c **** *******************************************************************************/
 174:.\Generated_Source\PSoC5/UART.c **** void UART_Enable(void) 
 175:.\Generated_Source\PSoC5/UART.c **** {
 126              		.loc 1 175 0
 127              		.cfi_startproc
 128              		@ args = 0, pretend = 0, frame = 8
 129              		@ frame_needed = 1, uses_anonymous_args = 0
 130 0000 80B5     		push	{r7, lr}
 131              	.LCFI4:
 132              		.cfi_def_cfa_offset 8
 133              		.cfi_offset 7, -8
 134              		.cfi_offset 14, -4
 135 0002 82B0     		sub	sp, sp, #8
 136              	.LCFI5:
 137              		.cfi_def_cfa_offset 16
 138 0004 00AF     		add	r7, sp, #0
 139              	.LCFI6:
 140              		.cfi_def_cfa_register 7
 176:.\Generated_Source\PSoC5/UART.c ****     uint8 enableInterrupts;
 177:.\Generated_Source\PSoC5/UART.c ****     enableInterrupts = CyEnterCriticalSection();
 141              		.loc 1 177 0
 142 0006 FFF7FEFF 		bl	CyEnterCriticalSection
 143 000a 0346     		mov	r3, r0
 144 000c FB71     		strb	r3, [r7, #7]
 178:.\Generated_Source\PSoC5/UART.c **** 
 179:.\Generated_Source\PSoC5/UART.c ****     #if(UART_RX_ENABLED || UART_HD_ENABLED)
 180:.\Generated_Source\PSoC5/UART.c ****         /*RX Counter (Count7) Enable */
 181:.\Generated_Source\PSoC5/UART.c ****         UART_RXBITCTR_CONTROL_REG |= UART_CNTR_ENABLE;
 145              		.loc 1 181 0
 146 000e 46F29143 		movw	r3, #25745
 147 0012 C4F20003 		movt	r3, 16384
 148 0016 46F29142 		movw	r2, #25745
 149 001a C4F20002 		movt	r2, 16384
 150 001e 1278     		ldrb	r2, [r2, #0]
 151 0020 D2B2     		uxtb	r2, r2
 152 0022 42F02002 		orr	r2, r2, #32
 153 0026 D2B2     		uxtb	r2, r2
 154 0028 1A70     		strb	r2, [r3, #0]
 182:.\Generated_Source\PSoC5/UART.c ****         /* Enable the RX Interrupt. */
 183:.\Generated_Source\PSoC5/UART.c ****         UART_RXSTATUS_ACTL_REG  |= UART_INT_ENABLE;
 155              		.loc 1 183 0
 156 002a 46F29043 		movw	r3, #25744
 157 002e C4F20003 		movt	r3, 16384
 158 0032 46F29042 		movw	r2, #25744
 159 0036 C4F20002 		movt	r2, 16384
ARM GAS  C:\Users\RIEKOH~1\AppData\Local\Temp\cc1ugwpa.s 			page 7


 160 003a 1278     		ldrb	r2, [r2, #0]
 161 003c D2B2     		uxtb	r2, r2
 162 003e 42F01002 		orr	r2, r2, #16
 163 0042 D2B2     		uxtb	r2, r2
 164 0044 1A70     		strb	r2, [r3, #0]
 184:.\Generated_Source\PSoC5/UART.c ****         #if(UART_RX_INTERRUPT_ENABLED && (UART_RXBUFFERSIZE > UART_FIFO_LENGTH))
 185:.\Generated_Source\PSoC5/UART.c ****             CyIntEnable(UART_RX_VECT_NUM);
 186:.\Generated_Source\PSoC5/UART.c ****             #if (UART_RXHW_ADDRESS_ENABLED)
 187:.\Generated_Source\PSoC5/UART.c ****                 UART_rxAddressDetected = 0u;
 188:.\Generated_Source\PSoC5/UART.c ****             #endif /* End UART_RXHW_ADDRESS_ENABLED */
 189:.\Generated_Source\PSoC5/UART.c ****         #endif /* End UART_RX_INTERRUPT_ENABLED */
 190:.\Generated_Source\PSoC5/UART.c ****     #endif /* End UART_RX_ENABLED || UART_HD_ENABLED*/
 191:.\Generated_Source\PSoC5/UART.c **** 
 192:.\Generated_Source\PSoC5/UART.c ****     #if(UART_TX_ENABLED)
 193:.\Generated_Source\PSoC5/UART.c ****         /*TX Counter (DP/Count7) Enable */
 194:.\Generated_Source\PSoC5/UART.c ****         #if(!UART_TXCLKGEN_DP)
 195:.\Generated_Source\PSoC5/UART.c ****             UART_TXBITCTR_CONTROL_REG |= UART_CNTR_ENABLE;
 196:.\Generated_Source\PSoC5/UART.c ****         #endif /* End UART_TXCLKGEN_DP */
 197:.\Generated_Source\PSoC5/UART.c ****         /* Enable the TX Interrupt. */
 198:.\Generated_Source\PSoC5/UART.c ****         UART_TXSTATUS_ACTL_REG |= UART_INT_ENABLE;
 165              		.loc 1 198 0
 166 0046 46F29643 		movw	r3, #25750
 167 004a C4F20003 		movt	r3, 16384
 168 004e 46F29642 		movw	r2, #25750
 169 0052 C4F20002 		movt	r2, 16384
 170 0056 1278     		ldrb	r2, [r2, #0]
 171 0058 D2B2     		uxtb	r2, r2
 172 005a 42F01002 		orr	r2, r2, #16
 173 005e D2B2     		uxtb	r2, r2
 174 0060 1A70     		strb	r2, [r3, #0]
 199:.\Generated_Source\PSoC5/UART.c ****         #if(UART_TX_INTERRUPT_ENABLED && (UART_TXBUFFERSIZE > UART_FIFO_LENGTH))
 200:.\Generated_Source\PSoC5/UART.c ****             CyIntEnable(UART_TX_VECT_NUM);
 201:.\Generated_Source\PSoC5/UART.c ****         #endif /* End UART_TX_INTERRUPT_ENABLED*/
 202:.\Generated_Source\PSoC5/UART.c ****      #endif /* End UART_TX_ENABLED */
 203:.\Generated_Source\PSoC5/UART.c **** 
 204:.\Generated_Source\PSoC5/UART.c ****     #if(UART_INTERNAL_CLOCK_USED)
 205:.\Generated_Source\PSoC5/UART.c ****         /* Enable the clock. */
 206:.\Generated_Source\PSoC5/UART.c ****         UART_IntClock_Start();
 207:.\Generated_Source\PSoC5/UART.c ****     #endif /* End UART_INTERNAL_CLOCK_USED */
 208:.\Generated_Source\PSoC5/UART.c **** 
 209:.\Generated_Source\PSoC5/UART.c ****     CyExitCriticalSection(enableInterrupts);
 175              		.loc 1 209 0
 176 0062 FB79     		ldrb	r3, [r7, #7]	@ zero_extendqisi2
 177 0064 1846     		mov	r0, r3
 178 0066 FFF7FEFF 		bl	CyExitCriticalSection
 210:.\Generated_Source\PSoC5/UART.c **** }
 179              		.loc 1 210 0
 180 006a 07F10807 		add	r7, r7, #8
 181 006e BD46     		mov	sp, r7
 182 0070 80BD     		pop	{r7, pc}
 183              		.cfi_endproc
 184              	.LFE2:
 185              		.size	UART_Enable, .-UART_Enable
 186 0072 00BF     		.section	.text.UART_Stop,"ax",%progbits
 187              		.align	2
 188              		.global	UART_Stop
 189              		.thumb
ARM GAS  C:\Users\RIEKOH~1\AppData\Local\Temp\cc1ugwpa.s 			page 8


 190              		.thumb_func
 191              		.type	UART_Stop, %function
 192              	UART_Stop:
 193              	.LFB3:
 211:.\Generated_Source\PSoC5/UART.c **** 
 212:.\Generated_Source\PSoC5/UART.c **** 
 213:.\Generated_Source\PSoC5/UART.c **** /*******************************************************************************
 214:.\Generated_Source\PSoC5/UART.c **** * Function Name: UART_Stop
 215:.\Generated_Source\PSoC5/UART.c **** ********************************************************************************
 216:.\Generated_Source\PSoC5/UART.c **** *
 217:.\Generated_Source\PSoC5/UART.c **** * Summary:
 218:.\Generated_Source\PSoC5/UART.c **** *  Disable the UART component
 219:.\Generated_Source\PSoC5/UART.c **** *
 220:.\Generated_Source\PSoC5/UART.c **** * Parameters:
 221:.\Generated_Source\PSoC5/UART.c **** *  None.
 222:.\Generated_Source\PSoC5/UART.c **** *
 223:.\Generated_Source\PSoC5/UART.c **** * Return:
 224:.\Generated_Source\PSoC5/UART.c **** *  None.
 225:.\Generated_Source\PSoC5/UART.c **** *
 226:.\Generated_Source\PSoC5/UART.c **** *******************************************************************************/
 227:.\Generated_Source\PSoC5/UART.c **** void UART_Stop(void) 
 228:.\Generated_Source\PSoC5/UART.c **** {
 194              		.loc 1 228 0
 195              		.cfi_startproc
 196              		@ args = 0, pretend = 0, frame = 8
 197              		@ frame_needed = 1, uses_anonymous_args = 0
 198 0000 80B5     		push	{r7, lr}
 199              	.LCFI7:
 200              		.cfi_def_cfa_offset 8
 201              		.cfi_offset 7, -8
 202              		.cfi_offset 14, -4
 203 0002 82B0     		sub	sp, sp, #8
 204              	.LCFI8:
 205              		.cfi_def_cfa_offset 16
 206 0004 00AF     		add	r7, sp, #0
 207              	.LCFI9:
 208              		.cfi_def_cfa_register 7
 229:.\Generated_Source\PSoC5/UART.c ****     uint8 enableInterrupts;
 230:.\Generated_Source\PSoC5/UART.c ****     enableInterrupts = CyEnterCriticalSection();
 209              		.loc 1 230 0
 210 0006 FFF7FEFF 		bl	CyEnterCriticalSection
 211 000a 0346     		mov	r3, r0
 212 000c FB71     		strb	r3, [r7, #7]
 231:.\Generated_Source\PSoC5/UART.c **** 
 232:.\Generated_Source\PSoC5/UART.c ****     /* Write Bit Counter Disable */
 233:.\Generated_Source\PSoC5/UART.c ****     #if(UART_RX_ENABLED || UART_HD_ENABLED)
 234:.\Generated_Source\PSoC5/UART.c ****         UART_RXBITCTR_CONTROL_REG &= (uint8)~UART_CNTR_ENABLE;
 213              		.loc 1 234 0
 214 000e 46F29143 		movw	r3, #25745
 215 0012 C4F20003 		movt	r3, 16384
 216 0016 46F29142 		movw	r2, #25745
 217 001a C4F20002 		movt	r2, 16384
 218 001e 1278     		ldrb	r2, [r2, #0]
 219 0020 D2B2     		uxtb	r2, r2
 220 0022 22F02002 		bic	r2, r2, #32
 221 0026 D2B2     		uxtb	r2, r2
 222 0028 1A70     		strb	r2, [r3, #0]
ARM GAS  C:\Users\RIEKOH~1\AppData\Local\Temp\cc1ugwpa.s 			page 9


 235:.\Generated_Source\PSoC5/UART.c ****     #endif /* End UART_RX_ENABLED */
 236:.\Generated_Source\PSoC5/UART.c **** 
 237:.\Generated_Source\PSoC5/UART.c ****     #if(UART_TX_ENABLED)
 238:.\Generated_Source\PSoC5/UART.c ****         #if(!UART_TXCLKGEN_DP)
 239:.\Generated_Source\PSoC5/UART.c ****             UART_TXBITCTR_CONTROL_REG &= (uint8)~UART_CNTR_ENABLE;
 240:.\Generated_Source\PSoC5/UART.c ****         #endif /* End UART_TXCLKGEN_DP */
 241:.\Generated_Source\PSoC5/UART.c ****     #endif /* UART_TX_ENABLED */
 242:.\Generated_Source\PSoC5/UART.c **** 
 243:.\Generated_Source\PSoC5/UART.c ****     #if(UART_INTERNAL_CLOCK_USED)
 244:.\Generated_Source\PSoC5/UART.c ****         /* Disable the clock. */
 245:.\Generated_Source\PSoC5/UART.c ****         UART_IntClock_Stop();
 246:.\Generated_Source\PSoC5/UART.c ****     #endif /* End UART_INTERNAL_CLOCK_USED */
 247:.\Generated_Source\PSoC5/UART.c **** 
 248:.\Generated_Source\PSoC5/UART.c ****     /* Disable internal interrupt component */
 249:.\Generated_Source\PSoC5/UART.c ****     #if(UART_RX_ENABLED || UART_HD_ENABLED)
 250:.\Generated_Source\PSoC5/UART.c ****         UART_RXSTATUS_ACTL_REG  &= (uint8)~UART_INT_ENABLE;
 223              		.loc 1 250 0
 224 002a 46F29043 		movw	r3, #25744
 225 002e C4F20003 		movt	r3, 16384
 226 0032 46F29042 		movw	r2, #25744
 227 0036 C4F20002 		movt	r2, 16384
 228 003a 1278     		ldrb	r2, [r2, #0]
 229 003c D2B2     		uxtb	r2, r2
 230 003e 22F01002 		bic	r2, r2, #16
 231 0042 D2B2     		uxtb	r2, r2
 232 0044 1A70     		strb	r2, [r3, #0]
 251:.\Generated_Source\PSoC5/UART.c ****         #if(UART_RX_INTERRUPT_ENABLED && (UART_RXBUFFERSIZE > UART_FIFO_LENGTH))
 252:.\Generated_Source\PSoC5/UART.c ****             UART_DisableRxInt();
 253:.\Generated_Source\PSoC5/UART.c ****         #endif /* End UART_RX_INTERRUPT_ENABLED */
 254:.\Generated_Source\PSoC5/UART.c ****     #endif /* End UART_RX_ENABLED */
 255:.\Generated_Source\PSoC5/UART.c **** 
 256:.\Generated_Source\PSoC5/UART.c ****     #if(UART_TX_ENABLED)
 257:.\Generated_Source\PSoC5/UART.c ****         UART_TXSTATUS_ACTL_REG &= (uint8)~UART_INT_ENABLE;
 233              		.loc 1 257 0
 234 0046 46F29643 		movw	r3, #25750
 235 004a C4F20003 		movt	r3, 16384
 236 004e 46F29642 		movw	r2, #25750
 237 0052 C4F20002 		movt	r2, 16384
 238 0056 1278     		ldrb	r2, [r2, #0]
 239 0058 D2B2     		uxtb	r2, r2
 240 005a 22F01002 		bic	r2, r2, #16
 241 005e D2B2     		uxtb	r2, r2
 242 0060 1A70     		strb	r2, [r3, #0]
 258:.\Generated_Source\PSoC5/UART.c ****         #if(UART_TX_INTERRUPT_ENABLED && (UART_TXBUFFERSIZE > UART_FIFO_LENGTH))
 259:.\Generated_Source\PSoC5/UART.c ****             UART_DisableTxInt();
 260:.\Generated_Source\PSoC5/UART.c ****         #endif /* End UART_TX_INTERRUPT_ENABLED */
 261:.\Generated_Source\PSoC5/UART.c ****     #endif /* End UART_TX_ENABLED */
 262:.\Generated_Source\PSoC5/UART.c **** 
 263:.\Generated_Source\PSoC5/UART.c ****     CyExitCriticalSection(enableInterrupts);
 243              		.loc 1 263 0
 244 0062 FB79     		ldrb	r3, [r7, #7]	@ zero_extendqisi2
 245 0064 1846     		mov	r0, r3
 246 0066 FFF7FEFF 		bl	CyExitCriticalSection
 264:.\Generated_Source\PSoC5/UART.c **** }
 247              		.loc 1 264 0
 248 006a 07F10807 		add	r7, r7, #8
 249 006e BD46     		mov	sp, r7
ARM GAS  C:\Users\RIEKOH~1\AppData\Local\Temp\cc1ugwpa.s 			page 10


 250 0070 80BD     		pop	{r7, pc}
 251              		.cfi_endproc
 252              	.LFE3:
 253              		.size	UART_Stop, .-UART_Stop
 254 0072 00BF     		.section	.text.UART_ReadControlRegister,"ax",%progbits
 255              		.align	2
 256              		.global	UART_ReadControlRegister
 257              		.thumb
 258              		.thumb_func
 259              		.type	UART_ReadControlRegister, %function
 260              	UART_ReadControlRegister:
 261              	.LFB4:
 265:.\Generated_Source\PSoC5/UART.c **** 
 266:.\Generated_Source\PSoC5/UART.c **** 
 267:.\Generated_Source\PSoC5/UART.c **** /*******************************************************************************
 268:.\Generated_Source\PSoC5/UART.c **** * Function Name: UART_ReadControlRegister
 269:.\Generated_Source\PSoC5/UART.c **** ********************************************************************************
 270:.\Generated_Source\PSoC5/UART.c **** *
 271:.\Generated_Source\PSoC5/UART.c **** * Summary:
 272:.\Generated_Source\PSoC5/UART.c **** *  Read the current state of the control register
 273:.\Generated_Source\PSoC5/UART.c **** *
 274:.\Generated_Source\PSoC5/UART.c **** * Parameters:
 275:.\Generated_Source\PSoC5/UART.c **** *  None.
 276:.\Generated_Source\PSoC5/UART.c **** *
 277:.\Generated_Source\PSoC5/UART.c **** * Return:
 278:.\Generated_Source\PSoC5/UART.c **** *  Current state of the control register.
 279:.\Generated_Source\PSoC5/UART.c **** *
 280:.\Generated_Source\PSoC5/UART.c **** *******************************************************************************/
 281:.\Generated_Source\PSoC5/UART.c **** uint8 UART_ReadControlRegister(void) 
 282:.\Generated_Source\PSoC5/UART.c **** {
 262              		.loc 1 282 0
 263              		.cfi_startproc
 264              		@ args = 0, pretend = 0, frame = 0
 265              		@ frame_needed = 1, uses_anonymous_args = 0
 266              		@ link register save eliminated.
 267 0000 80B4     		push	{r7}
 268              	.LCFI10:
 269              		.cfi_def_cfa_offset 4
 270              		.cfi_offset 7, -4
 271 0002 00AF     		add	r7, sp, #0
 272              	.LCFI11:
 273              		.cfi_def_cfa_register 7
 283:.\Generated_Source\PSoC5/UART.c ****     #if( UART_CONTROL_REG_REMOVED )
 284:.\Generated_Source\PSoC5/UART.c ****         return(0u);
 274              		.loc 1 284 0
 275 0004 4FF00003 		mov	r3, #0
 285:.\Generated_Source\PSoC5/UART.c ****     #else
 286:.\Generated_Source\PSoC5/UART.c ****         return(UART_CONTROL_REG);
 287:.\Generated_Source\PSoC5/UART.c ****     #endif /* End UART_CONTROL_REG_REMOVED */
 288:.\Generated_Source\PSoC5/UART.c **** }
 276              		.loc 1 288 0
 277 0008 1846     		mov	r0, r3
 278 000a BD46     		mov	sp, r7
 279 000c 80BC     		pop	{r7}
 280 000e 7047     		bx	lr
 281              		.cfi_endproc
 282              	.LFE4:
ARM GAS  C:\Users\RIEKOH~1\AppData\Local\Temp\cc1ugwpa.s 			page 11


 283              		.size	UART_ReadControlRegister, .-UART_ReadControlRegister
 284              		.section	.text.UART_WriteControlRegister,"ax",%progbits
 285              		.align	2
 286              		.global	UART_WriteControlRegister
 287              		.thumb
 288              		.thumb_func
 289              		.type	UART_WriteControlRegister, %function
 290              	UART_WriteControlRegister:
 291              	.LFB5:
 289:.\Generated_Source\PSoC5/UART.c **** 
 290:.\Generated_Source\PSoC5/UART.c **** 
 291:.\Generated_Source\PSoC5/UART.c **** /*******************************************************************************
 292:.\Generated_Source\PSoC5/UART.c **** * Function Name: UART_WriteControlRegister
 293:.\Generated_Source\PSoC5/UART.c **** ********************************************************************************
 294:.\Generated_Source\PSoC5/UART.c **** *
 295:.\Generated_Source\PSoC5/UART.c **** * Summary:
 296:.\Generated_Source\PSoC5/UART.c **** *  Writes an 8-bit value into the control register
 297:.\Generated_Source\PSoC5/UART.c **** *
 298:.\Generated_Source\PSoC5/UART.c **** * Parameters:
 299:.\Generated_Source\PSoC5/UART.c **** *  control:  control register value
 300:.\Generated_Source\PSoC5/UART.c **** *
 301:.\Generated_Source\PSoC5/UART.c **** * Return:
 302:.\Generated_Source\PSoC5/UART.c **** *  None.
 303:.\Generated_Source\PSoC5/UART.c **** *
 304:.\Generated_Source\PSoC5/UART.c **** *******************************************************************************/
 305:.\Generated_Source\PSoC5/UART.c **** void  UART_WriteControlRegister(uint8 control) 
 306:.\Generated_Source\PSoC5/UART.c **** {
 292              		.loc 1 306 0
 293              		.cfi_startproc
 294              		@ args = 0, pretend = 0, frame = 8
 295              		@ frame_needed = 1, uses_anonymous_args = 0
 296              		@ link register save eliminated.
 297 0000 80B4     		push	{r7}
 298              	.LCFI12:
 299              		.cfi_def_cfa_offset 4
 300              		.cfi_offset 7, -4
 301 0002 83B0     		sub	sp, sp, #12
 302              	.LCFI13:
 303              		.cfi_def_cfa_offset 16
 304 0004 00AF     		add	r7, sp, #0
 305              	.LCFI14:
 306              		.cfi_def_cfa_register 7
 307 0006 0346     		mov	r3, r0
 308 0008 FB71     		strb	r3, [r7, #7]
 307:.\Generated_Source\PSoC5/UART.c ****     #if( UART_CONTROL_REG_REMOVED )
 308:.\Generated_Source\PSoC5/UART.c ****         if(control != 0u) { }      /* release compiler warning */
 309:.\Generated_Source\PSoC5/UART.c ****     #else
 310:.\Generated_Source\PSoC5/UART.c ****        UART_CONTROL_REG = control;
 311:.\Generated_Source\PSoC5/UART.c ****     #endif /* End UART_CONTROL_REG_REMOVED */
 312:.\Generated_Source\PSoC5/UART.c **** }
 309              		.loc 1 312 0
 310 000a 07F10C07 		add	r7, r7, #12
 311 000e BD46     		mov	sp, r7
 312 0010 80BC     		pop	{r7}
 313 0012 7047     		bx	lr
 314              		.cfi_endproc
 315              	.LFE5:
ARM GAS  C:\Users\RIEKOH~1\AppData\Local\Temp\cc1ugwpa.s 			page 12


 316              		.size	UART_WriteControlRegister, .-UART_WriteControlRegister
 317              		.section	.text.UART_SetRxInterruptMode,"ax",%progbits
 318              		.align	2
 319              		.global	UART_SetRxInterruptMode
 320              		.thumb
 321              		.thumb_func
 322              		.type	UART_SetRxInterruptMode, %function
 323              	UART_SetRxInterruptMode:
 324              	.LFB6:
 313:.\Generated_Source\PSoC5/UART.c **** 
 314:.\Generated_Source\PSoC5/UART.c **** 
 315:.\Generated_Source\PSoC5/UART.c **** #if(UART_RX_ENABLED || UART_HD_ENABLED)
 316:.\Generated_Source\PSoC5/UART.c **** 
 317:.\Generated_Source\PSoC5/UART.c ****     #if(UART_RX_INTERRUPT_ENABLED)
 318:.\Generated_Source\PSoC5/UART.c **** 
 319:.\Generated_Source\PSoC5/UART.c ****         /*******************************************************************************
 320:.\Generated_Source\PSoC5/UART.c ****         * Function Name: UART_EnableRxInt
 321:.\Generated_Source\PSoC5/UART.c ****         ********************************************************************************
 322:.\Generated_Source\PSoC5/UART.c ****         *
 323:.\Generated_Source\PSoC5/UART.c ****         * Summary:
 324:.\Generated_Source\PSoC5/UART.c ****         *  Enable RX interrupt generation
 325:.\Generated_Source\PSoC5/UART.c ****         *
 326:.\Generated_Source\PSoC5/UART.c ****         * Parameters:
 327:.\Generated_Source\PSoC5/UART.c ****         *  None.
 328:.\Generated_Source\PSoC5/UART.c ****         *
 329:.\Generated_Source\PSoC5/UART.c ****         * Return:
 330:.\Generated_Source\PSoC5/UART.c ****         *  None.
 331:.\Generated_Source\PSoC5/UART.c ****         *
 332:.\Generated_Source\PSoC5/UART.c ****         * Theory:
 333:.\Generated_Source\PSoC5/UART.c ****         *  Enable the interrupt output -or- the interrupt component itself
 334:.\Generated_Source\PSoC5/UART.c ****         *
 335:.\Generated_Source\PSoC5/UART.c ****         *******************************************************************************/
 336:.\Generated_Source\PSoC5/UART.c ****         void UART_EnableRxInt(void) 
 337:.\Generated_Source\PSoC5/UART.c ****         {
 338:.\Generated_Source\PSoC5/UART.c ****             CyIntEnable(UART_RX_VECT_NUM);
 339:.\Generated_Source\PSoC5/UART.c ****         }
 340:.\Generated_Source\PSoC5/UART.c **** 
 341:.\Generated_Source\PSoC5/UART.c **** 
 342:.\Generated_Source\PSoC5/UART.c ****         /*******************************************************************************
 343:.\Generated_Source\PSoC5/UART.c ****         * Function Name: UART_DisableRxInt
 344:.\Generated_Source\PSoC5/UART.c ****         ********************************************************************************
 345:.\Generated_Source\PSoC5/UART.c ****         *
 346:.\Generated_Source\PSoC5/UART.c ****         * Summary:
 347:.\Generated_Source\PSoC5/UART.c ****         *  Disable RX interrupt generation
 348:.\Generated_Source\PSoC5/UART.c ****         *
 349:.\Generated_Source\PSoC5/UART.c ****         * Parameters:
 350:.\Generated_Source\PSoC5/UART.c ****         *  None.
 351:.\Generated_Source\PSoC5/UART.c ****         *
 352:.\Generated_Source\PSoC5/UART.c ****         * Return:
 353:.\Generated_Source\PSoC5/UART.c ****         *  None.
 354:.\Generated_Source\PSoC5/UART.c ****         *
 355:.\Generated_Source\PSoC5/UART.c ****         * Theory:
 356:.\Generated_Source\PSoC5/UART.c ****         *  Disable the interrupt output -or- the interrupt component itself
 357:.\Generated_Source\PSoC5/UART.c ****         *
 358:.\Generated_Source\PSoC5/UART.c ****         *******************************************************************************/
 359:.\Generated_Source\PSoC5/UART.c ****         void UART_DisableRxInt(void) 
 360:.\Generated_Source\PSoC5/UART.c ****         {
ARM GAS  C:\Users\RIEKOH~1\AppData\Local\Temp\cc1ugwpa.s 			page 13


 361:.\Generated_Source\PSoC5/UART.c ****             CyIntDisable(UART_RX_VECT_NUM);
 362:.\Generated_Source\PSoC5/UART.c ****         }
 363:.\Generated_Source\PSoC5/UART.c **** 
 364:.\Generated_Source\PSoC5/UART.c ****     #endif /* UART_RX_INTERRUPT_ENABLED */
 365:.\Generated_Source\PSoC5/UART.c **** 
 366:.\Generated_Source\PSoC5/UART.c **** 
 367:.\Generated_Source\PSoC5/UART.c ****     /*******************************************************************************
 368:.\Generated_Source\PSoC5/UART.c ****     * Function Name: UART_SetRxInterruptMode
 369:.\Generated_Source\PSoC5/UART.c ****     ********************************************************************************
 370:.\Generated_Source\PSoC5/UART.c ****     *
 371:.\Generated_Source\PSoC5/UART.c ****     * Summary:
 372:.\Generated_Source\PSoC5/UART.c ****     *  Configure which status bits trigger an interrupt event
 373:.\Generated_Source\PSoC5/UART.c ****     *
 374:.\Generated_Source\PSoC5/UART.c ****     * Parameters:
 375:.\Generated_Source\PSoC5/UART.c ****     *  IntSrc:  An or'd combination of the desired status bit masks (defined in
 376:.\Generated_Source\PSoC5/UART.c ****     *           the header file)
 377:.\Generated_Source\PSoC5/UART.c ****     *
 378:.\Generated_Source\PSoC5/UART.c ****     * Return:
 379:.\Generated_Source\PSoC5/UART.c ****     *  None.
 380:.\Generated_Source\PSoC5/UART.c ****     *
 381:.\Generated_Source\PSoC5/UART.c ****     * Theory:
 382:.\Generated_Source\PSoC5/UART.c ****     *  Enables the output of specific status bits to the interrupt controller
 383:.\Generated_Source\PSoC5/UART.c ****     *
 384:.\Generated_Source\PSoC5/UART.c ****     *******************************************************************************/
 385:.\Generated_Source\PSoC5/UART.c ****     void UART_SetRxInterruptMode(uint8 intSrc) 
 386:.\Generated_Source\PSoC5/UART.c ****     {
 325              		.loc 1 386 0
 326              		.cfi_startproc
 327              		@ args = 0, pretend = 0, frame = 8
 328              		@ frame_needed = 1, uses_anonymous_args = 0
 329              		@ link register save eliminated.
 330 0000 80B4     		push	{r7}
 331              	.LCFI15:
 332              		.cfi_def_cfa_offset 4
 333              		.cfi_offset 7, -4
 334 0002 83B0     		sub	sp, sp, #12
 335              	.LCFI16:
 336              		.cfi_def_cfa_offset 16
 337 0004 00AF     		add	r7, sp, #0
 338              	.LCFI17:
 339              		.cfi_def_cfa_register 7
 340 0006 0346     		mov	r3, r0
 341 0008 FB71     		strb	r3, [r7, #7]
 387:.\Generated_Source\PSoC5/UART.c ****         UART_RXSTATUS_MASK_REG  = intSrc;
 342              		.loc 1 387 0
 343 000a 4FF4C943 		mov	r3, #25728
 344 000e C4F20003 		movt	r3, 16384
 345 0012 FA79     		ldrb	r2, [r7, #7]
 346 0014 1A70     		strb	r2, [r3, #0]
 388:.\Generated_Source\PSoC5/UART.c ****     }
 347              		.loc 1 388 0
 348 0016 07F10C07 		add	r7, r7, #12
 349 001a BD46     		mov	sp, r7
 350 001c 80BC     		pop	{r7}
 351 001e 7047     		bx	lr
 352              		.cfi_endproc
 353              	.LFE6:
ARM GAS  C:\Users\RIEKOH~1\AppData\Local\Temp\cc1ugwpa.s 			page 14


 354              		.size	UART_SetRxInterruptMode, .-UART_SetRxInterruptMode
 355              		.section	.text.UART_ReadRxData,"ax",%progbits
 356              		.align	2
 357              		.global	UART_ReadRxData
 358              		.thumb
 359              		.thumb_func
 360              		.type	UART_ReadRxData, %function
 361              	UART_ReadRxData:
 362              	.LFB7:
 389:.\Generated_Source\PSoC5/UART.c **** 
 390:.\Generated_Source\PSoC5/UART.c **** 
 391:.\Generated_Source\PSoC5/UART.c ****     /*******************************************************************************
 392:.\Generated_Source\PSoC5/UART.c ****     * Function Name: UART_ReadRxData
 393:.\Generated_Source\PSoC5/UART.c ****     ********************************************************************************
 394:.\Generated_Source\PSoC5/UART.c ****     *
 395:.\Generated_Source\PSoC5/UART.c ****     * Summary:
 396:.\Generated_Source\PSoC5/UART.c ****     *  Returns data in RX Data register without checking status register to
 397:.\Generated_Source\PSoC5/UART.c ****     *  determine if data is valid
 398:.\Generated_Source\PSoC5/UART.c ****     *
 399:.\Generated_Source\PSoC5/UART.c ****     * Parameters:
 400:.\Generated_Source\PSoC5/UART.c ****     *  None.
 401:.\Generated_Source\PSoC5/UART.c ****     *
 402:.\Generated_Source\PSoC5/UART.c ****     * Return:
 403:.\Generated_Source\PSoC5/UART.c ****     *  Received data from RX register
 404:.\Generated_Source\PSoC5/UART.c ****     *
 405:.\Generated_Source\PSoC5/UART.c ****     * Global Variables:
 406:.\Generated_Source\PSoC5/UART.c ****     *  UART_rxBuffer - RAM buffer pointer for save received data.
 407:.\Generated_Source\PSoC5/UART.c ****     *  UART_rxBufferWrite - cyclic index for write to rxBuffer,
 408:.\Generated_Source\PSoC5/UART.c ****     *     checked to identify new data.
 409:.\Generated_Source\PSoC5/UART.c ****     *  UART_rxBufferRead - cyclic index for read from rxBuffer,
 410:.\Generated_Source\PSoC5/UART.c ****     *     incremented after each byte has been read from buffer.
 411:.\Generated_Source\PSoC5/UART.c ****     *  UART_rxBufferLoopDetect - creared if loop condition was detected
 412:.\Generated_Source\PSoC5/UART.c ****     *     in RX ISR.
 413:.\Generated_Source\PSoC5/UART.c ****     *
 414:.\Generated_Source\PSoC5/UART.c ****     * Reentrant:
 415:.\Generated_Source\PSoC5/UART.c ****     *  No.
 416:.\Generated_Source\PSoC5/UART.c ****     *
 417:.\Generated_Source\PSoC5/UART.c ****     *******************************************************************************/
 418:.\Generated_Source\PSoC5/UART.c ****     uint8 UART_ReadRxData(void) 
 419:.\Generated_Source\PSoC5/UART.c ****     {
 363              		.loc 1 419 0
 364              		.cfi_startproc
 365              		@ args = 0, pretend = 0, frame = 8
 366              		@ frame_needed = 1, uses_anonymous_args = 0
 367              		@ link register save eliminated.
 368 0000 80B4     		push	{r7}
 369              	.LCFI18:
 370              		.cfi_def_cfa_offset 4
 371              		.cfi_offset 7, -4
 372 0002 83B0     		sub	sp, sp, #12
 373              	.LCFI19:
 374              		.cfi_def_cfa_offset 16
 375 0004 00AF     		add	r7, sp, #0
 376              	.LCFI20:
 377              		.cfi_def_cfa_register 7
 420:.\Generated_Source\PSoC5/UART.c ****         uint8 rxData;
 421:.\Generated_Source\PSoC5/UART.c **** 
ARM GAS  C:\Users\RIEKOH~1\AppData\Local\Temp\cc1ugwpa.s 			page 15


 422:.\Generated_Source\PSoC5/UART.c ****         #if(UART_RXBUFFERSIZE > UART_FIFO_LENGTH)
 423:.\Generated_Source\PSoC5/UART.c ****             uint8 loc_rxBufferRead;
 424:.\Generated_Source\PSoC5/UART.c ****             uint8 loc_rxBufferWrite;
 425:.\Generated_Source\PSoC5/UART.c ****             /* Protect variables that could change on interrupt. */
 426:.\Generated_Source\PSoC5/UART.c ****             /* Disable Rx interrupt. */
 427:.\Generated_Source\PSoC5/UART.c ****             #if(UART_RX_INTERRUPT_ENABLED)
 428:.\Generated_Source\PSoC5/UART.c ****                 UART_DisableRxInt();
 429:.\Generated_Source\PSoC5/UART.c ****             #endif /* UART_RX_INTERRUPT_ENABLED */
 430:.\Generated_Source\PSoC5/UART.c ****             loc_rxBufferRead = UART_rxBufferRead;
 431:.\Generated_Source\PSoC5/UART.c ****             loc_rxBufferWrite = UART_rxBufferWrite;
 432:.\Generated_Source\PSoC5/UART.c **** 
 433:.\Generated_Source\PSoC5/UART.c ****             if( (UART_rxBufferLoopDetect != 0u) || (loc_rxBufferRead != loc_rxBufferWrite) )
 434:.\Generated_Source\PSoC5/UART.c ****             {
 435:.\Generated_Source\PSoC5/UART.c ****                 rxData = UART_rxBuffer[loc_rxBufferRead];
 436:.\Generated_Source\PSoC5/UART.c ****                 loc_rxBufferRead++;
 437:.\Generated_Source\PSoC5/UART.c **** 
 438:.\Generated_Source\PSoC5/UART.c ****                 if(loc_rxBufferRead >= UART_RXBUFFERSIZE)
 439:.\Generated_Source\PSoC5/UART.c ****                 {
 440:.\Generated_Source\PSoC5/UART.c ****                     loc_rxBufferRead = 0u;
 441:.\Generated_Source\PSoC5/UART.c ****                 }
 442:.\Generated_Source\PSoC5/UART.c ****                 /* Update the real pointer */
 443:.\Generated_Source\PSoC5/UART.c ****                 UART_rxBufferRead = loc_rxBufferRead;
 444:.\Generated_Source\PSoC5/UART.c **** 
 445:.\Generated_Source\PSoC5/UART.c ****                 if(UART_rxBufferLoopDetect != 0u )
 446:.\Generated_Source\PSoC5/UART.c ****                 {
 447:.\Generated_Source\PSoC5/UART.c ****                     UART_rxBufferLoopDetect = 0u;
 448:.\Generated_Source\PSoC5/UART.c ****                     #if( (UART_RX_INTERRUPT_ENABLED) && (UART_FLOW_CONTROL != 0u) && \
 449:.\Generated_Source\PSoC5/UART.c ****                          (UART_RXBUFFERSIZE > UART_FIFO_LENGTH) )
 450:.\Generated_Source\PSoC5/UART.c ****                         /* When Hardware Flow Control selected - return RX mask */
 451:.\Generated_Source\PSoC5/UART.c ****                         #if( UART_HD_ENABLED )
 452:.\Generated_Source\PSoC5/UART.c ****                             if((UART_CONTROL_REG & UART_CTRL_HD_SEND) == 0u)
 453:.\Generated_Source\PSoC5/UART.c ****                             {   /* In Half duplex mode return RX mask only in RX
 454:.\Generated_Source\PSoC5/UART.c ****                                 *  configuration set, otherwise
 455:.\Generated_Source\PSoC5/UART.c ****                                 *  mask will be returned in LoadRxConfig() API.
 456:.\Generated_Source\PSoC5/UART.c ****                                 */
 457:.\Generated_Source\PSoC5/UART.c ****                                 UART_RXSTATUS_MASK_REG  |= UART_RX_STS_FIFO_NOTEMPTY;
 458:.\Generated_Source\PSoC5/UART.c ****                             }
 459:.\Generated_Source\PSoC5/UART.c ****                         #else
 460:.\Generated_Source\PSoC5/UART.c ****                             UART_RXSTATUS_MASK_REG  |= UART_RX_STS_FIFO_NOTEMPTY;
 461:.\Generated_Source\PSoC5/UART.c ****                         #endif /* end UART_HD_ENABLED */
 462:.\Generated_Source\PSoC5/UART.c ****                     #endif /* UART_RX_INTERRUPT_ENABLED and Hardware flow control*/
 463:.\Generated_Source\PSoC5/UART.c ****                 }
 464:.\Generated_Source\PSoC5/UART.c ****             }
 465:.\Generated_Source\PSoC5/UART.c ****             else
 466:.\Generated_Source\PSoC5/UART.c ****             {   /* Needs to check status for RX_STS_FIFO_NOTEMPTY bit*/
 467:.\Generated_Source\PSoC5/UART.c ****                 rxData = UART_RXDATA_REG;
 468:.\Generated_Source\PSoC5/UART.c ****             }
 469:.\Generated_Source\PSoC5/UART.c **** 
 470:.\Generated_Source\PSoC5/UART.c ****             /* Enable Rx interrupt. */
 471:.\Generated_Source\PSoC5/UART.c ****             #if(UART_RX_INTERRUPT_ENABLED)
 472:.\Generated_Source\PSoC5/UART.c ****                 UART_EnableRxInt();
 473:.\Generated_Source\PSoC5/UART.c ****             #endif /* End UART_RX_INTERRUPT_ENABLED */
 474:.\Generated_Source\PSoC5/UART.c **** 
 475:.\Generated_Source\PSoC5/UART.c ****         #else /* UART_RXBUFFERSIZE > UART_FIFO_LENGTH */
 476:.\Generated_Source\PSoC5/UART.c **** 
 477:.\Generated_Source\PSoC5/UART.c ****             /* Needs to check status for RX_STS_FIFO_NOTEMPTY bit*/
 478:.\Generated_Source\PSoC5/UART.c ****             rxData = UART_RXDATA_REG;
ARM GAS  C:\Users\RIEKOH~1\AppData\Local\Temp\cc1ugwpa.s 			page 16


 378              		.loc 1 478 0
 379 0006 46F24143 		movw	r3, #25665
 380 000a C4F20003 		movt	r3, 16384
 381 000e 1B78     		ldrb	r3, [r3, #0]
 382 0010 FB71     		strb	r3, [r7, #7]
 479:.\Generated_Source\PSoC5/UART.c **** 
 480:.\Generated_Source\PSoC5/UART.c ****         #endif /* UART_RXBUFFERSIZE > UART_FIFO_LENGTH */
 481:.\Generated_Source\PSoC5/UART.c **** 
 482:.\Generated_Source\PSoC5/UART.c ****         return(rxData);
 383              		.loc 1 482 0
 384 0012 FB79     		ldrb	r3, [r7, #7]	@ zero_extendqisi2
 483:.\Generated_Source\PSoC5/UART.c ****     }
 385              		.loc 1 483 0
 386 0014 1846     		mov	r0, r3
 387 0016 07F10C07 		add	r7, r7, #12
 388 001a BD46     		mov	sp, r7
 389 001c 80BC     		pop	{r7}
 390 001e 7047     		bx	lr
 391              		.cfi_endproc
 392              	.LFE7:
 393              		.size	UART_ReadRxData, .-UART_ReadRxData
 394              		.section	.text.UART_ReadRxStatus,"ax",%progbits
 395              		.align	2
 396              		.global	UART_ReadRxStatus
 397              		.thumb
 398              		.thumb_func
 399              		.type	UART_ReadRxStatus, %function
 400              	UART_ReadRxStatus:
 401              	.LFB8:
 484:.\Generated_Source\PSoC5/UART.c **** 
 485:.\Generated_Source\PSoC5/UART.c **** 
 486:.\Generated_Source\PSoC5/UART.c ****     /*******************************************************************************
 487:.\Generated_Source\PSoC5/UART.c ****     * Function Name: UART_ReadRxStatus
 488:.\Generated_Source\PSoC5/UART.c ****     ********************************************************************************
 489:.\Generated_Source\PSoC5/UART.c ****     *
 490:.\Generated_Source\PSoC5/UART.c ****     * Summary:
 491:.\Generated_Source\PSoC5/UART.c ****     *  Read the current state of the status register
 492:.\Generated_Source\PSoC5/UART.c ****     *  And detect software buffer overflow.
 493:.\Generated_Source\PSoC5/UART.c ****     *
 494:.\Generated_Source\PSoC5/UART.c ****     * Parameters:
 495:.\Generated_Source\PSoC5/UART.c ****     *  None.
 496:.\Generated_Source\PSoC5/UART.c ****     *
 497:.\Generated_Source\PSoC5/UART.c ****     * Return:
 498:.\Generated_Source\PSoC5/UART.c ****     *  Current state of the status register.
 499:.\Generated_Source\PSoC5/UART.c ****     *
 500:.\Generated_Source\PSoC5/UART.c ****     * Global Variables:
 501:.\Generated_Source\PSoC5/UART.c ****     *  UART_rxBufferOverflow - used to indicate overload condition.
 502:.\Generated_Source\PSoC5/UART.c ****     *   It set to one in RX interrupt when there isn?t free space in
 503:.\Generated_Source\PSoC5/UART.c ****     *   UART_rxBufferRead to write new data. This condition returned
 504:.\Generated_Source\PSoC5/UART.c ****     *   and cleared to zero by this API as an
 505:.\Generated_Source\PSoC5/UART.c ****     *   UART_RX_STS_SOFT_BUFF_OVER bit along with RX Status register
 506:.\Generated_Source\PSoC5/UART.c ****     *   bits.
 507:.\Generated_Source\PSoC5/UART.c ****     *
 508:.\Generated_Source\PSoC5/UART.c ****     *******************************************************************************/
 509:.\Generated_Source\PSoC5/UART.c ****     uint8 UART_ReadRxStatus(void) 
 510:.\Generated_Source\PSoC5/UART.c ****     {
 402              		.loc 1 510 0
ARM GAS  C:\Users\RIEKOH~1\AppData\Local\Temp\cc1ugwpa.s 			page 17


 403              		.cfi_startproc
 404              		@ args = 0, pretend = 0, frame = 8
 405              		@ frame_needed = 1, uses_anonymous_args = 0
 406              		@ link register save eliminated.
 407 0000 80B4     		push	{r7}
 408              	.LCFI21:
 409              		.cfi_def_cfa_offset 4
 410              		.cfi_offset 7, -4
 411 0002 83B0     		sub	sp, sp, #12
 412              	.LCFI22:
 413              		.cfi_def_cfa_offset 16
 414 0004 00AF     		add	r7, sp, #0
 415              	.LCFI23:
 416              		.cfi_def_cfa_register 7
 511:.\Generated_Source\PSoC5/UART.c ****         uint8 status;
 512:.\Generated_Source\PSoC5/UART.c **** 
 513:.\Generated_Source\PSoC5/UART.c ****         status = UART_RXSTATUS_REG & UART_RX_HW_MASK;
 417              		.loc 1 513 0
 418 0006 46F26043 		movw	r3, #25696
 419 000a C4F20003 		movt	r3, 16384
 420 000e 1B78     		ldrb	r3, [r3, #0]
 421 0010 DBB2     		uxtb	r3, r3
 422 0012 03F07F03 		and	r3, r3, #127
 423 0016 FB71     		strb	r3, [r7, #7]
 514:.\Generated_Source\PSoC5/UART.c **** 
 515:.\Generated_Source\PSoC5/UART.c ****         #if(UART_RXBUFFERSIZE > UART_FIFO_LENGTH)
 516:.\Generated_Source\PSoC5/UART.c ****             if( UART_rxBufferOverflow != 0u )
 517:.\Generated_Source\PSoC5/UART.c ****             {
 518:.\Generated_Source\PSoC5/UART.c ****                 status |= UART_RX_STS_SOFT_BUFF_OVER;
 519:.\Generated_Source\PSoC5/UART.c ****                 UART_rxBufferOverflow = 0u;
 520:.\Generated_Source\PSoC5/UART.c ****             }
 521:.\Generated_Source\PSoC5/UART.c ****         #endif /* UART_RXBUFFERSIZE */
 522:.\Generated_Source\PSoC5/UART.c **** 
 523:.\Generated_Source\PSoC5/UART.c ****         return(status);
 424              		.loc 1 523 0
 425 0018 FB79     		ldrb	r3, [r7, #7]	@ zero_extendqisi2
 524:.\Generated_Source\PSoC5/UART.c ****     }
 426              		.loc 1 524 0
 427 001a 1846     		mov	r0, r3
 428 001c 07F10C07 		add	r7, r7, #12
 429 0020 BD46     		mov	sp, r7
 430 0022 80BC     		pop	{r7}
 431 0024 7047     		bx	lr
 432              		.cfi_endproc
 433              	.LFE8:
 434              		.size	UART_ReadRxStatus, .-UART_ReadRxStatus
 435 0026 00BF     		.section	.text.UART_GetChar,"ax",%progbits
 436              		.align	2
 437              		.global	UART_GetChar
 438              		.thumb
 439              		.thumb_func
 440              		.type	UART_GetChar, %function
 441              	UART_GetChar:
 442              	.LFB9:
 525:.\Generated_Source\PSoC5/UART.c **** 
 526:.\Generated_Source\PSoC5/UART.c **** 
 527:.\Generated_Source\PSoC5/UART.c ****     /*******************************************************************************
ARM GAS  C:\Users\RIEKOH~1\AppData\Local\Temp\cc1ugwpa.s 			page 18


 528:.\Generated_Source\PSoC5/UART.c ****     * Function Name: UART_GetChar
 529:.\Generated_Source\PSoC5/UART.c ****     ********************************************************************************
 530:.\Generated_Source\PSoC5/UART.c ****     *
 531:.\Generated_Source\PSoC5/UART.c ****     * Summary:
 532:.\Generated_Source\PSoC5/UART.c ****     *  Reads UART RX buffer immediately, if data is not available or an error
 533:.\Generated_Source\PSoC5/UART.c ****     *  condition exists, zero is returned; otherwise, character is read and
 534:.\Generated_Source\PSoC5/UART.c ****     *  returned.
 535:.\Generated_Source\PSoC5/UART.c ****     *
 536:.\Generated_Source\PSoC5/UART.c ****     * Parameters:
 537:.\Generated_Source\PSoC5/UART.c ****     *  None.
 538:.\Generated_Source\PSoC5/UART.c ****     *
 539:.\Generated_Source\PSoC5/UART.c ****     * Return:
 540:.\Generated_Source\PSoC5/UART.c ****     *  Character read from UART RX buffer. ASCII characters from 1 to 255 are valid.
 541:.\Generated_Source\PSoC5/UART.c ****     *  A returned zero signifies an error condition or no data available.
 542:.\Generated_Source\PSoC5/UART.c ****     *
 543:.\Generated_Source\PSoC5/UART.c ****     * Global Variables:
 544:.\Generated_Source\PSoC5/UART.c ****     *  UART_rxBuffer - RAM buffer pointer for save received data.
 545:.\Generated_Source\PSoC5/UART.c ****     *  UART_rxBufferWrite - cyclic index for write to rxBuffer,
 546:.\Generated_Source\PSoC5/UART.c ****     *     checked to identify new data.
 547:.\Generated_Source\PSoC5/UART.c ****     *  UART_rxBufferRead - cyclic index for read from rxBuffer,
 548:.\Generated_Source\PSoC5/UART.c ****     *     incremented after each byte has been read from buffer.
 549:.\Generated_Source\PSoC5/UART.c ****     *  UART_rxBufferLoopDetect - creared if loop condition was detected
 550:.\Generated_Source\PSoC5/UART.c ****     *     in RX ISR.
 551:.\Generated_Source\PSoC5/UART.c ****     *
 552:.\Generated_Source\PSoC5/UART.c ****     * Reentrant:
 553:.\Generated_Source\PSoC5/UART.c ****     *  No.
 554:.\Generated_Source\PSoC5/UART.c ****     *
 555:.\Generated_Source\PSoC5/UART.c ****     *******************************************************************************/
 556:.\Generated_Source\PSoC5/UART.c ****     uint8 UART_GetChar(void) 
 557:.\Generated_Source\PSoC5/UART.c ****     {
 443              		.loc 1 557 0
 444              		.cfi_startproc
 445              		@ args = 0, pretend = 0, frame = 8
 446              		@ frame_needed = 1, uses_anonymous_args = 0
 447              		@ link register save eliminated.
 448 0000 80B4     		push	{r7}
 449              	.LCFI24:
 450              		.cfi_def_cfa_offset 4
 451              		.cfi_offset 7, -4
 452 0002 83B0     		sub	sp, sp, #12
 453              	.LCFI25:
 454              		.cfi_def_cfa_offset 16
 455 0004 00AF     		add	r7, sp, #0
 456              	.LCFI26:
 457              		.cfi_def_cfa_register 7
 558:.\Generated_Source\PSoC5/UART.c ****         uint8 rxData = 0u;
 458              		.loc 1 558 0
 459 0006 4FF00003 		mov	r3, #0
 460 000a FB71     		strb	r3, [r7, #7]
 559:.\Generated_Source\PSoC5/UART.c ****         uint8 rxStatus;
 560:.\Generated_Source\PSoC5/UART.c **** 
 561:.\Generated_Source\PSoC5/UART.c ****         #if(UART_RXBUFFERSIZE > UART_FIFO_LENGTH)
 562:.\Generated_Source\PSoC5/UART.c ****             uint8 loc_rxBufferRead;
 563:.\Generated_Source\PSoC5/UART.c ****             uint8 loc_rxBufferWrite;
 564:.\Generated_Source\PSoC5/UART.c ****             /* Protect variables that could change on interrupt. */
 565:.\Generated_Source\PSoC5/UART.c ****             /* Disable Rx interrupt. */
 566:.\Generated_Source\PSoC5/UART.c ****             #if(UART_RX_INTERRUPT_ENABLED)
ARM GAS  C:\Users\RIEKOH~1\AppData\Local\Temp\cc1ugwpa.s 			page 19


 567:.\Generated_Source\PSoC5/UART.c ****                 UART_DisableRxInt();
 568:.\Generated_Source\PSoC5/UART.c ****             #endif /* UART_RX_INTERRUPT_ENABLED */
 569:.\Generated_Source\PSoC5/UART.c ****             loc_rxBufferRead = UART_rxBufferRead;
 570:.\Generated_Source\PSoC5/UART.c ****             loc_rxBufferWrite = UART_rxBufferWrite;
 571:.\Generated_Source\PSoC5/UART.c **** 
 572:.\Generated_Source\PSoC5/UART.c ****             if( (UART_rxBufferLoopDetect != 0u) || (loc_rxBufferRead != loc_rxBufferWrite) )
 573:.\Generated_Source\PSoC5/UART.c ****             {
 574:.\Generated_Source\PSoC5/UART.c ****                 rxData = UART_rxBuffer[loc_rxBufferRead];
 575:.\Generated_Source\PSoC5/UART.c ****                 loc_rxBufferRead++;
 576:.\Generated_Source\PSoC5/UART.c ****                 if(loc_rxBufferRead >= UART_RXBUFFERSIZE)
 577:.\Generated_Source\PSoC5/UART.c ****                 {
 578:.\Generated_Source\PSoC5/UART.c ****                     loc_rxBufferRead = 0u;
 579:.\Generated_Source\PSoC5/UART.c ****                 }
 580:.\Generated_Source\PSoC5/UART.c ****                 /* Update the real pointer */
 581:.\Generated_Source\PSoC5/UART.c ****                 UART_rxBufferRead = loc_rxBufferRead;
 582:.\Generated_Source\PSoC5/UART.c **** 
 583:.\Generated_Source\PSoC5/UART.c ****                 if(UART_rxBufferLoopDetect > 0u )
 584:.\Generated_Source\PSoC5/UART.c ****                 {
 585:.\Generated_Source\PSoC5/UART.c ****                     UART_rxBufferLoopDetect = 0u;
 586:.\Generated_Source\PSoC5/UART.c ****                     #if( (UART_RX_INTERRUPT_ENABLED) && (UART_FLOW_CONTROL != 0u) )
 587:.\Generated_Source\PSoC5/UART.c ****                         /* When Hardware Flow Control selected - return RX mask */
 588:.\Generated_Source\PSoC5/UART.c ****                         #if( UART_HD_ENABLED )
 589:.\Generated_Source\PSoC5/UART.c ****                             if((UART_CONTROL_REG & UART_CTRL_HD_SEND) == 0u)
 590:.\Generated_Source\PSoC5/UART.c ****                             {   /* In Half duplex mode return RX mask only if
 591:.\Generated_Source\PSoC5/UART.c ****                                 *  RX configuration set, otherwise
 592:.\Generated_Source\PSoC5/UART.c ****                                 *  mask will be returned in LoadRxConfig() API.
 593:.\Generated_Source\PSoC5/UART.c ****                                 */
 594:.\Generated_Source\PSoC5/UART.c ****                                 UART_RXSTATUS_MASK_REG  |= UART_RX_STS_FIFO_NOTEMPTY;
 595:.\Generated_Source\PSoC5/UART.c ****                             }
 596:.\Generated_Source\PSoC5/UART.c ****                         #else
 597:.\Generated_Source\PSoC5/UART.c ****                             UART_RXSTATUS_MASK_REG  |= UART_RX_STS_FIFO_NOTEMPTY;
 598:.\Generated_Source\PSoC5/UART.c ****                         #endif /* end UART_HD_ENABLED */
 599:.\Generated_Source\PSoC5/UART.c ****                     #endif /* UART_RX_INTERRUPT_ENABLED and Hardware flow control*/
 600:.\Generated_Source\PSoC5/UART.c ****                 }
 601:.\Generated_Source\PSoC5/UART.c **** 
 602:.\Generated_Source\PSoC5/UART.c ****             }
 603:.\Generated_Source\PSoC5/UART.c ****             else
 604:.\Generated_Source\PSoC5/UART.c ****             {   rxStatus = UART_RXSTATUS_REG;
 605:.\Generated_Source\PSoC5/UART.c ****                 if((rxStatus & UART_RX_STS_FIFO_NOTEMPTY) != 0u)
 606:.\Generated_Source\PSoC5/UART.c ****                 {   /* Read received data from FIFO*/
 607:.\Generated_Source\PSoC5/UART.c ****                     rxData = UART_RXDATA_REG;
 608:.\Generated_Source\PSoC5/UART.c ****                     /*Check status on error*/
 609:.\Generated_Source\PSoC5/UART.c ****                     if((rxStatus & (UART_RX_STS_BREAK | UART_RX_STS_PAR_ERROR |
 610:.\Generated_Source\PSoC5/UART.c ****                                    UART_RX_STS_STOP_ERROR | UART_RX_STS_OVERRUN)) != 0u)
 611:.\Generated_Source\PSoC5/UART.c ****                     {
 612:.\Generated_Source\PSoC5/UART.c ****                         rxData = 0u;
 613:.\Generated_Source\PSoC5/UART.c ****                     }
 614:.\Generated_Source\PSoC5/UART.c ****                 }
 615:.\Generated_Source\PSoC5/UART.c ****             }
 616:.\Generated_Source\PSoC5/UART.c **** 
 617:.\Generated_Source\PSoC5/UART.c ****             /* Enable Rx interrupt. */
 618:.\Generated_Source\PSoC5/UART.c ****             #if(UART_RX_INTERRUPT_ENABLED)
 619:.\Generated_Source\PSoC5/UART.c ****                 UART_EnableRxInt();
 620:.\Generated_Source\PSoC5/UART.c ****             #endif /* UART_RX_INTERRUPT_ENABLED */
 621:.\Generated_Source\PSoC5/UART.c **** 
 622:.\Generated_Source\PSoC5/UART.c ****         #else /* UART_RXBUFFERSIZE > UART_FIFO_LENGTH */
 623:.\Generated_Source\PSoC5/UART.c **** 
ARM GAS  C:\Users\RIEKOH~1\AppData\Local\Temp\cc1ugwpa.s 			page 20


 624:.\Generated_Source\PSoC5/UART.c ****             rxStatus =UART_RXSTATUS_REG;
 461              		.loc 1 624 0
 462 000c 46F26043 		movw	r3, #25696
 463 0010 C4F20003 		movt	r3, 16384
 464 0014 1B78     		ldrb	r3, [r3, #0]
 465 0016 BB71     		strb	r3, [r7, #6]
 625:.\Generated_Source\PSoC5/UART.c ****             if((rxStatus & UART_RX_STS_FIFO_NOTEMPTY) != 0u)
 466              		.loc 1 625 0
 467 0018 BB79     		ldrb	r3, [r7, #6]	@ zero_extendqisi2
 468 001a 03F02003 		and	r3, r3, #32
 469 001e 002B     		cmp	r3, #0
 470 0020 0DD0     		beq	.L15
 626:.\Generated_Source\PSoC5/UART.c ****             {   /* Read received data from FIFO*/
 627:.\Generated_Source\PSoC5/UART.c ****                 rxData = UART_RXDATA_REG;
 471              		.loc 1 627 0
 472 0022 46F24143 		movw	r3, #25665
 473 0026 C4F20003 		movt	r3, 16384
 474 002a 1B78     		ldrb	r3, [r3, #0]
 475 002c FB71     		strb	r3, [r7, #7]
 628:.\Generated_Source\PSoC5/UART.c ****                 /*Check status on error*/
 629:.\Generated_Source\PSoC5/UART.c ****                 if((rxStatus & (UART_RX_STS_BREAK | UART_RX_STS_PAR_ERROR |
 630:.\Generated_Source\PSoC5/UART.c ****                                UART_RX_STS_STOP_ERROR | UART_RX_STS_OVERRUN)) != 0u)
 476              		.loc 1 630 0
 477 002e BB79     		ldrb	r3, [r7, #6]	@ zero_extendqisi2
 478 0030 03F01E03 		and	r3, r3, #30
 629:.\Generated_Source\PSoC5/UART.c ****                 if((rxStatus & (UART_RX_STS_BREAK | UART_RX_STS_PAR_ERROR |
 479              		.loc 1 629 0
 480 0034 002B     		cmp	r3, #0
 481 0036 02D0     		beq	.L15
 631:.\Generated_Source\PSoC5/UART.c ****                 {
 632:.\Generated_Source\PSoC5/UART.c ****                     rxData = 0u;
 482              		.loc 1 632 0
 483 0038 4FF00003 		mov	r3, #0
 484 003c FB71     		strb	r3, [r7, #7]
 485              	.L15:
 633:.\Generated_Source\PSoC5/UART.c ****                 }
 634:.\Generated_Source\PSoC5/UART.c ****             }
 635:.\Generated_Source\PSoC5/UART.c ****         #endif /* UART_RXBUFFERSIZE > UART_FIFO_LENGTH */
 636:.\Generated_Source\PSoC5/UART.c **** 
 637:.\Generated_Source\PSoC5/UART.c ****         return(rxData);
 486              		.loc 1 637 0
 487 003e FB79     		ldrb	r3, [r7, #7]	@ zero_extendqisi2
 638:.\Generated_Source\PSoC5/UART.c ****     }
 488              		.loc 1 638 0
 489 0040 1846     		mov	r0, r3
 490 0042 07F10C07 		add	r7, r7, #12
 491 0046 BD46     		mov	sp, r7
 492 0048 80BC     		pop	{r7}
 493 004a 7047     		bx	lr
 494              		.cfi_endproc
 495              	.LFE9:
 496              		.size	UART_GetChar, .-UART_GetChar
 497              		.section	.text.UART_GetByte,"ax",%progbits
 498              		.align	2
 499              		.global	UART_GetByte
 500              		.thumb
 501              		.thumb_func
ARM GAS  C:\Users\RIEKOH~1\AppData\Local\Temp\cc1ugwpa.s 			page 21


 502              		.type	UART_GetByte, %function
 503              	UART_GetByte:
 504              	.LFB10:
 639:.\Generated_Source\PSoC5/UART.c **** 
 640:.\Generated_Source\PSoC5/UART.c **** 
 641:.\Generated_Source\PSoC5/UART.c ****     /*******************************************************************************
 642:.\Generated_Source\PSoC5/UART.c ****     * Function Name: UART_GetByte
 643:.\Generated_Source\PSoC5/UART.c ****     ********************************************************************************
 644:.\Generated_Source\PSoC5/UART.c ****     *
 645:.\Generated_Source\PSoC5/UART.c ****     * Summary:
 646:.\Generated_Source\PSoC5/UART.c ****     *  Grab the next available byte of data from the recieve FIFO
 647:.\Generated_Source\PSoC5/UART.c ****     *
 648:.\Generated_Source\PSoC5/UART.c ****     * Parameters:
 649:.\Generated_Source\PSoC5/UART.c ****     *  None.
 650:.\Generated_Source\PSoC5/UART.c ****     *
 651:.\Generated_Source\PSoC5/UART.c ****     * Return:
 652:.\Generated_Source\PSoC5/UART.c ****     *  MSB contains Status Register and LSB contains UART RX data
 653:.\Generated_Source\PSoC5/UART.c ****     *
 654:.\Generated_Source\PSoC5/UART.c ****     * Reentrant:
 655:.\Generated_Source\PSoC5/UART.c ****     *  No.
 656:.\Generated_Source\PSoC5/UART.c ****     *
 657:.\Generated_Source\PSoC5/UART.c ****     *******************************************************************************/
 658:.\Generated_Source\PSoC5/UART.c ****     uint16 UART_GetByte(void) 
 659:.\Generated_Source\PSoC5/UART.c ****     {
 505              		.loc 1 659 0
 506              		.cfi_startproc
 507              		@ args = 0, pretend = 0, frame = 0
 508              		@ frame_needed = 1, uses_anonymous_args = 0
 509 0000 98B5     		push	{r3, r4, r7, lr}
 510              	.LCFI27:
 511              		.cfi_def_cfa_offset 16
 512              		.cfi_offset 3, -16
 513              		.cfi_offset 4, -12
 514              		.cfi_offset 7, -8
 515              		.cfi_offset 14, -4
 516 0002 00AF     		add	r7, sp, #0
 517              	.LCFI28:
 518              		.cfi_def_cfa_register 7
 660:.\Generated_Source\PSoC5/UART.c ****         return ( ((uint16)UART_ReadRxStatus() << 8u) | UART_ReadRxData() );
 519              		.loc 1 660 0
 520 0004 FFF7FEFF 		bl	UART_ReadRxStatus
 521 0008 0346     		mov	r3, r0
 522 000a 4FEA0323 		lsl	r3, r3, #8
 523 000e 9CB2     		uxth	r4, r3
 524 0010 FFF7FEFF 		bl	UART_ReadRxData
 525 0014 0346     		mov	r3, r0
 526 0016 2246     		mov	r2, r4	@ movhi
 527 0018 1343     		orrs	r3, r3, r2
 528 001a 9BB2     		uxth	r3, r3
 529 001c 9BB2     		uxth	r3, r3
 661:.\Generated_Source\PSoC5/UART.c ****     }
 530              		.loc 1 661 0
 531 001e 1846     		mov	r0, r3
 532 0020 98BD     		pop	{r3, r4, r7, pc}
 533              		.cfi_endproc
 534              	.LFE10:
 535              		.size	UART_GetByte, .-UART_GetByte
ARM GAS  C:\Users\RIEKOH~1\AppData\Local\Temp\cc1ugwpa.s 			page 22


 536 0022 00BF     		.section	.text.UART_GetRxBufferSize,"ax",%progbits
 537              		.align	2
 538              		.global	UART_GetRxBufferSize
 539              		.thumb
 540              		.thumb_func
 541              		.type	UART_GetRxBufferSize, %function
 542              	UART_GetRxBufferSize:
 543              	.LFB11:
 662:.\Generated_Source\PSoC5/UART.c **** 
 663:.\Generated_Source\PSoC5/UART.c **** 
 664:.\Generated_Source\PSoC5/UART.c ****     /*******************************************************************************
 665:.\Generated_Source\PSoC5/UART.c ****     * Function Name: UART_GetRxBufferSize
 666:.\Generated_Source\PSoC5/UART.c ****     ********************************************************************************
 667:.\Generated_Source\PSoC5/UART.c ****     *
 668:.\Generated_Source\PSoC5/UART.c ****     * Summary:
 669:.\Generated_Source\PSoC5/UART.c ****     *  Determine the amount of bytes left in the RX buffer and return the count in
 670:.\Generated_Source\PSoC5/UART.c ****     *  bytes
 671:.\Generated_Source\PSoC5/UART.c ****     *
 672:.\Generated_Source\PSoC5/UART.c ****     * Parameters:
 673:.\Generated_Source\PSoC5/UART.c ****     *  None.
 674:.\Generated_Source\PSoC5/UART.c ****     *
 675:.\Generated_Source\PSoC5/UART.c ****     * Return:
 676:.\Generated_Source\PSoC5/UART.c ****     *  uint8: Integer count of the number of bytes left
 677:.\Generated_Source\PSoC5/UART.c ****     *  in the RX buffer
 678:.\Generated_Source\PSoC5/UART.c ****     *
 679:.\Generated_Source\PSoC5/UART.c ****     * Global Variables:
 680:.\Generated_Source\PSoC5/UART.c ****     *  UART_rxBufferWrite - used to calculate left bytes.
 681:.\Generated_Source\PSoC5/UART.c ****     *  UART_rxBufferRead - used to calculate left bytes.
 682:.\Generated_Source\PSoC5/UART.c ****     *  UART_rxBufferLoopDetect - checked to decide left bytes amount.
 683:.\Generated_Source\PSoC5/UART.c ****     *
 684:.\Generated_Source\PSoC5/UART.c ****     * Reentrant:
 685:.\Generated_Source\PSoC5/UART.c ****     *  No.
 686:.\Generated_Source\PSoC5/UART.c ****     *
 687:.\Generated_Source\PSoC5/UART.c ****     * Theory:
 688:.\Generated_Source\PSoC5/UART.c ****     *  Allows the user to find out how full the RX Buffer is.
 689:.\Generated_Source\PSoC5/UART.c ****     *
 690:.\Generated_Source\PSoC5/UART.c ****     *******************************************************************************/
 691:.\Generated_Source\PSoC5/UART.c ****     uint8 UART_GetRxBufferSize(void)
 692:.\Generated_Source\PSoC5/UART.c ****                                                             
 693:.\Generated_Source\PSoC5/UART.c ****     {
 544              		.loc 1 693 0
 545              		.cfi_startproc
 546              		@ args = 0, pretend = 0, frame = 8
 547              		@ frame_needed = 1, uses_anonymous_args = 0
 548              		@ link register save eliminated.
 549 0000 80B4     		push	{r7}
 550              	.LCFI29:
 551              		.cfi_def_cfa_offset 4
 552              		.cfi_offset 7, -4
 553 0002 83B0     		sub	sp, sp, #12
 554              	.LCFI30:
 555              		.cfi_def_cfa_offset 16
 556 0004 00AF     		add	r7, sp, #0
 557              	.LCFI31:
 558              		.cfi_def_cfa_register 7
 694:.\Generated_Source\PSoC5/UART.c ****         uint8 size;
 695:.\Generated_Source\PSoC5/UART.c **** 
ARM GAS  C:\Users\RIEKOH~1\AppData\Local\Temp\cc1ugwpa.s 			page 23


 696:.\Generated_Source\PSoC5/UART.c ****         #if(UART_RXBUFFERSIZE > UART_FIFO_LENGTH)
 697:.\Generated_Source\PSoC5/UART.c **** 
 698:.\Generated_Source\PSoC5/UART.c ****             /* Disable Rx interrupt. */
 699:.\Generated_Source\PSoC5/UART.c ****             /* Protect variables that could change on interrupt. */
 700:.\Generated_Source\PSoC5/UART.c ****             #if(UART_RX_INTERRUPT_ENABLED)
 701:.\Generated_Source\PSoC5/UART.c ****                 UART_DisableRxInt();
 702:.\Generated_Source\PSoC5/UART.c ****             #endif /* UART_RX_INTERRUPT_ENABLED */
 703:.\Generated_Source\PSoC5/UART.c **** 
 704:.\Generated_Source\PSoC5/UART.c ****             if(UART_rxBufferRead == UART_rxBufferWrite)
 705:.\Generated_Source\PSoC5/UART.c ****             {
 706:.\Generated_Source\PSoC5/UART.c ****                 if(UART_rxBufferLoopDetect > 0u)
 707:.\Generated_Source\PSoC5/UART.c ****                 {
 708:.\Generated_Source\PSoC5/UART.c ****                     size = UART_RXBUFFERSIZE;
 709:.\Generated_Source\PSoC5/UART.c ****                 }
 710:.\Generated_Source\PSoC5/UART.c ****                 else
 711:.\Generated_Source\PSoC5/UART.c ****                 {
 712:.\Generated_Source\PSoC5/UART.c ****                     size = 0u;
 713:.\Generated_Source\PSoC5/UART.c ****                 }
 714:.\Generated_Source\PSoC5/UART.c ****             }
 715:.\Generated_Source\PSoC5/UART.c ****             else if(UART_rxBufferRead < UART_rxBufferWrite)
 716:.\Generated_Source\PSoC5/UART.c ****             {
 717:.\Generated_Source\PSoC5/UART.c ****                 size = (UART_rxBufferWrite - UART_rxBufferRead);
 718:.\Generated_Source\PSoC5/UART.c ****             }
 719:.\Generated_Source\PSoC5/UART.c ****             else
 720:.\Generated_Source\PSoC5/UART.c ****             {
 721:.\Generated_Source\PSoC5/UART.c ****                 size = (UART_RXBUFFERSIZE - UART_rxBufferRead) + UART_rxBufferWrite;
 722:.\Generated_Source\PSoC5/UART.c ****             }
 723:.\Generated_Source\PSoC5/UART.c **** 
 724:.\Generated_Source\PSoC5/UART.c ****             /* Enable Rx interrupt. */
 725:.\Generated_Source\PSoC5/UART.c ****             #if(UART_RX_INTERRUPT_ENABLED)
 726:.\Generated_Source\PSoC5/UART.c ****                 UART_EnableRxInt();
 727:.\Generated_Source\PSoC5/UART.c ****             #endif /* End UART_RX_INTERRUPT_ENABLED */
 728:.\Generated_Source\PSoC5/UART.c **** 
 729:.\Generated_Source\PSoC5/UART.c ****         #else /* UART_RXBUFFERSIZE > UART_FIFO_LENGTH */
 730:.\Generated_Source\PSoC5/UART.c **** 
 731:.\Generated_Source\PSoC5/UART.c ****             /* We can only know if there is data in the fifo. */
 732:.\Generated_Source\PSoC5/UART.c ****             size = ((UART_RXSTATUS_REG & UART_RX_STS_FIFO_NOTEMPTY) != 0u) ? 1u : 0u;
 559              		.loc 1 732 0
 560 0006 46F26043 		movw	r3, #25696
 561 000a C4F20003 		movt	r3, 16384
 562 000e 1B78     		ldrb	r3, [r3, #0]
 563 0010 DBB2     		uxtb	r3, r3
 564 0012 03F02003 		and	r3, r3, #32
 565 0016 002B     		cmp	r3, #0
 566 0018 02D0     		beq	.L20
 567              		.loc 1 732 0 is_stmt 0 discriminator 1
 568 001a 4FF00103 		mov	r3, #1
 569 001e 01E0     		b	.L21
 570              	.L20:
 571              		.loc 1 732 0 discriminator 2
 572 0020 4FF00003 		mov	r3, #0
 573              	.L21:
 574              		.loc 1 732 0 discriminator 3
 575 0024 FB71     		strb	r3, [r7, #7]
 733:.\Generated_Source\PSoC5/UART.c **** 
 734:.\Generated_Source\PSoC5/UART.c ****         #endif /* End UART_RXBUFFERSIZE > UART_FIFO_LENGTH */
 735:.\Generated_Source\PSoC5/UART.c **** 
ARM GAS  C:\Users\RIEKOH~1\AppData\Local\Temp\cc1ugwpa.s 			page 24


 736:.\Generated_Source\PSoC5/UART.c ****         return(size);
 576              		.loc 1 736 0 is_stmt 1 discriminator 3
 577 0026 FB79     		ldrb	r3, [r7, #7]	@ zero_extendqisi2
 737:.\Generated_Source\PSoC5/UART.c ****     }
 578              		.loc 1 737 0 discriminator 3
 579 0028 1846     		mov	r0, r3
 580 002a 07F10C07 		add	r7, r7, #12
 581 002e BD46     		mov	sp, r7
 582 0030 80BC     		pop	{r7}
 583 0032 7047     		bx	lr
 584              		.cfi_endproc
 585              	.LFE11:
 586              		.size	UART_GetRxBufferSize, .-UART_GetRxBufferSize
 587              		.section	.text.UART_ClearRxBuffer,"ax",%progbits
 588              		.align	2
 589              		.global	UART_ClearRxBuffer
 590              		.thumb
 591              		.thumb_func
 592              		.type	UART_ClearRxBuffer, %function
 593              	UART_ClearRxBuffer:
 594              	.LFB12:
 738:.\Generated_Source\PSoC5/UART.c **** 
 739:.\Generated_Source\PSoC5/UART.c **** 
 740:.\Generated_Source\PSoC5/UART.c ****     /*******************************************************************************
 741:.\Generated_Source\PSoC5/UART.c ****     * Function Name: UART_ClearRxBuffer
 742:.\Generated_Source\PSoC5/UART.c ****     ********************************************************************************
 743:.\Generated_Source\PSoC5/UART.c ****     *
 744:.\Generated_Source\PSoC5/UART.c ****     * Summary:
 745:.\Generated_Source\PSoC5/UART.c ****     *  Clears the RX RAM buffer by setting the read and write pointers both to zero.
 746:.\Generated_Source\PSoC5/UART.c ****     *  Clears hardware RX FIFO.
 747:.\Generated_Source\PSoC5/UART.c ****     *
 748:.\Generated_Source\PSoC5/UART.c ****     * Parameters:
 749:.\Generated_Source\PSoC5/UART.c ****     *  None.
 750:.\Generated_Source\PSoC5/UART.c ****     *
 751:.\Generated_Source\PSoC5/UART.c ****     * Return:
 752:.\Generated_Source\PSoC5/UART.c ****     *  None.
 753:.\Generated_Source\PSoC5/UART.c ****     *
 754:.\Generated_Source\PSoC5/UART.c ****     * Global Variables:
 755:.\Generated_Source\PSoC5/UART.c ****     *  UART_rxBufferWrite - cleared to zero.
 756:.\Generated_Source\PSoC5/UART.c ****     *  UART_rxBufferRead - cleared to zero.
 757:.\Generated_Source\PSoC5/UART.c ****     *  UART_rxBufferLoopDetect - cleared to zero.
 758:.\Generated_Source\PSoC5/UART.c ****     *  UART_rxBufferOverflow - cleared to zero.
 759:.\Generated_Source\PSoC5/UART.c ****     *
 760:.\Generated_Source\PSoC5/UART.c ****     * Reentrant:
 761:.\Generated_Source\PSoC5/UART.c ****     *  No.
 762:.\Generated_Source\PSoC5/UART.c ****     *
 763:.\Generated_Source\PSoC5/UART.c ****     * Theory:
 764:.\Generated_Source\PSoC5/UART.c ****     *  Setting the pointers to zero makes the system believe there is no data to
 765:.\Generated_Source\PSoC5/UART.c ****     *  read and writing will resume at address 0 overwriting any data that may
 766:.\Generated_Source\PSoC5/UART.c ****     *  have remained in the RAM.
 767:.\Generated_Source\PSoC5/UART.c ****     *
 768:.\Generated_Source\PSoC5/UART.c ****     * Side Effects:
 769:.\Generated_Source\PSoC5/UART.c ****     *  Any received data not read from the RAM or FIFO buffer will be lost.
 770:.\Generated_Source\PSoC5/UART.c ****     *******************************************************************************/
 771:.\Generated_Source\PSoC5/UART.c ****     void UART_ClearRxBuffer(void) 
 772:.\Generated_Source\PSoC5/UART.c ****     {
 595              		.loc 1 772 0
ARM GAS  C:\Users\RIEKOH~1\AppData\Local\Temp\cc1ugwpa.s 			page 25


 596              		.cfi_startproc
 597              		@ args = 0, pretend = 0, frame = 8
 598              		@ frame_needed = 1, uses_anonymous_args = 0
 599 0000 80B5     		push	{r7, lr}
 600              	.LCFI32:
 601              		.cfi_def_cfa_offset 8
 602              		.cfi_offset 7, -8
 603              		.cfi_offset 14, -4
 604 0002 82B0     		sub	sp, sp, #8
 605              	.LCFI33:
 606              		.cfi_def_cfa_offset 16
 607 0004 00AF     		add	r7, sp, #0
 608              	.LCFI34:
 609              		.cfi_def_cfa_register 7
 773:.\Generated_Source\PSoC5/UART.c ****         uint8 enableInterrupts;
 774:.\Generated_Source\PSoC5/UART.c **** 
 775:.\Generated_Source\PSoC5/UART.c ****         /* clear the HW FIFO */
 776:.\Generated_Source\PSoC5/UART.c ****         /* Enter critical section */
 777:.\Generated_Source\PSoC5/UART.c ****         enableInterrupts = CyEnterCriticalSection();
 610              		.loc 1 777 0
 611 0006 FFF7FEFF 		bl	CyEnterCriticalSection
 612 000a 0346     		mov	r3, r0
 613 000c FB71     		strb	r3, [r7, #7]
 778:.\Generated_Source\PSoC5/UART.c ****         UART_RXDATA_AUX_CTL_REG |=  UART_RX_FIFO_CLR;
 614              		.loc 1 778 0
 615 000e 46F29143 		movw	r3, #25745
 616 0012 C4F20003 		movt	r3, 16384
 617 0016 46F29142 		movw	r2, #25745
 618 001a C4F20002 		movt	r2, 16384
 619 001e 1278     		ldrb	r2, [r2, #0]
 620 0020 D2B2     		uxtb	r2, r2
 621 0022 42F00102 		orr	r2, r2, #1
 622 0026 D2B2     		uxtb	r2, r2
 623 0028 1A70     		strb	r2, [r3, #0]
 779:.\Generated_Source\PSoC5/UART.c ****         UART_RXDATA_AUX_CTL_REG &= (uint8)~UART_RX_FIFO_CLR;
 624              		.loc 1 779 0
 625 002a 46F29143 		movw	r3, #25745
 626 002e C4F20003 		movt	r3, 16384
 627 0032 46F29142 		movw	r2, #25745
 628 0036 C4F20002 		movt	r2, 16384
 629 003a 1278     		ldrb	r2, [r2, #0]
 630 003c D2B2     		uxtb	r2, r2
 631 003e 22F00102 		bic	r2, r2, #1
 632 0042 D2B2     		uxtb	r2, r2
 633 0044 1A70     		strb	r2, [r3, #0]
 780:.\Generated_Source\PSoC5/UART.c ****         /* Exit critical section */
 781:.\Generated_Source\PSoC5/UART.c ****         CyExitCriticalSection(enableInterrupts);
 634              		.loc 1 781 0
 635 0046 FB79     		ldrb	r3, [r7, #7]	@ zero_extendqisi2
 636 0048 1846     		mov	r0, r3
 637 004a FFF7FEFF 		bl	CyExitCriticalSection
 782:.\Generated_Source\PSoC5/UART.c **** 
 783:.\Generated_Source\PSoC5/UART.c ****         #if(UART_RXBUFFERSIZE > UART_FIFO_LENGTH)
 784:.\Generated_Source\PSoC5/UART.c ****             /* Disable Rx interrupt. */
 785:.\Generated_Source\PSoC5/UART.c ****             /* Protect variables that could change on interrupt. */
 786:.\Generated_Source\PSoC5/UART.c ****             #if(UART_RX_INTERRUPT_ENABLED)
 787:.\Generated_Source\PSoC5/UART.c ****                 UART_DisableRxInt();
ARM GAS  C:\Users\RIEKOH~1\AppData\Local\Temp\cc1ugwpa.s 			page 26


 788:.\Generated_Source\PSoC5/UART.c ****             #endif /* End UART_RX_INTERRUPT_ENABLED */
 789:.\Generated_Source\PSoC5/UART.c **** 
 790:.\Generated_Source\PSoC5/UART.c ****             UART_rxBufferRead = 0u;
 791:.\Generated_Source\PSoC5/UART.c ****             UART_rxBufferWrite = 0u;
 792:.\Generated_Source\PSoC5/UART.c ****             UART_rxBufferLoopDetect = 0u;
 793:.\Generated_Source\PSoC5/UART.c ****             UART_rxBufferOverflow = 0u;
 794:.\Generated_Source\PSoC5/UART.c **** 
 795:.\Generated_Source\PSoC5/UART.c ****             /* Enable Rx interrupt. */
 796:.\Generated_Source\PSoC5/UART.c ****             #if(UART_RX_INTERRUPT_ENABLED)
 797:.\Generated_Source\PSoC5/UART.c ****                 UART_EnableRxInt();
 798:.\Generated_Source\PSoC5/UART.c ****             #endif /* End UART_RX_INTERRUPT_ENABLED */
 799:.\Generated_Source\PSoC5/UART.c ****         #endif /* End UART_RXBUFFERSIZE > UART_FIFO_LENGTH */
 800:.\Generated_Source\PSoC5/UART.c **** 
 801:.\Generated_Source\PSoC5/UART.c ****     }
 638              		.loc 1 801 0
 639 004e 07F10807 		add	r7, r7, #8
 640 0052 BD46     		mov	sp, r7
 641 0054 80BD     		pop	{r7, pc}
 642              		.cfi_endproc
 643              	.LFE12:
 644              		.size	UART_ClearRxBuffer, .-UART_ClearRxBuffer
 645 0056 00BF     		.section	.text.UART_SetRxAddressMode,"ax",%progbits
 646              		.align	2
 647              		.global	UART_SetRxAddressMode
 648              		.thumb
 649              		.thumb_func
 650              		.type	UART_SetRxAddressMode, %function
 651              	UART_SetRxAddressMode:
 652              	.LFB13:
 802:.\Generated_Source\PSoC5/UART.c **** 
 803:.\Generated_Source\PSoC5/UART.c **** 
 804:.\Generated_Source\PSoC5/UART.c ****     /*******************************************************************************
 805:.\Generated_Source\PSoC5/UART.c ****     * Function Name: UART_SetRxAddressMode
 806:.\Generated_Source\PSoC5/UART.c ****     ********************************************************************************
 807:.\Generated_Source\PSoC5/UART.c ****     *
 808:.\Generated_Source\PSoC5/UART.c ****     * Summary:
 809:.\Generated_Source\PSoC5/UART.c ****     *  Set the receive addressing mode
 810:.\Generated_Source\PSoC5/UART.c ****     *
 811:.\Generated_Source\PSoC5/UART.c ****     * Parameters:
 812:.\Generated_Source\PSoC5/UART.c ****     *  addressMode: Enumerated value indicating the mode of RX addressing
 813:.\Generated_Source\PSoC5/UART.c ****     *  UART__B_UART__AM_SW_BYTE_BYTE -  Software Byte-by-Byte address
 814:.\Generated_Source\PSoC5/UART.c ****     *                                               detection
 815:.\Generated_Source\PSoC5/UART.c ****     *  UART__B_UART__AM_SW_DETECT_TO_BUFFER - Software Detect to Buffer
 816:.\Generated_Source\PSoC5/UART.c ****     *                                               address detection
 817:.\Generated_Source\PSoC5/UART.c ****     *  UART__B_UART__AM_HW_BYTE_BY_BYTE - Hardware Byte-by-Byte address
 818:.\Generated_Source\PSoC5/UART.c ****     *                                               detection
 819:.\Generated_Source\PSoC5/UART.c ****     *  UART__B_UART__AM_HW_DETECT_TO_BUFFER - Hardware Detect to Buffer
 820:.\Generated_Source\PSoC5/UART.c ****     *                                               address detection
 821:.\Generated_Source\PSoC5/UART.c ****     *  UART__B_UART__AM_NONE - No address detection
 822:.\Generated_Source\PSoC5/UART.c ****     *
 823:.\Generated_Source\PSoC5/UART.c ****     * Return:
 824:.\Generated_Source\PSoC5/UART.c ****     *  None.
 825:.\Generated_Source\PSoC5/UART.c ****     *
 826:.\Generated_Source\PSoC5/UART.c ****     * Global Variables:
 827:.\Generated_Source\PSoC5/UART.c ****     *  UART_rxAddressMode - the parameter stored in this variable for
 828:.\Generated_Source\PSoC5/UART.c ****     *   the farther usage in RX ISR.
 829:.\Generated_Source\PSoC5/UART.c ****     *  UART_rxAddressDetected - set to initial state (0).
ARM GAS  C:\Users\RIEKOH~1\AppData\Local\Temp\cc1ugwpa.s 			page 27


 830:.\Generated_Source\PSoC5/UART.c ****     *
 831:.\Generated_Source\PSoC5/UART.c ****     *******************************************************************************/
 832:.\Generated_Source\PSoC5/UART.c ****     void UART_SetRxAddressMode(uint8 addressMode)
 833:.\Generated_Source\PSoC5/UART.c ****                                                         
 834:.\Generated_Source\PSoC5/UART.c ****     {
 653              		.loc 1 834 0
 654              		.cfi_startproc
 655              		@ args = 0, pretend = 0, frame = 8
 656              		@ frame_needed = 1, uses_anonymous_args = 0
 657              		@ link register save eliminated.
 658 0000 80B4     		push	{r7}
 659              	.LCFI35:
 660              		.cfi_def_cfa_offset 4
 661              		.cfi_offset 7, -4
 662 0002 83B0     		sub	sp, sp, #12
 663              	.LCFI36:
 664              		.cfi_def_cfa_offset 16
 665 0004 00AF     		add	r7, sp, #0
 666              	.LCFI37:
 667              		.cfi_def_cfa_register 7
 668 0006 0346     		mov	r3, r0
 669 0008 FB71     		strb	r3, [r7, #7]
 835:.\Generated_Source\PSoC5/UART.c ****         #if(UART_RXHW_ADDRESS_ENABLED)
 836:.\Generated_Source\PSoC5/UART.c ****             #if(UART_CONTROL_REG_REMOVED)
 837:.\Generated_Source\PSoC5/UART.c ****                 if(addressMode != 0u) { }     /* release compiler warning */
 838:.\Generated_Source\PSoC5/UART.c ****             #else /* UART_CONTROL_REG_REMOVED */
 839:.\Generated_Source\PSoC5/UART.c ****                 uint8 tmpCtrl;
 840:.\Generated_Source\PSoC5/UART.c ****                 tmpCtrl = UART_CONTROL_REG & (uint8)~UART_CTRL_RXADDR_MODE_MASK;
 841:.\Generated_Source\PSoC5/UART.c ****                 tmpCtrl |= (uint8)(addressMode << UART_CTRL_RXADDR_MODE0_SHIFT);
 842:.\Generated_Source\PSoC5/UART.c ****                 UART_CONTROL_REG = tmpCtrl;
 843:.\Generated_Source\PSoC5/UART.c ****                 #if(UART_RX_INTERRUPT_ENABLED && \
 844:.\Generated_Source\PSoC5/UART.c ****                    (UART_RXBUFFERSIZE > UART_FIFO_LENGTH) )
 845:.\Generated_Source\PSoC5/UART.c ****                     UART_rxAddressMode = addressMode;
 846:.\Generated_Source\PSoC5/UART.c ****                     UART_rxAddressDetected = 0u;
 847:.\Generated_Source\PSoC5/UART.c ****                 #endif /* End UART_RXBUFFERSIZE > UART_FIFO_LENGTH*/
 848:.\Generated_Source\PSoC5/UART.c ****             #endif /* End UART_CONTROL_REG_REMOVED */
 849:.\Generated_Source\PSoC5/UART.c ****         #else /* UART_RXHW_ADDRESS_ENABLED */
 850:.\Generated_Source\PSoC5/UART.c ****             if(addressMode != 0u) { }     /* release compiler warning */
 851:.\Generated_Source\PSoC5/UART.c ****         #endif /* End UART_RXHW_ADDRESS_ENABLED */
 852:.\Generated_Source\PSoC5/UART.c ****     }
 670              		.loc 1 852 0
 671 000a 07F10C07 		add	r7, r7, #12
 672 000e BD46     		mov	sp, r7
 673 0010 80BC     		pop	{r7}
 674 0012 7047     		bx	lr
 675              		.cfi_endproc
 676              	.LFE13:
 677              		.size	UART_SetRxAddressMode, .-UART_SetRxAddressMode
 678              		.section	.text.UART_SetRxAddress1,"ax",%progbits
 679              		.align	2
 680              		.global	UART_SetRxAddress1
 681              		.thumb
 682              		.thumb_func
 683              		.type	UART_SetRxAddress1, %function
 684              	UART_SetRxAddress1:
 685              	.LFB14:
 853:.\Generated_Source\PSoC5/UART.c **** 
ARM GAS  C:\Users\RIEKOH~1\AppData\Local\Temp\cc1ugwpa.s 			page 28


 854:.\Generated_Source\PSoC5/UART.c **** 
 855:.\Generated_Source\PSoC5/UART.c ****     /*******************************************************************************
 856:.\Generated_Source\PSoC5/UART.c ****     * Function Name: UART_SetRxAddress1
 857:.\Generated_Source\PSoC5/UART.c ****     ********************************************************************************
 858:.\Generated_Source\PSoC5/UART.c ****     *
 859:.\Generated_Source\PSoC5/UART.c ****     * Summary:
 860:.\Generated_Source\PSoC5/UART.c ****     *  Set the first hardware address compare value
 861:.\Generated_Source\PSoC5/UART.c ****     *
 862:.\Generated_Source\PSoC5/UART.c ****     * Parameters:
 863:.\Generated_Source\PSoC5/UART.c ****     *  address
 864:.\Generated_Source\PSoC5/UART.c ****     *
 865:.\Generated_Source\PSoC5/UART.c ****     * Return:
 866:.\Generated_Source\PSoC5/UART.c ****     *  None.
 867:.\Generated_Source\PSoC5/UART.c ****     *
 868:.\Generated_Source\PSoC5/UART.c ****     *******************************************************************************/
 869:.\Generated_Source\PSoC5/UART.c ****     void UART_SetRxAddress1(uint8 address) 
 870:.\Generated_Source\PSoC5/UART.c **** 
 871:.\Generated_Source\PSoC5/UART.c ****     {
 686              		.loc 1 871 0
 687              		.cfi_startproc
 688              		@ args = 0, pretend = 0, frame = 8
 689              		@ frame_needed = 1, uses_anonymous_args = 0
 690              		@ link register save eliminated.
 691 0000 80B4     		push	{r7}
 692              	.LCFI38:
 693              		.cfi_def_cfa_offset 4
 694              		.cfi_offset 7, -4
 695 0002 83B0     		sub	sp, sp, #12
 696              	.LCFI39:
 697              		.cfi_def_cfa_offset 16
 698 0004 00AF     		add	r7, sp, #0
 699              	.LCFI40:
 700              		.cfi_def_cfa_register 7
 701 0006 0346     		mov	r3, r0
 702 0008 FB71     		strb	r3, [r7, #7]
 872:.\Generated_Source\PSoC5/UART.c ****         UART_RXADDRESS1_REG = address;
 703              		.loc 1 872 0
 704 000a 46F22143 		movw	r3, #25633
 705 000e C4F20003 		movt	r3, 16384
 706 0012 FA79     		ldrb	r2, [r7, #7]
 707 0014 1A70     		strb	r2, [r3, #0]
 873:.\Generated_Source\PSoC5/UART.c ****     }
 708              		.loc 1 873 0
 709 0016 07F10C07 		add	r7, r7, #12
 710 001a BD46     		mov	sp, r7
 711 001c 80BC     		pop	{r7}
 712 001e 7047     		bx	lr
 713              		.cfi_endproc
 714              	.LFE14:
 715              		.size	UART_SetRxAddress1, .-UART_SetRxAddress1
 716              		.section	.text.UART_SetRxAddress2,"ax",%progbits
 717              		.align	2
 718              		.global	UART_SetRxAddress2
 719              		.thumb
 720              		.thumb_func
 721              		.type	UART_SetRxAddress2, %function
 722              	UART_SetRxAddress2:
ARM GAS  C:\Users\RIEKOH~1\AppData\Local\Temp\cc1ugwpa.s 			page 29


 723              	.LFB15:
 874:.\Generated_Source\PSoC5/UART.c **** 
 875:.\Generated_Source\PSoC5/UART.c **** 
 876:.\Generated_Source\PSoC5/UART.c ****     /*******************************************************************************
 877:.\Generated_Source\PSoC5/UART.c ****     * Function Name: UART_SetRxAddress2
 878:.\Generated_Source\PSoC5/UART.c ****     ********************************************************************************
 879:.\Generated_Source\PSoC5/UART.c ****     *
 880:.\Generated_Source\PSoC5/UART.c ****     * Summary:
 881:.\Generated_Source\PSoC5/UART.c ****     *  Set the second hardware address compare value
 882:.\Generated_Source\PSoC5/UART.c ****     *
 883:.\Generated_Source\PSoC5/UART.c ****     * Parameters:
 884:.\Generated_Source\PSoC5/UART.c ****     *  address
 885:.\Generated_Source\PSoC5/UART.c ****     *
 886:.\Generated_Source\PSoC5/UART.c ****     * Return:
 887:.\Generated_Source\PSoC5/UART.c ****     *  None.
 888:.\Generated_Source\PSoC5/UART.c ****     *
 889:.\Generated_Source\PSoC5/UART.c ****     *******************************************************************************/
 890:.\Generated_Source\PSoC5/UART.c ****     void UART_SetRxAddress2(uint8 address) 
 891:.\Generated_Source\PSoC5/UART.c ****     {
 724              		.loc 1 891 0
 725              		.cfi_startproc
 726              		@ args = 0, pretend = 0, frame = 8
 727              		@ frame_needed = 1, uses_anonymous_args = 0
 728              		@ link register save eliminated.
 729 0000 80B4     		push	{r7}
 730              	.LCFI41:
 731              		.cfi_def_cfa_offset 4
 732              		.cfi_offset 7, -4
 733 0002 83B0     		sub	sp, sp, #12
 734              	.LCFI42:
 735              		.cfi_def_cfa_offset 16
 736 0004 00AF     		add	r7, sp, #0
 737              	.LCFI43:
 738              		.cfi_def_cfa_register 7
 739 0006 0346     		mov	r3, r0
 740 0008 FB71     		strb	r3, [r7, #7]
 892:.\Generated_Source\PSoC5/UART.c ****         UART_RXADDRESS2_REG = address;
 741              		.loc 1 892 0
 742 000a 46F23143 		movw	r3, #25649
 743 000e C4F20003 		movt	r3, 16384
 744 0012 FA79     		ldrb	r2, [r7, #7]
 745 0014 1A70     		strb	r2, [r3, #0]
 893:.\Generated_Source\PSoC5/UART.c ****     }
 746              		.loc 1 893 0
 747 0016 07F10C07 		add	r7, r7, #12
 748 001a BD46     		mov	sp, r7
 749 001c 80BC     		pop	{r7}
 750 001e 7047     		bx	lr
 751              		.cfi_endproc
 752              	.LFE15:
 753              		.size	UART_SetRxAddress2, .-UART_SetRxAddress2
 754              		.section	.text.UART_SetTxInterruptMode,"ax",%progbits
 755              		.align	2
 756              		.global	UART_SetTxInterruptMode
 757              		.thumb
 758              		.thumb_func
 759              		.type	UART_SetTxInterruptMode, %function
ARM GAS  C:\Users\RIEKOH~1\AppData\Local\Temp\cc1ugwpa.s 			page 30


 760              	UART_SetTxInterruptMode:
 761              	.LFB16:
 894:.\Generated_Source\PSoC5/UART.c **** 
 895:.\Generated_Source\PSoC5/UART.c **** #endif  /* UART_RX_ENABLED || UART_HD_ENABLED*/
 896:.\Generated_Source\PSoC5/UART.c **** 
 897:.\Generated_Source\PSoC5/UART.c **** 
 898:.\Generated_Source\PSoC5/UART.c **** #if( (UART_TX_ENABLED) || (UART_HD_ENABLED) )
 899:.\Generated_Source\PSoC5/UART.c **** 
 900:.\Generated_Source\PSoC5/UART.c ****     #if(UART_TX_INTERRUPT_ENABLED)
 901:.\Generated_Source\PSoC5/UART.c **** 
 902:.\Generated_Source\PSoC5/UART.c ****         /*******************************************************************************
 903:.\Generated_Source\PSoC5/UART.c ****         * Function Name: UART_EnableTxInt
 904:.\Generated_Source\PSoC5/UART.c ****         ********************************************************************************
 905:.\Generated_Source\PSoC5/UART.c ****         *
 906:.\Generated_Source\PSoC5/UART.c ****         * Summary:
 907:.\Generated_Source\PSoC5/UART.c ****         *  Enable TX interrupt generation
 908:.\Generated_Source\PSoC5/UART.c ****         *
 909:.\Generated_Source\PSoC5/UART.c ****         * Parameters:
 910:.\Generated_Source\PSoC5/UART.c ****         *  None.
 911:.\Generated_Source\PSoC5/UART.c ****         *
 912:.\Generated_Source\PSoC5/UART.c ****         * Return:
 913:.\Generated_Source\PSoC5/UART.c ****         *  None.
 914:.\Generated_Source\PSoC5/UART.c ****         *
 915:.\Generated_Source\PSoC5/UART.c ****         * Theory:
 916:.\Generated_Source\PSoC5/UART.c ****         *  Enable the interrupt output -or- the interrupt component itself
 917:.\Generated_Source\PSoC5/UART.c ****         *
 918:.\Generated_Source\PSoC5/UART.c ****         *******************************************************************************/
 919:.\Generated_Source\PSoC5/UART.c ****         void UART_EnableTxInt(void) 
 920:.\Generated_Source\PSoC5/UART.c ****         {
 921:.\Generated_Source\PSoC5/UART.c ****             CyIntEnable(UART_TX_VECT_NUM);
 922:.\Generated_Source\PSoC5/UART.c ****         }
 923:.\Generated_Source\PSoC5/UART.c **** 
 924:.\Generated_Source\PSoC5/UART.c **** 
 925:.\Generated_Source\PSoC5/UART.c ****         /*******************************************************************************
 926:.\Generated_Source\PSoC5/UART.c ****         * Function Name: UART_DisableTxInt
 927:.\Generated_Source\PSoC5/UART.c ****         ********************************************************************************
 928:.\Generated_Source\PSoC5/UART.c ****         *
 929:.\Generated_Source\PSoC5/UART.c ****         * Summary:
 930:.\Generated_Source\PSoC5/UART.c ****         *  Disable TX interrupt generation
 931:.\Generated_Source\PSoC5/UART.c ****         *
 932:.\Generated_Source\PSoC5/UART.c ****         * Parameters:
 933:.\Generated_Source\PSoC5/UART.c ****         *  None.
 934:.\Generated_Source\PSoC5/UART.c ****         *
 935:.\Generated_Source\PSoC5/UART.c ****         * Return:
 936:.\Generated_Source\PSoC5/UART.c ****         *  None.
 937:.\Generated_Source\PSoC5/UART.c ****         *
 938:.\Generated_Source\PSoC5/UART.c ****         * Theory:
 939:.\Generated_Source\PSoC5/UART.c ****         *  Disable the interrupt output -or- the interrupt component itself
 940:.\Generated_Source\PSoC5/UART.c ****         *
 941:.\Generated_Source\PSoC5/UART.c ****         *******************************************************************************/
 942:.\Generated_Source\PSoC5/UART.c ****         void UART_DisableTxInt(void) 
 943:.\Generated_Source\PSoC5/UART.c ****         {
 944:.\Generated_Source\PSoC5/UART.c ****             CyIntDisable(UART_TX_VECT_NUM);
 945:.\Generated_Source\PSoC5/UART.c ****         }
 946:.\Generated_Source\PSoC5/UART.c **** 
 947:.\Generated_Source\PSoC5/UART.c ****     #endif /* UART_TX_INTERRUPT_ENABLED */
 948:.\Generated_Source\PSoC5/UART.c **** 
ARM GAS  C:\Users\RIEKOH~1\AppData\Local\Temp\cc1ugwpa.s 			page 31


 949:.\Generated_Source\PSoC5/UART.c **** 
 950:.\Generated_Source\PSoC5/UART.c ****     /*******************************************************************************
 951:.\Generated_Source\PSoC5/UART.c ****     * Function Name: UART_SetTxInterruptMode
 952:.\Generated_Source\PSoC5/UART.c ****     ********************************************************************************
 953:.\Generated_Source\PSoC5/UART.c ****     *
 954:.\Generated_Source\PSoC5/UART.c ****     * Summary:
 955:.\Generated_Source\PSoC5/UART.c ****     *  Configure which status bits trigger an interrupt event
 956:.\Generated_Source\PSoC5/UART.c ****     *
 957:.\Generated_Source\PSoC5/UART.c ****     * Parameters:
 958:.\Generated_Source\PSoC5/UART.c ****     *  intSrc: An or'd combination of the desired status bit masks (defined in
 959:.\Generated_Source\PSoC5/UART.c ****     *          the header file)
 960:.\Generated_Source\PSoC5/UART.c ****     *
 961:.\Generated_Source\PSoC5/UART.c ****     * Return:
 962:.\Generated_Source\PSoC5/UART.c ****     *  None.
 963:.\Generated_Source\PSoC5/UART.c ****     *
 964:.\Generated_Source\PSoC5/UART.c ****     * Theory:
 965:.\Generated_Source\PSoC5/UART.c ****     *  Enables the output of specific status bits to the interrupt controller
 966:.\Generated_Source\PSoC5/UART.c ****     *
 967:.\Generated_Source\PSoC5/UART.c ****     *******************************************************************************/
 968:.\Generated_Source\PSoC5/UART.c ****     void UART_SetTxInterruptMode(uint8 intSrc) 
 969:.\Generated_Source\PSoC5/UART.c ****     {
 762              		.loc 1 969 0
 763              		.cfi_startproc
 764              		@ args = 0, pretend = 0, frame = 8
 765              		@ frame_needed = 1, uses_anonymous_args = 0
 766              		@ link register save eliminated.
 767 0000 80B4     		push	{r7}
 768              	.LCFI44:
 769              		.cfi_def_cfa_offset 4
 770              		.cfi_offset 7, -4
 771 0002 83B0     		sub	sp, sp, #12
 772              	.LCFI45:
 773              		.cfi_def_cfa_offset 16
 774 0004 00AF     		add	r7, sp, #0
 775              	.LCFI46:
 776              		.cfi_def_cfa_register 7
 777 0006 0346     		mov	r3, r0
 778 0008 FB71     		strb	r3, [r7, #7]
 970:.\Generated_Source\PSoC5/UART.c ****         UART_TXSTATUS_MASK_REG = intSrc;
 779              		.loc 1 970 0
 780 000a 46F28643 		movw	r3, #25734
 781 000e C4F20003 		movt	r3, 16384
 782 0012 FA79     		ldrb	r2, [r7, #7]
 783 0014 1A70     		strb	r2, [r3, #0]
 971:.\Generated_Source\PSoC5/UART.c ****     }
 784              		.loc 1 971 0
 785 0016 07F10C07 		add	r7, r7, #12
 786 001a BD46     		mov	sp, r7
 787 001c 80BC     		pop	{r7}
 788 001e 7047     		bx	lr
 789              		.cfi_endproc
 790              	.LFE16:
 791              		.size	UART_SetTxInterruptMode, .-UART_SetTxInterruptMode
 792              		.section	.text.UART_WriteTxData,"ax",%progbits
 793              		.align	2
 794              		.global	UART_WriteTxData
 795              		.thumb
ARM GAS  C:\Users\RIEKOH~1\AppData\Local\Temp\cc1ugwpa.s 			page 32


 796              		.thumb_func
 797              		.type	UART_WriteTxData, %function
 798              	UART_WriteTxData:
 799              	.LFB17:
 972:.\Generated_Source\PSoC5/UART.c **** 
 973:.\Generated_Source\PSoC5/UART.c **** 
 974:.\Generated_Source\PSoC5/UART.c ****     /*******************************************************************************
 975:.\Generated_Source\PSoC5/UART.c ****     * Function Name: UART_WriteTxData
 976:.\Generated_Source\PSoC5/UART.c ****     ********************************************************************************
 977:.\Generated_Source\PSoC5/UART.c ****     *
 978:.\Generated_Source\PSoC5/UART.c ****     * Summary:
 979:.\Generated_Source\PSoC5/UART.c ****     *  Write a byte of data to the Transmit FIFO or TX buffer to be sent when the
 980:.\Generated_Source\PSoC5/UART.c ****     *  bus is available. WriteTxData sends a byte without checking for buffer room
 981:.\Generated_Source\PSoC5/UART.c ****     *  or status. It is up to the user to separately check status.
 982:.\Generated_Source\PSoC5/UART.c ****     *
 983:.\Generated_Source\PSoC5/UART.c ****     * Parameters:
 984:.\Generated_Source\PSoC5/UART.c ****     *  TXDataByte: byte of data to place in the transmit FIFO
 985:.\Generated_Source\PSoC5/UART.c ****     *
 986:.\Generated_Source\PSoC5/UART.c ****     * Return:
 987:.\Generated_Source\PSoC5/UART.c ****     * void
 988:.\Generated_Source\PSoC5/UART.c ****     *
 989:.\Generated_Source\PSoC5/UART.c ****     * Global Variables:
 990:.\Generated_Source\PSoC5/UART.c ****     *  UART_txBuffer - RAM buffer pointer for save data for transmission
 991:.\Generated_Source\PSoC5/UART.c ****     *  UART_txBufferWrite - cyclic index for write to txBuffer,
 992:.\Generated_Source\PSoC5/UART.c ****     *    incremented after each byte saved to buffer.
 993:.\Generated_Source\PSoC5/UART.c ****     *  UART_txBufferRead - cyclic index for read from txBuffer,
 994:.\Generated_Source\PSoC5/UART.c ****     *    checked to identify the condition to write to FIFO directly or to TX buffer
 995:.\Generated_Source\PSoC5/UART.c ****     *  UART_initVar - checked to identify that the component has been
 996:.\Generated_Source\PSoC5/UART.c ****     *    initialized.
 997:.\Generated_Source\PSoC5/UART.c ****     *
 998:.\Generated_Source\PSoC5/UART.c ****     * Reentrant:
 999:.\Generated_Source\PSoC5/UART.c ****     *  No.
1000:.\Generated_Source\PSoC5/UART.c ****     *
1001:.\Generated_Source\PSoC5/UART.c ****     *******************************************************************************/
1002:.\Generated_Source\PSoC5/UART.c ****     void UART_WriteTxData(uint8 txDataByte) 
1003:.\Generated_Source\PSoC5/UART.c ****     {
 800              		.loc 1 1003 0
 801              		.cfi_startproc
 802              		@ args = 0, pretend = 0, frame = 8
 803              		@ frame_needed = 1, uses_anonymous_args = 0
 804              		@ link register save eliminated.
 805 0000 80B4     		push	{r7}
 806              	.LCFI47:
 807              		.cfi_def_cfa_offset 4
 808              		.cfi_offset 7, -4
 809 0002 83B0     		sub	sp, sp, #12
 810              	.LCFI48:
 811              		.cfi_def_cfa_offset 16
 812 0004 00AF     		add	r7, sp, #0
 813              	.LCFI49:
 814              		.cfi_def_cfa_register 7
 815 0006 0346     		mov	r3, r0
 816 0008 FB71     		strb	r3, [r7, #7]
1004:.\Generated_Source\PSoC5/UART.c ****         /* If not Initialized then skip this function*/
1005:.\Generated_Source\PSoC5/UART.c ****         if(UART_initVar != 0u)
 817              		.loc 1 1005 0
 818 000a 40F20003 		movw	r3, #:lower16:UART_initVar
ARM GAS  C:\Users\RIEKOH~1\AppData\Local\Temp\cc1ugwpa.s 			page 33


 819 000e C0F20003 		movt	r3, #:upper16:UART_initVar
 820 0012 1B78     		ldrb	r3, [r3, #0]	@ zero_extendqisi2
 821 0014 002B     		cmp	r3, #0
 822 0016 05D0     		beq	.L28
1006:.\Generated_Source\PSoC5/UART.c ****         {
1007:.\Generated_Source\PSoC5/UART.c ****             #if(UART_TXBUFFERSIZE > UART_FIFO_LENGTH)
1008:.\Generated_Source\PSoC5/UART.c **** 
1009:.\Generated_Source\PSoC5/UART.c ****                 /* Disable Tx interrupt. */
1010:.\Generated_Source\PSoC5/UART.c ****                 /* Protect variables that could change on interrupt. */
1011:.\Generated_Source\PSoC5/UART.c ****                 #if(UART_TX_INTERRUPT_ENABLED)
1012:.\Generated_Source\PSoC5/UART.c ****                     UART_DisableTxInt();
1013:.\Generated_Source\PSoC5/UART.c ****                 #endif /* End UART_TX_INTERRUPT_ENABLED */
1014:.\Generated_Source\PSoC5/UART.c **** 
1015:.\Generated_Source\PSoC5/UART.c ****                 if( (UART_txBufferRead == UART_txBufferWrite) &&
1016:.\Generated_Source\PSoC5/UART.c ****                     ((UART_TXSTATUS_REG & UART_TX_STS_FIFO_FULL) == 0u) )
1017:.\Generated_Source\PSoC5/UART.c ****                 {
1018:.\Generated_Source\PSoC5/UART.c ****                     /* Add directly to the FIFO. */
1019:.\Generated_Source\PSoC5/UART.c ****                     UART_TXDATA_REG = txDataByte;
1020:.\Generated_Source\PSoC5/UART.c ****                 }
1021:.\Generated_Source\PSoC5/UART.c ****                 else
1022:.\Generated_Source\PSoC5/UART.c ****                 {
1023:.\Generated_Source\PSoC5/UART.c ****                     if(UART_txBufferWrite >= UART_TXBUFFERSIZE)
1024:.\Generated_Source\PSoC5/UART.c ****                     {
1025:.\Generated_Source\PSoC5/UART.c ****                         UART_txBufferWrite = 0u;
1026:.\Generated_Source\PSoC5/UART.c ****                     }
1027:.\Generated_Source\PSoC5/UART.c **** 
1028:.\Generated_Source\PSoC5/UART.c ****                     UART_txBuffer[UART_txBufferWrite] = txDataByte;
1029:.\Generated_Source\PSoC5/UART.c **** 
1030:.\Generated_Source\PSoC5/UART.c ****                     /* Add to the software buffer. */
1031:.\Generated_Source\PSoC5/UART.c ****                     UART_txBufferWrite++;
1032:.\Generated_Source\PSoC5/UART.c **** 
1033:.\Generated_Source\PSoC5/UART.c ****                 }
1034:.\Generated_Source\PSoC5/UART.c **** 
1035:.\Generated_Source\PSoC5/UART.c ****                 /* Enable Tx interrupt. */
1036:.\Generated_Source\PSoC5/UART.c ****                 #if(UART_TX_INTERRUPT_ENABLED)
1037:.\Generated_Source\PSoC5/UART.c ****                     UART_EnableTxInt();
1038:.\Generated_Source\PSoC5/UART.c ****                 #endif /* End UART_TX_INTERRUPT_ENABLED */
1039:.\Generated_Source\PSoC5/UART.c **** 
1040:.\Generated_Source\PSoC5/UART.c ****             #else /* UART_TXBUFFERSIZE > UART_FIFO_LENGTH */
1041:.\Generated_Source\PSoC5/UART.c **** 
1042:.\Generated_Source\PSoC5/UART.c ****                 /* Add directly to the FIFO. */
1043:.\Generated_Source\PSoC5/UART.c ****                 UART_TXDATA_REG = txDataByte;
 823              		.loc 1 1043 0
 824 0018 46F24543 		movw	r3, #25669
 825 001c C4F20003 		movt	r3, 16384
 826 0020 FA79     		ldrb	r2, [r7, #7]
 827 0022 1A70     		strb	r2, [r3, #0]
 828              	.L28:
1044:.\Generated_Source\PSoC5/UART.c **** 
1045:.\Generated_Source\PSoC5/UART.c ****             #endif /* End UART_TXBUFFERSIZE > UART_FIFO_LENGTH */
1046:.\Generated_Source\PSoC5/UART.c ****         }
1047:.\Generated_Source\PSoC5/UART.c ****     }
 829              		.loc 1 1047 0
 830 0024 07F10C07 		add	r7, r7, #12
 831 0028 BD46     		mov	sp, r7
 832 002a 80BC     		pop	{r7}
 833 002c 7047     		bx	lr
ARM GAS  C:\Users\RIEKOH~1\AppData\Local\Temp\cc1ugwpa.s 			page 34


 834              		.cfi_endproc
 835              	.LFE17:
 836              		.size	UART_WriteTxData, .-UART_WriteTxData
 837 002e 00BF     		.section	.text.UART_ReadTxStatus,"ax",%progbits
 838              		.align	2
 839              		.global	UART_ReadTxStatus
 840              		.thumb
 841              		.thumb_func
 842              		.type	UART_ReadTxStatus, %function
 843              	UART_ReadTxStatus:
 844              	.LFB18:
1048:.\Generated_Source\PSoC5/UART.c **** 
1049:.\Generated_Source\PSoC5/UART.c **** 
1050:.\Generated_Source\PSoC5/UART.c ****     /*******************************************************************************
1051:.\Generated_Source\PSoC5/UART.c ****     * Function Name: UART_ReadTxStatus
1052:.\Generated_Source\PSoC5/UART.c ****     ********************************************************************************
1053:.\Generated_Source\PSoC5/UART.c ****     *
1054:.\Generated_Source\PSoC5/UART.c ****     * Summary:
1055:.\Generated_Source\PSoC5/UART.c ****     *  Read the status register for the component
1056:.\Generated_Source\PSoC5/UART.c ****     *
1057:.\Generated_Source\PSoC5/UART.c ****     * Parameters:
1058:.\Generated_Source\PSoC5/UART.c ****     *  None.
1059:.\Generated_Source\PSoC5/UART.c ****     *
1060:.\Generated_Source\PSoC5/UART.c ****     * Return:
1061:.\Generated_Source\PSoC5/UART.c ****     *  Contents of the status register
1062:.\Generated_Source\PSoC5/UART.c ****     *
1063:.\Generated_Source\PSoC5/UART.c ****     * Theory:
1064:.\Generated_Source\PSoC5/UART.c ****     *  This function reads the status register which is clear on read. It is up to
1065:.\Generated_Source\PSoC5/UART.c ****     *  the user to handle all bits in this return value accordingly, even if the bit
1066:.\Generated_Source\PSoC5/UART.c ****     *  was not enabled as an interrupt source the event happened and must be handled
1067:.\Generated_Source\PSoC5/UART.c ****     *  accordingly.
1068:.\Generated_Source\PSoC5/UART.c ****     *
1069:.\Generated_Source\PSoC5/UART.c ****     *******************************************************************************/
1070:.\Generated_Source\PSoC5/UART.c ****     uint8 UART_ReadTxStatus(void) 
1071:.\Generated_Source\PSoC5/UART.c ****     {
 845              		.loc 1 1071 0
 846              		.cfi_startproc
 847              		@ args = 0, pretend = 0, frame = 0
 848              		@ frame_needed = 1, uses_anonymous_args = 0
 849              		@ link register save eliminated.
 850 0000 80B4     		push	{r7}
 851              	.LCFI50:
 852              		.cfi_def_cfa_offset 4
 853              		.cfi_offset 7, -4
 854 0002 00AF     		add	r7, sp, #0
 855              	.LCFI51:
 856              		.cfi_def_cfa_register 7
1072:.\Generated_Source\PSoC5/UART.c ****         return(UART_TXSTATUS_REG);
 857              		.loc 1 1072 0
 858 0004 46F26643 		movw	r3, #25702
 859 0008 C4F20003 		movt	r3, 16384
 860 000c 1B78     		ldrb	r3, [r3, #0]
 861 000e DBB2     		uxtb	r3, r3
1073:.\Generated_Source\PSoC5/UART.c ****     }
 862              		.loc 1 1073 0
 863 0010 1846     		mov	r0, r3
 864 0012 BD46     		mov	sp, r7
ARM GAS  C:\Users\RIEKOH~1\AppData\Local\Temp\cc1ugwpa.s 			page 35


 865 0014 80BC     		pop	{r7}
 866 0016 7047     		bx	lr
 867              		.cfi_endproc
 868              	.LFE18:
 869              		.size	UART_ReadTxStatus, .-UART_ReadTxStatus
 870              		.section	.text.UART_PutChar,"ax",%progbits
 871              		.align	2
 872              		.global	UART_PutChar
 873              		.thumb
 874              		.thumb_func
 875              		.type	UART_PutChar, %function
 876              	UART_PutChar:
 877              	.LFB19:
1074:.\Generated_Source\PSoC5/UART.c **** 
1075:.\Generated_Source\PSoC5/UART.c **** 
1076:.\Generated_Source\PSoC5/UART.c ****     /*******************************************************************************
1077:.\Generated_Source\PSoC5/UART.c ****     * Function Name: UART_PutChar
1078:.\Generated_Source\PSoC5/UART.c ****     ********************************************************************************
1079:.\Generated_Source\PSoC5/UART.c ****     *
1080:.\Generated_Source\PSoC5/UART.c ****     * Summary:
1081:.\Generated_Source\PSoC5/UART.c ****     *  Wait to send byte until TX register or buffer has room.
1082:.\Generated_Source\PSoC5/UART.c ****     *
1083:.\Generated_Source\PSoC5/UART.c ****     * Parameters:
1084:.\Generated_Source\PSoC5/UART.c ****     *  txDataByte: The 8-bit data value to send across the UART.
1085:.\Generated_Source\PSoC5/UART.c ****     *
1086:.\Generated_Source\PSoC5/UART.c ****     * Return:
1087:.\Generated_Source\PSoC5/UART.c ****     *  None.
1088:.\Generated_Source\PSoC5/UART.c ****     *
1089:.\Generated_Source\PSoC5/UART.c ****     * Global Variables:
1090:.\Generated_Source\PSoC5/UART.c ****     *  UART_txBuffer - RAM buffer pointer for save data for transmission
1091:.\Generated_Source\PSoC5/UART.c ****     *  UART_txBufferWrite - cyclic index for write to txBuffer,
1092:.\Generated_Source\PSoC5/UART.c ****     *     checked to identify free space in txBuffer and incremented after each byte
1093:.\Generated_Source\PSoC5/UART.c ****     *     saved to buffer.
1094:.\Generated_Source\PSoC5/UART.c ****     *  UART_txBufferRead - cyclic index for read from txBuffer,
1095:.\Generated_Source\PSoC5/UART.c ****     *     checked to identify free space in txBuffer.
1096:.\Generated_Source\PSoC5/UART.c ****     *  UART_initVar - checked to identify that the component has been
1097:.\Generated_Source\PSoC5/UART.c ****     *     initialized.
1098:.\Generated_Source\PSoC5/UART.c ****     *
1099:.\Generated_Source\PSoC5/UART.c ****     * Reentrant:
1100:.\Generated_Source\PSoC5/UART.c ****     *  No.
1101:.\Generated_Source\PSoC5/UART.c ****     *
1102:.\Generated_Source\PSoC5/UART.c ****     * Theory:
1103:.\Generated_Source\PSoC5/UART.c ****     *  Allows the user to transmit any byte of data in a single transfer
1104:.\Generated_Source\PSoC5/UART.c ****     *
1105:.\Generated_Source\PSoC5/UART.c ****     *******************************************************************************/
1106:.\Generated_Source\PSoC5/UART.c ****     void UART_PutChar(uint8 txDataByte) 
1107:.\Generated_Source\PSoC5/UART.c ****     {
 878              		.loc 1 1107 0
 879              		.cfi_startproc
 880              		@ args = 0, pretend = 0, frame = 8
 881              		@ frame_needed = 1, uses_anonymous_args = 0
 882              		@ link register save eliminated.
 883 0000 80B4     		push	{r7}
 884              	.LCFI52:
 885              		.cfi_def_cfa_offset 4
 886              		.cfi_offset 7, -4
 887 0002 83B0     		sub	sp, sp, #12
ARM GAS  C:\Users\RIEKOH~1\AppData\Local\Temp\cc1ugwpa.s 			page 36


 888              	.LCFI53:
 889              		.cfi_def_cfa_offset 16
 890 0004 00AF     		add	r7, sp, #0
 891              	.LCFI54:
 892              		.cfi_def_cfa_register 7
 893 0006 0346     		mov	r3, r0
 894 0008 FB71     		strb	r3, [r7, #7]
1108:.\Generated_Source\PSoC5/UART.c ****             #if(UART_TXBUFFERSIZE > UART_FIFO_LENGTH)
1109:.\Generated_Source\PSoC5/UART.c ****                 /* The temporary output pointer is used since it takes two instructions
1110:.\Generated_Source\PSoC5/UART.c ****                 *  to increment with a wrap, and we can't risk doing that with the real
1111:.\Generated_Source\PSoC5/UART.c ****                 *  pointer and getting an interrupt in between instructions.
1112:.\Generated_Source\PSoC5/UART.c ****                 */
1113:.\Generated_Source\PSoC5/UART.c ****                 uint8 loc_txBufferWrite;
1114:.\Generated_Source\PSoC5/UART.c ****                 uint8 loc_txBufferRead;
1115:.\Generated_Source\PSoC5/UART.c **** 
1116:.\Generated_Source\PSoC5/UART.c ****                 do{
1117:.\Generated_Source\PSoC5/UART.c ****                     /* Block if software buffer is full, so we don't overwrite. */
1118:.\Generated_Source\PSoC5/UART.c ****                     #if ((UART_TXBUFFERSIZE > UART_MAX_BYTE_VALUE) && (CY_PSOC3))
1119:.\Generated_Source\PSoC5/UART.c ****                         /* Disable TX interrupt to protect variables that could change on interrupt
1120:.\Generated_Source\PSoC5/UART.c ****                         CyIntDisable(UART_TX_VECT_NUM);
1121:.\Generated_Source\PSoC5/UART.c ****                     #endif /* End TXBUFFERSIZE > 255 */
1122:.\Generated_Source\PSoC5/UART.c ****                     loc_txBufferWrite = UART_txBufferWrite;
1123:.\Generated_Source\PSoC5/UART.c ****                     loc_txBufferRead = UART_txBufferRead;
1124:.\Generated_Source\PSoC5/UART.c ****                     #if ((UART_TXBUFFERSIZE > UART_MAX_BYTE_VALUE) && (CY_PSOC3))
1125:.\Generated_Source\PSoC5/UART.c ****                         /* Enable interrupt to continue transmission */
1126:.\Generated_Source\PSoC5/UART.c ****                         CyIntEnable(UART_TX_VECT_NUM);
1127:.\Generated_Source\PSoC5/UART.c ****                     #endif /* End TXBUFFERSIZE > 255 */
1128:.\Generated_Source\PSoC5/UART.c ****                 }while( (loc_txBufferWrite < loc_txBufferRead) ? (loc_txBufferWrite == (loc_txBuffe
1129:.\Generated_Source\PSoC5/UART.c ****                                         ((loc_txBufferWrite - loc_txBufferRead) ==
1130:.\Generated_Source\PSoC5/UART.c ****                                         (uint8)(UART_TXBUFFERSIZE - 1u)) );
1131:.\Generated_Source\PSoC5/UART.c **** 
1132:.\Generated_Source\PSoC5/UART.c ****                 if( (loc_txBufferRead == loc_txBufferWrite) &&
1133:.\Generated_Source\PSoC5/UART.c ****                     ((UART_TXSTATUS_REG & UART_TX_STS_FIFO_FULL) == 0u) )
1134:.\Generated_Source\PSoC5/UART.c ****                 {
1135:.\Generated_Source\PSoC5/UART.c ****                     /* Add directly to the FIFO. */
1136:.\Generated_Source\PSoC5/UART.c ****                     UART_TXDATA_REG = txDataByte;
1137:.\Generated_Source\PSoC5/UART.c ****                 }
1138:.\Generated_Source\PSoC5/UART.c ****                 else
1139:.\Generated_Source\PSoC5/UART.c ****                 {
1140:.\Generated_Source\PSoC5/UART.c ****                     if(loc_txBufferWrite >= UART_TXBUFFERSIZE)
1141:.\Generated_Source\PSoC5/UART.c ****                     {
1142:.\Generated_Source\PSoC5/UART.c ****                         loc_txBufferWrite = 0u;
1143:.\Generated_Source\PSoC5/UART.c ****                     }
1144:.\Generated_Source\PSoC5/UART.c ****                     /* Add to the software buffer. */
1145:.\Generated_Source\PSoC5/UART.c ****                     UART_txBuffer[loc_txBufferWrite] = txDataByte;
1146:.\Generated_Source\PSoC5/UART.c ****                     loc_txBufferWrite++;
1147:.\Generated_Source\PSoC5/UART.c **** 
1148:.\Generated_Source\PSoC5/UART.c ****                     /* Finally, update the real output pointer */
1149:.\Generated_Source\PSoC5/UART.c ****                     #if ((UART_TXBUFFERSIZE > UART_MAX_BYTE_VALUE) && (CY_PSOC3))
1150:.\Generated_Source\PSoC5/UART.c ****                         CyIntDisable(UART_TX_VECT_NUM);
1151:.\Generated_Source\PSoC5/UART.c ****                     #endif /* End TXBUFFERSIZE > 255 */
1152:.\Generated_Source\PSoC5/UART.c ****                     UART_txBufferWrite = loc_txBufferWrite;
1153:.\Generated_Source\PSoC5/UART.c ****                     #if ((UART_TXBUFFERSIZE > UART_MAX_BYTE_VALUE) && (CY_PSOC3))
1154:.\Generated_Source\PSoC5/UART.c ****                         CyIntEnable(UART_TX_VECT_NUM);
1155:.\Generated_Source\PSoC5/UART.c ****                     #endif /* End TXBUFFERSIZE > 255 */
1156:.\Generated_Source\PSoC5/UART.c ****                 }
1157:.\Generated_Source\PSoC5/UART.c **** 
ARM GAS  C:\Users\RIEKOH~1\AppData\Local\Temp\cc1ugwpa.s 			page 37


1158:.\Generated_Source\PSoC5/UART.c ****             #else /* UART_TXBUFFERSIZE > UART_FIFO_LENGTH */
1159:.\Generated_Source\PSoC5/UART.c **** 
1160:.\Generated_Source\PSoC5/UART.c ****                 while((UART_TXSTATUS_REG & UART_TX_STS_FIFO_FULL) != 0u)
 895              		.loc 1 1160 0
 896 000a 00BF     		nop
 897              	.L33:
 898              		.loc 1 1160 0 is_stmt 0 discriminator 1
 899 000c 46F26643 		movw	r3, #25702
 900 0010 C4F20003 		movt	r3, 16384
 901 0014 1B78     		ldrb	r3, [r3, #0]
 902 0016 DBB2     		uxtb	r3, r3
 903 0018 03F00403 		and	r3, r3, #4
 904 001c 002B     		cmp	r3, #0
 905 001e F5D1     		bne	.L33
1161:.\Generated_Source\PSoC5/UART.c ****                 {
1162:.\Generated_Source\PSoC5/UART.c ****                     ; /* Wait for room in the FIFO. */
1163:.\Generated_Source\PSoC5/UART.c ****                 }
1164:.\Generated_Source\PSoC5/UART.c **** 
1165:.\Generated_Source\PSoC5/UART.c ****                 /* Add directly to the FIFO. */
1166:.\Generated_Source\PSoC5/UART.c ****                 UART_TXDATA_REG = txDataByte;
 906              		.loc 1 1166 0 is_stmt 1
 907 0020 46F24543 		movw	r3, #25669
 908 0024 C4F20003 		movt	r3, 16384
 909 0028 FA79     		ldrb	r2, [r7, #7]
 910 002a 1A70     		strb	r2, [r3, #0]
1167:.\Generated_Source\PSoC5/UART.c **** 
1168:.\Generated_Source\PSoC5/UART.c ****             #endif /* End UART_TXBUFFERSIZE > UART_FIFO_LENGTH */
1169:.\Generated_Source\PSoC5/UART.c ****     }
 911              		.loc 1 1169 0
 912 002c 07F10C07 		add	r7, r7, #12
 913 0030 BD46     		mov	sp, r7
 914 0032 80BC     		pop	{r7}
 915 0034 7047     		bx	lr
 916              		.cfi_endproc
 917              	.LFE19:
 918              		.size	UART_PutChar, .-UART_PutChar
 919 0036 00BF     		.section	.text.UART_PutString,"ax",%progbits
 920              		.align	2
 921              		.global	UART_PutString
 922              		.thumb
 923              		.thumb_func
 924              		.type	UART_PutString, %function
 925              	UART_PutString:
 926              	.LFB20:
1170:.\Generated_Source\PSoC5/UART.c **** 
1171:.\Generated_Source\PSoC5/UART.c **** 
1172:.\Generated_Source\PSoC5/UART.c ****     /*******************************************************************************
1173:.\Generated_Source\PSoC5/UART.c ****     * Function Name: UART_PutString
1174:.\Generated_Source\PSoC5/UART.c ****     ********************************************************************************
1175:.\Generated_Source\PSoC5/UART.c ****     *
1176:.\Generated_Source\PSoC5/UART.c ****     * Summary:
1177:.\Generated_Source\PSoC5/UART.c ****     *  Write a Sequence of bytes on the Transmit line. Data comes from RAM or ROM.
1178:.\Generated_Source\PSoC5/UART.c ****     *
1179:.\Generated_Source\PSoC5/UART.c ****     * Parameters:
1180:.\Generated_Source\PSoC5/UART.c ****     *  string: char pointer to character string of Data to Send.
1181:.\Generated_Source\PSoC5/UART.c ****     *
1182:.\Generated_Source\PSoC5/UART.c ****     * Return:
ARM GAS  C:\Users\RIEKOH~1\AppData\Local\Temp\cc1ugwpa.s 			page 38


1183:.\Generated_Source\PSoC5/UART.c ****     *  None.
1184:.\Generated_Source\PSoC5/UART.c ****     *
1185:.\Generated_Source\PSoC5/UART.c ****     * Global Variables:
1186:.\Generated_Source\PSoC5/UART.c ****     *  UART_initVar - checked to identify that the component has been
1187:.\Generated_Source\PSoC5/UART.c ****     *     initialized.
1188:.\Generated_Source\PSoC5/UART.c ****     *
1189:.\Generated_Source\PSoC5/UART.c ****     * Reentrant:
1190:.\Generated_Source\PSoC5/UART.c ****     *  No.
1191:.\Generated_Source\PSoC5/UART.c ****     *
1192:.\Generated_Source\PSoC5/UART.c ****     * Theory:
1193:.\Generated_Source\PSoC5/UART.c ****     *  This function will block if there is not enough memory to place the whole
1194:.\Generated_Source\PSoC5/UART.c ****     *  string, it will block until the entire string has been written to the
1195:.\Generated_Source\PSoC5/UART.c ****     *  transmit buffer.
1196:.\Generated_Source\PSoC5/UART.c ****     *
1197:.\Generated_Source\PSoC5/UART.c ****     *******************************************************************************/
1198:.\Generated_Source\PSoC5/UART.c ****     void UART_PutString(const char8 string[]) 
1199:.\Generated_Source\PSoC5/UART.c ****     {
 927              		.loc 1 1199 0
 928              		.cfi_startproc
 929              		@ args = 0, pretend = 0, frame = 16
 930              		@ frame_needed = 1, uses_anonymous_args = 0
 931 0000 80B5     		push	{r7, lr}
 932              	.LCFI55:
 933              		.cfi_def_cfa_offset 8
 934              		.cfi_offset 7, -8
 935              		.cfi_offset 14, -4
 936 0002 84B0     		sub	sp, sp, #16
 937              	.LCFI56:
 938              		.cfi_def_cfa_offset 24
 939 0004 00AF     		add	r7, sp, #0
 940              	.LCFI57:
 941              		.cfi_def_cfa_register 7
 942 0006 7860     		str	r0, [r7, #4]
1200:.\Generated_Source\PSoC5/UART.c ****         uint16 buf_index = 0u;
 943              		.loc 1 1200 0
 944 0008 4FF00003 		mov	r3, #0
 945 000c FB81     		strh	r3, [r7, #14]	@ movhi
1201:.\Generated_Source\PSoC5/UART.c ****         /* If not Initialized then skip this function*/
1202:.\Generated_Source\PSoC5/UART.c ****         if(UART_initVar != 0u)
 946              		.loc 1 1202 0
 947 000e 40F20003 		movw	r3, #:lower16:UART_initVar
 948 0012 C0F20003 		movt	r3, #:upper16:UART_initVar
 949 0016 1B78     		ldrb	r3, [r3, #0]	@ zero_extendqisi2
 950 0018 002B     		cmp	r3, #0
 951 001a 11D0     		beq	.L34
1203:.\Generated_Source\PSoC5/UART.c ****         {
1204:.\Generated_Source\PSoC5/UART.c ****             /* This is a blocking function, it will not exit until all data is sent*/
1205:.\Generated_Source\PSoC5/UART.c ****             while(string[buf_index] != (char8)0)
 952              		.loc 1 1205 0
 953 001c 0AE0     		b	.L36
 954              	.L37:
1206:.\Generated_Source\PSoC5/UART.c ****             {
1207:.\Generated_Source\PSoC5/UART.c ****                 UART_PutChar((uint8)string[buf_index]);
 955              		.loc 1 1207 0
 956 001e FB89     		ldrh	r3, [r7, #14]
 957 0020 7A68     		ldr	r2, [r7, #4]
 958 0022 D318     		adds	r3, r2, r3
ARM GAS  C:\Users\RIEKOH~1\AppData\Local\Temp\cc1ugwpa.s 			page 39


 959 0024 1B78     		ldrb	r3, [r3, #0]	@ zero_extendqisi2
 960 0026 1846     		mov	r0, r3
 961 0028 FFF7FEFF 		bl	UART_PutChar
1208:.\Generated_Source\PSoC5/UART.c ****                 buf_index++;
 962              		.loc 1 1208 0
 963 002c FB89     		ldrh	r3, [r7, #14]	@ movhi
 964 002e 03F10103 		add	r3, r3, #1
 965 0032 FB81     		strh	r3, [r7, #14]	@ movhi
 966              	.L36:
1205:.\Generated_Source\PSoC5/UART.c ****             while(string[buf_index] != (char8)0)
 967              		.loc 1 1205 0 discriminator 1
 968 0034 FB89     		ldrh	r3, [r7, #14]
 969 0036 7A68     		ldr	r2, [r7, #4]
 970 0038 D318     		adds	r3, r2, r3
 971 003a 1B78     		ldrb	r3, [r3, #0]	@ zero_extendqisi2
 972 003c 002B     		cmp	r3, #0
 973 003e EED1     		bne	.L37
 974              	.L34:
1209:.\Generated_Source\PSoC5/UART.c ****             }
1210:.\Generated_Source\PSoC5/UART.c ****         }
1211:.\Generated_Source\PSoC5/UART.c ****     }
 975              		.loc 1 1211 0
 976 0040 07F11007 		add	r7, r7, #16
 977 0044 BD46     		mov	sp, r7
 978 0046 80BD     		pop	{r7, pc}
 979              		.cfi_endproc
 980              	.LFE20:
 981              		.size	UART_PutString, .-UART_PutString
 982              		.section	.text.UART_PutArray,"ax",%progbits
 983              		.align	2
 984              		.global	UART_PutArray
 985              		.thumb
 986              		.thumb_func
 987              		.type	UART_PutArray, %function
 988              	UART_PutArray:
 989              	.LFB21:
1212:.\Generated_Source\PSoC5/UART.c **** 
1213:.\Generated_Source\PSoC5/UART.c **** 
1214:.\Generated_Source\PSoC5/UART.c ****     /*******************************************************************************
1215:.\Generated_Source\PSoC5/UART.c ****     * Function Name: UART_PutArray
1216:.\Generated_Source\PSoC5/UART.c ****     ********************************************************************************
1217:.\Generated_Source\PSoC5/UART.c ****     *
1218:.\Generated_Source\PSoC5/UART.c ****     * Summary:
1219:.\Generated_Source\PSoC5/UART.c ****     *  Write a Sequence of bytes on the Transmit line. Data comes from RAM or ROM.
1220:.\Generated_Source\PSoC5/UART.c ****     *
1221:.\Generated_Source\PSoC5/UART.c ****     * Parameters:
1222:.\Generated_Source\PSoC5/UART.c ****     *  string: Address of the memory array residing in RAM or ROM.
1223:.\Generated_Source\PSoC5/UART.c ****     *  byteCount: Number of Bytes to be transmitted.
1224:.\Generated_Source\PSoC5/UART.c ****     *
1225:.\Generated_Source\PSoC5/UART.c ****     * Return:
1226:.\Generated_Source\PSoC5/UART.c ****     *  None.
1227:.\Generated_Source\PSoC5/UART.c ****     *
1228:.\Generated_Source\PSoC5/UART.c ****     * Global Variables:
1229:.\Generated_Source\PSoC5/UART.c ****     *  UART_initVar - checked to identify that the component has been
1230:.\Generated_Source\PSoC5/UART.c ****     *     initialized.
1231:.\Generated_Source\PSoC5/UART.c ****     *
1232:.\Generated_Source\PSoC5/UART.c ****     * Reentrant:
ARM GAS  C:\Users\RIEKOH~1\AppData\Local\Temp\cc1ugwpa.s 			page 40


1233:.\Generated_Source\PSoC5/UART.c ****     *  No.
1234:.\Generated_Source\PSoC5/UART.c ****     *
1235:.\Generated_Source\PSoC5/UART.c ****     *******************************************************************************/
1236:.\Generated_Source\PSoC5/UART.c ****     void UART_PutArray(const uint8 string[], uint8 byteCount)
1237:.\Generated_Source\PSoC5/UART.c ****                                                                     
1238:.\Generated_Source\PSoC5/UART.c ****     {
 990              		.loc 1 1238 0
 991              		.cfi_startproc
 992              		@ args = 0, pretend = 0, frame = 16
 993              		@ frame_needed = 1, uses_anonymous_args = 0
 994 0000 80B5     		push	{r7, lr}
 995              	.LCFI58:
 996              		.cfi_def_cfa_offset 8
 997              		.cfi_offset 7, -8
 998              		.cfi_offset 14, -4
 999 0002 84B0     		sub	sp, sp, #16
 1000              	.LCFI59:
 1001              		.cfi_def_cfa_offset 24
 1002 0004 00AF     		add	r7, sp, #0
 1003              	.LCFI60:
 1004              		.cfi_def_cfa_register 7
 1005 0006 7860     		str	r0, [r7, #4]
 1006 0008 0B46     		mov	r3, r1
 1007 000a FB70     		strb	r3, [r7, #3]
1239:.\Generated_Source\PSoC5/UART.c ****         uint8 buf_index = 0u;
 1008              		.loc 1 1239 0
 1009 000c 4FF00003 		mov	r3, #0
 1010 0010 FB73     		strb	r3, [r7, #15]
1240:.\Generated_Source\PSoC5/UART.c ****         /* If not Initialized then skip this function*/
1241:.\Generated_Source\PSoC5/UART.c ****         if(UART_initVar != 0u)
 1011              		.loc 1 1241 0
 1012 0012 40F20003 		movw	r3, #:lower16:UART_initVar
 1013 0016 C0F20003 		movt	r3, #:upper16:UART_initVar
 1014 001a 1B78     		ldrb	r3, [r3, #0]	@ zero_extendqisi2
 1015 001c 002B     		cmp	r3, #0
 1016 001e 0ED0     		beq	.L38
 1017              	.L40:
1242:.\Generated_Source\PSoC5/UART.c ****         {
1243:.\Generated_Source\PSoC5/UART.c ****             do
1244:.\Generated_Source\PSoC5/UART.c ****             {
1245:.\Generated_Source\PSoC5/UART.c ****                 UART_PutChar(string[buf_index]);
 1018              		.loc 1 1245 0 discriminator 1
 1019 0020 FB7B     		ldrb	r3, [r7, #15]	@ zero_extendqisi2
 1020 0022 7A68     		ldr	r2, [r7, #4]
 1021 0024 D318     		adds	r3, r2, r3
 1022 0026 1B78     		ldrb	r3, [r3, #0]	@ zero_extendqisi2
 1023 0028 1846     		mov	r0, r3
 1024 002a FFF7FEFF 		bl	UART_PutChar
1246:.\Generated_Source\PSoC5/UART.c ****                 buf_index++;
 1025              		.loc 1 1246 0 discriminator 1
 1026 002e FB7B     		ldrb	r3, [r7, #15]
 1027 0030 03F10103 		add	r3, r3, #1
 1028 0034 FB73     		strb	r3, [r7, #15]
1247:.\Generated_Source\PSoC5/UART.c ****             }while(buf_index < byteCount);
 1029              		.loc 1 1247 0 discriminator 1
 1030 0036 FA7B     		ldrb	r2, [r7, #15]	@ zero_extendqisi2
 1031 0038 FB78     		ldrb	r3, [r7, #3]	@ zero_extendqisi2
ARM GAS  C:\Users\RIEKOH~1\AppData\Local\Temp\cc1ugwpa.s 			page 41


 1032 003a 9A42     		cmp	r2, r3
 1033 003c F0D3     		bcc	.L40
 1034              	.L38:
1248:.\Generated_Source\PSoC5/UART.c ****         }
1249:.\Generated_Source\PSoC5/UART.c ****     }
 1035              		.loc 1 1249 0
 1036 003e 07F11007 		add	r7, r7, #16
 1037 0042 BD46     		mov	sp, r7
 1038 0044 80BD     		pop	{r7, pc}
 1039              		.cfi_endproc
 1040              	.LFE21:
 1041              		.size	UART_PutArray, .-UART_PutArray
 1042 0046 00BF     		.section	.text.UART_PutCRLF,"ax",%progbits
 1043              		.align	2
 1044              		.global	UART_PutCRLF
 1045              		.thumb
 1046              		.thumb_func
 1047              		.type	UART_PutCRLF, %function
 1048              	UART_PutCRLF:
 1049              	.LFB22:
1250:.\Generated_Source\PSoC5/UART.c **** 
1251:.\Generated_Source\PSoC5/UART.c **** 
1252:.\Generated_Source\PSoC5/UART.c ****     /*******************************************************************************
1253:.\Generated_Source\PSoC5/UART.c ****     * Function Name: UART_PutCRLF
1254:.\Generated_Source\PSoC5/UART.c ****     ********************************************************************************
1255:.\Generated_Source\PSoC5/UART.c ****     *
1256:.\Generated_Source\PSoC5/UART.c ****     * Summary:
1257:.\Generated_Source\PSoC5/UART.c ****     *  Write a character and then carriage return and line feed.
1258:.\Generated_Source\PSoC5/UART.c ****     *
1259:.\Generated_Source\PSoC5/UART.c ****     * Parameters:
1260:.\Generated_Source\PSoC5/UART.c ****     *  txDataByte: uint8 Character to send.
1261:.\Generated_Source\PSoC5/UART.c ****     *
1262:.\Generated_Source\PSoC5/UART.c ****     * Return:
1263:.\Generated_Source\PSoC5/UART.c ****     *  None.
1264:.\Generated_Source\PSoC5/UART.c ****     *
1265:.\Generated_Source\PSoC5/UART.c ****     * Global Variables:
1266:.\Generated_Source\PSoC5/UART.c ****     *  UART_initVar - checked to identify that the component has been
1267:.\Generated_Source\PSoC5/UART.c ****     *     initialized.
1268:.\Generated_Source\PSoC5/UART.c ****     *
1269:.\Generated_Source\PSoC5/UART.c ****     * Reentrant:
1270:.\Generated_Source\PSoC5/UART.c ****     *  No.
1271:.\Generated_Source\PSoC5/UART.c ****     *
1272:.\Generated_Source\PSoC5/UART.c ****     *******************************************************************************/
1273:.\Generated_Source\PSoC5/UART.c ****     void UART_PutCRLF(uint8 txDataByte) 
1274:.\Generated_Source\PSoC5/UART.c ****     {
 1050              		.loc 1 1274 0
 1051              		.cfi_startproc
 1052              		@ args = 0, pretend = 0, frame = 8
 1053              		@ frame_needed = 1, uses_anonymous_args = 0
 1054 0000 80B5     		push	{r7, lr}
 1055              	.LCFI61:
 1056              		.cfi_def_cfa_offset 8
 1057              		.cfi_offset 7, -8
 1058              		.cfi_offset 14, -4
 1059 0002 82B0     		sub	sp, sp, #8
 1060              	.LCFI62:
 1061              		.cfi_def_cfa_offset 16
ARM GAS  C:\Users\RIEKOH~1\AppData\Local\Temp\cc1ugwpa.s 			page 42


 1062 0004 00AF     		add	r7, sp, #0
 1063              	.LCFI63:
 1064              		.cfi_def_cfa_register 7
 1065 0006 0346     		mov	r3, r0
 1066 0008 FB71     		strb	r3, [r7, #7]
1275:.\Generated_Source\PSoC5/UART.c ****         /* If not Initialized then skip this function*/
1276:.\Generated_Source\PSoC5/UART.c ****         if(UART_initVar != 0u)
 1067              		.loc 1 1276 0
 1068 000a 40F20003 		movw	r3, #:lower16:UART_initVar
 1069 000e C0F20003 		movt	r3, #:upper16:UART_initVar
 1070 0012 1B78     		ldrb	r3, [r3, #0]	@ zero_extendqisi2
 1071 0014 002B     		cmp	r3, #0
 1072 0016 0BD0     		beq	.L41
1277:.\Generated_Source\PSoC5/UART.c ****         {
1278:.\Generated_Source\PSoC5/UART.c ****             UART_PutChar(txDataByte);
 1073              		.loc 1 1278 0
 1074 0018 FB79     		ldrb	r3, [r7, #7]	@ zero_extendqisi2
 1075 001a 1846     		mov	r0, r3
 1076 001c FFF7FEFF 		bl	UART_PutChar
1279:.\Generated_Source\PSoC5/UART.c ****             UART_PutChar(0x0Du);
 1077              		.loc 1 1279 0
 1078 0020 4FF00D00 		mov	r0, #13
 1079 0024 FFF7FEFF 		bl	UART_PutChar
1280:.\Generated_Source\PSoC5/UART.c ****             UART_PutChar(0x0Au);
 1080              		.loc 1 1280 0
 1081 0028 4FF00A00 		mov	r0, #10
 1082 002c FFF7FEFF 		bl	UART_PutChar
 1083              	.L41:
1281:.\Generated_Source\PSoC5/UART.c ****         }
1282:.\Generated_Source\PSoC5/UART.c ****     }
 1084              		.loc 1 1282 0
 1085 0030 07F10807 		add	r7, r7, #8
 1086 0034 BD46     		mov	sp, r7
 1087 0036 80BD     		pop	{r7, pc}
 1088              		.cfi_endproc
 1089              	.LFE22:
 1090              		.size	UART_PutCRLF, .-UART_PutCRLF
 1091              		.section	.text.UART_GetTxBufferSize,"ax",%progbits
 1092              		.align	2
 1093              		.global	UART_GetTxBufferSize
 1094              		.thumb
 1095              		.thumb_func
 1096              		.type	UART_GetTxBufferSize, %function
 1097              	UART_GetTxBufferSize:
 1098              	.LFB23:
1283:.\Generated_Source\PSoC5/UART.c **** 
1284:.\Generated_Source\PSoC5/UART.c **** 
1285:.\Generated_Source\PSoC5/UART.c ****     /*******************************************************************************
1286:.\Generated_Source\PSoC5/UART.c ****     * Function Name: UART_GetTxBufferSize
1287:.\Generated_Source\PSoC5/UART.c ****     ********************************************************************************
1288:.\Generated_Source\PSoC5/UART.c ****     *
1289:.\Generated_Source\PSoC5/UART.c ****     * Summary:
1290:.\Generated_Source\PSoC5/UART.c ****     *  Determine the amount of space left in the TX buffer and return the count in
1291:.\Generated_Source\PSoC5/UART.c ****     *  bytes
1292:.\Generated_Source\PSoC5/UART.c ****     *
1293:.\Generated_Source\PSoC5/UART.c ****     * Parameters:
1294:.\Generated_Source\PSoC5/UART.c ****     *  None.
ARM GAS  C:\Users\RIEKOH~1\AppData\Local\Temp\cc1ugwpa.s 			page 43


1295:.\Generated_Source\PSoC5/UART.c ****     *
1296:.\Generated_Source\PSoC5/UART.c ****     * Return:
1297:.\Generated_Source\PSoC5/UART.c ****     *  Integer count of the number of bytes left in the TX buffer
1298:.\Generated_Source\PSoC5/UART.c ****     *
1299:.\Generated_Source\PSoC5/UART.c ****     * Global Variables:
1300:.\Generated_Source\PSoC5/UART.c ****     *  UART_txBufferWrite - used to calculate left space.
1301:.\Generated_Source\PSoC5/UART.c ****     *  UART_txBufferRead - used to calculate left space.
1302:.\Generated_Source\PSoC5/UART.c ****     *
1303:.\Generated_Source\PSoC5/UART.c ****     * Reentrant:
1304:.\Generated_Source\PSoC5/UART.c ****     *  No.
1305:.\Generated_Source\PSoC5/UART.c ****     *
1306:.\Generated_Source\PSoC5/UART.c ****     * Theory:
1307:.\Generated_Source\PSoC5/UART.c ****     *  Allows the user to find out how full the TX Buffer is.
1308:.\Generated_Source\PSoC5/UART.c ****     *
1309:.\Generated_Source\PSoC5/UART.c ****     *******************************************************************************/
1310:.\Generated_Source\PSoC5/UART.c ****     uint8 UART_GetTxBufferSize(void)
1311:.\Generated_Source\PSoC5/UART.c ****                                                             
1312:.\Generated_Source\PSoC5/UART.c ****     {
 1099              		.loc 1 1312 0
 1100              		.cfi_startproc
 1101              		@ args = 0, pretend = 0, frame = 8
 1102              		@ frame_needed = 1, uses_anonymous_args = 0
 1103              		@ link register save eliminated.
 1104 0000 80B4     		push	{r7}
 1105              	.LCFI64:
 1106              		.cfi_def_cfa_offset 4
 1107              		.cfi_offset 7, -4
 1108 0002 83B0     		sub	sp, sp, #12
 1109              	.LCFI65:
 1110              		.cfi_def_cfa_offset 16
 1111 0004 00AF     		add	r7, sp, #0
 1112              	.LCFI66:
 1113              		.cfi_def_cfa_register 7
1313:.\Generated_Source\PSoC5/UART.c ****         uint8 size;
1314:.\Generated_Source\PSoC5/UART.c **** 
1315:.\Generated_Source\PSoC5/UART.c ****         #if(UART_TXBUFFERSIZE > UART_FIFO_LENGTH)
1316:.\Generated_Source\PSoC5/UART.c **** 
1317:.\Generated_Source\PSoC5/UART.c ****             /* Disable Tx interrupt. */
1318:.\Generated_Source\PSoC5/UART.c ****             /* Protect variables that could change on interrupt. */
1319:.\Generated_Source\PSoC5/UART.c ****             #if(UART_TX_INTERRUPT_ENABLED)
1320:.\Generated_Source\PSoC5/UART.c ****                 UART_DisableTxInt();
1321:.\Generated_Source\PSoC5/UART.c ****             #endif /* End UART_TX_INTERRUPT_ENABLED */
1322:.\Generated_Source\PSoC5/UART.c **** 
1323:.\Generated_Source\PSoC5/UART.c ****             if(UART_txBufferRead == UART_txBufferWrite)
1324:.\Generated_Source\PSoC5/UART.c ****             {
1325:.\Generated_Source\PSoC5/UART.c ****                 size = 0u;
1326:.\Generated_Source\PSoC5/UART.c ****             }
1327:.\Generated_Source\PSoC5/UART.c ****             else if(UART_txBufferRead < UART_txBufferWrite)
1328:.\Generated_Source\PSoC5/UART.c ****             {
1329:.\Generated_Source\PSoC5/UART.c ****                 size = (UART_txBufferWrite - UART_txBufferRead);
1330:.\Generated_Source\PSoC5/UART.c ****             }
1331:.\Generated_Source\PSoC5/UART.c ****             else
1332:.\Generated_Source\PSoC5/UART.c ****             {
1333:.\Generated_Source\PSoC5/UART.c ****                 size = (UART_TXBUFFERSIZE - UART_txBufferRead) + UART_txBufferWrite;
1334:.\Generated_Source\PSoC5/UART.c ****             }
1335:.\Generated_Source\PSoC5/UART.c **** 
1336:.\Generated_Source\PSoC5/UART.c ****             /* Enable Tx interrupt. */
ARM GAS  C:\Users\RIEKOH~1\AppData\Local\Temp\cc1ugwpa.s 			page 44


1337:.\Generated_Source\PSoC5/UART.c ****             #if(UART_TX_INTERRUPT_ENABLED)
1338:.\Generated_Source\PSoC5/UART.c ****                 UART_EnableTxInt();
1339:.\Generated_Source\PSoC5/UART.c ****             #endif /* End UART_TX_INTERRUPT_ENABLED */
1340:.\Generated_Source\PSoC5/UART.c **** 
1341:.\Generated_Source\PSoC5/UART.c ****         #else /* UART_TXBUFFERSIZE > UART_FIFO_LENGTH */
1342:.\Generated_Source\PSoC5/UART.c **** 
1343:.\Generated_Source\PSoC5/UART.c ****             size = UART_TXSTATUS_REG;
 1114              		.loc 1 1343 0
 1115 0006 46F26643 		movw	r3, #25702
 1116 000a C4F20003 		movt	r3, 16384
 1117 000e 1B78     		ldrb	r3, [r3, #0]
 1118 0010 FB71     		strb	r3, [r7, #7]
1344:.\Generated_Source\PSoC5/UART.c **** 
1345:.\Generated_Source\PSoC5/UART.c ****             /* Is the fifo is full. */
1346:.\Generated_Source\PSoC5/UART.c ****             if((size & UART_TX_STS_FIFO_FULL) != 0u)
 1119              		.loc 1 1346 0
 1120 0012 FB79     		ldrb	r3, [r7, #7]	@ zero_extendqisi2
 1121 0014 03F00403 		and	r3, r3, #4
 1122 0018 002B     		cmp	r3, #0
 1123 001a 03D0     		beq	.L44
1347:.\Generated_Source\PSoC5/UART.c ****             {
1348:.\Generated_Source\PSoC5/UART.c ****                 size = UART_FIFO_LENGTH;
 1124              		.loc 1 1348 0
 1125 001c 4FF00403 		mov	r3, #4
 1126 0020 FB71     		strb	r3, [r7, #7]
 1127 0022 0BE0     		b	.L45
 1128              	.L44:
1349:.\Generated_Source\PSoC5/UART.c ****             }
1350:.\Generated_Source\PSoC5/UART.c ****             else if((size & UART_TX_STS_FIFO_EMPTY) != 0u)
 1129              		.loc 1 1350 0
 1130 0024 FB79     		ldrb	r3, [r7, #7]	@ zero_extendqisi2
 1131 0026 03F00203 		and	r3, r3, #2
 1132 002a 002B     		cmp	r3, #0
 1133 002c 03D0     		beq	.L46
1351:.\Generated_Source\PSoC5/UART.c ****             {
1352:.\Generated_Source\PSoC5/UART.c ****                 size = 0u;
 1134              		.loc 1 1352 0
 1135 002e 4FF00003 		mov	r3, #0
 1136 0032 FB71     		strb	r3, [r7, #7]
 1137 0034 02E0     		b	.L45
 1138              	.L46:
1353:.\Generated_Source\PSoC5/UART.c ****             }
1354:.\Generated_Source\PSoC5/UART.c ****             else
1355:.\Generated_Source\PSoC5/UART.c ****             {
1356:.\Generated_Source\PSoC5/UART.c ****                 /* We only know there is data in the fifo. */
1357:.\Generated_Source\PSoC5/UART.c ****                 size = 1u;
 1139              		.loc 1 1357 0
 1140 0036 4FF00103 		mov	r3, #1
 1141 003a FB71     		strb	r3, [r7, #7]
 1142              	.L45:
1358:.\Generated_Source\PSoC5/UART.c ****             }
1359:.\Generated_Source\PSoC5/UART.c **** 
1360:.\Generated_Source\PSoC5/UART.c ****         #endif /* End UART_TXBUFFERSIZE > UART_FIFO_LENGTH */
1361:.\Generated_Source\PSoC5/UART.c **** 
1362:.\Generated_Source\PSoC5/UART.c ****         return(size);
 1143              		.loc 1 1362 0
 1144 003c FB79     		ldrb	r3, [r7, #7]	@ zero_extendqisi2
ARM GAS  C:\Users\RIEKOH~1\AppData\Local\Temp\cc1ugwpa.s 			page 45


1363:.\Generated_Source\PSoC5/UART.c ****     }
 1145              		.loc 1 1363 0
 1146 003e 1846     		mov	r0, r3
 1147 0040 07F10C07 		add	r7, r7, #12
 1148 0044 BD46     		mov	sp, r7
 1149 0046 80BC     		pop	{r7}
 1150 0048 7047     		bx	lr
 1151              		.cfi_endproc
 1152              	.LFE23:
 1153              		.size	UART_GetTxBufferSize, .-UART_GetTxBufferSize
 1154 004a 00BF     		.section	.text.UART_ClearTxBuffer,"ax",%progbits
 1155              		.align	2
 1156              		.global	UART_ClearTxBuffer
 1157              		.thumb
 1158              		.thumb_func
 1159              		.type	UART_ClearTxBuffer, %function
 1160              	UART_ClearTxBuffer:
 1161              	.LFB24:
1364:.\Generated_Source\PSoC5/UART.c **** 
1365:.\Generated_Source\PSoC5/UART.c **** 
1366:.\Generated_Source\PSoC5/UART.c ****     /*******************************************************************************
1367:.\Generated_Source\PSoC5/UART.c ****     * Function Name: UART_ClearTxBuffer
1368:.\Generated_Source\PSoC5/UART.c ****     ********************************************************************************
1369:.\Generated_Source\PSoC5/UART.c ****     *
1370:.\Generated_Source\PSoC5/UART.c ****     * Summary:
1371:.\Generated_Source\PSoC5/UART.c ****     *  Clears the TX RAM buffer by setting the read and write pointers both to zero.
1372:.\Generated_Source\PSoC5/UART.c ****     *  Clears the hardware TX FIFO.  Any data present in the FIFO will not be sent.
1373:.\Generated_Source\PSoC5/UART.c ****     *
1374:.\Generated_Source\PSoC5/UART.c ****     * Parameters:
1375:.\Generated_Source\PSoC5/UART.c ****     *  None.
1376:.\Generated_Source\PSoC5/UART.c ****     *
1377:.\Generated_Source\PSoC5/UART.c ****     * Return:
1378:.\Generated_Source\PSoC5/UART.c ****     *  None.
1379:.\Generated_Source\PSoC5/UART.c ****     *
1380:.\Generated_Source\PSoC5/UART.c ****     * Global Variables:
1381:.\Generated_Source\PSoC5/UART.c ****     *  UART_txBufferWrite - cleared to zero.
1382:.\Generated_Source\PSoC5/UART.c ****     *  UART_txBufferRead - cleared to zero.
1383:.\Generated_Source\PSoC5/UART.c ****     *
1384:.\Generated_Source\PSoC5/UART.c ****     * Reentrant:
1385:.\Generated_Source\PSoC5/UART.c ****     *  No.
1386:.\Generated_Source\PSoC5/UART.c ****     *
1387:.\Generated_Source\PSoC5/UART.c ****     * Theory:
1388:.\Generated_Source\PSoC5/UART.c ****     *  Setting the pointers to zero makes the system believe there is no data to
1389:.\Generated_Source\PSoC5/UART.c ****     *  read and writing will resume at address 0 overwriting any data that may have
1390:.\Generated_Source\PSoC5/UART.c ****     *  remained in the RAM.
1391:.\Generated_Source\PSoC5/UART.c ****     *
1392:.\Generated_Source\PSoC5/UART.c ****     * Side Effects:
1393:.\Generated_Source\PSoC5/UART.c ****     *  Any received data not read from the RAM buffer will be lost when overwritten.
1394:.\Generated_Source\PSoC5/UART.c ****     *
1395:.\Generated_Source\PSoC5/UART.c ****     *******************************************************************************/
1396:.\Generated_Source\PSoC5/UART.c ****     void UART_ClearTxBuffer(void) 
1397:.\Generated_Source\PSoC5/UART.c ****     {
 1162              		.loc 1 1397 0
 1163              		.cfi_startproc
 1164              		@ args = 0, pretend = 0, frame = 8
 1165              		@ frame_needed = 1, uses_anonymous_args = 0
 1166 0000 80B5     		push	{r7, lr}
ARM GAS  C:\Users\RIEKOH~1\AppData\Local\Temp\cc1ugwpa.s 			page 46


 1167              	.LCFI67:
 1168              		.cfi_def_cfa_offset 8
 1169              		.cfi_offset 7, -8
 1170              		.cfi_offset 14, -4
 1171 0002 82B0     		sub	sp, sp, #8
 1172              	.LCFI68:
 1173              		.cfi_def_cfa_offset 16
 1174 0004 00AF     		add	r7, sp, #0
 1175              	.LCFI69:
 1176              		.cfi_def_cfa_register 7
1398:.\Generated_Source\PSoC5/UART.c ****         uint8 enableInterrupts;
1399:.\Generated_Source\PSoC5/UART.c **** 
1400:.\Generated_Source\PSoC5/UART.c ****         /* Enter critical section */
1401:.\Generated_Source\PSoC5/UART.c ****         enableInterrupts = CyEnterCriticalSection();
 1177              		.loc 1 1401 0
 1178 0006 FFF7FEFF 		bl	CyEnterCriticalSection
 1179 000a 0346     		mov	r3, r0
 1180 000c FB71     		strb	r3, [r7, #7]
1402:.\Generated_Source\PSoC5/UART.c ****         /* clear the HW FIFO */
1403:.\Generated_Source\PSoC5/UART.c ****         UART_TXDATA_AUX_CTL_REG |=  UART_TX_FIFO_CLR;
 1181              		.loc 1 1403 0
 1182 000e 46F29543 		movw	r3, #25749
 1183 0012 C4F20003 		movt	r3, 16384
 1184 0016 46F29542 		movw	r2, #25749
 1185 001a C4F20002 		movt	r2, 16384
 1186 001e 1278     		ldrb	r2, [r2, #0]
 1187 0020 D2B2     		uxtb	r2, r2
 1188 0022 42F00102 		orr	r2, r2, #1
 1189 0026 D2B2     		uxtb	r2, r2
 1190 0028 1A70     		strb	r2, [r3, #0]
1404:.\Generated_Source\PSoC5/UART.c ****         UART_TXDATA_AUX_CTL_REG &= (uint8)~UART_TX_FIFO_CLR;
 1191              		.loc 1 1404 0
 1192 002a 46F29543 		movw	r3, #25749
 1193 002e C4F20003 		movt	r3, 16384
 1194 0032 46F29542 		movw	r2, #25749
 1195 0036 C4F20002 		movt	r2, 16384
 1196 003a 1278     		ldrb	r2, [r2, #0]
 1197 003c D2B2     		uxtb	r2, r2
 1198 003e 22F00102 		bic	r2, r2, #1
 1199 0042 D2B2     		uxtb	r2, r2
 1200 0044 1A70     		strb	r2, [r3, #0]
1405:.\Generated_Source\PSoC5/UART.c ****         /* Exit critical section */
1406:.\Generated_Source\PSoC5/UART.c ****         CyExitCriticalSection(enableInterrupts);
 1201              		.loc 1 1406 0
 1202 0046 FB79     		ldrb	r3, [r7, #7]	@ zero_extendqisi2
 1203 0048 1846     		mov	r0, r3
 1204 004a FFF7FEFF 		bl	CyExitCriticalSection
1407:.\Generated_Source\PSoC5/UART.c **** 
1408:.\Generated_Source\PSoC5/UART.c ****         #if(UART_TXBUFFERSIZE > UART_FIFO_LENGTH)
1409:.\Generated_Source\PSoC5/UART.c **** 
1410:.\Generated_Source\PSoC5/UART.c ****             /* Disable Tx interrupt. */
1411:.\Generated_Source\PSoC5/UART.c ****             /* Protect variables that could change on interrupt. */
1412:.\Generated_Source\PSoC5/UART.c ****             #if(UART_TX_INTERRUPT_ENABLED)
1413:.\Generated_Source\PSoC5/UART.c ****                 UART_DisableTxInt();
1414:.\Generated_Source\PSoC5/UART.c ****             #endif /* End UART_TX_INTERRUPT_ENABLED */
1415:.\Generated_Source\PSoC5/UART.c **** 
1416:.\Generated_Source\PSoC5/UART.c ****             UART_txBufferRead = 0u;
ARM GAS  C:\Users\RIEKOH~1\AppData\Local\Temp\cc1ugwpa.s 			page 47


1417:.\Generated_Source\PSoC5/UART.c ****             UART_txBufferWrite = 0u;
1418:.\Generated_Source\PSoC5/UART.c **** 
1419:.\Generated_Source\PSoC5/UART.c ****             /* Enable Tx interrupt. */
1420:.\Generated_Source\PSoC5/UART.c ****             #if(UART_TX_INTERRUPT_ENABLED)
1421:.\Generated_Source\PSoC5/UART.c ****                 UART_EnableTxInt();
1422:.\Generated_Source\PSoC5/UART.c ****             #endif /* End UART_TX_INTERRUPT_ENABLED */
1423:.\Generated_Source\PSoC5/UART.c **** 
1424:.\Generated_Source\PSoC5/UART.c ****         #endif /* End UART_TXBUFFERSIZE > UART_FIFO_LENGTH */
1425:.\Generated_Source\PSoC5/UART.c ****     }
 1205              		.loc 1 1425 0
 1206 004e 07F10807 		add	r7, r7, #8
 1207 0052 BD46     		mov	sp, r7
 1208 0054 80BD     		pop	{r7, pc}
 1209              		.cfi_endproc
 1210              	.LFE24:
 1211              		.size	UART_ClearTxBuffer, .-UART_ClearTxBuffer
 1212 0056 00BF     		.section	.text.UART_SendBreak,"ax",%progbits
 1213              		.align	2
 1214              		.global	UART_SendBreak
 1215              		.thumb
 1216              		.thumb_func
 1217              		.type	UART_SendBreak, %function
 1218              	UART_SendBreak:
 1219              	.LFB25:
1426:.\Generated_Source\PSoC5/UART.c **** 
1427:.\Generated_Source\PSoC5/UART.c **** 
1428:.\Generated_Source\PSoC5/UART.c ****     /*******************************************************************************
1429:.\Generated_Source\PSoC5/UART.c ****     * Function Name: UART_SendBreak
1430:.\Generated_Source\PSoC5/UART.c ****     ********************************************************************************
1431:.\Generated_Source\PSoC5/UART.c ****     *
1432:.\Generated_Source\PSoC5/UART.c ****     * Summary:
1433:.\Generated_Source\PSoC5/UART.c ****     *  Write a Break command to the UART
1434:.\Generated_Source\PSoC5/UART.c ****     *
1435:.\Generated_Source\PSoC5/UART.c ****     * Parameters:
1436:.\Generated_Source\PSoC5/UART.c ****     *  uint8 retMode:  Wait mode,
1437:.\Generated_Source\PSoC5/UART.c ****     *   0 - Initialize registers for Break, sends the Break signal and return
1438:.\Generated_Source\PSoC5/UART.c ****     *       imediately.
1439:.\Generated_Source\PSoC5/UART.c ****     *   1 - Wait until Break sending is complete, reinitialize registers to normal
1440:.\Generated_Source\PSoC5/UART.c ****     *       transmission mode then return.
1441:.\Generated_Source\PSoC5/UART.c ****     *   2 - Reinitialize registers to normal transmission mode then return.
1442:.\Generated_Source\PSoC5/UART.c ****     *   3 - both steps: 0 and 1
1443:.\Generated_Source\PSoC5/UART.c ****     *       init registers for Break, send Break signal
1444:.\Generated_Source\PSoC5/UART.c ****     *       wait until Break sending is complete, reinit registers to normal
1445:.\Generated_Source\PSoC5/UART.c ****     *       transmission mode then return.
1446:.\Generated_Source\PSoC5/UART.c ****     *
1447:.\Generated_Source\PSoC5/UART.c ****     * Return:
1448:.\Generated_Source\PSoC5/UART.c ****     *  None.
1449:.\Generated_Source\PSoC5/UART.c ****     *
1450:.\Generated_Source\PSoC5/UART.c ****     * Global Variables:
1451:.\Generated_Source\PSoC5/UART.c ****     *  UART_initVar - checked to identify that the component has been
1452:.\Generated_Source\PSoC5/UART.c ****     *     initialized.
1453:.\Generated_Source\PSoC5/UART.c ****     *  tx_period - static variable, used for keeping TX period configuration.
1454:.\Generated_Source\PSoC5/UART.c ****     *
1455:.\Generated_Source\PSoC5/UART.c ****     * Reentrant:
1456:.\Generated_Source\PSoC5/UART.c ****     *  No.
1457:.\Generated_Source\PSoC5/UART.c ****     *
1458:.\Generated_Source\PSoC5/UART.c ****     * Theory:
ARM GAS  C:\Users\RIEKOH~1\AppData\Local\Temp\cc1ugwpa.s 			page 48


1459:.\Generated_Source\PSoC5/UART.c ****     *  SendBreak function initializes registers to send 13-bit break signal. It is
1460:.\Generated_Source\PSoC5/UART.c ****     *  important to return the registers configuration to normal for continue 8-bit
1461:.\Generated_Source\PSoC5/UART.c ****     *  operation.
1462:.\Generated_Source\PSoC5/UART.c ****     *  Trere are 3 variants for this API usage:
1463:.\Generated_Source\PSoC5/UART.c ****     *  1) SendBreak(3) - function will send the Break signal and take care on the
1464:.\Generated_Source\PSoC5/UART.c ****     *     configuration returning. Funcition will block CPU untill transmition
1465:.\Generated_Source\PSoC5/UART.c ****     *     complete.
1466:.\Generated_Source\PSoC5/UART.c ****     *  2) User may want to use bloking time if UART configured to the low speed
1467:.\Generated_Source\PSoC5/UART.c ****     *     operation
1468:.\Generated_Source\PSoC5/UART.c ****     *     Emample for this case:
1469:.\Generated_Source\PSoC5/UART.c ****     *     SendBreak(0);     - init Break signal transmition
1470:.\Generated_Source\PSoC5/UART.c ****     *         Add your code here to use CPU time
1471:.\Generated_Source\PSoC5/UART.c ****     *     SendBreak(1);     - complete Break operation
1472:.\Generated_Source\PSoC5/UART.c ****     *  3) Same to 2) but user may want to init and use the interrupt for complete
1473:.\Generated_Source\PSoC5/UART.c ****     *     break operation.
1474:.\Generated_Source\PSoC5/UART.c ****     *     Example for this case:
1475:.\Generated_Source\PSoC5/UART.c ****     *     Init TX interrupt whith "TX - On TX Complete" parameter
1476:.\Generated_Source\PSoC5/UART.c ****     *     SendBreak(0);     - init Break signal transmition
1477:.\Generated_Source\PSoC5/UART.c ****     *         Add your code here to use CPU time
1478:.\Generated_Source\PSoC5/UART.c ****     *     When interrupt appear with UART_TX_STS_COMPLETE status:
1479:.\Generated_Source\PSoC5/UART.c ****     *     SendBreak(2);     - complete Break operation
1480:.\Generated_Source\PSoC5/UART.c ****     *
1481:.\Generated_Source\PSoC5/UART.c ****     * Side Effects:
1482:.\Generated_Source\PSoC5/UART.c ****     *   Uses static variable to keep registers configuration.
1483:.\Generated_Source\PSoC5/UART.c ****     *
1484:.\Generated_Source\PSoC5/UART.c ****     *******************************************************************************/
1485:.\Generated_Source\PSoC5/UART.c ****     void UART_SendBreak(uint8 retMode) 
1486:.\Generated_Source\PSoC5/UART.c ****     {
 1220              		.loc 1 1486 0
 1221              		.cfi_startproc
 1222              		@ args = 0, pretend = 0, frame = 16
 1223              		@ frame_needed = 1, uses_anonymous_args = 0
 1224              		@ link register save eliminated.
 1225 0000 80B4     		push	{r7}
 1226              	.LCFI70:
 1227              		.cfi_def_cfa_offset 4
 1228              		.cfi_offset 7, -4
 1229 0002 85B0     		sub	sp, sp, #20
 1230              	.LCFI71:
 1231              		.cfi_def_cfa_offset 24
 1232 0004 00AF     		add	r7, sp, #0
 1233              	.LCFI72:
 1234              		.cfi_def_cfa_register 7
 1235 0006 0346     		mov	r3, r0
 1236 0008 FB71     		strb	r3, [r7, #7]
1487:.\Generated_Source\PSoC5/UART.c **** 
1488:.\Generated_Source\PSoC5/UART.c ****         /* If not Initialized then skip this function*/
1489:.\Generated_Source\PSoC5/UART.c ****         if(UART_initVar != 0u)
 1237              		.loc 1 1489 0
 1238 000a 40F20003 		movw	r3, #:lower16:UART_initVar
 1239 000e C0F20003 		movt	r3, #:upper16:UART_initVar
 1240 0012 1B78     		ldrb	r3, [r3, #0]	@ zero_extendqisi2
 1241 0014 002B     		cmp	r3, #0
 1242 0016 50D0     		beq	.L49
 1243              	.LBB2:
1490:.\Generated_Source\PSoC5/UART.c ****         {
1491:.\Generated_Source\PSoC5/UART.c ****             /*Set the Counter to 13-bits and transmit a 00 byte*/
ARM GAS  C:\Users\RIEKOH~1\AppData\Local\Temp\cc1ugwpa.s 			page 49


1492:.\Generated_Source\PSoC5/UART.c ****             /*When that is done then reset the counter value back*/
1493:.\Generated_Source\PSoC5/UART.c ****             uint8 tmpStat;
1494:.\Generated_Source\PSoC5/UART.c **** 
1495:.\Generated_Source\PSoC5/UART.c ****             #if(UART_HD_ENABLED) /* Half Duplex mode*/
1496:.\Generated_Source\PSoC5/UART.c **** 
1497:.\Generated_Source\PSoC5/UART.c ****                 if( (retMode == UART_SEND_BREAK) ||
1498:.\Generated_Source\PSoC5/UART.c ****                     (retMode == UART_SEND_WAIT_REINIT ) )
1499:.\Generated_Source\PSoC5/UART.c ****                 {
1500:.\Generated_Source\PSoC5/UART.c ****                     /* CTRL_HD_SEND_BREAK - sends break bits in HD mode*/
1501:.\Generated_Source\PSoC5/UART.c ****                     UART_WriteControlRegister(UART_ReadControlRegister() |
1502:.\Generated_Source\PSoC5/UART.c ****                                                           UART_CTRL_HD_SEND_BREAK);
1503:.\Generated_Source\PSoC5/UART.c ****                     /* Send zeros*/
1504:.\Generated_Source\PSoC5/UART.c ****                     UART_TXDATA_REG = 0u;
1505:.\Generated_Source\PSoC5/UART.c **** 
1506:.\Generated_Source\PSoC5/UART.c ****                     do /*wait until transmit starts*/
1507:.\Generated_Source\PSoC5/UART.c ****                     {
1508:.\Generated_Source\PSoC5/UART.c ****                         tmpStat = UART_TXSTATUS_REG;
1509:.\Generated_Source\PSoC5/UART.c ****                     }while((tmpStat & UART_TX_STS_FIFO_EMPTY) != 0u);
1510:.\Generated_Source\PSoC5/UART.c ****                 }
1511:.\Generated_Source\PSoC5/UART.c **** 
1512:.\Generated_Source\PSoC5/UART.c ****                 if( (retMode == UART_WAIT_FOR_COMPLETE_REINIT) ||
1513:.\Generated_Source\PSoC5/UART.c ****                     (retMode == UART_SEND_WAIT_REINIT) )
1514:.\Generated_Source\PSoC5/UART.c ****                 {
1515:.\Generated_Source\PSoC5/UART.c ****                     do /*wait until transmit complete*/
1516:.\Generated_Source\PSoC5/UART.c ****                     {
1517:.\Generated_Source\PSoC5/UART.c ****                         tmpStat = UART_TXSTATUS_REG;
1518:.\Generated_Source\PSoC5/UART.c ****                     }while(((uint8)~tmpStat & UART_TX_STS_COMPLETE) != 0u);
1519:.\Generated_Source\PSoC5/UART.c ****                 }
1520:.\Generated_Source\PSoC5/UART.c **** 
1521:.\Generated_Source\PSoC5/UART.c ****                 if( (retMode == UART_WAIT_FOR_COMPLETE_REINIT) ||
1522:.\Generated_Source\PSoC5/UART.c ****                     (retMode == UART_REINIT) ||
1523:.\Generated_Source\PSoC5/UART.c ****                     (retMode == UART_SEND_WAIT_REINIT) )
1524:.\Generated_Source\PSoC5/UART.c ****                 {
1525:.\Generated_Source\PSoC5/UART.c ****                     UART_WriteControlRegister(UART_ReadControlRegister() &
1526:.\Generated_Source\PSoC5/UART.c ****                                                   (uint8)~UART_CTRL_HD_SEND_BREAK);
1527:.\Generated_Source\PSoC5/UART.c ****                 }
1528:.\Generated_Source\PSoC5/UART.c **** 
1529:.\Generated_Source\PSoC5/UART.c ****             #else /* UART_HD_ENABLED Full Duplex mode */
1530:.\Generated_Source\PSoC5/UART.c **** 
1531:.\Generated_Source\PSoC5/UART.c ****                 static uint8 tx_period;
1532:.\Generated_Source\PSoC5/UART.c **** 
1533:.\Generated_Source\PSoC5/UART.c ****                 if( (retMode == UART_SEND_BREAK) ||
 1244              		.loc 1 1533 0
 1245 0018 FB79     		ldrb	r3, [r7, #7]	@ zero_extendqisi2
 1246 001a 002B     		cmp	r3, #0
 1247 001c 02D0     		beq	.L51
 1248              		.loc 1 1533 0 is_stmt 0 discriminator 1
 1249 001e FB79     		ldrb	r3, [r7, #7]	@ zero_extendqisi2
 1250 0020 032B     		cmp	r3, #3
 1251 0022 23D1     		bne	.L52
 1252              	.L51:
1534:.\Generated_Source\PSoC5/UART.c ****                     (retMode == UART_SEND_WAIT_REINIT) )
1535:.\Generated_Source\PSoC5/UART.c ****                 {
1536:.\Generated_Source\PSoC5/UART.c ****                     /* CTRL_HD_SEND_BREAK - skip to send parity bit at Break signal in Full Duplex 
1537:.\Generated_Source\PSoC5/UART.c ****                     #if( (UART_PARITY_TYPE != UART__B_UART__NONE_REVB) || \
1538:.\Generated_Source\PSoC5/UART.c ****                                         (UART_PARITY_TYPE_SW != 0u) )
1539:.\Generated_Source\PSoC5/UART.c ****                         UART_WriteControlRegister(UART_ReadControlRegister() |
ARM GAS  C:\Users\RIEKOH~1\AppData\Local\Temp\cc1ugwpa.s 			page 50


1540:.\Generated_Source\PSoC5/UART.c ****                                                               UART_CTRL_HD_SEND_BREAK);
1541:.\Generated_Source\PSoC5/UART.c ****                     #endif /* End UART_PARITY_TYPE != UART__B_UART__NONE_REVB  */
1542:.\Generated_Source\PSoC5/UART.c **** 
1543:.\Generated_Source\PSoC5/UART.c ****                     #if(UART_TXCLKGEN_DP)
1544:.\Generated_Source\PSoC5/UART.c ****                         tx_period = UART_TXBITCLKTX_COMPLETE_REG;
 1253              		.loc 1 1544 0 is_stmt 1
 1254 0024 46F23343 		movw	r3, #25651
 1255 0028 C4F20003 		movt	r3, 16384
 1256 002c 1B78     		ldrb	r3, [r3, #0]
 1257 002e DAB2     		uxtb	r2, r3
 1258 0030 40F20003 		movw	r3, #:lower16:tx_period.4895
 1259 0034 C0F20003 		movt	r3, #:upper16:tx_period.4895
 1260 0038 1A70     		strb	r2, [r3, #0]
1545:.\Generated_Source\PSoC5/UART.c ****                         UART_TXBITCLKTX_COMPLETE_REG = UART_TXBITCTR_BREAKBITS;
 1261              		.loc 1 1545 0
 1262 003a 46F23343 		movw	r3, #25651
 1263 003e C4F20003 		movt	r3, 16384
 1264 0042 4FF06702 		mov	r2, #103
 1265 0046 1A70     		strb	r2, [r3, #0]
1546:.\Generated_Source\PSoC5/UART.c ****                     #else
1547:.\Generated_Source\PSoC5/UART.c ****                         tx_period = UART_TXBITCTR_PERIOD_REG;
1548:.\Generated_Source\PSoC5/UART.c ****                         UART_TXBITCTR_PERIOD_REG = UART_TXBITCTR_BREAKBITS8X;
1549:.\Generated_Source\PSoC5/UART.c ****                     #endif /* End UART_TXCLKGEN_DP */
1550:.\Generated_Source\PSoC5/UART.c **** 
1551:.\Generated_Source\PSoC5/UART.c ****                     /* Send zeros*/
1552:.\Generated_Source\PSoC5/UART.c ****                     UART_TXDATA_REG = 0u;
 1266              		.loc 1 1552 0
 1267 0048 46F24543 		movw	r3, #25669
 1268 004c C4F20003 		movt	r3, 16384
 1269 0050 4FF00002 		mov	r2, #0
 1270 0054 1A70     		strb	r2, [r3, #0]
 1271              	.L53:
1553:.\Generated_Source\PSoC5/UART.c **** 
1554:.\Generated_Source\PSoC5/UART.c ****                     do /* wait until transmit starts */
1555:.\Generated_Source\PSoC5/UART.c ****                     {
1556:.\Generated_Source\PSoC5/UART.c ****                         tmpStat = UART_TXSTATUS_REG;
 1272              		.loc 1 1556 0 discriminator 1
 1273 0056 46F26643 		movw	r3, #25702
 1274 005a C4F20003 		movt	r3, 16384
 1275 005e 1B78     		ldrb	r3, [r3, #0]
 1276 0060 FB73     		strb	r3, [r7, #15]
1557:.\Generated_Source\PSoC5/UART.c ****                     }while((tmpStat & UART_TX_STS_FIFO_EMPTY) != 0u);
 1277              		.loc 1 1557 0 discriminator 1
 1278 0062 FB7B     		ldrb	r3, [r7, #15]	@ zero_extendqisi2
 1279 0064 03F00203 		and	r3, r3, #2
 1280 0068 002B     		cmp	r3, #0
 1281 006a F4D1     		bne	.L53
 1282              	.L52:
1558:.\Generated_Source\PSoC5/UART.c ****                 }
1559:.\Generated_Source\PSoC5/UART.c **** 
1560:.\Generated_Source\PSoC5/UART.c ****                 if( (retMode == UART_WAIT_FOR_COMPLETE_REINIT) ||
 1283              		.loc 1 1560 0
 1284 006c FB79     		ldrb	r3, [r7, #7]	@ zero_extendqisi2
 1285 006e 012B     		cmp	r3, #1
 1286 0070 02D0     		beq	.L54
 1287              		.loc 1 1560 0 is_stmt 0 discriminator 1
 1288 0072 FB79     		ldrb	r3, [r7, #7]	@ zero_extendqisi2
ARM GAS  C:\Users\RIEKOH~1\AppData\Local\Temp\cc1ugwpa.s 			page 51


 1289 0074 032B     		cmp	r3, #3
 1290 0076 0DD1     		bne	.L55
 1291              	.L54:
1561:.\Generated_Source\PSoC5/UART.c ****                     (retMode == UART_SEND_WAIT_REINIT) )
1562:.\Generated_Source\PSoC5/UART.c ****                 {
1563:.\Generated_Source\PSoC5/UART.c ****                     do /*wait until transmit complete*/
1564:.\Generated_Source\PSoC5/UART.c ****                     {
1565:.\Generated_Source\PSoC5/UART.c ****                         tmpStat = UART_TXSTATUS_REG;
 1292              		.loc 1 1565 0 is_stmt 1 discriminator 1
 1293 0078 46F26643 		movw	r3, #25702
 1294 007c C4F20003 		movt	r3, 16384
 1295 0080 1B78     		ldrb	r3, [r3, #0]
 1296 0082 FB73     		strb	r3, [r7, #15]
1566:.\Generated_Source\PSoC5/UART.c ****                     }while(((uint8)~tmpStat & UART_TX_STS_COMPLETE) != 0u);
 1297              		.loc 1 1566 0 discriminator 1
 1298 0084 FB7B     		ldrb	r3, [r7, #15]
 1299 0086 6FEA0303 		mvn	r3, r3
 1300 008a DBB2     		uxtb	r3, r3
 1301 008c 03F00103 		and	r3, r3, #1
 1302 0090 002B     		cmp	r3, #0
 1303 0092 F1D1     		bne	.L54
 1304              	.L55:
1567:.\Generated_Source\PSoC5/UART.c ****                 }
1568:.\Generated_Source\PSoC5/UART.c **** 
1569:.\Generated_Source\PSoC5/UART.c ****                 if( (retMode == UART_WAIT_FOR_COMPLETE_REINIT) ||
 1305              		.loc 1 1569 0
 1306 0094 FB79     		ldrb	r3, [r7, #7]	@ zero_extendqisi2
 1307 0096 012B     		cmp	r3, #1
 1308 0098 05D0     		beq	.L56
 1309              		.loc 1 1569 0 is_stmt 0 discriminator 1
 1310 009a FB79     		ldrb	r3, [r7, #7]	@ zero_extendqisi2
 1311 009c 022B     		cmp	r3, #2
 1312 009e 02D0     		beq	.L56
1570:.\Generated_Source\PSoC5/UART.c ****                     (retMode == UART_REINIT) ||
 1313              		.loc 1 1570 0 is_stmt 1
 1314 00a0 FB79     		ldrb	r3, [r7, #7]	@ zero_extendqisi2
 1315 00a2 032B     		cmp	r3, #3
 1316 00a4 09D1     		bne	.L49
 1317              	.L56:
1571:.\Generated_Source\PSoC5/UART.c ****                     (retMode == UART_SEND_WAIT_REINIT) )
1572:.\Generated_Source\PSoC5/UART.c ****                 {
1573:.\Generated_Source\PSoC5/UART.c **** 
1574:.\Generated_Source\PSoC5/UART.c ****                     #if(UART_TXCLKGEN_DP)
1575:.\Generated_Source\PSoC5/UART.c ****                         UART_TXBITCLKTX_COMPLETE_REG = tx_period;
 1318              		.loc 1 1575 0
 1319 00a6 46F23343 		movw	r3, #25651
 1320 00aa C4F20003 		movt	r3, 16384
 1321 00ae 40F20002 		movw	r2, #:lower16:tx_period.4895
 1322 00b2 C0F20002 		movt	r2, #:upper16:tx_period.4895
 1323 00b6 1278     		ldrb	r2, [r2, #0]	@ zero_extendqisi2
 1324 00b8 1A70     		strb	r2, [r3, #0]
 1325              	.L49:
 1326              	.LBE2:
1576:.\Generated_Source\PSoC5/UART.c ****                     #else
1577:.\Generated_Source\PSoC5/UART.c ****                         UART_TXBITCTR_PERIOD_REG = tx_period;
1578:.\Generated_Source\PSoC5/UART.c ****                     #endif /* End UART_TXCLKGEN_DP */
1579:.\Generated_Source\PSoC5/UART.c **** 
ARM GAS  C:\Users\RIEKOH~1\AppData\Local\Temp\cc1ugwpa.s 			page 52


1580:.\Generated_Source\PSoC5/UART.c ****                     #if( (UART_PARITY_TYPE != UART__B_UART__NONE_REVB) || \
1581:.\Generated_Source\PSoC5/UART.c ****                          (UART_PARITY_TYPE_SW != 0u) )
1582:.\Generated_Source\PSoC5/UART.c ****                         UART_WriteControlRegister(UART_ReadControlRegister() &
1583:.\Generated_Source\PSoC5/UART.c ****                                                       (uint8)~UART_CTRL_HD_SEND_BREAK);
1584:.\Generated_Source\PSoC5/UART.c ****                     #endif /* End UART_PARITY_TYPE != NONE */
1585:.\Generated_Source\PSoC5/UART.c ****                 }
1586:.\Generated_Source\PSoC5/UART.c ****             #endif    /* End UART_HD_ENABLED */
1587:.\Generated_Source\PSoC5/UART.c ****         }
1588:.\Generated_Source\PSoC5/UART.c ****     }
 1327              		.loc 1 1588 0
 1328 00ba 07F11407 		add	r7, r7, #20
 1329 00be BD46     		mov	sp, r7
 1330 00c0 80BC     		pop	{r7}
 1331 00c2 7047     		bx	lr
 1332              		.cfi_endproc
 1333              	.LFE25:
 1334              		.size	UART_SendBreak, .-UART_SendBreak
 1335              		.section	.text.UART_SetTxAddressMode,"ax",%progbits
 1336              		.align	2
 1337              		.global	UART_SetTxAddressMode
 1338              		.thumb
 1339              		.thumb_func
 1340              		.type	UART_SetTxAddressMode, %function
 1341              	UART_SetTxAddressMode:
 1342              	.LFB26:
1589:.\Generated_Source\PSoC5/UART.c **** 
1590:.\Generated_Source\PSoC5/UART.c **** 
1591:.\Generated_Source\PSoC5/UART.c ****     /*******************************************************************************
1592:.\Generated_Source\PSoC5/UART.c ****     * Function Name: UART_SetTxAddressMode
1593:.\Generated_Source\PSoC5/UART.c ****     ********************************************************************************
1594:.\Generated_Source\PSoC5/UART.c ****     *
1595:.\Generated_Source\PSoC5/UART.c ****     * Summary:
1596:.\Generated_Source\PSoC5/UART.c ****     *  Set the transmit addressing mode
1597:.\Generated_Source\PSoC5/UART.c ****     *
1598:.\Generated_Source\PSoC5/UART.c ****     * Parameters:
1599:.\Generated_Source\PSoC5/UART.c ****     *  addressMode: 0 -> Space
1600:.\Generated_Source\PSoC5/UART.c ****     *               1 -> Mark
1601:.\Generated_Source\PSoC5/UART.c ****     *
1602:.\Generated_Source\PSoC5/UART.c ****     * Return:
1603:.\Generated_Source\PSoC5/UART.c ****     *  None.
1604:.\Generated_Source\PSoC5/UART.c ****     *
1605:.\Generated_Source\PSoC5/UART.c ****     *******************************************************************************/
1606:.\Generated_Source\PSoC5/UART.c ****     void UART_SetTxAddressMode(uint8 addressMode) 
1607:.\Generated_Source\PSoC5/UART.c ****     {
 1343              		.loc 1 1607 0
 1344              		.cfi_startproc
 1345              		@ args = 0, pretend = 0, frame = 8
 1346              		@ frame_needed = 1, uses_anonymous_args = 0
 1347              		@ link register save eliminated.
 1348 0000 80B4     		push	{r7}
 1349              	.LCFI73:
 1350              		.cfi_def_cfa_offset 4
 1351              		.cfi_offset 7, -4
 1352 0002 83B0     		sub	sp, sp, #12
 1353              	.LCFI74:
 1354              		.cfi_def_cfa_offset 16
 1355 0004 00AF     		add	r7, sp, #0
ARM GAS  C:\Users\RIEKOH~1\AppData\Local\Temp\cc1ugwpa.s 			page 53


 1356              	.LCFI75:
 1357              		.cfi_def_cfa_register 7
 1358 0006 0346     		mov	r3, r0
 1359 0008 FB71     		strb	r3, [r7, #7]
1608:.\Generated_Source\PSoC5/UART.c ****         /* Mark/Space sending enable*/
1609:.\Generated_Source\PSoC5/UART.c ****         if(addressMode != 0u)
1610:.\Generated_Source\PSoC5/UART.c ****         {
1611:.\Generated_Source\PSoC5/UART.c ****             #if( UART_CONTROL_REG_REMOVED == 0u )
1612:.\Generated_Source\PSoC5/UART.c ****                 UART_WriteControlRegister(UART_ReadControlRegister() |
1613:.\Generated_Source\PSoC5/UART.c ****                                                       UART_CTRL_MARK);
1614:.\Generated_Source\PSoC5/UART.c ****             #endif /* End UART_CONTROL_REG_REMOVED == 0u */
1615:.\Generated_Source\PSoC5/UART.c ****         }
1616:.\Generated_Source\PSoC5/UART.c ****         else
1617:.\Generated_Source\PSoC5/UART.c ****         {
1618:.\Generated_Source\PSoC5/UART.c ****             #if( UART_CONTROL_REG_REMOVED == 0u )
1619:.\Generated_Source\PSoC5/UART.c ****                 UART_WriteControlRegister(UART_ReadControlRegister() &
1620:.\Generated_Source\PSoC5/UART.c ****                                                     (uint8)~UART_CTRL_MARK);
1621:.\Generated_Source\PSoC5/UART.c ****             #endif /* End UART_CONTROL_REG_REMOVED == 0u */
1622:.\Generated_Source\PSoC5/UART.c ****         }
1623:.\Generated_Source\PSoC5/UART.c ****     }
 1360              		.loc 1 1623 0
 1361 000a 07F10C07 		add	r7, r7, #12
 1362 000e BD46     		mov	sp, r7
 1363 0010 80BC     		pop	{r7}
 1364 0012 7047     		bx	lr
 1365              		.cfi_endproc
 1366              	.LFE26:
 1367              		.size	UART_SetTxAddressMode, .-UART_SetTxAddressMode
 1368              		.bss
 1369              	tx_period.4895:
 1370 0001 00       		.space	1
 1371              		.text
 1372              	.Letext0:
 1373              		.file 2 ".\\Generated_Source\\PSoC5\\cytypes.h"
