ARM GAS  C:\Users\RIEKOH~1\AppData\Local\Temp\ccmda2Tf.s 			page 1


   1              		.syntax unified
   2              		.cpu cortex-m3
   3              		.fpu softvfp
   4              		.eabi_attribute 20, 1
   5              		.eabi_attribute 21, 1
   6              		.eabi_attribute 23, 3
   7              		.eabi_attribute 24, 1
   8              		.eabi_attribute 25, 1
   9              		.eabi_attribute 26, 1
  10              		.eabi_attribute 30, 6
  11              		.eabi_attribute 34, 1
  12              		.eabi_attribute 18, 4
  13              		.thumb
  14              		.file	"main.c"
  15              		.text
  16              	.Ltext0:
  17              		.cfi_sections	.debug_frame
  18              		.comm	aileronR,4,4
  19              		.comm	aileronR_buffer,4,4
  20              		.comm	aileronR_before,4,4
  21              		.comm	pak,6,4
  22              		.section	.text.main,"ax",%progbits
  23              		.align	2
  24              		.global	main
  25              		.thumb
  26              		.thumb_func
  27              		.type	main, %function
  28              	main:
  29              	.LFB56:
  30              		.file 1 ".\\main.c"
   1:.\main.c      **** /* ========================================
   2:.\main.c      ****  * aileronR14 version 1.0 2014/4/25
   3:.\main.c      ****  * 1...right 2...left
   4:.\main.c      ****  *
   5:.\main.c      ****  * 元ファイルです
   6:.\main.c      ****  * ========================================
   7:.\main.c      **** */
   8:.\main.c      **** #include <project.h>
   9:.\main.c      **** 
  10:.\main.c      **** #define WRITE()		DE_Write(1)
  11:.\main.c      **** #define	READ()		DE_Write(0)
  12:.\main.c      **** 
  13:.\main.c      **** #define	RS485_PACKET_LENGTH	(6)
  14:.\main.c      **** 
  15:.\main.c      **** typedef union _tagRS485_PACKET {
  16:.\main.c      **** 	struct {
  17:.\main.c      **** 		unsigned char bStatus;
  18:.\main.c      **** 		unsigned char bCheckSum;
  19:.\main.c      **** 		unsigned short wData[2];
  20:.\main.c      **** 	} _pak;
  21:.\main.c      **** 	unsigned char _byte[RS485_PACKET_LENGTH];
  22:.\main.c      **** } PACKET;
  23:.\main.c      **** 
  24:.\main.c      **** void rs485_Start(void);
  25:.\main.c      **** void rs485_isr(void);
  26:.\main.c      **** char rs485_CheckPacket(char, PACKET*);
  27:.\main.c      **** char CheckValid(PACKET *);
ARM GAS  C:\Users\RIEKOH~1\AppData\Local\Temp\ccmda2Tf.s 			page 2


  28:.\main.c      **** void Servo_Start(void);
  29:.\main.c      **** void Terminal_Count_ISR(void);
  30:.\main.c      **** unsigned int FormatValueAilR(unsigned short);
  31:.\main.c      **** int CenterStatus(void);
  32:.\main.c      **** 
  33:.\main.c      **** #define	PACKET_ENDIANCHANGE(x)	{\
  34:.\main.c      **** 	char temp; \
  35:.\main.c      **** 	temp = x->_byte[2]; \
  36:.\main.c      **** 	x->_byte[2] = x->_byte[3]; \
  37:.\main.c      **** 	x->_byte[3] = temp; \
  38:.\main.c      **** 	temp = x->_byte[4]; \
  39:.\main.c      **** 	x->_byte[4] = x->_byte[5]; \
  40:.\main.c      **** 	x->_byte[5] = temp; \
  41:.\main.c      **** 	}
  42:.\main.c      **** 
  43:.\main.c      **** #define PACKET_CLEAR(x) {\
  44:.\main.c      ****     x->_byte[0] = 0; \
  45:.\main.c      ****     x->_byte[1] = 0; \
  46:.\main.c      ****     x->_byte[2] = 0; \
  47:.\main.c      ****     x->_byte[3] = 0; \
  48:.\main.c      ****     x->_byte[4] = 0; \
  49:.\main.c      ****     x->_byte[5] = 0; \
  50:.\main.c      ****     }
  51:.\main.c      **** 
  52:.\main.c      **** //Global variable here.
  53:.\main.c      **** 
  54:.\main.c      **** unsigned int aileronR,aileronR_buffer,aileronR_before;
  55:.\main.c      **** PACKET pak;
  56:.\main.c      **** 
  57:.\main.c      **** void main(){ 
  31              		.loc 1 57 0
  32              		.cfi_startproc
  33              		@ args = 0, pretend = 0, frame = 0
  34              		@ frame_needed = 1, uses_anonymous_args = 0
  35 0000 80B5     		push	{r7, lr}
  36              	.LCFI0:
  37              		.cfi_def_cfa_offset 8
  38              		.cfi_offset 7, -8
  39              		.cfi_offset 14, -4
  40 0002 00AF     		add	r7, sp, #0
  41              	.LCFI1:
  42              		.cfi_def_cfa_register 7
  58:.\main.c      ****     rs485_Start();   
  43              		.loc 1 58 0
  44 0004 FFF7FEFF 		bl	rs485_Start
  59:.\main.c      ****     Servo_Start();
  45              		.loc 1 59 0
  46 0008 FFF7FEFF 		bl	Servo_Start
  60:.\main.c      ****     CyGlobalIntEnable;  // Uncomment this line to enable global interrupts. 
  47              		.loc 1 60 0
  48              	@ 60 ".\main.c" 1
  49 000c 62B6     		CPSIE   i
  50              	@ 0 "" 2
  51              		.thumb
  52 000e 00E0     		b	.L4
  53              	.L5:
  61:.\main.c      **** 	while(1) {
ARM GAS  C:\Users\RIEKOH~1\AppData\Local\Temp\ccmda2Tf.s 			page 3


  62:.\main.c      **** 		if(rs485_CheckPacket(0x3C, &pak)==0) {
  63:.\main.c      **** //            LED_2_Write(1);
  64:.\main.c      **** //            LED_1_Write(0);
  65:.\main.c      ****             if(CheckValid(&pak)==1) {
  66:.\main.c      ****                 aileronR_buffer = pak._pak.wData[0];
  67:.\main.c      **** //                PWM_1_WriteCompare1(FormatValueAilR(aileronR_buffer));
  68:.\main.c      ****                 LED_2_Write(1);
  69:.\main.c      ****                 LED_1_Write(0);
  70:.\main.c      ****             } else {
  71:.\main.c      ****                 LED_2_Write(0);
  72:.\main.c      ****                 LED_1_Write(1);
  73:.\main.c      ****             }
  74:.\main.c      ****         } else {
  75:.\main.c      **** //            LED_2_Write(1);
  76:.\main.c      **** //            LED_1_Write(1);
  77:.\main.c      ****         } 
  78:.\main.c      **** 	}
  54              		.loc 1 78 0
  55 0010 00BF     		nop
  56              	.L4:
  62:.\main.c      **** 		if(rs485_CheckPacket(0x3C, &pak)==0) {
  57              		.loc 1 62 0
  58 0012 4FF03C00 		mov	r0, #60
  59 0016 40F20001 		movw	r1, #:lower16:pak
  60 001a C0F20001 		movt	r1, #:upper16:pak
  61 001e FFF7FEFF 		bl	rs485_CheckPacket
  62 0022 0346     		mov	r3, r0
  63 0024 002B     		cmp	r3, #0
  64 0026 F3D1     		bne	.L5
  65:.\main.c      ****             if(CheckValid(&pak)==1) {
  65              		.loc 1 65 0
  66 0028 40F20000 		movw	r0, #:lower16:pak
  67 002c C0F20000 		movt	r0, #:upper16:pak
  68 0030 FFF7FEFF 		bl	CheckValid
  69 0034 0346     		mov	r3, r0
  70 0036 012B     		cmp	r3, #1
  71 0038 13D1     		bne	.L3
  66:.\main.c      ****                 aileronR_buffer = pak._pak.wData[0];
  72              		.loc 1 66 0
  73 003a 40F20003 		movw	r3, #:lower16:pak
  74 003e C0F20003 		movt	r3, #:upper16:pak
  75 0042 5B88     		ldrh	r3, [r3, #2]
  76 0044 1A46     		mov	r2, r3
  77 0046 40F20003 		movw	r3, #:lower16:aileronR_buffer
  78 004a C0F20003 		movt	r3, #:upper16:aileronR_buffer
  79 004e 1A60     		str	r2, [r3, #0]
  68:.\main.c      ****                 LED_2_Write(1);
  80              		.loc 1 68 0
  81 0050 4FF00100 		mov	r0, #1
  82 0054 FFF7FEFF 		bl	LED_2_Write
  69:.\main.c      ****                 LED_1_Write(0);
  83              		.loc 1 69 0
  84 0058 4FF00000 		mov	r0, #0
  85 005c FFF7FEFF 		bl	LED_1_Write
  86              		.loc 1 78 0
  87 0060 D6E7     		b	.L5
  88              	.L3:
ARM GAS  C:\Users\RIEKOH~1\AppData\Local\Temp\ccmda2Tf.s 			page 4


  71:.\main.c      ****                 LED_2_Write(0);
  89              		.loc 1 71 0
  90 0062 4FF00000 		mov	r0, #0
  91 0066 FFF7FEFF 		bl	LED_2_Write
  72:.\main.c      ****                 LED_1_Write(1);
  92              		.loc 1 72 0
  93 006a 4FF00100 		mov	r0, #1
  94 006e FFF7FEFF 		bl	LED_1_Write
  95              		.loc 1 78 0
  96 0072 CDE7     		b	.L5
  97              		.cfi_endproc
  98              	.LFE56:
  99              		.size	main, .-main
 100              		.section	.text.Timer_Set,"ax",%progbits
 101              		.align	2
 102              		.global	Timer_Set
 103              		.thumb
 104              		.thumb_func
 105              		.type	Timer_Set, %function
 106              	Timer_Set:
 107              	.LFB57:
  79:.\main.c      ****     return;
  80:.\main.c      **** }
  81:.\main.c      **** 
  82:.\main.c      **** void Timer_Set(unsigned int ms){
 108              		.loc 1 82 0
 109              		.cfi_startproc
 110              		@ args = 0, pretend = 0, frame = 8
 111              		@ frame_needed = 1, uses_anonymous_args = 0
 112 0000 80B5     		push	{r7, lr}
 113              	.LCFI2:
 114              		.cfi_def_cfa_offset 8
 115              		.cfi_offset 7, -8
 116              		.cfi_offset 14, -4
 117 0002 82B0     		sub	sp, sp, #8
 118              	.LCFI3:
 119              		.cfi_def_cfa_offset 16
 120 0004 00AF     		add	r7, sp, #0
 121              	.LCFI4:
 122              		.cfi_def_cfa_register 7
 123 0006 7860     		str	r0, [r7, #4]
  83:.\main.c      **** 	Timer_WriteCounter(ms);
 124              		.loc 1 83 0
 125 0008 7B68     		ldr	r3, [r7, #4]
 126 000a 9BB2     		uxth	r3, r3
 127 000c 1846     		mov	r0, r3
 128 000e FFF7FEFF 		bl	Timer_WriteCounter
  84:.\main.c      **** 	return;
 129              		.loc 1 84 0
 130 0012 00BF     		nop
  85:.\main.c      **** }
 131              		.loc 1 85 0
 132 0014 07F10807 		add	r7, r7, #8
 133 0018 BD46     		mov	sp, r7
 134 001a 80BD     		pop	{r7, pc}
 135              		.cfi_endproc
 136              	.LFE57:
ARM GAS  C:\Users\RIEKOH~1\AppData\Local\Temp\ccmda2Tf.s 			page 5


 137              		.size	Timer_Set, .-Timer_Set
 138              		.section	.text.Timer_Delayus,"ax",%progbits
 139              		.align	2
 140              		.global	Timer_Delayus
 141              		.thumb
 142              		.thumb_func
 143              		.type	Timer_Delayus, %function
 144              	Timer_Delayus:
 145              	.LFB58:
  86:.\main.c      **** 
  87:.\main.c      **** void Timer_Delayus(unsigned int us){
 146              		.loc 1 87 0
 147              		.cfi_startproc
 148              		@ args = 0, pretend = 0, frame = 8
 149              		@ frame_needed = 1, uses_anonymous_args = 0
 150 0000 80B5     		push	{r7, lr}
 151              	.LCFI5:
 152              		.cfi_def_cfa_offset 8
 153              		.cfi_offset 7, -8
 154              		.cfi_offset 14, -4
 155 0002 82B0     		sub	sp, sp, #8
 156              	.LCFI6:
 157              		.cfi_def_cfa_offset 16
 158 0004 00AF     		add	r7, sp, #0
 159              	.LCFI7:
 160              		.cfi_def_cfa_register 7
 161 0006 7860     		str	r0, [r7, #4]
  88:.\main.c      **** 	Timer_Set(us + 50);
 162              		.loc 1 88 0
 163 0008 7B68     		ldr	r3, [r7, #4]
 164 000a 03F13203 		add	r3, r3, #50
 165 000e 1846     		mov	r0, r3
 166 0010 FFF7FEFF 		bl	Timer_Set
  89:.\main.c      **** 	while(Timer_ReadCounter() > 50) {}
 167              		.loc 1 89 0
 168 0014 00BF     		nop
 169              	.L9:
 170              		.loc 1 89 0 is_stmt 0 discriminator 1
 171 0016 FFF7FEFF 		bl	Timer_ReadCounter
 172 001a 0346     		mov	r3, r0
 173 001c 322B     		cmp	r3, #50
 174 001e FAD8     		bhi	.L9
  90:.\main.c      **** 	return;
 175              		.loc 1 90 0 is_stmt 1
 176 0020 00BF     		nop
  91:.\main.c      **** }
 177              		.loc 1 91 0
 178 0022 07F10807 		add	r7, r7, #8
 179 0026 BD46     		mov	sp, r7
 180 0028 80BD     		pop	{r7, pc}
 181              		.cfi_endproc
 182              	.LFE58:
 183              		.size	Timer_Delayus, .-Timer_Delayus
 184 002a 00BF     		.section	.text.rs485_Start,"ax",%progbits
 185              		.align	2
 186              		.global	rs485_Start
 187              		.thumb
ARM GAS  C:\Users\RIEKOH~1\AppData\Local\Temp\ccmda2Tf.s 			page 6


 188              		.thumb_func
 189              		.type	rs485_Start, %function
 190              	rs485_Start:
 191              	.LFB59:
  92:.\main.c      **** 
  93:.\main.c      **** void rs485_Start(void){
 192              		.loc 1 93 0
 193              		.cfi_startproc
 194              		@ args = 0, pretend = 0, frame = 0
 195              		@ frame_needed = 1, uses_anonymous_args = 0
 196 0000 80B5     		push	{r7, lr}
 197              	.LCFI8:
 198              		.cfi_def_cfa_offset 8
 199              		.cfi_offset 7, -8
 200              		.cfi_offset 14, -4
 201 0002 00AF     		add	r7, sp, #0
 202              	.LCFI9:
 203              		.cfi_def_cfa_register 7
  94:.\main.c      **** 	UART_Start();
 204              		.loc 1 94 0
 205 0004 FFF7FEFF 		bl	UART_Start
  95:.\main.c      **** 	Timer_Start();
 206              		.loc 1 95 0
 207 0008 FFF7FEFF 		bl	Timer_Start
  96:.\main.c      **** 	return;
 208              		.loc 1 96 0
 209 000c 00BF     		nop
  97:.\main.c      **** }
 210              		.loc 1 97 0
 211 000e 80BD     		pop	{r7, pc}
 212              		.cfi_endproc
 213              	.LFE59:
 214              		.size	rs485_Start, .-rs485_Start
 215              		.section	.text.rs485_CheckPacket,"ax",%progbits
 216              		.align	2
 217              		.global	rs485_CheckPacket
 218              		.thumb
 219              		.thumb_func
 220              		.type	rs485_CheckPacket, %function
 221              	rs485_CheckPacket:
 222              	.LFB60:
  98:.\main.c      **** 
  99:.\main.c      **** /*
 100:.\main.c      ****  * rs485_CheckPacket
 101:.\main.c      ****  * 複数アドレス対応版 ビット3-6が一致で応答
 102:.\main.c      ****  * addr : device address (7bit unsigned)
 103:.\main.c      ****  * pak : pointer to PACKET structure
 104:.\main.c      ****  */
 105:.\main.c      **** char rs485_CheckPacket(
 106:.\main.c      **** 	char addr,
 107:.\main.c      **** 	PACKET *pak)
 108:.\main.c      **** {
 223              		.loc 1 108 0
 224              		.cfi_startproc
 225              		@ args = 0, pretend = 0, frame = 16
 226              		@ frame_needed = 1, uses_anonymous_args = 0
 227 0000 90B5     		push	{r4, r7, lr}
ARM GAS  C:\Users\RIEKOH~1\AppData\Local\Temp\ccmda2Tf.s 			page 7


 228              	.LCFI10:
 229              		.cfi_def_cfa_offset 12
 230              		.cfi_offset 4, -12
 231              		.cfi_offset 7, -8
 232              		.cfi_offset 14, -4
 233 0002 85B0     		sub	sp, sp, #20
 234              	.LCFI11:
 235              		.cfi_def_cfa_offset 32
 236 0004 00AF     		add	r7, sp, #0
 237              	.LCFI12:
 238              		.cfi_def_cfa_register 7
 239 0006 0346     		mov	r3, r0
 240 0008 3960     		str	r1, [r7, #0]
 241 000a FB71     		strb	r3, [r7, #7]
 109:.\main.c      **** 	char rcv;
 110:.\main.c      **** 	unsigned char i;
 111:.\main.c      **** 	
 112:.\main.c      **** 	if((UART_ReadRxStatus() & UART_RX_STS_FIFO_NOTEMPTY) == 0)
 242              		.loc 1 112 0
 243 000c FFF7FEFF 		bl	UART_ReadRxStatus
 244 0010 0346     		mov	r3, r0
 245 0012 03F02003 		and	r3, r3, #32
 246 0016 002B     		cmp	r3, #0
 247 0018 06D1     		bne	.L14
 113:.\main.c      **** 	{
 114:.\main.c      **** //        LED_1_Write(1);
 115:.\main.c      **** 		READ();
 248              		.loc 1 115 0
 249 001a 4FF00000 		mov	r0, #0
 250 001e FFF7FEFF 		bl	DE_Write
 116:.\main.c      **** 		return 1;
 251              		.loc 1 116 0
 252 0022 4FF00103 		mov	r3, #1
 253 0026 CCE0     		b	.L15
 254              	.L14:
 117:.\main.c      **** 	}
 118:.\main.c      **** //	LED_1_Write(1);
 119:.\main.c      **** 	PACKET_CLEAR(pak);
 255              		.loc 1 119 0
 256 0028 3B68     		ldr	r3, [r7, #0]
 257 002a 4FF00002 		mov	r2, #0
 258 002e 1A70     		strb	r2, [r3, #0]
 259 0030 3B68     		ldr	r3, [r7, #0]
 260 0032 4FF00002 		mov	r2, #0
 261 0036 5A70     		strb	r2, [r3, #1]
 262 0038 3B68     		ldr	r3, [r7, #0]
 263 003a 4FF00002 		mov	r2, #0
 264 003e 9A70     		strb	r2, [r3, #2]
 265 0040 3B68     		ldr	r3, [r7, #0]
 266 0042 4FF00002 		mov	r2, #0
 267 0046 DA70     		strb	r2, [r3, #3]
 268 0048 3B68     		ldr	r3, [r7, #0]
 269 004a 4FF00002 		mov	r2, #0
 270 004e 1A71     		strb	r2, [r3, #4]
 271 0050 3B68     		ldr	r3, [r7, #0]
 272 0052 4FF00002 		mov	r2, #0
 273 0056 5A71     		strb	r2, [r3, #5]
ARM GAS  C:\Users\RIEKOH~1\AppData\Local\Temp\ccmda2Tf.s 			page 8


 120:.\main.c      **** 	rcv = UART_ReadRxData();
 274              		.loc 1 120 0
 275 0058 FFF7FEFF 		bl	UART_ReadRxData
 276 005c 0346     		mov	r3, r0
 277 005e BB73     		strb	r3, [r7, #14]
 121:.\main.c      **** 	UART_ClearRxBuffer();
 278              		.loc 1 121 0
 279 0060 FFF7FEFF 		bl	UART_ClearRxBuffer
 122:.\main.c      **** 	if(addr != (rcv & 0x7f)){
 280              		.loc 1 122 0
 281 0064 FA79     		ldrb	r2, [r7, #7]	@ zero_extendqisi2
 282 0066 BB7B     		ldrb	r3, [r7, #14]	@ zero_extendqisi2
 283 0068 03F07F03 		and	r3, r3, #127
 284 006c 9A42     		cmp	r2, r3
 285 006e 22D0     		beq	.L16
 123:.\main.c      **** 		Timer_Set(200);
 286              		.loc 1 123 0
 287 0070 4FF0C800 		mov	r0, #200
 288 0074 FFF7FEFF 		bl	Timer_Set
 124:.\main.c      **** 		READ();
 289              		.loc 1 124 0
 290 0078 4FF00000 		mov	r0, #0
 291 007c FFF7FEFF 		bl	DE_Write
 125:.\main.c      **** 		while(Timer_ReadCounter() > 49){
 292              		.loc 1 125 0
 293 0080 0FE0     		b	.L17
 294              	.L18:
 126:.\main.c      **** 			if((UART_ReadRxStatus() & UART_RX_STS_FIFO_NOTEMPTY) != 0){
 295              		.loc 1 126 0
 296 0082 FFF7FEFF 		bl	UART_ReadRxStatus
 297 0086 0346     		mov	r3, r0
 298 0088 03F02003 		and	r3, r3, #32
 299 008c 002B     		cmp	r3, #0
 300 008e 08D0     		beq	.L17
 127:.\main.c      **** 				Timer_Delayus(900);
 301              		.loc 1 127 0
 302 0090 4FF46170 		mov	r0, #900
 303 0094 FFF7FEFF 		bl	Timer_Delayus
 128:.\main.c      **** 				UART_ClearRxBuffer();
 304              		.loc 1 128 0
 305 0098 FFF7FEFF 		bl	UART_ClearRxBuffer
 129:.\main.c      ****                 return 1;
 306              		.loc 1 129 0
 307 009c 4FF00103 		mov	r3, #1
 308 00a0 8FE0     		b	.L15
 309              	.L17:
 125:.\main.c      **** 		while(Timer_ReadCounter() > 49){
 310              		.loc 1 125 0 discriminator 1
 311 00a2 FFF7FEFF 		bl	Timer_ReadCounter
 312 00a6 0346     		mov	r3, r0
 313 00a8 312B     		cmp	r3, #49
 314 00aa EAD8     		bhi	.L18
 130:.\main.c      **** 			}
 131:.\main.c      **** 		}
 132:.\main.c      **** 		UART_ClearRxBuffer();
 315              		.loc 1 132 0
 316 00ac FFF7FEFF 		bl	UART_ClearRxBuffer
ARM GAS  C:\Users\RIEKOH~1\AppData\Local\Temp\ccmda2Tf.s 			page 9


 133:.\main.c      **** 		return 1;
 317              		.loc 1 133 0
 318 00b0 4FF00103 		mov	r3, #1
 319 00b4 85E0     		b	.L15
 320              	.L16:
 134:.\main.c      **** 	}
 135:.\main.c      **** 	
 136:.\main.c      **** //  LED_1_Write(0);
 137:.\main.c      **** 	WRITE();
 321              		.loc 1 137 0
 322 00b6 4FF00100 		mov	r0, #1
 323 00ba FFF7FEFF 		bl	DE_Write
 138:.\main.c      **** 	UART_PutChar(addr);
 324              		.loc 1 138 0
 325 00be FB79     		ldrb	r3, [r7, #7]	@ zero_extendqisi2
 326 00c0 1846     		mov	r0, r3
 327 00c2 FFF7FEFF 		bl	UART_PutChar
 139:.\main.c      **** 	while(!(UART_ReadTxStatus() & UART_TX_STS_COMPLETE)) {}
 328              		.loc 1 139 0
 329 00c6 00BF     		nop
 330              	.L19:
 331              		.loc 1 139 0 is_stmt 0 discriminator 1
 332 00c8 FFF7FEFF 		bl	UART_ReadTxStatus
 333 00cc 0346     		mov	r3, r0
 334 00ce 03F00103 		and	r3, r3, #1
 335 00d2 002B     		cmp	r3, #0
 336 00d4 F8D0     		beq	.L19
 140:.\main.c      **** 	UART_ClearRxBuffer();
 337              		.loc 1 140 0 is_stmt 1
 338 00d6 FFF7FEFF 		bl	UART_ClearRxBuffer
 141:.\main.c      **** 	
 142:.\main.c      **** 	if(rcv & 0x80){
 339              		.loc 1 142 0
 340 00da BB7B     		ldrb	r3, [r7, #14]	@ zero_extendqisi2
 341 00dc 5BB2     		sxtb	r3, r3
 342 00de 002B     		cmp	r3, #0
 343 00e0 2FDA     		bge	.L20
 344              	.LBB2:
 143:.\main.c      **** 		// send data to master
 144:.\main.c      **** 		PACKET_ENDIANCHANGE(pak);
 345              		.loc 1 144 0
 346 00e2 3B68     		ldr	r3, [r7, #0]
 347 00e4 9B78     		ldrb	r3, [r3, #2]
 348 00e6 7B73     		strb	r3, [r7, #13]
 349 00e8 3B68     		ldr	r3, [r7, #0]
 350 00ea DA78     		ldrb	r2, [r3, #3]	@ zero_extendqisi2
 351 00ec 3B68     		ldr	r3, [r7, #0]
 352 00ee 9A70     		strb	r2, [r3, #2]
 353 00f0 3B68     		ldr	r3, [r7, #0]
 354 00f2 7A7B     		ldrb	r2, [r7, #13]
 355 00f4 DA70     		strb	r2, [r3, #3]
 356 00f6 3B68     		ldr	r3, [r7, #0]
 357 00f8 1B79     		ldrb	r3, [r3, #4]
 358 00fa 7B73     		strb	r3, [r7, #13]
 359 00fc 3B68     		ldr	r3, [r7, #0]
 360 00fe 5A79     		ldrb	r2, [r3, #5]	@ zero_extendqisi2
 361 0100 3B68     		ldr	r3, [r7, #0]
ARM GAS  C:\Users\RIEKOH~1\AppData\Local\Temp\ccmda2Tf.s 			page 10


 362 0102 1A71     		strb	r2, [r3, #4]
 363 0104 3B68     		ldr	r3, [r7, #0]
 364 0106 7A7B     		ldrb	r2, [r7, #13]
 365 0108 5A71     		strb	r2, [r3, #5]
 366              	.LBE2:
 145:.\main.c      **** 		for(i = 0; i < 6; i++){
 367              		.loc 1 145 0
 368 010a 4FF00003 		mov	r3, #0
 369 010e FB73     		strb	r3, [r7, #15]
 370 0110 13E0     		b	.L21
 371              	.L23:
 146:.\main.c      **** 			UART_PutChar(pak->_byte[i]);
 372              		.loc 1 146 0
 373 0112 FB7B     		ldrb	r3, [r7, #15]	@ zero_extendqisi2
 374 0114 3A68     		ldr	r2, [r7, #0]
 375 0116 D35C     		ldrb	r3, [r2, r3]	@ zero_extendqisi2
 376 0118 1846     		mov	r0, r3
 377 011a FFF7FEFF 		bl	UART_PutChar
 147:.\main.c      **** 			while(!(UART_ReadTxStatus() & UART_TX_STS_COMPLETE)) {}
 378              		.loc 1 147 0
 379 011e 00BF     		nop
 380              	.L22:
 381              		.loc 1 147 0 is_stmt 0 discriminator 1
 382 0120 FFF7FEFF 		bl	UART_ReadTxStatus
 383 0124 0346     		mov	r3, r0
 384 0126 03F00103 		and	r3, r3, #1
 385 012a 002B     		cmp	r3, #0
 386 012c F8D0     		beq	.L22
 148:.\main.c      **** 			UART_ClearRxBuffer();
 387              		.loc 1 148 0 is_stmt 1
 388 012e FFF7FEFF 		bl	UART_ClearRxBuffer
 145:.\main.c      **** 		for(i = 0; i < 6; i++){
 389              		.loc 1 145 0
 390 0132 FB7B     		ldrb	r3, [r7, #15]
 391 0134 03F10103 		add	r3, r3, #1
 392 0138 FB73     		strb	r3, [r7, #15]
 393              	.L21:
 145:.\main.c      **** 		for(i = 0; i < 6; i++){
 394              		.loc 1 145 0 is_stmt 0 discriminator 1
 395 013a FB7B     		ldrb	r3, [r7, #15]	@ zero_extendqisi2
 396 013c 052B     		cmp	r3, #5
 397 013e E8D9     		bls	.L23
 145:.\main.c      **** 		for(i = 0; i < 6; i++){
 398              		.loc 1 145 0
 399 0140 27E0     		b	.L24
 400              	.L20:
 149:.\main.c      **** 		}
 150:.\main.c      **** 	}
 151:.\main.c      **** 	else{
 152:.\main.c      **** 		// receive data from master
 153:.\main.c      **** 		READ();
 401              		.loc 1 153 0 is_stmt 1
 402 0142 4FF00000 		mov	r0, #0
 403 0146 FFF7FEFF 		bl	DE_Write
 154:.\main.c      **** 		Timer_Set(1010);
 404              		.loc 1 154 0
 405 014a 40F2F230 		movw	r0, #1010
ARM GAS  C:\Users\RIEKOH~1\AppData\Local\Temp\ccmda2Tf.s 			page 11


 406 014e FFF7FEFF 		bl	Timer_Set
 155:.\main.c      **** 		i = 0;
 407              		.loc 1 155 0
 408 0152 4FF00003 		mov	r3, #0
 409 0156 FB73     		strb	r3, [r7, #15]
 156:.\main.c      **** 		while((i < 6) && (Timer_ReadCounter() > 10)){
 410              		.loc 1 156 0
 411 0158 13E0     		b	.L25
 412              	.L26:
 157:.\main.c      **** 			if(UART_ReadRxStatus() & UART_RX_STS_FIFO_NOTEMPTY){
 413              		.loc 1 157 0
 414 015a FFF7FEFF 		bl	UART_ReadRxStatus
 415 015e 0346     		mov	r3, r0
 416 0160 03F02003 		and	r3, r3, #32
 417 0164 002B     		cmp	r3, #0
 418 0166 0CD0     		beq	.L25
 158:.\main.c      **** 				pak->_byte[i++] = UART_ReadRxData();
 419              		.loc 1 158 0
 420 0168 FC7B     		ldrb	r4, [r7, #15]	@ zero_extendqisi2
 421 016a FFF7FEFF 		bl	UART_ReadRxData
 422 016e 0346     		mov	r3, r0
 423 0170 1A46     		mov	r2, r3
 424 0172 3B68     		ldr	r3, [r7, #0]
 425 0174 1A55     		strb	r2, [r3, r4]
 426 0176 FB7B     		ldrb	r3, [r7, #15]
 427 0178 03F10103 		add	r3, r3, #1
 428 017c FB73     		strb	r3, [r7, #15]
 159:.\main.c      **** 				UART_ClearRxBuffer();
 429              		.loc 1 159 0
 430 017e FFF7FEFF 		bl	UART_ClearRxBuffer
 431              	.L25:
 156:.\main.c      **** 		while((i < 6) && (Timer_ReadCounter() > 10)){
 432              		.loc 1 156 0 discriminator 1
 433 0182 FB7B     		ldrb	r3, [r7, #15]	@ zero_extendqisi2
 434 0184 052B     		cmp	r3, #5
 435 0186 04D8     		bhi	.L24
 156:.\main.c      **** 		while((i < 6) && (Timer_ReadCounter() > 10)){
 436              		.loc 1 156 0 is_stmt 0 discriminator 2
 437 0188 FFF7FEFF 		bl	Timer_ReadCounter
 438 018c 0346     		mov	r3, r0
 439 018e 0A2B     		cmp	r3, #10
 440 0190 E3D8     		bhi	.L26
 441              	.L24:
 160:.\main.c      **** 			}
 161:.\main.c      **** 		}
 162:.\main.c      **** 		//PACKET_ENDIANCHANGE(pak);
 163:.\main.c      **** 	}
 164:.\main.c      **** 	WRITE();
 442              		.loc 1 164 0 is_stmt 1
 443 0192 4FF00100 		mov	r0, #1
 444 0196 FFF7FEFF 		bl	DE_Write
 165:.\main.c      **** 	UART_PutChar(addr);
 445              		.loc 1 165 0
 446 019a FB79     		ldrb	r3, [r7, #7]	@ zero_extendqisi2
 447 019c 1846     		mov	r0, r3
 448 019e FFF7FEFF 		bl	UART_PutChar
 166:.\main.c      **** 	while(!(UART_ReadTxStatus() & UART_TX_STS_COMPLETE)) {}
ARM GAS  C:\Users\RIEKOH~1\AppData\Local\Temp\ccmda2Tf.s 			page 12


 449              		.loc 1 166 0
 450 01a2 00BF     		nop
 451              	.L27:
 452              		.loc 1 166 0 is_stmt 0 discriminator 1
 453 01a4 FFF7FEFF 		bl	UART_ReadTxStatus
 454 01a8 0346     		mov	r3, r0
 455 01aa 03F00103 		and	r3, r3, #1
 456 01ae 002B     		cmp	r3, #0
 457 01b0 F8D0     		beq	.L27
 167:.\main.c      **** 	UART_ClearRxBuffer();
 458              		.loc 1 167 0 is_stmt 1
 459 01b2 FFF7FEFF 		bl	UART_ClearRxBuffer
 168:.\main.c      **** 	READ();
 460              		.loc 1 168 0
 461 01b6 4FF00000 		mov	r0, #0
 462 01ba FFF7FEFF 		bl	DE_Write
 169:.\main.c      ****     return(0);
 463              		.loc 1 169 0
 464 01be 4FF00003 		mov	r3, #0
 465              	.L15:
 170:.\main.c      **** //	return((rcv & 0x80) ? 1 : 0);
 171:.\main.c      **** }
 466              		.loc 1 171 0
 467 01c2 1846     		mov	r0, r3
 468 01c4 07F11407 		add	r7, r7, #20
 469 01c8 BD46     		mov	sp, r7
 470 01ca 90BD     		pop	{r4, r7, pc}
 471              		.cfi_endproc
 472              	.LFE60:
 473              		.size	rs485_CheckPacket, .-rs485_CheckPacket
 474              		.section	.text.CheckValid,"ax",%progbits
 475              		.align	2
 476              		.global	CheckValid
 477              		.thumb
 478              		.thumb_func
 479              		.type	CheckValid, %function
 480              	CheckValid:
 481              	.LFB61:
 172:.\main.c      **** 
 173:.\main.c      **** char CheckValid(PACKET *pak){
 482              		.loc 1 173 0
 483              		.cfi_startproc
 484              		@ args = 0, pretend = 0, frame = 16
 485              		@ frame_needed = 1, uses_anonymous_args = 0
 486              		@ link register save eliminated.
 487 0000 80B4     		push	{r7}
 488              	.LCFI13:
 489              		.cfi_def_cfa_offset 4
 490              		.cfi_offset 7, -4
 491 0002 85B0     		sub	sp, sp, #20
 492              	.LCFI14:
 493              		.cfi_def_cfa_offset 24
 494 0004 00AF     		add	r7, sp, #0
 495              	.LCFI15:
 496              		.cfi_def_cfa_register 7
 497 0006 7860     		str	r0, [r7, #4]
 174:.\main.c      ****     unsigned char sum = 0;
ARM GAS  C:\Users\RIEKOH~1\AppData\Local\Temp\ccmda2Tf.s 			page 13


 498              		.loc 1 174 0
 499 0008 4FF00003 		mov	r3, #0
 500 000c FB73     		strb	r3, [r7, #15]
 175:.\main.c      ****     int i;
 176:.\main.c      ****     
 177:.\main.c      ****     for(i = 0; i < 4; i++){
 501              		.loc 1 177 0
 502 000e 4FF00003 		mov	r3, #0
 503 0012 BB60     		str	r3, [r7, #8]
 504 0014 0BE0     		b	.L29
 505              	.L30:
 178:.\main.c      ****         sum += pak->_byte[i+2];    
 506              		.loc 1 178 0 discriminator 2
 507 0016 BB68     		ldr	r3, [r7, #8]
 508 0018 03F10203 		add	r3, r3, #2
 509 001c 7A68     		ldr	r2, [r7, #4]
 510 001e D25C     		ldrb	r2, [r2, r3]	@ zero_extendqisi2
 511 0020 FB7B     		ldrb	r3, [r7, #15]
 512 0022 D318     		adds	r3, r2, r3
 513 0024 FB73     		strb	r3, [r7, #15]
 177:.\main.c      ****     for(i = 0; i < 4; i++){
 514              		.loc 1 177 0 discriminator 2
 515 0026 BB68     		ldr	r3, [r7, #8]
 516 0028 03F10103 		add	r3, r3, #1
 517 002c BB60     		str	r3, [r7, #8]
 518              	.L29:
 177:.\main.c      ****     for(i = 0; i < 4; i++){
 519              		.loc 1 177 0 is_stmt 0 discriminator 1
 520 002e BB68     		ldr	r3, [r7, #8]
 521 0030 032B     		cmp	r3, #3
 522 0032 F0DD     		ble	.L30
 179:.\main.c      ****     }
 180:.\main.c      ****     if((~sum & 0xff) == pak->_pak.bCheckSum) {
 523              		.loc 1 180 0 is_stmt 1
 524 0034 FB7B     		ldrb	r3, [r7, #15]	@ zero_extendqisi2
 525 0036 6FEA0303 		mvn	r3, r3
 526 003a DAB2     		uxtb	r2, r3
 527 003c 7B68     		ldr	r3, [r7, #4]
 528 003e 5B78     		ldrb	r3, [r3, #1]	@ zero_extendqisi2
 529 0040 9A42     		cmp	r2, r3
 530 0042 02D1     		bne	.L31
 181:.\main.c      ****         return 1;
 531              		.loc 1 181 0
 532 0044 4FF00103 		mov	r3, #1
 533 0048 01E0     		b	.L32
 534              	.L31:
 182:.\main.c      ****     } else {
 183:.\main.c      ****         return 0;
 535              		.loc 1 183 0
 536 004a 4FF00003 		mov	r3, #0
 537              	.L32:
 184:.\main.c      ****     }
 185:.\main.c      **** }
 538              		.loc 1 185 0
 539 004e 1846     		mov	r0, r3
 540 0050 07F11407 		add	r7, r7, #20
 541 0054 BD46     		mov	sp, r7
ARM GAS  C:\Users\RIEKOH~1\AppData\Local\Temp\ccmda2Tf.s 			page 14


 542 0056 80BC     		pop	{r7}
 543 0058 7047     		bx	lr
 544              		.cfi_endproc
 545              	.LFE61:
 546              		.size	CheckValid, .-CheckValid
 547 005a 00BF     		.section	.text.Servo_Start,"ax",%progbits
 548              		.align	2
 549              		.global	Servo_Start
 550              		.thumb
 551              		.thumb_func
 552              		.type	Servo_Start, %function
 553              	Servo_Start:
 554              	.LFB62:
 186:.\main.c      **** 
 187:.\main.c      **** void Servo_Start(void){
 555              		.loc 1 187 0
 556              		.cfi_startproc
 557              		@ args = 0, pretend = 0, frame = 0
 558              		@ frame_needed = 1, uses_anonymous_args = 0
 559 0000 80B5     		push	{r7, lr}
 560              	.LCFI16:
 561              		.cfi_def_cfa_offset 8
 562              		.cfi_offset 7, -8
 563              		.cfi_offset 14, -4
 564 0002 00AF     		add	r7, sp, #0
 565              	.LCFI17:
 566              		.cfi_def_cfa_register 7
 188:.\main.c      ****     PWM_1_Start();
 567              		.loc 1 188 0
 568 0004 FFF7FEFF 		bl	PWM_1_Start
 189:.\main.c      **** 	aileronR_buffer = 1500;
 569              		.loc 1 189 0
 570 0008 40F20003 		movw	r3, #:lower16:aileronR_buffer
 571 000c C0F20003 		movt	r3, #:upper16:aileronR_buffer
 572 0010 40F2DC52 		movw	r2, #1500
 573 0014 1A60     		str	r2, [r3, #0]
 190:.\main.c      ****     isr_tc_StartEx(Terminal_Count_ISR);
 574              		.loc 1 190 0
 575 0016 40F20000 		movw	r0, #:lower16:Terminal_Count_ISR
 576 001a C0F20000 		movt	r0, #:upper16:Terminal_Count_ISR
 577 001e FFF7FEFF 		bl	isr_tc_StartEx
 191:.\main.c      ****     return;
 578              		.loc 1 191 0
 579 0022 00BF     		nop
 192:.\main.c      **** }
 580              		.loc 1 192 0
 581 0024 80BD     		pop	{r7, pc}
 582              		.cfi_endproc
 583              	.LFE62:
 584              		.size	Servo_Start, .-Servo_Start
 585              		.global	__aeabi_i2d
 586              		.global	__aeabi_dmul
 587              		.global	__aeabi_dsub
 588              		.global	__aeabi_d2uiz
 589 0026 00BF     		.section	.text.FormatValueAilR,"ax",%progbits
 590              		.align	2
 591              		.global	FormatValueAilR
ARM GAS  C:\Users\RIEKOH~1\AppData\Local\Temp\ccmda2Tf.s 			page 15


 592              		.thumb
 593              		.thumb_func
 594              		.type	FormatValueAilR, %function
 595              	FormatValueAilR:
 596              	.LFB63:
 193:.\main.c      **** 
 194:.\main.c      **** unsigned int FormatValueAilR(unsigned short raw){
 597              		.loc 1 194 0
 598              		.cfi_startproc
 599              		@ args = 0, pretend = 0, frame = 8
 600              		@ frame_needed = 1, uses_anonymous_args = 0
 601 0000 B0B5     		push	{r4, r5, r7, lr}
 602              	.LCFI18:
 603              		.cfi_def_cfa_offset 16
 604              		.cfi_offset 4, -16
 605              		.cfi_offset 5, -12
 606              		.cfi_offset 7, -8
 607              		.cfi_offset 14, -4
 608 0002 82B0     		sub	sp, sp, #8
 609              	.LCFI19:
 610              		.cfi_def_cfa_offset 24
 611 0004 00AF     		add	r7, sp, #0
 612              	.LCFI20:
 613              		.cfi_def_cfa_register 7
 614 0006 0346     		mov	r3, r0
 615 0008 FB80     		strh	r3, [r7, #6]	@ movhi
 195:.\main.c      **** 	if((raw >= 1500)&&(raw < 2000)){
 616              		.loc 1 195 0
 617 000a FA88     		ldrh	r2, [r7, #6]
 618 000c 40F2DB53 		movw	r3, #1499
 619 0010 9A42     		cmp	r2, r3
 620 0012 2BD9     		bls	.L36
 621              		.loc 1 195 0 is_stmt 0 discriminator 1
 622 0014 FA88     		ldrh	r2, [r7, #6]
 623 0016 40F2CF73 		movw	r3, #1999
 624 001a 9A42     		cmp	r2, r3
 625 001c 26D8     		bhi	.L36
 196:.\main.c      **** 		return(1900 + CenterStatus() - (raw - 1500)*0.7);	
 626              		.loc 1 196 0 is_stmt 1
 627 001e FFF7FEFF 		bl	CenterStatus
 628 0022 0346     		mov	r3, r0
 629 0024 03F26C73 		addw	r3, r3, #1900
 630 0028 1846     		mov	r0, r3
 631 002a FFF7FEFF 		bl	__aeabi_i2d
 632 002e 0446     		mov	r4, r0
 633 0030 0D46     		mov	r5, r1
 634 0032 FB88     		ldrh	r3, [r7, #6]
 635 0034 A3F2DC53 		subw	r3, r3, #1500
 636 0038 1846     		mov	r0, r3
 637 003a FFF7FEFF 		bl	__aeabi_i2d
 638 003e 0246     		mov	r2, r0
 639 0040 0B46     		mov	r3, r1
 640 0042 1046     		mov	r0, r2
 641 0044 1946     		mov	r1, r3
 642 0046 26A3     		adr	r3, .L39
 643 0048 D3E90023 		ldrd	r2, [r3]
 644 004c FFF7FEFF 		bl	__aeabi_dmul
ARM GAS  C:\Users\RIEKOH~1\AppData\Local\Temp\ccmda2Tf.s 			page 16


 645 0050 0246     		mov	r2, r0
 646 0052 0B46     		mov	r3, r1
 647 0054 2046     		mov	r0, r4
 648 0056 2946     		mov	r1, r5
 649 0058 FFF7FEFF 		bl	__aeabi_dsub
 650 005c 0246     		mov	r2, r0
 651 005e 0B46     		mov	r3, r1
 652 0060 1046     		mov	r0, r2
 653 0062 1946     		mov	r1, r3
 654 0064 FFF7FEFF 		bl	__aeabi_d2uiz
 655 0068 0346     		mov	r3, r0
 656 006a 32E0     		b	.L37
 657              	.L36:
 197:.\main.c      **** 	}else if((raw < 1500)&&(raw > 1000)){
 658              		.loc 1 197 0
 659 006c FA88     		ldrh	r2, [r7, #6]
 660 006e 40F2DB53 		movw	r3, #1499
 661 0072 9A42     		cmp	r2, r3
 662 0074 2AD8     		bhi	.L38
 663              		.loc 1 197 0 is_stmt 0 discriminator 1
 664 0076 FB88     		ldrh	r3, [r7, #6]
 665 0078 B3F57A7F 		cmp	r3, #1000
 666 007c 26D9     		bls	.L38
 198:.\main.c      **** 		return(1900 + CenterStatus() - (raw - 1500)*0.65);	
 667              		.loc 1 198 0 is_stmt 1
 668 007e FFF7FEFF 		bl	CenterStatus
 669 0082 0346     		mov	r3, r0
 670 0084 03F26C73 		addw	r3, r3, #1900
 671 0088 1846     		mov	r0, r3
 672 008a FFF7FEFF 		bl	__aeabi_i2d
 673 008e 0446     		mov	r4, r0
 674 0090 0D46     		mov	r5, r1
 675 0092 FB88     		ldrh	r3, [r7, #6]
 676 0094 A3F2DC53 		subw	r3, r3, #1500
 677 0098 1846     		mov	r0, r3
 678 009a FFF7FEFF 		bl	__aeabi_i2d
 679 009e 0246     		mov	r2, r0
 680 00a0 0B46     		mov	r3, r1
 681 00a2 1046     		mov	r0, r2
 682 00a4 1946     		mov	r1, r3
 683 00a6 10A3     		adr	r3, .L39+8
 684 00a8 D3E90023 		ldrd	r2, [r3]
 685 00ac FFF7FEFF 		bl	__aeabi_dmul
 686 00b0 0246     		mov	r2, r0
 687 00b2 0B46     		mov	r3, r1
 688 00b4 2046     		mov	r0, r4
 689 00b6 2946     		mov	r1, r5
 690 00b8 FFF7FEFF 		bl	__aeabi_dsub
 691 00bc 0246     		mov	r2, r0
 692 00be 0B46     		mov	r3, r1
 693 00c0 1046     		mov	r0, r2
 694 00c2 1946     		mov	r1, r3
 695 00c4 FFF7FEFF 		bl	__aeabi_d2uiz
 696 00c8 0346     		mov	r3, r0
 697 00ca 02E0     		b	.L37
 698              	.L38:
 199:.\main.c      **** 	}else {
ARM GAS  C:\Users\RIEKOH~1\AppData\Local\Temp\ccmda2Tf.s 			page 17


 200:.\main.c      **** 		return PWM_1_ReadCompare1();
 699              		.loc 1 200 0
 700 00cc FFF7FEFF 		bl	PWM_1_ReadCompare1
 701 00d0 0346     		mov	r3, r0
 702              	.L37:
 201:.\main.c      **** 	}
 202:.\main.c      **** }
 703              		.loc 1 202 0
 704 00d2 1846     		mov	r0, r3
 705 00d4 07F10807 		add	r7, r7, #8
 706 00d8 BD46     		mov	sp, r7
 707 00da B0BD     		pop	{r4, r5, r7, pc}
 708              	.L40:
 709 00dc AFF30080 		.align	3
 710              	.L39:
 711 00e0 66666666 		.word	1717986918
 712 00e4 6666E63F 		.word	1072064102
 713 00e8 CDCCCCCC 		.word	-858993459
 714 00ec CCCCE43F 		.word	1071959244
 715              		.cfi_endproc
 716              	.LFE63:
 717              		.size	FormatValueAilR, .-FormatValueAilR
 718              		.section	.text.CenterStatus,"ax",%progbits
 719              		.align	2
 720              		.global	CenterStatus
 721              		.thumb
 722              		.thumb_func
 723              		.type	CenterStatus, %function
 724              	CenterStatus:
 725              	.LFB64:
 203:.\main.c      **** 
 204:.\main.c      **** int CenterStatus(void){
 726              		.loc 1 204 0
 727              		.cfi_startproc
 728              		@ args = 0, pretend = 0, frame = 16
 729              		@ frame_needed = 1, uses_anonymous_args = 0
 730 0000 80B5     		push	{r7, lr}
 731              	.LCFI21:
 732              		.cfi_def_cfa_offset 8
 733              		.cfi_offset 7, -8
 734              		.cfi_offset 14, -4
 735 0002 84B0     		sub	sp, sp, #16
 736              	.LCFI22:
 737              		.cfi_def_cfa_offset 24
 738 0004 00AF     		add	r7, sp, #0
 739              	.LCFI23:
 740              		.cfi_def_cfa_register 7
 205:.\main.c      **** 	int Trim ,dTrim = 20;
 741              		.loc 1 205 0
 742 0006 4FF01403 		mov	r3, #20
 743 000a BB60     		str	r3, [r7, #8]
 206:.\main.c      **** 	int sw = (~ Status_Reg_Read()) & 0x0F ;
 744              		.loc 1 206 0
 745 000c FFF7FEFF 		bl	Status_Reg_Read
 746 0010 0346     		mov	r3, r0
 747 0012 6FEA0303 		mvn	r3, r3
 748 0016 03F00F03 		and	r3, r3, #15
ARM GAS  C:\Users\RIEKOH~1\AppData\Local\Temp\ccmda2Tf.s 			page 18


 749 001a 7B60     		str	r3, [r7, #4]
 207:.\main.c      **** 	switch(sw){
 750              		.loc 1 207 0
 751 001c 7B68     		ldr	r3, [r7, #4]
 752 001e 0F2B     		cmp	r3, #15
 753 0020 00F29480 		bhi	.L42
 754 0024 01A2     		adr	r2, .L59
 755 0026 52F823F0 		ldr	pc, [r2, r3, lsl #2]
 756 002a 00BF     		.align	2
 757              	.L59:
 758 002c 6D000000 		.word	.L43+1
 759 0030 7F000000 		.word	.L44+1
 760 0034 8D000000 		.word	.L45+1
 761 0038 9F000000 		.word	.L46+1
 762 003c B3000000 		.word	.L47+1
 763 0040 C5000000 		.word	.L48+1
 764 0044 D3000000 		.word	.L49+1
 765 0048 E5000000 		.word	.L50+1
 766 004c EF000000 		.word	.L51+1
 767 0050 F7000000 		.word	.L52+1
 768 0054 FD000000 		.word	.L53+1
 769 0058 07010000 		.word	.L54+1
 770 005c 15010000 		.word	.L55+1
 771 0060 1F010000 		.word	.L56+1
 772 0064 2D010000 		.word	.L57+1
 773 0068 3F010000 		.word	.L58+1
 774              	.L43:
 208:.\main.c      **** 		case 0x00 :
 209:.\main.c      **** 			Trim = -8*dTrim;
 775              		.loc 1 209 0
 776 006c BA68     		ldr	r2, [r7, #8]
 777 006e 1346     		mov	r3, r2
 778 0070 4FEA4373 		lsl	r3, r3, #29
 779 0074 9B1A     		subs	r3, r3, r2
 780 0076 4FEAC303 		lsl	r3, r3, #3
 781 007a FB60     		str	r3, [r7, #12]
 210:.\main.c      **** 			break;	
 782              		.loc 1 210 0
 783 007c 66E0     		b	.L42
 784              	.L44:
 211:.\main.c      **** 		case 0x01 :
 212:.\main.c      **** 			Trim = -7*dTrim;
 785              		.loc 1 212 0
 786 007e BB68     		ldr	r3, [r7, #8]
 787 0080 1A46     		mov	r2, r3
 788 0082 4FEAC303 		lsl	r3, r3, #3
 789 0086 D31A     		subs	r3, r2, r3
 790 0088 FB60     		str	r3, [r7, #12]
 213:.\main.c      **** 			break;
 791              		.loc 1 213 0
 792 008a 5FE0     		b	.L42
 793              	.L45:
 214:.\main.c      **** 		case 0x02 :
 215:.\main.c      **** 			Trim = -6*dTrim;
 794              		.loc 1 215 0
 795 008c BA68     		ldr	r2, [r7, #8]
 796 008e 1346     		mov	r3, r2
ARM GAS  C:\Users\RIEKOH~1\AppData\Local\Temp\ccmda2Tf.s 			page 19


 797 0090 4FEA8202 		lsl	r2, r2, #2
 798 0094 9B1A     		subs	r3, r3, r2
 799 0096 4FEA4303 		lsl	r3, r3, #1
 800 009a FB60     		str	r3, [r7, #12]
 216:.\main.c      **** 			break;
 801              		.loc 1 216 0
 802 009c 56E0     		b	.L42
 803              	.L46:
 217:.\main.c      **** 		case 0x03 :
 218:.\main.c      **** 			Trim = -5*dTrim;
 804              		.loc 1 218 0
 805 009e BA68     		ldr	r2, [r7, #8]
 806 00a0 1346     		mov	r3, r2
 807 00a2 4FEA8373 		lsl	r3, r3, #30
 808 00a6 9B1A     		subs	r3, r3, r2
 809 00a8 4FEA8303 		lsl	r3, r3, #2
 810 00ac 9B1A     		subs	r3, r3, r2
 811 00ae FB60     		str	r3, [r7, #12]
 219:.\main.c      **** 			break;
 812              		.loc 1 219 0
 813 00b0 4CE0     		b	.L42
 814              	.L47:
 220:.\main.c      **** 		case 0x04 :
 221:.\main.c      **** 			Trim = -4*dTrim;
 815              		.loc 1 221 0
 816 00b2 BA68     		ldr	r2, [r7, #8]
 817 00b4 1346     		mov	r3, r2
 818 00b6 4FEA8373 		lsl	r3, r3, #30
 819 00ba 9B1A     		subs	r3, r3, r2
 820 00bc 4FEA8303 		lsl	r3, r3, #2
 821 00c0 FB60     		str	r3, [r7, #12]
 222:.\main.c      **** 			break;
 822              		.loc 1 222 0
 823 00c2 43E0     		b	.L42
 824              	.L48:
 223:.\main.c      **** 		case 0x05 :
 224:.\main.c      **** 			Trim = -3*dTrim;
 825              		.loc 1 224 0
 826 00c4 BB68     		ldr	r3, [r7, #8]
 827 00c6 1A46     		mov	r2, r3
 828 00c8 4FEA8303 		lsl	r3, r3, #2
 829 00cc D31A     		subs	r3, r2, r3
 830 00ce FB60     		str	r3, [r7, #12]
 225:.\main.c      **** 			break;
 831              		.loc 1 225 0
 832 00d0 3CE0     		b	.L42
 833              	.L49:
 226:.\main.c      **** 		case 0x06 :
 227:.\main.c      **** 			Trim = -2*dTrim;
 834              		.loc 1 227 0
 835 00d2 BA68     		ldr	r2, [r7, #8]
 836 00d4 1346     		mov	r3, r2
 837 00d6 4FEAC373 		lsl	r3, r3, #31
 838 00da 9B1A     		subs	r3, r3, r2
 839 00dc 4FEA4303 		lsl	r3, r3, #1
 840 00e0 FB60     		str	r3, [r7, #12]
 228:.\main.c      **** 			break;
ARM GAS  C:\Users\RIEKOH~1\AppData\Local\Temp\ccmda2Tf.s 			page 20


 841              		.loc 1 228 0
 842 00e2 33E0     		b	.L42
 843              	.L50:
 229:.\main.c      **** 		case 0x07 :
 230:.\main.c      **** 			Trim = -1*dTrim;
 844              		.loc 1 230 0
 845 00e4 BB68     		ldr	r3, [r7, #8]
 846 00e6 C3F10003 		rsb	r3, r3, #0
 847 00ea FB60     		str	r3, [r7, #12]
 231:.\main.c      **** 			break;
 848              		.loc 1 231 0
 849 00ec 2EE0     		b	.L42
 850              	.L51:
 232:.\main.c      **** 		case 0x08 :
 233:.\main.c      **** 			Trim = 0*dTrim;
 851              		.loc 1 233 0
 852 00ee 4FF00003 		mov	r3, #0
 853 00f2 FB60     		str	r3, [r7, #12]
 234:.\main.c      **** 			break;
 854              		.loc 1 234 0
 855 00f4 2AE0     		b	.L42
 856              	.L52:
 235:.\main.c      **** 		case 0x09 :
 236:.\main.c      **** 			Trim = 1*dTrim;
 857              		.loc 1 236 0
 858 00f6 BB68     		ldr	r3, [r7, #8]
 859 00f8 FB60     		str	r3, [r7, #12]
 237:.\main.c      **** 			break;
 860              		.loc 1 237 0
 861 00fa 27E0     		b	.L42
 862              	.L53:
 238:.\main.c      **** 		case 0x0A :
 239:.\main.c      **** 			Trim = 2*dTrim;
 863              		.loc 1 239 0
 864 00fc BB68     		ldr	r3, [r7, #8]
 865 00fe 4FEA4303 		lsl	r3, r3, #1
 866 0102 FB60     		str	r3, [r7, #12]
 240:.\main.c      **** 			break;
 867              		.loc 1 240 0
 868 0104 22E0     		b	.L42
 869              	.L54:
 241:.\main.c      **** 		case 0x0B :
 242:.\main.c      **** 			Trim = 3*dTrim;
 870              		.loc 1 242 0
 871 0106 BA68     		ldr	r2, [r7, #8]
 872 0108 1346     		mov	r3, r2
 873 010a 4FEA4303 		lsl	r3, r3, #1
 874 010e 9B18     		adds	r3, r3, r2
 875 0110 FB60     		str	r3, [r7, #12]
 243:.\main.c      **** 			break;
 876              		.loc 1 243 0
 877 0112 1BE0     		b	.L42
 878              	.L55:
 244:.\main.c      **** 		case 0x0C :
 245:.\main.c      **** 			Trim = 4*dTrim;
 879              		.loc 1 245 0
 880 0114 BB68     		ldr	r3, [r7, #8]
ARM GAS  C:\Users\RIEKOH~1\AppData\Local\Temp\ccmda2Tf.s 			page 21


 881 0116 4FEA8303 		lsl	r3, r3, #2
 882 011a FB60     		str	r3, [r7, #12]
 246:.\main.c      **** 			break;
 883              		.loc 1 246 0
 884 011c 16E0     		b	.L42
 885              	.L56:
 247:.\main.c      **** 		case 0x0D :
 248:.\main.c      **** 			Trim = 5*dTrim;
 886              		.loc 1 248 0
 887 011e BA68     		ldr	r2, [r7, #8]
 888 0120 1346     		mov	r3, r2
 889 0122 4FEA8303 		lsl	r3, r3, #2
 890 0126 9B18     		adds	r3, r3, r2
 891 0128 FB60     		str	r3, [r7, #12]
 249:.\main.c      **** 			break;
 892              		.loc 1 249 0
 893 012a 0FE0     		b	.L42
 894              	.L57:
 250:.\main.c      **** 		case 0x0E :
 251:.\main.c      **** 			Trim = 6*dTrim;
 895              		.loc 1 251 0
 896 012c BA68     		ldr	r2, [r7, #8]
 897 012e 1346     		mov	r3, r2
 898 0130 4FEA4303 		lsl	r3, r3, #1
 899 0134 9B18     		adds	r3, r3, r2
 900 0136 4FEA4303 		lsl	r3, r3, #1
 901 013a FB60     		str	r3, [r7, #12]
 252:.\main.c      **** 			break;
 902              		.loc 1 252 0
 903 013c 06E0     		b	.L42
 904              	.L58:
 253:.\main.c      **** 		case 0x0F :
 254:.\main.c      **** 			Trim = 7*dTrim;
 905              		.loc 1 254 0
 906 013e BA68     		ldr	r2, [r7, #8]
 907 0140 1346     		mov	r3, r2
 908 0142 4FEAC303 		lsl	r3, r3, #3
 909 0146 9B1A     		subs	r3, r3, r2
 910 0148 FB60     		str	r3, [r7, #12]
 255:.\main.c      **** 			break;
 911              		.loc 1 255 0
 912 014a 00BF     		nop
 913              	.L42:
 256:.\main.c      **** 	}
 257:.\main.c      **** 	return(Trim);
 914              		.loc 1 257 0
 915 014c FB68     		ldr	r3, [r7, #12]
 258:.\main.c      **** }
 916              		.loc 1 258 0
 917 014e 1846     		mov	r0, r3
 918 0150 07F11007 		add	r7, r7, #16
 919 0154 BD46     		mov	sp, r7
 920 0156 80BD     		pop	{r7, pc}
 921              		.cfi_endproc
 922              	.LFE64:
 923              		.size	CenterStatus, .-CenterStatus
 924              		.section	.text.Terminal_Count_ISR,"ax",%progbits
ARM GAS  C:\Users\RIEKOH~1\AppData\Local\Temp\ccmda2Tf.s 			page 22


 925              		.align	2
 926              		.global	Terminal_Count_ISR
 927              		.thumb
 928              		.thumb_func
 929              		.type	Terminal_Count_ISR, %function
 930              	Terminal_Count_ISR:
 931              	.LFB65:
 259:.\main.c      **** 
 260:.\main.c      **** CY_ISR(Terminal_Count_ISR) {
 932              		.loc 1 260 0
 933              		.cfi_startproc
 934              		@ args = 0, pretend = 0, frame = 0
 935              		@ frame_needed = 1, uses_anonymous_args = 0
 936 0000 80B5     		push	{r7, lr}
 937              	.LCFI24:
 938              		.cfi_def_cfa_offset 8
 939              		.cfi_offset 7, -8
 940              		.cfi_offset 14, -4
 941 0002 00AF     		add	r7, sp, #0
 942              	.LCFI25:
 943              		.cfi_def_cfa_register 7
 261:.\main.c      ****     PWM_1_WriteCompare1(FormatValueAilR(aileronR_buffer));
 944              		.loc 1 261 0
 945 0004 40F20003 		movw	r3, #:lower16:aileronR_buffer
 946 0008 C0F20003 		movt	r3, #:upper16:aileronR_buffer
 947 000c 1B68     		ldr	r3, [r3, #0]
 948 000e 9BB2     		uxth	r3, r3
 949 0010 1846     		mov	r0, r3
 950 0012 FFF7FEFF 		bl	FormatValueAilR
 951 0016 0346     		mov	r3, r0
 952 0018 9BB2     		uxth	r3, r3
 953 001a 1846     		mov	r0, r3
 954 001c FFF7FEFF 		bl	PWM_1_WriteCompare1
 262:.\main.c      **** //    PWM_1_WriteCompare1(aileronR_buffer);
 263:.\main.c      ****     PWM_1_ReadStatusRegister();
 955              		.loc 1 263 0
 956 0020 FFF7FEFF 		bl	PWM_1_ReadStatusRegister
 264:.\main.c      **** 	return;
 957              		.loc 1 264 0
 958 0024 00BF     		nop
 265:.\main.c      **** }
 959              		.loc 1 265 0
 960 0026 80BD     		pop	{r7, pc}
 961              		.cfi_endproc
 962              	.LFE65:
 963              		.size	Terminal_Count_ISR, .-Terminal_Count_ISR
 964              		.text
 965              	.Letext0:
 966              		.file 2 "c:\\program files\\cypress\\psoc creator\\3.0\\psoc creator\\import\\gnu_cs\\arm\\4.7.3\\
 967              		.file 3 "./Generated_Source/PSoC5/cytypes.h"
 968              		.file 4 "./Generated_Source/PSoC5/core_cm3.h"
