Archive member included because of file (symbol)

.\CortexM3\ARM_GCC_473\Debug\ail_backback.a(cyfitter_cfg.o)
                              .\CortexM3\ARM_GCC_473\Debug\Cm3Start.o (cyfitter_cfg)
.\CortexM3\ARM_GCC_473\Debug\ail_backback.a(CyBootAsmGnu.o)
                              .\CortexM3\ARM_GCC_473\Debug\ail_backback.a(cyfitter_cfg.o) (CyDelayCycles)
.\CortexM3\ARM_GCC_473\Debug\ail_backback.a(CyLib.o)
                              .\CortexM3\ARM_GCC_473\Debug\Cm3Start.o (CyResetStatus)
.\CortexM3\ARM_GCC_473\Debug\ail_backback.a(cyPm.o)
                              .\CortexM3\ARM_GCC_473\Debug\ail_backback.a(CyLib.o) (CyPmReadStatus)
.\CortexM3\ARM_GCC_473\Debug\ail_backback.a(UART.o)
                              .\CortexM3\ARM_GCC_473\Debug\main.o (UART_Start)
.\CortexM3\ARM_GCC_473\Debug\ail_backback.a(Timer.o)
                              .\CortexM3\ARM_GCC_473\Debug\main.o (Timer_WriteCounter)
.\CortexM3\ARM_GCC_473\Debug\ail_backback.a(DE.o)
                              .\CortexM3\ARM_GCC_473\Debug\main.o (DE_Write)
.\CortexM3\ARM_GCC_473\Debug\ail_backback.a(LED_1.o)
                              .\CortexM3\ARM_GCC_473\Debug\main.o (LED_1_Write)
.\CortexM3\ARM_GCC_473\Debug\ail_backback.a(LED_2.o)
                              .\CortexM3\ARM_GCC_473\Debug\main.o (LED_2_Write)
.\CortexM3\ARM_GCC_473\Debug\ail_backback.a(PWM_1.o)
                              .\CortexM3\ARM_GCC_473\Debug\main.o (PWM_1_Start)
.\CortexM3\ARM_GCC_473\Debug\ail_backback.a(isr_tc.o)
                              .\CortexM3\ARM_GCC_473\Debug\main.o (isr_tc_StartEx)
.\CortexM3\ARM_GCC_473\Debug\ail_backback.a(CyFlash.o)
                              .\CortexM3\ARM_GCC_473\Debug\ail_backback.a(cyPm.o) (CyFlash_SetWaitCycles)
.\CortexM3\ARM_GCC_473\Debug\ail_backback.a(CySpc.o)
                              .\CortexM3\ARM_GCC_473\Debug\ail_backback.a(CyFlash.o) (CySpcStart)
c:/program files (x86)/cypress/psoc creator/3.0/psoc creator/import/gnu_cs/arm/4.7.3/bin/../lib/gcc/arm-none-eabi/4.7.3/../../../../arm-none-eabi/lib/armv7-m\libc_s.a(lib_a-__atexit2.o)
                              c:/program files (x86)/cypress/psoc creator/3.0/psoc creator/import/gnu_cs/arm/4.7.3/bin/../lib/gcc/arm-none-eabi/4.7.3/../../../../arm-none-eabi/lib/armv7-m/crt0.o (__register_exitproc)
c:/program files (x86)/cypress/psoc creator/3.0/psoc creator/import/gnu_cs/arm/4.7.3/bin/../lib/gcc/arm-none-eabi/4.7.3/../../../../arm-none-eabi/lib/armv7-m\libc_s.a(lib_a-exit.o)
                              c:/program files (x86)/cypress/psoc creator/3.0/psoc creator/import/gnu_cs/arm/4.7.3/bin/../lib/gcc/arm-none-eabi/4.7.3/../../../../arm-none-eabi/lib/armv7-m/crt0.o (exit)
c:/program files (x86)/cypress/psoc creator/3.0/psoc creator/import/gnu_cs/arm/4.7.3/bin/../lib/gcc/arm-none-eabi/4.7.3/../../../../arm-none-eabi/lib/armv7-m\libc_s.a(lib_a-fini.o)
                              c:/program files (x86)/cypress/psoc creator/3.0/psoc creator/import/gnu_cs/arm/4.7.3/bin/../lib/gcc/arm-none-eabi/4.7.3/../../../../arm-none-eabi/lib/armv7-m/crt0.o (__libc_fini_array)
c:/program files (x86)/cypress/psoc creator/3.0/psoc creator/import/gnu_cs/arm/4.7.3/bin/../lib/gcc/arm-none-eabi/4.7.3/../../../../arm-none-eabi/lib/armv7-m\libc_s.a(lib_a-impure.o)
                              c:/program files (x86)/cypress/psoc creator/3.0/psoc creator/import/gnu_cs/arm/4.7.3/bin/../lib/gcc/arm-none-eabi/4.7.3/../../../../arm-none-eabi/lib/armv7-m\libc_s.a(lib_a-exit.o) (_global_impure_ptr)
c:/program files (x86)/cypress/psoc creator/3.0/psoc creator/import/gnu_cs/arm/4.7.3/bin/../lib/gcc/arm-none-eabi/4.7.3/../../../../arm-none-eabi/lib/armv7-m\libc_s.a(lib_a-init.o)
                              c:/program files (x86)/cypress/psoc creator/3.0/psoc creator/import/gnu_cs/arm/4.7.3/bin/../lib/gcc/arm-none-eabi/4.7.3/../../../../arm-none-eabi/lib/armv7-m/crt0.o (__libc_init_array)
c:/program files (x86)/cypress/psoc creator/3.0/psoc creator/import/gnu_cs/arm/4.7.3/bin/../lib/gcc/arm-none-eabi/4.7.3/../../../../arm-none-eabi/lib/armv7-m\libc_s.a(lib_a-memcpy.o)
                              .\CortexM3\ARM_GCC_473\Debug\ail_backback.a(cyfitter_cfg.o) (memcpy)
c:/program files (x86)/cypress/psoc creator/3.0/psoc creator/import/gnu_cs/arm/4.7.3/bin/../lib/gcc/arm-none-eabi/4.7.3/../../../../arm-none-eabi/lib/armv7-m\libc_s.a(lib_a-memset.o)
                              c:/program files (x86)/cypress/psoc creator/3.0/psoc creator/import/gnu_cs/arm/4.7.3/bin/../lib/gcc/arm-none-eabi/4.7.3/../../../../arm-none-eabi/lib/armv7-m/crt0.o (memset)

Allocating common symbols
Common symbol       size              file

rudder_buffer       0x4               .\CortexM3\ARM_GCC_473\Debug\main.o
elevator_buffer     0x4               .\CortexM3\ARM_GCC_473\Debug\main.o
pak                 0x6               .\CortexM3\ARM_GCC_473\Debug\main.o
dieTemperature      0x2               .\CortexM3\ARM_GCC_473\Debug\ail_backback.a(CyFlash.o)

Discarded input sections

 .text          0x00000000        0x0 c:/program files (x86)/cypress/psoc creator/3.0/psoc creator/import/gnu_cs/arm/4.7.3/bin/../lib/gcc/arm-none-eabi/4.7.3/armv7-m/crti.o
 .data          0x00000000        0x0 c:/program files (x86)/cypress/psoc creator/3.0/psoc creator/import/gnu_cs/arm/4.7.3/bin/../lib/gcc/arm-none-eabi/4.7.3/armv7-m/crti.o
 .bss           0x00000000        0x0 c:/program files (x86)/cypress/psoc creator/3.0/psoc creator/import/gnu_cs/arm/4.7.3/bin/../lib/gcc/arm-none-eabi/4.7.3/armv7-m/crti.o
 .data          0x00000000        0x4 c:/program files (x86)/cypress/psoc creator/3.0/psoc creator/import/gnu_cs/arm/4.7.3/bin/../lib/gcc/arm-none-eabi/4.7.3/armv7-m/crtbegin.o
 .text          0x00000000       0x70 c:/program files (x86)/cypress/psoc creator/3.0/psoc creator/import/gnu_cs/arm/4.7.3/bin/../lib/gcc/arm-none-eabi/4.7.3/../../../../arm-none-eabi/lib/armv7-m/crt0.o
 .data          0x00000000        0x0 c:/program files (x86)/cypress/psoc creator/3.0/psoc creator/import/gnu_cs/arm/4.7.3/bin/../lib/gcc/arm-none-eabi/4.7.3/../../../../arm-none-eabi/lib/armv7-m/crt0.o
 .bss           0x00000000        0x0 c:/program files (x86)/cypress/psoc creator/3.0/psoc creator/import/gnu_cs/arm/4.7.3/bin/../lib/gcc/arm-none-eabi/4.7.3/../../../../arm-none-eabi/lib/armv7-m/crt0.o
 .ARM.extab     0x00000000        0x0 c:/program files (x86)/cypress/psoc creator/3.0/psoc creator/import/gnu_cs/arm/4.7.3/bin/../lib/gcc/arm-none-eabi/4.7.3/../../../../arm-none-eabi/lib/armv7-m/crt0.o
 .ARM.exidx     0x00000000        0x8 c:/program files (x86)/cypress/psoc creator/3.0/psoc creator/import/gnu_cs/arm/4.7.3/bin/../lib/gcc/arm-none-eabi/4.7.3/../../../../arm-none-eabi/lib/armv7-m/crt0.o
 .text          0x00000000        0x0 .\CortexM3\ARM_GCC_473\Debug\main.o
 .data          0x00000000        0x0 .\CortexM3\ARM_GCC_473\Debug\main.o
 .bss           0x00000000        0x0 .\CortexM3\ARM_GCC_473\Debug\main.o
 .text          0x00000000        0x0 .\CortexM3\ARM_GCC_473\Debug\cymetadata.o
 .data          0x00000000        0x0 .\CortexM3\ARM_GCC_473\Debug\cymetadata.o
 .bss           0x00000000        0x0 .\CortexM3\ARM_GCC_473\Debug\cymetadata.o
 .text          0x00000000        0x0 .\CortexM3\ARM_GCC_473\Debug\Cm3Start.o
 .data          0x00000000        0x0 .\CortexM3\ARM_GCC_473\Debug\Cm3Start.o
 .bss           0x00000000        0x0 .\CortexM3\ARM_GCC_473\Debug\Cm3Start.o
Memory Configuration

Name             Origin             Length             Attributes
rom              0x00000000         0x00040000         xr
ram              0x1fff8000         0x00010000         xrw
*default*        0x00000000         0xffffffff

Linker script and memory map

LOAD c:/program files (x86)/cypress/psoc creator/3.0/psoc creator/import/gnu_cs/arm/4.7.3/bin/../lib/gcc/arm-none-eabi/4.7.3/armv7-m/crti.o
LOAD c:/program files (x86)/cypress/psoc creator/3.0/psoc creator/import/gnu_cs/arm/4.7.3/bin/../lib/gcc/arm-none-eabi/4.7.3/armv7-m/crtbegin.o
LOAD c:/program files (x86)/cypress/psoc creator/3.0/psoc creator/import/gnu_cs/arm/4.7.3/bin/../lib/gcc/arm-none-eabi/4.7.3/../../../../arm-none-eabi/lib/armv7-m/crt0.o
START GROUP
LOAD .\CortexM3\ARM_GCC_473\Debug\main.o
LOAD .\CortexM3\ARM_GCC_473\Debug\cymetadata.o
LOAD .\CortexM3\ARM_GCC_473\Debug\Cm3Start.o
LOAD .\CortexM3\ARM_GCC_473\Debug\ail_backback.a
LOAD C:\Program Files (x86)\Cypress\PSoC Creator\3.0\PSoC Creator\psoc\content\cycomponentlibrary\CyComponentLibrary.cylib\CortexM3\ARM_GCC_473\Debug\CyComponentLibrary.a
END GROUP
START GROUP
LOAD c:/program files (x86)/cypress/psoc creator/3.0/psoc creator/import/gnu_cs/arm/4.7.3/bin/../lib/gcc/arm-none-eabi/4.7.3/armv7-m\libgcc.a
LOAD c:/program files (x86)/cypress/psoc creator/3.0/psoc creator/import/gnu_cs/arm/4.7.3/bin/../lib/gcc/arm-none-eabi/4.7.3/../../../../arm-none-eabi/lib/armv7-m\libc_s.a
END GROUP
LOAD c:/program files (x86)/cypress/psoc creator/3.0/psoc creator/import/gnu_cs/arm/4.7.3/bin/../lib/gcc/arm-none-eabi/4.7.3/armv7-m/crtend.o
LOAD c:/program files (x86)/cypress/psoc creator/3.0/psoc creator/import/gnu_cs/arm/4.7.3/bin/../lib/gcc/arm-none-eabi/4.7.3/armv7-m/crtn.o
START GROUP
LOAD c:/program files (x86)/cypress/psoc creator/3.0/psoc creator/import/gnu_cs/arm/4.7.3/bin/../lib/gcc/arm-none-eabi/4.7.3/armv7-m\libgcc.a
LOAD c:/program files (x86)/cypress/psoc creator/3.0/psoc creator/import/gnu_cs/arm/4.7.3/bin/../lib/gcc/arm-none-eabi/4.7.3/../../../../arm-none-eabi/lib/armv7-m\libc.a
LOAD c:/program files (x86)/cypress/psoc creator/3.0/psoc creator/import/gnu_cs/arm/4.7.3/bin/../lib/gcc/arm-none-eabi/4.7.3/../../../../arm-none-eabi/lib/armv7-m\libnosys.a
END GROUP
                0x00000000                CY_APPL_ORIGIN = 0x0
                0x00000100                CY_FLASH_ROW_SIZE = 0x100
                0x00000020                CY_ECC_ROW_SIZE = 0x20
                0x00000000                CY_EE_IN_BTLDR = 0x0
                0x00000000                CY_APPL_LOADABLE = 0x0
                0x00000800                CY_EE_SIZE = 0x800
                0x00000001                CY_APPL_NUM = 0x1
                0x00000001                CY_APPL_MAX = 0x1
                0x00000040                CY_METADATA_SIZE = 0x40
                0x1fff8140                PROVIDE (__cy_heap_start, _end)
                0x00000001                PROVIDE (__cy_region_num, ((__cy_regions_end - __cy_regions) / 0x10))
                0x20008000                PROVIDE (__cy_stack, (ORIGIN (ram) + 0x10000))
                0x20004000                PROVIDE (__cy_heap_end, (__cy_stack - 0x4000))

.cybootloader   0x00000000        0x0
 *(.cybootloader)
                0x00000000                appl1_start = CY_APPL_ORIGIN?CY_APPL_ORIGIN:ALIGN (CY_FLASH_ROW_SIZE)
                0x0001ff00                appl2_start = (appl1_start + ALIGN ((((0x40000 - appl1_start) - (0x2 * CY_FLASH_ROW_SIZE)) / 0x2), CY_FLASH_ROW_SIZE))
                0x00000000                appl_start = (CY_APPL_NUM == 0x1)?appl1_start:appl2_start
                0x00000000                ecc_offset = ((appl_start / CY_FLASH_ROW_SIZE) * CY_ECC_ROW_SIZE)
                0x00000000                ee_offset = (CY_APPL_LOADABLE && ! (CY_EE_IN_BTLDR))?((CY_EE_SIZE / CY_APPL_MAX) * (CY_APPL_NUM - 0x1)):0x0
                0x00000800                ee_size = (CY_APPL_LOADABLE && ! (CY_EE_IN_BTLDR))?(CY_EE_SIZE / CY_APPL_MAX):CY_EE_SIZE
                0x00000000                PROVIDE (CY_ECC_OFFSET, ecc_offset)

.text           0x00000000     0x111a
 CREATE_OBJECT_SYMBOLS
                0x00000000                PROVIDE (__cy_interrupt_vector, RomVectors)
 *(.romvectors)
 .romvectors    0x00000000       0x10 .\CortexM3\ARM_GCC_473\Debug\Cm3Start.o
                0x00000000                RomVectors
                0x00000001                ASSERT ((. != __cy_interrupt_vector), No interrupt vector)
                0x00000001                ASSERT (CY_APPL_ORIGIN?(SIZEOF (.cybootloader) <= CY_APPL_ORIGIN):0x1, Wrong image location)
                0x00000010                PROVIDE (__cy_reset, Reset)
 *(.text.Reset)
 .text.Reset    0x00000010       0x1c .\CortexM3\ARM_GCC_473\Debug\Cm3Start.o
                0x00000010                Reset
                0x00000001                ASSERT ((. != __cy_reset), No reset code)
 *(.dma_init)
                0x00000001                ASSERT ((((appl_start + .) <= 0x10000) || 0x1), DMA Init must be within the first 64k of flash)
 *(.text .text.* .gnu.linkonce.t.*)
 .text          0x0000002c       0x54 c:/program files (x86)/cypress/psoc creator/3.0/psoc creator/import/gnu_cs/arm/4.7.3/bin/../lib/gcc/arm-none-eabi/4.7.3/armv7-m/crtbegin.o
 .text.main     0x00000080       0xa8 .\CortexM3\ARM_GCC_473\Debug\main.o
                0x00000080                main
 .text.Timer_Set
                0x00000128       0x1c .\CortexM3\ARM_GCC_473\Debug\main.o
                0x00000128                Timer_Set
 .text.Timer_Delayus
                0x00000144       0x2c .\CortexM3\ARM_GCC_473\Debug\main.o
                0x00000144                Timer_Delayus
 .text.rs485_Start
                0x00000170       0x10 .\CortexM3\ARM_GCC_473\Debug\main.o
                0x00000170                rs485_Start
 .text.rs485_CheckPacket
                0x00000180      0x1b4 .\CortexM3\ARM_GCC_473\Debug\main.o
                0x00000180                rs485_CheckPacket
 .text.CheckValid
                0x00000334       0x5c .\CortexM3\ARM_GCC_473\Debug\main.o
                0x00000334                CheckValid
 .text.Servo_Start
                0x00000390       0x18 .\CortexM3\ARM_GCC_473\Debug\main.o
                0x00000390                Servo_Start
 .text.Terminal_Count_ISR
                0x000003a8       0x30 .\CortexM3\ARM_GCC_473\Debug\main.o
                0x000003a8                Terminal_Count_ISR
 .text.IntDefaultHandler
                0x000003d8        0x8 .\CortexM3\ARM_GCC_473\Debug\Cm3Start.o
                0x000003d8                IntDefaultHandler
 .text.Start_c  0x000003e0       0xcc .\CortexM3\ARM_GCC_473\Debug\Cm3Start.o
                0x000003e0                Start_c
 .text.initialize_psoc
                0x000004ac       0xb4 .\CortexM3\ARM_GCC_473\Debug\Cm3Start.o
                0x000004ac                initialize_psoc
 .text.CYMEMZERO
                0x00000560       0x20 .\CortexM3\ARM_GCC_473\Debug\ail_backback.a(cyfitter_cfg.o)
 .text.CYCONFIGCPY
                0x00000580       0x20 .\CortexM3\ARM_GCC_473\Debug\ail_backback.a(cyfitter_cfg.o)
 .text.CyClockStartupError
                0x000005a0        0xc .\CortexM3\ARM_GCC_473\Debug\ail_backback.a(cyfitter_cfg.o)
 .text.cfg_write_bytes32
                0x000005ac       0x84 .\CortexM3\ARM_GCC_473\Debug\ail_backback.a(cyfitter_cfg.o)
 .text.ClockSetup
                0x00000630      0x16c .\CortexM3\ARM_GCC_473\Debug\ail_backback.a(cyfitter_cfg.o)
 .text.AnalogSetDefault
                0x0000079c       0x50 .\CortexM3\ARM_GCC_473\Debug\ail_backback.a(cyfitter_cfg.o)
 .text.cyfitter_cfg
                0x000007ec      0x1c0 .\CortexM3\ARM_GCC_473\Debug\ail_backback.a(cyfitter_cfg.o)
                0x000007ec                cyfitter_cfg
 *fill*         0x000009ac        0x4 00
 .text          0x000009b0       0x28 .\CortexM3\ARM_GCC_473\Debug\ail_backback.a(CyBootAsmGnu.o)
                0x000009b0                CyDelayCycles
                0x000009c4                CyEnterCriticalSection
                0x000009cc                CyExitCriticalSection
 .text.UART_Start
                0x000009d8       0x2c .\CortexM3\ARM_GCC_473\Debug\ail_backback.a(UART.o)
                0x000009d8                UART_Start
 .text.UART_Init
                0x00000a04       0x50 .\CortexM3\ARM_GCC_473\Debug\ail_backback.a(UART.o)
                0x00000a04                UART_Init
 .text.UART_Enable
                0x00000a54       0x74 .\CortexM3\ARM_GCC_473\Debug\ail_backback.a(UART.o)
                0x00000a54                UART_Enable
 .text.UART_ReadRxData
                0x00000ac8       0x20 .\CortexM3\ARM_GCC_473\Debug\ail_backback.a(UART.o)
                0x00000ac8                UART_ReadRxData
 .text.UART_ReadRxStatus
                0x00000ae8       0x28 .\CortexM3\ARM_GCC_473\Debug\ail_backback.a(UART.o)
                0x00000ae8                UART_ReadRxStatus
 .text.UART_ClearRxBuffer
                0x00000b10       0x58 .\CortexM3\ARM_GCC_473\Debug\ail_backback.a(UART.o)
                0x00000b10                UART_ClearRxBuffer
 .text.UART_ReadTxStatus
                0x00000b68       0x18 .\CortexM3\ARM_GCC_473\Debug\ail_backback.a(UART.o)
                0x00000b68                UART_ReadTxStatus
 .text.UART_PutChar
                0x00000b80       0x38 .\CortexM3\ARM_GCC_473\Debug\ail_backback.a(UART.o)
                0x00000b80                UART_PutChar
 .text.Timer_Init
                0x00000bb8       0x58 .\CortexM3\ARM_GCC_473\Debug\ail_backback.a(Timer.o)
                0x00000bb8                Timer_Init
 .text.Timer_Enable
                0x00000c10       0x28 .\CortexM3\ARM_GCC_473\Debug\ail_backback.a(Timer.o)
                0x00000c10                Timer_Enable
 .text.Timer_Start
                0x00000c38       0x2c .\CortexM3\ARM_GCC_473\Debug\ail_backback.a(Timer.o)
                0x00000c38                Timer_Start
 .text.Timer_SetInterruptMode
                0x00000c64       0x20 .\CortexM3\ARM_GCC_473\Debug\ail_backback.a(Timer.o)
                0x00000c64                Timer_SetInterruptMode
 .text.Timer_ReadStatusRegister
                0x00000c84       0x18 .\CortexM3\ARM_GCC_473\Debug\ail_backback.a(Timer.o)
                0x00000c84                Timer_ReadStatusRegister
 .text.Timer_WritePeriod
                0x00000c9c       0x20 .\CortexM3\ARM_GCC_473\Debug\ail_backback.a(Timer.o)
                0x00000c9c                Timer_WritePeriod
 .text.Timer_ReadCapture
                0x00000cbc       0x18 .\CortexM3\ARM_GCC_473\Debug\ail_backback.a(Timer.o)
                0x00000cbc                Timer_ReadCapture
 .text.Timer_WriteCounter
                0x00000cd4       0x20 .\CortexM3\ARM_GCC_473\Debug\ail_backback.a(Timer.o)
                0x00000cd4                Timer_WriteCounter
 .text.Timer_ReadCounter
                0x00000cf4       0x24 .\CortexM3\ARM_GCC_473\Debug\ail_backback.a(Timer.o)
                0x00000cf4                Timer_ReadCounter
 .text.Timer_ClearFIFO
                0x00000d18       0x1c .\CortexM3\ARM_GCC_473\Debug\ail_backback.a(Timer.o)
                0x00000d18                Timer_ClearFIFO
 .text.DE_Write
                0x00000d34       0x40 .\CortexM3\ARM_GCC_473\Debug\ail_backback.a(DE.o)
                0x00000d34                DE_Write
 .text.LED_1_Write
                0x00000d74       0x40 .\CortexM3\ARM_GCC_473\Debug\ail_backback.a(LED_1.o)
                0x00000d74                LED_1_Write
 .text.LED_2_Write
                0x00000db4       0x44 .\CortexM3\ARM_GCC_473\Debug\ail_backback.a(LED_2.o)
                0x00000db4                LED_2_Write
 .text.PWM_1_Start
                0x00000df8       0x2c .\CortexM3\ARM_GCC_473\Debug\ail_backback.a(PWM_1.o)
                0x00000df8                PWM_1_Start
 .text.PWM_1_Init
                0x00000e24       0xc4 .\CortexM3\ARM_GCC_473\Debug\ail_backback.a(PWM_1.o)
                0x00000e24                PWM_1_Init
 .text.PWM_1_Enable
                0x00000ee8       0x28 .\CortexM3\ARM_GCC_473\Debug\ail_backback.a(PWM_1.o)
                0x00000ee8                PWM_1_Enable
 .text.PWM_1_WriteCounter
                0x00000f10       0x20 .\CortexM3\ARM_GCC_473\Debug\ail_backback.a(PWM_1.o)
                0x00000f10                PWM_1_WriteCounter
 .text.PWM_1_ClearFIFO
                0x00000f30       0x1c .\CortexM3\ARM_GCC_473\Debug\ail_backback.a(PWM_1.o)
                0x00000f30                PWM_1_ClearFIFO
 .text.PWM_1_WritePeriod
                0x00000f4c       0x20 .\CortexM3\ARM_GCC_473\Debug\ail_backback.a(PWM_1.o)
                0x00000f4c                PWM_1_WritePeriod
 .text.PWM_1_WriteCompare1
                0x00000f6c       0x20 .\CortexM3\ARM_GCC_473\Debug\ail_backback.a(PWM_1.o)
                0x00000f6c                PWM_1_WriteCompare1
 .text.PWM_1_WriteCompare2
                0x00000f8c       0x20 .\CortexM3\ARM_GCC_473\Debug\ail_backback.a(PWM_1.o)
                0x00000f8c                PWM_1_WriteCompare2
 .text.PWM_1_SetInterruptMode
                0x00000fac       0x20 .\CortexM3\ARM_GCC_473\Debug\ail_backback.a(PWM_1.o)
                0x00000fac                PWM_1_SetInterruptMode
 .text.PWM_1_ReadStatusRegister
                0x00000fcc       0x20 .\CortexM3\ARM_GCC_473\Debug\ail_backback.a(PWM_1.o)
                0x00000fcc                PWM_1_ReadStatusRegister
 .text.PWM_1_ReadCapture
                0x00000fec       0x18 .\CortexM3\ARM_GCC_473\Debug\ail_backback.a(PWM_1.o)
                0x00000fec                PWM_1_ReadCapture
 .text.isr_tc_StartEx
                0x00001004       0x28 .\CortexM3\ARM_GCC_473\Debug\ail_backback.a(isr_tc.o)
                0x00001004                isr_tc_StartEx
 .text.isr_tc_SetVector
                0x0000102c       0x28 .\CortexM3\ARM_GCC_473\Debug\ail_backback.a(isr_tc.o)
                0x0000102c                isr_tc_SetVector
 .text.isr_tc_SetPriority
                0x00001054       0x28 .\CortexM3\ARM_GCC_473\Debug\ail_backback.a(isr_tc.o)
                0x00001054                isr_tc_SetPriority
 .text.isr_tc_Enable
                0x0000107c       0x18 .\CortexM3\ARM_GCC_473\Debug\ail_backback.a(isr_tc.o)
                0x0000107c                isr_tc_Enable
 .text.isr_tc_Disable
                0x00001094       0x18 .\CortexM3\ARM_GCC_473\Debug\ail_backback.a(isr_tc.o)
                0x00001094                isr_tc_Disable
 .text.__libc_init_array
                0x000010ac       0x4c c:/program files (x86)/cypress/psoc creator/3.0/psoc creator/import/gnu_cs/arm/4.7.3/bin/../lib/gcc/arm-none-eabi/4.7.3/../../../../arm-none-eabi/lib/armv7-m\libc_s.a(lib_a-init.o)
                0x000010ac                __libc_init_array
 .text.memcpy   0x000010f8       0x12 c:/program files (x86)/cypress/psoc creator/3.0/psoc creator/import/gnu_cs/arm/4.7.3/bin/../lib/gcc/arm-none-eabi/4.7.3/../../../../arm-none-eabi/lib/armv7-m\libc_s.a(lib_a-memcpy.o)
                0x000010f8                memcpy
 .text.memset   0x0000110a       0x10 c:/program files (x86)/cypress/psoc creator/3.0/psoc creator/import/gnu_cs/arm/4.7.3/bin/../lib/gcc/arm-none-eabi/4.7.3/../../../../arm-none-eabi/lib/armv7-m\libc_s.a(lib_a-memset.o)
                0x0000110a                memset
 *(.plt)
 *(.gnu.warning)
 *(.glue_7t)
 .glue_7t       0x00000000        0x0 linker stubs
 *(.glue_7)
 .glue_7        0x00000000        0x0 linker stubs
 *(.vfp11_veneer)
 .vfp11_veneer  0x00000000        0x0 linker stubs
 *(.bootloader)
 *(.ARM.extab* .gnu.linkonce.armextab.*)
 *(.gcc_except_table)

.v4_bx          0x0000111c        0x0
 .v4_bx         0x00000000        0x0 linker stubs

.iplt           0x0000111c        0x0
 .iplt          0x00000000        0x0 c:/program files (x86)/cypress/psoc creator/3.0/psoc creator/import/gnu_cs/arm/4.7.3/bin/../lib/gcc/arm-none-eabi/4.7.3/armv7-m/crtbegin.o

.eh_frame_hdr
 *(.eh_frame_hdr)

.eh_frame       0x0000111c        0x4
 *(.eh_frame)
 .eh_frame      0x0000111c        0x0 c:/program files (x86)/cypress/psoc creator/3.0/psoc creator/import/gnu_cs/arm/4.7.3/bin/../lib/gcc/arm-none-eabi/4.7.3/armv7-m/crtbegin.o
 .eh_frame      0x0000111c        0x4 c:/program files (x86)/cypress/psoc creator/3.0/psoc creator/import/gnu_cs/arm/4.7.3/bin/../lib/gcc/arm-none-eabi/4.7.3/armv7-m/crtend.o
                0x00001120                PROVIDE (__exidx_start, .)

.ARM.exidx
 *(.ARM.exidx* .gnu.linkonce.armexidx.*)
                0x00001120                __exidx_end = .

.rodata         0x00001120       0x78
 *(.rodata .rodata.* .gnu.linkonce.r.*)
 .rodata        0x00001120       0x44 .\CortexM3\ARM_GCC_473\Debug\ail_backback.a(cyfitter_cfg.o)
                0x00001164                . = ALIGN (0x4)
 *(.init)
 .init          0x00001164        0x4 c:/program files (x86)/cypress/psoc creator/3.0/psoc creator/import/gnu_cs/arm/4.7.3/bin/../lib/gcc/arm-none-eabi/4.7.3/armv7-m/crti.o
                0x00001164                _init
 .init          0x00001168        0x8 c:/program files (x86)/cypress/psoc creator/3.0/psoc creator/import/gnu_cs/arm/4.7.3/bin/../lib/gcc/arm-none-eabi/4.7.3/armv7-m/crtn.o
                0x00001170                . = ALIGN (0x4)
                0x00001170                __preinit_array_start = .
 *(.preinit_array)
                0x00001170                __preinit_array_end = .
                0x00001170                . = ALIGN (0x4)
                0x00001170                __init_array_start = .
 *(SORT(.init_array.*))
 *(.init_array)
 .init_array    0x00001170        0x4 c:/program files (x86)/cypress/psoc creator/3.0/psoc creator/import/gnu_cs/arm/4.7.3/bin/../lib/gcc/arm-none-eabi/4.7.3/armv7-m/crtbegin.o
 .init_array    0x00001174        0x4 .\CortexM3\ARM_GCC_473\Debug\Cm3Start.o
                0x00001178                __init_array_end = .
                0x00001178                . = ALIGN (0x4)
 *(.fini)
 .fini          0x00001178        0x4 c:/program files (x86)/cypress/psoc creator/3.0/psoc creator/import/gnu_cs/arm/4.7.3/bin/../lib/gcc/arm-none-eabi/4.7.3/armv7-m/crti.o
                0x00001178                _fini
 .fini          0x0000117c        0x8 c:/program files (x86)/cypress/psoc creator/3.0/psoc creator/import/gnu_cs/arm/4.7.3/bin/../lib/gcc/arm-none-eabi/4.7.3/armv7-m/crtn.o
                0x00001184                . = ALIGN (0x4)
                0x00001184                __fini_array_start = .
 *(.fini_array)
 .fini_array    0x00001184        0x4 c:/program files (x86)/cypress/psoc creator/3.0/psoc creator/import/gnu_cs/arm/4.7.3/bin/../lib/gcc/arm-none-eabi/4.7.3/armv7-m/crtbegin.o
 *(SORT(.fini_array.*))
                0x00001188                __fini_array_end = .
                0x00001188                . = ALIGN (0x4)
 *crtbegin.o(.ctors)
 *(EXCLUDE_FILE(*crtend.o) .ctors)
 *(SORT(.ctors.*))
 *crtend.o(.ctors)
                0x00001188                . = ALIGN (0x4)
 *crtbegin.o(.dtors)
 *(EXCLUDE_FILE(*crtend.o) .dtors)
 *(SORT(.dtors.*))
 *crtend.o(.dtors)
                0x00001188                . = ALIGN (0x4)
                0x00001188                __cy_regions = .
                0x00001188        0x4 LONG 0x1198 __cy_region_init_ram
                0x0000118c        0x4 LONG 0x1fff8108 __cy_region_start_data
                0x00001190        0x4 LONG 0x8 __cy_region_init_size_ram
                0x00001194        0x4 LONG 0x30 __cy_region_zero_size_ram
                0x00001198                __cy_regions_end = .
                0x00001198                . = ALIGN (0x8)
                0x00001198                _etext = .

.ramvectors     0x1fff8000      0x100
                0x1fff8000                __cy_region_start_ram = .
 *(.ramvectors)
 .ramvectors    0x1fff8000      0x100 .\CortexM3\ARM_GCC_473\Debug\Cm3Start.o
                0x1fff8000                CyRamVectors

.noinit         0x1fff8100        0x5
 *(.noinit)
 .noinit        0x1fff8100        0x4 .\CortexM3\ARM_GCC_473\Debug\Cm3Start.o
 .noinit        0x1fff8104        0x1 .\CortexM3\ARM_GCC_473\Debug\ail_backback.a(CyLib.o)
                0x1fff8104                CyResetStatus

.data           0x1fff8108        0x8 load address 0x00001198
                0x1fff8108                __cy_region_start_data = .
 *(.jcr)
 .jcr           0x1fff8108        0x0 c:/program files (x86)/cypress/psoc creator/3.0/psoc creator/import/gnu_cs/arm/4.7.3/bin/../lib/gcc/arm-none-eabi/4.7.3/armv7-m/crtbegin.o
 .jcr           0x1fff8108        0x4 c:/program files (x86)/cypress/psoc creator/3.0/psoc creator/import/gnu_cs/arm/4.7.3/bin/../lib/gcc/arm-none-eabi/4.7.3/armv7-m/crtend.o
 *(.got.plt)
 *(.got)
 *(.shdata)
 *(.data .data.* .gnu.linkonce.d.*)
                0x1fff8110                . = ALIGN (0x8)
 *fill*         0x1fff810c        0x4 00
 *(.ram)
                0x1fff8110                _edata = .

.igot.plt       0x1fff8110        0x0 load address 0x000011a0
 .igot.plt      0x00000000        0x0 c:/program files (x86)/cypress/psoc creator/3.0/psoc creator/import/gnu_cs/arm/4.7.3/bin/../lib/gcc/arm-none-eabi/4.7.3/armv7-m/crtbegin.o

.bss            0x1fff8110       0x30 load address 0x000011a0
                0x1fff8110                PROVIDE (__bss_start__, .)
 *(.shbss)
 *(.bss .bss.* .gnu.linkonce.b.*)
 .bss           0x1fff8110       0x1c c:/program files (x86)/cypress/psoc creator/3.0/psoc creator/import/gnu_cs/arm/4.7.3/bin/../lib/gcc/arm-none-eabi/4.7.3/armv7-m/crtbegin.o
 .bss           0x1fff812c        0x2 .\CortexM3\ARM_GCC_473\Debug\ail_backback.a(UART.o)
                0x1fff812c                UART_initVar
 .bss           0x1fff812e        0x1 .\CortexM3\ARM_GCC_473\Debug\ail_backback.a(Timer.o)
                0x1fff812e                Timer_initVar
 .bss           0x1fff812f        0x1 .\CortexM3\ARM_GCC_473\Debug\ail_backback.a(PWM_1.o)
                0x1fff812f                PWM_1_initVar
 *(COMMON)
 COMMON         0x1fff8130        0xe .\CortexM3\ARM_GCC_473\Debug\main.o
                0x1fff8130                rudder_buffer
                0x1fff8134                elevator_buffer
                0x1fff8138                pak
                0x1fff8140                . = ALIGN (0x8)
 *fill*         0x1fff813e        0x2 00
 *(.ram.b)
                0x1fff8140                _end = .
                0x1fff8140                __end = .
                0x1fff8140                PROVIDE (end, .)
                0x1fff8140                PROVIDE (__bss_end__, .)
                0x00001198                __cy_region_init_ram = LOADADDR (.data)
                0x00000008                __cy_region_init_size_ram = (_edata - ADDR (.data))
                0x00000030                __cy_region_zero_size_ram = (_end - _edata)

.heap           0x1fff8140     0x1000 load address 0x000011a0
                0x1fff8140                . = _end
                0x1fff9140                . = (. + 0x1000)
 *fill*         0x1fff8140     0x1000 00
                0x1fff9140                __cy_heap_limit = .

.stack          0x20004000     0x4000
                0x20004000                __cy_stack_limit = .
                0x20008000                . = (. + 0x4000)
 *fill*         0x20004000     0x4000 00
                0x00000001                ASSERT ((__cy_stack_limit >= __cy_heap_limit), region RAM overflowed with stack)

.cyloadermeta
 *(.cyloadermeta)

.cyloadablemeta
 *(.cyloadablemeta)

.cyconfigecc    0x80000000      0x580
 *(.cyconfigecc)
 .cyconfigecc   0x80000000      0x580 .\CortexM3\ARM_GCC_473\Debug\cymetadata.o
                0x80000000                cy_meta_configecc

.cycustnvl      0x90000000        0x4
 *(.cycustnvl)
 .cycustnvl     0x90000000        0x4 .\CortexM3\ARM_GCC_473\Debug\cymetadata.o
                0x90000000                cy_meta_custnvl

.cywolatch      0x90100000        0x4
 *(.cywolatch)
 .cywolatch     0x90100000        0x4 .\CortexM3\ARM_GCC_473\Debug\cymetadata.o
                0x90100000                cy_meta_wonvl

.cyeeprom       0x90200000        0x0
 *(.cyeeprom)
                0x00000001                ASSERT ((. <= ((0x90200000 + ee_offset) + ee_size)), .cyeeprom data will not fit in EEPROM)

.cyflashprotect
                0x90400000      0x100
 *(.cyflashprotect)
 .cyflashprotect
                0x90400000      0x100 .\CortexM3\ARM_GCC_473\Debug\cymetadata.o
                0x90400000                cy_meta_flashprotect

.cymeta         0x90500000        0xc
 *(.cymeta)
 .cymeta        0x90500000        0xc .\CortexM3\ARM_GCC_473\Debug\cymetadata.o
                0x90500000                cy_metadata

.rel.dyn        0x000011a0        0x0 load address 0x9050000c
 .rel.iplt      0x00000000        0x0 c:/program files (x86)/cypress/psoc creator/3.0/psoc creator/import/gnu_cs/arm/4.7.3/bin/../lib/gcc/arm-none-eabi/4.7.3/armv7-m/crtbegin.o

.stab
 *(.stab)

.stabstr
 *(.stabstr)

.debug
 *(.debug)

.line
 *(.line)

.debug_srcinfo
 *(.debug_srcinfo)

.debug_sfnames
 *(.debug_sfnames)

.debug_aranges  0x00000000      0x808
 *(.debug_aranges)
 .debug_aranges
                0x00000000       0x58 .\CortexM3\ARM_GCC_473\Debug\main.o
 .debug_aranges
                0x00000058       0x18 .\CortexM3\ARM_GCC_473\Debug\cymetadata.o
 .debug_aranges
                0x00000070       0x40 .\CortexM3\ARM_GCC_473\Debug\Cm3Start.o
 .debug_aranges
                0x000000b0       0x60 .\CortexM3\ARM_GCC_473\Debug\ail_backback.a(cyfitter_cfg.o)
 .debug_aranges
                0x00000110       0x20 .\CortexM3\ARM_GCC_473\Debug\ail_backback.a(CyBootAsmGnu.o)
 .debug_aranges
                0x00000130      0x218 .\CortexM3\ARM_GCC_473\Debug\ail_backback.a(CyLib.o)
 .debug_aranges
                0x00000348       0x90 .\CortexM3\ARM_GCC_473\Debug\ail_backback.a(cyPm.o)
 .debug_aranges
                0x000003d8       0xf0 .\CortexM3\ARM_GCC_473\Debug\ail_backback.a(UART.o)
 .debug_aranges
                0x000004c8       0x90 .\CortexM3\ARM_GCC_473\Debug\ail_backback.a(Timer.o)
 .debug_aranges
                0x00000558       0x38 .\CortexM3\ARM_GCC_473\Debug\ail_backback.a(DE.o)
 .debug_aranges
                0x00000590       0x38 .\CortexM3\ARM_GCC_473\Debug\ail_backback.a(LED_1.o)
 .debug_aranges
                0x000005c8       0x38 .\CortexM3\ARM_GCC_473\Debug\ail_backback.a(LED_2.o)
 .debug_aranges
                0x00000600       0xa8 .\CortexM3\ARM_GCC_473\Debug\ail_backback.a(PWM_1.o)
 .debug_aranges
                0x000006a8       0x80 .\CortexM3\ARM_GCC_473\Debug\ail_backback.a(isr_tc.o)
 .debug_aranges
                0x00000728       0x78 .\CortexM3\ARM_GCC_473\Debug\ail_backback.a(CyFlash.o)
 .debug_aranges
                0x000007a0       0x68 .\CortexM3\ARM_GCC_473\Debug\ail_backback.a(CySpc.o)

.debug_pubnames
 *(.debug_pubnames)

.debug_info     0x00000000     0x3757
 *(.debug_info .gnu.linkonce.wi.*)
 .debug_info    0x00000000      0x2cd .\CortexM3\ARM_GCC_473\Debug\main.o
 .debug_info    0x000002cd      0x140 .\CortexM3\ARM_GCC_473\Debug\cymetadata.o
 .debug_info    0x0000040d      0x2ea .\CortexM3\ARM_GCC_473\Debug\Cm3Start.o
 .debug_info    0x000006f7      0x47e .\CortexM3\ARM_GCC_473\Debug\ail_backback.a(cyfitter_cfg.o)
 .debug_info    0x00000b75       0x91 .\CortexM3\ARM_GCC_473\Debug\ail_backback.a(CyBootAsmGnu.o)
 .debug_info    0x00000c06      0xcd7 .\CortexM3\ARM_GCC_473\Debug\ail_backback.a(CyLib.o)
 .debug_info    0x000018dd      0x5c3 .\CortexM3\ARM_GCC_473\Debug\ail_backback.a(cyPm.o)
 .debug_info    0x00001ea0      0x58b .\CortexM3\ARM_GCC_473\Debug\ail_backback.a(UART.o)
 .debug_info    0x0000242b      0x2a0 .\CortexM3\ARM_GCC_473\Debug\ail_backback.a(Timer.o)
 .debug_info    0x000026cb      0x134 .\CortexM3\ARM_GCC_473\Debug\ail_backback.a(DE.o)
 .debug_info    0x000027ff      0x134 .\CortexM3\ARM_GCC_473\Debug\ail_backback.a(LED_1.o)
 .debug_info    0x00002933      0x134 .\CortexM3\ARM_GCC_473\Debug\ail_backback.a(LED_2.o)
 .debug_info    0x00002a67      0x34b .\CortexM3\ARM_GCC_473\Debug\ail_backback.a(PWM_1.o)
 .debug_info    0x00002db2      0x278 .\CortexM3\ARM_GCC_473\Debug\ail_backback.a(isr_tc.o)
 .debug_info    0x0000302a      0x354 .\CortexM3\ARM_GCC_473\Debug\ail_backback.a(CyFlash.o)
 .debug_info    0x0000337e      0x3d9 .\CortexM3\ARM_GCC_473\Debug\ail_backback.a(CySpc.o)

.debug_abbrev   0x00000000     0x1221
 *(.debug_abbrev)
 .debug_abbrev  0x00000000      0x18b .\CortexM3\ARM_GCC_473\Debug\main.o
 .debug_abbrev  0x0000018b       0x77 .\CortexM3\ARM_GCC_473\Debug\cymetadata.o
 .debug_abbrev  0x00000202      0x175 .\CortexM3\ARM_GCC_473\Debug\Cm3Start.o
 .debug_abbrev  0x00000377      0x1b9 .\CortexM3\ARM_GCC_473\Debug\ail_backback.a(cyfitter_cfg.o)
 .debug_abbrev  0x00000530       0x14 .\CortexM3\ARM_GCC_473\Debug\ail_backback.a(CyBootAsmGnu.o)
 .debug_abbrev  0x00000544      0x207 .\CortexM3\ARM_GCC_473\Debug\ail_backback.a(CyLib.o)
 .debug_abbrev  0x0000074b      0x170 .\CortexM3\ARM_GCC_473\Debug\ail_backback.a(cyPm.o)
 .debug_abbrev  0x000008bb      0x165 .\CortexM3\ARM_GCC_473\Debug\ail_backback.a(UART.o)
 .debug_abbrev  0x00000a20      0x11d .\CortexM3\ARM_GCC_473\Debug\ail_backback.a(Timer.o)
 .debug_abbrev  0x00000b3d       0x92 .\CortexM3\ARM_GCC_473\Debug\ail_backback.a(DE.o)
 .debug_abbrev  0x00000bcf       0x92 .\CortexM3\ARM_GCC_473\Debug\ail_backback.a(LED_1.o)
 .debug_abbrev  0x00000c61       0x92 .\CortexM3\ARM_GCC_473\Debug\ail_backback.a(LED_2.o)
 .debug_abbrev  0x00000cf3      0x130 .\CortexM3\ARM_GCC_473\Debug\ail_backback.a(PWM_1.o)
 .debug_abbrev  0x00000e23      0x12d .\CortexM3\ARM_GCC_473\Debug\ail_backback.a(isr_tc.o)
 .debug_abbrev  0x00000f50      0x172 .\CortexM3\ARM_GCC_473\Debug\ail_backback.a(CyFlash.o)
 .debug_abbrev  0x000010c2      0x15f .\CortexM3\ARM_GCC_473\Debug\ail_backback.a(CySpc.o)

.debug_line     0x00000000     0x1d95
 *(.debug_line)
 .debug_line    0x00000000      0x224 .\CortexM3\ARM_GCC_473\Debug\main.o
 .debug_line    0x00000224       0x53 .\CortexM3\ARM_GCC_473\Debug\cymetadata.o
 .debug_line    0x00000277      0x1b0 .\CortexM3\ARM_GCC_473\Debug\Cm3Start.o
 .debug_line    0x00000427      0x220 .\CortexM3\ARM_GCC_473\Debug\ail_backback.a(cyfitter_cfg.o)
 .debug_line    0x00000647       0x68 .\CortexM3\ARM_GCC_473\Debug\ail_backback.a(CyBootAsmGnu.o)
 .debug_line    0x000006af      0x73b .\CortexM3\ARM_GCC_473\Debug\ail_backback.a(CyLib.o)
 .debug_line    0x00000dea      0x347 .\CortexM3\ARM_GCC_473\Debug\ail_backback.a(cyPm.o)
 .debug_line    0x00001131      0x2ef .\CortexM3\ARM_GCC_473\Debug\ail_backback.a(UART.o)
 .debug_line    0x00001420      0x174 .\CortexM3\ARM_GCC_473\Debug\ail_backback.a(Timer.o)
 .debug_line    0x00001594       0x93 .\CortexM3\ARM_GCC_473\Debug\ail_backback.a(DE.o)
 .debug_line    0x00001627       0x96 .\CortexM3\ARM_GCC_473\Debug\ail_backback.a(LED_1.o)
 .debug_line    0x000016bd       0x96 .\CortexM3\ARM_GCC_473\Debug\ail_backback.a(LED_2.o)
 .debug_line    0x00001753      0x1b3 .\CortexM3\ARM_GCC_473\Debug\ail_backback.a(PWM_1.o)
 .debug_line    0x00001906      0x141 .\CortexM3\ARM_GCC_473\Debug\ail_backback.a(isr_tc.o)
 .debug_line    0x00001a47      0x1a7 .\CortexM3\ARM_GCC_473\Debug\ail_backback.a(CyFlash.o)
 .debug_line    0x00001bee      0x1a7 .\CortexM3\ARM_GCC_473\Debug\ail_backback.a(CySpc.o)

.debug_frame    0x00000000     0x199c
 *(.debug_frame)
 .debug_frame   0x00000000      0x100 .\CortexM3\ARM_GCC_473\Debug\main.o
 .debug_frame   0x00000100       0xa4 .\CortexM3\ARM_GCC_473\Debug\Cm3Start.o
 .debug_frame   0x000001a4      0x120 .\CortexM3\ARM_GCC_473\Debug\ail_backback.a(cyfitter_cfg.o)
 .debug_frame   0x000002c4      0x778 .\CortexM3\ARM_GCC_473\Debug\ail_backback.a(CyLib.o)
 .debug_frame   0x00000a3c      0x1d0 .\CortexM3\ARM_GCC_473\Debug\ail_backback.a(cyPm.o)
 .debug_frame   0x00000c0c      0x328 .\CortexM3\ARM_GCC_473\Debug\ail_backback.a(UART.o)
 .debug_frame   0x00000f34      0x1b8 .\CortexM3\ARM_GCC_473\Debug\ail_backback.a(Timer.o)
 .debug_frame   0x000010ec       0x80 .\CortexM3\ARM_GCC_473\Debug\ail_backback.a(DE.o)
 .debug_frame   0x0000116c       0x80 .\CortexM3\ARM_GCC_473\Debug\ail_backback.a(LED_1.o)
 .debug_frame   0x000011ec       0x80 .\CortexM3\ARM_GCC_473\Debug\ail_backback.a(LED_2.o)
 .debug_frame   0x0000126c      0x20c .\CortexM3\ARM_GCC_473\Debug\ail_backback.a(PWM_1.o)
 .debug_frame   0x00001478      0x180 .\CortexM3\ARM_GCC_473\Debug\ail_backback.a(isr_tc.o)
 .debug_frame   0x000015f8      0x178 .\CortexM3\ARM_GCC_473\Debug\ail_backback.a(CyFlash.o)
 .debug_frame   0x00001770      0x13c .\CortexM3\ARM_GCC_473\Debug\ail_backback.a(CySpc.o)
 .debug_frame   0x000018ac       0x28 c:/program files (x86)/cypress/psoc creator/3.0/psoc creator/import/gnu_cs/arm/4.7.3/bin/../lib/gcc/arm-none-eabi/4.7.3/../../../../arm-none-eabi/lib/armv7-m\libc_s.a(lib_a-__atexit2.o)
 .debug_frame   0x000018d4       0x28 c:/program files (x86)/cypress/psoc creator/3.0/psoc creator/import/gnu_cs/arm/4.7.3/bin/../lib/gcc/arm-none-eabi/4.7.3/../../../../arm-none-eabi/lib/armv7-m\libc_s.a(lib_a-exit.o)
 .debug_frame   0x000018fc       0x2c c:/program files (x86)/cypress/psoc creator/3.0/psoc creator/import/gnu_cs/arm/4.7.3/bin/../lib/gcc/arm-none-eabi/4.7.3/../../../../arm-none-eabi/lib/armv7-m\libc_s.a(lib_a-fini.o)
 .debug_frame   0x00001928       0x2c c:/program files (x86)/cypress/psoc creator/3.0/psoc creator/import/gnu_cs/arm/4.7.3/bin/../lib/gcc/arm-none-eabi/4.7.3/../../../../arm-none-eabi/lib/armv7-m\libc_s.a(lib_a-init.o)
 .debug_frame   0x00001954       0x28 c:/program files (x86)/cypress/psoc creator/3.0/psoc creator/import/gnu_cs/arm/4.7.3/bin/../lib/gcc/arm-none-eabi/4.7.3/../../../../arm-none-eabi/lib/armv7-m\libc_s.a(lib_a-memcpy.o)
 .debug_frame   0x0000197c       0x20 c:/program files (x86)/cypress/psoc creator/3.0/psoc creator/import/gnu_cs/arm/4.7.3/bin/../lib/gcc/arm-none-eabi/4.7.3/../../../../arm-none-eabi/lib/armv7-m\libc_s.a(lib_a-memset.o)

.debug_str      0x00000000     0x185c
 *(.debug_str)
 .debug_str     0x00000000      0x1cf .\CortexM3\ARM_GCC_473\Debug\main.o
                                0x215 (size before relaxing)
 .debug_str     0x000001cf       0x77 .\CortexM3\ARM_GCC_473\Debug\cymetadata.o
                                0x1a6 (size before relaxing)
 .debug_str     0x00000246      0x119 .\CortexM3\ARM_GCC_473\Debug\Cm3Start.o
                                0x262 (size before relaxing)
 .debug_str     0x0000035f      0x193 .\CortexM3\ARM_GCC_473\Debug\ail_backback.a(cyfitter_cfg.o)
                                0x2e8 (size before relaxing)
 .debug_str     0x000004f2      0x633 .\CortexM3\ARM_GCC_473\Debug\ail_backback.a(CyLib.o)
                                0x7c8 (size before relaxing)
 .debug_str     0x00000b25      0x371 .\CortexM3\ARM_GCC_473\Debug\ail_backback.a(cyPm.o)
                                0x4d7 (size before relaxing)
 .debug_str     0x00000e96      0x284 .\CortexM3\ARM_GCC_473\Debug\ail_backback.a(UART.o)
                                0x3d3 (size before relaxing)
 .debug_str     0x0000111a      0x16e .\CortexM3\ARM_GCC_473\Debug\ail_backback.a(Timer.o)
                                0x2be (size before relaxing)
 .debug_str     0x00001288       0x59 .\CortexM3\ARM_GCC_473\Debug\ail_backback.a(DE.o)
                                0x18f (size before relaxing)
 .debug_str     0x000012e1       0x5d .\CortexM3\ARM_GCC_473\Debug\ail_backback.a(LED_1.o)
                                0x19e (size before relaxing)
 .debug_str     0x0000133e       0x5d .\CortexM3\ARM_GCC_473\Debug\ail_backback.a(LED_2.o)
                                0x19e (size before relaxing)
 .debug_str     0x0000139b      0x1a4 .\CortexM3\ARM_GCC_473\Debug\ail_backback.a(PWM_1.o)
                                0x30a (size before relaxing)
 .debug_str     0x0000153f       0xf6 .\CortexM3\ARM_GCC_473\Debug\ail_backback.a(isr_tc.o)
                                0x264 (size before relaxing)
 .debug_str     0x00001635      0x129 .\CortexM3\ARM_GCC_473\Debug\ail_backback.a(CyFlash.o)
                                0x29d (size before relaxing)
 .debug_str     0x0000175e       0xfe .\CortexM3\ARM_GCC_473\Debug\ail_backback.a(CySpc.o)
                                0x279 (size before relaxing)

.debug_loc      0x00000000     0x29a8
 *(.debug_loc)
 .debug_loc     0x00000000      0x190 .\CortexM3\ARM_GCC_473\Debug\main.o
 .debug_loc     0x00000190      0x100 .\CortexM3\ARM_GCC_473\Debug\Cm3Start.o
 .debug_loc     0x00000290      0x1f8 .\CortexM3\ARM_GCC_473\Debug\ail_backback.a(cyfitter_cfg.o)
 .debug_loc     0x00000488      0xce0 .\CortexM3\ARM_GCC_473\Debug\ail_backback.a(CyLib.o)
 .debug_loc     0x00001168      0x2e8 .\CortexM3\ARM_GCC_473\Debug\ail_backback.a(cyPm.o)
 .debug_loc     0x00001450      0x5ac .\CortexM3\ARM_GCC_473\Debug\ail_backback.a(UART.o)
 .debug_loc     0x000019fc      0x2d0 .\CortexM3\ARM_GCC_473\Debug\ail_backback.a(Timer.o)
 .debug_loc     0x00001ccc       0xc8 .\CortexM3\ARM_GCC_473\Debug\ail_backback.a(DE.o)
 .debug_loc     0x00001d94       0xc8 .\CortexM3\ARM_GCC_473\Debug\ail_backback.a(LED_1.o)
 .debug_loc     0x00001e5c       0xc8 .\CortexM3\ARM_GCC_473\Debug\ail_backback.a(LED_2.o)
 .debug_loc     0x00001f24      0x384 .\CortexM3\ARM_GCC_473\Debug\ail_backback.a(PWM_1.o)
 .debug_loc     0x000022a8      0x278 .\CortexM3\ARM_GCC_473\Debug\ail_backback.a(isr_tc.o)
 .debug_loc     0x00002520      0x258 .\CortexM3\ARM_GCC_473\Debug\ail_backback.a(CyFlash.o)
 .debug_loc     0x00002778      0x230 .\CortexM3\ARM_GCC_473\Debug\ail_backback.a(CySpc.o)

.debug_macinfo
 *(.debug_macinfo)

.debug_ranges   0x00000000      0x6f0
 *(.debug_ranges)
 .debug_ranges  0x00000000       0x48 .\CortexM3\ARM_GCC_473\Debug\main.o
 .debug_ranges  0x00000048       0x30 .\CortexM3\ARM_GCC_473\Debug\Cm3Start.o
 .debug_ranges  0x00000078       0x50 .\CortexM3\ARM_GCC_473\Debug\ail_backback.a(cyfitter_cfg.o)
 .debug_ranges  0x000000c8      0x208 .\CortexM3\ARM_GCC_473\Debug\ail_backback.a(CyLib.o)
 .debug_ranges  0x000002d0       0x80 .\CortexM3\ARM_GCC_473\Debug\ail_backback.a(cyPm.o)
 .debug_ranges  0x00000350       0xe0 .\CortexM3\ARM_GCC_473\Debug\ail_backback.a(UART.o)
 .debug_ranges  0x00000430       0x80 .\CortexM3\ARM_GCC_473\Debug\ail_backback.a(Timer.o)
 .debug_ranges  0x000004b0       0x28 .\CortexM3\ARM_GCC_473\Debug\ail_backback.a(DE.o)
 .debug_ranges  0x000004d8       0x28 .\CortexM3\ARM_GCC_473\Debug\ail_backback.a(LED_1.o)
 .debug_ranges  0x00000500       0x28 .\CortexM3\ARM_GCC_473\Debug\ail_backback.a(LED_2.o)
 .debug_ranges  0x00000528       0x98 .\CortexM3\ARM_GCC_473\Debug\ail_backback.a(PWM_1.o)
 .debug_ranges  0x000005c0       0x70 .\CortexM3\ARM_GCC_473\Debug\ail_backback.a(isr_tc.o)
 .debug_ranges  0x00000630       0x68 .\CortexM3\ARM_GCC_473\Debug\ail_backback.a(CyFlash.o)
 .debug_ranges  0x00000698       0x58 .\CortexM3\ARM_GCC_473\Debug\ail_backback.a(CySpc.o)

.comment        0x00000000       0x70
 .comment       0x00000000       0x70 .\CortexM3\ARM_GCC_473\Debug\main.o
                                 0x71 (size before relaxing)
 .comment       0x00000000       0x71 .\CortexM3\ARM_GCC_473\Debug\cymetadata.o
 .comment       0x00000000       0x71 .\CortexM3\ARM_GCC_473\Debug\Cm3Start.o
 .comment       0x00000000       0x71 .\CortexM3\ARM_GCC_473\Debug\ail_backback.a(cyfitter_cfg.o)
 .comment       0x00000000       0x71 .\CortexM3\ARM_GCC_473\Debug\ail_backback.a(CyLib.o)
 .comment       0x00000000       0x71 .\CortexM3\ARM_GCC_473\Debug\ail_backback.a(cyPm.o)
 .comment       0x00000000       0x71 .\CortexM3\ARM_GCC_473\Debug\ail_backback.a(UART.o)
 .comment       0x00000000       0x71 .\CortexM3\ARM_GCC_473\Debug\ail_backback.a(Timer.o)
 .comment       0x00000000       0x71 .\CortexM3\ARM_GCC_473\Debug\ail_backback.a(DE.o)
 .comment       0x00000000       0x71 .\CortexM3\ARM_GCC_473\Debug\ail_backback.a(LED_1.o)
 .comment       0x00000000       0x71 .\CortexM3\ARM_GCC_473\Debug\ail_backback.a(LED_2.o)
 .comment       0x00000000       0x71 .\CortexM3\ARM_GCC_473\Debug\ail_backback.a(PWM_1.o)
 .comment       0x00000000       0x71 .\CortexM3\ARM_GCC_473\Debug\ail_backback.a(isr_tc.o)
 .comment       0x00000000       0x71 .\CortexM3\ARM_GCC_473\Debug\ail_backback.a(CyFlash.o)
 .comment       0x00000000       0x71 .\CortexM3\ARM_GCC_473\Debug\ail_backback.a(CySpc.o)

.debug_weaknames
 *(.debug_weaknames)

.debug_funcnames
 *(.debug_funcnames)

.debug_typenames
 *(.debug_typenames)

.debug_varnames
 *(.debug_varnames)

.note.gnu.arm.ident
 *(.note.gnu.arm.ident)

.ARM.attributes
                0x00000000       0x29
 *(.ARM.attributes)
 .ARM.attributes
                0x00000000       0x1d c:/program files (x86)/cypress/psoc creator/3.0/psoc creator/import/gnu_cs/arm/4.7.3/bin/../lib/gcc/arm-none-eabi/4.7.3/armv7-m/crti.o
 .ARM.attributes
                0x0000001d       0x2d c:/program files (x86)/cypress/psoc creator/3.0/psoc creator/import/gnu_cs/arm/4.7.3/bin/../lib/gcc/arm-none-eabi/4.7.3/armv7-m/crtbegin.o
 .ARM.attributes
                0x0000004a       0x1b c:/program files (x86)/cypress/psoc creator/3.0/psoc creator/import/gnu_cs/arm/4.7.3/bin/../lib/gcc/arm-none-eabi/4.7.3/../../../../arm-none-eabi/lib/armv7-m/crt0.o
 .ARM.attributes
                0x00000065       0x33 .\CortexM3\ARM_GCC_473\Debug\main.o
 .ARM.attributes
                0x00000098       0x33 .\CortexM3\ARM_GCC_473\Debug\cymetadata.o
 .ARM.attributes
                0x000000cb       0x33 .\CortexM3\ARM_GCC_473\Debug\Cm3Start.o
 .ARM.attributes
                0x000000fe       0x33 .\CortexM3\ARM_GCC_473\Debug\ail_backback.a(cyfitter_cfg.o)
 .ARM.attributes
                0x00000131       0x21 .\CortexM3\ARM_GCC_473\Debug\ail_backback.a(CyBootAsmGnu.o)
 .ARM.attributes
                0x00000152       0x33 .\CortexM3\ARM_GCC_473\Debug\ail_backback.a(CyLib.o)
 .ARM.attributes
                0x00000185       0x33 .\CortexM3\ARM_GCC_473\Debug\ail_backback.a(cyPm.o)
 .ARM.attributes
                0x000001b8       0x33 .\CortexM3\ARM_GCC_473\Debug\ail_backback.a(UART.o)
 .ARM.attributes
                0x000001eb       0x33 .\CortexM3\ARM_GCC_473\Debug\ail_backback.a(Timer.o)
 .ARM.attributes
                0x0000021e       0x33 .\CortexM3\ARM_GCC_473\Debug\ail_backback.a(DE.o)
 .ARM.attributes
                0x00000251       0x33 .\CortexM3\ARM_GCC_473\Debug\ail_backback.a(LED_1.o)
 .ARM.attributes
                0x00000284       0x33 .\CortexM3\ARM_GCC_473\Debug\ail_backback.a(LED_2.o)
 .ARM.attributes
                0x000002b7       0x33 .\CortexM3\ARM_GCC_473\Debug\ail_backback.a(PWM_1.o)
 .ARM.attributes
                0x000002ea       0x33 .\CortexM3\ARM_GCC_473\Debug\ail_backback.a(isr_tc.o)
 .ARM.attributes
                0x0000031d       0x33 .\CortexM3\ARM_GCC_473\Debug\ail_backback.a(CyFlash.o)
 .ARM.attributes
                0x00000350       0x33 .\CortexM3\ARM_GCC_473\Debug\ail_backback.a(CySpc.o)
 .ARM.attributes
                0x00000383       0x2d c:/program files (x86)/cypress/psoc creator/3.0/psoc creator/import/gnu_cs/arm/4.7.3/bin/../lib/gcc/arm-none-eabi/4.7.3/../../../../arm-none-eabi/lib/armv7-m\libc_s.a(lib_a-__atexit2.o)
 .ARM.attributes
                0x000003b0       0x2d c:/program files (x86)/cypress/psoc creator/3.0/psoc creator/import/gnu_cs/arm/4.7.3/bin/../lib/gcc/arm-none-eabi/4.7.3/../../../../arm-none-eabi/lib/armv7-m\libc_s.a(lib_a-exit.o)
 .ARM.attributes
                0x000003dd       0x2d c:/program files (x86)/cypress/psoc creator/3.0/psoc creator/import/gnu_cs/arm/4.7.3/bin/../lib/gcc/arm-none-eabi/4.7.3/../../../../arm-none-eabi/lib/armv7-m\libc_s.a(lib_a-fini.o)
 .ARM.attributes
                0x0000040a       0x2d c:/program files (x86)/cypress/psoc creator/3.0/psoc creator/import/gnu_cs/arm/4.7.3/bin/../lib/gcc/arm-none-eabi/4.7.3/../../../../arm-none-eabi/lib/armv7-m\libc_s.a(lib_a-impure.o)
 .ARM.attributes
                0x00000437       0x2d c:/program files (x86)/cypress/psoc creator/3.0/psoc creator/import/gnu_cs/arm/4.7.3/bin/../lib/gcc/arm-none-eabi/4.7.3/../../../../arm-none-eabi/lib/armv7-m\libc_s.a(lib_a-init.o)
 .ARM.attributes
                0x00000464       0x2d c:/program files (x86)/cypress/psoc creator/3.0/psoc creator/import/gnu_cs/arm/4.7.3/bin/../lib/gcc/arm-none-eabi/4.7.3/../../../../arm-none-eabi/lib/armv7-m\libc_s.a(lib_a-memcpy.o)
 .ARM.attributes
                0x00000491       0x2d c:/program files (x86)/cypress/psoc creator/3.0/psoc creator/import/gnu_cs/arm/4.7.3/bin/../lib/gcc/arm-none-eabi/4.7.3/../../../../arm-none-eabi/lib/armv7-m\libc_s.a(lib_a-memset.o)
 .ARM.attributes
                0x000004be       0x2d c:/program files (x86)/cypress/psoc creator/3.0/psoc creator/import/gnu_cs/arm/4.7.3/bin/../lib/gcc/arm-none-eabi/4.7.3/armv7-m/crtend.o
 .ARM.attributes
                0x000004eb       0x1d c:/program files (x86)/cypress/psoc creator/3.0/psoc creator/import/gnu_cs/arm/4.7.3/bin/../lib/gcc/arm-none-eabi/4.7.3/armv7-m/crtn.o

/DISCARD/
 *(.note.GNU-stack)
OUTPUT(.\CortexM3\ARM_GCC_473\Debug\ail_backback.elf elf32-littlearm)
