ARM GAS  C:\Users\Kenichi\AppData\Local\Temp\cc2LCSOf.s 			page 1


   1              		.syntax unified
   2              		.cpu cortex-m3
   3              		.fpu softvfp
   4              		.eabi_attribute 20, 1
   5              		.eabi_attribute 21, 1
   6              		.eabi_attribute 23, 3
   7              		.eabi_attribute 24, 1
   8              		.eabi_attribute 25, 1
   9              		.eabi_attribute 26, 1
  10              		.eabi_attribute 30, 6
  11              		.eabi_attribute 34, 1
  12              		.eabi_attribute 18, 4
  13              		.thumb
  14              		.file	"cymetadata.c"
  15              		.text
  16              	.Ltext0:
  17              		.cfi_sections	.debug_frame
  18              		.global	cy_meta_configecc
  19              		.section	.cyconfigecc,"a",%progbits
  20              		.align	2
  21              		.type	cy_meta_configecc, %object
  22              		.size	cy_meta_configecc, 684
  23              	cy_meta_configecc:
  24 0000 06       		.byte	6
  25 0001 52       		.byte	82
  26 0002 00       		.byte	0
  27 0003 40       		.byte	64
  28 0004 02       		.byte	2
  29 0005 64       		.byte	100
  30 0006 00       		.byte	0
  31 0007 40       		.byte	64
  32 0008 02       		.byte	2
  33 0009 02       		.byte	2
  34 000a 01       		.byte	1
  35 000b 40       		.byte	64
  36 000c 03       		.byte	3
  37 000d 03       		.byte	3
  38 000e 01       		.byte	1
  39 000f 40       		.byte	64
  40 0010 01       		.byte	1
  41 0011 05       		.byte	5
  42 0012 01       		.byte	1
  43 0013 40       		.byte	64
  44 0014 4B       		.byte	75
  45 0015 06       		.byte	6
  46 0016 01       		.byte	1
  47 0017 40       		.byte	64
  48 0018 2A       		.byte	42
  49 0019 07       		.byte	7
  50 001a 01       		.byte	1
  51 001b 40       		.byte	64
  52 001c 03       		.byte	3
  53 001d 09       		.byte	9
  54 001e 01       		.byte	1
  55 001f 40       		.byte	64
  56 0020 39       		.byte	57
  57 0021 0A       		.byte	10
ARM GAS  C:\Users\Kenichi\AppData\Local\Temp\cc2LCSOf.s 			page 2


  58 0022 01       		.byte	1
  59 0023 40       		.byte	64
  60 0024 25       		.byte	37
  61 0025 0B       		.byte	11
  62 0026 01       		.byte	1
  63 0027 40       		.byte	64
  64 0028 04       		.byte	4
  65 0029 17       		.byte	23
  66 002a 01       		.byte	1
  67 002b 40       		.byte	64
  68 002c 04       		.byte	4
  69 002d 19       		.byte	25
  70 002e 01       		.byte	1
  71 002f 40       		.byte	64
  72 0030 07       		.byte	7
  73 0031 41       		.byte	65
  74 0032 01       		.byte	1
  75 0033 40       		.byte	64
  76 0034 06       		.byte	6
  77 0035 42       		.byte	66
  78 0036 01       		.byte	1
  79 0037 40       		.byte	64
  80 0038 02       		.byte	2
  81 0039 43       		.byte	67
  82 003a 01       		.byte	1
  83 003b 40       		.byte	64
  84 003c 05       		.byte	5
  85 003d 45       		.byte	69
  86 003e 01       		.byte	1
  87 003f 40       		.byte	64
  88 0040 06       		.byte	6
  89 0041 46       		.byte	70
  90 0042 01       		.byte	1
  91 0043 40       		.byte	64
  92 0044 08       		.byte	8
  93 0045 48       		.byte	72
  94 0046 01       		.byte	1
  95 0047 40       		.byte	64
  96 0048 05       		.byte	5
  97 0049 49       		.byte	73
  98 004a 01       		.byte	1
  99 004b 40       		.byte	64
 100 004c 03       		.byte	3
 101 004d 50       		.byte	80
 102 004e 01       		.byte	1
 103 004f 40       		.byte	64
 104 0050 04       		.byte	4
 105 0051 F0       		.byte	-16
 106 0052 14       		.byte	20
 107 0053 0F       		.byte	15
 108 0054 19       		.byte	25
 109 0055 04       		.byte	4
 110 0056 60       		.byte	96
 111 0057 04       		.byte	4
 112 0058 61       		.byte	97
 113 0059 04       		.byte	4
 114 005a 79       		.byte	121
ARM GAS  C:\Users\Kenichi\AppData\Local\Temp\cc2LCSOf.s 			page 3


 115 005b 08       		.byte	8
 116 005c 87       		.byte	-121
 117 005d 2D       		.byte	45
 118 005e 8B       		.byte	-117
 119 005f 2D       		.byte	45
 120 0060 5B       		.byte	91
 121 0061 04       		.byte	4
 122 0062 5F       		.byte	95
 123 0063 01       		.byte	1
 124 0064 5F       		.byte	95
 125 0065 55       		.byte	85
 126 0066 83       		.byte	-125
 127 0067 01       		.byte	1
 128 0068 D6       		.byte	-42
 129 0069 F0       		.byte	-16
 130 006a AF       		.byte	-81
 131 006b 54       		.byte	84
 132 006c 0C       		.byte	12
 133 006d 04       		.byte	4
 134 006e 1E       		.byte	30
 135 006f 0A       		.byte	10
 136 0070 1F       		.byte	31
 137 0071 01       		.byte	1
 138 0072 21       		.byte	33
 139 0073 01       		.byte	1
 140 0074 2E       		.byte	46
 141 0075 03       		.byte	3
 142 0076 30       		.byte	48
 143 0077 02       		.byte	2
 144 0078 31       		.byte	49
 145 0079 01       		.byte	1
 146 007a 32       		.byte	50
 147 007b 01       		.byte	1
 148 007c 34       		.byte	52
 149 007d 04       		.byte	4
 150 007e 36       		.byte	54
 151 007f 08       		.byte	8
 152 0080 3E       		.byte	62
 153 0081 10       		.byte	16
 154 0082 40       		.byte	64
 155 0083 30       		.byte	48
 156 0084 41       		.byte	65
 157 0085 05       		.byte	5
 158 0086 49       		.byte	73
 159 0087 FF       		.byte	-1
 160 0088 4A       		.byte	74
 161 0089 FF       		.byte	-1
 162 008a 4B       		.byte	75
 163 008b FF       		.byte	-1
 164 008c 4D       		.byte	77
 165 008d A0       		.byte	-96
 166 008e 4F       		.byte	79
 167 008f 04       		.byte	4
 168 0090 50       		.byte	80
 169 0091 18       		.byte	24
 170 0092 52       		.byte	82
 171 0093 80       		.byte	-128
ARM GAS  C:\Users\Kenichi\AppData\Local\Temp\cc2LCSOf.s 			page 4


 172 0094 58       		.byte	88
 173 0095 04       		.byte	4
 174 0096 59       		.byte	89
 175 0097 04       		.byte	4
 176 0098 5A       		.byte	90
 177 0099 04       		.byte	4
 178 009a 5B       		.byte	91
 179 009b 04       		.byte	4
 180 009c 5C       		.byte	92
 181 009d 22       		.byte	34
 182 009e 5D       		.byte	93
 183 009f 22       		.byte	34
 184 00a0 5F       		.byte	95
 185 00a1 01       		.byte	1
 186 00a2 60       		.byte	96
 187 00a3 40       		.byte	64
 188 00a4 62       		.byte	98
 189 00a5 C0       		.byte	-64
 190 00a6 64       		.byte	100
 191 00a7 40       		.byte	64
 192 00a8 65       		.byte	101
 193 00a9 40       		.byte	64
 194 00aa 66       		.byte	102
 195 00ab C0       		.byte	-64
 196 00ac 68       		.byte	104
 197 00ad C0       		.byte	-64
 198 00ae 6A       		.byte	106
 199 00af C0       		.byte	-64
 200 00b0 6C       		.byte	108
 201 00b1 C0       		.byte	-64
 202 00b2 6E       		.byte	110
 203 00b3 C0       		.byte	-64
 204 00b4 88       		.byte	-120
 205 00b5 01       		.byte	1
 206 00b6 98       		.byte	-104
 207 00b7 04       		.byte	4
 208 00b8 9C       		.byte	-100
 209 00b9 02       		.byte	2
 210 00ba B0       		.byte	-80
 211 00bb 04       		.byte	4
 212 00bc B4       		.byte	-76
 213 00bd 01       		.byte	1
 214 00be B6       		.byte	-74
 215 00bf 02       		.byte	2
 216 00c0 B8       		.byte	-72
 217 00c1 08       		.byte	8
 218 00c2 B9       		.byte	-71
 219 00c3 02       		.byte	2
 220 00c4 BE       		.byte	-66
 221 00c5 51       		.byte	81
 222 00c6 C0       		.byte	-64
 223 00c7 30       		.byte	48
 224 00c8 C1       		.byte	-63
 225 00c9 05       		.byte	5
 226 00ca C5       		.byte	-59
 227 00cb D2       		.byte	-46
 228 00cc C6       		.byte	-58
ARM GAS  C:\Users\Kenichi\AppData\Local\Temp\cc2LCSOf.s 			page 5


 229 00cd 01       		.byte	1
 230 00ce C7       		.byte	-57
 231 00cf 20       		.byte	32
 232 00d0 C8       		.byte	-56
 233 00d1 27       		.byte	39
 234 00d2 C9       		.byte	-55
 235 00d3 FF       		.byte	-1
 236 00d4 CA       		.byte	-54
 237 00d5 FF       		.byte	-1
 238 00d6 CB       		.byte	-53
 239 00d7 FF       		.byte	-1
 240 00d8 CD       		.byte	-51
 241 00d9 AF       		.byte	-81
 242 00da CE       		.byte	-50
 243 00db 0F       		.byte	15
 244 00dc CF       		.byte	-49
 245 00dd 04       		.byte	4
 246 00de D0       		.byte	-48
 247 00df 18       		.byte	24
 248 00e0 D4       		.byte	-44
 249 00e1 25       		.byte	37
 250 00e2 D8       		.byte	-40
 251 00e3 04       		.byte	4
 252 00e4 D9       		.byte	-39
 253 00e5 04       		.byte	4
 254 00e6 DA       		.byte	-38
 255 00e7 04       		.byte	4
 256 00e8 DB       		.byte	-37
 257 00e9 04       		.byte	4
 258 00ea DC       		.byte	-36
 259 00eb 02       		.byte	2
 260 00ec DD       		.byte	-35
 261 00ed 22       		.byte	34
 262 00ee DF       		.byte	-33
 263 00ef 01       		.byte	1
 264 00f0 E0       		.byte	-32
 265 00f1 40       		.byte	64
 266 00f2 E2       		.byte	-30
 267 00f3 C0       		.byte	-64
 268 00f4 E4       		.byte	-28
 269 00f5 40       		.byte	64
 270 00f6 E5       		.byte	-27
 271 00f7 40       		.byte	64
 272 00f8 E6       		.byte	-26
 273 00f9 C0       		.byte	-64
 274 00fa E8       		.byte	-24
 275 00fb C0       		.byte	-64
 276 00fc EA       		.byte	-22
 277 00fd C0       		.byte	-64
 278 00fe EC       		.byte	-20
 279 00ff C0       		.byte	-64
 280 0100 EE       		.byte	-18
 281 0101 C0       		.byte	-64
 282 0102 00       		.byte	0
 283 0103 10       		.byte	16
 284 0104 04       		.byte	4
 285 0105 40       		.byte	64
ARM GAS  C:\Users\Kenichi\AppData\Local\Temp\cc2LCSOf.s 			page 6


 286 0106 0A       		.byte	10
 287 0107 02       		.byte	2
 288 0108 0B       		.byte	11
 289 0109 08       		.byte	8
 290 010a 0D       		.byte	13
 291 010b 40       		.byte	64
 292 010c 17       		.byte	23
 293 010d 80       		.byte	-128
 294 010e 18       		.byte	24
 295 010f 16       		.byte	22
 296 0110 19       		.byte	25
 297 0111 02       		.byte	2
 298 0112 1C       		.byte	28
 299 0113 40       		.byte	64
 300 0114 1D       		.byte	29
 301 0115 08       		.byte	8
 302 0116 1E       		.byte	30
 303 0117 08       		.byte	8
 304 0118 1F       		.byte	31
 305 0119 40       		.byte	64
 306 011a 22       		.byte	34
 307 011b 01       		.byte	1
 308 011c 27       		.byte	39
 309 011d 40       		.byte	64
 310 011e 2F       		.byte	47
 311 011f 40       		.byte	64
 312 0120 36       		.byte	54
 313 0121 80       		.byte	-128
 314 0122 41       		.byte	65
 315 0123 08       		.byte	8
 316 0124 45       		.byte	69
 317 0125 08       		.byte	8
 318 0126 48       		.byte	72
 319 0127 02       		.byte	2
 320 0128 49       		.byte	73
 321 0129 05       		.byte	5
 322 012a 4E       		.byte	78
 323 012b 02       		.byte	2
 324 012c 50       		.byte	80
 325 012d 02       		.byte	2
 326 012e 51       		.byte	81
 327 012f 40       		.byte	64
 328 0130 52       		.byte	82
 329 0131 82       		.byte	-126
 330 0132 59       		.byte	89
 331 0133 05       		.byte	5
 332 0134 5B       		.byte	91
 333 0135 40       		.byte	64
 334 0136 60       		.byte	96
 335 0137 04       		.byte	4
 336 0138 77       		.byte	119
 337 0139 80       		.byte	-128
 338 013a 8E       		.byte	-114
 339 013b 04       		.byte	4
 340 013c 9D       		.byte	-99
 341 013d 02       		.byte	2
 342 013e B5       		.byte	-75
ARM GAS  C:\Users\Kenichi\AppData\Local\Temp\cc2LCSOf.s 			page 7


 343 013f 02       		.byte	2
 344 0140 C0       		.byte	-64
 345 0141 82       		.byte	-126
 346 0142 C2       		.byte	-62
 347 0143 83       		.byte	-125
 348 0144 C4       		.byte	-60
 349 0145 80       		.byte	-128
 350 0146 CA       		.byte	-54
 351 0147 80       		.byte	-128
 352 0148 CC       		.byte	-52
 353 0149 10       		.byte	16
 354 014a D0       		.byte	-48
 355 014b 42       		.byte	66
 356 014c D2       		.byte	-46
 357 014d 18       		.byte	24
 358 014e D6       		.byte	-42
 359 014f 0B       		.byte	11
 360 0150 D8       		.byte	-40
 361 0151 04       		.byte	4
 362 0152 E2       		.byte	-30
 363 0153 40       		.byte	64
 364 0154 EA       		.byte	-22
 365 0155 40       		.byte	64
 366 0156 9D       		.byte	-99
 367 0157 10       		.byte	16
 368 0158 A3       		.byte	-93
 369 0159 20       		.byte	32
 370 015a B2       		.byte	-78
 371 015b 84       		.byte	-124
 372 015c 40       		.byte	64
 373 015d 30       		.byte	48
 374 015e 41       		.byte	65
 375 015f 04       		.byte	4
 376 0160 49       		.byte	73
 377 0161 FF       		.byte	-1
 378 0162 4A       		.byte	74
 379 0163 FF       		.byte	-1
 380 0164 4B       		.byte	75
 381 0165 FF       		.byte	-1
 382 0166 4D       		.byte	77
 383 0167 A0       		.byte	-96
 384 0168 4F       		.byte	79
 385 0169 04       		.byte	4
 386 016a 50       		.byte	80
 387 016b 18       		.byte	24
 388 016c 5A       		.byte	90
 389 016d 04       		.byte	4
 390 016e 5B       		.byte	91
 391 016f 04       		.byte	4
 392 0170 5F       		.byte	95
 393 0171 01       		.byte	1
 394 0172 60       		.byte	96
 395 0173 40       		.byte	64
 396 0174 62       		.byte	98
 397 0175 C0       		.byte	-64
 398 0176 64       		.byte	100
 399 0177 40       		.byte	64
ARM GAS  C:\Users\Kenichi\AppData\Local\Temp\cc2LCSOf.s 			page 8


 400 0178 65       		.byte	101
 401 0179 40       		.byte	64
 402 017a 66       		.byte	102
 403 017b C0       		.byte	-64
 404 017c 68       		.byte	104
 405 017d C0       		.byte	-64
 406 017e 6A       		.byte	106
 407 017f C0       		.byte	-64
 408 0180 6C       		.byte	108
 409 0181 C0       		.byte	-64
 410 0182 6E       		.byte	110
 411 0183 C0       		.byte	-64
 412 0184 83       		.byte	-125
 413 0185 01       		.byte	1
 414 0186 9E       		.byte	-98
 415 0187 06       		.byte	6
 416 0188 AD       		.byte	-83
 417 0189 01       		.byte	1
 418 018a AE       		.byte	-82
 419 018b 03       		.byte	3
 420 018c B0       		.byte	-80
 421 018d 04       		.byte	4
 422 018e B2       		.byte	-78
 423 018f 01       		.byte	1
 424 0190 B4       		.byte	-76
 425 0191 02       		.byte	2
 426 0192 B7       		.byte	-73
 427 0193 01       		.byte	1
 428 0194 C0       		.byte	-64
 429 0195 30       		.byte	48
 430 0196 C1       		.byte	-63
 431 0197 04       		.byte	4
 432 0198 C5       		.byte	-59
 433 0199 D0       		.byte	-48
 434 019a C6       		.byte	-58
 435 019b 02       		.byte	2
 436 019c C7       		.byte	-57
 437 019d 10       		.byte	16
 438 019e C8       		.byte	-56
 439 019f 26       		.byte	38
 440 01a0 C9       		.byte	-55
 441 01a1 FF       		.byte	-1
 442 01a2 CA       		.byte	-54
 443 01a3 FF       		.byte	-1
 444 01a4 CB       		.byte	-53
 445 01a5 FF       		.byte	-1
 446 01a6 CD       		.byte	-51
 447 01a7 AF       		.byte	-81
 448 01a8 CE       		.byte	-50
 449 01a9 0F       		.byte	15
 450 01aa CF       		.byte	-49
 451 01ab 04       		.byte	4
 452 01ac D0       		.byte	-48
 453 01ad 18       		.byte	24
 454 01ae D2       		.byte	-46
 455 01af 80       		.byte	-128
 456 01b0 D4       		.byte	-44
ARM GAS  C:\Users\Kenichi\AppData\Local\Temp\cc2LCSOf.s 			page 9


 457 01b1 25       		.byte	37
 458 01b2 D8       		.byte	-40
 459 01b3 04       		.byte	4
 460 01b4 D9       		.byte	-39
 461 01b5 04       		.byte	4
 462 01b6 DA       		.byte	-38
 463 01b7 04       		.byte	4
 464 01b8 DB       		.byte	-37
 465 01b9 04       		.byte	4
 466 01ba DF       		.byte	-33
 467 01bb 01       		.byte	1
 468 01bc E0       		.byte	-32
 469 01bd 40       		.byte	64
 470 01be E2       		.byte	-30
 471 01bf C0       		.byte	-64
 472 01c0 E4       		.byte	-28
 473 01c1 40       		.byte	64
 474 01c2 E5       		.byte	-27
 475 01c3 40       		.byte	64
 476 01c4 E6       		.byte	-26
 477 01c5 C0       		.byte	-64
 478 01c6 E8       		.byte	-24
 479 01c7 C0       		.byte	-64
 480 01c8 EA       		.byte	-22
 481 01c9 C0       		.byte	-64
 482 01ca EC       		.byte	-20
 483 01cb C0       		.byte	-64
 484 01cc EE       		.byte	-18
 485 01cd C0       		.byte	-64
 486 01ce 0F       		.byte	15
 487 01cf 02       		.byte	2
 488 01d0 17       		.byte	23
 489 01d1 40       		.byte	64
 490 01d2 1C       		.byte	28
 491 01d3 10       		.byte	16
 492 01d4 1D       		.byte	29
 493 01d5 08       		.byte	8
 494 01d6 1F       		.byte	31
 495 01d7 22       		.byte	34
 496 01d8 26       		.byte	38
 497 01d9 40       		.byte	64
 498 01da 2F       		.byte	47
 499 01db 02       		.byte	2
 500 01dc 3F       		.byte	63
 501 01dd 02       		.byte	2
 502 01de 40       		.byte	64
 503 01df 10       		.byte	16
 504 01e0 42       		.byte	66
 505 01e1 80       		.byte	-128
 506 01e2 45       		.byte	69
 507 01e3 08       		.byte	8
 508 01e4 46       		.byte	70
 509 01e5 80       		.byte	-128
 510 01e6 4F       		.byte	79
 511 01e7 01       		.byte	1
 512 01e8 56       		.byte	86
 513 01e9 80       		.byte	-128
ARM GAS  C:\Users\Kenichi\AppData\Local\Temp\cc2LCSOf.s 			page 10


 514 01ea 57       		.byte	87
 515 01eb 01       		.byte	1
 516 01ec 58       		.byte	88
 517 01ed 48       		.byte	72
 518 01ee 5A       		.byte	90
 519 01ef 20       		.byte	32
 520 01f0 5B       		.byte	91
 521 01f1 02       		.byte	2
 522 01f2 5E       		.byte	94
 523 01f3 84       		.byte	-124
 524 01f4 5F       		.byte	95
 525 01f5 01       		.byte	1
 526 01f6 65       		.byte	101
 527 01f7 10       		.byte	16
 528 01f8 77       		.byte	119
 529 01f9 40       		.byte	64
 530 01fa 87       		.byte	-121
 531 01fb 02       		.byte	2
 532 01fc 92       		.byte	-110
 533 01fd 20       		.byte	32
 534 01fe 98       		.byte	-104
 535 01ff 48       		.byte	72
 536 0200 AA       		.byte	-86
 537 0201 10       		.byte	16
 538 0202 B0       		.byte	-80
 539 0203 40       		.byte	64
 540 0204 B4       		.byte	-76
 541 0205 08       		.byte	8
 542 0206 C2       		.byte	-62
 543 0207 80       		.byte	-128
 544 0208 C4       		.byte	-60
 545 0209 80       		.byte	-128
 546 020a CA       		.byte	-54
 547 020b 10       		.byte	16
 548 020c CE       		.byte	-50
 549 020d 80       		.byte	-128
 550 020e D0       		.byte	-48
 551 020f C3       		.byte	-61
 552 0210 D6       		.byte	-42
 553 0211 DF       		.byte	-33
 554 0212 D8       		.byte	-40
 555 0213 20       		.byte	32
 556 0214 E6       		.byte	-26
 557 0215 02       		.byte	2
 558 0216 EE       		.byte	-18
 559 0217 04       		.byte	4
 560 0218 A8       		.byte	-88
 561 0219 40       		.byte	64
 562 021a B3       		.byte	-77
 563 021b 04       		.byte	4
 564 021c B4       		.byte	-76
 565 021d 01       		.byte	1
 566 021e EA       		.byte	-22
 567 021f 80       		.byte	-128
 568 0220 B3       		.byte	-77
 569 0221 20       		.byte	32
 570 0222 B5       		.byte	-75
ARM GAS  C:\Users\Kenichi\AppData\Local\Temp\cc2LCSOf.s 			page 11


 571 0223 10       		.byte	16
 572 0224 E8       		.byte	-24
 573 0225 40       		.byte	64
 574 0226 EA       		.byte	-22
 575 0227 80       		.byte	-128
 576 0228 09       		.byte	9
 577 0229 02       		.byte	2
 578 022a 0A       		.byte	10
 579 022b 01       		.byte	1
 580 022c 0D       		.byte	13
 581 022d 40       		.byte	64
 582 022e 0E       		.byte	14
 583 022f 80       		.byte	-128
 584 0230 81       		.byte	-127
 585 0231 40       		.byte	64
 586 0232 C2       		.byte	-62
 587 0233 F0       		.byte	-16
 588 0234 E0       		.byte	-32
 589 0235 80       		.byte	-128
 590 0236 57       		.byte	87
 591 0237 04       		.byte	4
 592 0238 AD       		.byte	-83
 593 0239 02       		.byte	2
 594 023a AE       		.byte	-82
 595 023b 41       		.byte	65
 596 023c D4       		.byte	-44
 597 023d 40       		.byte	64
 598 023e E8       		.byte	-24
 599 023f 50       		.byte	80
 600 0240 EC       		.byte	-20
 601 0241 40       		.byte	64
 602 0242 8E       		.byte	-114
 603 0243 10       		.byte	16
 604 0244 B7       		.byte	-73
 605 0245 04       		.byte	4
 606 0246 00       		.byte	0
 607 0247 40       		.byte	64
 608 0248 01       		.byte	1
 609 0249 04       		.byte	4
 610 024a 04       		.byte	4
 611 024b 02       		.byte	2
 612 024c 05       		.byte	5
 613 024d 40       		.byte	64
 614 024e C0       		.byte	-64
 615 024f 0F       		.byte	15
 616 0250 85       		.byte	-123
 617 0251 04       		.byte	4
 618 0252 91       		.byte	-111
 619 0253 04       		.byte	4
 620 0254 A8       		.byte	-88
 621 0255 40       		.byte	64
 622 0256 B1       		.byte	-79
 623 0257 40       		.byte	64
 624 0258 B4       		.byte	-76
 625 0259 01       		.byte	1
 626 025a EA       		.byte	-22
 627 025b 03       		.byte	3
ARM GAS  C:\Users\Kenichi\AppData\Local\Temp\cc2LCSOf.s 			page 12


 628 025c 5A       		.byte	90
 629 025d 20       		.byte	32
 630 025e 92       		.byte	-110
 631 025f 20       		.byte	32
 632 0260 98       		.byte	-104
 633 0261 20       		.byte	32
 634 0262 A2       		.byte	-94
 635 0263 80       		.byte	-128
 636 0264 A8       		.byte	-88
 637 0265 20       		.byte	32
 638 0266 B2       		.byte	-78
 639 0267 80       		.byte	-128
 640 0268 D4       		.byte	-44
 641 0269 80       		.byte	-128
 642 026a EE       		.byte	-18
 643 026b 20       		.byte	32
 644 026c 52       		.byte	82
 645 026d 80       		.byte	-128
 646 026e 58       		.byte	88
 647 026f 20       		.byte	32
 648 0270 98       		.byte	-104
 649 0271 20       		.byte	32
 650 0272 A2       		.byte	-94
 651 0273 80       		.byte	-128
 652 0274 D4       		.byte	-44
 653 0275 A0       		.byte	-96
 654 0276 00       		.byte	0
 655 0277 05       		.byte	5
 656 0278 0A       		.byte	10
 657 0279 05       		.byte	5
 658 027a 0C       		.byte	12
 659 027b 01       		.byte	1
 660 027c F0       		.byte	-16
 661 027d 00       		.byte	0
 662 027e 00       		.byte	0
 663 027f F0       		.byte	-16
 664 0280 00       		.byte	0
 665 0281 00       		.byte	0
 666 0282 00       		.byte	0
 667 0283 00       		.byte	0
 668 0284 00       		.byte	0
 669 0285 00       		.byte	0
 670 0286 00       		.byte	0
 671 0287 00       		.byte	0
 672 0288 00       		.byte	0
 673 0289 04       		.byte	4
 674 028a 04       		.byte	4
 675 028b 00       		.byte	0
 676 028c 04       		.byte	4
 677 028d 00       		.byte	0
 678 028e 00       		.byte	0
 679 028f 00       		.byte	0
 680 0290 00       		.byte	0
 681 0291 0C       		.byte	12
 682 0292 0C       		.byte	12
 683 0293 00       		.byte	0
 684 0294 0C       		.byte	12
ARM GAS  C:\Users\Kenichi\AppData\Local\Temp\cc2LCSOf.s 			page 13


 685 0295 00       		.byte	0
 686 0296 00       		.byte	0
 687 0297 00       		.byte	0
 688 0298 0F       		.byte	15
 689 0299 00       		.byte	0
 690 029a 00       		.byte	0
 691 029b 0F       		.byte	15
 692 029c 00       		.byte	0
 693 029d 00       		.byte	0
 694 029e 00       		.byte	0
 695 029f 00       		.byte	0
 696 02a0 00       		.byte	0
 697 02a1 00       		.byte	0
 698 02a2 00       		.byte	0
 699 02a3 00       		.byte	0
 700 02a4 00       		.byte	0
 701 02a5 0C       		.byte	12
 702 02a6 0C       		.byte	12
 703 02a7 00       		.byte	0
 704 02a8 0C       		.byte	12
 705 02a9 00       		.byte	0
 706 02aa 00       		.byte	0
 707 02ab 00       		.byte	0
 708              		.global	cy_meta_custnvl
 709              		.section	.cycustnvl,"a",%progbits
 710              		.align	2
 711              		.type	cy_meta_custnvl, %object
 712              		.size	cy_meta_custnvl, 4
 713              	cy_meta_custnvl:
 714 0000 00       		.byte	0
 715 0001 00       		.byte	0
 716 0002 40       		.byte	64
 717 0003 07       		.byte	7
 718              		.global	cy_meta_wonvl
 719              		.section	.cywolatch,"a",%progbits
 720              		.align	2
 721              		.type	cy_meta_wonvl, %object
 722              		.size	cy_meta_wonvl, 4
 723              	cy_meta_wonvl:
 724 0000 BC       		.byte	-68
 725 0001 90       		.byte	-112
 726 0002 AC       		.byte	-84
 727 0003 AF       		.byte	-81
 728              		.global	cy_meta_flashprotect
 729              		.section	.cyflashprotect,"a",%progbits
 730              		.align	2
 731              		.type	cy_meta_flashprotect, %object
 732              		.size	cy_meta_flashprotect, 256
 733              	cy_meta_flashprotect:
 734 0000 00000000 		.space	256
 734      00000000 
 734      00000000 
 734      00000000 
 734      00000000 
 735              		.global	cy_metadata
 736              		.section	.cymeta,"a",%progbits
 737              		.align	2
ARM GAS  C:\Users\Kenichi\AppData\Local\Temp\cc2LCSOf.s 			page 14


 738              		.type	cy_metadata, %object
 739              		.size	cy_metadata, 12
 740              	cy_metadata:
 741 0000 00       		.byte	0
 742 0001 01       		.byte	1
 743 0002 2E       		.byte	46
 744 0003 11       		.byte	17
 745 0004 E0       		.byte	-32
 746 0005 69       		.byte	105
 747 0006 00       		.byte	0
 748 0007 01       		.byte	1
 749 0008 00       		.byte	0
 750 0009 00       		.byte	0
 751 000a 00       		.byte	0
 752 000b 00       		.byte	0
 753              		.text
 754              	.Letext0:
 755              		.file 1 ".\\Generated_Source\\PSoC5\\cymetadata.c"
 756              		.file 2 ".\\Generated_Source\\PSoC5\\cytypes.h"
