ARM GAS  C:\Users\Kenichi\AppData\Local\Temp\cc1rfsBF.s 			page 1


   1              		.syntax unified
   2              		.cpu cortex-m3
   3              		.fpu softvfp
   4              		.eabi_attribute 20, 1
   5              		.eabi_attribute 21, 1
   6              		.eabi_attribute 23, 3
   7              		.eabi_attribute 24, 1
   8              		.eabi_attribute 25, 1
   9              		.eabi_attribute 26, 1
  10              		.eabi_attribute 30, 6
  11              		.eabi_attribute 34, 1
  12              		.eabi_attribute 18, 4
  13              		.thumb
  14              		.file	"main.c"
  15              		.text
  16              	.Ltext0:
  17              		.cfi_sections	.debug_frame
  18              		.comm	returnval1,1,1
  19              		.comm	returnval2,1,1
  20              		.global	NEUTRAL_ELE
  21              		.data
  22              		.align	2
  23              		.type	NEUTRAL_ELE, %object
  24              		.size	NEUTRAL_ELE, 4
  25              	NEUTRAL_ELE:
  26 0000 DC050000 		.word	1500
  27              		.global	NEUTRAL_LAD
  28              		.align	2
  29              		.type	NEUTRAL_LAD, %object
  30              		.size	NEUTRAL_LAD, 4
  31              	NEUTRAL_LAD:
  32 0004 DC050000 		.word	1500
  33              		.global	DIAL
  34              		.align	2
  35              		.type	DIAL, %object
  36              		.size	DIAL, 4
  37              	DIAL:
  38 0008 64000000 		.word	100
  39              		.section	.text.main,"ax",%progbits
  40              		.align	2
  41              		.global	main
  42              		.thumb
  43              		.thumb_func
  44              		.type	main, %function
  45              	main:
  46              	.LFB56:
  47              		.file 1 ".\\main.c"
   1:.\main.c      **** /* ========================================
   2:.\main.c      ****  * servo check for tail
   3:.\main.c      ****  *
   4:.\main.c      ****  * R.Hirota 2014/4/18
   5:.\main.c      ****  *　
   6:.\main.c      ****  * ========================================
   7:.\main.c      **** */
   8:.\main.c      **** 
   9:.\main.c      **** #include <project.h>
  10:.\main.c      **** 
ARM GAS  C:\Users\Kenichi\AppData\Local\Temp\cc1rfsBF.s 			page 2


  11:.\main.c      **** uint8 returnval1,returnval2;
  12:.\main.c      **** int NEUTRAL_ELE = 1500,
  13:.\main.c      ****     NEUTRAL_LAD = 1500,
  14:.\main.c      ****     DIAL = 100;
  15:.\main.c      **** 
  16:.\main.c      **** int main()
  17:.\main.c      **** {
  48              		.loc 1 17 0
  49              		.cfi_startproc
  50              		@ args = 0, pretend = 0, frame = 0
  51              		@ frame_needed = 1, uses_anonymous_args = 0
  52 0000 80B5     		push	{r7, lr}
  53              	.LCFI0:
  54              		.cfi_def_cfa_offset 8
  55              		.cfi_offset 7, -8
  56              		.cfi_offset 14, -4
  57 0002 00AF     		add	r7, sp, #0
  58              	.LCFI1:
  59              		.cfi_def_cfa_register 7
  18:.\main.c      ****     PWM_1_Start();
  60              		.loc 1 18 0
  61 0004 FFF7FEFF 		bl	PWM_1_Start
  19:.\main.c      ****     PWM_2_Start();
  62              		.loc 1 19 0
  63 0008 FFF7FEFF 		bl	PWM_2_Start
  20:.\main.c      ****     LED_1_Write(0);
  64              		.loc 1 20 0
  65 000c 4FF00000 		mov	r0, #0
  66 0010 FFF7FEFF 		bl	LED_1_Write
  67 0014 00E0     		b	.L38
  68              	.L39:
  21:.\main.c      ****     
  22:.\main.c      ****     for(;;){
  23:.\main.c      **** 
  24:.\main.c      ****         returnval1 = Status_Reg_1_Read();
  25:.\main.c      ****         returnval1 = ~returnval1 & 0x0f;
  26:.\main.c      **** 
  27:.\main.c      ****         switch(returnval1){ //elevator
  28:.\main.c      ****          case 0x00:
  29:.\main.c      ****             PWM_1_WriteCompare(NEUTRAL_ELE - DIAL*8);
  30:.\main.c      ****             break;
  31:.\main.c      ****          case 0x01:
  32:.\main.c      ****             PWM_1_WriteCompare(NEUTRAL_ELE - DIAL*7);
  33:.\main.c      ****             break;
  34:.\main.c      ****          case 0x02:
  35:.\main.c      ****             PWM_1_WriteCompare(NEUTRAL_ELE - DIAL*6);
  36:.\main.c      ****             break;
  37:.\main.c      ****          case 0x03:
  38:.\main.c      ****             PWM_1_WriteCompare(NEUTRAL_ELE - DIAL*5);
  39:.\main.c      ****             break;
  40:.\main.c      ****          case 0x04:
  41:.\main.c      ****             PWM_1_WriteCompare(NEUTRAL_ELE - DIAL*4);
  42:.\main.c      ****             break;
  43:.\main.c      ****          case 0x05:
  44:.\main.c      ****             PWM_1_WriteCompare(NEUTRAL_ELE - DIAL*3);
  45:.\main.c      ****             break;
  46:.\main.c      ****          case 0x06:
ARM GAS  C:\Users\Kenichi\AppData\Local\Temp\cc1rfsBF.s 			page 3


  47:.\main.c      ****             PWM_1_WriteCompare(NEUTRAL_ELE - DIAL*2);
  48:.\main.c      ****             break;
  49:.\main.c      ****          case 0x07:
  50:.\main.c      ****             PWM_1_WriteCompare(NEUTRAL_ELE - DIAL);
  51:.\main.c      ****             break;
  52:.\main.c      ****          case 0x08:
  53:.\main.c      ****             PWM_1_WriteCompare(NEUTRAL_ELE);
  54:.\main.c      ****             break;
  55:.\main.c      ****          case 0x09:
  56:.\main.c      ****             PWM_1_WriteCompare(NEUTRAL_ELE + DIAL);
  57:.\main.c      ****             break;
  58:.\main.c      ****          case 0x0a:
  59:.\main.c      ****             PWM_1_WriteCompare(NEUTRAL_ELE + DIAL*2);
  60:.\main.c      ****             break;
  61:.\main.c      ****          case 0x0b:
  62:.\main.c      ****             PWM_1_WriteCompare(NEUTRAL_ELE + DIAL*3);
  63:.\main.c      ****             break;
  64:.\main.c      ****          case 0x0c:
  65:.\main.c      ****             PWM_1_WriteCompare(NEUTRAL_ELE + DIAL*4);
  66:.\main.c      ****             break;
  67:.\main.c      ****          case 0x0d:
  68:.\main.c      ****             PWM_1_WriteCompare(NEUTRAL_ELE + DIAL*5);
  69:.\main.c      ****             break;
  70:.\main.c      ****          case 0x0e:
  71:.\main.c      ****             PWM_1_WriteCompare(NEUTRAL_ELE + DIAL*6);
  72:.\main.c      ****             break;
  73:.\main.c      ****          case 0x0f:
  74:.\main.c      ****             PWM_1_WriteCompare(NEUTRAL_ELE + DIAL*7);
  75:.\main.c      ****             break;
  76:.\main.c      ****         }
  77:.\main.c      ****         
  78:.\main.c      ****         returnval2 = Status_Reg_2_Read();
  79:.\main.c      ****         returnval2 = ~returnval2&0x0f;
  80:.\main.c      **** 
  81:.\main.c      ****         switch(returnval2){ //ladder
  82:.\main.c      ****          case 0x00:
  83:.\main.c      ****             PWM_2_WriteCompare(NEUTRAL_LAD - DIAL*8);
  84:.\main.c      ****             break;
  85:.\main.c      ****          case 0x01:
  86:.\main.c      ****             PWM_2_WriteCompare(NEUTRAL_LAD - DIAL*7);
  87:.\main.c      ****             break;
  88:.\main.c      ****          case 0x02:
  89:.\main.c      ****             PWM_2_WriteCompare(NEUTRAL_LAD - DIAL*6);
  90:.\main.c      ****             break;
  91:.\main.c      ****          case 0x03:
  92:.\main.c      ****             PWM_2_WriteCompare(NEUTRAL_LAD - DIAL*5);
  93:.\main.c      ****             break;
  94:.\main.c      ****          case 0x04:
  95:.\main.c      ****             PWM_2_WriteCompare(NEUTRAL_LAD - DIAL*4);
  96:.\main.c      ****             break;
  97:.\main.c      ****          case 0x05:
  98:.\main.c      ****             PWM_2_WriteCompare(NEUTRAL_LAD - DIAL*3);
  99:.\main.c      ****             break;
 100:.\main.c      ****          case 0x06:
 101:.\main.c      ****             PWM_2_WriteCompare(NEUTRAL_LAD - DIAL*2);
 102:.\main.c      ****             break;
 103:.\main.c      ****          case 0x07:
ARM GAS  C:\Users\Kenichi\AppData\Local\Temp\cc1rfsBF.s 			page 4


 104:.\main.c      ****             PWM_2_WriteCompare(NEUTRAL_LAD - DIAL);
 105:.\main.c      ****             break;
 106:.\main.c      ****          case 0x08:
 107:.\main.c      ****             PWM_2_WriteCompare(NEUTRAL_LAD);
 108:.\main.c      ****             break;
 109:.\main.c      ****          case 0x09:
 110:.\main.c      ****             PWM_2_WriteCompare(NEUTRAL_LAD + DIAL);
 111:.\main.c      ****             break;
 112:.\main.c      ****          case 0x0a:
 113:.\main.c      ****             PWM_2_WriteCompare(NEUTRAL_LAD + DIAL*2);
 114:.\main.c      ****             break;
 115:.\main.c      ****          case 0x0b:
 116:.\main.c      ****             PWM_2_WriteCompare(NEUTRAL_LAD + DIAL*3);
 117:.\main.c      ****             break;
 118:.\main.c      ****          case 0x0c:
 119:.\main.c      ****             PWM_2_WriteCompare(NEUTRAL_LAD + DIAL*4);
 120:.\main.c      ****             break;
 121:.\main.c      ****          case 0x0d:
 122:.\main.c      ****             PWM_2_WriteCompare(NEUTRAL_LAD + DIAL*5);
 123:.\main.c      ****             break;
 124:.\main.c      ****          case 0x0e:
 125:.\main.c      ****             PWM_2_WriteCompare(NEUTRAL_LAD + DIAL*6);
 126:.\main.c      ****             break;
 127:.\main.c      ****          case 0x0f:
 128:.\main.c      ****             PWM_2_WriteCompare(NEUTRAL_LAD + DIAL*7);
 129:.\main.c      ****             break;
 130:.\main.c      ****         }
 131:.\main.c      ****     }
  69              		.loc 1 131 0
  70 0016 00BF     		nop
  71              	.L38:
  24:.\main.c      ****         returnval1 = Status_Reg_1_Read();
  72              		.loc 1 24 0
  73 0018 FFF7FEFF 		bl	Status_Reg_1_Read
  74 001c 0346     		mov	r3, r0
  75 001e 1A46     		mov	r2, r3
  76 0020 40F20003 		movw	r3, #:lower16:returnval1
  77 0024 C0F20003 		movt	r3, #:upper16:returnval1
  78 0028 1A70     		strb	r2, [r3, #0]
  25:.\main.c      ****         returnval1 = ~returnval1 & 0x0f;
  79              		.loc 1 25 0
  80 002a 40F20003 		movw	r3, #:lower16:returnval1
  81 002e C0F20003 		movt	r3, #:upper16:returnval1
  82 0032 1B78     		ldrb	r3, [r3, #0]	@ zero_extendqisi2
  83 0034 6FEA0303 		mvn	r3, r3
  84 0038 DBB2     		uxtb	r3, r3
  85 003a 03F00F03 		and	r3, r3, #15
  86 003e DAB2     		uxtb	r2, r3
  87 0040 40F20003 		movw	r3, #:lower16:returnval1
  88 0044 C0F20003 		movt	r3, #:upper16:returnval1
  89 0048 1A70     		strb	r2, [r3, #0]
  27:.\main.c      ****         switch(returnval1){ //elevator
  90              		.loc 1 27 0
  91 004a 40F20003 		movw	r3, #:lower16:returnval1
  92 004e C0F20003 		movt	r3, #:upper16:returnval1
  93 0052 1B78     		ldrb	r3, [r3, #0]	@ zero_extendqisi2
  94 0054 0F2B     		cmp	r3, #15
ARM GAS  C:\Users\Kenichi\AppData\Local\Temp\cc1rfsBF.s 			page 5


  95 0056 00F28581 		bhi	.L2
  96 005a 01A2     		adr	r2, .L19
  97 005c 52F823F0 		ldr	pc, [r2, r3, lsl #2]
  98              		.align	2
  99              	.L19:
 100 0060 A1000000 		.word	.L3+1
 101 0064 D3000000 		.word	.L4+1
 102 0068 01010000 		.word	.L5+1
 103 006c 33010000 		.word	.L6+1
 104 0070 67010000 		.word	.L7+1
 105 0074 99010000 		.word	.L8+1
 106 0078 C7010000 		.word	.L9+1
 107 007c F9010000 		.word	.L10+1
 108 0080 1D020000 		.word	.L11+1
 109 0084 31020000 		.word	.L12+1
 110 0088 55020000 		.word	.L13+1
 111 008c 7F020000 		.word	.L14+1
 112 0090 AD020000 		.word	.L15+1
 113 0094 D7020000 		.word	.L16+1
 114 0098 05030000 		.word	.L17+1
 115 009c 37030000 		.word	.L18+1
 116              	.L3:
  29:.\main.c      ****             PWM_1_WriteCompare(NEUTRAL_ELE - DIAL*8);
 117              		.loc 1 29 0
 118 00a0 40F20003 		movw	r3, #:lower16:DIAL
 119 00a4 C0F20003 		movt	r3, #:upper16:DIAL
 120 00a8 1B68     		ldr	r3, [r3, #0]
 121 00aa 9BB2     		uxth	r3, r3
 122 00ac 1A46     		mov	r2, r3	@ movhi
 123 00ae 4FEA4232 		lsl	r2, r2, #13
 124 00b2 D31A     		subs	r3, r2, r3
 125 00b4 4FEAC303 		lsl	r3, r3, #3
 126 00b8 9AB2     		uxth	r2, r3
 127 00ba 40F20003 		movw	r3, #:lower16:NEUTRAL_ELE
 128 00be C0F20003 		movt	r3, #:upper16:NEUTRAL_ELE
 129 00c2 1B68     		ldr	r3, [r3, #0]
 130 00c4 9BB2     		uxth	r3, r3
 131 00c6 D318     		adds	r3, r2, r3
 132 00c8 9BB2     		uxth	r3, r3
 133 00ca 1846     		mov	r0, r3
 134 00cc FFF7FEFF 		bl	PWM_1_WriteCompare
  30:.\main.c      ****             break;
 135              		.loc 1 30 0
 136 00d0 48E1     		b	.L2
 137              	.L4:
  32:.\main.c      ****             PWM_1_WriteCompare(NEUTRAL_ELE - DIAL*7);
 138              		.loc 1 32 0
 139 00d2 40F20003 		movw	r3, #:lower16:DIAL
 140 00d6 C0F20003 		movt	r3, #:upper16:DIAL
 141 00da 1B68     		ldr	r3, [r3, #0]
 142 00dc 9BB2     		uxth	r3, r3
 143 00de 1A46     		mov	r2, r3	@ movhi
 144 00e0 4FEAC303 		lsl	r3, r3, #3
 145 00e4 D31A     		subs	r3, r2, r3
 146 00e6 9AB2     		uxth	r2, r3
 147 00e8 40F20003 		movw	r3, #:lower16:NEUTRAL_ELE
 148 00ec C0F20003 		movt	r3, #:upper16:NEUTRAL_ELE
ARM GAS  C:\Users\Kenichi\AppData\Local\Temp\cc1rfsBF.s 			page 6


 149 00f0 1B68     		ldr	r3, [r3, #0]
 150 00f2 9BB2     		uxth	r3, r3
 151 00f4 D318     		adds	r3, r2, r3
 152 00f6 9BB2     		uxth	r3, r3
 153 00f8 1846     		mov	r0, r3
 154 00fa FFF7FEFF 		bl	PWM_1_WriteCompare
  33:.\main.c      ****             break;
 155              		.loc 1 33 0
 156 00fe 31E1     		b	.L2
 157              	.L5:
  35:.\main.c      ****             PWM_1_WriteCompare(NEUTRAL_ELE - DIAL*6);
 158              		.loc 1 35 0
 159 0100 40F20003 		movw	r3, #:lower16:DIAL
 160 0104 C0F20003 		movt	r3, #:upper16:DIAL
 161 0108 1B68     		ldr	r3, [r3, #0]
 162 010a 9BB2     		uxth	r3, r3
 163 010c 1A46     		mov	r2, r3	@ movhi
 164 010e 4FEA8303 		lsl	r3, r3, #2
 165 0112 D31A     		subs	r3, r2, r3
 166 0114 4FEA4303 		lsl	r3, r3, #1
 167 0118 9AB2     		uxth	r2, r3
 168 011a 40F20003 		movw	r3, #:lower16:NEUTRAL_ELE
 169 011e C0F20003 		movt	r3, #:upper16:NEUTRAL_ELE
 170 0122 1B68     		ldr	r3, [r3, #0]
 171 0124 9BB2     		uxth	r3, r3
 172 0126 D318     		adds	r3, r2, r3
 173 0128 9BB2     		uxth	r3, r3
 174 012a 1846     		mov	r0, r3
 175 012c FFF7FEFF 		bl	PWM_1_WriteCompare
  36:.\main.c      ****             break;
 176              		.loc 1 36 0
 177 0130 18E1     		b	.L2
 178              	.L6:
  38:.\main.c      ****             PWM_1_WriteCompare(NEUTRAL_ELE - DIAL*5);
 179              		.loc 1 38 0
 180 0132 40F20003 		movw	r3, #:lower16:DIAL
 181 0136 C0F20003 		movt	r3, #:upper16:DIAL
 182 013a 1B68     		ldr	r3, [r3, #0]
 183 013c 9BB2     		uxth	r3, r3
 184 013e 1A46     		mov	r2, r3	@ movhi
 185 0140 4FEA8232 		lsl	r2, r2, #14
 186 0144 D21A     		subs	r2, r2, r3
 187 0146 4FEA8202 		lsl	r2, r2, #2
 188 014a D31A     		subs	r3, r2, r3
 189 014c 9AB2     		uxth	r2, r3
 190 014e 40F20003 		movw	r3, #:lower16:NEUTRAL_ELE
 191 0152 C0F20003 		movt	r3, #:upper16:NEUTRAL_ELE
 192 0156 1B68     		ldr	r3, [r3, #0]
 193 0158 9BB2     		uxth	r3, r3
 194 015a D318     		adds	r3, r2, r3
 195 015c 9BB2     		uxth	r3, r3
 196 015e 1846     		mov	r0, r3
 197 0160 FFF7FEFF 		bl	PWM_1_WriteCompare
  39:.\main.c      ****             break;
 198              		.loc 1 39 0
 199 0164 FEE0     		b	.L2
 200              	.L7:
ARM GAS  C:\Users\Kenichi\AppData\Local\Temp\cc1rfsBF.s 			page 7


  41:.\main.c      ****             PWM_1_WriteCompare(NEUTRAL_ELE - DIAL*4);
 201              		.loc 1 41 0
 202 0166 40F20003 		movw	r3, #:lower16:DIAL
 203 016a C0F20003 		movt	r3, #:upper16:DIAL
 204 016e 1B68     		ldr	r3, [r3, #0]
 205 0170 9BB2     		uxth	r3, r3
 206 0172 1A46     		mov	r2, r3	@ movhi
 207 0174 4FEA8232 		lsl	r2, r2, #14
 208 0178 D31A     		subs	r3, r2, r3
 209 017a 4FEA8303 		lsl	r3, r3, #2
 210 017e 9AB2     		uxth	r2, r3
 211 0180 40F20003 		movw	r3, #:lower16:NEUTRAL_ELE
 212 0184 C0F20003 		movt	r3, #:upper16:NEUTRAL_ELE
 213 0188 1B68     		ldr	r3, [r3, #0]
 214 018a 9BB2     		uxth	r3, r3
 215 018c D318     		adds	r3, r2, r3
 216 018e 9BB2     		uxth	r3, r3
 217 0190 1846     		mov	r0, r3
 218 0192 FFF7FEFF 		bl	PWM_1_WriteCompare
  42:.\main.c      ****             break;
 219              		.loc 1 42 0
 220 0196 E5E0     		b	.L2
 221              	.L8:
  44:.\main.c      ****             PWM_1_WriteCompare(NEUTRAL_ELE - DIAL*3);
 222              		.loc 1 44 0
 223 0198 40F20003 		movw	r3, #:lower16:DIAL
 224 019c C0F20003 		movt	r3, #:upper16:DIAL
 225 01a0 1B68     		ldr	r3, [r3, #0]
 226 01a2 9BB2     		uxth	r3, r3
 227 01a4 1A46     		mov	r2, r3	@ movhi
 228 01a6 4FEA8303 		lsl	r3, r3, #2
 229 01aa D31A     		subs	r3, r2, r3
 230 01ac 9AB2     		uxth	r2, r3
 231 01ae 40F20003 		movw	r3, #:lower16:NEUTRAL_ELE
 232 01b2 C0F20003 		movt	r3, #:upper16:NEUTRAL_ELE
 233 01b6 1B68     		ldr	r3, [r3, #0]
 234 01b8 9BB2     		uxth	r3, r3
 235 01ba D318     		adds	r3, r2, r3
 236 01bc 9BB2     		uxth	r3, r3
 237 01be 1846     		mov	r0, r3
 238 01c0 FFF7FEFF 		bl	PWM_1_WriteCompare
  45:.\main.c      ****             break;
 239              		.loc 1 45 0
 240 01c4 CEE0     		b	.L2
 241              	.L9:
  47:.\main.c      ****             PWM_1_WriteCompare(NEUTRAL_ELE - DIAL*2);
 242              		.loc 1 47 0
 243 01c6 40F20003 		movw	r3, #:lower16:DIAL
 244 01ca C0F20003 		movt	r3, #:upper16:DIAL
 245 01ce 1B68     		ldr	r3, [r3, #0]
 246 01d0 9BB2     		uxth	r3, r3
 247 01d2 1A46     		mov	r2, r3	@ movhi
 248 01d4 4FEAC232 		lsl	r2, r2, #15
 249 01d8 D31A     		subs	r3, r2, r3
 250 01da 4FEA4303 		lsl	r3, r3, #1
 251 01de 9AB2     		uxth	r2, r3
 252 01e0 40F20003 		movw	r3, #:lower16:NEUTRAL_ELE
ARM GAS  C:\Users\Kenichi\AppData\Local\Temp\cc1rfsBF.s 			page 8


 253 01e4 C0F20003 		movt	r3, #:upper16:NEUTRAL_ELE
 254 01e8 1B68     		ldr	r3, [r3, #0]
 255 01ea 9BB2     		uxth	r3, r3
 256 01ec D318     		adds	r3, r2, r3
 257 01ee 9BB2     		uxth	r3, r3
 258 01f0 1846     		mov	r0, r3
 259 01f2 FFF7FEFF 		bl	PWM_1_WriteCompare
  48:.\main.c      ****             break;
 260              		.loc 1 48 0
 261 01f6 B5E0     		b	.L2
 262              	.L10:
  50:.\main.c      ****             PWM_1_WriteCompare(NEUTRAL_ELE - DIAL);
 263              		.loc 1 50 0
 264 01f8 40F20003 		movw	r3, #:lower16:NEUTRAL_ELE
 265 01fc C0F20003 		movt	r3, #:upper16:NEUTRAL_ELE
 266 0200 1B68     		ldr	r3, [r3, #0]
 267 0202 9AB2     		uxth	r2, r3
 268 0204 40F20003 		movw	r3, #:lower16:DIAL
 269 0208 C0F20003 		movt	r3, #:upper16:DIAL
 270 020c 1B68     		ldr	r3, [r3, #0]
 271 020e 9BB2     		uxth	r3, r3
 272 0210 D31A     		subs	r3, r2, r3
 273 0212 9BB2     		uxth	r3, r3
 274 0214 1846     		mov	r0, r3
 275 0216 FFF7FEFF 		bl	PWM_1_WriteCompare
  51:.\main.c      ****             break;
 276              		.loc 1 51 0
 277 021a A3E0     		b	.L2
 278              	.L11:
  53:.\main.c      ****             PWM_1_WriteCompare(NEUTRAL_ELE);
 279              		.loc 1 53 0
 280 021c 40F20003 		movw	r3, #:lower16:NEUTRAL_ELE
 281 0220 C0F20003 		movt	r3, #:upper16:NEUTRAL_ELE
 282 0224 1B68     		ldr	r3, [r3, #0]
 283 0226 9BB2     		uxth	r3, r3
 284 0228 1846     		mov	r0, r3
 285 022a FFF7FEFF 		bl	PWM_1_WriteCompare
  54:.\main.c      ****             break;
 286              		.loc 1 54 0
 287 022e 99E0     		b	.L2
 288              	.L12:
  56:.\main.c      ****             PWM_1_WriteCompare(NEUTRAL_ELE + DIAL);
 289              		.loc 1 56 0
 290 0230 40F20003 		movw	r3, #:lower16:NEUTRAL_ELE
 291 0234 C0F20003 		movt	r3, #:upper16:NEUTRAL_ELE
 292 0238 1B68     		ldr	r3, [r3, #0]
 293 023a 9AB2     		uxth	r2, r3
 294 023c 40F20003 		movw	r3, #:lower16:DIAL
 295 0240 C0F20003 		movt	r3, #:upper16:DIAL
 296 0244 1B68     		ldr	r3, [r3, #0]
 297 0246 9BB2     		uxth	r3, r3
 298 0248 D318     		adds	r3, r2, r3
 299 024a 9BB2     		uxth	r3, r3
 300 024c 1846     		mov	r0, r3
 301 024e FFF7FEFF 		bl	PWM_1_WriteCompare
  57:.\main.c      ****             break;
 302              		.loc 1 57 0
ARM GAS  C:\Users\Kenichi\AppData\Local\Temp\cc1rfsBF.s 			page 9


 303 0252 87E0     		b	.L2
 304              	.L13:
  59:.\main.c      ****             PWM_1_WriteCompare(NEUTRAL_ELE + DIAL*2);
 305              		.loc 1 59 0
 306 0254 40F20003 		movw	r3, #:lower16:DIAL
 307 0258 C0F20003 		movt	r3, #:upper16:DIAL
 308 025c 1B68     		ldr	r3, [r3, #0]
 309 025e 9BB2     		uxth	r3, r3
 310 0260 4FEA4303 		lsl	r3, r3, #1
 311 0264 9AB2     		uxth	r2, r3
 312 0266 40F20003 		movw	r3, #:lower16:NEUTRAL_ELE
 313 026a C0F20003 		movt	r3, #:upper16:NEUTRAL_ELE
 314 026e 1B68     		ldr	r3, [r3, #0]
 315 0270 9BB2     		uxth	r3, r3
 316 0272 D318     		adds	r3, r2, r3
 317 0274 9BB2     		uxth	r3, r3
 318 0276 1846     		mov	r0, r3
 319 0278 FFF7FEFF 		bl	PWM_1_WriteCompare
  60:.\main.c      ****             break;
 320              		.loc 1 60 0
 321 027c 72E0     		b	.L2
 322              	.L14:
  62:.\main.c      ****             PWM_1_WriteCompare(NEUTRAL_ELE + DIAL*3);
 323              		.loc 1 62 0
 324 027e 40F20003 		movw	r3, #:lower16:DIAL
 325 0282 C0F20003 		movt	r3, #:upper16:DIAL
 326 0286 1B68     		ldr	r3, [r3, #0]
 327 0288 9BB2     		uxth	r3, r3
 328 028a 1A46     		mov	r2, r3	@ movhi
 329 028c 4FEA4202 		lsl	r2, r2, #1
 330 0290 D318     		adds	r3, r2, r3
 331 0292 9AB2     		uxth	r2, r3
 332 0294 40F20003 		movw	r3, #:lower16:NEUTRAL_ELE
 333 0298 C0F20003 		movt	r3, #:upper16:NEUTRAL_ELE
 334 029c 1B68     		ldr	r3, [r3, #0]
 335 029e 9BB2     		uxth	r3, r3
 336 02a0 D318     		adds	r3, r2, r3
 337 02a2 9BB2     		uxth	r3, r3
 338 02a4 1846     		mov	r0, r3
 339 02a6 FFF7FEFF 		bl	PWM_1_WriteCompare
  63:.\main.c      ****             break;
 340              		.loc 1 63 0
 341 02aa 5BE0     		b	.L2
 342              	.L15:
  65:.\main.c      ****             PWM_1_WriteCompare(NEUTRAL_ELE + DIAL*4);
 343              		.loc 1 65 0
 344 02ac 40F20003 		movw	r3, #:lower16:DIAL
 345 02b0 C0F20003 		movt	r3, #:upper16:DIAL
 346 02b4 1B68     		ldr	r3, [r3, #0]
 347 02b6 9BB2     		uxth	r3, r3
 348 02b8 4FEA8303 		lsl	r3, r3, #2
 349 02bc 9AB2     		uxth	r2, r3
 350 02be 40F20003 		movw	r3, #:lower16:NEUTRAL_ELE
 351 02c2 C0F20003 		movt	r3, #:upper16:NEUTRAL_ELE
 352 02c6 1B68     		ldr	r3, [r3, #0]
 353 02c8 9BB2     		uxth	r3, r3
 354 02ca D318     		adds	r3, r2, r3
ARM GAS  C:\Users\Kenichi\AppData\Local\Temp\cc1rfsBF.s 			page 10


 355 02cc 9BB2     		uxth	r3, r3
 356 02ce 1846     		mov	r0, r3
 357 02d0 FFF7FEFF 		bl	PWM_1_WriteCompare
  66:.\main.c      ****             break;
 358              		.loc 1 66 0
 359 02d4 46E0     		b	.L2
 360              	.L16:
  68:.\main.c      ****             PWM_1_WriteCompare(NEUTRAL_ELE + DIAL*5);
 361              		.loc 1 68 0
 362 02d6 40F20003 		movw	r3, #:lower16:DIAL
 363 02da C0F20003 		movt	r3, #:upper16:DIAL
 364 02de 1B68     		ldr	r3, [r3, #0]
 365 02e0 9BB2     		uxth	r3, r3
 366 02e2 1A46     		mov	r2, r3	@ movhi
 367 02e4 4FEA8202 		lsl	r2, r2, #2
 368 02e8 D318     		adds	r3, r2, r3
 369 02ea 9AB2     		uxth	r2, r3
 370 02ec 40F20003 		movw	r3, #:lower16:NEUTRAL_ELE
 371 02f0 C0F20003 		movt	r3, #:upper16:NEUTRAL_ELE
 372 02f4 1B68     		ldr	r3, [r3, #0]
 373 02f6 9BB2     		uxth	r3, r3
 374 02f8 D318     		adds	r3, r2, r3
 375 02fa 9BB2     		uxth	r3, r3
 376 02fc 1846     		mov	r0, r3
 377 02fe FFF7FEFF 		bl	PWM_1_WriteCompare
  69:.\main.c      ****             break;
 378              		.loc 1 69 0
 379 0302 2FE0     		b	.L2
 380              	.L17:
  71:.\main.c      ****             PWM_1_WriteCompare(NEUTRAL_ELE + DIAL*6);
 381              		.loc 1 71 0
 382 0304 40F20003 		movw	r3, #:lower16:DIAL
 383 0308 C0F20003 		movt	r3, #:upper16:DIAL
 384 030c 1B68     		ldr	r3, [r3, #0]
 385 030e 9BB2     		uxth	r3, r3
 386 0310 1A46     		mov	r2, r3	@ movhi
 387 0312 4FEA4202 		lsl	r2, r2, #1
 388 0316 D318     		adds	r3, r2, r3
 389 0318 4FEA4303 		lsl	r3, r3, #1
 390 031c 9AB2     		uxth	r2, r3
 391 031e 40F20003 		movw	r3, #:lower16:NEUTRAL_ELE
 392 0322 C0F20003 		movt	r3, #:upper16:NEUTRAL_ELE
 393 0326 1B68     		ldr	r3, [r3, #0]
 394 0328 9BB2     		uxth	r3, r3
 395 032a D318     		adds	r3, r2, r3
 396 032c 9BB2     		uxth	r3, r3
 397 032e 1846     		mov	r0, r3
 398 0330 FFF7FEFF 		bl	PWM_1_WriteCompare
  72:.\main.c      ****             break;
 399              		.loc 1 72 0
 400 0334 16E0     		b	.L2
 401              	.L18:
  74:.\main.c      ****             PWM_1_WriteCompare(NEUTRAL_ELE + DIAL*7);
 402              		.loc 1 74 0
 403 0336 40F20003 		movw	r3, #:lower16:DIAL
 404 033a C0F20003 		movt	r3, #:upper16:DIAL
 405 033e 1B68     		ldr	r3, [r3, #0]
ARM GAS  C:\Users\Kenichi\AppData\Local\Temp\cc1rfsBF.s 			page 11


 406 0340 9BB2     		uxth	r3, r3
 407 0342 1A46     		mov	r2, r3	@ movhi
 408 0344 4FEAC202 		lsl	r2, r2, #3
 409 0348 D31A     		subs	r3, r2, r3
 410 034a 9AB2     		uxth	r2, r3
 411 034c 40F20003 		movw	r3, #:lower16:NEUTRAL_ELE
 412 0350 C0F20003 		movt	r3, #:upper16:NEUTRAL_ELE
 413 0354 1B68     		ldr	r3, [r3, #0]
 414 0356 9BB2     		uxth	r3, r3
 415 0358 D318     		adds	r3, r2, r3
 416 035a 9BB2     		uxth	r3, r3
 417 035c 1846     		mov	r0, r3
 418 035e FFF7FEFF 		bl	PWM_1_WriteCompare
  75:.\main.c      ****             break;
 419              		.loc 1 75 0
 420 0362 00BF     		nop
 421              	.L2:
  78:.\main.c      ****         returnval2 = Status_Reg_2_Read();
 422              		.loc 1 78 0
 423 0364 FFF7FEFF 		bl	Status_Reg_2_Read
 424 0368 0346     		mov	r3, r0
 425 036a 1A46     		mov	r2, r3
 426 036c 40F20003 		movw	r3, #:lower16:returnval2
 427 0370 C0F20003 		movt	r3, #:upper16:returnval2
 428 0374 1A70     		strb	r2, [r3, #0]
  79:.\main.c      ****         returnval2 = ~returnval2&0x0f;
 429              		.loc 1 79 0
 430 0376 40F20003 		movw	r3, #:lower16:returnval2
 431 037a C0F20003 		movt	r3, #:upper16:returnval2
 432 037e 1B78     		ldrb	r3, [r3, #0]	@ zero_extendqisi2
 433 0380 6FEA0303 		mvn	r3, r3
 434 0384 DBB2     		uxtb	r3, r3
 435 0386 03F00F03 		and	r3, r3, #15
 436 038a DAB2     		uxtb	r2, r3
 437 038c 40F20003 		movw	r3, #:lower16:returnval2
 438 0390 C0F20003 		movt	r3, #:upper16:returnval2
 439 0394 1A70     		strb	r2, [r3, #0]
  81:.\main.c      ****         switch(returnval2){ //ladder
 440              		.loc 1 81 0
 441 0396 40F20003 		movw	r3, #:lower16:returnval2
 442 039a C0F20003 		movt	r3, #:upper16:returnval2
 443 039e 1B78     		ldrb	r3, [r3, #0]	@ zero_extendqisi2
 444 03a0 0F2B     		cmp	r3, #15
 445 03a2 3FF638AE 		bhi	.L39
 446 03a6 01A2     		adr	r2, .L37
 447 03a8 52F823F0 		ldr	pc, [r2, r3, lsl #2]
 448              		.align	2
 449              	.L37:
 450 03ac ED030000 		.word	.L21+1
 451 03b0 1F040000 		.word	.L22+1
 452 03b4 4D040000 		.word	.L23+1
 453 03b8 7F040000 		.word	.L24+1
 454 03bc B3040000 		.word	.L25+1
 455 03c0 E5040000 		.word	.L26+1
 456 03c4 13050000 		.word	.L27+1
 457 03c8 45050000 		.word	.L28+1
 458 03cc 69050000 		.word	.L29+1
ARM GAS  C:\Users\Kenichi\AppData\Local\Temp\cc1rfsBF.s 			page 12


 459 03d0 7D050000 		.word	.L30+1
 460 03d4 A1050000 		.word	.L31+1
 461 03d8 CB050000 		.word	.L32+1
 462 03dc F9050000 		.word	.L33+1
 463 03e0 23060000 		.word	.L34+1
 464 03e4 51060000 		.word	.L35+1
 465 03e8 83060000 		.word	.L36+1
 466              	.L21:
  83:.\main.c      ****             PWM_2_WriteCompare(NEUTRAL_LAD - DIAL*8);
 467              		.loc 1 83 0
 468 03ec 40F20003 		movw	r3, #:lower16:DIAL
 469 03f0 C0F20003 		movt	r3, #:upper16:DIAL
 470 03f4 1B68     		ldr	r3, [r3, #0]
 471 03f6 9BB2     		uxth	r3, r3
 472 03f8 1A46     		mov	r2, r3	@ movhi
 473 03fa 4FEA4232 		lsl	r2, r2, #13
 474 03fe D31A     		subs	r3, r2, r3
 475 0400 4FEAC303 		lsl	r3, r3, #3
 476 0404 9AB2     		uxth	r2, r3
 477 0406 40F20003 		movw	r3, #:lower16:NEUTRAL_LAD
 478 040a C0F20003 		movt	r3, #:upper16:NEUTRAL_LAD
 479 040e 1B68     		ldr	r3, [r3, #0]
 480 0410 9BB2     		uxth	r3, r3
 481 0412 D318     		adds	r3, r2, r3
 482 0414 9BB2     		uxth	r3, r3
 483 0416 1846     		mov	r0, r3
 484 0418 FFF7FEFF 		bl	PWM_2_WriteCompare
  84:.\main.c      ****             break;
 485              		.loc 1 84 0
 486 041c 48E1     		b	.L20
 487              	.L22:
  86:.\main.c      ****             PWM_2_WriteCompare(NEUTRAL_LAD - DIAL*7);
 488              		.loc 1 86 0
 489 041e 40F20003 		movw	r3, #:lower16:DIAL
 490 0422 C0F20003 		movt	r3, #:upper16:DIAL
 491 0426 1B68     		ldr	r3, [r3, #0]
 492 0428 9BB2     		uxth	r3, r3
 493 042a 1A46     		mov	r2, r3	@ movhi
 494 042c 4FEAC303 		lsl	r3, r3, #3
 495 0430 D31A     		subs	r3, r2, r3
 496 0432 9AB2     		uxth	r2, r3
 497 0434 40F20003 		movw	r3, #:lower16:NEUTRAL_LAD
 498 0438 C0F20003 		movt	r3, #:upper16:NEUTRAL_LAD
 499 043c 1B68     		ldr	r3, [r3, #0]
 500 043e 9BB2     		uxth	r3, r3
 501 0440 D318     		adds	r3, r2, r3
 502 0442 9BB2     		uxth	r3, r3
 503 0444 1846     		mov	r0, r3
 504 0446 FFF7FEFF 		bl	PWM_2_WriteCompare
  87:.\main.c      ****             break;
 505              		.loc 1 87 0
 506 044a 31E1     		b	.L20
 507              	.L23:
  89:.\main.c      ****             PWM_2_WriteCompare(NEUTRAL_LAD - DIAL*6);
 508              		.loc 1 89 0
 509 044c 40F20003 		movw	r3, #:lower16:DIAL
 510 0450 C0F20003 		movt	r3, #:upper16:DIAL
ARM GAS  C:\Users\Kenichi\AppData\Local\Temp\cc1rfsBF.s 			page 13


 511 0454 1B68     		ldr	r3, [r3, #0]
 512 0456 9BB2     		uxth	r3, r3
 513 0458 1A46     		mov	r2, r3	@ movhi
 514 045a 4FEA8303 		lsl	r3, r3, #2
 515 045e D31A     		subs	r3, r2, r3
 516 0460 4FEA4303 		lsl	r3, r3, #1
 517 0464 9AB2     		uxth	r2, r3
 518 0466 40F20003 		movw	r3, #:lower16:NEUTRAL_LAD
 519 046a C0F20003 		movt	r3, #:upper16:NEUTRAL_LAD
 520 046e 1B68     		ldr	r3, [r3, #0]
 521 0470 9BB2     		uxth	r3, r3
 522 0472 D318     		adds	r3, r2, r3
 523 0474 9BB2     		uxth	r3, r3
 524 0476 1846     		mov	r0, r3
 525 0478 FFF7FEFF 		bl	PWM_2_WriteCompare
  90:.\main.c      ****             break;
 526              		.loc 1 90 0
 527 047c 18E1     		b	.L20
 528              	.L24:
  92:.\main.c      ****             PWM_2_WriteCompare(NEUTRAL_LAD - DIAL*5);
 529              		.loc 1 92 0
 530 047e 40F20003 		movw	r3, #:lower16:DIAL
 531 0482 C0F20003 		movt	r3, #:upper16:DIAL
 532 0486 1B68     		ldr	r3, [r3, #0]
 533 0488 9BB2     		uxth	r3, r3
 534 048a 1A46     		mov	r2, r3	@ movhi
 535 048c 4FEA8232 		lsl	r2, r2, #14
 536 0490 D21A     		subs	r2, r2, r3
 537 0492 4FEA8202 		lsl	r2, r2, #2
 538 0496 D31A     		subs	r3, r2, r3
 539 0498 9AB2     		uxth	r2, r3
 540 049a 40F20003 		movw	r3, #:lower16:NEUTRAL_LAD
 541 049e C0F20003 		movt	r3, #:upper16:NEUTRAL_LAD
 542 04a2 1B68     		ldr	r3, [r3, #0]
 543 04a4 9BB2     		uxth	r3, r3
 544 04a6 D318     		adds	r3, r2, r3
 545 04a8 9BB2     		uxth	r3, r3
 546 04aa 1846     		mov	r0, r3
 547 04ac FFF7FEFF 		bl	PWM_2_WriteCompare
  93:.\main.c      ****             break;
 548              		.loc 1 93 0
 549 04b0 FEE0     		b	.L20
 550              	.L25:
  95:.\main.c      ****             PWM_2_WriteCompare(NEUTRAL_LAD - DIAL*4);
 551              		.loc 1 95 0
 552 04b2 40F20003 		movw	r3, #:lower16:DIAL
 553 04b6 C0F20003 		movt	r3, #:upper16:DIAL
 554 04ba 1B68     		ldr	r3, [r3, #0]
 555 04bc 9BB2     		uxth	r3, r3
 556 04be 1A46     		mov	r2, r3	@ movhi
 557 04c0 4FEA8232 		lsl	r2, r2, #14
 558 04c4 D31A     		subs	r3, r2, r3
 559 04c6 4FEA8303 		lsl	r3, r3, #2
 560 04ca 9AB2     		uxth	r2, r3
 561 04cc 40F20003 		movw	r3, #:lower16:NEUTRAL_LAD
 562 04d0 C0F20003 		movt	r3, #:upper16:NEUTRAL_LAD
 563 04d4 1B68     		ldr	r3, [r3, #0]
ARM GAS  C:\Users\Kenichi\AppData\Local\Temp\cc1rfsBF.s 			page 14


 564 04d6 9BB2     		uxth	r3, r3
 565 04d8 D318     		adds	r3, r2, r3
 566 04da 9BB2     		uxth	r3, r3
 567 04dc 1846     		mov	r0, r3
 568 04de FFF7FEFF 		bl	PWM_2_WriteCompare
  96:.\main.c      ****             break;
 569              		.loc 1 96 0
 570 04e2 E5E0     		b	.L20
 571              	.L26:
  98:.\main.c      ****             PWM_2_WriteCompare(NEUTRAL_LAD - DIAL*3);
 572              		.loc 1 98 0
 573 04e4 40F20003 		movw	r3, #:lower16:DIAL
 574 04e8 C0F20003 		movt	r3, #:upper16:DIAL
 575 04ec 1B68     		ldr	r3, [r3, #0]
 576 04ee 9BB2     		uxth	r3, r3
 577 04f0 1A46     		mov	r2, r3	@ movhi
 578 04f2 4FEA8303 		lsl	r3, r3, #2
 579 04f6 D31A     		subs	r3, r2, r3
 580 04f8 9AB2     		uxth	r2, r3
 581 04fa 40F20003 		movw	r3, #:lower16:NEUTRAL_LAD
 582 04fe C0F20003 		movt	r3, #:upper16:NEUTRAL_LAD
 583 0502 1B68     		ldr	r3, [r3, #0]
 584 0504 9BB2     		uxth	r3, r3
 585 0506 D318     		adds	r3, r2, r3
 586 0508 9BB2     		uxth	r3, r3
 587 050a 1846     		mov	r0, r3
 588 050c FFF7FEFF 		bl	PWM_2_WriteCompare
  99:.\main.c      ****             break;
 589              		.loc 1 99 0
 590 0510 CEE0     		b	.L20
 591              	.L27:
 101:.\main.c      ****             PWM_2_WriteCompare(NEUTRAL_LAD - DIAL*2);
 592              		.loc 1 101 0
 593 0512 40F20003 		movw	r3, #:lower16:DIAL
 594 0516 C0F20003 		movt	r3, #:upper16:DIAL
 595 051a 1B68     		ldr	r3, [r3, #0]
 596 051c 9BB2     		uxth	r3, r3
 597 051e 1A46     		mov	r2, r3	@ movhi
 598 0520 4FEAC232 		lsl	r2, r2, #15
 599 0524 D31A     		subs	r3, r2, r3
 600 0526 4FEA4303 		lsl	r3, r3, #1
 601 052a 9AB2     		uxth	r2, r3
 602 052c 40F20003 		movw	r3, #:lower16:NEUTRAL_LAD
 603 0530 C0F20003 		movt	r3, #:upper16:NEUTRAL_LAD
 604 0534 1B68     		ldr	r3, [r3, #0]
 605 0536 9BB2     		uxth	r3, r3
 606 0538 D318     		adds	r3, r2, r3
 607 053a 9BB2     		uxth	r3, r3
 608 053c 1846     		mov	r0, r3
 609 053e FFF7FEFF 		bl	PWM_2_WriteCompare
 102:.\main.c      ****             break;
 610              		.loc 1 102 0
 611 0542 B5E0     		b	.L20
 612              	.L28:
 104:.\main.c      ****             PWM_2_WriteCompare(NEUTRAL_LAD - DIAL);
 613              		.loc 1 104 0
 614 0544 40F20003 		movw	r3, #:lower16:NEUTRAL_LAD
ARM GAS  C:\Users\Kenichi\AppData\Local\Temp\cc1rfsBF.s 			page 15


 615 0548 C0F20003 		movt	r3, #:upper16:NEUTRAL_LAD
 616 054c 1B68     		ldr	r3, [r3, #0]
 617 054e 9AB2     		uxth	r2, r3
 618 0550 40F20003 		movw	r3, #:lower16:DIAL
 619 0554 C0F20003 		movt	r3, #:upper16:DIAL
 620 0558 1B68     		ldr	r3, [r3, #0]
 621 055a 9BB2     		uxth	r3, r3
 622 055c D31A     		subs	r3, r2, r3
 623 055e 9BB2     		uxth	r3, r3
 624 0560 1846     		mov	r0, r3
 625 0562 FFF7FEFF 		bl	PWM_2_WriteCompare
 105:.\main.c      ****             break;
 626              		.loc 1 105 0
 627 0566 A3E0     		b	.L20
 628              	.L29:
 107:.\main.c      ****             PWM_2_WriteCompare(NEUTRAL_LAD);
 629              		.loc 1 107 0
 630 0568 40F20003 		movw	r3, #:lower16:NEUTRAL_LAD
 631 056c C0F20003 		movt	r3, #:upper16:NEUTRAL_LAD
 632 0570 1B68     		ldr	r3, [r3, #0]
 633 0572 9BB2     		uxth	r3, r3
 634 0574 1846     		mov	r0, r3
 635 0576 FFF7FEFF 		bl	PWM_2_WriteCompare
 108:.\main.c      ****             break;
 636              		.loc 1 108 0
 637 057a 99E0     		b	.L20
 638              	.L30:
 110:.\main.c      ****             PWM_2_WriteCompare(NEUTRAL_LAD + DIAL);
 639              		.loc 1 110 0
 640 057c 40F20003 		movw	r3, #:lower16:NEUTRAL_LAD
 641 0580 C0F20003 		movt	r3, #:upper16:NEUTRAL_LAD
 642 0584 1B68     		ldr	r3, [r3, #0]
 643 0586 9AB2     		uxth	r2, r3
 644 0588 40F20003 		movw	r3, #:lower16:DIAL
 645 058c C0F20003 		movt	r3, #:upper16:DIAL
 646 0590 1B68     		ldr	r3, [r3, #0]
 647 0592 9BB2     		uxth	r3, r3
 648 0594 D318     		adds	r3, r2, r3
 649 0596 9BB2     		uxth	r3, r3
 650 0598 1846     		mov	r0, r3
 651 059a FFF7FEFF 		bl	PWM_2_WriteCompare
 111:.\main.c      ****             break;
 652              		.loc 1 111 0
 653 059e 87E0     		b	.L20
 654              	.L31:
 113:.\main.c      ****             PWM_2_WriteCompare(NEUTRAL_LAD + DIAL*2);
 655              		.loc 1 113 0
 656 05a0 40F20003 		movw	r3, #:lower16:DIAL
 657 05a4 C0F20003 		movt	r3, #:upper16:DIAL
 658 05a8 1B68     		ldr	r3, [r3, #0]
 659 05aa 9BB2     		uxth	r3, r3
 660 05ac 4FEA4303 		lsl	r3, r3, #1
 661 05b0 9AB2     		uxth	r2, r3
 662 05b2 40F20003 		movw	r3, #:lower16:NEUTRAL_LAD
 663 05b6 C0F20003 		movt	r3, #:upper16:NEUTRAL_LAD
 664 05ba 1B68     		ldr	r3, [r3, #0]
 665 05bc 9BB2     		uxth	r3, r3
ARM GAS  C:\Users\Kenichi\AppData\Local\Temp\cc1rfsBF.s 			page 16


 666 05be D318     		adds	r3, r2, r3
 667 05c0 9BB2     		uxth	r3, r3
 668 05c2 1846     		mov	r0, r3
 669 05c4 FFF7FEFF 		bl	PWM_2_WriteCompare
 114:.\main.c      ****             break;
 670              		.loc 1 114 0
 671 05c8 72E0     		b	.L20
 672              	.L32:
 116:.\main.c      ****             PWM_2_WriteCompare(NEUTRAL_LAD + DIAL*3);
 673              		.loc 1 116 0
 674 05ca 40F20003 		movw	r3, #:lower16:DIAL
 675 05ce C0F20003 		movt	r3, #:upper16:DIAL
 676 05d2 1B68     		ldr	r3, [r3, #0]
 677 05d4 9BB2     		uxth	r3, r3
 678 05d6 1A46     		mov	r2, r3	@ movhi
 679 05d8 4FEA4202 		lsl	r2, r2, #1
 680 05dc D318     		adds	r3, r2, r3
 681 05de 9AB2     		uxth	r2, r3
 682 05e0 40F20003 		movw	r3, #:lower16:NEUTRAL_LAD
 683 05e4 C0F20003 		movt	r3, #:upper16:NEUTRAL_LAD
 684 05e8 1B68     		ldr	r3, [r3, #0]
 685 05ea 9BB2     		uxth	r3, r3
 686 05ec D318     		adds	r3, r2, r3
 687 05ee 9BB2     		uxth	r3, r3
 688 05f0 1846     		mov	r0, r3
 689 05f2 FFF7FEFF 		bl	PWM_2_WriteCompare
 117:.\main.c      ****             break;
 690              		.loc 1 117 0
 691 05f6 5BE0     		b	.L20
 692              	.L33:
 119:.\main.c      ****             PWM_2_WriteCompare(NEUTRAL_LAD + DIAL*4);
 693              		.loc 1 119 0
 694 05f8 40F20003 		movw	r3, #:lower16:DIAL
 695 05fc C0F20003 		movt	r3, #:upper16:DIAL
 696 0600 1B68     		ldr	r3, [r3, #0]
 697 0602 9BB2     		uxth	r3, r3
 698 0604 4FEA8303 		lsl	r3, r3, #2
 699 0608 9AB2     		uxth	r2, r3
 700 060a 40F20003 		movw	r3, #:lower16:NEUTRAL_LAD
 701 060e C0F20003 		movt	r3, #:upper16:NEUTRAL_LAD
 702 0612 1B68     		ldr	r3, [r3, #0]
 703 0614 9BB2     		uxth	r3, r3
 704 0616 D318     		adds	r3, r2, r3
 705 0618 9BB2     		uxth	r3, r3
 706 061a 1846     		mov	r0, r3
 707 061c FFF7FEFF 		bl	PWM_2_WriteCompare
 120:.\main.c      ****             break;
 708              		.loc 1 120 0
 709 0620 46E0     		b	.L20
 710              	.L34:
 122:.\main.c      ****             PWM_2_WriteCompare(NEUTRAL_LAD + DIAL*5);
 711              		.loc 1 122 0
 712 0622 40F20003 		movw	r3, #:lower16:DIAL
 713 0626 C0F20003 		movt	r3, #:upper16:DIAL
 714 062a 1B68     		ldr	r3, [r3, #0]
 715 062c 9BB2     		uxth	r3, r3
 716 062e 1A46     		mov	r2, r3	@ movhi
ARM GAS  C:\Users\Kenichi\AppData\Local\Temp\cc1rfsBF.s 			page 17


 717 0630 4FEA8202 		lsl	r2, r2, #2
 718 0634 D318     		adds	r3, r2, r3
 719 0636 9AB2     		uxth	r2, r3
 720 0638 40F20003 		movw	r3, #:lower16:NEUTRAL_LAD
 721 063c C0F20003 		movt	r3, #:upper16:NEUTRAL_LAD
 722 0640 1B68     		ldr	r3, [r3, #0]
 723 0642 9BB2     		uxth	r3, r3
 724 0644 D318     		adds	r3, r2, r3
 725 0646 9BB2     		uxth	r3, r3
 726 0648 1846     		mov	r0, r3
 727 064a FFF7FEFF 		bl	PWM_2_WriteCompare
 123:.\main.c      ****             break;
 728              		.loc 1 123 0
 729 064e 2FE0     		b	.L20
 730              	.L35:
 125:.\main.c      ****             PWM_2_WriteCompare(NEUTRAL_LAD + DIAL*6);
 731              		.loc 1 125 0
 732 0650 40F20003 		movw	r3, #:lower16:DIAL
 733 0654 C0F20003 		movt	r3, #:upper16:DIAL
 734 0658 1B68     		ldr	r3, [r3, #0]
 735 065a 9BB2     		uxth	r3, r3
 736 065c 1A46     		mov	r2, r3	@ movhi
 737 065e 4FEA4202 		lsl	r2, r2, #1
 738 0662 D318     		adds	r3, r2, r3
 739 0664 4FEA4303 		lsl	r3, r3, #1
 740 0668 9AB2     		uxth	r2, r3
 741 066a 40F20003 		movw	r3, #:lower16:NEUTRAL_LAD
 742 066e C0F20003 		movt	r3, #:upper16:NEUTRAL_LAD
 743 0672 1B68     		ldr	r3, [r3, #0]
 744 0674 9BB2     		uxth	r3, r3
 745 0676 D318     		adds	r3, r2, r3
 746 0678 9BB2     		uxth	r3, r3
 747 067a 1846     		mov	r0, r3
 748 067c FFF7FEFF 		bl	PWM_2_WriteCompare
 126:.\main.c      ****             break;
 749              		.loc 1 126 0
 750 0680 16E0     		b	.L20
 751              	.L36:
 128:.\main.c      ****             PWM_2_WriteCompare(NEUTRAL_LAD + DIAL*7);
 752              		.loc 1 128 0
 753 0682 40F20003 		movw	r3, #:lower16:DIAL
 754 0686 C0F20003 		movt	r3, #:upper16:DIAL
 755 068a 1B68     		ldr	r3, [r3, #0]
 756 068c 9BB2     		uxth	r3, r3
 757 068e 1A46     		mov	r2, r3	@ movhi
 758 0690 4FEAC202 		lsl	r2, r2, #3
 759 0694 D31A     		subs	r3, r2, r3
 760 0696 9AB2     		uxth	r2, r3
 761 0698 40F20003 		movw	r3, #:lower16:NEUTRAL_LAD
 762 069c C0F20003 		movt	r3, #:upper16:NEUTRAL_LAD
 763 06a0 1B68     		ldr	r3, [r3, #0]
 764 06a2 9BB2     		uxth	r3, r3
 765 06a4 D318     		adds	r3, r2, r3
 766 06a6 9BB2     		uxth	r3, r3
 767 06a8 1846     		mov	r0, r3
 768 06aa FFF7FEFF 		bl	PWM_2_WriteCompare
 129:.\main.c      ****             break;
ARM GAS  C:\Users\Kenichi\AppData\Local\Temp\cc1rfsBF.s 			page 18


 769              		.loc 1 129 0
 770 06ae 00BF     		nop
 771              	.L20:
 772              		.loc 1 131 0
 773 06b0 B1E4     		b	.L39
 774              		.cfi_endproc
 775              	.LFE56:
 776              		.size	main, .-main
 777 06b2 00BF     		.text
 778              	.Letext0:
 779              		.file 2 "c:\\program files (x86)\\cypress\\psoc creator\\3.0\\psoc creator\\import\\gnu_cs\\arm\\4
 780              		.file 3 "./Generated_Source/PSoC5/cytypes.h"
 781              		.file 4 "./Generated_Source/PSoC5/core_cm3.h"
